{"abi":[{"type":"constructor","inputs":[{"name":"_platformFee","type":"uint256","internalType":"uint256"},{"name":"_partFee","type":"uint256","internalType":"uint256"},{"name":"_treasury","type":"address","internalType":"address"},{"name":"_vrfCoordinator","type":"address","internalType":"address"}],"stateMutability":"nonpayable"},{"type":"function","name":"acceptOwnership","inputs":[],"outputs":[],"stateMutability":"nonpayable"},{"type":"function","name":"allowParticipants","inputs":[{"name":"potId","type":"uint256","internalType":"uint256"},{"name":"participants","type":"address[]","internalType":"address[]"}],"outputs":[],"stateMutability":"nonpayable"},{"type":"function","name":"callbackGasLimit","inputs":[],"outputs":[{"name":"","type":"uint32","internalType":"uint32"}],"stateMutability":"view"},{"type":"function","name":"createPot","inputs":[{"name":"name","type":"bytes","internalType":"bytes"},{"name":"token","type":"address","internalType":"address"},{"name":"entryAmount","type":"uint256","internalType":"uint256"},{"name":"maxParticipants","type":"uint8","internalType":"uint8"},{"name":"periodSeconds","type":"uint256","internalType":"uint256"},{"name":"isPublic","type":"bool","internalType":"bool"}],"outputs":[],"stateMutability":"payable"},{"type":"function","name":"endBatch","inputs":[{"name":"potIds","type":"uint256[]","internalType":"uint256[]"}],"outputs":[],"stateMutability":"nonpayable"},{"type":"function","name":"endPot","inputs":[{"name":"potId","type":"uint256","internalType":"uint256"}],"outputs":[],"stateMutability":"nonpayable"},{"type":"function","name":"getParticipants","inputs":[{"name":"potId","type":"uint256","internalType":"uint256"}],"outputs":[{"name":"","type":"address[]","internalType":"address[]"}],"stateMutability":"view"},{"type":"function","name":"getRequests","inputs":[{"name":"potId","type":"uint256","internalType":"uint256"}],"outputs":[{"name":"","type":"tuple[]","internalType":"struct Potluck.PotRequest[]","components":[{"name":"requestor","type":"address","internalType":"address"},{"name":"timestamp","type":"uint256","internalType":"uint256"},{"name":"status","type":"uint8","internalType":"enum Potluck.RequestStatus"}]}],"stateMutability":"view"},{"type":"function","name":"hasJoinedRound","inputs":[{"name":"","type":"bytes32","internalType":"bytes32"}],"outputs":[{"name":"","type":"bool","internalType":"bool"}],"stateMutability":"view"},{"type":"function","name":"hasWon","inputs":[{"name":"","type":"bytes32","internalType":"bytes32"}],"outputs":[{"name":"","type":"bool","internalType":"bool"}],"stateMutability":"view"},{"type":"function","name":"isAllowed","inputs":[{"name":"","type":"uint256","internalType":"uint256"},{"name":"","type":"address","internalType":"address"}],"outputs":[{"name":"","type":"bool","internalType":"bool"}],"stateMutability":"view"},{"type":"function","name":"joinOnBehalf","inputs":[{"name":"potId","type":"uint256","internalType":"uint256"},{"name":"participant","type":"address","internalType":"address"}],"outputs":[],"stateMutability":"nonpayable"},{"type":"function","name":"joinPot","inputs":[{"name":"potId","type":"uint256","internalType":"uint256"}],"outputs":[],"stateMutability":"nonpayable"},{"type":"function","name":"keyHash","inputs":[],"outputs":[{"name":"","type":"bytes32","internalType":"bytes32"}],"stateMutability":"view"},{"type":"function","name":"owner","inputs":[],"outputs":[{"name":"","type":"address","internalType":"address"}],"stateMutability":"view"},{"type":"function","name":"participantFee","inputs":[],"outputs":[{"name":"","type":"uint256","internalType":"uint256"}],"stateMutability":"view"},{"type":"function","name":"platformFee","inputs":[],"outputs":[{"name":"","type":"uint256","internalType":"uint256"}],"stateMutability":"view"},{"type":"function","name":"potCount","inputs":[],"outputs":[{"name":"","type":"uint256","internalType":"uint256"}],"stateMutability":"view"},{"type":"function","name":"potluckOwner","inputs":[],"outputs":[{"name":"","type":"address","internalType":"address"}],"stateMutability":"view"},{"type":"function","name":"pots","inputs":[{"name":"","type":"uint256","internalType":"uint256"}],"outputs":[{"name":"id","type":"uint256","internalType":"uint256"},{"name":"creator","type":"address","internalType":"address"},{"name":"name","type":"bytes","internalType":"bytes"},{"name":"round","type":"uint32","internalType":"uint32"},{"name":"deadline","type":"uint256","internalType":"uint256"},{"name":"balance","type":"uint256","internalType":"uint256"},{"name":"token","type":"address","internalType":"address"},{"name":"entryAmount","type":"uint256","internalType":"uint256"},{"name":"period","type":"uint256","internalType":"uint256"},{"name":"totalParticipants","type":"uint32","internalType":"uint32"},{"name":"maxParticipants","type":"uint8","internalType":"uint8"},{"name":"isPublic","type":"bool","internalType":"bool"}],"stateMutability":"view"},{"type":"function","name":"rawFulfillRandomWords","inputs":[{"name":"requestId","type":"uint256","internalType":"uint256"},{"name":"randomWords","type":"uint256[]","internalType":"uint256[]"}],"outputs":[],"stateMutability":"nonpayable"},{"type":"function","name":"requestConfirmations","inputs":[],"outputs":[{"name":"","type":"uint16","internalType":"uint16"}],"stateMutability":"view"},{"type":"function","name":"requestPotAllow","inputs":[{"name":"potId","type":"uint256","internalType":"uint256"}],"outputs":[],"stateMutability":"nonpayable"},{"type":"function","name":"requestToPot","inputs":[{"name":"","type":"uint256","internalType":"uint256"}],"outputs":[{"name":"","type":"uint256","internalType":"uint256"}],"stateMutability":"view"},{"type":"function","name":"requestToRound","inputs":[{"name":"","type":"uint256","internalType":"uint256"}],"outputs":[{"name":"","type":"uint32","internalType":"uint32"}],"stateMutability":"view"},{"type":"function","name":"requestedParticipants","inputs":[{"name":"","type":"uint256","internalType":"uint256"},{"name":"","type":"uint256","internalType":"uint256"}],"outputs":[{"name":"requestor","type":"address","internalType":"address"},{"name":"timestamp","type":"uint256","internalType":"uint256"},{"name":"status","type":"uint8","internalType":"enum Potluck.RequestStatus"}],"stateMutability":"view"},{"type":"function","name":"s_subscriptionId","inputs":[],"outputs":[{"name":"","type":"uint64","internalType":"uint64"}],"stateMutability":"view"},{"type":"function","name":"s_vrfCoordinator","inputs":[],"outputs":[{"name":"","type":"address","internalType":"contract IVRFCoordinatorV2Plus"}],"stateMutability":"view"},{"type":"function","name":"setChainlinkVRF","inputs":[{"name":"_vrfCoordinator","type":"address","internalType":"address"},{"name":"_keyHash","type":"bytes32","internalType":"bytes32"},{"name":"_subscriptionId","type":"uint64","internalType":"uint64"},{"name":"_requestConfirmations","type":"uint16","internalType":"uint16"},{"name":"_callbackGasLimit","type":"uint32","internalType":"uint32"}],"outputs":[],"stateMutability":"nonpayable"},{"type":"function","name":"setCoordinator","inputs":[{"name":"_vrfCoordinator","type":"address","internalType":"address"}],"outputs":[],"stateMutability":"nonpayable"},{"type":"function","name":"setFees","inputs":[{"name":"_flatFee","type":"uint256","internalType":"uint256"},{"name":"_perPartFee","type":"uint256","internalType":"uint256"}],"outputs":[],"stateMutability":"nonpayable"},{"type":"function","name":"setTreasury","inputs":[{"name":"newTreasury","type":"address","internalType":"address"}],"outputs":[],"stateMutability":"nonpayable"},{"type":"function","name":"transferOwnership","inputs":[{"name":"to","type":"address","internalType":"address"}],"outputs":[],"stateMutability":"nonpayable"},{"type":"function","name":"treasury","inputs":[],"outputs":[{"name":"","type":"address","internalType":"address"}],"stateMutability":"view"},{"type":"function","name":"triggerBatchJoinOnBehalf","inputs":[{"name":"potId","type":"uint256","internalType":"uint256"},{"name":"participants","type":"address[]","internalType":"address[]"}],"outputs":[],"stateMutability":"nonpayable"},{"type":"function","name":"triggerBatchPayout","inputs":[{"name":"potIds","type":"uint256[]","internalType":"uint256[]"}],"outputs":[],"stateMutability":"nonpayable"},{"type":"function","name":"triggerPotPayout","inputs":[{"name":"potId","type":"uint256","internalType":"uint256"}],"outputs":[],"stateMutability":"nonpayable"},{"type":"function","name":"vrfCoordinator","inputs":[],"outputs":[{"name":"","type":"address","internalType":"contract VRFCoordinatorV2_5"}],"stateMutability":"view"},{"type":"function","name":"withdraw","inputs":[],"outputs":[],"stateMutability":"nonpayable"},{"type":"event","name":"AllowedParticipantAdded","inputs":[{"name":"potId","type":"uint256","indexed":true,"internalType":"uint256"},{"name":"user","type":"address","indexed":true,"internalType":"address"}],"anonymous":false},{"type":"event","name":"CoordinatorSet","inputs":[{"name":"vrfCoordinator","type":"address","indexed":false,"internalType":"address"}],"anonymous":false},{"type":"event","name":"OwnershipTransferRequested","inputs":[{"name":"from","type":"address","indexed":true,"internalType":"address"},{"name":"to","type":"address","indexed":true,"internalType":"address"}],"anonymous":false},{"type":"event","name":"OwnershipTransferred","inputs":[{"name":"from","type":"address","indexed":true,"internalType":"address"},{"name":"to","type":"address","indexed":true,"internalType":"address"}],"anonymous":false},{"type":"event","name":"PotAllowRequested","inputs":[{"name":"potId","type":"uint256","indexed":true,"internalType":"uint256"},{"name":"requestor","type":"address","indexed":true,"internalType":"address"}],"anonymous":false},{"type":"event","name":"PotCreated","inputs":[{"name":"potId","type":"uint256","indexed":true,"internalType":"uint256"},{"name":"creator","type":"address","indexed":true,"internalType":"address"}],"anonymous":false},{"type":"event","name":"PotEnded","inputs":[{"name":"potId","type":"uint256","indexed":true,"internalType":"uint256"}],"anonymous":false},{"type":"event","name":"PotJoined","inputs":[{"name":"potId","type":"uint256","indexed":true,"internalType":"uint256"},{"name":"roundId","type":"uint32","indexed":false,"internalType":"uint32"},{"name":"user","type":"address","indexed":true,"internalType":"address"}],"anonymous":false},{"type":"event","name":"PotPayout","inputs":[{"name":"potId","type":"uint256","indexed":true,"internalType":"uint256"},{"name":"winner","type":"address","indexed":true,"internalType":"address"},{"name":"amount","type":"uint256","indexed":false,"internalType":"uint256"},{"name":"round","type":"uint32","indexed":false,"internalType":"uint32"}],"anonymous":false},{"type":"error","name":"AlreadyJoined","inputs":[{"name":"potId","type":"uint256","internalType":"uint256"},{"name":"round","type":"uint32","internalType":"uint32"},{"name":"user","type":"address","internalType":"address"}]},{"type":"error","name":"EntryAmountZero","inputs":[]},{"type":"error","name":"InsufficientFundsToCreatePot","inputs":[{"name":"sent","type":"uint256","internalType":"uint256"},{"name":"required","type":"uint256","internalType":"uint256"}]},{"type":"error","name":"InsufficientFundsToRollover","inputs":[{"name":"total","type":"uint256","internalType":"uint256"},{"name":"rollover","type":"uint256","internalType":"uint256"}]},{"type":"error","name":"NoEligibleParticipants","inputs":[]},{"type":"error","name":"NotAllParticipantsWon","inputs":[{"name":"potId","type":"uint256","internalType":"uint256"}]},{"type":"error","name":"NotAllowed","inputs":[{"name":"user","type":"address","internalType":"address"},{"name":"potId","type":"uint256","internalType":"uint256"}]},{"type":"error","name":"NotPotCreator","inputs":[{"name":"sender","type":"address","internalType":"address"},{"name":"potId","type":"uint256","internalType":"uint256"}]},{"type":"error","name":"OnlyCoordinatorCanFulfill","inputs":[{"name":"have","type":"address","internalType":"address"},{"name":"want","type":"address","internalType":"address"}]},{"type":"error","name":"OnlyOwnerOrCoordinator","inputs":[{"name":"have","type":"address","internalType":"address"},{"name":"owner","type":"address","internalType":"address"},{"name":"coordinator","type":"address","internalType":"address"}]},{"type":"error","name":"PeriodTooShort","inputs":[]},{"type":"error","name":"PotDoesNotExist","inputs":[{"name":"potId","type":"uint256","internalType":"uint256"}]},{"type":"error","name":"PotFull","inputs":[{"name":"maxParticipants","type":"uint8","internalType":"uint8"}]},{"type":"error","name":"RoundEnded","inputs":[{"name":"deadline","type":"uint256","internalType":"uint256"},{"name":"nowTimestamp","type":"uint256","internalType":"uint256"}]},{"type":"error","name":"RoundNotReady","inputs":[{"name":"deadline","type":"uint256","internalType":"uint256"},{"name":"nowTimestamp","type":"uint256","internalType":"uint256"}]},{"type":"error","name":"ZeroAddress","inputs":[]}],"bytecode":{"object":"0x60806040523480156200001157600080fd5b5060405162005d1238038062005d1283398181016040528101906200003791906200049b565b80338060006001600081905550600073ffffffffffffffffffffffffffffffffffffffff168273ffffffffffffffffffffffffffffffffffffffff1603620000b6576040517f08c379a0000000000000000000000000000000000000000000000000000000008152600401620000ad906200056e565b60405180910390fd5b81600160006101000a81548173ffffffffffffffffffffffffffffffffffffffff021916908373ffffffffffffffffffffffffffffffffffffffff160217905550600073ffffffffffffffffffffffffffffffffffffffff168173ffffffffffffffffffffffffffffffffffffffff16146200013e576200013d81620002c560201b60201c565b5b505050600073ffffffffffffffffffffffffffffffffffffffff168173ffffffffffffffffffffffffffffffffffffffff1603620001a8576040517fd92e233d00000000000000000000000000000000000000000000000000000000815260040160405180910390fd5b80600360006101000a81548173ffffffffffffffffffffffffffffffffffffffff021916908373ffffffffffffffffffffffffffffffffffffffff160217905550508360058190555081600760006101000a81548173ffffffffffffffffffffffffffffffffffffffff021916908373ffffffffffffffffffffffffffffffffffffffff1602179055508260068190555033600860006101000a81548173ffffffffffffffffffffffffffffffffffffffff021916908373ffffffffffffffffffffffffffffffffffffffff16021790555080600960006101000a81548173ffffffffffffffffffffffffffffffffffffffff021916908373ffffffffffffffffffffffffffffffffffffffff1602179055505050505062000602565b3373ffffffffffffffffffffffffffffffffffffffff168173ffffffffffffffffffffffffffffffffffffffff160362000336576040517f08c379a00000000000000000000000000000000000000000000000000000000081526004016200032d90620005e0565b60405180910390fd5b80600260006101000a81548173ffffffffffffffffffffffffffffffffffffffff021916908373ffffffffffffffffffffffffffffffffffffffff1602179055508073ffffffffffffffffffffffffffffffffffffffff16600160009054906101000a900473ffffffffffffffffffffffffffffffffffffffff1673ffffffffffffffffffffffffffffffffffffffff167fed8889f560326eb138920d842192f0eb3dd22b4f139c87a2c57538e05bae127860405160405180910390a350565b600080fd5b6000819050919050565b6200041081620003fb565b81146200041c57600080fd5b50565b600081519050620004308162000405565b92915050565b600073ffffffffffffffffffffffffffffffffffffffff82169050919050565b6000620004638262000436565b9050919050565b620004758162000456565b81146200048157600080fd5b50565b60008151905062000495816200046a565b92915050565b60008060008060808587031215620004b857620004b7620003f6565b5b6000620004c8878288016200041f565b9450506020620004db878288016200041f565b9350506040620004ee8782880162000484565b9250506060620005018782880162000484565b91505092959194509250565b600082825260208201905092915050565b7f43616e6e6f7420736574206f776e657220746f207a65726f0000000000000000600082015250565b6000620005566018836200050d565b915062000563826200051e565b602082019050919050565b60006020820190508181036000830152620005898162000547565b9050919050565b7f43616e6e6f74207472616e7366657220746f2073656c66000000000000000000600082015250565b6000620005c86017836200050d565b9150620005d58262000590565b602082019050919050565b60006020820190508181036000830152620005fb81620005b9565b9050919050565b61570080620006126000396000f3fe6080604052600436106102305760003560e01c80638661ffca1161012e578063c1e3bd3e116100ab578063de1149b31161006f578063de1149b31461084f578063e0321cd414610878578063e90c88fe146108a1578063f0f44260146108ca578063f2fde38b146108f357610230565b8063c1e3bd3e14610739578063c3c3df4f14610776578063c5072ca8146107be578063cf72f230146107e7578063d5e788291461081257610230565b80639c031ace116100f25780639c031ace146106645780639eccacf61461068f578063a3e56fa8146106ba578063a88390dc146106e5578063b0fb162f1461070e57610230565b80638661ffca146105a05780638ac00021146105bc5780638da5cb5b146105e75780638ea98117146106125780639999fea01461063b57610230565b80633ccfd60b116101bc57806365c7444d1161018057806365c7444d146104bd5780636b7fd007146104e657806379ba5097146105235780637a4f44361461053a578063831d49ef1461057757610230565b80633ccfd60b146103d45780635faa299a146103eb57806361728f391461042857806361734cd61461045357806361d027b31461049257610230565b806324f746971161020357806324f74697146102ef57806326232a2e1461031a578063274ce5ec146103455780632fd997121461036e578063385542f01461039757610230565b806309c1f8ff146102355780630b78f9c0146102605780631301cd25146102895780631fe543e3146102c6575b600080fd5b34801561024157600080fd5b5061024a61091c565b6040516102579190613a91565b60405180910390f35b34801561026c57600080fd5b5061028760048036038101906102829190613af6565b610942565b005b34801561029557600080fd5b506102b060048036038101906102ab9190613b36565b6109e4565b6040516102bd9190613b72565b60405180910390f35b3480156102d257600080fd5b506102ed60048036038101906102e89190613bf2565b6109fc565b005b3480156102fb57600080fd5b50610304610ac2565b6040516103119190613c71565b60405180910390f35b34801561032657600080fd5b5061032f610ad8565b60405161033c9190613b72565b60405180910390f35b34801561035157600080fd5b5061036c60048036038101906103679190613d94565b610ade565b005b34801561037a57600080fd5b5061039560048036038101906103909190613e0f565b610c24565b005b3480156103a357600080fd5b506103be60048036038101906103b99190613b36565b610c6c565b6040516103cb9190613c71565b60405180910390f35b3480156103e057600080fd5b506103e9610c8f565b005b3480156103f757600080fd5b50610412600480360381019061040d9190613e5c565b610dd3565b60405161041f9190613eb7565b60405180910390f35b34801561043457600080fd5b5061043d610e02565b60405161044a9190613ee1565b60405180910390f35b34801561045f57600080fd5b5061047a60048036038101906104759190613af6565b610e08565b60405161048993929190613f73565b60405180910390f35b34801561049e57600080fd5b506104a7610e7c565b6040516104b49190613a91565b60405180910390f35b3480156104c957600080fd5b506104e460048036038101906104df9190613b36565b610ea2565b005b3480156104f257600080fd5b5061050d60048036038101906105089190613faa565b610fec565b60405161051a9190613eb7565b60405180910390f35b34801561052f57600080fd5b5061053861100c565b005b34801561054657600080fd5b50610561600480360381019061055c9190613faa565b6111a3565b60405161056e9190613eb7565b60405180910390f35b34801561058357600080fd5b5061059e60048036038101906105999190613b36565b6111c3565b005b6105ba60048036038101906105b5919061417d565b611706565b005b3480156105c857600080fd5b506105d1611c98565b6040516105de9190614235565b60405180910390f35b3480156105f357600080fd5b506105fc611cb2565b6040516106099190613a91565b60405180910390f35b34801561061e57600080fd5b5061063960048036038101906106349190614250565b611cdc565b005b34801561064757600080fd5b50610662600480360381019061065d9190613e5c565b611ebd565b005b34801561067057600080fd5b50610679612364565b6040516106869190613b72565b60405180910390f35b34801561069b57600080fd5b506106a461236a565b6040516106b191906142dc565b60405180910390f35b3480156106c657600080fd5b506106cf612390565b6040516106dc9190614318565b60405180910390f35b3480156106f157600080fd5b5061070c60048036038101906107079190613e0f565b6123b6565b005b34801561071a57600080fd5b506107236123fe565b6040516107309190614342565b60405180910390f35b34801561074557600080fd5b50610760600480360381019061075b9190613b36565b612412565b60405161076d919061441b565b60405180910390f35b34801561078257600080fd5b5061079d60048036038101906107989190613b36565b6124b6565b6040516107b59c9b9a999897969594939291906144cb565b60405180910390f35b3480156107ca57600080fd5b506107e560048036038101906107e091906145e2565b612618565b005b3480156107f357600080fd5b506107fc61282a565b6040516108099190613b72565b60405180910390f35b34801561081e57600080fd5b5061083960048036038101906108349190613b36565b612830565b6040516108469190614751565b60405180910390f35b34801561085b57600080fd5b50610876600480360381019061087191906145e2565b61293d565b005b34801561088457600080fd5b5061089f600480360381019061089a9190613b36565b612995565b005b3480156108ad57600080fd5b506108c860048036038101906108c39190613b36565b612c34565b005b3480156108d657600080fd5b506108f160048036038101906108ec9190614250565b612ed7565b005b3480156108ff57600080fd5b5061091a60048036038101906109159190614250565b61301a565b005b600860009054906101000a900473ffffffffffffffffffffffffffffffffffffffff1681565b600860009054906101000a900473ffffffffffffffffffffffffffffffffffffffff1673ffffffffffffffffffffffffffffffffffffffff163373ffffffffffffffffffffffffffffffffffffffff16146109d2576040517f08c379a00000000000000000000000000000000000000000000000000000000081526004016109c9906147d0565b60405180910390fd5b81600581905550806006819055505050565b60116020528060005260406000206000915090505481565b600360009054906101000a900473ffffffffffffffffffffffffffffffffffffffff1673ffffffffffffffffffffffffffffffffffffffff163373ffffffffffffffffffffffffffffffffffffffff1614610ab25733600360009054906101000a900473ffffffffffffffffffffffffffffffffffffffff166040517f1cf993f4000000000000000000000000000000000000000000000000000000008152600401610aa99291906147f0565b60405180910390fd5b610abd83838361302e565b505050565b600b600a9054906101000a900463ffffffff1681565b60055481565b600860009054906101000a900473ffffffffffffffffffffffffffffffffffffffff1673ffffffffffffffffffffffffffffffffffffffff163373ffffffffffffffffffffffffffffffffffffffff1614610b6e576040517f08c379a0000000000000000000000000000000000000000000000000000000008152600401610b65906147d0565b60405180910390fd5b84600960006101000a81548173ffffffffffffffffffffffffffffffffffffffff021916908373ffffffffffffffffffffffffffffffffffffffff16021790555083600a8190555082600b60006101000a81548167ffffffffffffffff021916908367ffffffffffffffff16021790555081600b60086101000a81548161ffff021916908361ffff16021790555080600b600a6101000a81548163ffffffff021916908363ffffffff1602179055505050505050565b60005b82829050811015610c6757610c54838383818110610c4857610c47614819565b5b90506020020135612995565b8080610c5f90614877565b915050610c27565b505050565b60126020528060005260406000206000915054906101000a900463ffffffff1681565b600860009054906101000a900473ffffffffffffffffffffffffffffffffffffffff1673ffffffffffffffffffffffffffffffffffffffff163373ffffffffffffffffffffffffffffffffffffffff1614610d1f576040517f08c379a0000000000000000000000000000000000000000000000000000000008152600401610d16906147d0565b60405180910390fd5b600047905060008111610d67576040517f08c379a0000000000000000000000000000000000000000000000000000000008152600401610d5e9061490b565b60405180910390fd5b600760009054906101000a900473ffffffffffffffffffffffffffffffffffffffff1673ffffffffffffffffffffffffffffffffffffffff166108fc829081150290604051600060405180830381858888f19350505050158015610dcf573d6000803e3d6000fd5b5050565b600f6020528160005260406000206020528060005260406000206000915091509054906101000a900460ff1681565b600a5481565b60106020528160005260406000208181548110610e2457600080fd5b9060005260206000209060030201600091509150508060000160009054906101000a900473ffffffffffffffffffffffffffffffffffffffff16908060010154908060020160009054906101000a900460ff16905083565b600760009054906101000a900473ffffffffffffffffffffffffffffffffffffffff1681565b6010600082815260200190815260200160002060405180606001604052803373ffffffffffffffffffffffffffffffffffffffff16815260200142815260200160006002811115610ef657610ef5613efc565b5b815250908060018154018082558091505060019003906000526020600020906003020160009091909190915060008201518160000160006101000a81548173ffffffffffffffffffffffffffffffffffffffff021916908373ffffffffffffffffffffffffffffffffffffffff1602179055506020820151816001015560408201518160020160006101000a81548160ff02191690836002811115610f9e57610f9d613efc565b5b021790555050503373ffffffffffffffffffffffffffffffffffffffff16817f14a1608330df21406b2c36c4c92e47f22c9abd31d9df75abc4af2bdb477469bb60405160405180910390a350565b600e6020528060005260406000206000915054906101000a900460ff1681565b600260009054906101000a900473ffffffffffffffffffffffffffffffffffffffff1673ffffffffffffffffffffffffffffffffffffffff163373ffffffffffffffffffffffffffffffffffffffff161461109c576040517f08c379a000000000000000000000000000000000000000000000000000000000815260040161109390614977565b60405180910390fd5b6000600160009054906101000a900473ffffffffffffffffffffffffffffffffffffffff16905033600160006101000a81548173ffffffffffffffffffffffffffffffffffffffff021916908373ffffffffffffffffffffffffffffffffffffffff1602179055506000600260006101000a81548173ffffffffffffffffffffffffffffffffffffffff021916908373ffffffffffffffffffffffffffffffffffffffff1602179055503373ffffffffffffffffffffffffffffffffffffffff168173ffffffffffffffffffffffffffffffffffffffff167f8be0079c531659141344cd1fd0a4f28419497f9722a3daafe3b4186f6b6457e060405160405180910390a350565b600d6020528060005260406000206000915054906101000a900460ff1681565b6000600c60008381526020019081526020016000209050600081600501540361122357816040517f017e57a100000000000000000000000000000000000000000000000000000000815260040161121a9190613b72565b60405180910390fd5b80600401544210611271578060040154426040517f8868888c000000000000000000000000000000000000000000000000000000008152600401611268929190614997565b60405180910390fd5b8060090160049054906101000a900460ff1660ff1681600a0180549050101580156112b1575060008160090160049054906101000a900460ff1660ff1614155b15611304578060090160049054906101000a900460ff166040517f969559d50000000000000000000000000000000000000000000000000000000081526004016112fb91906149c0565b60405180910390fd5b600f600083815260200190815260200160002060003373ffffffffffffffffffffffffffffffffffffffff1673ffffffffffffffffffffffffffffffffffffffff16815260200190815260200160002060009054906101000a900460ff1615801561137e575080600b0160009054906101000a900460ff16155b156113c25733826040517f8626cc030000000000000000000000000000000000000000000000000000000081526004016113b99291906149db565b60405180910390fd5b6000828260030160009054906101000a900463ffffffff16336040516020016113ed93929190614aa3565b604051602081830303815290604052805190602001209050600d600082815260200190815260200160002060009054906101000a900460ff161561148057828260030160009054906101000a900463ffffffff16336040517f0beb1aac00000000000000000000000000000000000000000000000000000000815260040161147793929190614ae0565b60405180910390fd5b60008260030160009054906101000a900463ffffffff1663ffffffff16036114ea5781600901600081819054906101000a900463ffffffff16809291906114c690614b17565b91906101000a81548163ffffffff021916908363ffffffff16021790555050611599565b600d60008460018560030160009054906101000a900463ffffffff166115109190614b43565b3360405160200161152393929190614aa3565b60405160208183030381529060405280519060200120815260200190815260200160002060009054906101000a900460ff166115985733836040517f8626cc0300000000000000000000000000000000000000000000000000000000815260040161158f9291906149db565b60405180910390fd5b5b6115ee333084600701548560060160009054906101000a900473ffffffffffffffffffffffffffffffffffffffff1673ffffffffffffffffffffffffffffffffffffffff1661342e909392919063ffffffff16565b81600701548260050160008282546116069190614b7b565b9250508190555081600a01339080600181540180825580915050600190039060005260206000200160009091909190916101000a81548173ffffffffffffffffffffffffffffffffffffffff021916908373ffffffffffffffffffffffffffffffffffffffff1602179055506001600d600083815260200190815260200160002060006101000a81548160ff0219169083151502179055503373ffffffffffffffffffffffffffffffffffffffff16837f672d3f5897f7a8042cd8c8557caf58ece26929a410c3b1a66a34ccfd3460fcde8460030160009054906101000a900463ffffffff166040516116f99190613c71565b60405180910390a3505050565b60026000540361174b576040517f08c379a000000000000000000000000000000000000000000000000000000000815260040161174290614bfb565b60405180910390fd5b60026000819055506000840361178d576040517f172bb87f00000000000000000000000000000000000000000000000000000000815260040160405180910390fd5b610e108210156117c9576040517f9306857800000000000000000000000000000000000000000000000000000000815260040160405180910390fd5b6000600460008154809291906117de90614877565b9190505590506000600c60008381526020019081526020016000209050818160000181905550338160010160006101000a81548173ffffffffffffffffffffffffffffffffffffffff021916908373ffffffffffffffffffffffffffffffffffffffff160217905550878160020190816118589190614e1d565b50868160060160006101000a81548173ffffffffffffffffffffffffffffffffffffffff021916908373ffffffffffffffffffffffffffffffffffffffff16021790555085816007018190555083816008018190555060018160090160006101000a81548163ffffffff021916908363ffffffff16021790555083426118de9190614b7b565b816004018190555085816005018190555080600a01339080600181540180825580915050600190039060005260206000200160009091909190916101000a81548173ffffffffffffffffffffffffffffffffffffffff021916908373ffffffffffffffffffffffffffffffffffffffff1602179055508281600b0160006101000a81548160ff021916908315150217905550848160090160046101000a81548160ff021916908360ff160217905550826119fc576001600f600084815260200190815260200160002060003373ffffffffffffffffffffffffffffffffffffffff1673ffffffffffffffffffffffffffffffffffffffff16815260200190815260200160002060006101000a81548160ff0219169083151502179055505b600082600033604051602001611a1493929190614aa3565b6040516020818303038152906040528051906020012090506001600d600083815260200190815260200160002060006101000a81548160ff021916908315150217905550611a853330898b73ffffffffffffffffffffffffffffffffffffffff1661342e909392919063ffffffff16565b6000808760ff1614611a975786611a9a565b60ff5b60ff169050600081600654611aaf9190614eef565b600554611abc9190614b7b565b905080341015611b055734816040517fa7ee296a000000000000000000000000000000000000000000000000000000008152600401611afc929190614997565b60405180910390fd5b600760009054906101000a900473ffffffffffffffffffffffffffffffffffffffff1673ffffffffffffffffffffffffffffffffffffffff166108fc829081150290604051600060405180830381858888f19350505050158015611b6d573d6000803e3d6000fd5b5080341115611bef5760003373ffffffffffffffffffffffffffffffffffffffff168234611b9b9190614f31565b604051611ba790614f96565b60006040518083038185875af1925050503d8060008114611be4576040519150601f19603f3d011682016040523d82523d6000602084013e611be9565b606091505b50509050505b3373ffffffffffffffffffffffffffffffffffffffff16857fde307469e0906e8d7a6e84aec39b533cfe12dd01b2737a0f785511261337231760405160405180910390a33373ffffffffffffffffffffffffffffffffffffffff16857f672d3f5897f7a8042cd8c8557caf58ece26929a410c3b1a66a34ccfd3460fcde6000604051611c7b9190614fe6565b60405180910390a350505050506001600081905550505050505050565b600b60009054906101000a900467ffffffffffffffff1681565b6000600160009054906101000a900473ffffffffffffffffffffffffffffffffffffffff16905090565b611ce4611cb2565b73ffffffffffffffffffffffffffffffffffffffff163373ffffffffffffffffffffffffffffffffffffffff1614158015611d6d5750600360009054906101000a900473ffffffffffffffffffffffffffffffffffffffff1673ffffffffffffffffffffffffffffffffffffffff163373ffffffffffffffffffffffffffffffffffffffff1614155b15611ddc5733611d7b611cb2565b600360009054906101000a900473ffffffffffffffffffffffffffffffffffffffff166040517f061db9c1000000000000000000000000000000000000000000000000000000008152600401611dd393929190615001565b60405180910390fd5b600073ffffffffffffffffffffffffffffffffffffffff168173ffffffffffffffffffffffffffffffffffffffff1603611e42576040517fd92e233d00000000000000000000000000000000000000000000000000000000815260040160405180910390fd5b80600360006101000a81548173ffffffffffffffffffffffffffffffffffffffff021916908373ffffffffffffffffffffffffffffffffffffffff1602179055507fd1a6a14209a385a964d036e404cb5cfb71f4000cdb03c9366292430787261be681604051611eb29190613a91565b60405180910390a150565b6000600c600084815260200190815260200160002090506000816005015403611f1d57826040517f017e57a1000000000000000000000000000000000000000000000000000000008152600401611f149190613b72565b60405180910390fd5b80600401544210611f6b578060040154426040517f8868888c000000000000000000000000000000000000000000000000000000008152600401611f62929190614997565b60405180910390fd5b600f600084815260200190815260200160002060008373ffffffffffffffffffffffffffffffffffffffff1673ffffffffffffffffffffffffffffffffffffffff16815260200190815260200160002060009054906101000a900460ff16158015611fe5575080600b0160009054906101000a900460ff16155b156120295781836040517f8626cc030000000000000000000000000000000000000000000000000000000081526004016120209291906149db565b60405180910390fd5b60008160030160009054906101000a900463ffffffff1663ffffffff160361208a5733836040517f8626cc030000000000000000000000000000000000000000000000000000000081526004016120819291906149db565b60405180910390fd5b600d60008460018460030160009054906101000a900463ffffffff166120b09190614b43565b856040516020016120c393929190614aa3565b60405160208183030381529060405280519060200120815260200190815260200160002060009054906101000a900460ff166121385781836040517f8626cc0300000000000000000000000000000000000000000000000000000000815260040161212f9291906149db565b60405180910390fd5b6000838260030160009054906101000a900463ffffffff168460405160200161216393929190614aa3565b604051602081830303815290604052805190602001209050600d600082815260200190815260200160002060009054906101000a900460ff16156121f657838260030160009054906101000a900463ffffffff16846040517f0beb1aac0000000000000000000000000000000000000000000000000000000081526004016121ed93929190614ae0565b60405180910390fd5b816007015482600501600082825461220e9190614b7b565b9250508190555081600a01839080600181540180825580915050600190039060005260206000200160009091909190916101000a81548173ffffffffffffffffffffffffffffffffffffffff021916908373ffffffffffffffffffffffffffffffffffffffff1602179055506001600d600083815260200190815260200160002060006101000a81548160ff0219169083151502179055506122fb833084600701548560060160009054906101000a900473ffffffffffffffffffffffffffffffffffffffff1673ffffffffffffffffffffffffffffffffffffffff1661342e909392919063ffffffff16565b8273ffffffffffffffffffffffffffffffffffffffff16847f672d3f5897f7a8042cd8c8557caf58ece26929a410c3b1a66a34ccfd3460fcde8460030160009054906101000a900463ffffffff166040516123569190613c71565b60405180910390a350505050565b60065481565b600360009054906101000a900473ffffffffffffffffffffffffffffffffffffffff1681565b600960009054906101000a900473ffffffffffffffffffffffffffffffffffffffff1681565b60005b828290508110156123f9576123e68383838181106123da576123d9614819565b5b90506020020135612c34565b80806123f190614877565b9150506123b9565b505050565b600b60089054906101000a900461ffff1681565b6060600c6000838152602001908152602001600020600a018054806020026020016040519081016040528092919081815260200182805480156124aa57602002820191906000526020600020905b8160009054906101000a900473ffffffffffffffffffffffffffffffffffffffff1673ffffffffffffffffffffffffffffffffffffffff1681526020019060010190808311612460575b50505050509050919050565b600c6020528060005260406000206000915090508060000154908060010160009054906101000a900473ffffffffffffffffffffffffffffffffffffffff169080600201805461250590614c4a565b80601f016020809104026020016040519081016040528092919081815260200182805461253190614c4a565b801561257e5780601f106125535761010080835404028352916020019161257e565b820191906000526020600020905b81548152906001019060200180831161256157829003601f168201915b5050505050908060030160009054906101000a900463ffffffff16908060040154908060050154908060060160009054906101000a900473ffffffffffffffffffffffffffffffffffffffff16908060070154908060080154908060090160009054906101000a900463ffffffff16908060090160049054906101000a900460ff169080600b0160009054906101000a900460ff1690508c565b6000600c600085815260200190815260200160002090508060010160009054906101000a900473ffffffffffffffffffffffffffffffffffffffff1673ffffffffffffffffffffffffffffffffffffffff163373ffffffffffffffffffffffffffffffffffffffff16146126c55733846040517f3872341e0000000000000000000000000000000000000000000000000000000081526004016126bc9291906149db565b60405180910390fd5b60005b838390508110156128235760008484838181106126e8576126e7614819565b5b90506020020160208101906126fd9190614250565b9050600f600087815260200190815260200160002060008273ffffffffffffffffffffffffffffffffffffffff1673ffffffffffffffffffffffffffffffffffffffff16815260200190815260200160002060009054906101000a900460ff1661280f576001600f600088815260200190815260200160002060008373ffffffffffffffffffffffffffffffffffffffff1673ffffffffffffffffffffffffffffffffffffffff16815260200190815260200160002060006101000a81548160ff0219169083151502179055508073ffffffffffffffffffffffffffffffffffffffff16867f1a93957e2514306f9c62a03c9d38f41d87e9192c4bff4ba40eb834d92c6c728060405160405180910390a35b50808061281b90614877565b9150506126c8565b5050505050565b60045481565b606060106000838152602001908152602001600020805480602002602001604051908101604052809291908181526020016000905b8282101561293257838290600052602060002090600302016040518060600160405290816000820160009054906101000a900473ffffffffffffffffffffffffffffffffffffffff1673ffffffffffffffffffffffffffffffffffffffff1673ffffffffffffffffffffffffffffffffffffffff168152602001600182015481526020016002820160009054906101000a900460ff16600281111561290d5761290c613efc565b5b600281111561291f5761291e613efc565b5b8152505081526020019060010190612865565b505050509050919050565b60005b8282905081101561298f5761297c8484848481811061296257612961614819565b5b90506020020160208101906129779190614250565b611ebd565b808061298790614877565b915050612940565b50505050565b6000600c6000838152602001908152602001600020905060008160050154036129f557816040517f017e57a10000000000000000000000000000000000000000000000000000000081526004016129ec9190613b72565b60405180910390fd5b8060040154421015612a44578060040154426040517f3bd40433000000000000000000000000000000000000000000000000000000008152600401612a3b929190614997565b60405180910390fd5b60005b81600a0180549050811015612b3357600e60008484600a018481548110612a7157612a70614819565b5b9060005260206000200160009054906101000a900473ffffffffffffffffffffffffffffffffffffffff16604051602001612aad929190615038565b60405160208183030381529060405280519060200120815260200190815260200160002060009054906101000a900460ff16612b2057826040517fd2471cf8000000000000000000000000000000000000000000000000000000008152600401612b179190613b72565b60405180910390fd5b8080612b2b90614877565b915050612a47565b506000816005018190555060008160060160009054906101000a900473ffffffffffffffffffffffffffffffffffffffff16905060008260070154905060005b83600a0180549050811015612c0057612bed84600a018281548110612b9b57612b9a614819565b5b9060005260206000200160009054906101000a900473ffffffffffffffffffffffffffffffffffffffff16838573ffffffffffffffffffffffffffffffffffffffff166134b79092919063ffffffff16565b8080612bf890614877565b915050612b73565b50837f09f73e7c1cfe948731316069115856105587fb9681d754a0037165a8a8cfe1f760405160405180910390a250505050565b600260005403612c79576040517f08c379a0000000000000000000000000000000000000000000000000000000008152600401612c7090614bfb565b60405180910390fd5b60026000819055506000600c600083815260200190815260200160002090506000816005015403612ce157816040517f017e57a1000000000000000000000000000000000000000000000000000000008152600401612cd89190613b72565b60405180910390fd5b8060040154421015612d30578060040154426040517f3bd40433000000000000000000000000000000000000000000000000000000008152600401612d27929190614997565b60405180910390fd5b6000600960009054906101000a900473ffffffffffffffffffffffffffffffffffffffff1673ffffffffffffffffffffffffffffffffffffffff16639b1c385e6040518060c00160405280600a548152602001600b60009054906101000a900467ffffffffffffffff1667ffffffffffffffff168152602001600b60089054906101000a900461ffff1661ffff168152602001600b600a9054906101000a900463ffffffff1663ffffffff168152602001600163ffffffff168152602001612e0860405180602001604052806001151581525061353d565b8152506040518263ffffffff1660e01b8152600401612e279190615164565b6020604051808303816000875af1158015612e46573d6000803e3d6000fd5b505050506040513d601f19601f82011682018060405250810190612e6a919061519b565b90508260116000838152602001908152602001600020819055508160030160009054906101000a900463ffffffff166012600083815260200190815260200160002060006101000a81548163ffffffff021916908363ffffffff1602179055505050600160008190555050565b600860009054906101000a900473ffffffffffffffffffffffffffffffffffffffff1673ffffffffffffffffffffffffffffffffffffffff163373ffffffffffffffffffffffffffffffffffffffff1614612f67576040517f08c379a0000000000000000000000000000000000000000000000000000000008152600401612f5e906147d0565b60405180910390fd5b600073ffffffffffffffffffffffffffffffffffffffff168173ffffffffffffffffffffffffffffffffffffffff1603612fd6576040517f08c379a0000000000000000000000000000000000000000000000000000000008152600401612fcd90615214565b60405180910390fd5b80600760006101000a81548173ffffffffffffffffffffffffffffffffffffffff021916908373ffffffffffffffffffffffffffffffffffffffff16021790555050565b6130226135d5565b61302b81613667565b50565b60006011600085815260200190815260200160002054905060006012600086815260200190815260200160002060009054906101000a900463ffffffff1690506000600c60008481526020019081526020016000209050600081600a01805490509050600081878760008181106130a8576130a7614819565b5b905060200201356130b99190615263565b9050600083600a0182815481106130d3576130d2614819565b5b9060005260206000200160009054906101000a900473ffffffffffffffffffffffffffffffffffffffff1690506001600e60008884604051602001613119929190615038565b60405160208183030381529060405280519060200120815260200190815260200160002060006101000a81548160ff021916908315150217905550600060018560090160009054906101000a900463ffffffff166131779190614b43565b63ffffffff168663ffffffff1614613193578460070154613196565b60005b905060008186600501546131aa9190614f31565b90508273ffffffffffffffffffffffffffffffffffffffff16887fc2518a56896ff30efc4b0de222d91241ad29d5e347b5dc1465e1f28bbc6c4ac2838a6040516131f5929190615294565b60405180910390a361324c83828860060160009054906101000a900473ffffffffffffffffffffffffffffffffffffffff1673ffffffffffffffffffffffffffffffffffffffff166134b79092919063ffffffff16565b60018660090160009054906101000a900463ffffffff1661326d9190614b43565b63ffffffff168763ffffffff160361328e5760008660050181905550613421565b60018761329b91906152bd565b8660030160006101000a81548163ffffffff021916908363ffffffff16021790555081866005018190555085600a0160006132d69190613a12565b85600a01839080600181540180825580915050600190039060005260206000200160009091909190916101000a81548173ffffffffffffffffffffffffffffffffffffffff021916908373ffffffffffffffffffffffffffffffffffffffff1602179055506001600d60008a8960030160009054906101000a900463ffffffff168760405160200161336a93929190614aa3565b60405160208183030381529060405280519060200120815260200190815260200160002060006101000a81548160ff0219169083151502179055508273ffffffffffffffffffffffffffffffffffffffff16887f672d3f5897f7a8042cd8c8557caf58ece26929a410c3b1a66a34ccfd3460fcde8860030160009054906101000a900463ffffffff166040516134009190613c71565b60405180910390a38560080154426134189190614b7b565b86600401819055505b5050505050505050505050565b6134b1846323b872dd60e01b85858560405160240161344f939291906152f5565b604051602081830303815290604052907bffffffffffffffffffffffffffffffffffffffffffffffffffffffff19166020820180517bffffffffffffffffffffffffffffffffffffffffffffffffffffffff8381831617835250505050613795565b50505050565b6135388363a9059cbb60e01b84846040516024016134d69291906149db565b604051602081830303815290604052907bffffffffffffffffffffffffffffffffffffffffffffffffffffffff19166020820180517bffffffffffffffffffffffffffffffffffffffffffffffffffffffff8381831617835250505050613795565b505050565b60607f92fd13387c7fe7befbc38d303d6468778fb9731bc4583f17d92989c6fcfdeaaa826040516024016135719190615357565b604051602081830303815290604052907bffffffffffffffffffffffffffffffffffffffffffffffffffffffff19166020820180517bffffffffffffffffffffffffffffffffffffffffffffffffffffffff83818316178352505050509050919050565b600160009054906101000a900473ffffffffffffffffffffffffffffffffffffffff1673ffffffffffffffffffffffffffffffffffffffff163373ffffffffffffffffffffffffffffffffffffffff1614613665576040517f08c379a000000000000000000000000000000000000000000000000000000000815260040161365c906153be565b60405180910390fd5b565b3373ffffffffffffffffffffffffffffffffffffffff168173ffffffffffffffffffffffffffffffffffffffff16036136d5576040517f08c379a00000000000000000000000000000000000000000000000000000000081526004016136cc9061542a565b60405180910390fd5b80600260006101000a81548173ffffffffffffffffffffffffffffffffffffffff021916908373ffffffffffffffffffffffffffffffffffffffff1602179055508073ffffffffffffffffffffffffffffffffffffffff16600160009054906101000a900473ffffffffffffffffffffffffffffffffffffffff1673ffffffffffffffffffffffffffffffffffffffff167fed8889f560326eb138920d842192f0eb3dd22b4f139c87a2c57538e05bae127860405160405180910390a350565b60006137f7826040518060400160405280602081526020017f5361666545524332303a206c6f772d6c6576656c2063616c6c206661696c65648152508573ffffffffffffffffffffffffffffffffffffffff1661385c9092919063ffffffff16565b90506000815111156138575780806020019051810190613817919061545f565b613856576040517f08c379a000000000000000000000000000000000000000000000000000000000815260040161384d906154fe565b60405180910390fd5b5b505050565b606061386b8484600085613874565b90509392505050565b6060824710156138b9576040517f08c379a00000000000000000000000000000000000000000000000000000000081526004016138b090615590565b60405180910390fd5b6138c285613988565b613901576040517f08c379a00000000000000000000000000000000000000000000000000000000081526004016138f8906155fc565b60405180910390fd5b6000808673ffffffffffffffffffffffffffffffffffffffff16858760405161392a919061564d565b60006040518083038185875af1925050503d8060008114613967576040519150601f19603f3d011682016040523d82523d6000602084013e61396c565b606091505b509150915061397c8282866139ab565b92505050949350505050565b6000808273ffffffffffffffffffffffffffffffffffffffff163b119050919050565b606083156139bb57829050613a0b565b6000835111156139ce5782518084602001fd5b816040517f08c379a0000000000000000000000000000000000000000000000000000000008152600401613a0291906156a8565b60405180910390fd5b9392505050565b5080546000825590600052602060002090810190613a309190613a33565b50565b5b80821115613a4c576000816000905550600101613a34565b5090565b600073ffffffffffffffffffffffffffffffffffffffff82169050919050565b6000613a7b82613a50565b9050919050565b613a8b81613a70565b82525050565b6000602082019050613aa66000830184613a82565b92915050565b6000604051905090565b600080fd5b600080fd5b6000819050919050565b613ad381613ac0565b8114613ade57600080fd5b50565b600081359050613af081613aca565b92915050565b60008060408385031215613b0d57613b0c613ab6565b5b6000613b1b85828601613ae1565b9250506020613b2c85828601613ae1565b9150509250929050565b600060208284031215613b4c57613b4b613ab6565b5b6000613b5a84828501613ae1565b91505092915050565b613b6c81613ac0565b82525050565b6000602082019050613b876000830184613b63565b92915050565b600080fd5b600080fd5b600080fd5b60008083601f840112613bb257613bb1613b8d565b5b8235905067ffffffffffffffff811115613bcf57613bce613b92565b5b602083019150836020820283011115613beb57613bea613b97565b5b9250929050565b600080600060408486031215613c0b57613c0a613ab6565b5b6000613c1986828701613ae1565b935050602084013567ffffffffffffffff811115613c3a57613c39613abb565b5b613c4686828701613b9c565b92509250509250925092565b600063ffffffff82169050919050565b613c6b81613c52565b82525050565b6000602082019050613c866000830184613c62565b92915050565b613c9581613a70565b8114613ca057600080fd5b50565b600081359050613cb281613c8c565b92915050565b6000819050919050565b613ccb81613cb8565b8114613cd657600080fd5b50565b600081359050613ce881613cc2565b92915050565b600067ffffffffffffffff82169050919050565b613d0b81613cee565b8114613d1657600080fd5b50565b600081359050613d2881613d02565b92915050565b600061ffff82169050919050565b613d4581613d2e565b8114613d5057600080fd5b50565b600081359050613d6281613d3c565b92915050565b613d7181613c52565b8114613d7c57600080fd5b50565b600081359050613d8e81613d68565b92915050565b600080600080600060a08688031215613db057613daf613ab6565b5b6000613dbe88828901613ca3565b9550506020613dcf88828901613cd9565b9450506040613de088828901613d19565b9350506060613df188828901613d53565b9250506080613e0288828901613d7f565b9150509295509295909350565b60008060208385031215613e2657613e25613ab6565b5b600083013567ffffffffffffffff811115613e4457613e43613abb565b5b613e5085828601613b9c565b92509250509250929050565b60008060408385031215613e7357613e72613ab6565b5b6000613e8185828601613ae1565b9250506020613e9285828601613ca3565b9150509250929050565b60008115159050919050565b613eb181613e9c565b82525050565b6000602082019050613ecc6000830184613ea8565b92915050565b613edb81613cb8565b82525050565b6000602082019050613ef66000830184613ed2565b92915050565b7f4e487b7100000000000000000000000000000000000000000000000000000000600052602160045260246000fd5b60038110613f3c57613f3b613efc565b5b50565b6000819050613f4d82613f2b565b919050565b6000613f5d82613f3f565b9050919050565b613f6d81613f52565b82525050565b6000606082019050613f886000830186613a82565b613f956020830185613b63565b613fa26040830184613f64565b949350505050565b600060208284031215613fc057613fbf613ab6565b5b6000613fce84828501613cd9565b91505092915050565b600080fd5b6000601f19601f8301169050919050565b7f4e487b7100000000000000000000000000000000000000000000000000000000600052604160045260246000fd5b61402582613fdc565b810181811067ffffffffffffffff8211171561404457614043613fed565b5b80604052505050565b6000614057613aac565b9050614063828261401c565b919050565b600067ffffffffffffffff82111561408357614082613fed565b5b61408c82613fdc565b9050602081019050919050565b82818337600083830152505050565b60006140bb6140b684614068565b61404d565b9050828152602081018484840111156140d7576140d6613fd7565b5b6140e2848285614099565b509392505050565b600082601f8301126140ff576140fe613b8d565b5b813561410f8482602086016140a8565b91505092915050565b600060ff82169050919050565b61412e81614118565b811461413957600080fd5b50565b60008135905061414b81614125565b92915050565b61415a81613e9c565b811461416557600080fd5b50565b60008135905061417781614151565b92915050565b60008060008060008060c0878903121561419a57614199613ab6565b5b600087013567ffffffffffffffff8111156141b8576141b7613abb565b5b6141c489828a016140ea565b96505060206141d589828a01613ca3565b95505060406141e689828a01613ae1565b94505060606141f789828a0161413c565b935050608061420889828a01613ae1565b92505060a061421989828a01614168565b9150509295509295509295565b61422f81613cee565b82525050565b600060208201905061424a6000830184614226565b92915050565b60006020828403121561426657614265613ab6565b5b600061427484828501613ca3565b91505092915050565b6000819050919050565b60006142a261429d61429884613a50565b61427d565b613a50565b9050919050565b60006142b482614287565b9050919050565b60006142c6826142a9565b9050919050565b6142d6816142bb565b82525050565b60006020820190506142f160008301846142cd565b92915050565b6000614302826142a9565b9050919050565b614312816142f7565b82525050565b600060208201905061432d6000830184614309565b92915050565b61433c81613d2e565b82525050565b60006020820190506143576000830184614333565b92915050565b600081519050919050565b600082825260208201905092915050565b6000819050602082019050919050565b61439281613a70565b82525050565b60006143a48383614389565b60208301905092915050565b6000602082019050919050565b60006143c88261435d565b6143d28185614368565b93506143dd83614379565b8060005b8381101561440e5781516143f58882614398565b9750614400836143b0565b9250506001810190506143e1565b5085935050505092915050565b6000602082019050818103600083015261443581846143bd565b905092915050565b600081519050919050565b600082825260208201905092915050565b60005b8381101561447757808201518184015260208101905061445c565b60008484015250505050565b600061448e8261443d565b6144988185614448565b93506144a8818560208601614459565b6144b181613fdc565b840191505092915050565b6144c581614118565b82525050565b6000610180820190506144e1600083018f613b63565b6144ee602083018e613a82565b8181036040830152614500818d614483565b905061450f606083018c613c62565b61451c608083018b613b63565b61452960a083018a613b63565b61453660c0830189613a82565b61454360e0830188613b63565b614551610100830187613b63565b61455f610120830186613c62565b61456d6101408301856144bc565b61457b610160830184613ea8565b9d9c50505050505050505050505050565b60008083601f8401126145a2576145a1613b8d565b5b8235905067ffffffffffffffff8111156145bf576145be613b92565b5b6020830191508360208202830111156145db576145da613b97565b5b9250929050565b6000806000604084860312156145fb576145fa613ab6565b5b600061460986828701613ae1565b935050602084013567ffffffffffffffff81111561462a57614629613abb565b5b6146368682870161458c565b92509250509250925092565b600081519050919050565b600082825260208201905092915050565b6000819050602082019050919050565b61467781613ac0565b82525050565b61468681613f52565b82525050565b6060820160008201516146a26000850182614389565b5060208201516146b5602085018261466e565b5060408201516146c8604085018261467d565b50505050565b60006146da838361468c565b60608301905092915050565b6000602082019050919050565b60006146fe82614642565b614708818561464d565b93506147138361465e565b8060005b8381101561474457815161472b88826146ce565b9750614736836146e6565b925050600181019050614717565b5085935050505092915050565b6000602082019050818103600083015261476b81846146f3565b905092915050565b600082825260208201905092915050565b7f4e6f7420746865206f776e657200000000000000000000000000000000000000600082015250565b60006147ba600d83614773565b91506147c582614784565b602082019050919050565b600060208201905081810360008301526147e9816147ad565b9050919050565b60006040820190506148056000830185613a82565b6148126020830184613a82565b9392505050565b7f4e487b7100000000000000000000000000000000000000000000000000000000600052603260045260246000fd5b7f4e487b7100000000000000000000000000000000000000000000000000000000600052601160045260246000fd5b600061488282613ac0565b91507fffffffffffffffffffffffffffffffffffffffffffffffffffffffffffffffff82036148b4576148b3614848565b5b600182019050919050565b7f4e6f2062616c616e636520746f20776974686472617700000000000000000000600082015250565b60006148f5601683614773565b9150614900826148bf565b602082019050919050565b60006020820190508181036000830152614924816148e8565b9050919050565b7f4d7573742062652070726f706f736564206f776e657200000000000000000000600082015250565b6000614961601683614773565b915061496c8261492b565b602082019050919050565b6000602082019050818103600083015261499081614954565b9050919050565b60006040820190506149ac6000830185613b63565b6149b96020830184613b63565b9392505050565b60006020820190506149d560008301846144bc565b92915050565b60006040820190506149f06000830185613a82565b6149fd6020830184613b63565b9392505050565b6000819050919050565b614a1f614a1a82613ac0565b614a04565b82525050565b60008160e01b9050919050565b6000614a3d82614a25565b9050919050565b614a55614a5082613c52565b614a32565b82525050565b60008160601b9050919050565b6000614a7382614a5b565b9050919050565b6000614a8582614a68565b9050919050565b614a9d614a9882613a70565b614a7a565b82525050565b6000614aaf8286614a0e565b602082019150614abf8285614a44565b600482019150614acf8284614a8c565b601482019150819050949350505050565b6000606082019050614af56000830186613b63565b614b026020830185613c62565b614b0f6040830184613a82565b949350505050565b6000614b2282613c52565b915063ffffffff8203614b3857614b37614848565b5b600182019050919050565b6000614b4e82613c52565b9150614b5983613c52565b9250828203905063ffffffff811115614b7557614b74614848565b5b92915050565b6000614b8682613ac0565b9150614b9183613ac0565b9250828201905080821115614ba957614ba8614848565b5b92915050565b7f5265656e7472616e637947756172643a207265656e7472616e742063616c6c00600082015250565b6000614be5601f83614773565b9150614bf082614baf565b602082019050919050565b60006020820190508181036000830152614c1481614bd8565b9050919050565b7f4e487b7100000000000000000000000000000000000000000000000000000000600052602260045260246000fd5b60006002820490506001821680614c6257607f821691505b602082108103614c7557614c74614c1b565b5b50919050565b60008190508160005260206000209050919050565b60006020601f8301049050919050565b600082821b905092915050565b600060088302614cdd7fffffffffffffffffffffffffffffffffffffffffffffffffffffffffffffffff82614ca0565b614ce78683614ca0565b95508019841693508086168417925050509392505050565b6000614d1a614d15614d1084613ac0565b61427d565b613ac0565b9050919050565b6000819050919050565b614d3483614cff565b614d48614d4082614d21565b848454614cad565b825550505050565b600090565b614d5d614d50565b614d68818484614d2b565b505050565b5b81811015614d8c57614d81600082614d55565b600181019050614d6e565b5050565b601f821115614dd157614da281614c7b565b614dab84614c90565b81016020851015614dba578190505b614dce614dc685614c90565b830182614d6d565b50505b505050565b600082821c905092915050565b6000614df460001984600802614dd6565b1980831691505092915050565b6000614e0d8383614de3565b9150826002028217905092915050565b614e268261443d565b67ffffffffffffffff811115614e3f57614e3e613fed565b5b614e498254614c4a565b614e54828285614d90565b600060209050601f831160018114614e875760008415614e75578287015190505b614e7f8582614e01565b865550614ee7565b601f198416614e9586614c7b565b60005b82811015614ebd57848901518255600182019150602085019450602081019050614e98565b86831015614eda5784890151614ed6601f891682614de3565b8355505b6001600288020188555050505b505050505050565b6000614efa82613ac0565b9150614f0583613ac0565b9250828202614f1381613ac0565b91508282048414831517614f2a57614f29614848565b5b5092915050565b6000614f3c82613ac0565b9150614f4783613ac0565b9250828203905081811115614f5f57614f5e614848565b5b92915050565b600081905092915050565b50565b6000614f80600083614f65565b9150614f8b82614f70565b600082019050919050565b6000614fa182614f73565b9150819050919050565b6000819050919050565b6000614fd0614fcb614fc684614fab565b61427d565b613c52565b9050919050565b614fe081614fb5565b82525050565b6000602082019050614ffb6000830184614fd7565b92915050565b60006060820190506150166000830186613a82565b6150236020830185613a82565b6150306040830184613a82565b949350505050565b60006150448285614a0e565b6020820191506150548284614a8c565b6014820191508190509392505050565b61506d81613cb8565b82525050565b61507c81613d2e565b82525050565b61508b81613c52565b82525050565b600082825260208201905092915050565b60006150ad8261443d565b6150b78185615091565b93506150c7818560208601614459565b6150d081613fdc565b840191505092915050565b600060c0830160008301516150f36000860182615064565b506020830151615106602086018261466e565b5060408301516151196040860182615073565b50606083015161512c6060860182615082565b50608083015161513f6080860182615082565b5060a083015184820360a086015261515782826150a2565b9150508091505092915050565b6000602082019050818103600083015261517e81846150db565b905092915050565b60008151905061519581613aca565b92915050565b6000602082840312156151b1576151b0613ab6565b5b60006151bf84828501615186565b91505092915050565b7f496e76616c696420747265617375727920616464726573730000000000000000600082015250565b60006151fe601883614773565b9150615209826151c8565b602082019050919050565b6000602082019050818103600083015261522d816151f1565b9050919050565b7f4e487b7100000000000000000000000000000000000000000000000000000000600052601260045260246000fd5b600061526e82613ac0565b915061527983613ac0565b92508261528957615288615234565b5b828206905092915050565b60006040820190506152a96000830185613b63565b6152b66020830184613c62565b9392505050565b60006152c882613c52565b91506152d383613c52565b9250828201905063ffffffff8111156152ef576152ee614848565b5b92915050565b600060608201905061530a6000830186613a82565b6153176020830185613a82565b6153246040830184613b63565b949350505050565b61533581613e9c565b82525050565b602082016000820151615351600085018261532c565b50505050565b600060208201905061536c600083018461533b565b92915050565b7f4f6e6c792063616c6c61626c65206279206f776e657200000000000000000000600082015250565b60006153a8601683614773565b91506153b382615372565b602082019050919050565b600060208201905081810360008301526153d78161539b565b9050919050565b7f43616e6e6f74207472616e7366657220746f2073656c66000000000000000000600082015250565b6000615414601783614773565b915061541f826153de565b602082019050919050565b6000602082019050818103600083015261544381615407565b9050919050565b60008151905061545981614151565b92915050565b60006020828403121561547557615474613ab6565b5b60006154838482850161544a565b91505092915050565b7f5361666545524332303a204552433230206f7065726174696f6e20646964206e60008201527f6f74207375636365656400000000000000000000000000000000000000000000602082015250565b60006154e8602a83614773565b91506154f38261548c565b604082019050919050565b60006020820190508181036000830152615517816154db565b9050919050565b7f416464726573733a20696e73756666696369656e742062616c616e636520666f60008201527f722063616c6c0000000000000000000000000000000000000000000000000000602082015250565b600061557a602683614773565b91506155858261551e565b604082019050919050565b600060208201905081810360008301526155a98161556d565b9050919050565b7f416464726573733a2063616c6c20746f206e6f6e2d636f6e7472616374000000600082015250565b60006155e6601d83614773565b91506155f1826155b0565b602082019050919050565b60006020820190508181036000830152615615816155d9565b9050919050565b60006156278261443d565b6156318185614f65565b9350615641818560208601614459565b80840191505092915050565b6000615659828461561c565b915081905092915050565b600081519050919050565b600061567a82615664565b6156848185614773565b9350615694818560208601614459565b61569d81613fdc565b840191505092915050565b600060208201905081810360008301526156c2818461566f565b90509291505056fea26469706673582212201df808fe452d43c7db9b948ce7fb3e98f4c4cc9c19faf1dc01ee038f9350214864736f6c63430008130033","linkReferences":{}},"methodIdentifiers":{"acceptOwnership()":"79ba5097","allowParticipants(uint256,address[])":"c5072ca8","callbackGasLimit()":"24f74697","createPot(bytes,address,uint256,uint8,uint256,bool)":"8661ffca","endBatch(uint256[])":"2fd99712","endPot(uint256)":"e0321cd4","getParticipants(uint256)":"c1e3bd3e","getRequests(uint256)":"d5e78829","hasJoinedRound(bytes32)":"7a4f4436","hasWon(bytes32)":"6b7fd007","isAllowed(uint256,address)":"5faa299a","joinOnBehalf(uint256,address)":"9999fea0","joinPot(uint256)":"831d49ef","keyHash()":"61728f39","owner()":"8da5cb5b","participantFee()":"9c031ace","platformFee()":"26232a2e","potCount()":"cf72f230","potluckOwner()":"09c1f8ff","pots(uint256)":"c3c3df4f","rawFulfillRandomWords(uint256,uint256[])":"1fe543e3","requestConfirmations()":"b0fb162f","requestPotAllow(uint256)":"65c7444d","requestToPot(uint256)":"1301cd25","requestToRound(uint256)":"385542f0","requestedParticipants(uint256,uint256)":"61734cd6","s_subscriptionId()":"8ac00021","s_vrfCoordinator()":"9eccacf6","setChainlinkVRF(address,bytes32,uint64,uint16,uint32)":"274ce5ec","setCoordinator(address)":"8ea98117","setFees(uint256,uint256)":"0b78f9c0","setTreasury(address)":"f0f44260","transferOwnership(address)":"f2fde38b","treasury()":"61d027b3","triggerBatchJoinOnBehalf(uint256,address[])":"de1149b3","triggerBatchPayout(uint256[])":"a88390dc","triggerPotPayout(uint256)":"e90c88fe","vrfCoordinator()":"a3e56fa8","withdraw()":"3ccfd60b"},"id":23}