{"abi":[{"type":"constructor","inputs":[{"name":"_platformFee","type":"uint256","internalType":"uint256"},{"name":"_partFee","type":"uint256","internalType":"uint256"},{"name":"_treasury","type":"address","internalType":"address"},{"name":"_vrfCoordinator","type":"address","internalType":"address"}],"stateMutability":"nonpayable"},{"type":"function","name":"acceptOwnership","inputs":[],"outputs":[],"stateMutability":"nonpayable"},{"type":"function","name":"allowParticipants","inputs":[{"name":"potId","type":"uint256","internalType":"uint256"},{"name":"participants","type":"address[]","internalType":"address[]"}],"outputs":[],"stateMutability":"nonpayable"},{"type":"function","name":"allowedTokens","inputs":[{"name":"","type":"address","internalType":"address"}],"outputs":[{"name":"","type":"bool","internalType":"bool"}],"stateMutability":"view"},{"type":"function","name":"callbackGasLimit","inputs":[],"outputs":[{"name":"","type":"uint32","internalType":"uint32"}],"stateMutability":"view"},{"type":"function","name":"createPot","inputs":[{"name":"name","type":"bytes","internalType":"bytes"},{"name":"token","type":"address","internalType":"address"},{"name":"entryAmount","type":"uint256","internalType":"uint256"},{"name":"maxParticipants","type":"uint8","internalType":"uint8"},{"name":"periodSeconds","type":"uint256","internalType":"uint256"},{"name":"isPublic","type":"bool","internalType":"bool"}],"outputs":[],"stateMutability":"payable"},{"type":"function","name":"endBatch","inputs":[{"name":"potIds","type":"uint256[]","internalType":"uint256[]"}],"outputs":[],"stateMutability":"nonpayable"},{"type":"function","name":"endPot","inputs":[{"name":"potId","type":"uint256","internalType":"uint256"}],"outputs":[],"stateMutability":"nonpayable"},{"type":"function","name":"getCreatorFee","inputs":[{"name":"maxParticipants","type":"uint8","internalType":"uint8"}],"outputs":[{"name":"","type":"uint256","internalType":"uint256"}],"stateMutability":"view"},{"type":"function","name":"getParticipantFee","inputs":[{"name":"maxParticipants","type":"uint8","internalType":"uint8"}],"outputs":[{"name":"","type":"uint256","internalType":"uint256"}],"stateMutability":"view"},{"type":"function","name":"getParticipants","inputs":[{"name":"potId","type":"uint256","internalType":"uint256"}],"outputs":[{"name":"","type":"address[]","internalType":"address[]"}],"stateMutability":"view"},{"type":"function","name":"getRequests","inputs":[{"name":"potId","type":"uint256","internalType":"uint256"}],"outputs":[{"name":"","type":"tuple[]","internalType":"struct Potluck.PotRequest[]","components":[{"name":"requestor","type":"address","internalType":"address"},{"name":"timestamp","type":"uint256","internalType":"uint256"},{"name":"status","type":"uint8","internalType":"enum Potluck.RequestStatus"}]}],"stateMutability":"view"},{"type":"function","name":"hasJoinedRound","inputs":[{"name":"","type":"bytes32","internalType":"bytes32"}],"outputs":[{"name":"","type":"bool","internalType":"bool"}],"stateMutability":"view"},{"type":"function","name":"hasWon","inputs":[{"name":"","type":"bytes32","internalType":"bytes32"}],"outputs":[{"name":"","type":"bool","internalType":"bool"}],"stateMutability":"view"},{"type":"function","name":"isAllowed","inputs":[{"name":"","type":"uint256","internalType":"uint256"},{"name":"","type":"address","internalType":"address"}],"outputs":[{"name":"","type":"bool","internalType":"bool"}],"stateMutability":"view"},{"type":"function","name":"joinOnBehalf","inputs":[{"name":"potId","type":"uint256","internalType":"uint256"},{"name":"participant","type":"address","internalType":"address"}],"outputs":[],"stateMutability":"nonpayable"},{"type":"function","name":"joinPot","inputs":[{"name":"potId","type":"uint256","internalType":"uint256"}],"outputs":[],"stateMutability":"payable"},{"type":"function","name":"keyHash","inputs":[],"outputs":[{"name":"","type":"bytes32","internalType":"bytes32"}],"stateMutability":"view"},{"type":"function","name":"owner","inputs":[],"outputs":[{"name":"","type":"address","internalType":"address"}],"stateMutability":"view"},{"type":"function","name":"participantFee","inputs":[],"outputs":[{"name":"","type":"uint256","internalType":"uint256"}],"stateMutability":"view"},{"type":"function","name":"platformFee","inputs":[],"outputs":[{"name":"","type":"uint256","internalType":"uint256"}],"stateMutability":"view"},{"type":"function","name":"potCount","inputs":[],"outputs":[{"name":"","type":"uint256","internalType":"uint256"}],"stateMutability":"view"},{"type":"function","name":"potluckOwner","inputs":[],"outputs":[{"name":"","type":"address","internalType":"address"}],"stateMutability":"view"},{"type":"function","name":"pots","inputs":[{"name":"","type":"uint256","internalType":"uint256"}],"outputs":[{"name":"id","type":"uint256","internalType":"uint256"},{"name":"creator","type":"address","internalType":"address"},{"name":"name","type":"bytes","internalType":"bytes"},{"name":"round","type":"uint32","internalType":"uint32"},{"name":"deadline","type":"uint256","internalType":"uint256"},{"name":"balance","type":"uint256","internalType":"uint256"},{"name":"token","type":"address","internalType":"address"},{"name":"entryAmount","type":"uint256","internalType":"uint256"},{"name":"period","type":"uint256","internalType":"uint256"},{"name":"totalParticipants","type":"uint8","internalType":"uint8"},{"name":"maxParticipants","type":"uint8","internalType":"uint8"},{"name":"isPublic","type":"bool","internalType":"bool"}],"stateMutability":"view"},{"type":"function","name":"rawFulfillRandomWords","inputs":[{"name":"requestId","type":"uint256","internalType":"uint256"},{"name":"randomWords","type":"uint256[]","internalType":"uint256[]"}],"outputs":[],"stateMutability":"nonpayable"},{"type":"function","name":"requestConfirmations","inputs":[],"outputs":[{"name":"","type":"uint16","internalType":"uint16"}],"stateMutability":"view"},{"type":"function","name":"requestPotAllow","inputs":[{"name":"potId","type":"uint256","internalType":"uint256"}],"outputs":[],"stateMutability":"nonpayable"},{"type":"function","name":"requestToPot","inputs":[{"name":"","type":"uint256","internalType":"uint256"}],"outputs":[{"name":"","type":"uint256","internalType":"uint256"}],"stateMutability":"view"},{"type":"function","name":"requestToRound","inputs":[{"name":"","type":"uint256","internalType":"uint256"}],"outputs":[{"name":"","type":"uint32","internalType":"uint32"}],"stateMutability":"view"},{"type":"function","name":"requestedParticipants","inputs":[{"name":"","type":"uint256","internalType":"uint256"},{"name":"","type":"uint256","internalType":"uint256"}],"outputs":[{"name":"requestor","type":"address","internalType":"address"},{"name":"timestamp","type":"uint256","internalType":"uint256"},{"name":"status","type":"uint8","internalType":"enum Potluck.RequestStatus"}],"stateMutability":"view"},{"type":"function","name":"s_subscriptionId","inputs":[],"outputs":[{"name":"","type":"uint256","internalType":"uint256"}],"stateMutability":"view"},{"type":"function","name":"s_vrfCoordinator","inputs":[],"outputs":[{"name":"","type":"address","internalType":"contract IVRFCoordinatorV2Plus"}],"stateMutability":"view"},{"type":"function","name":"setChainlinkVRF","inputs":[{"name":"_keyHash","type":"bytes32","internalType":"bytes32"},{"name":"_subscriptionId","type":"uint256","internalType":"uint256"},{"name":"_requestConfirmations","type":"uint16","internalType":"uint16"},{"name":"_callbackGasLimit","type":"uint32","internalType":"uint32"}],"outputs":[],"stateMutability":"nonpayable"},{"type":"function","name":"setChainlinkVRF","inputs":[{"name":"_vrfCoordinator","type":"address","internalType":"address"}],"outputs":[],"stateMutability":"nonpayable"},{"type":"function","name":"setCoordinator","inputs":[{"name":"_vrfCoordinator","type":"address","internalType":"address"}],"outputs":[],"stateMutability":"nonpayable"},{"type":"function","name":"setFees","inputs":[{"name":"_flatFee","type":"uint256","internalType":"uint256"},{"name":"_perPartFee","type":"uint256","internalType":"uint256"}],"outputs":[],"stateMutability":"nonpayable"},{"type":"function","name":"setTokenStatus","inputs":[{"name":"token","type":"address","internalType":"address"},{"name":"status","type":"bool","internalType":"bool"}],"outputs":[],"stateMutability":"nonpayable"},{"type":"function","name":"setTreasury","inputs":[{"name":"newTreasury","type":"address","internalType":"address"}],"outputs":[],"stateMutability":"nonpayable"},{"type":"function","name":"transferOwnership","inputs":[{"name":"to","type":"address","internalType":"address"}],"outputs":[],"stateMutability":"nonpayable"},{"type":"function","name":"treasury","inputs":[],"outputs":[{"name":"","type":"address","internalType":"address"}],"stateMutability":"view"},{"type":"function","name":"triggerBatchJoinOnBehalf","inputs":[{"name":"potId","type":"uint256","internalType":"uint256"},{"name":"participants","type":"address[]","internalType":"address[]"}],"outputs":[],"stateMutability":"nonpayable"},{"type":"function","name":"triggerBatchPayout","inputs":[{"name":"potIds","type":"uint256[]","internalType":"uint256[]"}],"outputs":[],"stateMutability":"nonpayable"},{"type":"function","name":"triggerPotPayout","inputs":[{"name":"potId","type":"uint256","internalType":"uint256"}],"outputs":[],"stateMutability":"nonpayable"},{"type":"function","name":"vrfCoordinator","inputs":[],"outputs":[{"name":"","type":"address","internalType":"contract VRFCoordinatorV2_5"}],"stateMutability":"view"},{"type":"function","name":"withdraw","inputs":[],"outputs":[],"stateMutability":"nonpayable"},{"type":"function","name":"withdraw","inputs":[{"name":"token","type":"address","internalType":"address"},{"name":"amount","type":"uint256","internalType":"uint256"}],"outputs":[],"stateMutability":"nonpayable"},{"type":"function","name":"withdrawBatch","inputs":[{"name":"tokens","type":"address[]","internalType":"address[]"},{"name":"amounts","type":"uint256[]","internalType":"uint256[]"}],"outputs":[],"stateMutability":"nonpayable"},{"type":"function","name":"withdrawalBalances","inputs":[{"name":"","type":"address","internalType":"address"},{"name":"","type":"address","internalType":"address"}],"outputs":[{"name":"","type":"uint256","internalType":"uint256"}],"stateMutability":"view"},{"type":"event","name":"AllowedParticipantAdded","inputs":[{"name":"potId","type":"uint256","indexed":true,"internalType":"uint256"},{"name":"user","type":"address","indexed":true,"internalType":"address"}],"anonymous":false},{"type":"event","name":"CoordinatorSet","inputs":[{"name":"vrfCoordinator","type":"address","indexed":false,"internalType":"address"}],"anonymous":false},{"type":"event","name":"OwnershipTransferRequested","inputs":[{"name":"from","type":"address","indexed":true,"internalType":"address"},{"name":"to","type":"address","indexed":true,"internalType":"address"}],"anonymous":false},{"type":"event","name":"OwnershipTransferred","inputs":[{"name":"from","type":"address","indexed":true,"internalType":"address"},{"name":"to","type":"address","indexed":true,"internalType":"address"}],"anonymous":false},{"type":"event","name":"PotAllowRequested","inputs":[{"name":"potId","type":"uint256","indexed":true,"internalType":"uint256"},{"name":"requestor","type":"address","indexed":true,"internalType":"address"}],"anonymous":false},{"type":"event","name":"PotCreated","inputs":[{"name":"potId","type":"uint256","indexed":true,"internalType":"uint256"},{"name":"creator","type":"address","indexed":true,"internalType":"address"}],"anonymous":false},{"type":"event","name":"PotEnded","inputs":[{"name":"potId","type":"uint256","indexed":true,"internalType":"uint256"}],"anonymous":false},{"type":"event","name":"PotJoined","inputs":[{"name":"potId","type":"uint256","indexed":true,"internalType":"uint256"},{"name":"roundId","type":"uint32","indexed":false,"internalType":"uint32"},{"name":"user","type":"address","indexed":true,"internalType":"address"}],"anonymous":false},{"type":"event","name":"PotPayout","inputs":[{"name":"potId","type":"uint256","indexed":true,"internalType":"uint256"},{"name":"winner","type":"address","indexed":true,"internalType":"address"},{"name":"amount","type":"uint256","indexed":false,"internalType":"uint256"},{"name":"round","type":"uint32","indexed":false,"internalType":"uint32"}],"anonymous":false},{"type":"error","name":"AlreadyJoined","inputs":[{"name":"potId","type":"uint256","internalType":"uint256"},{"name":"round","type":"uint32","internalType":"uint32"},{"name":"user","type":"address","internalType":"address"}]},{"type":"error","name":"EntryAmountZero","inputs":[]},{"type":"error","name":"InsufficientFundsForAutoJoin","inputs":[{"name":"sent","type":"uint256","internalType":"uint256"},{"name":"required","type":"uint256","internalType":"uint256"}]},{"type":"error","name":"InsufficientFundsToRollover","inputs":[{"name":"total","type":"uint256","internalType":"uint256"},{"name":"rollover","type":"uint256","internalType":"uint256"}]},{"type":"error","name":"NoEligibleParticipants","inputs":[]},{"type":"error","name":"NotAllParticipantsWon","inputs":[{"name":"potId","type":"uint256","internalType":"uint256"}]},{"type":"error","name":"NotAllowed","inputs":[{"name":"user","type":"address","internalType":"address"},{"name":"potId","type":"uint256","internalType":"uint256"}]},{"type":"error","name":"NotPotCreator","inputs":[{"name":"sender","type":"address","internalType":"address"},{"name":"potId","type":"uint256","internalType":"uint256"}]},{"type":"error","name":"OnlyCoordinatorCanFulfill","inputs":[{"name":"have","type":"address","internalType":"address"},{"name":"want","type":"address","internalType":"address"}]},{"type":"error","name":"OnlyOwnerOrCoordinator","inputs":[{"name":"have","type":"address","internalType":"address"},{"name":"owner","type":"address","internalType":"address"},{"name":"coordinator","type":"address","internalType":"address"}]},{"type":"error","name":"PeriodTooShort","inputs":[]},{"type":"error","name":"PotDoesNotExist","inputs":[{"name":"potId","type":"uint256","internalType":"uint256"}]},{"type":"error","name":"PotFull","inputs":[{"name":"maxParticipants","type":"uint8","internalType":"uint8"}]},{"type":"error","name":"RoundEnded","inputs":[{"name":"deadline","type":"uint256","internalType":"uint256"},{"name":"nowTimestamp","type":"uint256","internalType":"uint256"}]},{"type":"error","name":"RoundNotReady","inputs":[{"name":"deadline","type":"uint256","internalType":"uint256"},{"name":"nowTimestamp","type":"uint256","internalType":"uint256"}]},{"type":"error","name":"TokenNotAllowed","inputs":[{"name":"token","type":"address","internalType":"address"}]},{"type":"error","name":"ZeroAddress","inputs":[]}],"bytecode":{"object":"0x60806040523480156200001157600080fd5b50604051620069cc380380620069cc83398181016040528101906200003791906200049b565b80338060006001600081905550600073ffffffffffffffffffffffffffffffffffffffff168273ffffffffffffffffffffffffffffffffffffffff1603620000b6576040517f08c379a0000000000000000000000000000000000000000000000000000000008152600401620000ad906200056e565b60405180910390fd5b81600160006101000a81548173ffffffffffffffffffffffffffffffffffffffff021916908373ffffffffffffffffffffffffffffffffffffffff160217905550600073ffffffffffffffffffffffffffffffffffffffff168173ffffffffffffffffffffffffffffffffffffffff16146200013e576200013d81620002c560201b60201c565b5b505050600073ffffffffffffffffffffffffffffffffffffffff168173ffffffffffffffffffffffffffffffffffffffff1603620001a8576040517fd92e233d00000000000000000000000000000000000000000000000000000000815260040160405180910390fd5b80600360006101000a81548173ffffffffffffffffffffffffffffffffffffffff021916908373ffffffffffffffffffffffffffffffffffffffff160217905550508360058190555081600760006101000a81548173ffffffffffffffffffffffffffffffffffffffff021916908373ffffffffffffffffffffffffffffffffffffffff1602179055508260068190555033600860006101000a81548173ffffffffffffffffffffffffffffffffffffffff021916908373ffffffffffffffffffffffffffffffffffffffff16021790555080600960006101000a81548173ffffffffffffffffffffffffffffffffffffffff021916908373ffffffffffffffffffffffffffffffffffffffff1602179055505050505062000602565b3373ffffffffffffffffffffffffffffffffffffffff168173ffffffffffffffffffffffffffffffffffffffff160362000336576040517f08c379a00000000000000000000000000000000000000000000000000000000081526004016200032d90620005e0565b60405180910390fd5b80600260006101000a81548173ffffffffffffffffffffffffffffffffffffffff021916908373ffffffffffffffffffffffffffffffffffffffff1602179055508073ffffffffffffffffffffffffffffffffffffffff16600160009054906101000a900473ffffffffffffffffffffffffffffffffffffffff1673ffffffffffffffffffffffffffffffffffffffff167fed8889f560326eb138920d842192f0eb3dd22b4f139c87a2c57538e05bae127860405160405180910390a350565b600080fd5b6000819050919050565b6200041081620003fb565b81146200041c57600080fd5b50565b600081519050620004308162000405565b92915050565b600073ffffffffffffffffffffffffffffffffffffffff82169050919050565b6000620004638262000436565b9050919050565b620004758162000456565b81146200048157600080fd5b50565b60008151905062000495816200046a565b92915050565b60008060008060808587031215620004b857620004b7620003f6565b5b6000620004c8878288016200041f565b9450506020620004db878288016200041f565b9350506040620004ee8782880162000484565b9250506060620005018782880162000484565b91505092959194509250565b600082825260208201905092915050565b7f43616e6e6f7420736574206f776e657220746f207a65726f0000000000000000600082015250565b6000620005566018836200050d565b915062000563826200051e565b602082019050919050565b60006020820190508181036000830152620005898162000547565b9050919050565b7f43616e6e6f74207472616e7366657220746f2073656c66000000000000000000600082015250565b6000620005c86017836200050d565b9150620005d58262000590565b602082019050919050565b60006020820190508181036000830152620005fb81620005b9565b9050919050565b6163ba80620006126000396000f3fe6080604052600436106102885760003560e01c80638da5cb5b1161015a578063cb94aa26116100c1578063e744092e1161007a578063e744092e146109f5578063e90c88fe14610a32578063f0f4426014610a5b578063f2fde38b14610a84578063f39c5d5114610aad578063f3fef3a314610ad657610288565b8063cb94aa26146108d5578063cf72f230146108fe578063d1abb12a14610929578063d5e7882914610966578063de1149b3146109a3578063e0321cd4146109cc57610288565b8063a3e56fa811610113578063a3e56fa8146107a8578063a88390dc146107d3578063b0fb162f146107fc578063c1e3bd3e14610827578063c3c3df4f14610864578063c5072ca8146108ac57610288565b80638da5cb5b146106985780638ea98117146106c3578063908fe934146106ec5780639999fea0146107295780639c031ace146107525780639eccacf61461077d57610288565b80634cd73548116101fe5780636b7fd007116101b75780636b7fd007146105a457806379ba5097146105e15780637a4f4436146105f8578063831d49ef146106355780638661ffca146106515780638ac000211461066d57610288565b80634cd73548146104805780635faa299a146104a957806361728f39146104e657806361734cd61461051157806361d027b31461055057806365c7444d1461057b57610288565b806324f746971161025057806324f746971461038457806326232a2e146103af5780632fd99712146103da578063385542f0146104035780633bb2261d146104405780633ccfd60b1461046957610288565b806309c1f8ff1461028d5780630b78f9c0146102b85780631301cd25146102e157806313f2cef91461031e5780631fe543e31461035b575b600080fd5b34801561029957600080fd5b506102a2610aff565b6040516102af9190614479565b60405180910390f35b3480156102c457600080fd5b506102df60048036038101906102da91906144de565b610b25565b005b3480156102ed57600080fd5b506103086004803603810190610303919061451e565b610bc7565b604051610315919061455a565b60405180910390f35b34801561032a57600080fd5b50610345600480360381019061034091906145ae565b610bdf565b604051610352919061455a565b60405180910390f35b34801561036757600080fd5b50610382600480360381019061037d9190614640565b610c11565b005b34801561039057600080fd5b50610399610cd7565b6040516103a691906146bf565b60405180910390f35b3480156103bb57600080fd5b506103c4610ced565b6040516103d1919061455a565b60405180910390f35b3480156103e657600080fd5b5061040160048036038101906103fc91906146da565b610cf3565b005b34801561040f57600080fd5b5061042a6004803603810190610425919061451e565b610d3b565b60405161043791906146bf565b60405180910390f35b34801561044c57600080fd5b50610467600480360381019061046291906147c3565b610d5e565b005b34801561047557600080fd5b5061047e610e40565b005b34801561048c57600080fd5b506104a760048036038101906104a2919061488e565b610f84565b005b3480156104b557600080fd5b506104d060048036038101906104cb91906148ce565b6110de565b6040516104dd919061491d565b60405180910390f35b3480156104f257600080fd5b506104fb61110d565b6040516105089190614947565b60405180910390f35b34801561051d57600080fd5b50610538600480360381019061053391906144de565b611113565b604051610547939291906149d9565b60405180910390f35b34801561055c57600080fd5b50610565611187565b6040516105729190614479565b60405180910390f35b34801561058757600080fd5b506105a2600480360381019061059d919061451e565b6111ad565b005b3480156105b057600080fd5b506105cb60048036038101906105c69190614a10565b6112f7565b6040516105d8919061491d565b60405180910390f35b3480156105ed57600080fd5b506105f6611317565b005b34801561060457600080fd5b5061061f600480360381019061061a9190614a10565b6114ae565b60405161062c919061491d565b60405180910390f35b61064f600480360381019061064a919061451e565b6114ce565b005b61066b60048036038101906106669190614b7e565b611bad565b005b34801561067957600080fd5b5061068261219a565b60405161068f919061455a565b60405180910390f35b3480156106a457600080fd5b506106ad6121a0565b6040516106ba9190614479565b60405180910390f35b3480156106cf57600080fd5b506106ea60048036038101906106e59190614c27565b6121ca565b005b3480156106f857600080fd5b50610713600480360381019061070e9190614c54565b6123ab565b604051610720919061455a565b60405180910390f35b34801561073557600080fd5b50610750600480360381019061074b91906148ce565b6123d0565b005b34801561075e57600080fd5b506107676128cc565b604051610774919061455a565b60405180910390f35b34801561078957600080fd5b506107926128d2565b60405161079f9190614cf3565b60405180910390f35b3480156107b457600080fd5b506107bd6128f8565b6040516107ca9190614d2f565b60405180910390f35b3480156107df57600080fd5b506107fa60048036038101906107f591906146da565b61291e565b005b34801561080857600080fd5b50610811612966565b60405161081e9190614d59565b60405180910390f35b34801561083357600080fd5b5061084e6004803603810190610849919061451e565b61297a565b60405161085b9190614e32565b60405180910390f35b34801561087057600080fd5b5061088b6004803603810190610886919061451e565b612a1e565b6040516108a39c9b9a99989796959493929190614ee2565b60405180910390f35b3480156108b857600080fd5b506108d360048036038101906108ce9190614ff9565b612b7d565b005b3480156108e157600080fd5b506108fc60048036038101906108f79190615059565b612d8f565b005b34801561090a57600080fd5b50610913612e49565b604051610920919061455a565b60405180910390f35b34801561093557600080fd5b50610950600480360381019061094b91906145ae565b612e4f565b60405161095d919061455a565b60405180910390f35b34801561097257600080fd5b5061098d6004803603810190610988919061451e565b612e8e565b60405161099a91906151e9565b60405180910390f35b3480156109af57600080fd5b506109ca60048036038101906109c59190614ff9565b612f9b565b005b3480156109d857600080fd5b506109f360048036038101906109ee919061451e565b612ff3565b005b348015610a0157600080fd5b50610a1c6004803603810190610a179190614c27565b6132fa565b604051610a29919061491d565b60405180910390f35b348015610a3e57600080fd5b50610a596004803603810190610a54919061451e565b61331a565b005b348015610a6757600080fd5b50610a826004803603810190610a7d9190614c27565b61354a565b005b348015610a9057600080fd5b50610aab6004803603810190610aa69190614c27565b61368d565b005b348015610ab957600080fd5b50610ad46004803603810190610acf9190614c27565b6136a1565b005b348015610ae257600080fd5b50610afd6004803603810190610af8919061520b565b6137e4565b005b600860009054906101000a900473ffffffffffffffffffffffffffffffffffffffff1681565b600860009054906101000a900473ffffffffffffffffffffffffffffffffffffffff1673ffffffffffffffffffffffffffffffffffffffff163373ffffffffffffffffffffffffffffffffffffffff1614610bb5576040517f08c379a0000000000000000000000000000000000000000000000000000000008152600401610bac906152a8565b60405180910390fd5b81600581905550806006819055505050565b60146020528060005260406000206000915090505481565b60008060008360ff1614610bf35782610bf6565b60ff5b60ff16905080600654610c0991906152f7565b915050919050565b600360009054906101000a900473ffffffffffffffffffffffffffffffffffffffff1673ffffffffffffffffffffffffffffffffffffffff163373ffffffffffffffffffffffffffffffffffffffff1614610cc75733600360009054906101000a900473ffffffffffffffffffffffffffffffffffffffff166040517f1cf993f4000000000000000000000000000000000000000000000000000000008152600401610cbe929190615339565b60405180910390fd5b610cd28383836139ba565b505050565b600c60029054906101000a900463ffffffff1681565b60055481565b60005b82829050811015610d3657610d23838383818110610d1757610d16615362565b5b90506020020135612ff3565b8080610d2e90615391565b915050610cf6565b505050565b60156020528060005260406000206000915054906101000a900463ffffffff1681565b600860009054906101000a900473ffffffffffffffffffffffffffffffffffffffff1673ffffffffffffffffffffffffffffffffffffffff163373ffffffffffffffffffffffffffffffffffffffff1614610dee576040517f08c379a0000000000000000000000000000000000000000000000000000000008152600401610de5906152a8565b60405180910390fd5b83600a8190555082600b8190555081600c60006101000a81548161ffff021916908361ffff16021790555080600c60026101000a81548163ffffffff021916908363ffffffff16021790555050505050565b600860009054906101000a900473ffffffffffffffffffffffffffffffffffffffff1673ffffffffffffffffffffffffffffffffffffffff163373ffffffffffffffffffffffffffffffffffffffff1614610ed0576040517f08c379a0000000000000000000000000000000000000000000000000000000008152600401610ec7906152a8565b60405180910390fd5b600047905060008111610f18576040517f08c379a0000000000000000000000000000000000000000000000000000000008152600401610f0f90615425565b60405180910390fd5b600760009054906101000a900473ffffffffffffffffffffffffffffffffffffffff1673ffffffffffffffffffffffffffffffffffffffff166108fc829081150290604051600060405180830381858888f19350505050158015610f80573d6000803e3d6000fd5b5050565b600860009054906101000a900473ffffffffffffffffffffffffffffffffffffffff1673ffffffffffffffffffffffffffffffffffffffff163373ffffffffffffffffffffffffffffffffffffffff1614611014576040517f08c379a000000000000000000000000000000000000000000000000000000000815260040161100b906152a8565b60405180910390fd5b600073ffffffffffffffffffffffffffffffffffffffff168273ffffffffffffffffffffffffffffffffffffffff1603611083576040517f08c379a000000000000000000000000000000000000000000000000000000000815260040161107a90615491565b60405180910390fd5b80601060008473ffffffffffffffffffffffffffffffffffffffff1673ffffffffffffffffffffffffffffffffffffffff16815260200190815260200160002060006101000a81548160ff0219169083151502179055505050565b60116020528160005260406000206020528060005260406000206000915091509054906101000a900460ff1681565b600a5481565b6012602052816000526040600020818154811061112f57600080fd5b9060005260206000209060030201600091509150508060000160009054906101000a900473ffffffffffffffffffffffffffffffffffffffff16908060010154908060020160009054906101000a900460ff16905083565b600760009054906101000a900473ffffffffffffffffffffffffffffffffffffffff1681565b6012600082815260200190815260200160002060405180606001604052803373ffffffffffffffffffffffffffffffffffffffff1681526020014281526020016000600281111561120157611200614962565b5b815250908060018154018082558091505060019003906000526020600020906003020160009091909190915060008201518160000160006101000a81548173ffffffffffffffffffffffffffffffffffffffff021916908373ffffffffffffffffffffffffffffffffffffffff1602179055506020820151816001015560408201518160020160006101000a81548160ff021916908360028111156112a9576112a8614962565b5b021790555050503373ffffffffffffffffffffffffffffffffffffffff16817f14a1608330df21406b2c36c4c92e47f22c9abd31d9df75abc4af2bdb477469bb60405160405180910390a350565b600f6020528060005260406000206000915054906101000a900460ff1681565b600260009054906101000a900473ffffffffffffffffffffffffffffffffffffffff1673ffffffffffffffffffffffffffffffffffffffff163373ffffffffffffffffffffffffffffffffffffffff16146113a7576040517f08c379a000000000000000000000000000000000000000000000000000000000815260040161139e906154fd565b60405180910390fd5b6000600160009054906101000a900473ffffffffffffffffffffffffffffffffffffffff16905033600160006101000a81548173ffffffffffffffffffffffffffffffffffffffff021916908373ffffffffffffffffffffffffffffffffffffffff1602179055506000600260006101000a81548173ffffffffffffffffffffffffffffffffffffffff021916908373ffffffffffffffffffffffffffffffffffffffff1602179055503373ffffffffffffffffffffffffffffffffffffffff168173ffffffffffffffffffffffffffffffffffffffff167f8be0079c531659141344cd1fd0a4f28419497f9722a3daafe3b4186f6b6457e060405160405180910390a350565b600e6020528060005260406000206000915054906101000a900460ff1681565b600260005403611513576040517f08c379a000000000000000000000000000000000000000000000000000000000815260040161150a90615569565b60405180910390fd5b60026000819055506000600d60008381526020019081526020016000209050600081600501540361157b57816040517f017e57a1000000000000000000000000000000000000000000000000000000008152600401611572919061455a565b60405180910390fd5b806004015442106115c9578060040154426040517f8868888c0000000000000000000000000000000000000000000000000000000081526004016115c0929190615589565b60405180910390fd5b8060090160019054906101000a900460ff1660ff1681600a018054905010158015611609575060008160090160019054906101000a900460ff1660ff1614155b1561165c578060090160019054906101000a900460ff166040517f969559d500000000000000000000000000000000000000000000000000000000815260040161165391906155b2565b60405180910390fd5b6011600083815260200190815260200160002060003373ffffffffffffffffffffffffffffffffffffffff1673ffffffffffffffffffffffffffffffffffffffff16815260200190815260200160002060009054906101000a900460ff161580156116d6575080600b0160009054906101000a900460ff16155b1561171a5733826040517f8626cc030000000000000000000000000000000000000000000000000000000081526004016117119291906155cd565b60405180910390fd5b6000828260030160009054906101000a900463ffffffff163360405160200161174593929190615695565b604051602081830303815290604052805190602001209050600e600082815260200190815260200160002060009054906101000a900460ff16156117d857828260030160009054906101000a900463ffffffff16336040517f0beb1aac0000000000000000000000000000000000000000000000000000000081526004016117cf939291906156d2565b60405180910390fd5b60008260030160009054906101000a900463ffffffff1663ffffffff16036119895781600901600081819054906101000a900460ff168092919061181b90615709565b91906101000a81548160ff021916908360ff1602179055505060006118508360090160019054906101000a900460ff16610bdf565b9050803410156118995734816040517f155fd467000000000000000000000000000000000000000000000000000000008152600401611890929190615589565b60405180910390fd5b600760009054906101000a900473ffffffffffffffffffffffffffffffffffffffff1673ffffffffffffffffffffffffffffffffffffffff166108fc829081150290604051600060405180830381858888f19350505050158015611901573d6000803e3d6000fd5b50803411156119835760003373ffffffffffffffffffffffffffffffffffffffff16823461192f9190615732565b60405161193b90615797565b60006040518083038185875af1925050503d8060008114611978576040519150601f19603f3d011682016040523d82523d6000602084013e61197d565b606091505b50509050505b50611a38565b600e60008460018560030160009054906101000a900463ffffffff166119af91906157ac565b336040516020016119c293929190615695565b60405160208183030381529060405280519060200120815260200190815260200160002060009054906101000a900460ff16611a375733836040517f8626cc03000000000000000000000000000000000000000000000000000000008152600401611a2e9291906155cd565b60405180910390fd5b5b611a8d333084600701548560060160009054906101000a900473ffffffffffffffffffffffffffffffffffffffff1673ffffffffffffffffffffffffffffffffffffffff16613e16909392919063ffffffff16565b8160070154826005016000828254611aa591906157e4565b9250508190555081600a01339080600181540180825580915050600190039060005260206000200160009091909190916101000a81548173ffffffffffffffffffffffffffffffffffffffff021916908373ffffffffffffffffffffffffffffffffffffffff1602179055506001600e600083815260200190815260200160002060006101000a81548160ff0219169083151502179055503373ffffffffffffffffffffffffffffffffffffffff16837f672d3f5897f7a8042cd8c8557caf58ece26929a410c3b1a66a34ccfd3460fcde8460030160009054906101000a900463ffffffff16604051611b9891906146bf565b60405180910390a35050600160008190555050565b600260005403611bf2576040517f08c379a0000000000000000000000000000000000000000000000000000000008152600401611be990615569565b60405180910390fd5b600260008190555060008403611c34576040517f172bb87f00000000000000000000000000000000000000000000000000000000815260040160405180910390fd5b610e10821015611c70576040517f9306857800000000000000000000000000000000000000000000000000000000815260040160405180910390fd5b601060008673ffffffffffffffffffffffffffffffffffffffff1673ffffffffffffffffffffffffffffffffffffffff16815260200190815260200160002060009054906101000a900460ff16611cfe57846040517f94403b70000000000000000000000000000000000000000000000000000000008152600401611cf59190614479565b60405180910390fd5b600060046000815480929190611d1390615391565b9190505590506000600d60008381526020019081526020016000209050818160000181905550338160010160006101000a81548173ffffffffffffffffffffffffffffffffffffffff021916908373ffffffffffffffffffffffffffffffffffffffff16021790555087816002019081611d8d9190615a1a565b50868160060160006101000a81548173ffffffffffffffffffffffffffffffffffffffff021916908373ffffffffffffffffffffffffffffffffffffffff16021790555085816007018190555083816008018190555060018160090160006101000a81548160ff021916908360ff1602179055508342611e0d91906157e4565b816004018190555085816005018190555080600a01339080600181540180825580915050600190039060005260206000200160009091909190916101000a81548173ffffffffffffffffffffffffffffffffffffffff021916908373ffffffffffffffffffffffffffffffffffffffff1602179055508281600b0160006101000a81548160ff021916908315150217905550848160090160016101000a81548160ff021916908360ff16021790555082611f2b5760016011600084815260200190815260200160002060003373ffffffffffffffffffffffffffffffffffffffff1673ffffffffffffffffffffffffffffffffffffffff16815260200190815260200160002060006101000a81548160ff0219169083151502179055505b600082600033604051602001611f4393929190615695565b6040516020818303038152906040528051906020012090506001600e600083815260200190815260200160002060006101000a81548160ff021916908315150217905550611fb43330898b73ffffffffffffffffffffffffffffffffffffffff16613e16909392919063ffffffff16565b6000611fbf87612e4f565b9050803410156120085734816040517f155fd467000000000000000000000000000000000000000000000000000000008152600401611fff929190615589565b60405180910390fd5b600760009054906101000a900473ffffffffffffffffffffffffffffffffffffffff1673ffffffffffffffffffffffffffffffffffffffff166108fc829081150290604051600060405180830381858888f19350505050158015612070573d6000803e3d6000fd5b50803411156120f25760003373ffffffffffffffffffffffffffffffffffffffff16823461209e9190615732565b6040516120aa90615797565b60006040518083038185875af1925050503d80600081146120e7576040519150601f19603f3d011682016040523d82523d6000602084013e6120ec565b606091505b50509050505b3373ffffffffffffffffffffffffffffffffffffffff16847fde307469e0906e8d7a6e84aec39b533cfe12dd01b2737a0f785511261337231760405160405180910390a33373ffffffffffffffffffffffffffffffffffffffff16847f672d3f5897f7a8042cd8c8557caf58ece26929a410c3b1a66a34ccfd3460fcde600060405161217e9190615b27565b60405180910390a3505050506001600081905550505050505050565b600b5481565b6000600160009054906101000a900473ffffffffffffffffffffffffffffffffffffffff16905090565b6121d26121a0565b73ffffffffffffffffffffffffffffffffffffffff163373ffffffffffffffffffffffffffffffffffffffff161415801561225b5750600360009054906101000a900473ffffffffffffffffffffffffffffffffffffffff1673ffffffffffffffffffffffffffffffffffffffff163373ffffffffffffffffffffffffffffffffffffffff1614155b156122ca57336122696121a0565b600360009054906101000a900473ffffffffffffffffffffffffffffffffffffffff166040517f061db9c10000000000000000000000000000000000000000000000000000000081526004016122c193929190615b42565b60405180910390fd5b600073ffffffffffffffffffffffffffffffffffffffff168173ffffffffffffffffffffffffffffffffffffffff1603612330576040517fd92e233d00000000000000000000000000000000000000000000000000000000815260040160405180910390fd5b80600360006101000a81548173ffffffffffffffffffffffffffffffffffffffff021916908373ffffffffffffffffffffffffffffffffffffffff1602179055507fd1a6a14209a385a964d036e404cb5cfb71f4000cdb03c9366292430787261be6816040516123a09190614479565b60405180910390a150565b6013602052816000526040600020602052806000526040600020600091509150505481565b600260005403612415576040517f08c379a000000000000000000000000000000000000000000000000000000000815260040161240c90615569565b60405180910390fd5b60026000819055506000600d60008481526020019081526020016000209050600081600501540361247d57826040517f017e57a1000000000000000000000000000000000000000000000000000000008152600401612474919061455a565b60405180910390fd5b806004015442106124cb578060040154426040517f8868888c0000000000000000000000000000000000000000000000000000000081526004016124c2929190615589565b60405180910390fd5b6011600084815260200190815260200160002060008373ffffffffffffffffffffffffffffffffffffffff1673ffffffffffffffffffffffffffffffffffffffff16815260200190815260200160002060009054906101000a900460ff16158015612545575080600b0160009054906101000a900460ff16155b156125895781836040517f8626cc030000000000000000000000000000000000000000000000000000000081526004016125809291906155cd565b60405180910390fd5b60008160030160009054906101000a900463ffffffff1663ffffffff16036125ea5733836040517f8626cc030000000000000000000000000000000000000000000000000000000081526004016125e19291906155cd565b60405180910390fd5b600e60008460018460030160009054906101000a900463ffffffff1661261091906157ac565b8560405160200161262393929190615695565b60405160208183030381529060405280519060200120815260200190815260200160002060009054906101000a900460ff166126985781836040517f8626cc0300000000000000000000000000000000000000000000000000000000815260040161268f9291906155cd565b60405180910390fd5b6000838260030160009054906101000a900463ffffffff16846040516020016126c393929190615695565b604051602081830303815290604052805190602001209050600e600082815260200190815260200160002060009054906101000a900460ff161561275657838260030160009054906101000a900463ffffffff16846040517f0beb1aac00000000000000000000000000000000000000000000000000000000815260040161274d939291906156d2565b60405180910390fd5b816007015482600501600082825461276e91906157e4565b9250508190555081600a01839080600181540180825580915050600190039060005260206000200160009091909190916101000a81548173ffffffffffffffffffffffffffffffffffffffff021916908373ffffffffffffffffffffffffffffffffffffffff1602179055506001600e600083815260200190815260200160002060006101000a81548160ff02191690831515021790555061285b833084600701548560060160009054906101000a900473ffffffffffffffffffffffffffffffffffffffff1673ffffffffffffffffffffffffffffffffffffffff16613e16909392919063ffffffff16565b8273ffffffffffffffffffffffffffffffffffffffff16847f672d3f5897f7a8042cd8c8557caf58ece26929a410c3b1a66a34ccfd3460fcde8460030160009054906101000a900463ffffffff166040516128b691906146bf565b60405180910390a3505060016000819055505050565b60065481565b600360009054906101000a900473ffffffffffffffffffffffffffffffffffffffff1681565b600960009054906101000a900473ffffffffffffffffffffffffffffffffffffffff1681565b60005b828290508110156129615761294e83838381811061294257612941615362565b5b9050602002013561331a565b808061295990615391565b915050612921565b505050565b600c60009054906101000a900461ffff1681565b6060600d6000838152602001908152602001600020600a01805480602002602001604051908101604052809291908181526020018280548015612a1257602002820191906000526020600020905b8160009054906101000a900473ffffffffffffffffffffffffffffffffffffffff1673ffffffffffffffffffffffffffffffffffffffff16815260200190600101908083116129c8575b50505050509050919050565b600d6020528060005260406000206000915090508060000154908060010160009054906101000a900473ffffffffffffffffffffffffffffffffffffffff1690806002018054612a6d90615847565b80601f0160208091040260200160405190810160405280929190818152602001828054612a9990615847565b8015612ae65780601f10612abb57610100808354040283529160200191612ae6565b820191906000526020600020905b815481529060010190602001808311612ac957829003601f168201915b5050505050908060030160009054906101000a900463ffffffff16908060040154908060050154908060060160009054906101000a900473ffffffffffffffffffffffffffffffffffffffff16908060070154908060080154908060090160009054906101000a900460ff16908060090160019054906101000a900460ff169080600b0160009054906101000a900460ff1690508c565b6000600d600085815260200190815260200160002090508060010160009054906101000a900473ffffffffffffffffffffffffffffffffffffffff1673ffffffffffffffffffffffffffffffffffffffff163373ffffffffffffffffffffffffffffffffffffffff1614612c2a5733846040517f3872341e000000000000000000000000000000000000000000000000000000008152600401612c219291906155cd565b60405180910390fd5b60005b83839050811015612d88576000848483818110612c4d57612c4c615362565b5b9050602002016020810190612c629190614c27565b90506011600087815260200190815260200160002060008273ffffffffffffffffffffffffffffffffffffffff1673ffffffffffffffffffffffffffffffffffffffff16815260200190815260200160002060009054906101000a900460ff16612d745760016011600088815260200190815260200160002060008373ffffffffffffffffffffffffffffffffffffffff1673ffffffffffffffffffffffffffffffffffffffff16815260200190815260200160002060006101000a81548160ff0219169083151502179055508073ffffffffffffffffffffffffffffffffffffffff16867f1a93957e2514306f9c62a03c9d38f41d87e9192c4bff4ba40eb834d92c6c728060405160405180910390a35b508080612d8090615391565b915050612c2d565b5050505050565b818190508484905014612dd7576040517f08c379a0000000000000000000000000000000000000000000000000000000008152600401612dce90615bc5565b60405180910390fd5b60005b82829050811015612e4257612e2f858583818110612dfb57612dfa615362565b5b9050602002016020810190612e109190614c27565b848484818110612e2357612e22615362565b5b905060200201356137e4565b8080612e3a90615391565b915050612dda565b5050505050565b60045481565b60008060008360ff1614612e635782612e66565b60ff5b60ff16905080600654612e7991906152f7565b600554612e8691906157e4565b915050919050565b606060126000838152602001908152602001600020805480602002602001604051908101604052809291908181526020016000905b82821015612f9057838290600052602060002090600302016040518060600160405290816000820160009054906101000a900473ffffffffffffffffffffffffffffffffffffffff1673ffffffffffffffffffffffffffffffffffffffff1673ffffffffffffffffffffffffffffffffffffffff168152602001600182015481526020016002820160009054906101000a900460ff166002811115612f6b57612f6a614962565b5b6002811115612f7d57612f7c614962565b5b8152505081526020019060010190612ec3565b505050509050919050565b60005b82829050811015612fed57612fda84848484818110612fc057612fbf615362565b5b9050602002016020810190612fd59190614c27565b6123d0565b8080612fe590615391565b915050612f9e565b50505050565b6000600d60008381526020019081526020016000209050600081600501540361305357816040517f017e57a100000000000000000000000000000000000000000000000000000000815260040161304a919061455a565b60405180910390fd5b80600401544210156130a2578060040154426040517f3bd40433000000000000000000000000000000000000000000000000000000008152600401613099929190615589565b60405180910390fd5b60005b81600a018054905081101561319157600f60008484600a0184815481106130cf576130ce615362565b5b9060005260206000200160009054906101000a900473ffffffffffffffffffffffffffffffffffffffff1660405160200161310b929190615be5565b60405160208183030381529060405280519060200120815260200190815260200160002060009054906101000a900460ff1661317e57826040517fd2471cf8000000000000000000000000000000000000000000000000000000008152600401613175919061455a565b60405180910390fd5b808061318990615391565b9150506130a5565b506000816005018190555060008160060160009054906101000a900473ffffffffffffffffffffffffffffffffffffffff16905060008260070154905060005b83600a01805490508110156132c657816013600086600a0184815481106131fb576131fa615362565b5b9060005260206000200160009054906101000a900473ffffffffffffffffffffffffffffffffffffffff1673ffffffffffffffffffffffffffffffffffffffff1673ffffffffffffffffffffffffffffffffffffffff16815260200190815260200160002060008573ffffffffffffffffffffffffffffffffffffffff1673ffffffffffffffffffffffffffffffffffffffff16815260200190815260200160002060008282546132ac91906157e4565b9250508190555080806132be90615391565b9150506131d1565b50837f09f73e7c1cfe948731316069115856105587fb9681d754a0037165a8a8cfe1f760405160405180910390a250505050565b60106020528060005260406000206000915054906101000a900460ff1681565b6000600d60008381526020019081526020016000209050600081600501540361337a57816040517f017e57a1000000000000000000000000000000000000000000000000000000008152600401613371919061455a565b60405180910390fd5b80600401544210156133c9578060040154426040517f3bd404330000000000000000000000000000000000000000000000000000000081526004016133c0929190615589565b60405180910390fd5b6000600960009054906101000a900473ffffffffffffffffffffffffffffffffffffffff1673ffffffffffffffffffffffffffffffffffffffff16639b1c385e6040518060c00160405280600a548152602001600b548152602001600c60009054906101000a900461ffff1661ffff168152602001600c60029054906101000a900463ffffffff1663ffffffff168152602001600163ffffffff168152602001613483604051806020016040528060011515815250613e9f565b8152506040518263ffffffff1660e01b81526004016134a29190615d11565b6020604051808303816000875af11580156134c1573d6000803e3d6000fd5b505050506040513d601f19601f820116820180604052508101906134e59190615d48565b90508260146000838152602001908152602001600020819055508160030160009054906101000a900463ffffffff166015600083815260200190815260200160002060006101000a81548163ffffffff021916908363ffffffff160217905550505050565b600860009054906101000a900473ffffffffffffffffffffffffffffffffffffffff1673ffffffffffffffffffffffffffffffffffffffff163373ffffffffffffffffffffffffffffffffffffffff16146135da576040517f08c379a00000000000000000000000000000000000000000000000000000000081526004016135d1906152a8565b60405180910390fd5b600073ffffffffffffffffffffffffffffffffffffffff168173ffffffffffffffffffffffffffffffffffffffff1603613649576040517f08c379a000000000000000000000000000000000000000000000000000000000815260040161364090615dc1565b60405180910390fd5b80600760006101000a81548173ffffffffffffffffffffffffffffffffffffffff021916908373ffffffffffffffffffffffffffffffffffffffff16021790555050565b613695613f37565b61369e81613fc9565b50565b600860009054906101000a900473ffffffffffffffffffffffffffffffffffffffff1673ffffffffffffffffffffffffffffffffffffffff163373ffffffffffffffffffffffffffffffffffffffff1614613731576040517f08c379a0000000000000000000000000000000000000000000000000000000008152600401613728906152a8565b60405180910390fd5b600073ffffffffffffffffffffffffffffffffffffffff168173ffffffffffffffffffffffffffffffffffffffff16036137a0576040517f08c379a000000000000000000000000000000000000000000000000000000000815260040161379790615e2d565b60405180910390fd5b80600960006101000a81548173ffffffffffffffffffffffffffffffffffffffff021916908373ffffffffffffffffffffffffffffffffffffffff16021790555050565b600260005403613829576040517f08c379a000000000000000000000000000000000000000000000000000000000815260040161382090615569565b60405180910390fd5b600260008190555080601360003373ffffffffffffffffffffffffffffffffffffffff1673ffffffffffffffffffffffffffffffffffffffff16815260200190815260200160002060008473ffffffffffffffffffffffffffffffffffffffff1673ffffffffffffffffffffffffffffffffffffffff1681526020019081526020016000205410156138f0576040517f08c379a00000000000000000000000000000000000000000000000000000000081526004016138e790615e99565b60405180910390fd5b80601360003373ffffffffffffffffffffffffffffffffffffffff1673ffffffffffffffffffffffffffffffffffffffff16815260200190815260200160002060008473ffffffffffffffffffffffffffffffffffffffff1673ffffffffffffffffffffffffffffffffffffffff168152602001908152602001600020600082825461397c9190615732565b925050819055506139ae33828473ffffffffffffffffffffffffffffffffffffffff166140f79092919063ffffffff16565b60016000819055505050565b60006014600085815260200190815260200160002054905060006015600086815260200190815260200160002060009054906101000a900463ffffffff1690506000600d60008481526020019081526020016000209050600081600a0180549050905060008187876000818110613a3457613a33615362565b5b90506020020135613a459190615ee8565b9050600083600a018281548110613a5f57613a5e615362565b5b9060005260206000200160009054906101000a900473ffffffffffffffffffffffffffffffffffffffff1690506001600f60008884604051602001613aa5929190615be5565b60405160208183030381529060405280519060200120815260200190815260200160002060006101000a81548160ff021916908315150217905550600060018560090160009054906101000a900460ff16613b009190615f19565b60ff168663ffffffff1614613b19578460070154613b1c565b60005b90506000818660050154613b309190615732565b90508273ffffffffffffffffffffffffffffffffffffffff16887fc2518a56896ff30efc4b0de222d91241ad29d5e347b5dc1465e1f28bbc6c4ac2838a604051613b7b929190615f4e565b60405180910390a380601360008573ffffffffffffffffffffffffffffffffffffffff1673ffffffffffffffffffffffffffffffffffffffff16815260200190815260200160002060008860060160009054906101000a900473ffffffffffffffffffffffffffffffffffffffff1673ffffffffffffffffffffffffffffffffffffffff1673ffffffffffffffffffffffffffffffffffffffff1681526020019081526020016000206000828254613c3391906157e4565b9250508190555060018660090160009054906101000a900460ff16613c589190615f19565b60ff168763ffffffff1603613c765760008660050181905550613e09565b600187613c839190615f77565b8660030160006101000a81548163ffffffff021916908363ffffffff16021790555081866005018190555085600a016000613cbe91906143fa565b85600a01839080600181540180825580915050600190039060005260206000200160009091909190916101000a81548173ffffffffffffffffffffffffffffffffffffffff021916908373ffffffffffffffffffffffffffffffffffffffff1602179055506001600e60008a8960030160009054906101000a900463ffffffff1687604051602001613d5293929190615695565b60405160208183030381529060405280519060200120815260200190815260200160002060006101000a81548160ff0219169083151502179055508273ffffffffffffffffffffffffffffffffffffffff16887f672d3f5897f7a8042cd8c8557caf58ece26929a410c3b1a66a34ccfd3460fcde8860030160009054906101000a900463ffffffff16604051613de891906146bf565b60405180910390a3856008015442613e0091906157e4565b86600401819055505b5050505050505050505050565b613e99846323b872dd60e01b858585604051602401613e3793929190615faf565b604051602081830303815290604052907bffffffffffffffffffffffffffffffffffffffffffffffffffffffff19166020820180517bffffffffffffffffffffffffffffffffffffffffffffffffffffffff838183161783525050505061417d565b50505050565b60607f92fd13387c7fe7befbc38d303d6468778fb9731bc4583f17d92989c6fcfdeaaa82604051602401613ed39190616011565b604051602081830303815290604052907bffffffffffffffffffffffffffffffffffffffffffffffffffffffff19166020820180517bffffffffffffffffffffffffffffffffffffffffffffffffffffffff83818316178352505050509050919050565b600160009054906101000a900473ffffffffffffffffffffffffffffffffffffffff1673ffffffffffffffffffffffffffffffffffffffff163373ffffffffffffffffffffffffffffffffffffffff1614613fc7576040517f08c379a0000000000000000000000000000000000000000000000000000000008152600401613fbe90616078565b60405180910390fd5b565b3373ffffffffffffffffffffffffffffffffffffffff168173ffffffffffffffffffffffffffffffffffffffff1603614037576040517f08c379a000000000000000000000000000000000000000000000000000000000815260040161402e906160e4565b60405180910390fd5b80600260006101000a81548173ffffffffffffffffffffffffffffffffffffffff021916908373ffffffffffffffffffffffffffffffffffffffff1602179055508073ffffffffffffffffffffffffffffffffffffffff16600160009054906101000a900473ffffffffffffffffffffffffffffffffffffffff1673ffffffffffffffffffffffffffffffffffffffff167fed8889f560326eb138920d842192f0eb3dd22b4f139c87a2c57538e05bae127860405160405180910390a350565b6141788363a9059cbb60e01b84846040516024016141169291906155cd565b604051602081830303815290604052907bffffffffffffffffffffffffffffffffffffffffffffffffffffffff19166020820180517bffffffffffffffffffffffffffffffffffffffffffffffffffffffff838183161783525050505061417d565b505050565b60006141df826040518060400160405280602081526020017f5361666545524332303a206c6f772d6c6576656c2063616c6c206661696c65648152508573ffffffffffffffffffffffffffffffffffffffff166142449092919063ffffffff16565b905060008151111561423f57808060200190518101906141ff9190616119565b61423e576040517f08c379a0000000000000000000000000000000000000000000000000000000008152600401614235906161b8565b60405180910390fd5b5b505050565b6060614253848460008561425c565b90509392505050565b6060824710156142a1576040517f08c379a00000000000000000000000000000000000000000000000000000000081526004016142989061624a565b60405180910390fd5b6142aa85614370565b6142e9576040517f08c379a00000000000000000000000000000000000000000000000000000000081526004016142e0906162b6565b60405180910390fd5b6000808673ffffffffffffffffffffffffffffffffffffffff1685876040516143129190616307565b60006040518083038185875af1925050503d806000811461434f576040519150601f19603f3d011682016040523d82523d6000602084013e614354565b606091505b5091509150614364828286614393565b92505050949350505050565b6000808273ffffffffffffffffffffffffffffffffffffffff163b119050919050565b606083156143a3578290506143f3565b6000835111156143b65782518084602001fd5b816040517f08c379a00000000000000000000000000000000000000000000000000000000081526004016143ea9190616362565b60405180910390fd5b9392505050565b5080546000825590600052602060002090810190614418919061441b565b50565b5b8082111561443457600081600090555060010161441c565b5090565b600073ffffffffffffffffffffffffffffffffffffffff82169050919050565b600061446382614438565b9050919050565b61447381614458565b82525050565b600060208201905061448e600083018461446a565b92915050565b6000604051905090565b600080fd5b600080fd5b6000819050919050565b6144bb816144a8565b81146144c657600080fd5b50565b6000813590506144d8816144b2565b92915050565b600080604083850312156144f5576144f461449e565b5b6000614503858286016144c9565b9250506020614514858286016144c9565b9150509250929050565b6000602082840312156145345761453361449e565b5b6000614542848285016144c9565b91505092915050565b614554816144a8565b82525050565b600060208201905061456f600083018461454b565b92915050565b600060ff82169050919050565b61458b81614575565b811461459657600080fd5b50565b6000813590506145a881614582565b92915050565b6000602082840312156145c4576145c361449e565b5b60006145d284828501614599565b91505092915050565b600080fd5b600080fd5b600080fd5b60008083601f840112614600576145ff6145db565b5b8235905067ffffffffffffffff81111561461d5761461c6145e0565b5b602083019150836020820283011115614639576146386145e5565b5b9250929050565b6000806000604084860312156146595761465861449e565b5b6000614667868287016144c9565b935050602084013567ffffffffffffffff811115614688576146876144a3565b5b614694868287016145ea565b92509250509250925092565b600063ffffffff82169050919050565b6146b9816146a0565b82525050565b60006020820190506146d460008301846146b0565b92915050565b600080602083850312156146f1576146f061449e565b5b600083013567ffffffffffffffff81111561470f5761470e6144a3565b5b61471b858286016145ea565b92509250509250929050565b6000819050919050565b61473a81614727565b811461474557600080fd5b50565b60008135905061475781614731565b92915050565b600061ffff82169050919050565b6147748161475d565b811461477f57600080fd5b50565b6000813590506147918161476b565b92915050565b6147a0816146a0565b81146147ab57600080fd5b50565b6000813590506147bd81614797565b92915050565b600080600080608085870312156147dd576147dc61449e565b5b60006147eb87828801614748565b94505060206147fc878288016144c9565b935050604061480d87828801614782565b925050606061481e878288016147ae565b91505092959194509250565b61483381614458565b811461483e57600080fd5b50565b6000813590506148508161482a565b92915050565b60008115159050919050565b61486b81614856565b811461487657600080fd5b50565b60008135905061488881614862565b92915050565b600080604083850312156148a5576148a461449e565b5b60006148b385828601614841565b92505060206148c485828601614879565b9150509250929050565b600080604083850312156148e5576148e461449e565b5b60006148f3858286016144c9565b925050602061490485828601614841565b9150509250929050565b61491781614856565b82525050565b6000602082019050614932600083018461490e565b92915050565b61494181614727565b82525050565b600060208201905061495c6000830184614938565b92915050565b7f4e487b7100000000000000000000000000000000000000000000000000000000600052602160045260246000fd5b600381106149a2576149a1614962565b5b50565b60008190506149b382614991565b919050565b60006149c3826149a5565b9050919050565b6149d3816149b8565b82525050565b60006060820190506149ee600083018661446a565b6149fb602083018561454b565b614a0860408301846149ca565b949350505050565b600060208284031215614a2657614a2561449e565b5b6000614a3484828501614748565b91505092915050565b600080fd5b6000601f19601f8301169050919050565b7f4e487b7100000000000000000000000000000000000000000000000000000000600052604160045260246000fd5b614a8b82614a42565b810181811067ffffffffffffffff82111715614aaa57614aa9614a53565b5b80604052505050565b6000614abd614494565b9050614ac98282614a82565b919050565b600067ffffffffffffffff821115614ae957614ae8614a53565b5b614af282614a42565b9050602081019050919050565b82818337600083830152505050565b6000614b21614b1c84614ace565b614ab3565b905082815260208101848484011115614b3d57614b3c614a3d565b5b614b48848285614aff565b509392505050565b600082601f830112614b6557614b646145db565b5b8135614b75848260208601614b0e565b91505092915050565b60008060008060008060c08789031215614b9b57614b9a61449e565b5b600087013567ffffffffffffffff811115614bb957614bb86144a3565b5b614bc589828a01614b50565b9650506020614bd689828a01614841565b9550506040614be789828a016144c9565b9450506060614bf889828a01614599565b9350506080614c0989828a016144c9565b92505060a0614c1a89828a01614879565b9150509295509295509295565b600060208284031215614c3d57614c3c61449e565b5b6000614c4b84828501614841565b91505092915050565b60008060408385031215614c6b57614c6a61449e565b5b6000614c7985828601614841565b9250506020614c8a85828601614841565b9150509250929050565b6000819050919050565b6000614cb9614cb4614caf84614438565b614c94565b614438565b9050919050565b6000614ccb82614c9e565b9050919050565b6000614cdd82614cc0565b9050919050565b614ced81614cd2565b82525050565b6000602082019050614d086000830184614ce4565b92915050565b6000614d1982614cc0565b9050919050565b614d2981614d0e565b82525050565b6000602082019050614d446000830184614d20565b92915050565b614d538161475d565b82525050565b6000602082019050614d6e6000830184614d4a565b92915050565b600081519050919050565b600082825260208201905092915050565b6000819050602082019050919050565b614da981614458565b82525050565b6000614dbb8383614da0565b60208301905092915050565b6000602082019050919050565b6000614ddf82614d74565b614de98185614d7f565b9350614df483614d90565b8060005b83811015614e25578151614e0c8882614daf565b9750614e1783614dc7565b925050600181019050614df8565b5085935050505092915050565b60006020820190508181036000830152614e4c8184614dd4565b905092915050565b600081519050919050565b600082825260208201905092915050565b60005b83811015614e8e578082015181840152602081019050614e73565b60008484015250505050565b6000614ea582614e54565b614eaf8185614e5f565b9350614ebf818560208601614e70565b614ec881614a42565b840191505092915050565b614edc81614575565b82525050565b600061018082019050614ef8600083018f61454b565b614f05602083018e61446a565b8181036040830152614f17818d614e9a565b9050614f26606083018c6146b0565b614f33608083018b61454b565b614f4060a083018a61454b565b614f4d60c083018961446a565b614f5a60e083018861454b565b614f6861010083018761454b565b614f76610120830186614ed3565b614f84610140830185614ed3565b614f9261016083018461490e565b9d9c50505050505050505050505050565b60008083601f840112614fb957614fb86145db565b5b8235905067ffffffffffffffff811115614fd657614fd56145e0565b5b602083019150836020820283011115614ff257614ff16145e5565b5b9250929050565b6000806000604084860312156150125761501161449e565b5b6000615020868287016144c9565b935050602084013567ffffffffffffffff811115615041576150406144a3565b5b61504d86828701614fa3565b92509250509250925092565b600080600080604085870312156150735761507261449e565b5b600085013567ffffffffffffffff811115615091576150906144a3565b5b61509d87828801614fa3565b9450945050602085013567ffffffffffffffff8111156150c0576150bf6144a3565b5b6150cc878288016145ea565b925092505092959194509250565b600081519050919050565b600082825260208201905092915050565b6000819050602082019050919050565b61510f816144a8565b82525050565b61511e816149b8565b82525050565b60608201600082015161513a6000850182614da0565b50602082015161514d6020850182615106565b5060408201516151606040850182615115565b50505050565b60006151728383615124565b60608301905092915050565b6000602082019050919050565b6000615196826150da565b6151a081856150e5565b93506151ab836150f6565b8060005b838110156151dc5781516151c38882615166565b97506151ce8361517e565b9250506001810190506151af565b5085935050505092915050565b60006020820190508181036000830152615203818461518b565b905092915050565b600080604083850312156152225761522161449e565b5b600061523085828601614841565b9250506020615241858286016144c9565b9150509250929050565b600082825260208201905092915050565b7f4e6f742074686520706f746c75636b206f776e65720000000000000000000000600082015250565b600061529260158361524b565b915061529d8261525c565b602082019050919050565b600060208201905081810360008301526152c181615285565b9050919050565b7f4e487b7100000000000000000000000000000000000000000000000000000000600052601160045260246000fd5b6000615302826144a8565b915061530d836144a8565b925082820261531b816144a8565b91508282048414831517615332576153316152c8565b5b5092915050565b600060408201905061534e600083018561446a565b61535b602083018461446a565b9392505050565b7f4e487b7100000000000000000000000000000000000000000000000000000000600052603260045260246000fd5b600061539c826144a8565b91507fffffffffffffffffffffffffffffffffffffffffffffffffffffffffffffffff82036153ce576153cd6152c8565b5b600182019050919050565b7f4e6f2062616c616e636520746f20776974686472617700000000000000000000600082015250565b600061540f60168361524b565b915061541a826153d9565b602082019050919050565b6000602082019050818103600083015261543e81615402565b9050919050565b7f496e76616c696420746f6b656e20616464726573730000000000000000000000600082015250565b600061547b60158361524b565b915061548682615445565b602082019050919050565b600060208201905081810360008301526154aa8161546e565b9050919050565b7f4d7573742062652070726f706f736564206f776e657200000000000000000000600082015250565b60006154e760168361524b565b91506154f2826154b1565b602082019050919050565b60006020820190508181036000830152615516816154da565b9050919050565b7f5265656e7472616e637947756172643a207265656e7472616e742063616c6c00600082015250565b6000615553601f8361524b565b915061555e8261551d565b602082019050919050565b6000602082019050818103600083015261558281615546565b9050919050565b600060408201905061559e600083018561454b565b6155ab602083018461454b565b9392505050565b60006020820190506155c76000830184614ed3565b92915050565b60006040820190506155e2600083018561446a565b6155ef602083018461454b565b9392505050565b6000819050919050565b61561161560c826144a8565b6155f6565b82525050565b60008160e01b9050919050565b600061562f82615617565b9050919050565b615647615642826146a0565b615624565b82525050565b60008160601b9050919050565b60006156658261564d565b9050919050565b60006156778261565a565b9050919050565b61568f61568a82614458565b61566c565b82525050565b60006156a18286615600565b6020820191506156b18285615636565b6004820191506156c1828461567e565b601482019150819050949350505050565b60006060820190506156e7600083018661454b565b6156f460208301856146b0565b615701604083018461446a565b949350505050565b600061571482614575565b915060ff8203615727576157266152c8565b5b600182019050919050565b600061573d826144a8565b9150615748836144a8565b92508282039050818111156157605761575f6152c8565b5b92915050565b600081905092915050565b50565b6000615781600083615766565b915061578c82615771565b600082019050919050565b60006157a282615774565b9150819050919050565b60006157b7826146a0565b91506157c2836146a0565b9250828203905063ffffffff8111156157de576157dd6152c8565b5b92915050565b60006157ef826144a8565b91506157fa836144a8565b9250828201905080821115615812576158116152c8565b5b92915050565b7f4e487b7100000000000000000000000000000000000000000000000000000000600052602260045260246000fd5b6000600282049050600182168061585f57607f821691505b60208210810361587257615871615818565b5b50919050565b60008190508160005260206000209050919050565b60006020601f8301049050919050565b600082821b905092915050565b6000600883026158da7fffffffffffffffffffffffffffffffffffffffffffffffffffffffffffffffff8261589d565b6158e4868361589d565b95508019841693508086168417925050509392505050565b600061591761591261590d846144a8565b614c94565b6144a8565b9050919050565b6000819050919050565b615931836158fc565b61594561593d8261591e565b8484546158aa565b825550505050565b600090565b61595a61594d565b615965818484615928565b505050565b5b818110156159895761597e600082615952565b60018101905061596b565b5050565b601f8211156159ce5761599f81615878565b6159a88461588d565b810160208510156159b7578190505b6159cb6159c38561588d565b83018261596a565b50505b505050565b600082821c905092915050565b60006159f1600019846008026159d3565b1980831691505092915050565b6000615a0a83836159e0565b9150826002028217905092915050565b615a2382614e54565b67ffffffffffffffff811115615a3c57615a3b614a53565b5b615a468254615847565b615a5182828561598d565b600060209050601f831160018114615a845760008415615a72578287015190505b615a7c85826159fe565b865550615ae4565b601f198416615a9286615878565b60005b82811015615aba57848901518255600182019150602085019450602081019050615a95565b86831015615ad75784890151615ad3601f8916826159e0565b8355505b6001600288020188555050505b505050505050565b6000819050919050565b6000615b11615b0c615b0784615aec565b614c94565b6146a0565b9050919050565b615b2181615af6565b82525050565b6000602082019050615b3c6000830184615b18565b92915050565b6000606082019050615b57600083018661446a565b615b64602083018561446a565b615b71604083018461446a565b949350505050565b7f4d69736d61746368656420617272617973000000000000000000000000000000600082015250565b6000615baf60118361524b565b9150615bba82615b79565b602082019050919050565b60006020820190508181036000830152615bde81615ba2565b9050919050565b6000615bf18285615600565b602082019150615c01828461567e565b6014820191508190509392505050565b615c1a81614727565b82525050565b615c298161475d565b82525050565b615c38816146a0565b82525050565b600082825260208201905092915050565b6000615c5a82614e54565b615c648185615c3e565b9350615c74818560208601614e70565b615c7d81614a42565b840191505092915050565b600060c083016000830151615ca06000860182615c11565b506020830151615cb36020860182615106565b506040830151615cc66040860182615c20565b506060830151615cd96060860182615c2f565b506080830151615cec6080860182615c2f565b5060a083015184820360a0860152615d048282615c4f565b9150508091505092915050565b60006020820190508181036000830152615d2b8184615c88565b905092915050565b600081519050615d42816144b2565b92915050565b600060208284031215615d5e57615d5d61449e565b5b6000615d6c84828501615d33565b91505092915050565b7f496e76616c696420747265617375727920616464726573730000000000000000600082015250565b6000615dab60188361524b565b9150615db682615d75565b602082019050919050565b60006020820190508181036000830152615dda81615d9e565b9050919050565b7f496e76616c69642056524620436f6f7264696e61746f72206164647265737300600082015250565b6000615e17601f8361524b565b9150615e2282615de1565b602082019050919050565b60006020820190508181036000830152615e4681615e0a565b9050919050565b7f496e73756666696369656e742062616c616e6365000000000000000000000000600082015250565b6000615e8360148361524b565b9150615e8e82615e4d565b602082019050919050565b60006020820190508181036000830152615eb281615e76565b9050919050565b7f4e487b7100000000000000000000000000000000000000000000000000000000600052601260045260246000fd5b6000615ef3826144a8565b9150615efe836144a8565b925082615f0e57615f0d615eb9565b5b828206905092915050565b6000615f2482614575565b9150615f2f83614575565b9250828203905060ff811115615f4857615f476152c8565b5b92915050565b6000604082019050615f63600083018561454b565b615f7060208301846146b0565b9392505050565b6000615f82826146a0565b9150615f8d836146a0565b9250828201905063ffffffff811115615fa957615fa86152c8565b5b92915050565b6000606082019050615fc4600083018661446a565b615fd1602083018561446a565b615fde604083018461454b565b949350505050565b615fef81614856565b82525050565b60208201600082015161600b6000850182615fe6565b50505050565b60006020820190506160266000830184615ff5565b92915050565b7f4f6e6c792063616c6c61626c65206279206f776e657200000000000000000000600082015250565b600061606260168361524b565b915061606d8261602c565b602082019050919050565b6000602082019050818103600083015261609181616055565b9050919050565b7f43616e6e6f74207472616e7366657220746f2073656c66000000000000000000600082015250565b60006160ce60178361524b565b91506160d982616098565b602082019050919050565b600060208201905081810360008301526160fd816160c1565b9050919050565b60008151905061611381614862565b92915050565b60006020828403121561612f5761612e61449e565b5b600061613d84828501616104565b91505092915050565b7f5361666545524332303a204552433230206f7065726174696f6e20646964206e60008201527f6f74207375636365656400000000000000000000000000000000000000000000602082015250565b60006161a2602a8361524b565b91506161ad82616146565b604082019050919050565b600060208201905081810360008301526161d181616195565b9050919050565b7f416464726573733a20696e73756666696369656e742062616c616e636520666f60008201527f722063616c6c0000000000000000000000000000000000000000000000000000602082015250565b600061623460268361524b565b915061623f826161d8565b604082019050919050565b6000602082019050818103600083015261626381616227565b9050919050565b7f416464726573733a2063616c6c20746f206e6f6e2d636f6e7472616374000000600082015250565b60006162a0601d8361524b565b91506162ab8261626a565b602082019050919050565b600060208201905081810360008301526162cf81616293565b9050919050565b60006162e182614e54565b6162eb8185615766565b93506162fb818560208601614e70565b80840191505092915050565b600061631382846162d6565b915081905092915050565b600081519050919050565b60006163348261631e565b61633e818561524b565b935061634e818560208601614e70565b61635781614a42565b840191505092915050565b6000602082019050818103600083015261637c8184616329565b90509291505056fea2646970667358221220e16029f17f7224f1480b956a200f43346e22925df579a8720dadd1676228552564736f6c63430008130033","linkReferences":{}},"methodIdentifiers":{"acceptOwnership()":"79ba5097","allowParticipants(uint256,address[])":"c5072ca8","allowedTokens(address)":"e744092e","callbackGasLimit()":"24f74697","createPot(bytes,address,uint256,uint8,uint256,bool)":"8661ffca","endBatch(uint256[])":"2fd99712","endPot(uint256)":"e0321cd4","getCreatorFee(uint8)":"d1abb12a","getParticipantFee(uint8)":"13f2cef9","getParticipants(uint256)":"c1e3bd3e","getRequests(uint256)":"d5e78829","hasJoinedRound(bytes32)":"7a4f4436","hasWon(bytes32)":"6b7fd007","isAllowed(uint256,address)":"5faa299a","joinOnBehalf(uint256,address)":"9999fea0","joinPot(uint256)":"831d49ef","keyHash()":"61728f39","owner()":"8da5cb5b","participantFee()":"9c031ace","platformFee()":"26232a2e","potCount()":"cf72f230","potluckOwner()":"09c1f8ff","pots(uint256)":"c3c3df4f","rawFulfillRandomWords(uint256,uint256[])":"1fe543e3","requestConfirmations()":"b0fb162f","requestPotAllow(uint256)":"65c7444d","requestToPot(uint256)":"1301cd25","requestToRound(uint256)":"385542f0","requestedParticipants(uint256,uint256)":"61734cd6","s_subscriptionId()":"8ac00021","s_vrfCoordinator()":"9eccacf6","setChainlinkVRF(address)":"f39c5d51","setChainlinkVRF(bytes32,uint256,uint16,uint32)":"3bb2261d","setCoordinator(address)":"8ea98117","setFees(uint256,uint256)":"0b78f9c0","setTokenStatus(address,bool)":"4cd73548","setTreasury(address)":"f0f44260","transferOwnership(address)":"f2fde38b","treasury()":"61d027b3","triggerBatchJoinOnBehalf(uint256,address[])":"de1149b3","triggerBatchPayout(uint256[])":"a88390dc","triggerPotPayout(uint256)":"e90c88fe","vrfCoordinator()":"a3e56fa8","withdraw()":"3ccfd60b","withdraw(address,uint256)":"f3fef3a3","withdrawBatch(address[],uint256[])":"cb94aa26","withdrawalBalances(address,address)":"908fe934"},"id":48}