{"abi":[{"type":"constructor","inputs":[{"name":"_platformFee","type":"uint256","internalType":"uint256"},{"name":"_partFee","type":"uint256","internalType":"uint256"},{"name":"_treasury","type":"address","internalType":"address"},{"name":"_vrfCoordinator","type":"address","internalType":"address"}],"stateMutability":"nonpayable"},{"type":"function","name":"acceptOwnership","inputs":[],"outputs":[],"stateMutability":"nonpayable"},{"type":"function","name":"allowParticipants","inputs":[{"name":"potId","type":"uint256","internalType":"uint256"},{"name":"participants","type":"address[]","internalType":"address[]"}],"outputs":[],"stateMutability":"nonpayable"},{"type":"function","name":"callbackGasLimit","inputs":[],"outputs":[{"name":"","type":"uint32","internalType":"uint32"}],"stateMutability":"view"},{"type":"function","name":"createPot","inputs":[{"name":"name","type":"bytes","internalType":"bytes"},{"name":"token","type":"address","internalType":"address"},{"name":"entryAmount","type":"uint256","internalType":"uint256"},{"name":"maxParticipants","type":"uint8","internalType":"uint8"},{"name":"periodSeconds","type":"uint256","internalType":"uint256"},{"name":"isPublic","type":"bool","internalType":"bool"}],"outputs":[],"stateMutability":"payable"},{"type":"function","name":"endBatch","inputs":[{"name":"potIds","type":"uint256[]","internalType":"uint256[]"}],"outputs":[],"stateMutability":"nonpayable"},{"type":"function","name":"endPot","inputs":[{"name":"potId","type":"uint256","internalType":"uint256"}],"outputs":[],"stateMutability":"nonpayable"},{"type":"function","name":"getParticipants","inputs":[{"name":"potId","type":"uint256","internalType":"uint256"}],"outputs":[{"name":"","type":"address[]","internalType":"address[]"}],"stateMutability":"view"},{"type":"function","name":"getRequests","inputs":[{"name":"potId","type":"uint256","internalType":"uint256"}],"outputs":[{"name":"","type":"tuple[]","internalType":"struct Potluck.PotRequest[]","components":[{"name":"requestor","type":"address","internalType":"address"},{"name":"timestamp","type":"uint256","internalType":"uint256"},{"name":"status","type":"uint8","internalType":"enum Potluck.RequestStatus"}]}],"stateMutability":"view"},{"type":"function","name":"getRequiredFee","inputs":[{"name":"maxParticipants","type":"uint8","internalType":"uint8"}],"outputs":[{"name":"","type":"uint256","internalType":"uint256"}],"stateMutability":"view"},{"type":"function","name":"hasJoinedRound","inputs":[{"name":"","type":"bytes32","internalType":"bytes32"}],"outputs":[{"name":"","type":"bool","internalType":"bool"}],"stateMutability":"view"},{"type":"function","name":"hasWon","inputs":[{"name":"","type":"bytes32","internalType":"bytes32"}],"outputs":[{"name":"","type":"bool","internalType":"bool"}],"stateMutability":"view"},{"type":"function","name":"isAllowed","inputs":[{"name":"","type":"uint256","internalType":"uint256"},{"name":"","type":"address","internalType":"address"}],"outputs":[{"name":"","type":"bool","internalType":"bool"}],"stateMutability":"view"},{"type":"function","name":"joinOnBehalf","inputs":[{"name":"potId","type":"uint256","internalType":"uint256"},{"name":"participant","type":"address","internalType":"address"}],"outputs":[],"stateMutability":"nonpayable"},{"type":"function","name":"joinPot","inputs":[{"name":"potId","type":"uint256","internalType":"uint256"}],"outputs":[],"stateMutability":"nonpayable"},{"type":"function","name":"keyHash","inputs":[],"outputs":[{"name":"","type":"bytes32","internalType":"bytes32"}],"stateMutability":"view"},{"type":"function","name":"owner","inputs":[],"outputs":[{"name":"","type":"address","internalType":"address"}],"stateMutability":"view"},{"type":"function","name":"participantFee","inputs":[],"outputs":[{"name":"","type":"uint256","internalType":"uint256"}],"stateMutability":"view"},{"type":"function","name":"platformFee","inputs":[],"outputs":[{"name":"","type":"uint256","internalType":"uint256"}],"stateMutability":"view"},{"type":"function","name":"potCount","inputs":[],"outputs":[{"name":"","type":"uint256","internalType":"uint256"}],"stateMutability":"view"},{"type":"function","name":"potluckOwner","inputs":[],"outputs":[{"name":"","type":"address","internalType":"address"}],"stateMutability":"view"},{"type":"function","name":"pots","inputs":[{"name":"","type":"uint256","internalType":"uint256"}],"outputs":[{"name":"id","type":"uint256","internalType":"uint256"},{"name":"creator","type":"address","internalType":"address"},{"name":"name","type":"bytes","internalType":"bytes"},{"name":"round","type":"uint32","internalType":"uint32"},{"name":"deadline","type":"uint256","internalType":"uint256"},{"name":"balance","type":"uint256","internalType":"uint256"},{"name":"token","type":"address","internalType":"address"},{"name":"entryAmount","type":"uint256","internalType":"uint256"},{"name":"period","type":"uint256","internalType":"uint256"},{"name":"totalParticipants","type":"uint32","internalType":"uint32"},{"name":"maxParticipants","type":"uint8","internalType":"uint8"},{"name":"isPublic","type":"bool","internalType":"bool"}],"stateMutability":"view"},{"type":"function","name":"rawFulfillRandomWords","inputs":[{"name":"requestId","type":"uint256","internalType":"uint256"},{"name":"randomWords","type":"uint256[]","internalType":"uint256[]"}],"outputs":[],"stateMutability":"nonpayable"},{"type":"function","name":"requestConfirmations","inputs":[],"outputs":[{"name":"","type":"uint16","internalType":"uint16"}],"stateMutability":"view"},{"type":"function","name":"requestPotAllow","inputs":[{"name":"potId","type":"uint256","internalType":"uint256"}],"outputs":[],"stateMutability":"nonpayable"},{"type":"function","name":"requestToPot","inputs":[{"name":"","type":"uint256","internalType":"uint256"}],"outputs":[{"name":"","type":"uint256","internalType":"uint256"}],"stateMutability":"view"},{"type":"function","name":"requestToRound","inputs":[{"name":"","type":"uint256","internalType":"uint256"}],"outputs":[{"name":"","type":"uint32","internalType":"uint32"}],"stateMutability":"view"},{"type":"function","name":"requestedParticipants","inputs":[{"name":"","type":"uint256","internalType":"uint256"},{"name":"","type":"uint256","internalType":"uint256"}],"outputs":[{"name":"requestor","type":"address","internalType":"address"},{"name":"timestamp","type":"uint256","internalType":"uint256"},{"name":"status","type":"uint8","internalType":"enum Potluck.RequestStatus"}],"stateMutability":"view"},{"type":"function","name":"s_subscriptionId","inputs":[],"outputs":[{"name":"","type":"uint64","internalType":"uint64"}],"stateMutability":"view"},{"type":"function","name":"s_vrfCoordinator","inputs":[],"outputs":[{"name":"","type":"address","internalType":"contract IVRFCoordinatorV2Plus"}],"stateMutability":"view"},{"type":"function","name":"setChainlinkVRF","inputs":[{"name":"_vrfCoordinator","type":"address","internalType":"address"},{"name":"_keyHash","type":"bytes32","internalType":"bytes32"},{"name":"_subscriptionId","type":"uint64","internalType":"uint64"},{"name":"_requestConfirmations","type":"uint16","internalType":"uint16"},{"name":"_callbackGasLimit","type":"uint32","internalType":"uint32"}],"outputs":[],"stateMutability":"nonpayable"},{"type":"function","name":"setCoordinator","inputs":[{"name":"_vrfCoordinator","type":"address","internalType":"address"}],"outputs":[],"stateMutability":"nonpayable"},{"type":"function","name":"setFees","inputs":[{"name":"_flatFee","type":"uint256","internalType":"uint256"},{"name":"_perPartFee","type":"uint256","internalType":"uint256"}],"outputs":[],"stateMutability":"nonpayable"},{"type":"function","name":"setTreasury","inputs":[{"name":"newTreasury","type":"address","internalType":"address"}],"outputs":[],"stateMutability":"nonpayable"},{"type":"function","name":"transferOwnership","inputs":[{"name":"to","type":"address","internalType":"address"}],"outputs":[],"stateMutability":"nonpayable"},{"type":"function","name":"treasury","inputs":[],"outputs":[{"name":"","type":"address","internalType":"address"}],"stateMutability":"view"},{"type":"function","name":"triggerBatchJoinOnBehalf","inputs":[{"name":"potId","type":"uint256","internalType":"uint256"},{"name":"participants","type":"address[]","internalType":"address[]"}],"outputs":[],"stateMutability":"nonpayable"},{"type":"function","name":"triggerBatchPayout","inputs":[{"name":"potIds","type":"uint256[]","internalType":"uint256[]"}],"outputs":[],"stateMutability":"nonpayable"},{"type":"function","name":"triggerPotPayout","inputs":[{"name":"potId","type":"uint256","internalType":"uint256"}],"outputs":[],"stateMutability":"nonpayable"},{"type":"function","name":"vrfCoordinator","inputs":[],"outputs":[{"name":"","type":"address","internalType":"contract VRFCoordinatorV2_5"}],"stateMutability":"view"},{"type":"function","name":"withdraw","inputs":[],"outputs":[],"stateMutability":"nonpayable"},{"type":"event","name":"AllowedParticipantAdded","inputs":[{"name":"potId","type":"uint256","indexed":true,"internalType":"uint256"},{"name":"user","type":"address","indexed":true,"internalType":"address"}],"anonymous":false},{"type":"event","name":"CoordinatorSet","inputs":[{"name":"vrfCoordinator","type":"address","indexed":false,"internalType":"address"}],"anonymous":false},{"type":"event","name":"OwnershipTransferRequested","inputs":[{"name":"from","type":"address","indexed":true,"internalType":"address"},{"name":"to","type":"address","indexed":true,"internalType":"address"}],"anonymous":false},{"type":"event","name":"OwnershipTransferred","inputs":[{"name":"from","type":"address","indexed":true,"internalType":"address"},{"name":"to","type":"address","indexed":true,"internalType":"address"}],"anonymous":false},{"type":"event","name":"PotAllowRequested","inputs":[{"name":"potId","type":"uint256","indexed":true,"internalType":"uint256"},{"name":"requestor","type":"address","indexed":true,"internalType":"address"}],"anonymous":false},{"type":"event","name":"PotCreated","inputs":[{"name":"potId","type":"uint256","indexed":true,"internalType":"uint256"},{"name":"creator","type":"address","indexed":true,"internalType":"address"}],"anonymous":false},{"type":"event","name":"PotEnded","inputs":[{"name":"potId","type":"uint256","indexed":true,"internalType":"uint256"}],"anonymous":false},{"type":"event","name":"PotJoined","inputs":[{"name":"potId","type":"uint256","indexed":true,"internalType":"uint256"},{"name":"roundId","type":"uint32","indexed":false,"internalType":"uint32"},{"name":"user","type":"address","indexed":true,"internalType":"address"}],"anonymous":false},{"type":"event","name":"PotPayout","inputs":[{"name":"potId","type":"uint256","indexed":true,"internalType":"uint256"},{"name":"winner","type":"address","indexed":true,"internalType":"address"},{"name":"amount","type":"uint256","indexed":false,"internalType":"uint256"},{"name":"round","type":"uint32","indexed":false,"internalType":"uint32"}],"anonymous":false},{"type":"error","name":"AlreadyJoined","inputs":[{"name":"potId","type":"uint256","internalType":"uint256"},{"name":"round","type":"uint32","internalType":"uint32"},{"name":"user","type":"address","internalType":"address"}]},{"type":"error","name":"EntryAmountZero","inputs":[]},{"type":"error","name":"InsufficientFundsToCreatePot","inputs":[{"name":"sent","type":"uint256","internalType":"uint256"},{"name":"required","type":"uint256","internalType":"uint256"}]},{"type":"error","name":"InsufficientFundsToRollover","inputs":[{"name":"total","type":"uint256","internalType":"uint256"},{"name":"rollover","type":"uint256","internalType":"uint256"}]},{"type":"error","name":"NoEligibleParticipants","inputs":[]},{"type":"error","name":"NotAllParticipantsWon","inputs":[{"name":"potId","type":"uint256","internalType":"uint256"}]},{"type":"error","name":"NotAllowed","inputs":[{"name":"user","type":"address","internalType":"address"},{"name":"potId","type":"uint256","internalType":"uint256"}]},{"type":"error","name":"NotPotCreator","inputs":[{"name":"sender","type":"address","internalType":"address"},{"name":"potId","type":"uint256","internalType":"uint256"}]},{"type":"error","name":"OnlyCoordinatorCanFulfill","inputs":[{"name":"have","type":"address","internalType":"address"},{"name":"want","type":"address","internalType":"address"}]},{"type":"error","name":"OnlyOwnerOrCoordinator","inputs":[{"name":"have","type":"address","internalType":"address"},{"name":"owner","type":"address","internalType":"address"},{"name":"coordinator","type":"address","internalType":"address"}]},{"type":"error","name":"PeriodTooShort","inputs":[]},{"type":"error","name":"PotDoesNotExist","inputs":[{"name":"potId","type":"uint256","internalType":"uint256"}]},{"type":"error","name":"PotFull","inputs":[{"name":"maxParticipants","type":"uint8","internalType":"uint8"}]},{"type":"error","name":"RoundEnded","inputs":[{"name":"deadline","type":"uint256","internalType":"uint256"},{"name":"nowTimestamp","type":"uint256","internalType":"uint256"}]},{"type":"error","name":"RoundNotReady","inputs":[{"name":"deadline","type":"uint256","internalType":"uint256"},{"name":"nowTimestamp","type":"uint256","internalType":"uint256"}]},{"type":"error","name":"ZeroAddress","inputs":[]}],"bytecode":{"object":"0x60806040523480156200001157600080fd5b5060405162005da438038062005da483398181016040528101906200003791906200049b565b80338060006001600081905550600073ffffffffffffffffffffffffffffffffffffffff168273ffffffffffffffffffffffffffffffffffffffff1603620000b6576040517f08c379a0000000000000000000000000000000000000000000000000000000008152600401620000ad906200056e565b60405180910390fd5b81600160006101000a81548173ffffffffffffffffffffffffffffffffffffffff021916908373ffffffffffffffffffffffffffffffffffffffff160217905550600073ffffffffffffffffffffffffffffffffffffffff168173ffffffffffffffffffffffffffffffffffffffff16146200013e576200013d81620002c560201b60201c565b5b505050600073ffffffffffffffffffffffffffffffffffffffff168173ffffffffffffffffffffffffffffffffffffffff1603620001a8576040517fd92e233d00000000000000000000000000000000000000000000000000000000815260040160405180910390fd5b80600360006101000a81548173ffffffffffffffffffffffffffffffffffffffff021916908373ffffffffffffffffffffffffffffffffffffffff160217905550508360058190555081600760006101000a81548173ffffffffffffffffffffffffffffffffffffffff021916908373ffffffffffffffffffffffffffffffffffffffff1602179055508260068190555033600860006101000a81548173ffffffffffffffffffffffffffffffffffffffff021916908373ffffffffffffffffffffffffffffffffffffffff16021790555080600960006101000a81548173ffffffffffffffffffffffffffffffffffffffff021916908373ffffffffffffffffffffffffffffffffffffffff1602179055505050505062000602565b3373ffffffffffffffffffffffffffffffffffffffff168173ffffffffffffffffffffffffffffffffffffffff160362000336576040517f08c379a00000000000000000000000000000000000000000000000000000000081526004016200032d90620005e0565b60405180910390fd5b80600260006101000a81548173ffffffffffffffffffffffffffffffffffffffff021916908373ffffffffffffffffffffffffffffffffffffffff1602179055508073ffffffffffffffffffffffffffffffffffffffff16600160009054906101000a900473ffffffffffffffffffffffffffffffffffffffff1673ffffffffffffffffffffffffffffffffffffffff167fed8889f560326eb138920d842192f0eb3dd22b4f139c87a2c57538e05bae127860405160405180910390a350565b600080fd5b6000819050919050565b6200041081620003fb565b81146200041c57600080fd5b50565b600081519050620004308162000405565b92915050565b600073ffffffffffffffffffffffffffffffffffffffff82169050919050565b6000620004638262000436565b9050919050565b620004758162000456565b81146200048157600080fd5b50565b60008151905062000495816200046a565b92915050565b60008060008060808587031215620004b857620004b7620003f6565b5b6000620004c8878288016200041f565b9450506020620004db878288016200041f565b9350506040620004ee8782880162000484565b9250506060620005018782880162000484565b91505092959194509250565b600082825260208201905092915050565b7f43616e6e6f7420736574206f776e657220746f207a65726f0000000000000000600082015250565b6000620005566018836200050d565b915062000563826200051e565b602082019050919050565b60006020820190508181036000830152620005898162000547565b9050919050565b7f43616e6e6f74207472616e7366657220746f2073656c66000000000000000000600082015250565b6000620005c86017836200050d565b9150620005d58262000590565b602082019050919050565b60006020820190508181036000830152620005fb81620005b9565b9050919050565b61579280620006126000396000f3fe60806040526004361061023b5760003560e01c80638661ffca1161012e578063c1e3bd3e116100ab578063de1149b31161006f578063de1149b314610897578063e0321cd4146108c0578063e90c88fe146108e9578063f0f4426014610912578063f2fde38b1461093b5761023b565b8063c1e3bd3e14610781578063c3c3df4f146107be578063c5072ca814610806578063cf72f2301461082f578063d5e788291461085a5761023b565b80639c031ace116100f25780639c031ace146106ac5780639eccacf6146106d7578063a3e56fa814610702578063a88390dc1461072d578063b0fb162f146107565761023b565b80638661ffca146105e85780638ac00021146106045780638da5cb5b1461062f5780638ea981171461065a5780639999fea0146106835761023b565b80635faa299a116101bc5780636b7fd007116101805780636b7fd007146104f15780636bc39c941461052e57806379ba50971461056b5780637a4f443614610582578063831d49ef146105bf5761023b565b80635faa299a146103f657806361728f391461043357806361734cd61461045e57806361d027b31461049d57806365c7444d146104c85761023b565b806326232a2e1161020357806326232a2e14610325578063274ce5ec146103505780632fd9971214610379578063385542f0146103a25780633ccfd60b146103df5761023b565b806309c1f8ff146102405780630b78f9c01461026b5780631301cd25146102945780631fe543e3146102d157806324f74697146102fa575b600080fd5b34801561024c57600080fd5b50610255610964565b6040516102629190613af6565b60405180910390f35b34801561027757600080fd5b50610292600480360381019061028d9190613b5b565b61098a565b005b3480156102a057600080fd5b506102bb60048036038101906102b69190613b9b565b610a2c565b6040516102c89190613bd7565b60405180910390f35b3480156102dd57600080fd5b506102f860048036038101906102f39190613c57565b610a44565b005b34801561030657600080fd5b5061030f610b0a565b60405161031c9190613cd6565b60405180910390f35b34801561033157600080fd5b5061033a610b20565b6040516103479190613bd7565b60405180910390f35b34801561035c57600080fd5b5061037760048036038101906103729190613df9565b610b26565b005b34801561038557600080fd5b506103a0600480360381019061039b9190613e74565b610c6c565b005b3480156103ae57600080fd5b506103c960048036038101906103c49190613b9b565b610cb4565b6040516103d69190613cd6565b60405180910390f35b3480156103eb57600080fd5b506103f4610cd7565b005b34801561040257600080fd5b5061041d60048036038101906104189190613ec1565b610e1b565b60405161042a9190613f1c565b60405180910390f35b34801561043f57600080fd5b50610448610e4a565b6040516104559190613f46565b60405180910390f35b34801561046a57600080fd5b5061048560048036038101906104809190613b5b565b610e50565b60405161049493929190613fd8565b60405180910390f35b3480156104a957600080fd5b506104b2610ec4565b6040516104bf9190613af6565b60405180910390f35b3480156104d457600080fd5b506104ef60048036038101906104ea9190613b9b565b610eea565b005b3480156104fd57600080fd5b506105186004803603810190610513919061400f565b611034565b6040516105259190613f1c565b60405180910390f35b34801561053a57600080fd5b5061055560048036038101906105509190614075565b611054565b6040516105629190613bd7565b60405180910390f35b34801561057757600080fd5b5061058061109e565b005b34801561058e57600080fd5b506105a960048036038101906105a4919061400f565b611235565b6040516105b69190613f1c565b60405180910390f35b3480156105cb57600080fd5b506105e660048036038101906105e19190613b9b565b611255565b005b61060260048036038101906105fd919061420f565b611798565b005b34801561061057600080fd5b50610619611cfd565b60405161062691906142c7565b60405180910390f35b34801561063b57600080fd5b50610644611d17565b6040516106519190613af6565b60405180910390f35b34801561066657600080fd5b50610681600480360381019061067c91906142e2565b611d41565b005b34801561068f57600080fd5b506106aa60048036038101906106a59190613ec1565b611f22565b005b3480156106b857600080fd5b506106c16123c9565b6040516106ce9190613bd7565b60405180910390f35b3480156106e357600080fd5b506106ec6123cf565b6040516106f9919061436e565b60405180910390f35b34801561070e57600080fd5b506107176123f5565b60405161072491906143aa565b60405180910390f35b34801561073957600080fd5b50610754600480360381019061074f9190613e74565b61241b565b005b34801561076257600080fd5b5061076b612463565b60405161077891906143d4565b60405180910390f35b34801561078d57600080fd5b506107a860048036038101906107a39190613b9b565b612477565b6040516107b591906144ad565b60405180910390f35b3480156107ca57600080fd5b506107e560048036038101906107e09190613b9b565b61251b565b6040516107fd9c9b9a9998979695949392919061455d565b60405180910390f35b34801561081257600080fd5b5061082d60048036038101906108289190614674565b61267d565b005b34801561083b57600080fd5b5061084461288f565b6040516108519190613bd7565b60405180910390f35b34801561086657600080fd5b50610881600480360381019061087c9190613b9b565b612895565b60405161088e91906147e3565b60405180910390f35b3480156108a357600080fd5b506108be60048036038101906108b99190614674565b6129a2565b005b3480156108cc57600080fd5b506108e760048036038101906108e29190613b9b565b6129fa565b005b3480156108f557600080fd5b50610910600480360381019061090b9190613b9b565b612c99565b005b34801561091e57600080fd5b50610939600480360381019061093491906142e2565b612f3c565b005b34801561094757600080fd5b50610962600480360381019061095d91906142e2565b61307f565b005b600860009054906101000a900473ffffffffffffffffffffffffffffffffffffffff1681565b600860009054906101000a900473ffffffffffffffffffffffffffffffffffffffff1673ffffffffffffffffffffffffffffffffffffffff163373ffffffffffffffffffffffffffffffffffffffff1614610a1a576040517f08c379a0000000000000000000000000000000000000000000000000000000008152600401610a1190614862565b60405180910390fd5b81600581905550806006819055505050565b60116020528060005260406000206000915090505481565b600360009054906101000a900473ffffffffffffffffffffffffffffffffffffffff1673ffffffffffffffffffffffffffffffffffffffff163373ffffffffffffffffffffffffffffffffffffffff1614610afa5733600360009054906101000a900473ffffffffffffffffffffffffffffffffffffffff166040517f1cf993f4000000000000000000000000000000000000000000000000000000008152600401610af1929190614882565b60405180910390fd5b610b05838383613093565b505050565b600b600a9054906101000a900463ffffffff1681565b60055481565b600860009054906101000a900473ffffffffffffffffffffffffffffffffffffffff1673ffffffffffffffffffffffffffffffffffffffff163373ffffffffffffffffffffffffffffffffffffffff1614610bb6576040517f08c379a0000000000000000000000000000000000000000000000000000000008152600401610bad90614862565b60405180910390fd5b84600960006101000a81548173ffffffffffffffffffffffffffffffffffffffff021916908373ffffffffffffffffffffffffffffffffffffffff16021790555083600a8190555082600b60006101000a81548167ffffffffffffffff021916908367ffffffffffffffff16021790555081600b60086101000a81548161ffff021916908361ffff16021790555080600b600a6101000a81548163ffffffff021916908363ffffffff1602179055505050505050565b60005b82829050811015610caf57610c9c838383818110610c9057610c8f6148ab565b5b905060200201356129fa565b8080610ca790614909565b915050610c6f565b505050565b60126020528060005260406000206000915054906101000a900463ffffffff1681565b600860009054906101000a900473ffffffffffffffffffffffffffffffffffffffff1673ffffffffffffffffffffffffffffffffffffffff163373ffffffffffffffffffffffffffffffffffffffff1614610d67576040517f08c379a0000000000000000000000000000000000000000000000000000000008152600401610d5e90614862565b60405180910390fd5b600047905060008111610daf576040517f08c379a0000000000000000000000000000000000000000000000000000000008152600401610da69061499d565b60405180910390fd5b600760009054906101000a900473ffffffffffffffffffffffffffffffffffffffff1673ffffffffffffffffffffffffffffffffffffffff166108fc829081150290604051600060405180830381858888f19350505050158015610e17573d6000803e3d6000fd5b5050565b600f6020528160005260406000206020528060005260406000206000915091509054906101000a900460ff1681565b600a5481565b60106020528160005260406000208181548110610e6c57600080fd5b9060005260206000209060030201600091509150508060000160009054906101000a900473ffffffffffffffffffffffffffffffffffffffff16908060010154908060020160009054906101000a900460ff16905083565b600760009054906101000a900473ffffffffffffffffffffffffffffffffffffffff1681565b6010600082815260200190815260200160002060405180606001604052803373ffffffffffffffffffffffffffffffffffffffff16815260200142815260200160006002811115610f3e57610f3d613f61565b5b815250908060018154018082558091505060019003906000526020600020906003020160009091909190915060008201518160000160006101000a81548173ffffffffffffffffffffffffffffffffffffffff021916908373ffffffffffffffffffffffffffffffffffffffff1602179055506020820151816001015560408201518160020160006101000a81548160ff02191690836002811115610fe657610fe5613f61565b5b021790555050503373ffffffffffffffffffffffffffffffffffffffff16817f14a1608330df21406b2c36c4c92e47f22c9abd31d9df75abc4af2bdb477469bb60405160405180910390a350565b600e6020528060005260406000206000915054906101000a900460ff1681565b60008060008360ff1614611068578261106b565b60ff5b60ff169050808160065461107f91906149bd565b61108991906149bd565b60055461109691906149ff565b915050919050565b600260009054906101000a900473ffffffffffffffffffffffffffffffffffffffff1673ffffffffffffffffffffffffffffffffffffffff163373ffffffffffffffffffffffffffffffffffffffff161461112e576040517f08c379a000000000000000000000000000000000000000000000000000000000815260040161112590614a7f565b60405180910390fd5b6000600160009054906101000a900473ffffffffffffffffffffffffffffffffffffffff16905033600160006101000a81548173ffffffffffffffffffffffffffffffffffffffff021916908373ffffffffffffffffffffffffffffffffffffffff1602179055506000600260006101000a81548173ffffffffffffffffffffffffffffffffffffffff021916908373ffffffffffffffffffffffffffffffffffffffff1602179055503373ffffffffffffffffffffffffffffffffffffffff168173ffffffffffffffffffffffffffffffffffffffff167f8be0079c531659141344cd1fd0a4f28419497f9722a3daafe3b4186f6b6457e060405160405180910390a350565b600d6020528060005260406000206000915054906101000a900460ff1681565b6000600c6000838152602001908152602001600020905060008160050154036112b557816040517f017e57a10000000000000000000000000000000000000000000000000000000081526004016112ac9190613bd7565b60405180910390fd5b80600401544210611303578060040154426040517f8868888c0000000000000000000000000000000000000000000000000000000081526004016112fa929190614a9f565b60405180910390fd5b8060090160049054906101000a900460ff1660ff1681600a018054905010158015611343575060008160090160049054906101000a900460ff1660ff1614155b15611396578060090160049054906101000a900460ff166040517f969559d500000000000000000000000000000000000000000000000000000000815260040161138d9190614ac8565b60405180910390fd5b600f600083815260200190815260200160002060003373ffffffffffffffffffffffffffffffffffffffff1673ffffffffffffffffffffffffffffffffffffffff16815260200190815260200160002060009054906101000a900460ff16158015611410575080600b0160009054906101000a900460ff16155b156114545733826040517f8626cc0300000000000000000000000000000000000000000000000000000000815260040161144b929190614ae3565b60405180910390fd5b6000828260030160009054906101000a900463ffffffff163360405160200161147f93929190614bab565b604051602081830303815290604052805190602001209050600d600082815260200190815260200160002060009054906101000a900460ff161561151257828260030160009054906101000a900463ffffffff16336040517f0beb1aac00000000000000000000000000000000000000000000000000000000815260040161150993929190614be8565b60405180910390fd5b60008260030160009054906101000a900463ffffffff1663ffffffff160361157c5781600901600081819054906101000a900463ffffffff168092919061155890614c1f565b91906101000a81548163ffffffff021916908363ffffffff1602179055505061162b565b600d60008460018560030160009054906101000a900463ffffffff166115a29190614c4b565b336040516020016115b593929190614bab565b60405160208183030381529060405280519060200120815260200190815260200160002060009054906101000a900460ff1661162a5733836040517f8626cc03000000000000000000000000000000000000000000000000000000008152600401611621929190614ae3565b60405180910390fd5b5b611680333084600701548560060160009054906101000a900473ffffffffffffffffffffffffffffffffffffffff1673ffffffffffffffffffffffffffffffffffffffff16613493909392919063ffffffff16565b816007015482600501600082825461169891906149ff565b9250508190555081600a01339080600181540180825580915050600190039060005260206000200160009091909190916101000a81548173ffffffffffffffffffffffffffffffffffffffff021916908373ffffffffffffffffffffffffffffffffffffffff1602179055506001600d600083815260200190815260200160002060006101000a81548160ff0219169083151502179055503373ffffffffffffffffffffffffffffffffffffffff16837f672d3f5897f7a8042cd8c8557caf58ece26929a410c3b1a66a34ccfd3460fcde8460030160009054906101000a900463ffffffff1660405161178b9190613cd6565b60405180910390a3505050565b6002600054036117dd576040517f08c379a00000000000000000000000000000000000000000000000000000000081526004016117d490614ccf565b60405180910390fd5b60026000819055506000840361181f576040517f172bb87f00000000000000000000000000000000000000000000000000000000815260040160405180910390fd5b610e1082101561185b576040517f9306857800000000000000000000000000000000000000000000000000000000815260040160405180910390fd5b60006004600081548092919061187090614909565b9190505590506000600c60008381526020019081526020016000209050818160000181905550338160010160006101000a81548173ffffffffffffffffffffffffffffffffffffffff021916908373ffffffffffffffffffffffffffffffffffffffff160217905550878160020190816118ea9190614ef1565b50868160060160006101000a81548173ffffffffffffffffffffffffffffffffffffffff021916908373ffffffffffffffffffffffffffffffffffffffff16021790555085816007018190555083816008018190555060018160090160006101000a81548163ffffffff021916908363ffffffff160217905550834261197091906149ff565b816004018190555085816005018190555080600a01339080600181540180825580915050600190039060005260206000200160009091909190916101000a81548173ffffffffffffffffffffffffffffffffffffffff021916908373ffffffffffffffffffffffffffffffffffffffff1602179055508281600b0160006101000a81548160ff021916908315150217905550848160090160046101000a81548160ff021916908360ff16021790555082611a8e576001600f600084815260200190815260200160002060003373ffffffffffffffffffffffffffffffffffffffff1673ffffffffffffffffffffffffffffffffffffffff16815260200190815260200160002060006101000a81548160ff0219169083151502179055505b600082600033604051602001611aa693929190614bab565b6040516020818303038152906040528051906020012090506001600d600083815260200190815260200160002060006101000a81548160ff021916908315150217905550611b173330898b73ffffffffffffffffffffffffffffffffffffffff16613493909392919063ffffffff16565b6000611b2287611054565b905080341015611b6b5734816040517fa7ee296a000000000000000000000000000000000000000000000000000000008152600401611b62929190614a9f565b60405180910390fd5b600760009054906101000a900473ffffffffffffffffffffffffffffffffffffffff1673ffffffffffffffffffffffffffffffffffffffff166108fc829081150290604051600060405180830381858888f19350505050158015611bd3573d6000803e3d6000fd5b5080341115611c555760003373ffffffffffffffffffffffffffffffffffffffff168234611c019190614fc3565b604051611c0d90615028565b60006040518083038185875af1925050503d8060008114611c4a576040519150601f19603f3d011682016040523d82523d6000602084013e611c4f565b606091505b50509050505b3373ffffffffffffffffffffffffffffffffffffffff16847fde307469e0906e8d7a6e84aec39b533cfe12dd01b2737a0f785511261337231760405160405180910390a33373ffffffffffffffffffffffffffffffffffffffff16847f672d3f5897f7a8042cd8c8557caf58ece26929a410c3b1a66a34ccfd3460fcde6000604051611ce19190615078565b60405180910390a3505050506001600081905550505050505050565b600b60009054906101000a900467ffffffffffffffff1681565b6000600160009054906101000a900473ffffffffffffffffffffffffffffffffffffffff16905090565b611d49611d17565b73ffffffffffffffffffffffffffffffffffffffff163373ffffffffffffffffffffffffffffffffffffffff1614158015611dd25750600360009054906101000a900473ffffffffffffffffffffffffffffffffffffffff1673ffffffffffffffffffffffffffffffffffffffff163373ffffffffffffffffffffffffffffffffffffffff1614155b15611e415733611de0611d17565b600360009054906101000a900473ffffffffffffffffffffffffffffffffffffffff166040517f061db9c1000000000000000000000000000000000000000000000000000000008152600401611e3893929190615093565b60405180910390fd5b600073ffffffffffffffffffffffffffffffffffffffff168173ffffffffffffffffffffffffffffffffffffffff1603611ea7576040517fd92e233d00000000000000000000000000000000000000000000000000000000815260040160405180910390fd5b80600360006101000a81548173ffffffffffffffffffffffffffffffffffffffff021916908373ffffffffffffffffffffffffffffffffffffffff1602179055507fd1a6a14209a385a964d036e404cb5cfb71f4000cdb03c9366292430787261be681604051611f179190613af6565b60405180910390a150565b6000600c600084815260200190815260200160002090506000816005015403611f8257826040517f017e57a1000000000000000000000000000000000000000000000000000000008152600401611f799190613bd7565b60405180910390fd5b80600401544210611fd0578060040154426040517f8868888c000000000000000000000000000000000000000000000000000000008152600401611fc7929190614a9f565b60405180910390fd5b600f600084815260200190815260200160002060008373ffffffffffffffffffffffffffffffffffffffff1673ffffffffffffffffffffffffffffffffffffffff16815260200190815260200160002060009054906101000a900460ff1615801561204a575080600b0160009054906101000a900460ff16155b1561208e5781836040517f8626cc03000000000000000000000000000000000000000000000000000000008152600401612085929190614ae3565b60405180910390fd5b60008160030160009054906101000a900463ffffffff1663ffffffff16036120ef5733836040517f8626cc030000000000000000000000000000000000000000000000000000000081526004016120e6929190614ae3565b60405180910390fd5b600d60008460018460030160009054906101000a900463ffffffff166121159190614c4b565b8560405160200161212893929190614bab565b60405160208183030381529060405280519060200120815260200190815260200160002060009054906101000a900460ff1661219d5781836040517f8626cc03000000000000000000000000000000000000000000000000000000008152600401612194929190614ae3565b60405180910390fd5b6000838260030160009054906101000a900463ffffffff16846040516020016121c893929190614bab565b604051602081830303815290604052805190602001209050600d600082815260200190815260200160002060009054906101000a900460ff161561225b57838260030160009054906101000a900463ffffffff16846040517f0beb1aac00000000000000000000000000000000000000000000000000000000815260040161225293929190614be8565b60405180910390fd5b816007015482600501600082825461227391906149ff565b9250508190555081600a01839080600181540180825580915050600190039060005260206000200160009091909190916101000a81548173ffffffffffffffffffffffffffffffffffffffff021916908373ffffffffffffffffffffffffffffffffffffffff1602179055506001600d600083815260200190815260200160002060006101000a81548160ff021916908315150217905550612360833084600701548560060160009054906101000a900473ffffffffffffffffffffffffffffffffffffffff1673ffffffffffffffffffffffffffffffffffffffff16613493909392919063ffffffff16565b8273ffffffffffffffffffffffffffffffffffffffff16847f672d3f5897f7a8042cd8c8557caf58ece26929a410c3b1a66a34ccfd3460fcde8460030160009054906101000a900463ffffffff166040516123bb9190613cd6565b60405180910390a350505050565b60065481565b600360009054906101000a900473ffffffffffffffffffffffffffffffffffffffff1681565b600960009054906101000a900473ffffffffffffffffffffffffffffffffffffffff1681565b60005b8282905081101561245e5761244b83838381811061243f5761243e6148ab565b5b90506020020135612c99565b808061245690614909565b91505061241e565b505050565b600b60089054906101000a900461ffff1681565b6060600c6000838152602001908152602001600020600a0180548060200260200160405190810160405280929190818152602001828054801561250f57602002820191906000526020600020905b8160009054906101000a900473ffffffffffffffffffffffffffffffffffffffff1673ffffffffffffffffffffffffffffffffffffffff16815260200190600101908083116124c5575b50505050509050919050565b600c6020528060005260406000206000915090508060000154908060010160009054906101000a900473ffffffffffffffffffffffffffffffffffffffff169080600201805461256a90614d1e565b80601f016020809104026020016040519081016040528092919081815260200182805461259690614d1e565b80156125e35780601f106125b8576101008083540402835291602001916125e3565b820191906000526020600020905b8154815290600101906020018083116125c657829003601f168201915b5050505050908060030160009054906101000a900463ffffffff16908060040154908060050154908060060160009054906101000a900473ffffffffffffffffffffffffffffffffffffffff16908060070154908060080154908060090160009054906101000a900463ffffffff16908060090160049054906101000a900460ff169080600b0160009054906101000a900460ff1690508c565b6000600c600085815260200190815260200160002090508060010160009054906101000a900473ffffffffffffffffffffffffffffffffffffffff1673ffffffffffffffffffffffffffffffffffffffff163373ffffffffffffffffffffffffffffffffffffffff161461272a5733846040517f3872341e000000000000000000000000000000000000000000000000000000008152600401612721929190614ae3565b60405180910390fd5b60005b8383905081101561288857600084848381811061274d5761274c6148ab565b5b905060200201602081019061276291906142e2565b9050600f600087815260200190815260200160002060008273ffffffffffffffffffffffffffffffffffffffff1673ffffffffffffffffffffffffffffffffffffffff16815260200190815260200160002060009054906101000a900460ff16612874576001600f600088815260200190815260200160002060008373ffffffffffffffffffffffffffffffffffffffff1673ffffffffffffffffffffffffffffffffffffffff16815260200190815260200160002060006101000a81548160ff0219169083151502179055508073ffffffffffffffffffffffffffffffffffffffff16867f1a93957e2514306f9c62a03c9d38f41d87e9192c4bff4ba40eb834d92c6c728060405160405180910390a35b50808061288090614909565b91505061272d565b5050505050565b60045481565b606060106000838152602001908152602001600020805480602002602001604051908101604052809291908181526020016000905b8282101561299757838290600052602060002090600302016040518060600160405290816000820160009054906101000a900473ffffffffffffffffffffffffffffffffffffffff1673ffffffffffffffffffffffffffffffffffffffff1673ffffffffffffffffffffffffffffffffffffffff168152602001600182015481526020016002820160009054906101000a900460ff16600281111561297257612971613f61565b5b600281111561298457612983613f61565b5b81525050815260200190600101906128ca565b505050509050919050565b60005b828290508110156129f4576129e1848484848181106129c7576129c66148ab565b5b90506020020160208101906129dc91906142e2565b611f22565b80806129ec90614909565b9150506129a5565b50505050565b6000600c600083815260200190815260200160002090506000816005015403612a5a57816040517f017e57a1000000000000000000000000000000000000000000000000000000008152600401612a519190613bd7565b60405180910390fd5b8060040154421015612aa9578060040154426040517f3bd40433000000000000000000000000000000000000000000000000000000008152600401612aa0929190614a9f565b60405180910390fd5b60005b81600a0180549050811015612b9857600e60008484600a018481548110612ad657612ad56148ab565b5b9060005260206000200160009054906101000a900473ffffffffffffffffffffffffffffffffffffffff16604051602001612b129291906150ca565b60405160208183030381529060405280519060200120815260200190815260200160002060009054906101000a900460ff16612b8557826040517fd2471cf8000000000000000000000000000000000000000000000000000000008152600401612b7c9190613bd7565b60405180910390fd5b8080612b9090614909565b915050612aac565b506000816005018190555060008160060160009054906101000a900473ffffffffffffffffffffffffffffffffffffffff16905060008260070154905060005b83600a0180549050811015612c6557612c5284600a018281548110612c0057612bff6148ab565b5b9060005260206000200160009054906101000a900473ffffffffffffffffffffffffffffffffffffffff16838573ffffffffffffffffffffffffffffffffffffffff1661351c9092919063ffffffff16565b8080612c5d90614909565b915050612bd8565b50837f09f73e7c1cfe948731316069115856105587fb9681d754a0037165a8a8cfe1f760405160405180910390a250505050565b600260005403612cde576040517f08c379a0000000000000000000000000000000000000000000000000000000008152600401612cd590614ccf565b60405180910390fd5b60026000819055506000600c600083815260200190815260200160002090506000816005015403612d4657816040517f017e57a1000000000000000000000000000000000000000000000000000000008152600401612d3d9190613bd7565b60405180910390fd5b8060040154421015612d95578060040154426040517f3bd40433000000000000000000000000000000000000000000000000000000008152600401612d8c929190614a9f565b60405180910390fd5b6000600960009054906101000a900473ffffffffffffffffffffffffffffffffffffffff1673ffffffffffffffffffffffffffffffffffffffff16639b1c385e6040518060c00160405280600a548152602001600b60009054906101000a900467ffffffffffffffff1667ffffffffffffffff168152602001600b60089054906101000a900461ffff1661ffff168152602001600b600a9054906101000a900463ffffffff1663ffffffff168152602001600163ffffffff168152602001612e6d6040518060200160405280600115158152506135a2565b8152506040518263ffffffff1660e01b8152600401612e8c91906151f6565b6020604051808303816000875af1158015612eab573d6000803e3d6000fd5b505050506040513d601f19601f82011682018060405250810190612ecf919061522d565b90508260116000838152602001908152602001600020819055508160030160009054906101000a900463ffffffff166012600083815260200190815260200160002060006101000a81548163ffffffff021916908363ffffffff1602179055505050600160008190555050565b600860009054906101000a900473ffffffffffffffffffffffffffffffffffffffff1673ffffffffffffffffffffffffffffffffffffffff163373ffffffffffffffffffffffffffffffffffffffff1614612fcc576040517f08c379a0000000000000000000000000000000000000000000000000000000008152600401612fc390614862565b60405180910390fd5b600073ffffffffffffffffffffffffffffffffffffffff168173ffffffffffffffffffffffffffffffffffffffff160361303b576040517f08c379a0000000000000000000000000000000000000000000000000000000008152600401613032906152a6565b60405180910390fd5b80600760006101000a81548173ffffffffffffffffffffffffffffffffffffffff021916908373ffffffffffffffffffffffffffffffffffffffff16021790555050565b61308761363a565b613090816136cc565b50565b60006011600085815260200190815260200160002054905060006012600086815260200190815260200160002060009054906101000a900463ffffffff1690506000600c60008481526020019081526020016000209050600081600a018054905090506000818787600081811061310d5761310c6148ab565b5b9050602002013561311e91906152f5565b9050600083600a018281548110613138576131376148ab565b5b9060005260206000200160009054906101000a900473ffffffffffffffffffffffffffffffffffffffff1690506001600e6000888460405160200161317e9291906150ca565b60405160208183030381529060405280519060200120815260200190815260200160002060006101000a81548160ff021916908315150217905550600060018560090160009054906101000a900463ffffffff166131dc9190614c4b565b63ffffffff168663ffffffff16146131f85784600701546131fb565b60005b9050600081866005015461320f9190614fc3565b90508273ffffffffffffffffffffffffffffffffffffffff16887fc2518a56896ff30efc4b0de222d91241ad29d5e347b5dc1465e1f28bbc6c4ac2838a60405161325a929190615326565b60405180910390a36132b183828860060160009054906101000a900473ffffffffffffffffffffffffffffffffffffffff1673ffffffffffffffffffffffffffffffffffffffff1661351c9092919063ffffffff16565b60018660090160009054906101000a900463ffffffff166132d29190614c4b565b63ffffffff168763ffffffff16036132f35760008660050181905550613486565b600187613300919061534f565b8660030160006101000a81548163ffffffff021916908363ffffffff16021790555081866005018190555085600a01600061333b9190613a77565b85600a01839080600181540180825580915050600190039060005260206000200160009091909190916101000a81548173ffffffffffffffffffffffffffffffffffffffff021916908373ffffffffffffffffffffffffffffffffffffffff1602179055506001600d60008a8960030160009054906101000a900463ffffffff16876040516020016133cf93929190614bab565b60405160208183030381529060405280519060200120815260200190815260200160002060006101000a81548160ff0219169083151502179055508273ffffffffffffffffffffffffffffffffffffffff16887f672d3f5897f7a8042cd8c8557caf58ece26929a410c3b1a66a34ccfd3460fcde8860030160009054906101000a900463ffffffff166040516134659190613cd6565b60405180910390a385600801544261347d91906149ff565b86600401819055505b5050505050505050505050565b613516846323b872dd60e01b8585856040516024016134b493929190615387565b604051602081830303815290604052907bffffffffffffffffffffffffffffffffffffffffffffffffffffffff19166020820180517bffffffffffffffffffffffffffffffffffffffffffffffffffffffff83818316178352505050506137fa565b50505050565b61359d8363a9059cbb60e01b848460405160240161353b929190614ae3565b604051602081830303815290604052907bffffffffffffffffffffffffffffffffffffffffffffffffffffffff19166020820180517bffffffffffffffffffffffffffffffffffffffffffffffffffffffff83818316178352505050506137fa565b505050565b60607f92fd13387c7fe7befbc38d303d6468778fb9731bc4583f17d92989c6fcfdeaaa826040516024016135d691906153e9565b604051602081830303815290604052907bffffffffffffffffffffffffffffffffffffffffffffffffffffffff19166020820180517bffffffffffffffffffffffffffffffffffffffffffffffffffffffff83818316178352505050509050919050565b600160009054906101000a900473ffffffffffffffffffffffffffffffffffffffff1673ffffffffffffffffffffffffffffffffffffffff163373ffffffffffffffffffffffffffffffffffffffff16146136ca576040517f08c379a00000000000000000000000000000000000000000000000000000000081526004016136c190615450565b60405180910390fd5b565b3373ffffffffffffffffffffffffffffffffffffffff168173ffffffffffffffffffffffffffffffffffffffff160361373a576040517f08c379a0000000000000000000000000000000000000000000000000000000008152600401613731906154bc565b60405180910390fd5b80600260006101000a81548173ffffffffffffffffffffffffffffffffffffffff021916908373ffffffffffffffffffffffffffffffffffffffff1602179055508073ffffffffffffffffffffffffffffffffffffffff16600160009054906101000a900473ffffffffffffffffffffffffffffffffffffffff1673ffffffffffffffffffffffffffffffffffffffff167fed8889f560326eb138920d842192f0eb3dd22b4f139c87a2c57538e05bae127860405160405180910390a350565b600061385c826040518060400160405280602081526020017f5361666545524332303a206c6f772d6c6576656c2063616c6c206661696c65648152508573ffffffffffffffffffffffffffffffffffffffff166138c19092919063ffffffff16565b90506000815111156138bc578080602001905181019061387c91906154f1565b6138bb576040517f08c379a00000000000000000000000000000000000000000000000000000000081526004016138b290615590565b60405180910390fd5b5b505050565b60606138d084846000856138d9565b90509392505050565b60608247101561391e576040517f08c379a000000000000000000000000000000000000000000000000000000000815260040161391590615622565b60405180910390fd5b613927856139ed565b613966576040517f08c379a000000000000000000000000000000000000000000000000000000000815260040161395d9061568e565b60405180910390fd5b6000808673ffffffffffffffffffffffffffffffffffffffff16858760405161398f91906156df565b60006040518083038185875af1925050503d80600081146139cc576040519150601f19603f3d011682016040523d82523d6000602084013e6139d1565b606091505b50915091506139e1828286613a10565b92505050949350505050565b6000808273ffffffffffffffffffffffffffffffffffffffff163b119050919050565b60608315613a2057829050613a70565b600083511115613a335782518084602001fd5b816040517f08c379a0000000000000000000000000000000000000000000000000000000008152600401613a67919061573a565b60405180910390fd5b9392505050565b5080546000825590600052602060002090810190613a959190613a98565b50565b5b80821115613ab1576000816000905550600101613a99565b5090565b600073ffffffffffffffffffffffffffffffffffffffff82169050919050565b6000613ae082613ab5565b9050919050565b613af081613ad5565b82525050565b6000602082019050613b0b6000830184613ae7565b92915050565b6000604051905090565b600080fd5b600080fd5b6000819050919050565b613b3881613b25565b8114613b4357600080fd5b50565b600081359050613b5581613b2f565b92915050565b60008060408385031215613b7257613b71613b1b565b5b6000613b8085828601613b46565b9250506020613b9185828601613b46565b9150509250929050565b600060208284031215613bb157613bb0613b1b565b5b6000613bbf84828501613b46565b91505092915050565b613bd181613b25565b82525050565b6000602082019050613bec6000830184613bc8565b92915050565b600080fd5b600080fd5b600080fd5b60008083601f840112613c1757613c16613bf2565b5b8235905067ffffffffffffffff811115613c3457613c33613bf7565b5b602083019150836020820283011115613c5057613c4f613bfc565b5b9250929050565b600080600060408486031215613c7057613c6f613b1b565b5b6000613c7e86828701613b46565b935050602084013567ffffffffffffffff811115613c9f57613c9e613b20565b5b613cab86828701613c01565b92509250509250925092565b600063ffffffff82169050919050565b613cd081613cb7565b82525050565b6000602082019050613ceb6000830184613cc7565b92915050565b613cfa81613ad5565b8114613d0557600080fd5b50565b600081359050613d1781613cf1565b92915050565b6000819050919050565b613d3081613d1d565b8114613d3b57600080fd5b50565b600081359050613d4d81613d27565b92915050565b600067ffffffffffffffff82169050919050565b613d7081613d53565b8114613d7b57600080fd5b50565b600081359050613d8d81613d67565b92915050565b600061ffff82169050919050565b613daa81613d93565b8114613db557600080fd5b50565b600081359050613dc781613da1565b92915050565b613dd681613cb7565b8114613de157600080fd5b50565b600081359050613df381613dcd565b92915050565b600080600080600060a08688031215613e1557613e14613b1b565b5b6000613e2388828901613d08565b9550506020613e3488828901613d3e565b9450506040613e4588828901613d7e565b9350506060613e5688828901613db8565b9250506080613e6788828901613de4565b9150509295509295909350565b60008060208385031215613e8b57613e8a613b1b565b5b600083013567ffffffffffffffff811115613ea957613ea8613b20565b5b613eb585828601613c01565b92509250509250929050565b60008060408385031215613ed857613ed7613b1b565b5b6000613ee685828601613b46565b9250506020613ef785828601613d08565b9150509250929050565b60008115159050919050565b613f1681613f01565b82525050565b6000602082019050613f316000830184613f0d565b92915050565b613f4081613d1d565b82525050565b6000602082019050613f5b6000830184613f37565b92915050565b7f4e487b7100000000000000000000000000000000000000000000000000000000600052602160045260246000fd5b60038110613fa157613fa0613f61565b5b50565b6000819050613fb282613f90565b919050565b6000613fc282613fa4565b9050919050565b613fd281613fb7565b82525050565b6000606082019050613fed6000830186613ae7565b613ffa6020830185613bc8565b6140076040830184613fc9565b949350505050565b60006020828403121561402557614024613b1b565b5b600061403384828501613d3e565b91505092915050565b600060ff82169050919050565b6140528161403c565b811461405d57600080fd5b50565b60008135905061406f81614049565b92915050565b60006020828403121561408b5761408a613b1b565b5b600061409984828501614060565b91505092915050565b600080fd5b6000601f19601f8301169050919050565b7f4e487b7100000000000000000000000000000000000000000000000000000000600052604160045260246000fd5b6140f0826140a7565b810181811067ffffffffffffffff8211171561410f5761410e6140b8565b5b80604052505050565b6000614122613b11565b905061412e82826140e7565b919050565b600067ffffffffffffffff82111561414e5761414d6140b8565b5b614157826140a7565b9050602081019050919050565b82818337600083830152505050565b600061418661418184614133565b614118565b9050828152602081018484840111156141a2576141a16140a2565b5b6141ad848285614164565b509392505050565b600082601f8301126141ca576141c9613bf2565b5b81356141da848260208601614173565b91505092915050565b6141ec81613f01565b81146141f757600080fd5b50565b600081359050614209816141e3565b92915050565b60008060008060008060c0878903121561422c5761422b613b1b565b5b600087013567ffffffffffffffff81111561424a57614249613b20565b5b61425689828a016141b5565b965050602061426789828a01613d08565b955050604061427889828a01613b46565b945050606061428989828a01614060565b935050608061429a89828a01613b46565b92505060a06142ab89828a016141fa565b9150509295509295509295565b6142c181613d53565b82525050565b60006020820190506142dc60008301846142b8565b92915050565b6000602082840312156142f8576142f7613b1b565b5b600061430684828501613d08565b91505092915050565b6000819050919050565b600061433461432f61432a84613ab5565b61430f565b613ab5565b9050919050565b600061434682614319565b9050919050565b60006143588261433b565b9050919050565b6143688161434d565b82525050565b6000602082019050614383600083018461435f565b92915050565b60006143948261433b565b9050919050565b6143a481614389565b82525050565b60006020820190506143bf600083018461439b565b92915050565b6143ce81613d93565b82525050565b60006020820190506143e960008301846143c5565b92915050565b600081519050919050565b600082825260208201905092915050565b6000819050602082019050919050565b61442481613ad5565b82525050565b6000614436838361441b565b60208301905092915050565b6000602082019050919050565b600061445a826143ef565b61446481856143fa565b935061446f8361440b565b8060005b838110156144a0578151614487888261442a565b975061449283614442565b925050600181019050614473565b5085935050505092915050565b600060208201905081810360008301526144c7818461444f565b905092915050565b600081519050919050565b600082825260208201905092915050565b60005b838110156145095780820151818401526020810190506144ee565b60008484015250505050565b6000614520826144cf565b61452a81856144da565b935061453a8185602086016144eb565b614543816140a7565b840191505092915050565b6145578161403c565b82525050565b600061018082019050614573600083018f613bc8565b614580602083018e613ae7565b8181036040830152614592818d614515565b90506145a1606083018c613cc7565b6145ae608083018b613bc8565b6145bb60a083018a613bc8565b6145c860c0830189613ae7565b6145d560e0830188613bc8565b6145e3610100830187613bc8565b6145f1610120830186613cc7565b6145ff61014083018561454e565b61460d610160830184613f0d565b9d9c50505050505050505050505050565b60008083601f84011261463457614633613bf2565b5b8235905067ffffffffffffffff81111561465157614650613bf7565b5b60208301915083602082028301111561466d5761466c613bfc565b5b9250929050565b60008060006040848603121561468d5761468c613b1b565b5b600061469b86828701613b46565b935050602084013567ffffffffffffffff8111156146bc576146bb613b20565b5b6146c88682870161461e565b92509250509250925092565b600081519050919050565b600082825260208201905092915050565b6000819050602082019050919050565b61470981613b25565b82525050565b61471881613fb7565b82525050565b606082016000820151614734600085018261441b565b5060208201516147476020850182614700565b50604082015161475a604085018261470f565b50505050565b600061476c838361471e565b60608301905092915050565b6000602082019050919050565b6000614790826146d4565b61479a81856146df565b93506147a5836146f0565b8060005b838110156147d65781516147bd8882614760565b97506147c883614778565b9250506001810190506147a9565b5085935050505092915050565b600060208201905081810360008301526147fd8184614785565b905092915050565b600082825260208201905092915050565b7f4e6f7420746865206f776e657200000000000000000000000000000000000000600082015250565b600061484c600d83614805565b915061485782614816565b602082019050919050565b6000602082019050818103600083015261487b8161483f565b9050919050565b60006040820190506148976000830185613ae7565b6148a46020830184613ae7565b9392505050565b7f4e487b7100000000000000000000000000000000000000000000000000000000600052603260045260246000fd5b7f4e487b7100000000000000000000000000000000000000000000000000000000600052601160045260246000fd5b600061491482613b25565b91507fffffffffffffffffffffffffffffffffffffffffffffffffffffffffffffffff8203614946576149456148da565b5b600182019050919050565b7f4e6f2062616c616e636520746f20776974686472617700000000000000000000600082015250565b6000614987601683614805565b915061499282614951565b602082019050919050565b600060208201905081810360008301526149b68161497a565b9050919050565b60006149c882613b25565b91506149d383613b25565b92508282026149e181613b25565b915082820484148315176149f8576149f76148da565b5b5092915050565b6000614a0a82613b25565b9150614a1583613b25565b9250828201905080821115614a2d57614a2c6148da565b5b92915050565b7f4d7573742062652070726f706f736564206f776e657200000000000000000000600082015250565b6000614a69601683614805565b9150614a7482614a33565b602082019050919050565b60006020820190508181036000830152614a9881614a5c565b9050919050565b6000604082019050614ab46000830185613bc8565b614ac16020830184613bc8565b9392505050565b6000602082019050614add600083018461454e565b92915050565b6000604082019050614af86000830185613ae7565b614b056020830184613bc8565b9392505050565b6000819050919050565b614b27614b2282613b25565b614b0c565b82525050565b60008160e01b9050919050565b6000614b4582614b2d565b9050919050565b614b5d614b5882613cb7565b614b3a565b82525050565b60008160601b9050919050565b6000614b7b82614b63565b9050919050565b6000614b8d82614b70565b9050919050565b614ba5614ba082613ad5565b614b82565b82525050565b6000614bb78286614b16565b602082019150614bc78285614b4c565b600482019150614bd78284614b94565b601482019150819050949350505050565b6000606082019050614bfd6000830186613bc8565b614c0a6020830185613cc7565b614c176040830184613ae7565b949350505050565b6000614c2a82613cb7565b915063ffffffff8203614c4057614c3f6148da565b5b600182019050919050565b6000614c5682613cb7565b9150614c6183613cb7565b9250828203905063ffffffff811115614c7d57614c7c6148da565b5b92915050565b7f5265656e7472616e637947756172643a207265656e7472616e742063616c6c00600082015250565b6000614cb9601f83614805565b9150614cc482614c83565b602082019050919050565b60006020820190508181036000830152614ce881614cac565b9050919050565b7f4e487b7100000000000000000000000000000000000000000000000000000000600052602260045260246000fd5b60006002820490506001821680614d3657607f821691505b602082108103614d4957614d48614cef565b5b50919050565b60008190508160005260206000209050919050565b60006020601f8301049050919050565b600082821b905092915050565b600060088302614db17fffffffffffffffffffffffffffffffffffffffffffffffffffffffffffffffff82614d74565b614dbb8683614d74565b95508019841693508086168417925050509392505050565b6000614dee614de9614de484613b25565b61430f565b613b25565b9050919050565b6000819050919050565b614e0883614dd3565b614e1c614e1482614df5565b848454614d81565b825550505050565b600090565b614e31614e24565b614e3c818484614dff565b505050565b5b81811015614e6057614e55600082614e29565b600181019050614e42565b5050565b601f821115614ea557614e7681614d4f565b614e7f84614d64565b81016020851015614e8e578190505b614ea2614e9a85614d64565b830182614e41565b50505b505050565b600082821c905092915050565b6000614ec860001984600802614eaa565b1980831691505092915050565b6000614ee18383614eb7565b9150826002028217905092915050565b614efa826144cf565b67ffffffffffffffff811115614f1357614f126140b8565b5b614f1d8254614d1e565b614f28828285614e64565b600060209050601f831160018114614f5b5760008415614f49578287015190505b614f538582614ed5565b865550614fbb565b601f198416614f6986614d4f565b60005b82811015614f9157848901518255600182019150602085019450602081019050614f6c565b86831015614fae5784890151614faa601f891682614eb7565b8355505b6001600288020188555050505b505050505050565b6000614fce82613b25565b9150614fd983613b25565b9250828203905081811115614ff157614ff06148da565b5b92915050565b600081905092915050565b50565b6000615012600083614ff7565b915061501d82615002565b600082019050919050565b600061503382615005565b9150819050919050565b6000819050919050565b600061506261505d6150588461503d565b61430f565b613cb7565b9050919050565b61507281615047565b82525050565b600060208201905061508d6000830184615069565b92915050565b60006060820190506150a86000830186613ae7565b6150b56020830185613ae7565b6150c26040830184613ae7565b949350505050565b60006150d68285614b16565b6020820191506150e68284614b94565b6014820191508190509392505050565b6150ff81613d1d565b82525050565b61510e81613d93565b82525050565b61511d81613cb7565b82525050565b600082825260208201905092915050565b600061513f826144cf565b6151498185615123565b93506151598185602086016144eb565b615162816140a7565b840191505092915050565b600060c08301600083015161518560008601826150f6565b5060208301516151986020860182614700565b5060408301516151ab6040860182615105565b5060608301516151be6060860182615114565b5060808301516151d16080860182615114565b5060a083015184820360a08601526151e98282615134565b9150508091505092915050565b60006020820190508181036000830152615210818461516d565b905092915050565b60008151905061522781613b2f565b92915050565b60006020828403121561524357615242613b1b565b5b600061525184828501615218565b91505092915050565b7f496e76616c696420747265617375727920616464726573730000000000000000600082015250565b6000615290601883614805565b915061529b8261525a565b602082019050919050565b600060208201905081810360008301526152bf81615283565b9050919050565b7f4e487b7100000000000000000000000000000000000000000000000000000000600052601260045260246000fd5b600061530082613b25565b915061530b83613b25565b92508261531b5761531a6152c6565b5b828206905092915050565b600060408201905061533b6000830185613bc8565b6153486020830184613cc7565b9392505050565b600061535a82613cb7565b915061536583613cb7565b9250828201905063ffffffff811115615381576153806148da565b5b92915050565b600060608201905061539c6000830186613ae7565b6153a96020830185613ae7565b6153b66040830184613bc8565b949350505050565b6153c781613f01565b82525050565b6020820160008201516153e360008501826153be565b50505050565b60006020820190506153fe60008301846153cd565b92915050565b7f4f6e6c792063616c6c61626c65206279206f776e657200000000000000000000600082015250565b600061543a601683614805565b915061544582615404565b602082019050919050565b600060208201905081810360008301526154698161542d565b9050919050565b7f43616e6e6f74207472616e7366657220746f2073656c66000000000000000000600082015250565b60006154a6601783614805565b91506154b182615470565b602082019050919050565b600060208201905081810360008301526154d581615499565b9050919050565b6000815190506154eb816141e3565b92915050565b60006020828403121561550757615506613b1b565b5b6000615515848285016154dc565b91505092915050565b7f5361666545524332303a204552433230206f7065726174696f6e20646964206e60008201527f6f74207375636365656400000000000000000000000000000000000000000000602082015250565b600061557a602a83614805565b91506155858261551e565b604082019050919050565b600060208201905081810360008301526155a98161556d565b9050919050565b7f416464726573733a20696e73756666696369656e742062616c616e636520666f60008201527f722063616c6c0000000000000000000000000000000000000000000000000000602082015250565b600061560c602683614805565b9150615617826155b0565b604082019050919050565b6000602082019050818103600083015261563b816155ff565b9050919050565b7f416464726573733a2063616c6c20746f206e6f6e2d636f6e7472616374000000600082015250565b6000615678601d83614805565b915061568382615642565b602082019050919050565b600060208201905081810360008301526156a78161566b565b9050919050565b60006156b9826144cf565b6156c38185614ff7565b93506156d38185602086016144eb565b80840191505092915050565b60006156eb82846156ae565b915081905092915050565b600081519050919050565b600061570c826156f6565b6157168185614805565b93506157268185602086016144eb565b61572f816140a7565b840191505092915050565b600060208201905081810360008301526157548184615701565b90509291505056fea264697066735822122000f6538356ac029593942b225b7df9eabced206fe49791df174d7755f1b6bf7064736f6c63430008130033","linkReferences":{}},"methodIdentifiers":{"acceptOwnership()":"79ba5097","allowParticipants(uint256,address[])":"c5072ca8","callbackGasLimit()":"24f74697","createPot(bytes,address,uint256,uint8,uint256,bool)":"8661ffca","endBatch(uint256[])":"2fd99712","endPot(uint256)":"e0321cd4","getParticipants(uint256)":"c1e3bd3e","getRequests(uint256)":"d5e78829","getRequiredFee(uint8)":"6bc39c94","hasJoinedRound(bytes32)":"7a4f4436","hasWon(bytes32)":"6b7fd007","isAllowed(uint256,address)":"5faa299a","joinOnBehalf(uint256,address)":"9999fea0","joinPot(uint256)":"831d49ef","keyHash()":"61728f39","owner()":"8da5cb5b","participantFee()":"9c031ace","platformFee()":"26232a2e","potCount()":"cf72f230","potluckOwner()":"09c1f8ff","pots(uint256)":"c3c3df4f","rawFulfillRandomWords(uint256,uint256[])":"1fe543e3","requestConfirmations()":"b0fb162f","requestPotAllow(uint256)":"65c7444d","requestToPot(uint256)":"1301cd25","requestToRound(uint256)":"385542f0","requestedParticipants(uint256,uint256)":"61734cd6","s_subscriptionId()":"8ac00021","s_vrfCoordinator()":"9eccacf6","setChainlinkVRF(address,bytes32,uint64,uint16,uint32)":"274ce5ec","setCoordinator(address)":"8ea98117","setFees(uint256,uint256)":"0b78f9c0","setTreasury(address)":"f0f44260","transferOwnership(address)":"f2fde38b","treasury()":"61d027b3","triggerBatchJoinOnBehalf(uint256,address[])":"de1149b3","triggerBatchPayout(uint256[])":"a88390dc","triggerPotPayout(uint256)":"e90c88fe","vrfCoordinator()":"a3e56fa8","withdraw()":"3ccfd60b"},"id":48}