{"abi":[{"type":"constructor","inputs":[{"name":"_platformFee","type":"uint256","internalType":"uint256"},{"name":"_partFee","type":"uint256","internalType":"uint256"},{"name":"_treasury","type":"address","internalType":"address"},{"name":"_vrfCoordinator","type":"address","internalType":"address"}],"stateMutability":"nonpayable"},{"type":"function","name":"acceptOwnership","inputs":[],"outputs":[],"stateMutability":"nonpayable"},{"type":"function","name":"allowParticipants","inputs":[{"name":"potId","type":"uint256","internalType":"uint256"},{"name":"participants","type":"address[]","internalType":"address[]"}],"outputs":[],"stateMutability":"nonpayable"},{"type":"function","name":"allowToken","inputs":[{"name":"token","type":"address","internalType":"address"}],"outputs":[],"stateMutability":"nonpayable"},{"type":"function","name":"allowedTokens","inputs":[{"name":"","type":"address","internalType":"address"}],"outputs":[{"name":"","type":"bool","internalType":"bool"}],"stateMutability":"view"},{"type":"function","name":"callbackGasLimit","inputs":[],"outputs":[{"name":"","type":"uint32","internalType":"uint32"}],"stateMutability":"view"},{"type":"function","name":"createPot","inputs":[{"name":"name","type":"bytes","internalType":"bytes"},{"name":"token","type":"address","internalType":"address"},{"name":"entryAmount","type":"uint256","internalType":"uint256"},{"name":"maxParticipants","type":"uint8","internalType":"uint8"},{"name":"periodSeconds","type":"uint256","internalType":"uint256"},{"name":"isPublic","type":"bool","internalType":"bool"}],"outputs":[],"stateMutability":"payable"},{"type":"function","name":"endBatch","inputs":[{"name":"potIds","type":"uint256[]","internalType":"uint256[]"}],"outputs":[],"stateMutability":"nonpayable"},{"type":"function","name":"endPot","inputs":[{"name":"potId","type":"uint256","internalType":"uint256"}],"outputs":[],"stateMutability":"nonpayable"},{"type":"function","name":"getCreatorFee","inputs":[{"name":"maxParticipants","type":"uint8","internalType":"uint8"}],"outputs":[{"name":"","type":"uint256","internalType":"uint256"}],"stateMutability":"view"},{"type":"function","name":"getParticipantFee","inputs":[{"name":"maxParticipants","type":"uint8","internalType":"uint8"}],"outputs":[{"name":"","type":"uint256","internalType":"uint256"}],"stateMutability":"view"},{"type":"function","name":"getParticipants","inputs":[{"name":"potId","type":"uint256","internalType":"uint256"}],"outputs":[{"name":"","type":"address[]","internalType":"address[]"}],"stateMutability":"view"},{"type":"function","name":"getRequests","inputs":[{"name":"potId","type":"uint256","internalType":"uint256"}],"outputs":[{"name":"","type":"tuple[]","internalType":"struct Potluck.PotRequest[]","components":[{"name":"requestor","type":"address","internalType":"address"},{"name":"timestamp","type":"uint256","internalType":"uint256"},{"name":"status","type":"uint8","internalType":"enum Potluck.RequestStatus"}]}],"stateMutability":"view"},{"type":"function","name":"hasJoinedRound","inputs":[{"name":"","type":"bytes32","internalType":"bytes32"}],"outputs":[{"name":"","type":"bool","internalType":"bool"}],"stateMutability":"view"},{"type":"function","name":"hasWon","inputs":[{"name":"","type":"bytes32","internalType":"bytes32"}],"outputs":[{"name":"","type":"bool","internalType":"bool"}],"stateMutability":"view"},{"type":"function","name":"isAllowed","inputs":[{"name":"","type":"uint256","internalType":"uint256"},{"name":"","type":"address","internalType":"address"}],"outputs":[{"name":"","type":"bool","internalType":"bool"}],"stateMutability":"view"},{"type":"function","name":"joinOnBehalf","inputs":[{"name":"potId","type":"uint256","internalType":"uint256"},{"name":"participant","type":"address","internalType":"address"}],"outputs":[],"stateMutability":"nonpayable"},{"type":"function","name":"joinPot","inputs":[{"name":"potId","type":"uint256","internalType":"uint256"}],"outputs":[],"stateMutability":"payable"},{"type":"function","name":"keyHash","inputs":[],"outputs":[{"name":"","type":"bytes32","internalType":"bytes32"}],"stateMutability":"view"},{"type":"function","name":"owner","inputs":[],"outputs":[{"name":"","type":"address","internalType":"address"}],"stateMutability":"view"},{"type":"function","name":"participantFee","inputs":[],"outputs":[{"name":"","type":"uint256","internalType":"uint256"}],"stateMutability":"view"},{"type":"function","name":"platformFee","inputs":[],"outputs":[{"name":"","type":"uint256","internalType":"uint256"}],"stateMutability":"view"},{"type":"function","name":"potCount","inputs":[],"outputs":[{"name":"","type":"uint256","internalType":"uint256"}],"stateMutability":"view"},{"type":"function","name":"potluckOwner","inputs":[],"outputs":[{"name":"","type":"address","internalType":"address"}],"stateMutability":"view"},{"type":"function","name":"pots","inputs":[{"name":"","type":"uint256","internalType":"uint256"}],"outputs":[{"name":"id","type":"uint256","internalType":"uint256"},{"name":"creator","type":"address","internalType":"address"},{"name":"name","type":"bytes","internalType":"bytes"},{"name":"round","type":"uint32","internalType":"uint32"},{"name":"deadline","type":"uint256","internalType":"uint256"},{"name":"balance","type":"uint256","internalType":"uint256"},{"name":"token","type":"address","internalType":"address"},{"name":"entryAmount","type":"uint256","internalType":"uint256"},{"name":"period","type":"uint256","internalType":"uint256"},{"name":"totalParticipants","type":"uint8","internalType":"uint8"},{"name":"maxParticipants","type":"uint8","internalType":"uint8"},{"name":"isPublic","type":"bool","internalType":"bool"}],"stateMutability":"view"},{"type":"function","name":"rawFulfillRandomWords","inputs":[{"name":"requestId","type":"uint256","internalType":"uint256"},{"name":"randomWords","type":"uint256[]","internalType":"uint256[]"}],"outputs":[],"stateMutability":"nonpayable"},{"type":"function","name":"requestConfirmations","inputs":[],"outputs":[{"name":"","type":"uint16","internalType":"uint16"}],"stateMutability":"view"},{"type":"function","name":"requestPotAllow","inputs":[{"name":"potId","type":"uint256","internalType":"uint256"}],"outputs":[],"stateMutability":"nonpayable"},{"type":"function","name":"requestToPot","inputs":[{"name":"","type":"uint256","internalType":"uint256"}],"outputs":[{"name":"","type":"uint256","internalType":"uint256"}],"stateMutability":"view"},{"type":"function","name":"requestToRound","inputs":[{"name":"","type":"uint256","internalType":"uint256"}],"outputs":[{"name":"","type":"uint32","internalType":"uint32"}],"stateMutability":"view"},{"type":"function","name":"requestedParticipants","inputs":[{"name":"","type":"uint256","internalType":"uint256"},{"name":"","type":"uint256","internalType":"uint256"}],"outputs":[{"name":"requestor","type":"address","internalType":"address"},{"name":"timestamp","type":"uint256","internalType":"uint256"},{"name":"status","type":"uint8","internalType":"enum Potluck.RequestStatus"}],"stateMutability":"view"},{"type":"function","name":"s_subscriptionId","inputs":[],"outputs":[{"name":"","type":"uint256","internalType":"uint256"}],"stateMutability":"view"},{"type":"function","name":"s_vrfCoordinator","inputs":[],"outputs":[{"name":"","type":"address","internalType":"contract IVRFCoordinatorV2Plus"}],"stateMutability":"view"},{"type":"function","name":"setChainlinkVRF","inputs":[{"name":"_keyHash","type":"bytes32","internalType":"bytes32"},{"name":"_subscriptionId","type":"uint256","internalType":"uint256"},{"name":"_requestConfirmations","type":"uint16","internalType":"uint16"},{"name":"_callbackGasLimit","type":"uint32","internalType":"uint32"}],"outputs":[],"stateMutability":"nonpayable"},{"type":"function","name":"setChainlinkVRF","inputs":[{"name":"_vrfCoordinator","type":"address","internalType":"address"}],"outputs":[],"stateMutability":"nonpayable"},{"type":"function","name":"setCoordinator","inputs":[{"name":"_vrfCoordinator","type":"address","internalType":"address"}],"outputs":[],"stateMutability":"nonpayable"},{"type":"function","name":"setFees","inputs":[{"name":"_flatFee","type":"uint256","internalType":"uint256"},{"name":"_perPartFee","type":"uint256","internalType":"uint256"}],"outputs":[],"stateMutability":"nonpayable"},{"type":"function","name":"setTreasury","inputs":[{"name":"newTreasury","type":"address","internalType":"address"}],"outputs":[],"stateMutability":"nonpayable"},{"type":"function","name":"transferOwnership","inputs":[{"name":"to","type":"address","internalType":"address"}],"outputs":[],"stateMutability":"nonpayable"},{"type":"function","name":"treasury","inputs":[],"outputs":[{"name":"","type":"address","internalType":"address"}],"stateMutability":"view"},{"type":"function","name":"triggerBatchJoinOnBehalf","inputs":[{"name":"potId","type":"uint256","internalType":"uint256"},{"name":"participants","type":"address[]","internalType":"address[]"}],"outputs":[],"stateMutability":"nonpayable"},{"type":"function","name":"triggerBatchPayout","inputs":[{"name":"potIds","type":"uint256[]","internalType":"uint256[]"}],"outputs":[],"stateMutability":"nonpayable"},{"type":"function","name":"triggerPotPayout","inputs":[{"name":"potId","type":"uint256","internalType":"uint256"}],"outputs":[],"stateMutability":"nonpayable"},{"type":"function","name":"vrfCoordinator","inputs":[],"outputs":[{"name":"","type":"address","internalType":"contract VRFCoordinatorV2_5"}],"stateMutability":"view"},{"type":"function","name":"withdraw","inputs":[],"outputs":[],"stateMutability":"nonpayable"},{"type":"function","name":"withdraw","inputs":[{"name":"token","type":"address","internalType":"address"},{"name":"amount","type":"uint256","internalType":"uint256"}],"outputs":[],"stateMutability":"nonpayable"},{"type":"function","name":"withdrawBatch","inputs":[{"name":"tokens","type":"address[]","internalType":"address[]"},{"name":"amounts","type":"uint256[]","internalType":"uint256[]"}],"outputs":[],"stateMutability":"nonpayable"},{"type":"function","name":"withdrawalBalances","inputs":[{"name":"","type":"address","internalType":"address"},{"name":"","type":"address","internalType":"address"}],"outputs":[{"name":"","type":"uint256","internalType":"uint256"}],"stateMutability":"view"},{"type":"event","name":"AllowedParticipantAdded","inputs":[{"name":"potId","type":"uint256","indexed":true,"internalType":"uint256"},{"name":"user","type":"address","indexed":true,"internalType":"address"}],"anonymous":false},{"type":"event","name":"CoordinatorSet","inputs":[{"name":"vrfCoordinator","type":"address","indexed":false,"internalType":"address"}],"anonymous":false},{"type":"event","name":"OwnershipTransferRequested","inputs":[{"name":"from","type":"address","indexed":true,"internalType":"address"},{"name":"to","type":"address","indexed":true,"internalType":"address"}],"anonymous":false},{"type":"event","name":"OwnershipTransferred","inputs":[{"name":"from","type":"address","indexed":true,"internalType":"address"},{"name":"to","type":"address","indexed":true,"internalType":"address"}],"anonymous":false},{"type":"event","name":"PotAllowRequested","inputs":[{"name":"potId","type":"uint256","indexed":true,"internalType":"uint256"},{"name":"requestor","type":"address","indexed":true,"internalType":"address"}],"anonymous":false},{"type":"event","name":"PotCreated","inputs":[{"name":"potId","type":"uint256","indexed":true,"internalType":"uint256"},{"name":"creator","type":"address","indexed":true,"internalType":"address"}],"anonymous":false},{"type":"event","name":"PotEnded","inputs":[{"name":"potId","type":"uint256","indexed":true,"internalType":"uint256"}],"anonymous":false},{"type":"event","name":"PotJoined","inputs":[{"name":"potId","type":"uint256","indexed":true,"internalType":"uint256"},{"name":"roundId","type":"uint32","indexed":false,"internalType":"uint32"},{"name":"user","type":"address","indexed":true,"internalType":"address"}],"anonymous":false},{"type":"event","name":"PotPayout","inputs":[{"name":"potId","type":"uint256","indexed":true,"internalType":"uint256"},{"name":"winner","type":"address","indexed":true,"internalType":"address"},{"name":"amount","type":"uint256","indexed":false,"internalType":"uint256"},{"name":"round","type":"uint32","indexed":false,"internalType":"uint32"}],"anonymous":false},{"type":"error","name":"AlreadyJoined","inputs":[{"name":"potId","type":"uint256","internalType":"uint256"},{"name":"round","type":"uint32","internalType":"uint32"},{"name":"user","type":"address","internalType":"address"}]},{"type":"error","name":"EntryAmountZero","inputs":[]},{"type":"error","name":"InsufficientFundsForAutoJoin","inputs":[{"name":"sent","type":"uint256","internalType":"uint256"},{"name":"required","type":"uint256","internalType":"uint256"}]},{"type":"error","name":"InsufficientFundsToRollover","inputs":[{"name":"total","type":"uint256","internalType":"uint256"},{"name":"rollover","type":"uint256","internalType":"uint256"}]},{"type":"error","name":"NoEligibleParticipants","inputs":[]},{"type":"error","name":"NotAllParticipantsWon","inputs":[{"name":"potId","type":"uint256","internalType":"uint256"}]},{"type":"error","name":"NotAllowed","inputs":[{"name":"user","type":"address","internalType":"address"},{"name":"potId","type":"uint256","internalType":"uint256"}]},{"type":"error","name":"NotPotCreator","inputs":[{"name":"sender","type":"address","internalType":"address"},{"name":"potId","type":"uint256","internalType":"uint256"}]},{"type":"error","name":"OnlyCoordinatorCanFulfill","inputs":[{"name":"have","type":"address","internalType":"address"},{"name":"want","type":"address","internalType":"address"}]},{"type":"error","name":"OnlyOwnerOrCoordinator","inputs":[{"name":"have","type":"address","internalType":"address"},{"name":"owner","type":"address","internalType":"address"},{"name":"coordinator","type":"address","internalType":"address"}]},{"type":"error","name":"PeriodTooShort","inputs":[]},{"type":"error","name":"PotDoesNotExist","inputs":[{"name":"potId","type":"uint256","internalType":"uint256"}]},{"type":"error","name":"PotFull","inputs":[{"name":"maxParticipants","type":"uint8","internalType":"uint8"}]},{"type":"error","name":"RoundEnded","inputs":[{"name":"deadline","type":"uint256","internalType":"uint256"},{"name":"nowTimestamp","type":"uint256","internalType":"uint256"}]},{"type":"error","name":"RoundNotReady","inputs":[{"name":"deadline","type":"uint256","internalType":"uint256"},{"name":"nowTimestamp","type":"uint256","internalType":"uint256"}]},{"type":"error","name":"TokenNotAllowed","inputs":[{"name":"token","type":"address","internalType":"address"}]},{"type":"error","name":"ZeroAddress","inputs":[]}],"bytecode":{"object":"0x60806040523480156200001157600080fd5b506040516200698c3803806200698c83398181016040528101906200003791906200049b565b80338060006001600081905550600073ffffffffffffffffffffffffffffffffffffffff168273ffffffffffffffffffffffffffffffffffffffff1603620000b6576040517f08c379a0000000000000000000000000000000000000000000000000000000008152600401620000ad906200056e565b60405180910390fd5b81600160006101000a81548173ffffffffffffffffffffffffffffffffffffffff021916908373ffffffffffffffffffffffffffffffffffffffff160217905550600073ffffffffffffffffffffffffffffffffffffffff168173ffffffffffffffffffffffffffffffffffffffff16146200013e576200013d81620002c560201b60201c565b5b505050600073ffffffffffffffffffffffffffffffffffffffff168173ffffffffffffffffffffffffffffffffffffffff1603620001a8576040517fd92e233d00000000000000000000000000000000000000000000000000000000815260040160405180910390fd5b80600360006101000a81548173ffffffffffffffffffffffffffffffffffffffff021916908373ffffffffffffffffffffffffffffffffffffffff160217905550508360058190555081600760006101000a81548173ffffffffffffffffffffffffffffffffffffffff021916908373ffffffffffffffffffffffffffffffffffffffff1602179055508260068190555033600860006101000a81548173ffffffffffffffffffffffffffffffffffffffff021916908373ffffffffffffffffffffffffffffffffffffffff16021790555080600960006101000a81548173ffffffffffffffffffffffffffffffffffffffff021916908373ffffffffffffffffffffffffffffffffffffffff1602179055505050505062000602565b3373ffffffffffffffffffffffffffffffffffffffff168173ffffffffffffffffffffffffffffffffffffffff160362000336576040517f08c379a00000000000000000000000000000000000000000000000000000000081526004016200032d90620005e0565b60405180910390fd5b80600260006101000a81548173ffffffffffffffffffffffffffffffffffffffff021916908373ffffffffffffffffffffffffffffffffffffffff1602179055508073ffffffffffffffffffffffffffffffffffffffff16600160009054906101000a900473ffffffffffffffffffffffffffffffffffffffff1673ffffffffffffffffffffffffffffffffffffffff167fed8889f560326eb138920d842192f0eb3dd22b4f139c87a2c57538e05bae127860405160405180910390a350565b600080fd5b6000819050919050565b6200041081620003fb565b81146200041c57600080fd5b50565b600081519050620004308162000405565b92915050565b600073ffffffffffffffffffffffffffffffffffffffff82169050919050565b6000620004638262000436565b9050919050565b620004758162000456565b81146200048157600080fd5b50565b60008151905062000495816200046a565b92915050565b60008060008060808587031215620004b857620004b7620003f6565b5b6000620004c8878288016200041f565b9450506020620004db878288016200041f565b9350506040620004ee8782880162000484565b9250506060620005018782880162000484565b91505092959194509250565b600082825260208201905092915050565b7f43616e6e6f7420736574206f776e657220746f207a65726f0000000000000000600082015250565b6000620005566018836200050d565b915062000563826200051e565b602082019050919050565b60006020820190508181036000830152620005898162000547565b9050919050565b7f43616e6e6f74207472616e7366657220746f2073656c66000000000000000000600082015250565b6000620005c86017836200050d565b9150620005d58262000590565b602082019050919050565b60006020820190508181036000830152620005fb81620005b9565b9050919050565b61637a80620006126000396000f3fe6080604052600436106102885760003560e01c80638ea981171161015a578063cb94aa26116100c1578063e744092e1161007a578063e744092e146109f5578063e90c88fe14610a32578063f0f4426014610a5b578063f2fde38b14610a84578063f39c5d5114610aad578063f3fef3a314610ad657610288565b8063cb94aa26146108d5578063cf72f230146108fe578063d1abb12a14610929578063d5e7882914610966578063de1149b3146109a3578063e0321cd4146109cc57610288565b8063a88390dc11610113578063a88390dc146107aa578063b0fb162f146107d3578063b53472ef146107fe578063c1e3bd3e14610827578063c3c3df4f14610864578063c5072ca8146108ac57610288565b80638ea981171461069a578063908fe934146106c35780639999fea0146107005780639c031ace146107295780639eccacf614610754578063a3e56fa81461077f57610288565b80635faa299a116101fe57806379ba5097116101b757806379ba5097146105b85780637a4f4436146105cf578063831d49ef1461060c5780638661ffca146106285780638ac00021146106445780638da5cb5b1461066f57610288565b80635faa299a1461048057806361728f39146104bd57806361734cd6146104e857806361d027b31461052757806365c7444d146105525780636b7fd0071461057b57610288565b806324f746971161025057806324f746971461038457806326232a2e146103af5780632fd99712146103da578063385542f0146104035780633bb2261d146104405780633ccfd60b1461046957610288565b806309c1f8ff1461028d5780630b78f9c0146102b85780631301cd25146102e157806313f2cef91461031e5780631fe543e31461035b575b600080fd5b34801561029957600080fd5b506102a2610aff565b6040516102af9190614479565b60405180910390f35b3480156102c457600080fd5b506102df60048036038101906102da91906144de565b610b25565b005b3480156102ed57600080fd5b506103086004803603810190610303919061451e565b610bc7565b604051610315919061455a565b60405180910390f35b34801561032a57600080fd5b50610345600480360381019061034091906145ae565b610bdf565b604051610352919061455a565b60405180910390f35b34801561036757600080fd5b50610382600480360381019061037d9190614640565b610c11565b005b34801561039057600080fd5b50610399610cd7565b6040516103a691906146bf565b60405180910390f35b3480156103bb57600080fd5b506103c4610ced565b6040516103d1919061455a565b60405180910390f35b3480156103e657600080fd5b5061040160048036038101906103fc91906146da565b610cf3565b005b34801561040f57600080fd5b5061042a6004803603810190610425919061451e565b610d3b565b60405161043791906146bf565b60405180910390f35b34801561044c57600080fd5b50610467600480360381019061046291906147c3565b610d5e565b005b34801561047557600080fd5b5061047e610e40565b005b34801561048c57600080fd5b506104a760048036038101906104a29190614856565b610f84565b6040516104b491906148b1565b60405180910390f35b3480156104c957600080fd5b506104d2610fb3565b6040516104df91906148db565b60405180910390f35b3480156104f457600080fd5b5061050f600480360381019061050a91906144de565b610fb9565b60405161051e9392919061496d565b60405180910390f35b34801561053357600080fd5b5061053c61102d565b6040516105499190614479565b60405180910390f35b34801561055e57600080fd5b506105796004803603810190610574919061451e565b611053565b005b34801561058757600080fd5b506105a2600480360381019061059d91906149a4565b61119d565b6040516105af91906148b1565b60405180910390f35b3480156105c457600080fd5b506105cd6111bd565b005b3480156105db57600080fd5b506105f660048036038101906105f191906149a4565b611354565b60405161060391906148b1565b60405180910390f35b6106266004803603810190610621919061451e565b611374565b005b610642600480360381019061063d9190614b3e565b611a53565b005b34801561065057600080fd5b50610659612040565b604051610666919061455a565b60405180910390f35b34801561067b57600080fd5b50610684612046565b6040516106919190614479565b60405180910390f35b3480156106a657600080fd5b506106c160048036038101906106bc9190614be7565b612070565b005b3480156106cf57600080fd5b506106ea60048036038101906106e59190614c14565b612251565b6040516106f7919061455a565b60405180910390f35b34801561070c57600080fd5b5061072760048036038101906107229190614856565b612276565b005b34801561073557600080fd5b5061073e612772565b60405161074b919061455a565b60405180910390f35b34801561076057600080fd5b50610769612778565b6040516107769190614cb3565b60405180910390f35b34801561078b57600080fd5b5061079461279e565b6040516107a19190614cef565b60405180910390f35b3480156107b657600080fd5b506107d160048036038101906107cc91906146da565b6127c4565b005b3480156107df57600080fd5b506107e861280c565b6040516107f59190614d19565b60405180910390f35b34801561080a57600080fd5b5061082560048036038101906108209190614be7565b612820565b005b34801561083357600080fd5b5061084e6004803603810190610849919061451e565b61297a565b60405161085b9190614df2565b60405180910390f35b34801561087057600080fd5b5061088b6004803603810190610886919061451e565b612a1e565b6040516108a39c9b9a99989796959493929190614ea2565b60405180910390f35b3480156108b857600080fd5b506108d360048036038101906108ce9190614fb9565b612b7d565b005b3480156108e157600080fd5b506108fc60048036038101906108f79190615019565b612d8f565b005b34801561090a57600080fd5b50610913612e49565b604051610920919061455a565b60405180910390f35b34801561093557600080fd5b50610950600480360381019061094b91906145ae565b612e4f565b60405161095d919061455a565b60405180910390f35b34801561097257600080fd5b5061098d6004803603810190610988919061451e565b612e8e565b60405161099a91906151a9565b60405180910390f35b3480156109af57600080fd5b506109ca60048036038101906109c59190614fb9565b612f9b565b005b3480156109d857600080fd5b506109f360048036038101906109ee919061451e565b612ff3565b005b348015610a0157600080fd5b50610a1c6004803603810190610a179190614be7565b6132fa565b604051610a2991906148b1565b60405180910390f35b348015610a3e57600080fd5b50610a596004803603810190610a54919061451e565b61331a565b005b348015610a6757600080fd5b50610a826004803603810190610a7d9190614be7565b61354a565b005b348015610a9057600080fd5b50610aab6004803603810190610aa69190614be7565b61368d565b005b348015610ab957600080fd5b50610ad46004803603810190610acf9190614be7565b6136a1565b005b348015610ae257600080fd5b50610afd6004803603810190610af891906151cb565b6137e4565b005b600860009054906101000a900473ffffffffffffffffffffffffffffffffffffffff1681565b600860009054906101000a900473ffffffffffffffffffffffffffffffffffffffff1673ffffffffffffffffffffffffffffffffffffffff163373ffffffffffffffffffffffffffffffffffffffff1614610bb5576040517f08c379a0000000000000000000000000000000000000000000000000000000008152600401610bac90615268565b60405180910390fd5b81600581905550806006819055505050565b60146020528060005260406000206000915090505481565b60008060008360ff1614610bf35782610bf6565b60ff5b60ff16905080600654610c0991906152b7565b915050919050565b600360009054906101000a900473ffffffffffffffffffffffffffffffffffffffff1673ffffffffffffffffffffffffffffffffffffffff163373ffffffffffffffffffffffffffffffffffffffff1614610cc75733600360009054906101000a900473ffffffffffffffffffffffffffffffffffffffff166040517f1cf993f4000000000000000000000000000000000000000000000000000000008152600401610cbe9291906152f9565b60405180910390fd5b610cd28383836139ba565b505050565b600c60029054906101000a900463ffffffff1681565b60055481565b60005b82829050811015610d3657610d23838383818110610d1757610d16615322565b5b90506020020135612ff3565b8080610d2e90615351565b915050610cf6565b505050565b60156020528060005260406000206000915054906101000a900463ffffffff1681565b600860009054906101000a900473ffffffffffffffffffffffffffffffffffffffff1673ffffffffffffffffffffffffffffffffffffffff163373ffffffffffffffffffffffffffffffffffffffff1614610dee576040517f08c379a0000000000000000000000000000000000000000000000000000000008152600401610de590615268565b60405180910390fd5b83600a8190555082600b8190555081600c60006101000a81548161ffff021916908361ffff16021790555080600c60026101000a81548163ffffffff021916908363ffffffff16021790555050505050565b600860009054906101000a900473ffffffffffffffffffffffffffffffffffffffff1673ffffffffffffffffffffffffffffffffffffffff163373ffffffffffffffffffffffffffffffffffffffff1614610ed0576040517f08c379a0000000000000000000000000000000000000000000000000000000008152600401610ec790615268565b60405180910390fd5b600047905060008111610f18576040517f08c379a0000000000000000000000000000000000000000000000000000000008152600401610f0f906153e5565b60405180910390fd5b600760009054906101000a900473ffffffffffffffffffffffffffffffffffffffff1673ffffffffffffffffffffffffffffffffffffffff166108fc829081150290604051600060405180830381858888f19350505050158015610f80573d6000803e3d6000fd5b5050565b60116020528160005260406000206020528060005260406000206000915091509054906101000a900460ff1681565b600a5481565b60126020528160005260406000208181548110610fd557600080fd5b9060005260206000209060030201600091509150508060000160009054906101000a900473ffffffffffffffffffffffffffffffffffffffff16908060010154908060020160009054906101000a900460ff16905083565b600760009054906101000a900473ffffffffffffffffffffffffffffffffffffffff1681565b6012600082815260200190815260200160002060405180606001604052803373ffffffffffffffffffffffffffffffffffffffff168152602001428152602001600060028111156110a7576110a66148f6565b5b815250908060018154018082558091505060019003906000526020600020906003020160009091909190915060008201518160000160006101000a81548173ffffffffffffffffffffffffffffffffffffffff021916908373ffffffffffffffffffffffffffffffffffffffff1602179055506020820151816001015560408201518160020160006101000a81548160ff0219169083600281111561114f5761114e6148f6565b5b021790555050503373ffffffffffffffffffffffffffffffffffffffff16817f14a1608330df21406b2c36c4c92e47f22c9abd31d9df75abc4af2bdb477469bb60405160405180910390a350565b600f6020528060005260406000206000915054906101000a900460ff1681565b600260009054906101000a900473ffffffffffffffffffffffffffffffffffffffff1673ffffffffffffffffffffffffffffffffffffffff163373ffffffffffffffffffffffffffffffffffffffff161461124d576040517f08c379a000000000000000000000000000000000000000000000000000000000815260040161124490615451565b60405180910390fd5b6000600160009054906101000a900473ffffffffffffffffffffffffffffffffffffffff16905033600160006101000a81548173ffffffffffffffffffffffffffffffffffffffff021916908373ffffffffffffffffffffffffffffffffffffffff1602179055506000600260006101000a81548173ffffffffffffffffffffffffffffffffffffffff021916908373ffffffffffffffffffffffffffffffffffffffff1602179055503373ffffffffffffffffffffffffffffffffffffffff168173ffffffffffffffffffffffffffffffffffffffff167f8be0079c531659141344cd1fd0a4f28419497f9722a3daafe3b4186f6b6457e060405160405180910390a350565b600e6020528060005260406000206000915054906101000a900460ff1681565b6002600054036113b9576040517f08c379a00000000000000000000000000000000000000000000000000000000081526004016113b0906154bd565b60405180910390fd5b60026000819055506000600d60008381526020019081526020016000209050600081600501540361142157816040517f017e57a1000000000000000000000000000000000000000000000000000000008152600401611418919061455a565b60405180910390fd5b8060040154421061146f578060040154426040517f8868888c0000000000000000000000000000000000000000000000000000000081526004016114669291906154dd565b60405180910390fd5b8060090160019054906101000a900460ff1660ff1681600a0180549050101580156114af575060008160090160019054906101000a900460ff1660ff1614155b15611502578060090160019054906101000a900460ff166040517f969559d50000000000000000000000000000000000000000000000000000000081526004016114f99190615506565b60405180910390fd5b6011600083815260200190815260200160002060003373ffffffffffffffffffffffffffffffffffffffff1673ffffffffffffffffffffffffffffffffffffffff16815260200190815260200160002060009054906101000a900460ff1615801561157c575080600b0160009054906101000a900460ff16155b156115c05733826040517f8626cc030000000000000000000000000000000000000000000000000000000081526004016115b7929190615521565b60405180910390fd5b6000828260030160009054906101000a900463ffffffff16336040516020016115eb939291906155e9565b604051602081830303815290604052805190602001209050600e600082815260200190815260200160002060009054906101000a900460ff161561167e57828260030160009054906101000a900463ffffffff16336040517f0beb1aac00000000000000000000000000000000000000000000000000000000815260040161167593929190615626565b60405180910390fd5b60008260030160009054906101000a900463ffffffff1663ffffffff160361182f5781600901600081819054906101000a900460ff16809291906116c19061565d565b91906101000a81548160ff021916908360ff1602179055505060006116f68360090160019054906101000a900460ff16610bdf565b90508034101561173f5734816040517f155fd4670000000000000000000000000000000000000000000000000000000081526004016117369291906154dd565b60405180910390fd5b600760009054906101000a900473ffffffffffffffffffffffffffffffffffffffff1673ffffffffffffffffffffffffffffffffffffffff166108fc829081150290604051600060405180830381858888f193505050501580156117a7573d6000803e3d6000fd5b50803411156118295760003373ffffffffffffffffffffffffffffffffffffffff1682346117d59190615686565b6040516117e1906156eb565b60006040518083038185875af1925050503d806000811461181e576040519150601f19603f3d011682016040523d82523d6000602084013e611823565b606091505b50509050505b506118de565b600e60008460018560030160009054906101000a900463ffffffff166118559190615700565b33604051602001611868939291906155e9565b60405160208183030381529060405280519060200120815260200190815260200160002060009054906101000a900460ff166118dd5733836040517f8626cc030000000000000000000000000000000000000000000000000000000081526004016118d4929190615521565b60405180910390fd5b5b611933333084600701548560060160009054906101000a900473ffffffffffffffffffffffffffffffffffffffff1673ffffffffffffffffffffffffffffffffffffffff16613e16909392919063ffffffff16565b816007015482600501600082825461194b9190615738565b9250508190555081600a01339080600181540180825580915050600190039060005260206000200160009091909190916101000a81548173ffffffffffffffffffffffffffffffffffffffff021916908373ffffffffffffffffffffffffffffffffffffffff1602179055506001600e600083815260200190815260200160002060006101000a81548160ff0219169083151502179055503373ffffffffffffffffffffffffffffffffffffffff16837f672d3f5897f7a8042cd8c8557caf58ece26929a410c3b1a66a34ccfd3460fcde8460030160009054906101000a900463ffffffff16604051611a3e91906146bf565b60405180910390a35050600160008190555050565b600260005403611a98576040517f08c379a0000000000000000000000000000000000000000000000000000000008152600401611a8f906154bd565b60405180910390fd5b600260008190555060008403611ada576040517f172bb87f00000000000000000000000000000000000000000000000000000000815260040160405180910390fd5b610e10821015611b16576040517f9306857800000000000000000000000000000000000000000000000000000000815260040160405180910390fd5b601060008673ffffffffffffffffffffffffffffffffffffffff1673ffffffffffffffffffffffffffffffffffffffff16815260200190815260200160002060009054906101000a900460ff16611ba457846040517f94403b70000000000000000000000000000000000000000000000000000000008152600401611b9b9190614479565b60405180910390fd5b600060046000815480929190611bb990615351565b9190505590506000600d60008381526020019081526020016000209050818160000181905550338160010160006101000a81548173ffffffffffffffffffffffffffffffffffffffff021916908373ffffffffffffffffffffffffffffffffffffffff16021790555087816002019081611c33919061596e565b50868160060160006101000a81548173ffffffffffffffffffffffffffffffffffffffff021916908373ffffffffffffffffffffffffffffffffffffffff16021790555085816007018190555083816008018190555060018160090160006101000a81548160ff021916908360ff1602179055508342611cb39190615738565b816004018190555085816005018190555080600a01339080600181540180825580915050600190039060005260206000200160009091909190916101000a81548173ffffffffffffffffffffffffffffffffffffffff021916908373ffffffffffffffffffffffffffffffffffffffff1602179055508281600b0160006101000a81548160ff021916908315150217905550848160090160016101000a81548160ff021916908360ff16021790555082611dd15760016011600084815260200190815260200160002060003373ffffffffffffffffffffffffffffffffffffffff1673ffffffffffffffffffffffffffffffffffffffff16815260200190815260200160002060006101000a81548160ff0219169083151502179055505b600082600033604051602001611de9939291906155e9565b6040516020818303038152906040528051906020012090506001600e600083815260200190815260200160002060006101000a81548160ff021916908315150217905550611e5a3330898b73ffffffffffffffffffffffffffffffffffffffff16613e16909392919063ffffffff16565b6000611e6587612e4f565b905080341015611eae5734816040517f155fd467000000000000000000000000000000000000000000000000000000008152600401611ea59291906154dd565b60405180910390fd5b600760009054906101000a900473ffffffffffffffffffffffffffffffffffffffff1673ffffffffffffffffffffffffffffffffffffffff166108fc829081150290604051600060405180830381858888f19350505050158015611f16573d6000803e3d6000fd5b5080341115611f985760003373ffffffffffffffffffffffffffffffffffffffff168234611f449190615686565b604051611f50906156eb565b60006040518083038185875af1925050503d8060008114611f8d576040519150601f19603f3d011682016040523d82523d6000602084013e611f92565b606091505b50509050505b3373ffffffffffffffffffffffffffffffffffffffff16847fde307469e0906e8d7a6e84aec39b533cfe12dd01b2737a0f785511261337231760405160405180910390a33373ffffffffffffffffffffffffffffffffffffffff16847f672d3f5897f7a8042cd8c8557caf58ece26929a410c3b1a66a34ccfd3460fcde60006040516120249190615a7b565b60405180910390a3505050506001600081905550505050505050565b600b5481565b6000600160009054906101000a900473ffffffffffffffffffffffffffffffffffffffff16905090565b612078612046565b73ffffffffffffffffffffffffffffffffffffffff163373ffffffffffffffffffffffffffffffffffffffff16141580156121015750600360009054906101000a900473ffffffffffffffffffffffffffffffffffffffff1673ffffffffffffffffffffffffffffffffffffffff163373ffffffffffffffffffffffffffffffffffffffff1614155b15612170573361210f612046565b600360009054906101000a900473ffffffffffffffffffffffffffffffffffffffff166040517f061db9c100000000000000000000000000000000000000000000000000000000815260040161216793929190615a96565b60405180910390fd5b600073ffffffffffffffffffffffffffffffffffffffff168173ffffffffffffffffffffffffffffffffffffffff16036121d6576040517fd92e233d00000000000000000000000000000000000000000000000000000000815260040160405180910390fd5b80600360006101000a81548173ffffffffffffffffffffffffffffffffffffffff021916908373ffffffffffffffffffffffffffffffffffffffff1602179055507fd1a6a14209a385a964d036e404cb5cfb71f4000cdb03c9366292430787261be6816040516122469190614479565b60405180910390a150565b6013602052816000526040600020602052806000526040600020600091509150505481565b6002600054036122bb576040517f08c379a00000000000000000000000000000000000000000000000000000000081526004016122b2906154bd565b60405180910390fd5b60026000819055506000600d60008481526020019081526020016000209050600081600501540361232357826040517f017e57a100000000000000000000000000000000000000000000000000000000815260040161231a919061455a565b60405180910390fd5b80600401544210612371578060040154426040517f8868888c0000000000000000000000000000000000000000000000000000000081526004016123689291906154dd565b60405180910390fd5b6011600084815260200190815260200160002060008373ffffffffffffffffffffffffffffffffffffffff1673ffffffffffffffffffffffffffffffffffffffff16815260200190815260200160002060009054906101000a900460ff161580156123eb575080600b0160009054906101000a900460ff16155b1561242f5781836040517f8626cc03000000000000000000000000000000000000000000000000000000008152600401612426929190615521565b60405180910390fd5b60008160030160009054906101000a900463ffffffff1663ffffffff16036124905733836040517f8626cc03000000000000000000000000000000000000000000000000000000008152600401612487929190615521565b60405180910390fd5b600e60008460018460030160009054906101000a900463ffffffff166124b69190615700565b856040516020016124c9939291906155e9565b60405160208183030381529060405280519060200120815260200190815260200160002060009054906101000a900460ff1661253e5781836040517f8626cc03000000000000000000000000000000000000000000000000000000008152600401612535929190615521565b60405180910390fd5b6000838260030160009054906101000a900463ffffffff1684604051602001612569939291906155e9565b604051602081830303815290604052805190602001209050600e600082815260200190815260200160002060009054906101000a900460ff16156125fc57838260030160009054906101000a900463ffffffff16846040517f0beb1aac0000000000000000000000000000000000000000000000000000000081526004016125f393929190615626565b60405180910390fd5b81600701548260050160008282546126149190615738565b9250508190555081600a01839080600181540180825580915050600190039060005260206000200160009091909190916101000a81548173ffffffffffffffffffffffffffffffffffffffff021916908373ffffffffffffffffffffffffffffffffffffffff1602179055506001600e600083815260200190815260200160002060006101000a81548160ff021916908315150217905550612701833084600701548560060160009054906101000a900473ffffffffffffffffffffffffffffffffffffffff1673ffffffffffffffffffffffffffffffffffffffff16613e16909392919063ffffffff16565b8273ffffffffffffffffffffffffffffffffffffffff16847f672d3f5897f7a8042cd8c8557caf58ece26929a410c3b1a66a34ccfd3460fcde8460030160009054906101000a900463ffffffff1660405161275c91906146bf565b60405180910390a3505060016000819055505050565b60065481565b600360009054906101000a900473ffffffffffffffffffffffffffffffffffffffff1681565b600960009054906101000a900473ffffffffffffffffffffffffffffffffffffffff1681565b60005b82829050811015612807576127f48383838181106127e8576127e7615322565b5b9050602002013561331a565b80806127ff90615351565b9150506127c7565b505050565b600c60009054906101000a900461ffff1681565b600860009054906101000a900473ffffffffffffffffffffffffffffffffffffffff1673ffffffffffffffffffffffffffffffffffffffff163373ffffffffffffffffffffffffffffffffffffffff16146128b0576040517f08c379a00000000000000000000000000000000000000000000000000000000081526004016128a790615268565b60405180910390fd5b600073ffffffffffffffffffffffffffffffffffffffff168173ffffffffffffffffffffffffffffffffffffffff160361291f576040517f08c379a000000000000000000000000000000000000000000000000000000000815260040161291690615b19565b60405180910390fd5b6001601060008373ffffffffffffffffffffffffffffffffffffffff1673ffffffffffffffffffffffffffffffffffffffff16815260200190815260200160002060006101000a81548160ff02191690831515021790555050565b6060600d6000838152602001908152602001600020600a01805480602002602001604051908101604052809291908181526020018280548015612a1257602002820191906000526020600020905b8160009054906101000a900473ffffffffffffffffffffffffffffffffffffffff1673ffffffffffffffffffffffffffffffffffffffff16815260200190600101908083116129c8575b50505050509050919050565b600d6020528060005260406000206000915090508060000154908060010160009054906101000a900473ffffffffffffffffffffffffffffffffffffffff1690806002018054612a6d9061579b565b80601f0160208091040260200160405190810160405280929190818152602001828054612a999061579b565b8015612ae65780601f10612abb57610100808354040283529160200191612ae6565b820191906000526020600020905b815481529060010190602001808311612ac957829003601f168201915b5050505050908060030160009054906101000a900463ffffffff16908060040154908060050154908060060160009054906101000a900473ffffffffffffffffffffffffffffffffffffffff16908060070154908060080154908060090160009054906101000a900460ff16908060090160019054906101000a900460ff169080600b0160009054906101000a900460ff1690508c565b6000600d600085815260200190815260200160002090508060010160009054906101000a900473ffffffffffffffffffffffffffffffffffffffff1673ffffffffffffffffffffffffffffffffffffffff163373ffffffffffffffffffffffffffffffffffffffff1614612c2a5733846040517f3872341e000000000000000000000000000000000000000000000000000000008152600401612c21929190615521565b60405180910390fd5b60005b83839050811015612d88576000848483818110612c4d57612c4c615322565b5b9050602002016020810190612c629190614be7565b90506011600087815260200190815260200160002060008273ffffffffffffffffffffffffffffffffffffffff1673ffffffffffffffffffffffffffffffffffffffff16815260200190815260200160002060009054906101000a900460ff16612d745760016011600088815260200190815260200160002060008373ffffffffffffffffffffffffffffffffffffffff1673ffffffffffffffffffffffffffffffffffffffff16815260200190815260200160002060006101000a81548160ff0219169083151502179055508073ffffffffffffffffffffffffffffffffffffffff16867f1a93957e2514306f9c62a03c9d38f41d87e9192c4bff4ba40eb834d92c6c728060405160405180910390a35b508080612d8090615351565b915050612c2d565b5050505050565b818190508484905014612dd7576040517f08c379a0000000000000000000000000000000000000000000000000000000008152600401612dce90615b85565b60405180910390fd5b60005b82829050811015612e4257612e2f858583818110612dfb57612dfa615322565b5b9050602002016020810190612e109190614be7565b848484818110612e2357612e22615322565b5b905060200201356137e4565b8080612e3a90615351565b915050612dda565b5050505050565b60045481565b60008060008360ff1614612e635782612e66565b60ff5b60ff16905080600654612e7991906152b7565b600554612e869190615738565b915050919050565b606060126000838152602001908152602001600020805480602002602001604051908101604052809291908181526020016000905b82821015612f9057838290600052602060002090600302016040518060600160405290816000820160009054906101000a900473ffffffffffffffffffffffffffffffffffffffff1673ffffffffffffffffffffffffffffffffffffffff1673ffffffffffffffffffffffffffffffffffffffff168152602001600182015481526020016002820160009054906101000a900460ff166002811115612f6b57612f6a6148f6565b5b6002811115612f7d57612f7c6148f6565b5b8152505081526020019060010190612ec3565b505050509050919050565b60005b82829050811015612fed57612fda84848484818110612fc057612fbf615322565b5b9050602002016020810190612fd59190614be7565b612276565b8080612fe590615351565b915050612f9e565b50505050565b6000600d60008381526020019081526020016000209050600081600501540361305357816040517f017e57a100000000000000000000000000000000000000000000000000000000815260040161304a919061455a565b60405180910390fd5b80600401544210156130a2578060040154426040517f3bd404330000000000000000000000000000000000000000000000000000000081526004016130999291906154dd565b60405180910390fd5b60005b81600a018054905081101561319157600f60008484600a0184815481106130cf576130ce615322565b5b9060005260206000200160009054906101000a900473ffffffffffffffffffffffffffffffffffffffff1660405160200161310b929190615ba5565b60405160208183030381529060405280519060200120815260200190815260200160002060009054906101000a900460ff1661317e57826040517fd2471cf8000000000000000000000000000000000000000000000000000000008152600401613175919061455a565b60405180910390fd5b808061318990615351565b9150506130a5565b506000816005018190555060008160060160009054906101000a900473ffffffffffffffffffffffffffffffffffffffff16905060008260070154905060005b83600a01805490508110156132c657816013600086600a0184815481106131fb576131fa615322565b5b9060005260206000200160009054906101000a900473ffffffffffffffffffffffffffffffffffffffff1673ffffffffffffffffffffffffffffffffffffffff1673ffffffffffffffffffffffffffffffffffffffff16815260200190815260200160002060008573ffffffffffffffffffffffffffffffffffffffff1673ffffffffffffffffffffffffffffffffffffffff16815260200190815260200160002060008282546132ac9190615738565b9250508190555080806132be90615351565b9150506131d1565b50837f09f73e7c1cfe948731316069115856105587fb9681d754a0037165a8a8cfe1f760405160405180910390a250505050565b60106020528060005260406000206000915054906101000a900460ff1681565b6000600d60008381526020019081526020016000209050600081600501540361337a57816040517f017e57a1000000000000000000000000000000000000000000000000000000008152600401613371919061455a565b60405180910390fd5b80600401544210156133c9578060040154426040517f3bd404330000000000000000000000000000000000000000000000000000000081526004016133c09291906154dd565b60405180910390fd5b6000600960009054906101000a900473ffffffffffffffffffffffffffffffffffffffff1673ffffffffffffffffffffffffffffffffffffffff16639b1c385e6040518060c00160405280600a548152602001600b548152602001600c60009054906101000a900461ffff1661ffff168152602001600c60029054906101000a900463ffffffff1663ffffffff168152602001600163ffffffff168152602001613483604051806020016040528060011515815250613e9f565b8152506040518263ffffffff1660e01b81526004016134a29190615cd1565b6020604051808303816000875af11580156134c1573d6000803e3d6000fd5b505050506040513d601f19601f820116820180604052508101906134e59190615d08565b90508260146000838152602001908152602001600020819055508160030160009054906101000a900463ffffffff166015600083815260200190815260200160002060006101000a81548163ffffffff021916908363ffffffff160217905550505050565b600860009054906101000a900473ffffffffffffffffffffffffffffffffffffffff1673ffffffffffffffffffffffffffffffffffffffff163373ffffffffffffffffffffffffffffffffffffffff16146135da576040517f08c379a00000000000000000000000000000000000000000000000000000000081526004016135d190615268565b60405180910390fd5b600073ffffffffffffffffffffffffffffffffffffffff168173ffffffffffffffffffffffffffffffffffffffff1603613649576040517f08c379a000000000000000000000000000000000000000000000000000000000815260040161364090615d81565b60405180910390fd5b80600760006101000a81548173ffffffffffffffffffffffffffffffffffffffff021916908373ffffffffffffffffffffffffffffffffffffffff16021790555050565b613695613f37565b61369e81613fc9565b50565b600860009054906101000a900473ffffffffffffffffffffffffffffffffffffffff1673ffffffffffffffffffffffffffffffffffffffff163373ffffffffffffffffffffffffffffffffffffffff1614613731576040517f08c379a000000000000000000000000000000000000000000000000000000000815260040161372890615268565b60405180910390fd5b600073ffffffffffffffffffffffffffffffffffffffff168173ffffffffffffffffffffffffffffffffffffffff16036137a0576040517f08c379a000000000000000000000000000000000000000000000000000000000815260040161379790615ded565b60405180910390fd5b80600960006101000a81548173ffffffffffffffffffffffffffffffffffffffff021916908373ffffffffffffffffffffffffffffffffffffffff16021790555050565b600260005403613829576040517f08c379a0000000000000000000000000000000000000000000000000000000008152600401613820906154bd565b60405180910390fd5b600260008190555080601360003373ffffffffffffffffffffffffffffffffffffffff1673ffffffffffffffffffffffffffffffffffffffff16815260200190815260200160002060008473ffffffffffffffffffffffffffffffffffffffff1673ffffffffffffffffffffffffffffffffffffffff1681526020019081526020016000205410156138f0576040517f08c379a00000000000000000000000000000000000000000000000000000000081526004016138e790615e59565b60405180910390fd5b80601360003373ffffffffffffffffffffffffffffffffffffffff1673ffffffffffffffffffffffffffffffffffffffff16815260200190815260200160002060008473ffffffffffffffffffffffffffffffffffffffff1673ffffffffffffffffffffffffffffffffffffffff168152602001908152602001600020600082825461397c9190615686565b925050819055506139ae33828473ffffffffffffffffffffffffffffffffffffffff166140f79092919063ffffffff16565b60016000819055505050565b60006014600085815260200190815260200160002054905060006015600086815260200190815260200160002060009054906101000a900463ffffffff1690506000600d60008481526020019081526020016000209050600081600a0180549050905060008187876000818110613a3457613a33615322565b5b90506020020135613a459190615ea8565b9050600083600a018281548110613a5f57613a5e615322565b5b9060005260206000200160009054906101000a900473ffffffffffffffffffffffffffffffffffffffff1690506001600f60008884604051602001613aa5929190615ba5565b60405160208183030381529060405280519060200120815260200190815260200160002060006101000a81548160ff021916908315150217905550600060018560090160009054906101000a900460ff16613b009190615ed9565b60ff168663ffffffff1614613b19578460070154613b1c565b60005b90506000818660050154613b309190615686565b90508273ffffffffffffffffffffffffffffffffffffffff16887fc2518a56896ff30efc4b0de222d91241ad29d5e347b5dc1465e1f28bbc6c4ac2838a604051613b7b929190615f0e565b60405180910390a380601360008573ffffffffffffffffffffffffffffffffffffffff1673ffffffffffffffffffffffffffffffffffffffff16815260200190815260200160002060008860060160009054906101000a900473ffffffffffffffffffffffffffffffffffffffff1673ffffffffffffffffffffffffffffffffffffffff1673ffffffffffffffffffffffffffffffffffffffff1681526020019081526020016000206000828254613c339190615738565b9250508190555060018660090160009054906101000a900460ff16613c589190615ed9565b60ff168763ffffffff1603613c765760008660050181905550613e09565b600187613c839190615f37565b8660030160006101000a81548163ffffffff021916908363ffffffff16021790555081866005018190555085600a016000613cbe91906143fa565b85600a01839080600181540180825580915050600190039060005260206000200160009091909190916101000a81548173ffffffffffffffffffffffffffffffffffffffff021916908373ffffffffffffffffffffffffffffffffffffffff1602179055506001600e60008a8960030160009054906101000a900463ffffffff1687604051602001613d52939291906155e9565b60405160208183030381529060405280519060200120815260200190815260200160002060006101000a81548160ff0219169083151502179055508273ffffffffffffffffffffffffffffffffffffffff16887f672d3f5897f7a8042cd8c8557caf58ece26929a410c3b1a66a34ccfd3460fcde8860030160009054906101000a900463ffffffff16604051613de891906146bf565b60405180910390a3856008015442613e009190615738565b86600401819055505b5050505050505050505050565b613e99846323b872dd60e01b858585604051602401613e3793929190615f6f565b604051602081830303815290604052907bffffffffffffffffffffffffffffffffffffffffffffffffffffffff19166020820180517bffffffffffffffffffffffffffffffffffffffffffffffffffffffff838183161783525050505061417d565b50505050565b60607f92fd13387c7fe7befbc38d303d6468778fb9731bc4583f17d92989c6fcfdeaaa82604051602401613ed39190615fd1565b604051602081830303815290604052907bffffffffffffffffffffffffffffffffffffffffffffffffffffffff19166020820180517bffffffffffffffffffffffffffffffffffffffffffffffffffffffff83818316178352505050509050919050565b600160009054906101000a900473ffffffffffffffffffffffffffffffffffffffff1673ffffffffffffffffffffffffffffffffffffffff163373ffffffffffffffffffffffffffffffffffffffff1614613fc7576040517f08c379a0000000000000000000000000000000000000000000000000000000008152600401613fbe90616038565b60405180910390fd5b565b3373ffffffffffffffffffffffffffffffffffffffff168173ffffffffffffffffffffffffffffffffffffffff1603614037576040517f08c379a000000000000000000000000000000000000000000000000000000000815260040161402e906160a4565b60405180910390fd5b80600260006101000a81548173ffffffffffffffffffffffffffffffffffffffff021916908373ffffffffffffffffffffffffffffffffffffffff1602179055508073ffffffffffffffffffffffffffffffffffffffff16600160009054906101000a900473ffffffffffffffffffffffffffffffffffffffff1673ffffffffffffffffffffffffffffffffffffffff167fed8889f560326eb138920d842192f0eb3dd22b4f139c87a2c57538e05bae127860405160405180910390a350565b6141788363a9059cbb60e01b8484604051602401614116929190615521565b604051602081830303815290604052907bffffffffffffffffffffffffffffffffffffffffffffffffffffffff19166020820180517bffffffffffffffffffffffffffffffffffffffffffffffffffffffff838183161783525050505061417d565b505050565b60006141df826040518060400160405280602081526020017f5361666545524332303a206c6f772d6c6576656c2063616c6c206661696c65648152508573ffffffffffffffffffffffffffffffffffffffff166142449092919063ffffffff16565b905060008151111561423f57808060200190518101906141ff91906160d9565b61423e576040517f08c379a000000000000000000000000000000000000000000000000000000000815260040161423590616178565b60405180910390fd5b5b505050565b6060614253848460008561425c565b90509392505050565b6060824710156142a1576040517f08c379a00000000000000000000000000000000000000000000000000000000081526004016142989061620a565b60405180910390fd5b6142aa85614370565b6142e9576040517f08c379a00000000000000000000000000000000000000000000000000000000081526004016142e090616276565b60405180910390fd5b6000808673ffffffffffffffffffffffffffffffffffffffff16858760405161431291906162c7565b60006040518083038185875af1925050503d806000811461434f576040519150601f19603f3d011682016040523d82523d6000602084013e614354565b606091505b5091509150614364828286614393565b92505050949350505050565b6000808273ffffffffffffffffffffffffffffffffffffffff163b119050919050565b606083156143a3578290506143f3565b6000835111156143b65782518084602001fd5b816040517f08c379a00000000000000000000000000000000000000000000000000000000081526004016143ea9190616322565b60405180910390fd5b9392505050565b5080546000825590600052602060002090810190614418919061441b565b50565b5b8082111561443457600081600090555060010161441c565b5090565b600073ffffffffffffffffffffffffffffffffffffffff82169050919050565b600061446382614438565b9050919050565b61447381614458565b82525050565b600060208201905061448e600083018461446a565b92915050565b6000604051905090565b600080fd5b600080fd5b6000819050919050565b6144bb816144a8565b81146144c657600080fd5b50565b6000813590506144d8816144b2565b92915050565b600080604083850312156144f5576144f461449e565b5b6000614503858286016144c9565b9250506020614514858286016144c9565b9150509250929050565b6000602082840312156145345761453361449e565b5b6000614542848285016144c9565b91505092915050565b614554816144a8565b82525050565b600060208201905061456f600083018461454b565b92915050565b600060ff82169050919050565b61458b81614575565b811461459657600080fd5b50565b6000813590506145a881614582565b92915050565b6000602082840312156145c4576145c361449e565b5b60006145d284828501614599565b91505092915050565b600080fd5b600080fd5b600080fd5b60008083601f840112614600576145ff6145db565b5b8235905067ffffffffffffffff81111561461d5761461c6145e0565b5b602083019150836020820283011115614639576146386145e5565b5b9250929050565b6000806000604084860312156146595761465861449e565b5b6000614667868287016144c9565b935050602084013567ffffffffffffffff811115614688576146876144a3565b5b614694868287016145ea565b92509250509250925092565b600063ffffffff82169050919050565b6146b9816146a0565b82525050565b60006020820190506146d460008301846146b0565b92915050565b600080602083850312156146f1576146f061449e565b5b600083013567ffffffffffffffff81111561470f5761470e6144a3565b5b61471b858286016145ea565b92509250509250929050565b6000819050919050565b61473a81614727565b811461474557600080fd5b50565b60008135905061475781614731565b92915050565b600061ffff82169050919050565b6147748161475d565b811461477f57600080fd5b50565b6000813590506147918161476b565b92915050565b6147a0816146a0565b81146147ab57600080fd5b50565b6000813590506147bd81614797565b92915050565b600080600080608085870312156147dd576147dc61449e565b5b60006147eb87828801614748565b94505060206147fc878288016144c9565b935050604061480d87828801614782565b925050606061481e878288016147ae565b91505092959194509250565b61483381614458565b811461483e57600080fd5b50565b6000813590506148508161482a565b92915050565b6000806040838503121561486d5761486c61449e565b5b600061487b858286016144c9565b925050602061488c85828601614841565b9150509250929050565b60008115159050919050565b6148ab81614896565b82525050565b60006020820190506148c660008301846148a2565b92915050565b6148d581614727565b82525050565b60006020820190506148f060008301846148cc565b92915050565b7f4e487b7100000000000000000000000000000000000000000000000000000000600052602160045260246000fd5b60038110614936576149356148f6565b5b50565b600081905061494782614925565b919050565b600061495782614939565b9050919050565b6149678161494c565b82525050565b6000606082019050614982600083018661446a565b61498f602083018561454b565b61499c604083018461495e565b949350505050565b6000602082840312156149ba576149b961449e565b5b60006149c884828501614748565b91505092915050565b600080fd5b6000601f19601f8301169050919050565b7f4e487b7100000000000000000000000000000000000000000000000000000000600052604160045260246000fd5b614a1f826149d6565b810181811067ffffffffffffffff82111715614a3e57614a3d6149e7565b5b80604052505050565b6000614a51614494565b9050614a5d8282614a16565b919050565b600067ffffffffffffffff821115614a7d57614a7c6149e7565b5b614a86826149d6565b9050602081019050919050565b82818337600083830152505050565b6000614ab5614ab084614a62565b614a47565b905082815260208101848484011115614ad157614ad06149d1565b5b614adc848285614a93565b509392505050565b600082601f830112614af957614af86145db565b5b8135614b09848260208601614aa2565b91505092915050565b614b1b81614896565b8114614b2657600080fd5b50565b600081359050614b3881614b12565b92915050565b60008060008060008060c08789031215614b5b57614b5a61449e565b5b600087013567ffffffffffffffff811115614b7957614b786144a3565b5b614b8589828a01614ae4565b9650506020614b9689828a01614841565b9550506040614ba789828a016144c9565b9450506060614bb889828a01614599565b9350506080614bc989828a016144c9565b92505060a0614bda89828a01614b29565b9150509295509295509295565b600060208284031215614bfd57614bfc61449e565b5b6000614c0b84828501614841565b91505092915050565b60008060408385031215614c2b57614c2a61449e565b5b6000614c3985828601614841565b9250506020614c4a85828601614841565b9150509250929050565b6000819050919050565b6000614c79614c74614c6f84614438565b614c54565b614438565b9050919050565b6000614c8b82614c5e565b9050919050565b6000614c9d82614c80565b9050919050565b614cad81614c92565b82525050565b6000602082019050614cc86000830184614ca4565b92915050565b6000614cd982614c80565b9050919050565b614ce981614cce565b82525050565b6000602082019050614d046000830184614ce0565b92915050565b614d138161475d565b82525050565b6000602082019050614d2e6000830184614d0a565b92915050565b600081519050919050565b600082825260208201905092915050565b6000819050602082019050919050565b614d6981614458565b82525050565b6000614d7b8383614d60565b60208301905092915050565b6000602082019050919050565b6000614d9f82614d34565b614da98185614d3f565b9350614db483614d50565b8060005b83811015614de5578151614dcc8882614d6f565b9750614dd783614d87565b925050600181019050614db8565b5085935050505092915050565b60006020820190508181036000830152614e0c8184614d94565b905092915050565b600081519050919050565b600082825260208201905092915050565b60005b83811015614e4e578082015181840152602081019050614e33565b60008484015250505050565b6000614e6582614e14565b614e6f8185614e1f565b9350614e7f818560208601614e30565b614e88816149d6565b840191505092915050565b614e9c81614575565b82525050565b600061018082019050614eb8600083018f61454b565b614ec5602083018e61446a565b8181036040830152614ed7818d614e5a565b9050614ee6606083018c6146b0565b614ef3608083018b61454b565b614f0060a083018a61454b565b614f0d60c083018961446a565b614f1a60e083018861454b565b614f2861010083018761454b565b614f36610120830186614e93565b614f44610140830185614e93565b614f526101608301846148a2565b9d9c50505050505050505050505050565b60008083601f840112614f7957614f786145db565b5b8235905067ffffffffffffffff811115614f9657614f956145e0565b5b602083019150836020820283011115614fb257614fb16145e5565b5b9250929050565b600080600060408486031215614fd257614fd161449e565b5b6000614fe0868287016144c9565b935050602084013567ffffffffffffffff811115615001576150006144a3565b5b61500d86828701614f63565b92509250509250925092565b600080600080604085870312156150335761503261449e565b5b600085013567ffffffffffffffff811115615051576150506144a3565b5b61505d87828801614f63565b9450945050602085013567ffffffffffffffff8111156150805761507f6144a3565b5b61508c878288016145ea565b925092505092959194509250565b600081519050919050565b600082825260208201905092915050565b6000819050602082019050919050565b6150cf816144a8565b82525050565b6150de8161494c565b82525050565b6060820160008201516150fa6000850182614d60565b50602082015161510d60208501826150c6565b50604082015161512060408501826150d5565b50505050565b600061513283836150e4565b60608301905092915050565b6000602082019050919050565b60006151568261509a565b61516081856150a5565b935061516b836150b6565b8060005b8381101561519c5781516151838882615126565b975061518e8361513e565b92505060018101905061516f565b5085935050505092915050565b600060208201905081810360008301526151c3818461514b565b905092915050565b600080604083850312156151e2576151e161449e565b5b60006151f085828601614841565b9250506020615201858286016144c9565b9150509250929050565b600082825260208201905092915050565b7f4e6f742074686520706f746c75636b206f776e65720000000000000000000000600082015250565b600061525260158361520b565b915061525d8261521c565b602082019050919050565b6000602082019050818103600083015261528181615245565b9050919050565b7f4e487b7100000000000000000000000000000000000000000000000000000000600052601160045260246000fd5b60006152c2826144a8565b91506152cd836144a8565b92508282026152db816144a8565b915082820484148315176152f2576152f1615288565b5b5092915050565b600060408201905061530e600083018561446a565b61531b602083018461446a565b9392505050565b7f4e487b7100000000000000000000000000000000000000000000000000000000600052603260045260246000fd5b600061535c826144a8565b91507fffffffffffffffffffffffffffffffffffffffffffffffffffffffffffffffff820361538e5761538d615288565b5b600182019050919050565b7f4e6f2062616c616e636520746f20776974686472617700000000000000000000600082015250565b60006153cf60168361520b565b91506153da82615399565b602082019050919050565b600060208201905081810360008301526153fe816153c2565b9050919050565b7f4d7573742062652070726f706f736564206f776e657200000000000000000000600082015250565b600061543b60168361520b565b915061544682615405565b602082019050919050565b6000602082019050818103600083015261546a8161542e565b9050919050565b7f5265656e7472616e637947756172643a207265656e7472616e742063616c6c00600082015250565b60006154a7601f8361520b565b91506154b282615471565b602082019050919050565b600060208201905081810360008301526154d68161549a565b9050919050565b60006040820190506154f2600083018561454b565b6154ff602083018461454b565b9392505050565b600060208201905061551b6000830184614e93565b92915050565b6000604082019050615536600083018561446a565b615543602083018461454b565b9392505050565b6000819050919050565b615565615560826144a8565b61554a565b82525050565b60008160e01b9050919050565b60006155838261556b565b9050919050565b61559b615596826146a0565b615578565b82525050565b60008160601b9050919050565b60006155b9826155a1565b9050919050565b60006155cb826155ae565b9050919050565b6155e36155de82614458565b6155c0565b82525050565b60006155f58286615554565b602082019150615605828561558a565b60048201915061561582846155d2565b601482019150819050949350505050565b600060608201905061563b600083018661454b565b61564860208301856146b0565b615655604083018461446a565b949350505050565b600061566882614575565b915060ff820361567b5761567a615288565b5b600182019050919050565b6000615691826144a8565b915061569c836144a8565b92508282039050818111156156b4576156b3615288565b5b92915050565b600081905092915050565b50565b60006156d56000836156ba565b91506156e0826156c5565b600082019050919050565b60006156f6826156c8565b9150819050919050565b600061570b826146a0565b9150615716836146a0565b9250828203905063ffffffff81111561573257615731615288565b5b92915050565b6000615743826144a8565b915061574e836144a8565b925082820190508082111561576657615765615288565b5b92915050565b7f4e487b7100000000000000000000000000000000000000000000000000000000600052602260045260246000fd5b600060028204905060018216806157b357607f821691505b6020821081036157c6576157c561576c565b5b50919050565b60008190508160005260206000209050919050565b60006020601f8301049050919050565b600082821b905092915050565b60006008830261582e7fffffffffffffffffffffffffffffffffffffffffffffffffffffffffffffffff826157f1565b61583886836157f1565b95508019841693508086168417925050509392505050565b600061586b615866615861846144a8565b614c54565b6144a8565b9050919050565b6000819050919050565b61588583615850565b61589961589182615872565b8484546157fe565b825550505050565b600090565b6158ae6158a1565b6158b981848461587c565b505050565b5b818110156158dd576158d26000826158a6565b6001810190506158bf565b5050565b601f821115615922576158f3816157cc565b6158fc846157e1565b8101602085101561590b578190505b61591f615917856157e1565b8301826158be565b50505b505050565b600082821c905092915050565b600061594560001984600802615927565b1980831691505092915050565b600061595e8383615934565b9150826002028217905092915050565b61597782614e14565b67ffffffffffffffff8111156159905761598f6149e7565b5b61599a825461579b565b6159a58282856158e1565b600060209050601f8311600181146159d857600084156159c6578287015190505b6159d08582615952565b865550615a38565b601f1984166159e6866157cc565b60005b82811015615a0e578489015182556001820191506020850194506020810190506159e9565b86831015615a2b5784890151615a27601f891682615934565b8355505b6001600288020188555050505b505050505050565b6000819050919050565b6000615a65615a60615a5b84615a40565b614c54565b6146a0565b9050919050565b615a7581615a4a565b82525050565b6000602082019050615a906000830184615a6c565b92915050565b6000606082019050615aab600083018661446a565b615ab8602083018561446a565b615ac5604083018461446a565b949350505050565b7f496e76616c696420746f6b656e20616464726573730000000000000000000000600082015250565b6000615b0360158361520b565b9150615b0e82615acd565b602082019050919050565b60006020820190508181036000830152615b3281615af6565b9050919050565b7f4d69736d61746368656420617272617973000000000000000000000000000000600082015250565b6000615b6f60118361520b565b9150615b7a82615b39565b602082019050919050565b60006020820190508181036000830152615b9e81615b62565b9050919050565b6000615bb18285615554565b602082019150615bc182846155d2565b6014820191508190509392505050565b615bda81614727565b82525050565b615be98161475d565b82525050565b615bf8816146a0565b82525050565b600082825260208201905092915050565b6000615c1a82614e14565b615c248185615bfe565b9350615c34818560208601614e30565b615c3d816149d6565b840191505092915050565b600060c083016000830151615c606000860182615bd1565b506020830151615c7360208601826150c6565b506040830151615c866040860182615be0565b506060830151615c996060860182615bef565b506080830151615cac6080860182615bef565b5060a083015184820360a0860152615cc48282615c0f565b9150508091505092915050565b60006020820190508181036000830152615ceb8184615c48565b905092915050565b600081519050615d02816144b2565b92915050565b600060208284031215615d1e57615d1d61449e565b5b6000615d2c84828501615cf3565b91505092915050565b7f496e76616c696420747265617375727920616464726573730000000000000000600082015250565b6000615d6b60188361520b565b9150615d7682615d35565b602082019050919050565b60006020820190508181036000830152615d9a81615d5e565b9050919050565b7f496e76616c69642056524620436f6f7264696e61746f72206164647265737300600082015250565b6000615dd7601f8361520b565b9150615de282615da1565b602082019050919050565b60006020820190508181036000830152615e0681615dca565b9050919050565b7f496e73756666696369656e742062616c616e6365000000000000000000000000600082015250565b6000615e4360148361520b565b9150615e4e82615e0d565b602082019050919050565b60006020820190508181036000830152615e7281615e36565b9050919050565b7f4e487b7100000000000000000000000000000000000000000000000000000000600052601260045260246000fd5b6000615eb3826144a8565b9150615ebe836144a8565b925082615ece57615ecd615e79565b5b828206905092915050565b6000615ee482614575565b9150615eef83614575565b9250828203905060ff811115615f0857615f07615288565b5b92915050565b6000604082019050615f23600083018561454b565b615f3060208301846146b0565b9392505050565b6000615f42826146a0565b9150615f4d836146a0565b9250828201905063ffffffff811115615f6957615f68615288565b5b92915050565b6000606082019050615f84600083018661446a565b615f91602083018561446a565b615f9e604083018461454b565b949350505050565b615faf81614896565b82525050565b602082016000820151615fcb6000850182615fa6565b50505050565b6000602082019050615fe66000830184615fb5565b92915050565b7f4f6e6c792063616c6c61626c65206279206f776e657200000000000000000000600082015250565b600061602260168361520b565b915061602d82615fec565b602082019050919050565b6000602082019050818103600083015261605181616015565b9050919050565b7f43616e6e6f74207472616e7366657220746f2073656c66000000000000000000600082015250565b600061608e60178361520b565b915061609982616058565b602082019050919050565b600060208201905081810360008301526160bd81616081565b9050919050565b6000815190506160d381614b12565b92915050565b6000602082840312156160ef576160ee61449e565b5b60006160fd848285016160c4565b91505092915050565b7f5361666545524332303a204552433230206f7065726174696f6e20646964206e60008201527f6f74207375636365656400000000000000000000000000000000000000000000602082015250565b6000616162602a8361520b565b915061616d82616106565b604082019050919050565b6000602082019050818103600083015261619181616155565b9050919050565b7f416464726573733a20696e73756666696369656e742062616c616e636520666f60008201527f722063616c6c0000000000000000000000000000000000000000000000000000602082015250565b60006161f460268361520b565b91506161ff82616198565b604082019050919050565b60006020820190508181036000830152616223816161e7565b9050919050565b7f416464726573733a2063616c6c20746f206e6f6e2d636f6e7472616374000000600082015250565b6000616260601d8361520b565b915061626b8261622a565b602082019050919050565b6000602082019050818103600083015261628f81616253565b9050919050565b60006162a182614e14565b6162ab81856156ba565b93506162bb818560208601614e30565b80840191505092915050565b60006162d38284616296565b915081905092915050565b600081519050919050565b60006162f4826162de565b6162fe818561520b565b935061630e818560208601614e30565b616317816149d6565b840191505092915050565b6000602082019050818103600083015261633c81846162e9565b90509291505056fea2646970667358221220325a6adb46db2eb192e97bebcf7503c5295f37d807b26db065b4e9bce5eccc3464736f6c63430008130033","linkReferences":{}},"methodIdentifiers":{"acceptOwnership()":"79ba5097","allowParticipants(uint256,address[])":"c5072ca8","allowToken(address)":"b53472ef","allowedTokens(address)":"e744092e","callbackGasLimit()":"24f74697","createPot(bytes,address,uint256,uint8,uint256,bool)":"8661ffca","endBatch(uint256[])":"2fd99712","endPot(uint256)":"e0321cd4","getCreatorFee(uint8)":"d1abb12a","getParticipantFee(uint8)":"13f2cef9","getParticipants(uint256)":"c1e3bd3e","getRequests(uint256)":"d5e78829","hasJoinedRound(bytes32)":"7a4f4436","hasWon(bytes32)":"6b7fd007","isAllowed(uint256,address)":"5faa299a","joinOnBehalf(uint256,address)":"9999fea0","joinPot(uint256)":"831d49ef","keyHash()":"61728f39","owner()":"8da5cb5b","participantFee()":"9c031ace","platformFee()":"26232a2e","potCount()":"cf72f230","potluckOwner()":"09c1f8ff","pots(uint256)":"c3c3df4f","rawFulfillRandomWords(uint256,uint256[])":"1fe543e3","requestConfirmations()":"b0fb162f","requestPotAllow(uint256)":"65c7444d","requestToPot(uint256)":"1301cd25","requestToRound(uint256)":"385542f0","requestedParticipants(uint256,uint256)":"61734cd6","s_subscriptionId()":"8ac00021","s_vrfCoordinator()":"9eccacf6","setChainlinkVRF(address)":"f39c5d51","setChainlinkVRF(bytes32,uint256,uint16,uint32)":"3bb2261d","setCoordinator(address)":"8ea98117","setFees(uint256,uint256)":"0b78f9c0","setTreasury(address)":"f0f44260","transferOwnership(address)":"f2fde38b","treasury()":"61d027b3","triggerBatchJoinOnBehalf(uint256,address[])":"de1149b3","triggerBatchPayout(uint256[])":"a88390dc","triggerPotPayout(uint256)":"e90c88fe","vrfCoordinator()":"a3e56fa8","withdraw()":"3ccfd60b","withdraw(address,uint256)":"f3fef3a3","withdrawBatch(address[],uint256[])":"cb94aa26","withdrawalBalances(address,address)":"908fe934"},"id":48}