{"abi":[{"type":"constructor","inputs":[{"name":"_platformFee","type":"uint256","internalType":"uint256"},{"name":"_partFee","type":"uint256","internalType":"uint256"},{"name":"_treasury","type":"address","internalType":"address"},{"name":"_vrfCoordinator","type":"address","internalType":"address"}],"stateMutability":"nonpayable"},{"type":"function","name":"acceptOwnership","inputs":[],"outputs":[],"stateMutability":"nonpayable"},{"type":"function","name":"allowParticipants","inputs":[{"name":"potId","type":"uint256","internalType":"uint256"},{"name":"participants","type":"address[]","internalType":"address[]"}],"outputs":[],"stateMutability":"nonpayable"},{"type":"function","name":"callbackGasLimit","inputs":[],"outputs":[{"name":"","type":"uint32","internalType":"uint32"}],"stateMutability":"view"},{"type":"function","name":"createPot","inputs":[{"name":"name","type":"bytes","internalType":"bytes"},{"name":"token","type":"address","internalType":"address"},{"name":"entryAmount","type":"uint256","internalType":"uint256"},{"name":"maxParticipants","type":"uint8","internalType":"uint8"},{"name":"periodSeconds","type":"uint256","internalType":"uint256"},{"name":"isPublic","type":"bool","internalType":"bool"}],"outputs":[],"stateMutability":"payable"},{"type":"function","name":"endBatch","inputs":[{"name":"potIds","type":"uint256[]","internalType":"uint256[]"}],"outputs":[],"stateMutability":"nonpayable"},{"type":"function","name":"endPot","inputs":[{"name":"potId","type":"uint256","internalType":"uint256"}],"outputs":[],"stateMutability":"nonpayable"},{"type":"function","name":"getCreatorFee","inputs":[{"name":"maxParticipants","type":"uint8","internalType":"uint8"}],"outputs":[{"name":"","type":"uint256","internalType":"uint256"}],"stateMutability":"view"},{"type":"function","name":"getParticipantFee","inputs":[{"name":"maxParticipants","type":"uint8","internalType":"uint8"}],"outputs":[{"name":"","type":"uint256","internalType":"uint256"}],"stateMutability":"view"},{"type":"function","name":"getParticipants","inputs":[{"name":"potId","type":"uint256","internalType":"uint256"}],"outputs":[{"name":"","type":"address[]","internalType":"address[]"}],"stateMutability":"view"},{"type":"function","name":"getRequests","inputs":[{"name":"potId","type":"uint256","internalType":"uint256"}],"outputs":[{"name":"","type":"tuple[]","internalType":"struct Potluck.PotRequest[]","components":[{"name":"requestor","type":"address","internalType":"address"},{"name":"timestamp","type":"uint256","internalType":"uint256"},{"name":"status","type":"uint8","internalType":"enum Potluck.RequestStatus"}]}],"stateMutability":"view"},{"type":"function","name":"hasJoinedRound","inputs":[{"name":"","type":"bytes32","internalType":"bytes32"}],"outputs":[{"name":"","type":"bool","internalType":"bool"}],"stateMutability":"view"},{"type":"function","name":"hasWon","inputs":[{"name":"","type":"bytes32","internalType":"bytes32"}],"outputs":[{"name":"","type":"bool","internalType":"bool"}],"stateMutability":"view"},{"type":"function","name":"isAllowed","inputs":[{"name":"","type":"uint256","internalType":"uint256"},{"name":"","type":"address","internalType":"address"}],"outputs":[{"name":"","type":"bool","internalType":"bool"}],"stateMutability":"view"},{"type":"function","name":"joinOnBehalf","inputs":[{"name":"potId","type":"uint256","internalType":"uint256"},{"name":"participant","type":"address","internalType":"address"}],"outputs":[],"stateMutability":"nonpayable"},{"type":"function","name":"joinPot","inputs":[{"name":"potId","type":"uint256","internalType":"uint256"}],"outputs":[],"stateMutability":"payable"},{"type":"function","name":"keyHash","inputs":[],"outputs":[{"name":"","type":"bytes32","internalType":"bytes32"}],"stateMutability":"view"},{"type":"function","name":"owner","inputs":[],"outputs":[{"name":"","type":"address","internalType":"address"}],"stateMutability":"view"},{"type":"function","name":"participantFee","inputs":[],"outputs":[{"name":"","type":"uint256","internalType":"uint256"}],"stateMutability":"view"},{"type":"function","name":"platformFee","inputs":[],"outputs":[{"name":"","type":"uint256","internalType":"uint256"}],"stateMutability":"view"},{"type":"function","name":"potCount","inputs":[],"outputs":[{"name":"","type":"uint256","internalType":"uint256"}],"stateMutability":"view"},{"type":"function","name":"potluckOwner","inputs":[],"outputs":[{"name":"","type":"address","internalType":"address"}],"stateMutability":"view"},{"type":"function","name":"pots","inputs":[{"name":"","type":"uint256","internalType":"uint256"}],"outputs":[{"name":"id","type":"uint256","internalType":"uint256"},{"name":"creator","type":"address","internalType":"address"},{"name":"name","type":"bytes","internalType":"bytes"},{"name":"round","type":"uint32","internalType":"uint32"},{"name":"deadline","type":"uint256","internalType":"uint256"},{"name":"balance","type":"uint256","internalType":"uint256"},{"name":"token","type":"address","internalType":"address"},{"name":"entryAmount","type":"uint256","internalType":"uint256"},{"name":"period","type":"uint256","internalType":"uint256"},{"name":"totalParticipants","type":"uint32","internalType":"uint32"},{"name":"maxParticipants","type":"uint8","internalType":"uint8"},{"name":"isPublic","type":"bool","internalType":"bool"}],"stateMutability":"view"},{"type":"function","name":"rawFulfillRandomWords","inputs":[{"name":"requestId","type":"uint256","internalType":"uint256"},{"name":"randomWords","type":"uint256[]","internalType":"uint256[]"}],"outputs":[],"stateMutability":"nonpayable"},{"type":"function","name":"requestConfirmations","inputs":[],"outputs":[{"name":"","type":"uint16","internalType":"uint16"}],"stateMutability":"view"},{"type":"function","name":"requestPotAllow","inputs":[{"name":"potId","type":"uint256","internalType":"uint256"}],"outputs":[],"stateMutability":"nonpayable"},{"type":"function","name":"requestToPot","inputs":[{"name":"","type":"uint256","internalType":"uint256"}],"outputs":[{"name":"","type":"uint256","internalType":"uint256"}],"stateMutability":"view"},{"type":"function","name":"requestToRound","inputs":[{"name":"","type":"uint256","internalType":"uint256"}],"outputs":[{"name":"","type":"uint32","internalType":"uint32"}],"stateMutability":"view"},{"type":"function","name":"requestedParticipants","inputs":[{"name":"","type":"uint256","internalType":"uint256"},{"name":"","type":"uint256","internalType":"uint256"}],"outputs":[{"name":"requestor","type":"address","internalType":"address"},{"name":"timestamp","type":"uint256","internalType":"uint256"},{"name":"status","type":"uint8","internalType":"enum Potluck.RequestStatus"}],"stateMutability":"view"},{"type":"function","name":"s_subscriptionId","inputs":[],"outputs":[{"name":"","type":"uint256","internalType":"uint256"}],"stateMutability":"view"},{"type":"function","name":"s_vrfCoordinator","inputs":[],"outputs":[{"name":"","type":"address","internalType":"contract IVRFCoordinatorV2Plus"}],"stateMutability":"view"},{"type":"function","name":"setChainlinkVRF","inputs":[{"name":"_keyHash","type":"bytes32","internalType":"bytes32"},{"name":"_subscriptionId","type":"uint256","internalType":"uint256"},{"name":"_requestConfirmations","type":"uint16","internalType":"uint16"},{"name":"_callbackGasLimit","type":"uint32","internalType":"uint32"}],"outputs":[],"stateMutability":"nonpayable"},{"type":"function","name":"setChainlinkVRF","inputs":[{"name":"_vrfCoordinator","type":"address","internalType":"address"}],"outputs":[],"stateMutability":"nonpayable"},{"type":"function","name":"setCoordinator","inputs":[{"name":"_vrfCoordinator","type":"address","internalType":"address"}],"outputs":[],"stateMutability":"nonpayable"},{"type":"function","name":"setFees","inputs":[{"name":"_flatFee","type":"uint256","internalType":"uint256"},{"name":"_perPartFee","type":"uint256","internalType":"uint256"}],"outputs":[],"stateMutability":"nonpayable"},{"type":"function","name":"setTreasury","inputs":[{"name":"newTreasury","type":"address","internalType":"address"}],"outputs":[],"stateMutability":"nonpayable"},{"type":"function","name":"transferOwnership","inputs":[{"name":"to","type":"address","internalType":"address"}],"outputs":[],"stateMutability":"nonpayable"},{"type":"function","name":"treasury","inputs":[],"outputs":[{"name":"","type":"address","internalType":"address"}],"stateMutability":"view"},{"type":"function","name":"triggerBatchJoinOnBehalf","inputs":[{"name":"potId","type":"uint256","internalType":"uint256"},{"name":"participants","type":"address[]","internalType":"address[]"}],"outputs":[],"stateMutability":"nonpayable"},{"type":"function","name":"triggerBatchPayout","inputs":[{"name":"potIds","type":"uint256[]","internalType":"uint256[]"}],"outputs":[],"stateMutability":"nonpayable"},{"type":"function","name":"triggerPotPayout","inputs":[{"name":"potId","type":"uint256","internalType":"uint256"}],"outputs":[],"stateMutability":"nonpayable"},{"type":"function","name":"vrfCoordinator","inputs":[],"outputs":[{"name":"","type":"address","internalType":"contract VRFCoordinatorV2_5"}],"stateMutability":"view"},{"type":"function","name":"withdraw","inputs":[],"outputs":[],"stateMutability":"nonpayable"},{"type":"event","name":"AllowedParticipantAdded","inputs":[{"name":"potId","type":"uint256","indexed":true,"internalType":"uint256"},{"name":"user","type":"address","indexed":true,"internalType":"address"}],"anonymous":false},{"type":"event","name":"CoordinatorSet","inputs":[{"name":"vrfCoordinator","type":"address","indexed":false,"internalType":"address"}],"anonymous":false},{"type":"event","name":"OwnershipTransferRequested","inputs":[{"name":"from","type":"address","indexed":true,"internalType":"address"},{"name":"to","type":"address","indexed":true,"internalType":"address"}],"anonymous":false},{"type":"event","name":"OwnershipTransferred","inputs":[{"name":"from","type":"address","indexed":true,"internalType":"address"},{"name":"to","type":"address","indexed":true,"internalType":"address"}],"anonymous":false},{"type":"event","name":"PotAllowRequested","inputs":[{"name":"potId","type":"uint256","indexed":true,"internalType":"uint256"},{"name":"requestor","type":"address","indexed":true,"internalType":"address"}],"anonymous":false},{"type":"event","name":"PotCreated","inputs":[{"name":"potId","type":"uint256","indexed":true,"internalType":"uint256"},{"name":"creator","type":"address","indexed":true,"internalType":"address"}],"anonymous":false},{"type":"event","name":"PotEnded","inputs":[{"name":"potId","type":"uint256","indexed":true,"internalType":"uint256"}],"anonymous":false},{"type":"event","name":"PotJoined","inputs":[{"name":"potId","type":"uint256","indexed":true,"internalType":"uint256"},{"name":"roundId","type":"uint32","indexed":false,"internalType":"uint32"},{"name":"user","type":"address","indexed":true,"internalType":"address"}],"anonymous":false},{"type":"event","name":"PotPayout","inputs":[{"name":"potId","type":"uint256","indexed":true,"internalType":"uint256"},{"name":"winner","type":"address","indexed":true,"internalType":"address"},{"name":"amount","type":"uint256","indexed":false,"internalType":"uint256"},{"name":"round","type":"uint32","indexed":false,"internalType":"uint32"}],"anonymous":false},{"type":"error","name":"AlreadyJoined","inputs":[{"name":"potId","type":"uint256","internalType":"uint256"},{"name":"round","type":"uint32","internalType":"uint32"},{"name":"user","type":"address","internalType":"address"}]},{"type":"error","name":"EntryAmountZero","inputs":[]},{"type":"error","name":"InsufficientFundsForAutoJoin","inputs":[{"name":"sent","type":"uint256","internalType":"uint256"},{"name":"required","type":"uint256","internalType":"uint256"}]},{"type":"error","name":"InsufficientFundsToRollover","inputs":[{"name":"total","type":"uint256","internalType":"uint256"},{"name":"rollover","type":"uint256","internalType":"uint256"}]},{"type":"error","name":"NoEligibleParticipants","inputs":[]},{"type":"error","name":"NotAllParticipantsWon","inputs":[{"name":"potId","type":"uint256","internalType":"uint256"}]},{"type":"error","name":"NotAllowed","inputs":[{"name":"user","type":"address","internalType":"address"},{"name":"potId","type":"uint256","internalType":"uint256"}]},{"type":"error","name":"NotPotCreator","inputs":[{"name":"sender","type":"address","internalType":"address"},{"name":"potId","type":"uint256","internalType":"uint256"}]},{"type":"error","name":"OnlyCoordinatorCanFulfill","inputs":[{"name":"have","type":"address","internalType":"address"},{"name":"want","type":"address","internalType":"address"}]},{"type":"error","name":"OnlyOwnerOrCoordinator","inputs":[{"name":"have","type":"address","internalType":"address"},{"name":"owner","type":"address","internalType":"address"},{"name":"coordinator","type":"address","internalType":"address"}]},{"type":"error","name":"PeriodTooShort","inputs":[]},{"type":"error","name":"PotDoesNotExist","inputs":[{"name":"potId","type":"uint256","internalType":"uint256"}]},{"type":"error","name":"PotFull","inputs":[{"name":"maxParticipants","type":"uint8","internalType":"uint8"}]},{"type":"error","name":"RoundEnded","inputs":[{"name":"deadline","type":"uint256","internalType":"uint256"},{"name":"nowTimestamp","type":"uint256","internalType":"uint256"}]},{"type":"error","name":"RoundNotReady","inputs":[{"name":"deadline","type":"uint256","internalType":"uint256"},{"name":"nowTimestamp","type":"uint256","internalType":"uint256"}]},{"type":"error","name":"ZeroAddress","inputs":[]}],"bytecode":{"object":"0x60806040523480156200001157600080fd5b506040516200607a3803806200607a83398181016040528101906200003791906200049b565b80338060006001600081905550600073ffffffffffffffffffffffffffffffffffffffff168273ffffffffffffffffffffffffffffffffffffffff1603620000b6576040517f08c379a0000000000000000000000000000000000000000000000000000000008152600401620000ad906200056e565b60405180910390fd5b81600160006101000a81548173ffffffffffffffffffffffffffffffffffffffff021916908373ffffffffffffffffffffffffffffffffffffffff160217905550600073ffffffffffffffffffffffffffffffffffffffff168173ffffffffffffffffffffffffffffffffffffffff16146200013e576200013d81620002c560201b60201c565b5b505050600073ffffffffffffffffffffffffffffffffffffffff168173ffffffffffffffffffffffffffffffffffffffff1603620001a8576040517fd92e233d00000000000000000000000000000000000000000000000000000000815260040160405180910390fd5b80600360006101000a81548173ffffffffffffffffffffffffffffffffffffffff021916908373ffffffffffffffffffffffffffffffffffffffff160217905550508360058190555081600760006101000a81548173ffffffffffffffffffffffffffffffffffffffff021916908373ffffffffffffffffffffffffffffffffffffffff1602179055508260068190555033600860006101000a81548173ffffffffffffffffffffffffffffffffffffffff021916908373ffffffffffffffffffffffffffffffffffffffff16021790555080600960006101000a81548173ffffffffffffffffffffffffffffffffffffffff021916908373ffffffffffffffffffffffffffffffffffffffff1602179055505050505062000602565b3373ffffffffffffffffffffffffffffffffffffffff168173ffffffffffffffffffffffffffffffffffffffff160362000336576040517f08c379a00000000000000000000000000000000000000000000000000000000081526004016200032d90620005e0565b60405180910390fd5b80600260006101000a81548173ffffffffffffffffffffffffffffffffffffffff021916908373ffffffffffffffffffffffffffffffffffffffff1602179055508073ffffffffffffffffffffffffffffffffffffffff16600160009054906101000a900473ffffffffffffffffffffffffffffffffffffffff1673ffffffffffffffffffffffffffffffffffffffff167fed8889f560326eb138920d842192f0eb3dd22b4f139c87a2c57538e05bae127860405160405180910390a350565b600080fd5b6000819050919050565b6200041081620003fb565b81146200041c57600080fd5b50565b600081519050620004308162000405565b92915050565b600073ffffffffffffffffffffffffffffffffffffffff82169050919050565b6000620004638262000436565b9050919050565b620004758162000456565b81146200048157600080fd5b50565b60008151905062000495816200046a565b92915050565b60008060008060808587031215620004b857620004b7620003f6565b5b6000620004c8878288016200041f565b9450506020620004db878288016200041f565b9350506040620004ee8782880162000484565b9250506060620005018782880162000484565b91505092959194509250565b600082825260208201905092915050565b7f43616e6e6f7420736574206f776e657220746f207a65726f0000000000000000600082015250565b6000620005566018836200050d565b915062000563826200051e565b602082019050919050565b60006020820190508181036000830152620005898162000547565b9050919050565b7f43616e6e6f74207472616e7366657220746f2073656c66000000000000000000600082015250565b6000620005c86017836200050d565b9150620005d58262000590565b602082019050919050565b60006020820190508181036000830152620005fb81620005b9565b9050919050565b615a6880620006126000396000f3fe6080604052600436106102515760003560e01c80638ac0002111610139578063c3c3df4f116100b6578063de1149b31161007a578063de1149b3146108dd578063e0321cd414610906578063e90c88fe1461092f578063f0f4426014610958578063f2fde38b14610981578063f39c5d51146109aa57610251565b8063c3c3df4f146107c7578063c5072ca81461080f578063cf72f23014610838578063d1abb12a14610863578063d5e78829146108a057610251565b80639eccacf6116100fd5780639eccacf6146106e0578063a3e56fa81461070b578063a88390dc14610736578063b0fb162f1461075f578063c1e3bd3e1461078a57610251565b80638ac000211461060d5780638da5cb5b146106385780638ea98117146106635780639999fea01461068c5780639c031ace146106b557610251565b80633ccfd60b116101d257806365c7444d1161019657806365c7444d1461051b5780636b7fd0071461054457806379ba5097146105815780637a4f443614610598578063831d49ef146105d55780638661ffca146105f157610251565b80633ccfd60b146104325780635faa299a1461044957806361728f391461048657806361734cd6146104b157806361d027b3146104f057610251565b806324f746971161021957806324f746971461034d57806326232a2e146103785780632fd99712146103a3578063385542f0146103cc5780633bb2261d1461040957610251565b806309c1f8ff146102565780630b78f9c0146102815780631301cd25146102aa57806313f2cef9146102e75780631fe543e314610324575b600080fd5b34801561026257600080fd5b5061026b6109d3565b6040516102789190613dde565b60405180910390f35b34801561028d57600080fd5b506102a860048036038101906102a39190613e43565b6109f9565b005b3480156102b657600080fd5b506102d160048036038101906102cc9190613e83565b610a9b565b6040516102de9190613ebf565b60405180910390f35b3480156102f357600080fd5b5061030e60048036038101906103099190613f13565b610ab3565b60405161031b9190613ebf565b60405180910390f35b34801561033057600080fd5b5061034b60048036038101906103469190613fa5565b610ae5565b005b34801561035957600080fd5b50610362610bab565b60405161036f9190614024565b60405180910390f35b34801561038457600080fd5b5061038d610bc1565b60405161039a9190613ebf565b60405180910390f35b3480156103af57600080fd5b506103ca60048036038101906103c5919061403f565b610bc7565b005b3480156103d857600080fd5b506103f360048036038101906103ee9190613e83565b610c0f565b6040516104009190614024565b60405180910390f35b34801561041557600080fd5b50610430600480360381019061042b9190614128565b610c32565b005b34801561043e57600080fd5b50610447610d14565b005b34801561045557600080fd5b50610470600480360381019061046b91906141bb565b610e58565b60405161047d9190614216565b60405180910390f35b34801561049257600080fd5b5061049b610e87565b6040516104a89190614240565b60405180910390f35b3480156104bd57600080fd5b506104d860048036038101906104d39190613e43565b610e8d565b6040516104e7939291906142d2565b60405180910390f35b3480156104fc57600080fd5b50610505610f01565b6040516105129190613dde565b60405180910390f35b34801561052757600080fd5b50610542600480360381019061053d9190613e83565b610f27565b005b34801561055057600080fd5b5061056b60048036038101906105669190614309565b611071565b6040516105789190614216565b60405180910390f35b34801561058d57600080fd5b50610596611091565b005b3480156105a457600080fd5b506105bf60048036038101906105ba9190614309565b611228565b6040516105cc9190614216565b60405180910390f35b6105ef60048036038101906105ea9190613e83565b611248565b005b61060b600480360381019061060691906144a3565b611930565b005b34801561061957600080fd5b50610622611e95565b60405161062f9190613ebf565b60405180910390f35b34801561064457600080fd5b5061064d611e9b565b60405161065a9190613dde565b60405180910390f35b34801561066f57600080fd5b5061068a6004803603810190610685919061454c565b611ec5565b005b34801561069857600080fd5b506106b360048036038101906106ae91906141bb565b6120a6565b005b3480156106c157600080fd5b506106ca61254d565b6040516106d79190613ebf565b60405180910390f35b3480156106ec57600080fd5b506106f5612553565b60405161070291906145d8565b60405180910390f35b34801561071757600080fd5b50610720612579565b60405161072d9190614614565b60405180910390f35b34801561074257600080fd5b5061075d6004803603810190610758919061403f565b61259f565b005b34801561076b57600080fd5b506107746125e7565b604051610781919061463e565b60405180910390f35b34801561079657600080fd5b506107b160048036038101906107ac9190613e83565b6125fb565b6040516107be9190614717565b60405180910390f35b3480156107d357600080fd5b506107ee60048036038101906107e99190613e83565b61269f565b6040516108069c9b9a999897969594939291906147c7565b60405180910390f35b34801561081b57600080fd5b50610836600480360381019061083191906148de565b612801565b005b34801561084457600080fd5b5061084d612a13565b60405161085a9190613ebf565b60405180910390f35b34801561086f57600080fd5b5061088a60048036038101906108859190613f13565b612a19565b6040516108979190613ebf565b60405180910390f35b3480156108ac57600080fd5b506108c760048036038101906108c29190613e83565b612a58565b6040516108d49190614a4d565b60405180910390f35b3480156108e957600080fd5b5061090460048036038101906108ff91906148de565b612b65565b005b34801561091257600080fd5b5061092d60048036038101906109289190613e83565b612bbd565b005b34801561093b57600080fd5b5061095660048036038101906109519190613e83565b612e5c565b005b34801561096457600080fd5b5061097f600480360381019061097a919061454c565b6130e1565b005b34801561098d57600080fd5b506109a860048036038101906109a3919061454c565b613224565b005b3480156109b657600080fd5b506109d160048036038101906109cc919061454c565b613238565b005b600860009054906101000a900473ffffffffffffffffffffffffffffffffffffffff1681565b600860009054906101000a900473ffffffffffffffffffffffffffffffffffffffff1673ffffffffffffffffffffffffffffffffffffffff163373ffffffffffffffffffffffffffffffffffffffff1614610a89576040517f08c379a0000000000000000000000000000000000000000000000000000000008152600401610a8090614acc565b60405180910390fd5b81600581905550806006819055505050565b60126020528060005260406000206000915090505481565b60008060008360ff1614610ac75782610aca565b60ff5b60ff16905080600654610add9190614b1b565b915050919050565b600360009054906101000a900473ffffffffffffffffffffffffffffffffffffffff1673ffffffffffffffffffffffffffffffffffffffff163373ffffffffffffffffffffffffffffffffffffffff1614610b9b5733600360009054906101000a900473ffffffffffffffffffffffffffffffffffffffff166040517f1cf993f4000000000000000000000000000000000000000000000000000000008152600401610b92929190614b5d565b60405180910390fd5b610ba683838361337b565b505050565b600c60029054906101000a900463ffffffff1681565b60055481565b60005b82829050811015610c0a57610bf7838383818110610beb57610bea614b86565b5b90506020020135612bbd565b8080610c0290614bb5565b915050610bca565b505050565b60136020528060005260406000206000915054906101000a900463ffffffff1681565b600860009054906101000a900473ffffffffffffffffffffffffffffffffffffffff1673ffffffffffffffffffffffffffffffffffffffff163373ffffffffffffffffffffffffffffffffffffffff1614610cc2576040517f08c379a0000000000000000000000000000000000000000000000000000000008152600401610cb990614acc565b60405180910390fd5b83600a8190555082600b8190555081600c60006101000a81548161ffff021916908361ffff16021790555080600c60026101000a81548163ffffffff021916908363ffffffff16021790555050505050565b600860009054906101000a900473ffffffffffffffffffffffffffffffffffffffff1673ffffffffffffffffffffffffffffffffffffffff163373ffffffffffffffffffffffffffffffffffffffff1614610da4576040517f08c379a0000000000000000000000000000000000000000000000000000000008152600401610d9b90614acc565b60405180910390fd5b600047905060008111610dec576040517f08c379a0000000000000000000000000000000000000000000000000000000008152600401610de390614c49565b60405180910390fd5b600760009054906101000a900473ffffffffffffffffffffffffffffffffffffffff1673ffffffffffffffffffffffffffffffffffffffff166108fc829081150290604051600060405180830381858888f19350505050158015610e54573d6000803e3d6000fd5b5050565b60106020528160005260406000206020528060005260406000206000915091509054906101000a900460ff1681565b600a5481565b60116020528160005260406000208181548110610ea957600080fd5b9060005260206000209060030201600091509150508060000160009054906101000a900473ffffffffffffffffffffffffffffffffffffffff16908060010154908060020160009054906101000a900460ff16905083565b600760009054906101000a900473ffffffffffffffffffffffffffffffffffffffff1681565b6011600082815260200190815260200160002060405180606001604052803373ffffffffffffffffffffffffffffffffffffffff16815260200142815260200160006002811115610f7b57610f7a61425b565b5b815250908060018154018082558091505060019003906000526020600020906003020160009091909190915060008201518160000160006101000a81548173ffffffffffffffffffffffffffffffffffffffff021916908373ffffffffffffffffffffffffffffffffffffffff1602179055506020820151816001015560408201518160020160006101000a81548160ff021916908360028111156110235761102261425b565b5b021790555050503373ffffffffffffffffffffffffffffffffffffffff16817f14a1608330df21406b2c36c4c92e47f22c9abd31d9df75abc4af2bdb477469bb60405160405180910390a350565b600f6020528060005260406000206000915054906101000a900460ff1681565b600260009054906101000a900473ffffffffffffffffffffffffffffffffffffffff1673ffffffffffffffffffffffffffffffffffffffff163373ffffffffffffffffffffffffffffffffffffffff1614611121576040517f08c379a000000000000000000000000000000000000000000000000000000000815260040161111890614cb5565b60405180910390fd5b6000600160009054906101000a900473ffffffffffffffffffffffffffffffffffffffff16905033600160006101000a81548173ffffffffffffffffffffffffffffffffffffffff021916908373ffffffffffffffffffffffffffffffffffffffff1602179055506000600260006101000a81548173ffffffffffffffffffffffffffffffffffffffff021916908373ffffffffffffffffffffffffffffffffffffffff1602179055503373ffffffffffffffffffffffffffffffffffffffff168173ffffffffffffffffffffffffffffffffffffffff167f8be0079c531659141344cd1fd0a4f28419497f9722a3daafe3b4186f6b6457e060405160405180910390a350565b600e6020528060005260406000206000915054906101000a900460ff1681565b60026000540361128d576040517f08c379a000000000000000000000000000000000000000000000000000000000815260040161128490614d21565b60405180910390fd5b60026000819055506000600d6000838152602001908152602001600020905060008160050154036112f557816040517f017e57a10000000000000000000000000000000000000000000000000000000081526004016112ec9190613ebf565b60405180910390fd5b80600401544210611343578060040154426040517f8868888c00000000000000000000000000000000000000000000000000000000815260040161133a929190614d41565b60405180910390fd5b8060090160049054906101000a900460ff1660ff1681600a018054905010158015611383575060008160090160049054906101000a900460ff1660ff1614155b156113d6578060090160049054906101000a900460ff166040517f969559d50000000000000000000000000000000000000000000000000000000081526004016113cd9190614d6a565b60405180910390fd5b6010600083815260200190815260200160002060003373ffffffffffffffffffffffffffffffffffffffff1673ffffffffffffffffffffffffffffffffffffffff16815260200190815260200160002060009054906101000a900460ff16158015611450575080600b0160009054906101000a900460ff16155b156114945733826040517f8626cc0300000000000000000000000000000000000000000000000000000000815260040161148b929190614d85565b60405180910390fd5b6000828260030160009054906101000a900463ffffffff16336040516020016114bf93929190614e4d565b604051602081830303815290604052805190602001209050600e600082815260200190815260200160002060009054906101000a900460ff161561155257828260030160009054906101000a900463ffffffff16336040517f0beb1aac00000000000000000000000000000000000000000000000000000000815260040161154993929190614e8a565b60405180910390fd5b60008260030160009054906101000a900463ffffffff1663ffffffff160361170c5781600901600081819054906101000a900463ffffffff168092919061159890614ec1565b91906101000a81548163ffffffff021916908363ffffffff1602179055505060006115d38360090160049054906101000a900460ff16610ab3565b90508034101561161c5734816040517f155fd467000000000000000000000000000000000000000000000000000000008152600401611613929190614d41565b60405180910390fd5b600760009054906101000a900473ffffffffffffffffffffffffffffffffffffffff1673ffffffffffffffffffffffffffffffffffffffff166108fc829081150290604051600060405180830381858888f19350505050158015611684573d6000803e3d6000fd5b50803411156117065760003373ffffffffffffffffffffffffffffffffffffffff1682346116b29190614eed565b6040516116be90614f52565b60006040518083038185875af1925050503d80600081146116fb576040519150601f19603f3d011682016040523d82523d6000602084013e611700565b606091505b50509050505b506117bb565b600e60008460018560030160009054906101000a900463ffffffff166117329190614f67565b3360405160200161174593929190614e4d565b60405160208183030381529060405280519060200120815260200190815260200160002060009054906101000a900460ff166117ba5733836040517f8626cc030000000000000000000000000000000000000000000000000000000081526004016117b1929190614d85565b60405180910390fd5b5b611810333084600701548560060160009054906101000a900473ffffffffffffffffffffffffffffffffffffffff1673ffffffffffffffffffffffffffffffffffffffff1661377b909392919063ffffffff16565b81600701548260050160008282546118289190614f9f565b9250508190555081600a01339080600181540180825580915050600190039060005260206000200160009091909190916101000a81548173ffffffffffffffffffffffffffffffffffffffff021916908373ffffffffffffffffffffffffffffffffffffffff1602179055506001600e600083815260200190815260200160002060006101000a81548160ff0219169083151502179055503373ffffffffffffffffffffffffffffffffffffffff16837f672d3f5897f7a8042cd8c8557caf58ece26929a410c3b1a66a34ccfd3460fcde8460030160009054906101000a900463ffffffff1660405161191b9190614024565b60405180910390a35050600160008190555050565b600260005403611975576040517f08c379a000000000000000000000000000000000000000000000000000000000815260040161196c90614d21565b60405180910390fd5b6002600081905550600084036119b7576040517f172bb87f00000000000000000000000000000000000000000000000000000000815260040160405180910390fd5b610e108210156119f3576040517f9306857800000000000000000000000000000000000000000000000000000000815260040160405180910390fd5b600060046000815480929190611a0890614bb5565b9190505590506000600d60008381526020019081526020016000209050818160000181905550338160010160006101000a81548173ffffffffffffffffffffffffffffffffffffffff021916908373ffffffffffffffffffffffffffffffffffffffff16021790555087816002019081611a8291906151d5565b50868160060160006101000a81548173ffffffffffffffffffffffffffffffffffffffff021916908373ffffffffffffffffffffffffffffffffffffffff16021790555085816007018190555083816008018190555060018160090160006101000a81548163ffffffff021916908363ffffffff1602179055508342611b089190614f9f565b816004018190555085816005018190555080600a01339080600181540180825580915050600190039060005260206000200160009091909190916101000a81548173ffffffffffffffffffffffffffffffffffffffff021916908373ffffffffffffffffffffffffffffffffffffffff1602179055508281600b0160006101000a81548160ff021916908315150217905550848160090160046101000a81548160ff021916908360ff16021790555082611c265760016010600084815260200190815260200160002060003373ffffffffffffffffffffffffffffffffffffffff1673ffffffffffffffffffffffffffffffffffffffff16815260200190815260200160002060006101000a81548160ff0219169083151502179055505b600082600033604051602001611c3e93929190614e4d565b6040516020818303038152906040528051906020012090506001600e600083815260200190815260200160002060006101000a81548160ff021916908315150217905550611caf3330898b73ffffffffffffffffffffffffffffffffffffffff1661377b909392919063ffffffff16565b6000611cba87612a19565b905080341015611d035734816040517f155fd467000000000000000000000000000000000000000000000000000000008152600401611cfa929190614d41565b60405180910390fd5b600760009054906101000a900473ffffffffffffffffffffffffffffffffffffffff1673ffffffffffffffffffffffffffffffffffffffff166108fc829081150290604051600060405180830381858888f19350505050158015611d6b573d6000803e3d6000fd5b5080341115611ded5760003373ffffffffffffffffffffffffffffffffffffffff168234611d999190614eed565b604051611da590614f52565b60006040518083038185875af1925050503d8060008114611de2576040519150601f19603f3d011682016040523d82523d6000602084013e611de7565b606091505b50509050505b3373ffffffffffffffffffffffffffffffffffffffff16847fde307469e0906e8d7a6e84aec39b533cfe12dd01b2737a0f785511261337231760405160405180910390a33373ffffffffffffffffffffffffffffffffffffffff16847f672d3f5897f7a8042cd8c8557caf58ece26929a410c3b1a66a34ccfd3460fcde6000604051611e7991906152e2565b60405180910390a3505050506001600081905550505050505050565b600b5481565b6000600160009054906101000a900473ffffffffffffffffffffffffffffffffffffffff16905090565b611ecd611e9b565b73ffffffffffffffffffffffffffffffffffffffff163373ffffffffffffffffffffffffffffffffffffffff1614158015611f565750600360009054906101000a900473ffffffffffffffffffffffffffffffffffffffff1673ffffffffffffffffffffffffffffffffffffffff163373ffffffffffffffffffffffffffffffffffffffff1614155b15611fc55733611f64611e9b565b600360009054906101000a900473ffffffffffffffffffffffffffffffffffffffff166040517f061db9c1000000000000000000000000000000000000000000000000000000008152600401611fbc939291906152fd565b60405180910390fd5b600073ffffffffffffffffffffffffffffffffffffffff168173ffffffffffffffffffffffffffffffffffffffff160361202b576040517fd92e233d00000000000000000000000000000000000000000000000000000000815260040160405180910390fd5b80600360006101000a81548173ffffffffffffffffffffffffffffffffffffffff021916908373ffffffffffffffffffffffffffffffffffffffff1602179055507fd1a6a14209a385a964d036e404cb5cfb71f4000cdb03c9366292430787261be68160405161209b9190613dde565b60405180910390a150565b6000600d60008481526020019081526020016000209050600081600501540361210657826040517f017e57a10000000000000000000000000000000000000000000000000000000081526004016120fd9190613ebf565b60405180910390fd5b80600401544210612154578060040154426040517f8868888c00000000000000000000000000000000000000000000000000000000815260040161214b929190614d41565b60405180910390fd5b6010600084815260200190815260200160002060008373ffffffffffffffffffffffffffffffffffffffff1673ffffffffffffffffffffffffffffffffffffffff16815260200190815260200160002060009054906101000a900460ff161580156121ce575080600b0160009054906101000a900460ff16155b156122125781836040517f8626cc03000000000000000000000000000000000000000000000000000000008152600401612209929190614d85565b60405180910390fd5b60008160030160009054906101000a900463ffffffff1663ffffffff16036122735733836040517f8626cc0300000000000000000000000000000000000000000000000000000000815260040161226a929190614d85565b60405180910390fd5b600e60008460018460030160009054906101000a900463ffffffff166122999190614f67565b856040516020016122ac93929190614e4d565b60405160208183030381529060405280519060200120815260200190815260200160002060009054906101000a900460ff166123215781836040517f8626cc03000000000000000000000000000000000000000000000000000000008152600401612318929190614d85565b60405180910390fd5b6000838260030160009054906101000a900463ffffffff168460405160200161234c93929190614e4d565b604051602081830303815290604052805190602001209050600e600082815260200190815260200160002060009054906101000a900460ff16156123df57838260030160009054906101000a900463ffffffff16846040517f0beb1aac0000000000000000000000000000000000000000000000000000000081526004016123d693929190614e8a565b60405180910390fd5b81600701548260050160008282546123f79190614f9f565b9250508190555081600a01839080600181540180825580915050600190039060005260206000200160009091909190916101000a81548173ffffffffffffffffffffffffffffffffffffffff021916908373ffffffffffffffffffffffffffffffffffffffff1602179055506001600e600083815260200190815260200160002060006101000a81548160ff0219169083151502179055506124e4833084600701548560060160009054906101000a900473ffffffffffffffffffffffffffffffffffffffff1673ffffffffffffffffffffffffffffffffffffffff1661377b909392919063ffffffff16565b8273ffffffffffffffffffffffffffffffffffffffff16847f672d3f5897f7a8042cd8c8557caf58ece26929a410c3b1a66a34ccfd3460fcde8460030160009054906101000a900463ffffffff1660405161253f9190614024565b60405180910390a350505050565b60065481565b600360009054906101000a900473ffffffffffffffffffffffffffffffffffffffff1681565b600960009054906101000a900473ffffffffffffffffffffffffffffffffffffffff1681565b60005b828290508110156125e2576125cf8383838181106125c3576125c2614b86565b5b90506020020135612e5c565b80806125da90614bb5565b9150506125a2565b505050565b600c60009054906101000a900461ffff1681565b6060600d6000838152602001908152602001600020600a0180548060200260200160405190810160405280929190818152602001828054801561269357602002820191906000526020600020905b8160009054906101000a900473ffffffffffffffffffffffffffffffffffffffff1673ffffffffffffffffffffffffffffffffffffffff1681526020019060010190808311612649575b50505050509050919050565b600d6020528060005260406000206000915090508060000154908060010160009054906101000a900473ffffffffffffffffffffffffffffffffffffffff16908060020180546126ee90615002565b80601f016020809104026020016040519081016040528092919081815260200182805461271a90615002565b80156127675780601f1061273c57610100808354040283529160200191612767565b820191906000526020600020905b81548152906001019060200180831161274a57829003601f168201915b5050505050908060030160009054906101000a900463ffffffff16908060040154908060050154908060060160009054906101000a900473ffffffffffffffffffffffffffffffffffffffff16908060070154908060080154908060090160009054906101000a900463ffffffff16908060090160049054906101000a900460ff169080600b0160009054906101000a900460ff1690508c565b6000600d600085815260200190815260200160002090508060010160009054906101000a900473ffffffffffffffffffffffffffffffffffffffff1673ffffffffffffffffffffffffffffffffffffffff163373ffffffffffffffffffffffffffffffffffffffff16146128ae5733846040517f3872341e0000000000000000000000000000000000000000000000000000000081526004016128a5929190614d85565b60405180910390fd5b60005b83839050811015612a0c5760008484838181106128d1576128d0614b86565b5b90506020020160208101906128e6919061454c565b90506010600087815260200190815260200160002060008273ffffffffffffffffffffffffffffffffffffffff1673ffffffffffffffffffffffffffffffffffffffff16815260200190815260200160002060009054906101000a900460ff166129f85760016010600088815260200190815260200160002060008373ffffffffffffffffffffffffffffffffffffffff1673ffffffffffffffffffffffffffffffffffffffff16815260200190815260200160002060006101000a81548160ff0219169083151502179055508073ffffffffffffffffffffffffffffffffffffffff16867f1a93957e2514306f9c62a03c9d38f41d87e9192c4bff4ba40eb834d92c6c728060405160405180910390a35b508080612a0490614bb5565b9150506128b1565b5050505050565b60045481565b60008060008360ff1614612a2d5782612a30565b60ff5b60ff16905080600654612a439190614b1b565b600554612a509190614f9f565b915050919050565b606060116000838152602001908152602001600020805480602002602001604051908101604052809291908181526020016000905b82821015612b5a57838290600052602060002090600302016040518060600160405290816000820160009054906101000a900473ffffffffffffffffffffffffffffffffffffffff1673ffffffffffffffffffffffffffffffffffffffff1673ffffffffffffffffffffffffffffffffffffffff168152602001600182015481526020016002820160009054906101000a900460ff166002811115612b3557612b3461425b565b5b6002811115612b4757612b4661425b565b5b8152505081526020019060010190612a8d565b505050509050919050565b60005b82829050811015612bb757612ba484848484818110612b8a57612b89614b86565b5b9050602002016020810190612b9f919061454c565b6120a6565b8080612baf90614bb5565b915050612b68565b50505050565b6000600d600083815260200190815260200160002090506000816005015403612c1d57816040517f017e57a1000000000000000000000000000000000000000000000000000000008152600401612c149190613ebf565b60405180910390fd5b8060040154421015612c6c578060040154426040517f3bd40433000000000000000000000000000000000000000000000000000000008152600401612c63929190614d41565b60405180910390fd5b60005b81600a0180549050811015612d5b57600f60008484600a018481548110612c9957612c98614b86565b5b9060005260206000200160009054906101000a900473ffffffffffffffffffffffffffffffffffffffff16604051602001612cd5929190615334565b60405160208183030381529060405280519060200120815260200190815260200160002060009054906101000a900460ff16612d4857826040517fd2471cf8000000000000000000000000000000000000000000000000000000008152600401612d3f9190613ebf565b60405180910390fd5b8080612d5390614bb5565b915050612c6f565b506000816005018190555060008160060160009054906101000a900473ffffffffffffffffffffffffffffffffffffffff16905060008260070154905060005b83600a0180549050811015612e2857612e1584600a018281548110612dc357612dc2614b86565b5b9060005260206000200160009054906101000a900473ffffffffffffffffffffffffffffffffffffffff16838573ffffffffffffffffffffffffffffffffffffffff166138049092919063ffffffff16565b8080612e2090614bb5565b915050612d9b565b50837f09f73e7c1cfe948731316069115856105587fb9681d754a0037165a8a8cfe1f760405160405180910390a250505050565b600260005403612ea1576040517f08c379a0000000000000000000000000000000000000000000000000000000008152600401612e9890614d21565b60405180910390fd5b60026000819055506000600d600083815260200190815260200160002090506000816005015403612f0957816040517f017e57a1000000000000000000000000000000000000000000000000000000008152600401612f009190613ebf565b60405180910390fd5b8060040154421015612f58578060040154426040517f3bd40433000000000000000000000000000000000000000000000000000000008152600401612f4f929190614d41565b60405180910390fd5b6000600960009054906101000a900473ffffffffffffffffffffffffffffffffffffffff1673ffffffffffffffffffffffffffffffffffffffff16639b1c385e6040518060c00160405280600a548152602001600b548152602001600c60009054906101000a900461ffff1661ffff168152602001600c60029054906101000a900463ffffffff1663ffffffff168152602001600163ffffffff16815260200161301260405180602001604052806001151581525061388a565b8152506040518263ffffffff1660e01b81526004016130319190615460565b6020604051808303816000875af1158015613050573d6000803e3d6000fd5b505050506040513d601f19601f820116820180604052508101906130749190615497565b90508260126000838152602001908152602001600020819055508160030160009054906101000a900463ffffffff166013600083815260200190815260200160002060006101000a81548163ffffffff021916908363ffffffff1602179055505050600160008190555050565b600860009054906101000a900473ffffffffffffffffffffffffffffffffffffffff1673ffffffffffffffffffffffffffffffffffffffff163373ffffffffffffffffffffffffffffffffffffffff1614613171576040517f08c379a000000000000000000000000000000000000000000000000000000000815260040161316890614acc565b60405180910390fd5b600073ffffffffffffffffffffffffffffffffffffffff168173ffffffffffffffffffffffffffffffffffffffff16036131e0576040517f08c379a00000000000000000000000000000000000000000000000000000000081526004016131d790615510565b60405180910390fd5b80600760006101000a81548173ffffffffffffffffffffffffffffffffffffffff021916908373ffffffffffffffffffffffffffffffffffffffff16021790555050565b61322c613922565b613235816139b4565b50565b600860009054906101000a900473ffffffffffffffffffffffffffffffffffffffff1673ffffffffffffffffffffffffffffffffffffffff163373ffffffffffffffffffffffffffffffffffffffff16146132c8576040517f08c379a00000000000000000000000000000000000000000000000000000000081526004016132bf90614acc565b60405180910390fd5b600073ffffffffffffffffffffffffffffffffffffffff168173ffffffffffffffffffffffffffffffffffffffff1603613337576040517f08c379a000000000000000000000000000000000000000000000000000000000815260040161332e9061557c565b60405180910390fd5b80600960006101000a81548173ffffffffffffffffffffffffffffffffffffffff021916908373ffffffffffffffffffffffffffffffffffffffff16021790555050565b60006012600085815260200190815260200160002054905060006013600086815260200190815260200160002060009054906101000a900463ffffffff1690506000600d60008481526020019081526020016000209050600081600a01805490509050600081878760008181106133f5576133f4614b86565b5b9050602002013561340691906155cb565b9050600083600a0182815481106134205761341f614b86565b5b9060005260206000200160009054906101000a900473ffffffffffffffffffffffffffffffffffffffff1690506001600f60008884604051602001613466929190615334565b60405160208183030381529060405280519060200120815260200190815260200160002060006101000a81548160ff021916908315150217905550600060018560090160009054906101000a900463ffffffff166134c49190614f67565b63ffffffff168663ffffffff16146134e05784600701546134e3565b60005b905060008186600501546134f79190614eed565b90508273ffffffffffffffffffffffffffffffffffffffff16887fc2518a56896ff30efc4b0de222d91241ad29d5e347b5dc1465e1f28bbc6c4ac2838a6040516135429291906155fc565b60405180910390a361359983828860060160009054906101000a900473ffffffffffffffffffffffffffffffffffffffff1673ffffffffffffffffffffffffffffffffffffffff166138049092919063ffffffff16565b60018660090160009054906101000a900463ffffffff166135ba9190614f67565b63ffffffff168763ffffffff16036135db576000866005018190555061376e565b6001876135e89190615625565b8660030160006101000a81548163ffffffff021916908363ffffffff16021790555081866005018190555085600a0160006136239190613d5f565b85600a01839080600181540180825580915050600190039060005260206000200160009091909190916101000a81548173ffffffffffffffffffffffffffffffffffffffff021916908373ffffffffffffffffffffffffffffffffffffffff1602179055506001600e60008a8960030160009054906101000a900463ffffffff16876040516020016136b793929190614e4d565b60405160208183030381529060405280519060200120815260200190815260200160002060006101000a81548160ff0219169083151502179055508273ffffffffffffffffffffffffffffffffffffffff16887f672d3f5897f7a8042cd8c8557caf58ece26929a410c3b1a66a34ccfd3460fcde8860030160009054906101000a900463ffffffff1660405161374d9190614024565b60405180910390a38560080154426137659190614f9f565b86600401819055505b5050505050505050505050565b6137fe846323b872dd60e01b85858560405160240161379c9392919061565d565b604051602081830303815290604052907bffffffffffffffffffffffffffffffffffffffffffffffffffffffff19166020820180517bffffffffffffffffffffffffffffffffffffffffffffffffffffffff8381831617835250505050613ae2565b50505050565b6138858363a9059cbb60e01b8484604051602401613823929190614d85565b604051602081830303815290604052907bffffffffffffffffffffffffffffffffffffffffffffffffffffffff19166020820180517bffffffffffffffffffffffffffffffffffffffffffffffffffffffff8381831617835250505050613ae2565b505050565b60607f92fd13387c7fe7befbc38d303d6468778fb9731bc4583f17d92989c6fcfdeaaa826040516024016138be91906156bf565b604051602081830303815290604052907bffffffffffffffffffffffffffffffffffffffffffffffffffffffff19166020820180517bffffffffffffffffffffffffffffffffffffffffffffffffffffffff83818316178352505050509050919050565b600160009054906101000a900473ffffffffffffffffffffffffffffffffffffffff1673ffffffffffffffffffffffffffffffffffffffff163373ffffffffffffffffffffffffffffffffffffffff16146139b2576040517f08c379a00000000000000000000000000000000000000000000000000000000081526004016139a990615726565b60405180910390fd5b565b3373ffffffffffffffffffffffffffffffffffffffff168173ffffffffffffffffffffffffffffffffffffffff1603613a22576040517f08c379a0000000000000000000000000000000000000000000000000000000008152600401613a1990615792565b60405180910390fd5b80600260006101000a81548173ffffffffffffffffffffffffffffffffffffffff021916908373ffffffffffffffffffffffffffffffffffffffff1602179055508073ffffffffffffffffffffffffffffffffffffffff16600160009054906101000a900473ffffffffffffffffffffffffffffffffffffffff1673ffffffffffffffffffffffffffffffffffffffff167fed8889f560326eb138920d842192f0eb3dd22b4f139c87a2c57538e05bae127860405160405180910390a350565b6000613b44826040518060400160405280602081526020017f5361666545524332303a206c6f772d6c6576656c2063616c6c206661696c65648152508573ffffffffffffffffffffffffffffffffffffffff16613ba99092919063ffffffff16565b9050600081511115613ba45780806020019051810190613b6491906157c7565b613ba3576040517f08c379a0000000000000000000000000000000000000000000000000000000008152600401613b9a90615866565b60405180910390fd5b5b505050565b6060613bb88484600085613bc1565b90509392505050565b606082471015613c06576040517f08c379a0000000000000000000000000000000000000000000000000000000008152600401613bfd906158f8565b60405180910390fd5b613c0f85613cd5565b613c4e576040517f08c379a0000000000000000000000000000000000000000000000000000000008152600401613c4590615964565b60405180910390fd5b6000808673ffffffffffffffffffffffffffffffffffffffff168587604051613c7791906159b5565b60006040518083038185875af1925050503d8060008114613cb4576040519150601f19603f3d011682016040523d82523d6000602084013e613cb9565b606091505b5091509150613cc9828286613cf8565b92505050949350505050565b6000808273ffffffffffffffffffffffffffffffffffffffff163b119050919050565b60608315613d0857829050613d58565b600083511115613d1b5782518084602001fd5b816040517f08c379a0000000000000000000000000000000000000000000000000000000008152600401613d4f9190615a10565b60405180910390fd5b9392505050565b5080546000825590600052602060002090810190613d7d9190613d80565b50565b5b80821115613d99576000816000905550600101613d81565b5090565b600073ffffffffffffffffffffffffffffffffffffffff82169050919050565b6000613dc882613d9d565b9050919050565b613dd881613dbd565b82525050565b6000602082019050613df36000830184613dcf565b92915050565b6000604051905090565b600080fd5b600080fd5b6000819050919050565b613e2081613e0d565b8114613e2b57600080fd5b50565b600081359050613e3d81613e17565b92915050565b60008060408385031215613e5a57613e59613e03565b5b6000613e6885828601613e2e565b9250506020613e7985828601613e2e565b9150509250929050565b600060208284031215613e9957613e98613e03565b5b6000613ea784828501613e2e565b91505092915050565b613eb981613e0d565b82525050565b6000602082019050613ed46000830184613eb0565b92915050565b600060ff82169050919050565b613ef081613eda565b8114613efb57600080fd5b50565b600081359050613f0d81613ee7565b92915050565b600060208284031215613f2957613f28613e03565b5b6000613f3784828501613efe565b91505092915050565b600080fd5b600080fd5b600080fd5b60008083601f840112613f6557613f64613f40565b5b8235905067ffffffffffffffff811115613f8257613f81613f45565b5b602083019150836020820283011115613f9e57613f9d613f4a565b5b9250929050565b600080600060408486031215613fbe57613fbd613e03565b5b6000613fcc86828701613e2e565b935050602084013567ffffffffffffffff811115613fed57613fec613e08565b5b613ff986828701613f4f565b92509250509250925092565b600063ffffffff82169050919050565b61401e81614005565b82525050565b60006020820190506140396000830184614015565b92915050565b6000806020838503121561405657614055613e03565b5b600083013567ffffffffffffffff81111561407457614073613e08565b5b61408085828601613f4f565b92509250509250929050565b6000819050919050565b61409f8161408c565b81146140aa57600080fd5b50565b6000813590506140bc81614096565b92915050565b600061ffff82169050919050565b6140d9816140c2565b81146140e457600080fd5b50565b6000813590506140f6816140d0565b92915050565b61410581614005565b811461411057600080fd5b50565b600081359050614122816140fc565b92915050565b6000806000806080858703121561414257614141613e03565b5b6000614150878288016140ad565b945050602061416187828801613e2e565b9350506040614172878288016140e7565b925050606061418387828801614113565b91505092959194509250565b61419881613dbd565b81146141a357600080fd5b50565b6000813590506141b58161418f565b92915050565b600080604083850312156141d2576141d1613e03565b5b60006141e085828601613e2e565b92505060206141f1858286016141a6565b9150509250929050565b60008115159050919050565b614210816141fb565b82525050565b600060208201905061422b6000830184614207565b92915050565b61423a8161408c565b82525050565b60006020820190506142556000830184614231565b92915050565b7f4e487b7100000000000000000000000000000000000000000000000000000000600052602160045260246000fd5b6003811061429b5761429a61425b565b5b50565b60008190506142ac8261428a565b919050565b60006142bc8261429e565b9050919050565b6142cc816142b1565b82525050565b60006060820190506142e76000830186613dcf565b6142f46020830185613eb0565b61430160408301846142c3565b949350505050565b60006020828403121561431f5761431e613e03565b5b600061432d848285016140ad565b91505092915050565b600080fd5b6000601f19601f8301169050919050565b7f4e487b7100000000000000000000000000000000000000000000000000000000600052604160045260246000fd5b6143848261433b565b810181811067ffffffffffffffff821117156143a3576143a261434c565b5b80604052505050565b60006143b6613df9565b90506143c2828261437b565b919050565b600067ffffffffffffffff8211156143e2576143e161434c565b5b6143eb8261433b565b9050602081019050919050565b82818337600083830152505050565b600061441a614415846143c7565b6143ac565b90508281526020810184848401111561443657614435614336565b5b6144418482856143f8565b509392505050565b600082601f83011261445e5761445d613f40565b5b813561446e848260208601614407565b91505092915050565b614480816141fb565b811461448b57600080fd5b50565b60008135905061449d81614477565b92915050565b60008060008060008060c087890312156144c0576144bf613e03565b5b600087013567ffffffffffffffff8111156144de576144dd613e08565b5b6144ea89828a01614449565b96505060206144fb89828a016141a6565b955050604061450c89828a01613e2e565b945050606061451d89828a01613efe565b935050608061452e89828a01613e2e565b92505060a061453f89828a0161448e565b9150509295509295509295565b60006020828403121561456257614561613e03565b5b6000614570848285016141a6565b91505092915050565b6000819050919050565b600061459e61459961459484613d9d565b614579565b613d9d565b9050919050565b60006145b082614583565b9050919050565b60006145c2826145a5565b9050919050565b6145d2816145b7565b82525050565b60006020820190506145ed60008301846145c9565b92915050565b60006145fe826145a5565b9050919050565b61460e816145f3565b82525050565b60006020820190506146296000830184614605565b92915050565b614638816140c2565b82525050565b6000602082019050614653600083018461462f565b92915050565b600081519050919050565b600082825260208201905092915050565b6000819050602082019050919050565b61468e81613dbd565b82525050565b60006146a08383614685565b60208301905092915050565b6000602082019050919050565b60006146c482614659565b6146ce8185614664565b93506146d983614675565b8060005b8381101561470a5781516146f18882614694565b97506146fc836146ac565b9250506001810190506146dd565b5085935050505092915050565b6000602082019050818103600083015261473181846146b9565b905092915050565b600081519050919050565b600082825260208201905092915050565b60005b83811015614773578082015181840152602081019050614758565b60008484015250505050565b600061478a82614739565b6147948185614744565b93506147a4818560208601614755565b6147ad8161433b565b840191505092915050565b6147c181613eda565b82525050565b6000610180820190506147dd600083018f613eb0565b6147ea602083018e613dcf565b81810360408301526147fc818d61477f565b905061480b606083018c614015565b614818608083018b613eb0565b61482560a083018a613eb0565b61483260c0830189613dcf565b61483f60e0830188613eb0565b61484d610100830187613eb0565b61485b610120830186614015565b6148696101408301856147b8565b614877610160830184614207565b9d9c50505050505050505050505050565b60008083601f84011261489e5761489d613f40565b5b8235905067ffffffffffffffff8111156148bb576148ba613f45565b5b6020830191508360208202830111156148d7576148d6613f4a565b5b9250929050565b6000806000604084860312156148f7576148f6613e03565b5b600061490586828701613e2e565b935050602084013567ffffffffffffffff81111561492657614925613e08565b5b61493286828701614888565b92509250509250925092565b600081519050919050565b600082825260208201905092915050565b6000819050602082019050919050565b61497381613e0d565b82525050565b614982816142b1565b82525050565b60608201600082015161499e6000850182614685565b5060208201516149b1602085018261496a565b5060408201516149c46040850182614979565b50505050565b60006149d68383614988565b60608301905092915050565b6000602082019050919050565b60006149fa8261493e565b614a048185614949565b9350614a0f8361495a565b8060005b83811015614a40578151614a2788826149ca565b9750614a32836149e2565b925050600181019050614a13565b5085935050505092915050565b60006020820190508181036000830152614a6781846149ef565b905092915050565b600082825260208201905092915050565b7f4e6f742074686520706f746c75636b206f776e65720000000000000000000000600082015250565b6000614ab6601583614a6f565b9150614ac182614a80565b602082019050919050565b60006020820190508181036000830152614ae581614aa9565b9050919050565b7f4e487b7100000000000000000000000000000000000000000000000000000000600052601160045260246000fd5b6000614b2682613e0d565b9150614b3183613e0d565b9250828202614b3f81613e0d565b91508282048414831517614b5657614b55614aec565b5b5092915050565b6000604082019050614b726000830185613dcf565b614b7f6020830184613dcf565b9392505050565b7f4e487b7100000000000000000000000000000000000000000000000000000000600052603260045260246000fd5b6000614bc082613e0d565b91507fffffffffffffffffffffffffffffffffffffffffffffffffffffffffffffffff8203614bf257614bf1614aec565b5b600182019050919050565b7f4e6f2062616c616e636520746f20776974686472617700000000000000000000600082015250565b6000614c33601683614a6f565b9150614c3e82614bfd565b602082019050919050565b60006020820190508181036000830152614c6281614c26565b9050919050565b7f4d7573742062652070726f706f736564206f776e657200000000000000000000600082015250565b6000614c9f601683614a6f565b9150614caa82614c69565b602082019050919050565b60006020820190508181036000830152614cce81614c92565b9050919050565b7f5265656e7472616e637947756172643a207265656e7472616e742063616c6c00600082015250565b6000614d0b601f83614a6f565b9150614d1682614cd5565b602082019050919050565b60006020820190508181036000830152614d3a81614cfe565b9050919050565b6000604082019050614d566000830185613eb0565b614d636020830184613eb0565b9392505050565b6000602082019050614d7f60008301846147b8565b92915050565b6000604082019050614d9a6000830185613dcf565b614da76020830184613eb0565b9392505050565b6000819050919050565b614dc9614dc482613e0d565b614dae565b82525050565b60008160e01b9050919050565b6000614de782614dcf565b9050919050565b614dff614dfa82614005565b614ddc565b82525050565b60008160601b9050919050565b6000614e1d82614e05565b9050919050565b6000614e2f82614e12565b9050919050565b614e47614e4282613dbd565b614e24565b82525050565b6000614e598286614db8565b602082019150614e698285614dee565b600482019150614e798284614e36565b601482019150819050949350505050565b6000606082019050614e9f6000830186613eb0565b614eac6020830185614015565b614eb96040830184613dcf565b949350505050565b6000614ecc82614005565b915063ffffffff8203614ee257614ee1614aec565b5b600182019050919050565b6000614ef882613e0d565b9150614f0383613e0d565b9250828203905081811115614f1b57614f1a614aec565b5b92915050565b600081905092915050565b50565b6000614f3c600083614f21565b9150614f4782614f2c565b600082019050919050565b6000614f5d82614f2f565b9150819050919050565b6000614f7282614005565b9150614f7d83614005565b9250828203905063ffffffff811115614f9957614f98614aec565b5b92915050565b6000614faa82613e0d565b9150614fb583613e0d565b9250828201905080821115614fcd57614fcc614aec565b5b92915050565b7f4e487b7100000000000000000000000000000000000000000000000000000000600052602260045260246000fd5b6000600282049050600182168061501a57607f821691505b60208210810361502d5761502c614fd3565b5b50919050565b60008190508160005260206000209050919050565b60006020601f8301049050919050565b600082821b905092915050565b6000600883026150957fffffffffffffffffffffffffffffffffffffffffffffffffffffffffffffffff82615058565b61509f8683615058565b95508019841693508086168417925050509392505050565b60006150d26150cd6150c884613e0d565b614579565b613e0d565b9050919050565b6000819050919050565b6150ec836150b7565b6151006150f8826150d9565b848454615065565b825550505050565b600090565b615115615108565b6151208184846150e3565b505050565b5b818110156151445761513960008261510d565b600181019050615126565b5050565b601f8211156151895761515a81615033565b61516384615048565b81016020851015615172578190505b61518661517e85615048565b830182615125565b50505b505050565b600082821c905092915050565b60006151ac6000198460080261518e565b1980831691505092915050565b60006151c5838361519b565b9150826002028217905092915050565b6151de82614739565b67ffffffffffffffff8111156151f7576151f661434c565b5b6152018254615002565b61520c828285615148565b600060209050601f83116001811461523f576000841561522d578287015190505b61523785826151b9565b86555061529f565b601f19841661524d86615033565b60005b8281101561527557848901518255600182019150602085019450602081019050615250565b86831015615292578489015161528e601f89168261519b565b8355505b6001600288020188555050505b505050505050565b6000819050919050565b60006152cc6152c76152c2846152a7565b614579565b614005565b9050919050565b6152dc816152b1565b82525050565b60006020820190506152f760008301846152d3565b92915050565b60006060820190506153126000830186613dcf565b61531f6020830185613dcf565b61532c6040830184613dcf565b949350505050565b60006153408285614db8565b6020820191506153508284614e36565b6014820191508190509392505050565b6153698161408c565b82525050565b615378816140c2565b82525050565b61538781614005565b82525050565b600082825260208201905092915050565b60006153a982614739565b6153b3818561538d565b93506153c3818560208601614755565b6153cc8161433b565b840191505092915050565b600060c0830160008301516153ef6000860182615360565b506020830151615402602086018261496a565b506040830151615415604086018261536f565b506060830151615428606086018261537e565b50608083015161543b608086018261537e565b5060a083015184820360a0860152615453828261539e565b9150508091505092915050565b6000602082019050818103600083015261547a81846153d7565b905092915050565b60008151905061549181613e17565b92915050565b6000602082840312156154ad576154ac613e03565b5b60006154bb84828501615482565b91505092915050565b7f496e76616c696420747265617375727920616464726573730000000000000000600082015250565b60006154fa601883614a6f565b9150615505826154c4565b602082019050919050565b60006020820190508181036000830152615529816154ed565b9050919050565b7f496e76616c69642056524620436f6f7264696e61746f72206164647265737300600082015250565b6000615566601f83614a6f565b915061557182615530565b602082019050919050565b6000602082019050818103600083015261559581615559565b9050919050565b7f4e487b7100000000000000000000000000000000000000000000000000000000600052601260045260246000fd5b60006155d682613e0d565b91506155e183613e0d565b9250826155f1576155f061559c565b5b828206905092915050565b60006040820190506156116000830185613eb0565b61561e6020830184614015565b9392505050565b600061563082614005565b915061563b83614005565b9250828201905063ffffffff81111561565757615656614aec565b5b92915050565b60006060820190506156726000830186613dcf565b61567f6020830185613dcf565b61568c6040830184613eb0565b949350505050565b61569d816141fb565b82525050565b6020820160008201516156b96000850182615694565b50505050565b60006020820190506156d460008301846156a3565b92915050565b7f4f6e6c792063616c6c61626c65206279206f776e657200000000000000000000600082015250565b6000615710601683614a6f565b915061571b826156da565b602082019050919050565b6000602082019050818103600083015261573f81615703565b9050919050565b7f43616e6e6f74207472616e7366657220746f2073656c66000000000000000000600082015250565b600061577c601783614a6f565b915061578782615746565b602082019050919050565b600060208201905081810360008301526157ab8161576f565b9050919050565b6000815190506157c181614477565b92915050565b6000602082840312156157dd576157dc613e03565b5b60006157eb848285016157b2565b91505092915050565b7f5361666545524332303a204552433230206f7065726174696f6e20646964206e60008201527f6f74207375636365656400000000000000000000000000000000000000000000602082015250565b6000615850602a83614a6f565b915061585b826157f4565b604082019050919050565b6000602082019050818103600083015261587f81615843565b9050919050565b7f416464726573733a20696e73756666696369656e742062616c616e636520666f60008201527f722063616c6c0000000000000000000000000000000000000000000000000000602082015250565b60006158e2602683614a6f565b91506158ed82615886565b604082019050919050565b60006020820190508181036000830152615911816158d5565b9050919050565b7f416464726573733a2063616c6c20746f206e6f6e2d636f6e7472616374000000600082015250565b600061594e601d83614a6f565b915061595982615918565b602082019050919050565b6000602082019050818103600083015261597d81615941565b9050919050565b600061598f82614739565b6159998185614f21565b93506159a9818560208601614755565b80840191505092915050565b60006159c18284615984565b915081905092915050565b600081519050919050565b60006159e2826159cc565b6159ec8185614a6f565b93506159fc818560208601614755565b615a058161433b565b840191505092915050565b60006020820190508181036000830152615a2a81846159d7565b90509291505056fea26469706673582212204fc9811fc30550ec0758149e48aba5078a2fc71ec3cce7e1acbdbaa4992ee53464736f6c63430008130033","linkReferences":{}},"methodIdentifiers":{"acceptOwnership()":"79ba5097","allowParticipants(uint256,address[])":"c5072ca8","callbackGasLimit()":"24f74697","createPot(bytes,address,uint256,uint8,uint256,bool)":"8661ffca","endBatch(uint256[])":"2fd99712","endPot(uint256)":"e0321cd4","getCreatorFee(uint8)":"d1abb12a","getParticipantFee(uint8)":"13f2cef9","getParticipants(uint256)":"c1e3bd3e","getRequests(uint256)":"d5e78829","hasJoinedRound(bytes32)":"7a4f4436","hasWon(bytes32)":"6b7fd007","isAllowed(uint256,address)":"5faa299a","joinOnBehalf(uint256,address)":"9999fea0","joinPot(uint256)":"831d49ef","keyHash()":"61728f39","owner()":"8da5cb5b","participantFee()":"9c031ace","platformFee()":"26232a2e","potCount()":"cf72f230","potluckOwner()":"09c1f8ff","pots(uint256)":"c3c3df4f","rawFulfillRandomWords(uint256,uint256[])":"1fe543e3","requestConfirmations()":"b0fb162f","requestPotAllow(uint256)":"65c7444d","requestToPot(uint256)":"1301cd25","requestToRound(uint256)":"385542f0","requestedParticipants(uint256,uint256)":"61734cd6","s_subscriptionId()":"8ac00021","s_vrfCoordinator()":"9eccacf6","setChainlinkVRF(address)":"f39c5d51","setChainlinkVRF(bytes32,uint256,uint16,uint32)":"3bb2261d","setCoordinator(address)":"8ea98117","setFees(uint256,uint256)":"0b78f9c0","setTreasury(address)":"f0f44260","transferOwnership(address)":"f2fde38b","treasury()":"61d027b3","triggerBatchJoinOnBehalf(uint256,address[])":"de1149b3","triggerBatchPayout(uint256[])":"a88390dc","triggerPotPayout(uint256)":"e90c88fe","vrfCoordinator()":"a3e56fa8","withdraw()":"3ccfd60b"},"id":49}