{"abi":[{"type":"constructor","inputs":[{"name":"_platformFee","type":"uint256","internalType":"uint256"},{"name":"_partFee","type":"uint256","internalType":"uint256"},{"name":"_treasury","type":"address","internalType":"address"},{"name":"_vrfCoordinator","type":"address","internalType":"address"}],"stateMutability":"nonpayable"},{"type":"function","name":"acceptOwnership","inputs":[],"outputs":[],"stateMutability":"nonpayable"},{"type":"function","name":"allowParticipants","inputs":[{"name":"potId","type":"uint256","internalType":"uint256"},{"name":"participants","type":"address[]","internalType":"address[]"}],"outputs":[],"stateMutability":"nonpayable"},{"type":"function","name":"allowToken","inputs":[{"name":"token","type":"address","internalType":"address"}],"outputs":[],"stateMutability":"nonpayable"},{"type":"function","name":"allowedTokens","inputs":[{"name":"","type":"address","internalType":"address"}],"outputs":[{"name":"","type":"bool","internalType":"bool"}],"stateMutability":"view"},{"type":"function","name":"callbackGasLimit","inputs":[],"outputs":[{"name":"","type":"uint32","internalType":"uint32"}],"stateMutability":"view"},{"type":"function","name":"createPot","inputs":[{"name":"name","type":"bytes","internalType":"bytes"},{"name":"token","type":"address","internalType":"address"},{"name":"entryAmount","type":"uint256","internalType":"uint256"},{"name":"maxParticipants","type":"uint8","internalType":"uint8"},{"name":"periodSeconds","type":"uint256","internalType":"uint256"},{"name":"isPublic","type":"bool","internalType":"bool"}],"outputs":[],"stateMutability":"payable"},{"type":"function","name":"endBatch","inputs":[{"name":"potIds","type":"uint256[]","internalType":"uint256[]"}],"outputs":[],"stateMutability":"nonpayable"},{"type":"function","name":"endPot","inputs":[{"name":"potId","type":"uint256","internalType":"uint256"}],"outputs":[],"stateMutability":"nonpayable"},{"type":"function","name":"getCreatorFee","inputs":[{"name":"maxParticipants","type":"uint8","internalType":"uint8"}],"outputs":[{"name":"","type":"uint256","internalType":"uint256"}],"stateMutability":"view"},{"type":"function","name":"getParticipantFee","inputs":[{"name":"maxParticipants","type":"uint8","internalType":"uint8"}],"outputs":[{"name":"","type":"uint256","internalType":"uint256"}],"stateMutability":"view"},{"type":"function","name":"getParticipants","inputs":[{"name":"potId","type":"uint256","internalType":"uint256"}],"outputs":[{"name":"","type":"address[]","internalType":"address[]"}],"stateMutability":"view"},{"type":"function","name":"getRequests","inputs":[{"name":"potId","type":"uint256","internalType":"uint256"}],"outputs":[{"name":"","type":"tuple[]","internalType":"struct Potluck.PotRequest[]","components":[{"name":"requestor","type":"address","internalType":"address"},{"name":"timestamp","type":"uint256","internalType":"uint256"},{"name":"status","type":"uint8","internalType":"enum Potluck.RequestStatus"}]}],"stateMutability":"view"},{"type":"function","name":"hasJoinedRound","inputs":[{"name":"","type":"bytes32","internalType":"bytes32"}],"outputs":[{"name":"","type":"bool","internalType":"bool"}],"stateMutability":"view"},{"type":"function","name":"hasWon","inputs":[{"name":"","type":"bytes32","internalType":"bytes32"}],"outputs":[{"name":"","type":"bool","internalType":"bool"}],"stateMutability":"view"},{"type":"function","name":"isAllowed","inputs":[{"name":"","type":"uint256","internalType":"uint256"},{"name":"","type":"address","internalType":"address"}],"outputs":[{"name":"","type":"bool","internalType":"bool"}],"stateMutability":"view"},{"type":"function","name":"joinOnBehalf","inputs":[{"name":"potId","type":"uint256","internalType":"uint256"},{"name":"participant","type":"address","internalType":"address"}],"outputs":[],"stateMutability":"nonpayable"},{"type":"function","name":"joinPot","inputs":[{"name":"potId","type":"uint256","internalType":"uint256"}],"outputs":[],"stateMutability":"payable"},{"type":"function","name":"keyHash","inputs":[],"outputs":[{"name":"","type":"bytes32","internalType":"bytes32"}],"stateMutability":"view"},{"type":"function","name":"owner","inputs":[],"outputs":[{"name":"","type":"address","internalType":"address"}],"stateMutability":"view"},{"type":"function","name":"participantFee","inputs":[],"outputs":[{"name":"","type":"uint256","internalType":"uint256"}],"stateMutability":"view"},{"type":"function","name":"platformFee","inputs":[],"outputs":[{"name":"","type":"uint256","internalType":"uint256"}],"stateMutability":"view"},{"type":"function","name":"potCount","inputs":[],"outputs":[{"name":"","type":"uint256","internalType":"uint256"}],"stateMutability":"view"},{"type":"function","name":"potluckOwner","inputs":[],"outputs":[{"name":"","type":"address","internalType":"address"}],"stateMutability":"view"},{"type":"function","name":"pots","inputs":[{"name":"","type":"uint256","internalType":"uint256"}],"outputs":[{"name":"id","type":"uint256","internalType":"uint256"},{"name":"creator","type":"address","internalType":"address"},{"name":"name","type":"bytes","internalType":"bytes"},{"name":"round","type":"uint32","internalType":"uint32"},{"name":"deadline","type":"uint256","internalType":"uint256"},{"name":"balance","type":"uint256","internalType":"uint256"},{"name":"token","type":"address","internalType":"address"},{"name":"entryAmount","type":"uint256","internalType":"uint256"},{"name":"period","type":"uint256","internalType":"uint256"},{"name":"totalParticipants","type":"uint8","internalType":"uint8"},{"name":"maxParticipants","type":"uint8","internalType":"uint8"},{"name":"isPublic","type":"bool","internalType":"bool"}],"stateMutability":"view"},{"type":"function","name":"rawFulfillRandomWords","inputs":[{"name":"requestId","type":"uint256","internalType":"uint256"},{"name":"randomWords","type":"uint256[]","internalType":"uint256[]"}],"outputs":[],"stateMutability":"nonpayable"},{"type":"function","name":"requestConfirmations","inputs":[],"outputs":[{"name":"","type":"uint16","internalType":"uint16"}],"stateMutability":"view"},{"type":"function","name":"requestPotAllow","inputs":[{"name":"potId","type":"uint256","internalType":"uint256"}],"outputs":[],"stateMutability":"nonpayable"},{"type":"function","name":"requestToPot","inputs":[{"name":"","type":"uint256","internalType":"uint256"}],"outputs":[{"name":"","type":"uint256","internalType":"uint256"}],"stateMutability":"view"},{"type":"function","name":"requestToRound","inputs":[{"name":"","type":"uint256","internalType":"uint256"}],"outputs":[{"name":"","type":"uint32","internalType":"uint32"}],"stateMutability":"view"},{"type":"function","name":"requestedParticipants","inputs":[{"name":"","type":"uint256","internalType":"uint256"},{"name":"","type":"uint256","internalType":"uint256"}],"outputs":[{"name":"requestor","type":"address","internalType":"address"},{"name":"timestamp","type":"uint256","internalType":"uint256"},{"name":"status","type":"uint8","internalType":"enum Potluck.RequestStatus"}],"stateMutability":"view"},{"type":"function","name":"s_subscriptionId","inputs":[],"outputs":[{"name":"","type":"uint256","internalType":"uint256"}],"stateMutability":"view"},{"type":"function","name":"s_vrfCoordinator","inputs":[],"outputs":[{"name":"","type":"address","internalType":"contract IVRFCoordinatorV2Plus"}],"stateMutability":"view"},{"type":"function","name":"setChainlinkVRF","inputs":[{"name":"_keyHash","type":"bytes32","internalType":"bytes32"},{"name":"_subscriptionId","type":"uint256","internalType":"uint256"},{"name":"_requestConfirmations","type":"uint16","internalType":"uint16"},{"name":"_callbackGasLimit","type":"uint32","internalType":"uint32"}],"outputs":[],"stateMutability":"nonpayable"},{"type":"function","name":"setChainlinkVRF","inputs":[{"name":"_vrfCoordinator","type":"address","internalType":"address"}],"outputs":[],"stateMutability":"nonpayable"},{"type":"function","name":"setCoordinator","inputs":[{"name":"_vrfCoordinator","type":"address","internalType":"address"}],"outputs":[],"stateMutability":"nonpayable"},{"type":"function","name":"setFees","inputs":[{"name":"_flatFee","type":"uint256","internalType":"uint256"},{"name":"_perPartFee","type":"uint256","internalType":"uint256"}],"outputs":[],"stateMutability":"nonpayable"},{"type":"function","name":"setTreasury","inputs":[{"name":"newTreasury","type":"address","internalType":"address"}],"outputs":[],"stateMutability":"nonpayable"},{"type":"function","name":"transferOwnership","inputs":[{"name":"to","type":"address","internalType":"address"}],"outputs":[],"stateMutability":"nonpayable"},{"type":"function","name":"treasury","inputs":[],"outputs":[{"name":"","type":"address","internalType":"address"}],"stateMutability":"view"},{"type":"function","name":"triggerBatchJoinOnBehalf","inputs":[{"name":"potId","type":"uint256","internalType":"uint256"},{"name":"participants","type":"address[]","internalType":"address[]"}],"outputs":[],"stateMutability":"nonpayable"},{"type":"function","name":"triggerBatchPayout","inputs":[{"name":"potIds","type":"uint256[]","internalType":"uint256[]"}],"outputs":[],"stateMutability":"nonpayable"},{"type":"function","name":"triggerPotPayout","inputs":[{"name":"potId","type":"uint256","internalType":"uint256"}],"outputs":[],"stateMutability":"nonpayable"},{"type":"function","name":"vrfCoordinator","inputs":[],"outputs":[{"name":"","type":"address","internalType":"contract VRFCoordinatorV2_5"}],"stateMutability":"view"},{"type":"function","name":"withdraw","inputs":[],"outputs":[],"stateMutability":"nonpayable"},{"type":"function","name":"withdraw","inputs":[{"name":"receiver","type":"address","internalType":"address"},{"name":"token","type":"address","internalType":"address"},{"name":"amount","type":"uint256","internalType":"uint256"}],"outputs":[],"stateMutability":"nonpayable"},{"type":"function","name":"withdrawBatch","inputs":[{"name":"receivers","type":"address[]","internalType":"address[]"},{"name":"token","type":"address","internalType":"address"},{"name":"amounts","type":"uint256[]","internalType":"uint256[]"}],"outputs":[],"stateMutability":"nonpayable"},{"type":"function","name":"withdrawalBalances","inputs":[{"name":"","type":"address","internalType":"address"},{"name":"","type":"address","internalType":"address"}],"outputs":[{"name":"","type":"uint256","internalType":"uint256"}],"stateMutability":"view"},{"type":"event","name":"AllowedParticipantAdded","inputs":[{"name":"potId","type":"uint256","indexed":true,"internalType":"uint256"},{"name":"user","type":"address","indexed":true,"internalType":"address"}],"anonymous":false},{"type":"event","name":"CoordinatorSet","inputs":[{"name":"vrfCoordinator","type":"address","indexed":false,"internalType":"address"}],"anonymous":false},{"type":"event","name":"OwnershipTransferRequested","inputs":[{"name":"from","type":"address","indexed":true,"internalType":"address"},{"name":"to","type":"address","indexed":true,"internalType":"address"}],"anonymous":false},{"type":"event","name":"OwnershipTransferred","inputs":[{"name":"from","type":"address","indexed":true,"internalType":"address"},{"name":"to","type":"address","indexed":true,"internalType":"address"}],"anonymous":false},{"type":"event","name":"PotAllowRequested","inputs":[{"name":"potId","type":"uint256","indexed":true,"internalType":"uint256"},{"name":"requestor","type":"address","indexed":true,"internalType":"address"}],"anonymous":false},{"type":"event","name":"PotCreated","inputs":[{"name":"potId","type":"uint256","indexed":true,"internalType":"uint256"},{"name":"creator","type":"address","indexed":true,"internalType":"address"}],"anonymous":false},{"type":"event","name":"PotEnded","inputs":[{"name":"potId","type":"uint256","indexed":true,"internalType":"uint256"}],"anonymous":false},{"type":"event","name":"PotJoined","inputs":[{"name":"potId","type":"uint256","indexed":true,"internalType":"uint256"},{"name":"roundId","type":"uint32","indexed":false,"internalType":"uint32"},{"name":"user","type":"address","indexed":true,"internalType":"address"}],"anonymous":false},{"type":"event","name":"PotPayout","inputs":[{"name":"potId","type":"uint256","indexed":true,"internalType":"uint256"},{"name":"winner","type":"address","indexed":true,"internalType":"address"},{"name":"amount","type":"uint256","indexed":false,"internalType":"uint256"},{"name":"round","type":"uint32","indexed":false,"internalType":"uint32"}],"anonymous":false},{"type":"error","name":"AlreadyJoined","inputs":[{"name":"potId","type":"uint256","internalType":"uint256"},{"name":"round","type":"uint32","internalType":"uint32"},{"name":"user","type":"address","internalType":"address"}]},{"type":"error","name":"EntryAmountZero","inputs":[]},{"type":"error","name":"InsufficientFundsForAutoJoin","inputs":[{"name":"sent","type":"uint256","internalType":"uint256"},{"name":"required","type":"uint256","internalType":"uint256"}]},{"type":"error","name":"InsufficientFundsToRollover","inputs":[{"name":"total","type":"uint256","internalType":"uint256"},{"name":"rollover","type":"uint256","internalType":"uint256"}]},{"type":"error","name":"NoEligibleParticipants","inputs":[]},{"type":"error","name":"NotAllParticipantsWon","inputs":[{"name":"potId","type":"uint256","internalType":"uint256"}]},{"type":"error","name":"NotAllowed","inputs":[{"name":"user","type":"address","internalType":"address"},{"name":"potId","type":"uint256","internalType":"uint256"}]},{"type":"error","name":"NotPotCreator","inputs":[{"name":"sender","type":"address","internalType":"address"},{"name":"potId","type":"uint256","internalType":"uint256"}]},{"type":"error","name":"OnlyCoordinatorCanFulfill","inputs":[{"name":"have","type":"address","internalType":"address"},{"name":"want","type":"address","internalType":"address"}]},{"type":"error","name":"OnlyOwnerOrCoordinator","inputs":[{"name":"have","type":"address","internalType":"address"},{"name":"owner","type":"address","internalType":"address"},{"name":"coordinator","type":"address","internalType":"address"}]},{"type":"error","name":"PeriodTooShort","inputs":[]},{"type":"error","name":"PotDoesNotExist","inputs":[{"name":"potId","type":"uint256","internalType":"uint256"}]},{"type":"error","name":"PotFull","inputs":[{"name":"maxParticipants","type":"uint8","internalType":"uint8"}]},{"type":"error","name":"RoundEnded","inputs":[{"name":"deadline","type":"uint256","internalType":"uint256"},{"name":"nowTimestamp","type":"uint256","internalType":"uint256"}]},{"type":"error","name":"RoundNotReady","inputs":[{"name":"deadline","type":"uint256","internalType":"uint256"},{"name":"nowTimestamp","type":"uint256","internalType":"uint256"}]},{"type":"error","name":"TokenNotAllowed","inputs":[{"name":"token","type":"address","internalType":"address"}]},{"type":"error","name":"ZeroAddress","inputs":[]}],"bytecode":{"object":"0x60806040523480156200001157600080fd5b50604051620068ad380380620068ad83398181016040528101906200003791906200049b565b80338060006001600081905550600073ffffffffffffffffffffffffffffffffffffffff168273ffffffffffffffffffffffffffffffffffffffff1603620000b6576040517f08c379a0000000000000000000000000000000000000000000000000000000008152600401620000ad906200056e565b60405180910390fd5b81600160006101000a81548173ffffffffffffffffffffffffffffffffffffffff021916908373ffffffffffffffffffffffffffffffffffffffff160217905550600073ffffffffffffffffffffffffffffffffffffffff168173ffffffffffffffffffffffffffffffffffffffff16146200013e576200013d81620002c560201b60201c565b5b505050600073ffffffffffffffffffffffffffffffffffffffff168173ffffffffffffffffffffffffffffffffffffffff1603620001a8576040517fd92e233d00000000000000000000000000000000000000000000000000000000815260040160405180910390fd5b80600360006101000a81548173ffffffffffffffffffffffffffffffffffffffff021916908373ffffffffffffffffffffffffffffffffffffffff160217905550508360058190555081600760006101000a81548173ffffffffffffffffffffffffffffffffffffffff021916908373ffffffffffffffffffffffffffffffffffffffff1602179055508260068190555033600860006101000a81548173ffffffffffffffffffffffffffffffffffffffff021916908373ffffffffffffffffffffffffffffffffffffffff16021790555080600960006101000a81548173ffffffffffffffffffffffffffffffffffffffff021916908373ffffffffffffffffffffffffffffffffffffffff1602179055505050505062000602565b3373ffffffffffffffffffffffffffffffffffffffff168173ffffffffffffffffffffffffffffffffffffffff160362000336576040517f08c379a00000000000000000000000000000000000000000000000000000000081526004016200032d90620005e0565b60405180910390fd5b80600260006101000a81548173ffffffffffffffffffffffffffffffffffffffff021916908373ffffffffffffffffffffffffffffffffffffffff1602179055508073ffffffffffffffffffffffffffffffffffffffff16600160009054906101000a900473ffffffffffffffffffffffffffffffffffffffff1673ffffffffffffffffffffffffffffffffffffffff167fed8889f560326eb138920d842192f0eb3dd22b4f139c87a2c57538e05bae127860405160405180910390a350565b600080fd5b6000819050919050565b6200041081620003fb565b81146200041c57600080fd5b50565b600081519050620004308162000405565b92915050565b600073ffffffffffffffffffffffffffffffffffffffff82169050919050565b6000620004638262000436565b9050919050565b620004758162000456565b81146200048157600080fd5b50565b60008151905062000495816200046a565b92915050565b60008060008060808587031215620004b857620004b7620003f6565b5b6000620004c8878288016200041f565b9450506020620004db878288016200041f565b9350506040620004ee8782880162000484565b9250506060620005018782880162000484565b91505092959194509250565b600082825260208201905092915050565b7f43616e6e6f7420736574206f776e657220746f207a65726f0000000000000000600082015250565b6000620005566018836200050d565b915062000563826200051e565b602082019050919050565b60006020820190508181036000830152620005898162000547565b9050919050565b7f43616e6e6f74207472616e7366657220746f2073656c66000000000000000000600082015250565b6000620005c86017836200050d565b9150620005d58262000590565b602082019050919050565b60006020820190508181036000830152620005fb81620005b9565b9050919050565b61629b80620006126000396000f3fe6080604052600436106102885760003560e01c80638da5cb5b1161015a578063c5072ca8116100c1578063e0321cd41161007a578063e0321cd4146109f5578063e744092e14610a1e578063e90c88fe14610a5b578063f0f4426014610a84578063f2fde38b14610aad578063f39c5d5114610ad657610288565b8063c5072ca8146108d5578063cf72f230146108fe578063d1abb12a14610929578063d5e7882914610966578063d9caed12146109a3578063de1149b3146109cc57610288565b8063a3e56fa811610113578063a3e56fa8146107a8578063a88390dc146107d3578063b0fb162f146107fc578063b53472ef14610827578063c1e3bd3e14610850578063c3c3df4f1461088d57610288565b80638da5cb5b146106985780638ea98117146106c3578063908fe934146106ec5780639999fea0146107295780639c031ace146107525780639eccacf61461077d57610288565b80635faa299a116101fe57806379ba5097116101b757806379ba5097146105b85780637a4f4436146105cf578063831d49ef1461060c5780638657dfcb146106285780638661ffca146106515780638ac000211461066d57610288565b80635faa299a1461048057806361728f39146104bd57806361734cd6146104e857806361d027b31461052757806365c7444d146105525780636b7fd0071461057b57610288565b806324f746971161025057806324f746971461038457806326232a2e146103af5780632fd99712146103da578063385542f0146104035780633bb2261d146104405780633ccfd60b1461046957610288565b806309c1f8ff1461028d5780630b78f9c0146102b85780631301cd25146102e157806313f2cef91461031e5780631fe543e31461035b575b600080fd5b34801561029957600080fd5b506102a2610aff565b6040516102af91906143df565b60405180910390f35b3480156102c457600080fd5b506102df60048036038101906102da9190614444565b610b25565b005b3480156102ed57600080fd5b5061030860048036038101906103039190614484565b610bc7565b60405161031591906144c0565b60405180910390f35b34801561032a57600080fd5b5061034560048036038101906103409190614514565b610bdf565b60405161035291906144c0565b60405180910390f35b34801561036757600080fd5b50610382600480360381019061037d91906145a6565b610c11565b005b34801561039057600080fd5b50610399610cd7565b6040516103a69190614625565b60405180910390f35b3480156103bb57600080fd5b506103c4610ced565b6040516103d191906144c0565b60405180910390f35b3480156103e657600080fd5b5061040160048036038101906103fc9190614640565b610cf3565b005b34801561040f57600080fd5b5061042a60048036038101906104259190614484565b610d3b565b6040516104379190614625565b60405180910390f35b34801561044c57600080fd5b5061046760048036038101906104629190614729565b610d5e565b005b34801561047557600080fd5b5061047e610e40565b005b34801561048c57600080fd5b506104a760048036038101906104a291906147bc565b610f84565b6040516104b49190614817565b60405180910390f35b3480156104c957600080fd5b506104d2610fb3565b6040516104df9190614841565b60405180910390f35b3480156104f457600080fd5b5061050f600480360381019061050a9190614444565b610fb9565b60405161051e939291906148d3565b60405180910390f35b34801561053357600080fd5b5061053c61102d565b60405161054991906143df565b60405180910390f35b34801561055e57600080fd5b5061057960048036038101906105749190614484565b611053565b005b34801561058757600080fd5b506105a2600480360381019061059d919061490a565b61119d565b6040516105af9190614817565b60405180910390f35b3480156105c457600080fd5b506105cd6111bd565b005b3480156105db57600080fd5b506105f660048036038101906105f1919061490a565b611354565b6040516106039190614817565b60405180910390f35b61062660048036038101906106219190614484565b611374565b005b34801561063457600080fd5b5061064f600480360381019061064a919061498d565b611a53565b005b61066b60048036038101906106669190614b8f565b611ac7565b005b34801561067957600080fd5b506106826120b4565b60405161068f91906144c0565b60405180910390f35b3480156106a457600080fd5b506106ad6120ba565b6040516106ba91906143df565b60405180910390f35b3480156106cf57600080fd5b506106ea60048036038101906106e59190614c38565b6120e4565b005b3480156106f857600080fd5b50610713600480360381019061070e9190614c65565b6122c5565b60405161072091906144c0565b60405180910390f35b34801561073557600080fd5b50610750600480360381019061074b91906147bc565b6122ea565b005b34801561075e57600080fd5b506107676127e6565b60405161077491906144c0565b60405180910390f35b34801561078957600080fd5b506107926127ec565b60405161079f9190614d04565b60405180910390f35b3480156107b457600080fd5b506107bd612812565b6040516107ca9190614d40565b60405180910390f35b3480156107df57600080fd5b506107fa60048036038101906107f59190614640565b612838565b005b34801561080857600080fd5b50610811612880565b60405161081e9190614d6a565b60405180910390f35b34801561083357600080fd5b5061084e60048036038101906108499190614c38565b612894565b005b34801561085c57600080fd5b5061087760048036038101906108729190614484565b6129ee565b6040516108849190614e43565b60405180910390f35b34801561089957600080fd5b506108b460048036038101906108af9190614484565b612a92565b6040516108cc9c9b9a99989796959493929190614ef3565b60405180910390f35b3480156108e157600080fd5b506108fc60048036038101906108f79190614fb4565b612bf1565b005b34801561090a57600080fd5b50610913612e03565b60405161092091906144c0565b60405180910390f35b34801561093557600080fd5b50610950600480360381019061094b9190614514565b612e09565b60405161095d91906144c0565b60405180910390f35b34801561097257600080fd5b5061098d60048036038101906109889190614484565b612e48565b60405161099a9190615123565b60405180910390f35b3480156109af57600080fd5b506109ca60048036038101906109c59190615145565b612f55565b005b3480156109d857600080fd5b506109f360048036038101906109ee9190614fb4565b6130d7565b005b348015610a0157600080fd5b50610a1c6004803603810190610a179190614484565b61312f565b005b348015610a2a57600080fd5b50610a456004803603810190610a409190614c38565b613436565b604051610a529190614817565b60405180910390f35b348015610a6757600080fd5b50610a826004803603810190610a7d9190614484565b613456565b005b348015610a9057600080fd5b50610aab6004803603810190610aa69190614c38565b613686565b005b348015610ab957600080fd5b50610ad46004803603810190610acf9190614c38565b6137c9565b005b348015610ae257600080fd5b50610afd6004803603810190610af89190614c38565b6137dd565b005b600860009054906101000a900473ffffffffffffffffffffffffffffffffffffffff1681565b600860009054906101000a900473ffffffffffffffffffffffffffffffffffffffff1673ffffffffffffffffffffffffffffffffffffffff163373ffffffffffffffffffffffffffffffffffffffff1614610bb5576040517f08c379a0000000000000000000000000000000000000000000000000000000008152600401610bac906151f5565b60405180910390fd5b81600581905550806006819055505050565b60146020528060005260406000206000915090505481565b60008060008360ff1614610bf35782610bf6565b60ff5b60ff16905080600654610c099190615244565b915050919050565b600360009054906101000a900473ffffffffffffffffffffffffffffffffffffffff1673ffffffffffffffffffffffffffffffffffffffff163373ffffffffffffffffffffffffffffffffffffffff1614610cc75733600360009054906101000a900473ffffffffffffffffffffffffffffffffffffffff166040517f1cf993f4000000000000000000000000000000000000000000000000000000008152600401610cbe929190615286565b60405180910390fd5b610cd2838383613920565b505050565b600c60029054906101000a900463ffffffff1681565b60055481565b60005b82829050811015610d3657610d23838383818110610d1757610d166152af565b5b9050602002013561312f565b8080610d2e906152de565b915050610cf6565b505050565b60156020528060005260406000206000915054906101000a900463ffffffff1681565b600860009054906101000a900473ffffffffffffffffffffffffffffffffffffffff1673ffffffffffffffffffffffffffffffffffffffff163373ffffffffffffffffffffffffffffffffffffffff1614610dee576040517f08c379a0000000000000000000000000000000000000000000000000000000008152600401610de5906151f5565b60405180910390fd5b83600a8190555082600b8190555081600c60006101000a81548161ffff021916908361ffff16021790555080600c60026101000a81548163ffffffff021916908363ffffffff16021790555050505050565b600860009054906101000a900473ffffffffffffffffffffffffffffffffffffffff1673ffffffffffffffffffffffffffffffffffffffff163373ffffffffffffffffffffffffffffffffffffffff1614610ed0576040517f08c379a0000000000000000000000000000000000000000000000000000000008152600401610ec7906151f5565b60405180910390fd5b600047905060008111610f18576040517f08c379a0000000000000000000000000000000000000000000000000000000008152600401610f0f90615372565b60405180910390fd5b600760009054906101000a900473ffffffffffffffffffffffffffffffffffffffff1673ffffffffffffffffffffffffffffffffffffffff166108fc829081150290604051600060405180830381858888f19350505050158015610f80573d6000803e3d6000fd5b5050565b60116020528160005260406000206020528060005260406000206000915091509054906101000a900460ff1681565b600a5481565b60126020528160005260406000208181548110610fd557600080fd5b9060005260206000209060030201600091509150508060000160009054906101000a900473ffffffffffffffffffffffffffffffffffffffff16908060010154908060020160009054906101000a900460ff16905083565b600760009054906101000a900473ffffffffffffffffffffffffffffffffffffffff1681565b6012600082815260200190815260200160002060405180606001604052803373ffffffffffffffffffffffffffffffffffffffff168152602001428152602001600060028111156110a7576110a661485c565b5b815250908060018154018082558091505060019003906000526020600020906003020160009091909190915060008201518160000160006101000a81548173ffffffffffffffffffffffffffffffffffffffff021916908373ffffffffffffffffffffffffffffffffffffffff1602179055506020820151816001015560408201518160020160006101000a81548160ff0219169083600281111561114f5761114e61485c565b5b021790555050503373ffffffffffffffffffffffffffffffffffffffff16817f14a1608330df21406b2c36c4c92e47f22c9abd31d9df75abc4af2bdb477469bb60405160405180910390a350565b600f6020528060005260406000206000915054906101000a900460ff1681565b600260009054906101000a900473ffffffffffffffffffffffffffffffffffffffff1673ffffffffffffffffffffffffffffffffffffffff163373ffffffffffffffffffffffffffffffffffffffff161461124d576040517f08c379a0000000000000000000000000000000000000000000000000000000008152600401611244906153de565b60405180910390fd5b6000600160009054906101000a900473ffffffffffffffffffffffffffffffffffffffff16905033600160006101000a81548173ffffffffffffffffffffffffffffffffffffffff021916908373ffffffffffffffffffffffffffffffffffffffff1602179055506000600260006101000a81548173ffffffffffffffffffffffffffffffffffffffff021916908373ffffffffffffffffffffffffffffffffffffffff1602179055503373ffffffffffffffffffffffffffffffffffffffff168173ffffffffffffffffffffffffffffffffffffffff167f8be0079c531659141344cd1fd0a4f28419497f9722a3daafe3b4186f6b6457e060405160405180910390a350565b600e6020528060005260406000206000915054906101000a900460ff1681565b6002600054036113b9576040517f08c379a00000000000000000000000000000000000000000000000000000000081526004016113b09061544a565b60405180910390fd5b60026000819055506000600d60008381526020019081526020016000209050600081600501540361142157816040517f017e57a100000000000000000000000000000000000000000000000000000000815260040161141891906144c0565b60405180910390fd5b8060040154421061146f578060040154426040517f8868888c00000000000000000000000000000000000000000000000000000000815260040161146692919061546a565b60405180910390fd5b8060090160019054906101000a900460ff1660ff1681600a0180549050101580156114af575060008160090160019054906101000a900460ff1660ff1614155b15611502578060090160019054906101000a900460ff166040517f969559d50000000000000000000000000000000000000000000000000000000081526004016114f99190615493565b60405180910390fd5b6011600083815260200190815260200160002060003373ffffffffffffffffffffffffffffffffffffffff1673ffffffffffffffffffffffffffffffffffffffff16815260200190815260200160002060009054906101000a900460ff1615801561157c575080600b0160009054906101000a900460ff16155b156115c05733826040517f8626cc030000000000000000000000000000000000000000000000000000000081526004016115b79291906154ae565b60405180910390fd5b6000828260030160009054906101000a900463ffffffff16336040516020016115eb93929190615576565b604051602081830303815290604052805190602001209050600e600082815260200190815260200160002060009054906101000a900460ff161561167e57828260030160009054906101000a900463ffffffff16336040517f0beb1aac000000000000000000000000000000000000000000000000000000008152600401611675939291906155b3565b60405180910390fd5b60008260030160009054906101000a900463ffffffff1663ffffffff160361182f5781600901600081819054906101000a900460ff16809291906116c1906155ea565b91906101000a81548160ff021916908360ff1602179055505060006116f68360090160019054906101000a900460ff16610bdf565b90508034101561173f5734816040517f155fd46700000000000000000000000000000000000000000000000000000000815260040161173692919061546a565b60405180910390fd5b600760009054906101000a900473ffffffffffffffffffffffffffffffffffffffff1673ffffffffffffffffffffffffffffffffffffffff166108fc829081150290604051600060405180830381858888f193505050501580156117a7573d6000803e3d6000fd5b50803411156118295760003373ffffffffffffffffffffffffffffffffffffffff1682346117d59190615613565b6040516117e190615678565b60006040518083038185875af1925050503d806000811461181e576040519150601f19603f3d011682016040523d82523d6000602084013e611823565b606091505b50509050505b506118de565b600e60008460018560030160009054906101000a900463ffffffff16611855919061568d565b3360405160200161186893929190615576565b60405160208183030381529060405280519060200120815260200190815260200160002060009054906101000a900460ff166118dd5733836040517f8626cc030000000000000000000000000000000000000000000000000000000081526004016118d49291906154ae565b60405180910390fd5b5b611933333084600701548560060160009054906101000a900473ffffffffffffffffffffffffffffffffffffffff1673ffffffffffffffffffffffffffffffffffffffff16613d7c909392919063ffffffff16565b816007015482600501600082825461194b91906156c5565b9250508190555081600a01339080600181540180825580915050600190039060005260206000200160009091909190916101000a81548173ffffffffffffffffffffffffffffffffffffffff021916908373ffffffffffffffffffffffffffffffffffffffff1602179055506001600e600083815260200190815260200160002060006101000a81548160ff0219169083151502179055503373ffffffffffffffffffffffffffffffffffffffff16837f672d3f5897f7a8042cd8c8557caf58ece26929a410c3b1a66a34ccfd3460fcde8460030160009054906101000a900463ffffffff16604051611a3e9190614625565b60405180910390a35050600160008190555050565b60005b82829050811015611abf57611aac868683818110611a7757611a766152af565b5b9050602002016020810190611a8c9190614c38565b85858585818110611aa057611a9f6152af565b5b90506020020135612f55565b8080611ab7906152de565b915050611a56565b505050505050565b600260005403611b0c576040517f08c379a0000000000000000000000000000000000000000000000000000000008152600401611b039061544a565b60405180910390fd5b600260008190555060008403611b4e576040517f172bb87f00000000000000000000000000000000000000000000000000000000815260040160405180910390fd5b610e10821015611b8a576040517f9306857800000000000000000000000000000000000000000000000000000000815260040160405180910390fd5b601060008673ffffffffffffffffffffffffffffffffffffffff1673ffffffffffffffffffffffffffffffffffffffff16815260200190815260200160002060009054906101000a900460ff16611c1857846040517f94403b70000000000000000000000000000000000000000000000000000000008152600401611c0f91906143df565b60405180910390fd5b600060046000815480929190611c2d906152de565b9190505590506000600d60008381526020019081526020016000209050818160000181905550338160010160006101000a81548173ffffffffffffffffffffffffffffffffffffffff021916908373ffffffffffffffffffffffffffffffffffffffff16021790555087816002019081611ca791906158fb565b50868160060160006101000a81548173ffffffffffffffffffffffffffffffffffffffff021916908373ffffffffffffffffffffffffffffffffffffffff16021790555085816007018190555083816008018190555060018160090160006101000a81548160ff021916908360ff1602179055508342611d2791906156c5565b816004018190555085816005018190555080600a01339080600181540180825580915050600190039060005260206000200160009091909190916101000a81548173ffffffffffffffffffffffffffffffffffffffff021916908373ffffffffffffffffffffffffffffffffffffffff1602179055508281600b0160006101000a81548160ff021916908315150217905550848160090160016101000a81548160ff021916908360ff16021790555082611e455760016011600084815260200190815260200160002060003373ffffffffffffffffffffffffffffffffffffffff1673ffffffffffffffffffffffffffffffffffffffff16815260200190815260200160002060006101000a81548160ff0219169083151502179055505b600082600033604051602001611e5d93929190615576565b6040516020818303038152906040528051906020012090506001600e600083815260200190815260200160002060006101000a81548160ff021916908315150217905550611ece3330898b73ffffffffffffffffffffffffffffffffffffffff16613d7c909392919063ffffffff16565b6000611ed987612e09565b905080341015611f225734816040517f155fd467000000000000000000000000000000000000000000000000000000008152600401611f1992919061546a565b60405180910390fd5b600760009054906101000a900473ffffffffffffffffffffffffffffffffffffffff1673ffffffffffffffffffffffffffffffffffffffff166108fc829081150290604051600060405180830381858888f19350505050158015611f8a573d6000803e3d6000fd5b508034111561200c5760003373ffffffffffffffffffffffffffffffffffffffff168234611fb89190615613565b604051611fc490615678565b60006040518083038185875af1925050503d8060008114612001576040519150601f19603f3d011682016040523d82523d6000602084013e612006565b606091505b50509050505b3373ffffffffffffffffffffffffffffffffffffffff16847fde307469e0906e8d7a6e84aec39b533cfe12dd01b2737a0f785511261337231760405160405180910390a33373ffffffffffffffffffffffffffffffffffffffff16847f672d3f5897f7a8042cd8c8557caf58ece26929a410c3b1a66a34ccfd3460fcde60006040516120989190615a08565b60405180910390a3505050506001600081905550505050505050565b600b5481565b6000600160009054906101000a900473ffffffffffffffffffffffffffffffffffffffff16905090565b6120ec6120ba565b73ffffffffffffffffffffffffffffffffffffffff163373ffffffffffffffffffffffffffffffffffffffff16141580156121755750600360009054906101000a900473ffffffffffffffffffffffffffffffffffffffff1673ffffffffffffffffffffffffffffffffffffffff163373ffffffffffffffffffffffffffffffffffffffff1614155b156121e457336121836120ba565b600360009054906101000a900473ffffffffffffffffffffffffffffffffffffffff166040517f061db9c10000000000000000000000000000000000000000000000000000000081526004016121db93929190615a23565b60405180910390fd5b600073ffffffffffffffffffffffffffffffffffffffff168173ffffffffffffffffffffffffffffffffffffffff160361224a576040517fd92e233d00000000000000000000000000000000000000000000000000000000815260040160405180910390fd5b80600360006101000a81548173ffffffffffffffffffffffffffffffffffffffff021916908373ffffffffffffffffffffffffffffffffffffffff1602179055507fd1a6a14209a385a964d036e404cb5cfb71f4000cdb03c9366292430787261be6816040516122ba91906143df565b60405180910390a150565b6013602052816000526040600020602052806000526040600020600091509150505481565b60026000540361232f576040517f08c379a00000000000000000000000000000000000000000000000000000000081526004016123269061544a565b60405180910390fd5b60026000819055506000600d60008481526020019081526020016000209050600081600501540361239757826040517f017e57a100000000000000000000000000000000000000000000000000000000815260040161238e91906144c0565b60405180910390fd5b806004015442106123e5578060040154426040517f8868888c0000000000000000000000000000000000000000000000000000000081526004016123dc92919061546a565b60405180910390fd5b6011600084815260200190815260200160002060008373ffffffffffffffffffffffffffffffffffffffff1673ffffffffffffffffffffffffffffffffffffffff16815260200190815260200160002060009054906101000a900460ff1615801561245f575080600b0160009054906101000a900460ff16155b156124a35781836040517f8626cc0300000000000000000000000000000000000000000000000000000000815260040161249a9291906154ae565b60405180910390fd5b60008160030160009054906101000a900463ffffffff1663ffffffff16036125045733836040517f8626cc030000000000000000000000000000000000000000000000000000000081526004016124fb9291906154ae565b60405180910390fd5b600e60008460018460030160009054906101000a900463ffffffff1661252a919061568d565b8560405160200161253d93929190615576565b60405160208183030381529060405280519060200120815260200190815260200160002060009054906101000a900460ff166125b25781836040517f8626cc030000000000000000000000000000000000000000000000000000000081526004016125a99291906154ae565b60405180910390fd5b6000838260030160009054906101000a900463ffffffff16846040516020016125dd93929190615576565b604051602081830303815290604052805190602001209050600e600082815260200190815260200160002060009054906101000a900460ff161561267057838260030160009054906101000a900463ffffffff16846040517f0beb1aac000000000000000000000000000000000000000000000000000000008152600401612667939291906155b3565b60405180910390fd5b816007015482600501600082825461268891906156c5565b9250508190555081600a01839080600181540180825580915050600190039060005260206000200160009091909190916101000a81548173ffffffffffffffffffffffffffffffffffffffff021916908373ffffffffffffffffffffffffffffffffffffffff1602179055506001600e600083815260200190815260200160002060006101000a81548160ff021916908315150217905550612775833084600701548560060160009054906101000a900473ffffffffffffffffffffffffffffffffffffffff1673ffffffffffffffffffffffffffffffffffffffff16613d7c909392919063ffffffff16565b8273ffffffffffffffffffffffffffffffffffffffff16847f672d3f5897f7a8042cd8c8557caf58ece26929a410c3b1a66a34ccfd3460fcde8460030160009054906101000a900463ffffffff166040516127d09190614625565b60405180910390a3505060016000819055505050565b60065481565b600360009054906101000a900473ffffffffffffffffffffffffffffffffffffffff1681565b600960009054906101000a900473ffffffffffffffffffffffffffffffffffffffff1681565b60005b8282905081101561287b5761286883838381811061285c5761285b6152af565b5b90506020020135613456565b8080612873906152de565b91505061283b565b505050565b600c60009054906101000a900461ffff1681565b600860009054906101000a900473ffffffffffffffffffffffffffffffffffffffff1673ffffffffffffffffffffffffffffffffffffffff163373ffffffffffffffffffffffffffffffffffffffff1614612924576040517f08c379a000000000000000000000000000000000000000000000000000000000815260040161291b906151f5565b60405180910390fd5b600073ffffffffffffffffffffffffffffffffffffffff168173ffffffffffffffffffffffffffffffffffffffff1603612993576040517f08c379a000000000000000000000000000000000000000000000000000000000815260040161298a90615aa6565b60405180910390fd5b6001601060008373ffffffffffffffffffffffffffffffffffffffff1673ffffffffffffffffffffffffffffffffffffffff16815260200190815260200160002060006101000a81548160ff02191690831515021790555050565b6060600d6000838152602001908152602001600020600a01805480602002602001604051908101604052809291908181526020018280548015612a8657602002820191906000526020600020905b8160009054906101000a900473ffffffffffffffffffffffffffffffffffffffff1673ffffffffffffffffffffffffffffffffffffffff1681526020019060010190808311612a3c575b50505050509050919050565b600d6020528060005260406000206000915090508060000154908060010160009054906101000a900473ffffffffffffffffffffffffffffffffffffffff1690806002018054612ae190615728565b80601f0160208091040260200160405190810160405280929190818152602001828054612b0d90615728565b8015612b5a5780601f10612b2f57610100808354040283529160200191612b5a565b820191906000526020600020905b815481529060010190602001808311612b3d57829003601f168201915b5050505050908060030160009054906101000a900463ffffffff16908060040154908060050154908060060160009054906101000a900473ffffffffffffffffffffffffffffffffffffffff16908060070154908060080154908060090160009054906101000a900460ff16908060090160019054906101000a900460ff169080600b0160009054906101000a900460ff1690508c565b6000600d600085815260200190815260200160002090508060010160009054906101000a900473ffffffffffffffffffffffffffffffffffffffff1673ffffffffffffffffffffffffffffffffffffffff163373ffffffffffffffffffffffffffffffffffffffff1614612c9e5733846040517f3872341e000000000000000000000000000000000000000000000000000000008152600401612c959291906154ae565b60405180910390fd5b60005b83839050811015612dfc576000848483818110612cc157612cc06152af565b5b9050602002016020810190612cd69190614c38565b90506011600087815260200190815260200160002060008273ffffffffffffffffffffffffffffffffffffffff1673ffffffffffffffffffffffffffffffffffffffff16815260200190815260200160002060009054906101000a900460ff16612de85760016011600088815260200190815260200160002060008373ffffffffffffffffffffffffffffffffffffffff1673ffffffffffffffffffffffffffffffffffffffff16815260200190815260200160002060006101000a81548160ff0219169083151502179055508073ffffffffffffffffffffffffffffffffffffffff16867f1a93957e2514306f9c62a03c9d38f41d87e9192c4bff4ba40eb834d92c6c728060405160405180910390a35b508080612df4906152de565b915050612ca1565b5050505050565b60045481565b60008060008360ff1614612e1d5782612e20565b60ff5b60ff16905080600654612e339190615244565b600554612e4091906156c5565b915050919050565b606060126000838152602001908152602001600020805480602002602001604051908101604052809291908181526020016000905b82821015612f4a57838290600052602060002090600302016040518060600160405290816000820160009054906101000a900473ffffffffffffffffffffffffffffffffffffffff1673ffffffffffffffffffffffffffffffffffffffff1673ffffffffffffffffffffffffffffffffffffffff168152602001600182015481526020016002820160009054906101000a900460ff166002811115612f2557612f2461485c565b5b6002811115612f3757612f3661485c565b5b8152505081526020019060010190612e7d565b505050509050919050565b80601360008573ffffffffffffffffffffffffffffffffffffffff1673ffffffffffffffffffffffffffffffffffffffff16815260200190815260200160002060008473ffffffffffffffffffffffffffffffffffffffff1673ffffffffffffffffffffffffffffffffffffffff168152602001908152602001600020541015613014576040517f08c379a000000000000000000000000000000000000000000000000000000000815260040161300b90615b12565b60405180910390fd5b80601360008573ffffffffffffffffffffffffffffffffffffffff1673ffffffffffffffffffffffffffffffffffffffff16815260200190815260200160002060008473ffffffffffffffffffffffffffffffffffffffff1673ffffffffffffffffffffffffffffffffffffffff16815260200190815260200160002060008282546130a09190615613565b925050819055506130d283828473ffffffffffffffffffffffffffffffffffffffff16613e059092919063ffffffff16565b505050565b60005b8282905081101561312957613116848484848181106130fc576130fb6152af565b5b90506020020160208101906131119190614c38565b6122ea565b8080613121906152de565b9150506130da565b50505050565b6000600d60008381526020019081526020016000209050600081600501540361318f57816040517f017e57a100000000000000000000000000000000000000000000000000000000815260040161318691906144c0565b60405180910390fd5b80600401544210156131de578060040154426040517f3bd404330000000000000000000000000000000000000000000000000000000081526004016131d592919061546a565b60405180910390fd5b60005b81600a01805490508110156132cd57600f60008484600a01848154811061320b5761320a6152af565b5b9060005260206000200160009054906101000a900473ffffffffffffffffffffffffffffffffffffffff16604051602001613247929190615b32565b60405160208183030381529060405280519060200120815260200190815260200160002060009054906101000a900460ff166132ba57826040517fd2471cf80000000000000000000000000000000000000000000000000000000081526004016132b191906144c0565b60405180910390fd5b80806132c5906152de565b9150506131e1565b506000816005018190555060008160060160009054906101000a900473ffffffffffffffffffffffffffffffffffffffff16905060008260070154905060005b83600a018054905081101561340257816013600086600a018481548110613337576133366152af565b5b9060005260206000200160009054906101000a900473ffffffffffffffffffffffffffffffffffffffff1673ffffffffffffffffffffffffffffffffffffffff1673ffffffffffffffffffffffffffffffffffffffff16815260200190815260200160002060008573ffffffffffffffffffffffffffffffffffffffff1673ffffffffffffffffffffffffffffffffffffffff16815260200190815260200160002060008282546133e891906156c5565b9250508190555080806133fa906152de565b91505061330d565b50837f09f73e7c1cfe948731316069115856105587fb9681d754a0037165a8a8cfe1f760405160405180910390a250505050565b60106020528060005260406000206000915054906101000a900460ff1681565b6000600d6000838152602001908152602001600020905060008160050154036134b657816040517f017e57a10000000000000000000000000000000000000000000000000000000081526004016134ad91906144c0565b60405180910390fd5b8060040154421015613505578060040154426040517f3bd404330000000000000000000000000000000000000000000000000000000081526004016134fc92919061546a565b60405180910390fd5b6000600960009054906101000a900473ffffffffffffffffffffffffffffffffffffffff1673ffffffffffffffffffffffffffffffffffffffff16639b1c385e6040518060c00160405280600a548152602001600b548152602001600c60009054906101000a900461ffff1661ffff168152602001600c60029054906101000a900463ffffffff1663ffffffff168152602001600163ffffffff1681526020016135bf604051806020016040528060011515815250613e8b565b8152506040518263ffffffff1660e01b81526004016135de9190615c5e565b6020604051808303816000875af11580156135fd573d6000803e3d6000fd5b505050506040513d601f19601f820116820180604052508101906136219190615c95565b90508260146000838152602001908152602001600020819055508160030160009054906101000a900463ffffffff166015600083815260200190815260200160002060006101000a81548163ffffffff021916908363ffffffff160217905550505050565b600860009054906101000a900473ffffffffffffffffffffffffffffffffffffffff1673ffffffffffffffffffffffffffffffffffffffff163373ffffffffffffffffffffffffffffffffffffffff1614613716576040517f08c379a000000000000000000000000000000000000000000000000000000000815260040161370d906151f5565b60405180910390fd5b600073ffffffffffffffffffffffffffffffffffffffff168173ffffffffffffffffffffffffffffffffffffffff1603613785576040517f08c379a000000000000000000000000000000000000000000000000000000000815260040161377c90615d0e565b60405180910390fd5b80600760006101000a81548173ffffffffffffffffffffffffffffffffffffffff021916908373ffffffffffffffffffffffffffffffffffffffff16021790555050565b6137d1613f23565b6137da81613fb5565b50565b600860009054906101000a900473ffffffffffffffffffffffffffffffffffffffff1673ffffffffffffffffffffffffffffffffffffffff163373ffffffffffffffffffffffffffffffffffffffff161461386d576040517f08c379a0000000000000000000000000000000000000000000000000000000008152600401613864906151f5565b60405180910390fd5b600073ffffffffffffffffffffffffffffffffffffffff168173ffffffffffffffffffffffffffffffffffffffff16036138dc576040517f08c379a00000000000000000000000000000000000000000000000000000000081526004016138d390615d7a565b60405180910390fd5b80600960006101000a81548173ffffffffffffffffffffffffffffffffffffffff021916908373ffffffffffffffffffffffffffffffffffffffff16021790555050565b60006014600085815260200190815260200160002054905060006015600086815260200190815260200160002060009054906101000a900463ffffffff1690506000600d60008481526020019081526020016000209050600081600a018054905090506000818787600081811061399a576139996152af565b5b905060200201356139ab9190615dc9565b9050600083600a0182815481106139c5576139c46152af565b5b9060005260206000200160009054906101000a900473ffffffffffffffffffffffffffffffffffffffff1690506001600f60008884604051602001613a0b929190615b32565b60405160208183030381529060405280519060200120815260200190815260200160002060006101000a81548160ff021916908315150217905550600060018560090160009054906101000a900460ff16613a669190615dfa565b60ff168663ffffffff1614613a7f578460070154613a82565b60005b90506000818660050154613a969190615613565b90508273ffffffffffffffffffffffffffffffffffffffff16887fc2518a56896ff30efc4b0de222d91241ad29d5e347b5dc1465e1f28bbc6c4ac2838a604051613ae1929190615e2f565b60405180910390a380601360008573ffffffffffffffffffffffffffffffffffffffff1673ffffffffffffffffffffffffffffffffffffffff16815260200190815260200160002060008860060160009054906101000a900473ffffffffffffffffffffffffffffffffffffffff1673ffffffffffffffffffffffffffffffffffffffff1673ffffffffffffffffffffffffffffffffffffffff1681526020019081526020016000206000828254613b9991906156c5565b9250508190555060018660090160009054906101000a900460ff16613bbe9190615dfa565b60ff168763ffffffff1603613bdc5760008660050181905550613d6f565b600187613be99190615e58565b8660030160006101000a81548163ffffffff021916908363ffffffff16021790555081866005018190555085600a016000613c249190614360565b85600a01839080600181540180825580915050600190039060005260206000200160009091909190916101000a81548173ffffffffffffffffffffffffffffffffffffffff021916908373ffffffffffffffffffffffffffffffffffffffff1602179055506001600e60008a8960030160009054906101000a900463ffffffff1687604051602001613cb893929190615576565b60405160208183030381529060405280519060200120815260200190815260200160002060006101000a81548160ff0219169083151502179055508273ffffffffffffffffffffffffffffffffffffffff16887f672d3f5897f7a8042cd8c8557caf58ece26929a410c3b1a66a34ccfd3460fcde8860030160009054906101000a900463ffffffff16604051613d4e9190614625565b60405180910390a3856008015442613d6691906156c5565b86600401819055505b5050505050505050505050565b613dff846323b872dd60e01b858585604051602401613d9d93929190615e90565b604051602081830303815290604052907bffffffffffffffffffffffffffffffffffffffffffffffffffffffff19166020820180517bffffffffffffffffffffffffffffffffffffffffffffffffffffffff83818316178352505050506140e3565b50505050565b613e868363a9059cbb60e01b8484604051602401613e249291906154ae565b604051602081830303815290604052907bffffffffffffffffffffffffffffffffffffffffffffffffffffffff19166020820180517bffffffffffffffffffffffffffffffffffffffffffffffffffffffff83818316178352505050506140e3565b505050565b60607f92fd13387c7fe7befbc38d303d6468778fb9731bc4583f17d92989c6fcfdeaaa82604051602401613ebf9190615ef2565b604051602081830303815290604052907bffffffffffffffffffffffffffffffffffffffffffffffffffffffff19166020820180517bffffffffffffffffffffffffffffffffffffffffffffffffffffffff83818316178352505050509050919050565b600160009054906101000a900473ffffffffffffffffffffffffffffffffffffffff1673ffffffffffffffffffffffffffffffffffffffff163373ffffffffffffffffffffffffffffffffffffffff1614613fb3576040517f08c379a0000000000000000000000000000000000000000000000000000000008152600401613faa90615f59565b60405180910390fd5b565b3373ffffffffffffffffffffffffffffffffffffffff168173ffffffffffffffffffffffffffffffffffffffff1603614023576040517f08c379a000000000000000000000000000000000000000000000000000000000815260040161401a90615fc5565b60405180910390fd5b80600260006101000a81548173ffffffffffffffffffffffffffffffffffffffff021916908373ffffffffffffffffffffffffffffffffffffffff1602179055508073ffffffffffffffffffffffffffffffffffffffff16600160009054906101000a900473ffffffffffffffffffffffffffffffffffffffff1673ffffffffffffffffffffffffffffffffffffffff167fed8889f560326eb138920d842192f0eb3dd22b4f139c87a2c57538e05bae127860405160405180910390a350565b6000614145826040518060400160405280602081526020017f5361666545524332303a206c6f772d6c6576656c2063616c6c206661696c65648152508573ffffffffffffffffffffffffffffffffffffffff166141aa9092919063ffffffff16565b90506000815111156141a557808060200190518101906141659190615ffa565b6141a4576040517f08c379a000000000000000000000000000000000000000000000000000000000815260040161419b90616099565b60405180910390fd5b5b505050565b60606141b984846000856141c2565b90509392505050565b606082471015614207576040517f08c379a00000000000000000000000000000000000000000000000000000000081526004016141fe9061612b565b60405180910390fd5b614210856142d6565b61424f576040517f08c379a000000000000000000000000000000000000000000000000000000000815260040161424690616197565b60405180910390fd5b6000808673ffffffffffffffffffffffffffffffffffffffff16858760405161427891906161e8565b60006040518083038185875af1925050503d80600081146142b5576040519150601f19603f3d011682016040523d82523d6000602084013e6142ba565b606091505b50915091506142ca8282866142f9565b92505050949350505050565b6000808273ffffffffffffffffffffffffffffffffffffffff163b119050919050565b6060831561430957829050614359565b60008351111561431c5782518084602001fd5b816040517f08c379a00000000000000000000000000000000000000000000000000000000081526004016143509190616243565b60405180910390fd5b9392505050565b508054600082559060005260206000209081019061437e9190614381565b50565b5b8082111561439a576000816000905550600101614382565b5090565b600073ffffffffffffffffffffffffffffffffffffffff82169050919050565b60006143c98261439e565b9050919050565b6143d9816143be565b82525050565b60006020820190506143f460008301846143d0565b92915050565b6000604051905090565b600080fd5b600080fd5b6000819050919050565b6144218161440e565b811461442c57600080fd5b50565b60008135905061443e81614418565b92915050565b6000806040838503121561445b5761445a614404565b5b60006144698582860161442f565b925050602061447a8582860161442f565b9150509250929050565b60006020828403121561449a57614499614404565b5b60006144a88482850161442f565b91505092915050565b6144ba8161440e565b82525050565b60006020820190506144d560008301846144b1565b92915050565b600060ff82169050919050565b6144f1816144db565b81146144fc57600080fd5b50565b60008135905061450e816144e8565b92915050565b60006020828403121561452a57614529614404565b5b6000614538848285016144ff565b91505092915050565b600080fd5b600080fd5b600080fd5b60008083601f84011261456657614565614541565b5b8235905067ffffffffffffffff81111561458357614582614546565b5b60208301915083602082028301111561459f5761459e61454b565b5b9250929050565b6000806000604084860312156145bf576145be614404565b5b60006145cd8682870161442f565b935050602084013567ffffffffffffffff8111156145ee576145ed614409565b5b6145fa86828701614550565b92509250509250925092565b600063ffffffff82169050919050565b61461f81614606565b82525050565b600060208201905061463a6000830184614616565b92915050565b6000806020838503121561465757614656614404565b5b600083013567ffffffffffffffff81111561467557614674614409565b5b61468185828601614550565b92509250509250929050565b6000819050919050565b6146a08161468d565b81146146ab57600080fd5b50565b6000813590506146bd81614697565b92915050565b600061ffff82169050919050565b6146da816146c3565b81146146e557600080fd5b50565b6000813590506146f7816146d1565b92915050565b61470681614606565b811461471157600080fd5b50565b600081359050614723816146fd565b92915050565b6000806000806080858703121561474357614742614404565b5b6000614751878288016146ae565b94505060206147628782880161442f565b9350506040614773878288016146e8565b925050606061478487828801614714565b91505092959194509250565b614799816143be565b81146147a457600080fd5b50565b6000813590506147b681614790565b92915050565b600080604083850312156147d3576147d2614404565b5b60006147e18582860161442f565b92505060206147f2858286016147a7565b9150509250929050565b60008115159050919050565b614811816147fc565b82525050565b600060208201905061482c6000830184614808565b92915050565b61483b8161468d565b82525050565b60006020820190506148566000830184614832565b92915050565b7f4e487b7100000000000000000000000000000000000000000000000000000000600052602160045260246000fd5b6003811061489c5761489b61485c565b5b50565b60008190506148ad8261488b565b919050565b60006148bd8261489f565b9050919050565b6148cd816148b2565b82525050565b60006060820190506148e860008301866143d0565b6148f560208301856144b1565b61490260408301846148c4565b949350505050565b6000602082840312156149205761491f614404565b5b600061492e848285016146ae565b91505092915050565b60008083601f84011261494d5761494c614541565b5b8235905067ffffffffffffffff81111561496a57614969614546565b5b6020830191508360208202830111156149865761498561454b565b5b9250929050565b6000806000806000606086880312156149a9576149a8614404565b5b600086013567ffffffffffffffff8111156149c7576149c6614409565b5b6149d388828901614937565b955095505060206149e6888289016147a7565b935050604086013567ffffffffffffffff811115614a0757614a06614409565b5b614a1388828901614550565b92509250509295509295909350565b600080fd5b6000601f19601f8301169050919050565b7f4e487b7100000000000000000000000000000000000000000000000000000000600052604160045260246000fd5b614a7082614a27565b810181811067ffffffffffffffff82111715614a8f57614a8e614a38565b5b80604052505050565b6000614aa26143fa565b9050614aae8282614a67565b919050565b600067ffffffffffffffff821115614ace57614acd614a38565b5b614ad782614a27565b9050602081019050919050565b82818337600083830152505050565b6000614b06614b0184614ab3565b614a98565b905082815260208101848484011115614b2257614b21614a22565b5b614b2d848285614ae4565b509392505050565b600082601f830112614b4a57614b49614541565b5b8135614b5a848260208601614af3565b91505092915050565b614b6c816147fc565b8114614b7757600080fd5b50565b600081359050614b8981614b63565b92915050565b60008060008060008060c08789031215614bac57614bab614404565b5b600087013567ffffffffffffffff811115614bca57614bc9614409565b5b614bd689828a01614b35565b9650506020614be789828a016147a7565b9550506040614bf889828a0161442f565b9450506060614c0989828a016144ff565b9350506080614c1a89828a0161442f565b92505060a0614c2b89828a01614b7a565b9150509295509295509295565b600060208284031215614c4e57614c4d614404565b5b6000614c5c848285016147a7565b91505092915050565b60008060408385031215614c7c57614c7b614404565b5b6000614c8a858286016147a7565b9250506020614c9b858286016147a7565b9150509250929050565b6000819050919050565b6000614cca614cc5614cc08461439e565b614ca5565b61439e565b9050919050565b6000614cdc82614caf565b9050919050565b6000614cee82614cd1565b9050919050565b614cfe81614ce3565b82525050565b6000602082019050614d196000830184614cf5565b92915050565b6000614d2a82614cd1565b9050919050565b614d3a81614d1f565b82525050565b6000602082019050614d556000830184614d31565b92915050565b614d64816146c3565b82525050565b6000602082019050614d7f6000830184614d5b565b92915050565b600081519050919050565b600082825260208201905092915050565b6000819050602082019050919050565b614dba816143be565b82525050565b6000614dcc8383614db1565b60208301905092915050565b6000602082019050919050565b6000614df082614d85565b614dfa8185614d90565b9350614e0583614da1565b8060005b83811015614e36578151614e1d8882614dc0565b9750614e2883614dd8565b925050600181019050614e09565b5085935050505092915050565b60006020820190508181036000830152614e5d8184614de5565b905092915050565b600081519050919050565b600082825260208201905092915050565b60005b83811015614e9f578082015181840152602081019050614e84565b60008484015250505050565b6000614eb682614e65565b614ec08185614e70565b9350614ed0818560208601614e81565b614ed981614a27565b840191505092915050565b614eed816144db565b82525050565b600061018082019050614f09600083018f6144b1565b614f16602083018e6143d0565b8181036040830152614f28818d614eab565b9050614f37606083018c614616565b614f44608083018b6144b1565b614f5160a083018a6144b1565b614f5e60c08301896143d0565b614f6b60e08301886144b1565b614f796101008301876144b1565b614f87610120830186614ee4565b614f95610140830185614ee4565b614fa3610160830184614808565b9d9c50505050505050505050505050565b600080600060408486031215614fcd57614fcc614404565b5b6000614fdb8682870161442f565b935050602084013567ffffffffffffffff811115614ffc57614ffb614409565b5b61500886828701614937565b92509250509250925092565b600081519050919050565b600082825260208201905092915050565b6000819050602082019050919050565b6150498161440e565b82525050565b615058816148b2565b82525050565b6060820160008201516150746000850182614db1565b5060208201516150876020850182615040565b50604082015161509a604085018261504f565b50505050565b60006150ac838361505e565b60608301905092915050565b6000602082019050919050565b60006150d082615014565b6150da818561501f565b93506150e583615030565b8060005b838110156151165781516150fd88826150a0565b9750615108836150b8565b9250506001810190506150e9565b5085935050505092915050565b6000602082019050818103600083015261513d81846150c5565b905092915050565b60008060006060848603121561515e5761515d614404565b5b600061516c868287016147a7565b935050602061517d868287016147a7565b925050604061518e8682870161442f565b9150509250925092565b600082825260208201905092915050565b7f4e6f742074686520706f746c75636b206f776e65720000000000000000000000600082015250565b60006151df601583615198565b91506151ea826151a9565b602082019050919050565b6000602082019050818103600083015261520e816151d2565b9050919050565b7f4e487b7100000000000000000000000000000000000000000000000000000000600052601160045260246000fd5b600061524f8261440e565b915061525a8361440e565b92508282026152688161440e565b9150828204841483151761527f5761527e615215565b5b5092915050565b600060408201905061529b60008301856143d0565b6152a860208301846143d0565b9392505050565b7f4e487b7100000000000000000000000000000000000000000000000000000000600052603260045260246000fd5b60006152e98261440e565b91507fffffffffffffffffffffffffffffffffffffffffffffffffffffffffffffffff820361531b5761531a615215565b5b600182019050919050565b7f4e6f2062616c616e636520746f20776974686472617700000000000000000000600082015250565b600061535c601683615198565b915061536782615326565b602082019050919050565b6000602082019050818103600083015261538b8161534f565b9050919050565b7f4d7573742062652070726f706f736564206f776e657200000000000000000000600082015250565b60006153c8601683615198565b91506153d382615392565b602082019050919050565b600060208201905081810360008301526153f7816153bb565b9050919050565b7f5265656e7472616e637947756172643a207265656e7472616e742063616c6c00600082015250565b6000615434601f83615198565b915061543f826153fe565b602082019050919050565b6000602082019050818103600083015261546381615427565b9050919050565b600060408201905061547f60008301856144b1565b61548c60208301846144b1565b9392505050565b60006020820190506154a86000830184614ee4565b92915050565b60006040820190506154c360008301856143d0565b6154d060208301846144b1565b9392505050565b6000819050919050565b6154f26154ed8261440e565b6154d7565b82525050565b60008160e01b9050919050565b6000615510826154f8565b9050919050565b61552861552382614606565b615505565b82525050565b60008160601b9050919050565b60006155468261552e565b9050919050565b60006155588261553b565b9050919050565b61557061556b826143be565b61554d565b82525050565b600061558282866154e1565b6020820191506155928285615517565b6004820191506155a2828461555f565b601482019150819050949350505050565b60006060820190506155c860008301866144b1565b6155d56020830185614616565b6155e260408301846143d0565b949350505050565b60006155f5826144db565b915060ff820361560857615607615215565b5b600182019050919050565b600061561e8261440e565b91506156298361440e565b925082820390508181111561564157615640615215565b5b92915050565b600081905092915050565b50565b6000615662600083615647565b915061566d82615652565b600082019050919050565b600061568382615655565b9150819050919050565b600061569882614606565b91506156a383614606565b9250828203905063ffffffff8111156156bf576156be615215565b5b92915050565b60006156d08261440e565b91506156db8361440e565b92508282019050808211156156f3576156f2615215565b5b92915050565b7f4e487b7100000000000000000000000000000000000000000000000000000000600052602260045260246000fd5b6000600282049050600182168061574057607f821691505b602082108103615753576157526156f9565b5b50919050565b60008190508160005260206000209050919050565b60006020601f8301049050919050565b600082821b905092915050565b6000600883026157bb7fffffffffffffffffffffffffffffffffffffffffffffffffffffffffffffffff8261577e565b6157c5868361577e565b95508019841693508086168417925050509392505050565b60006157f86157f36157ee8461440e565b614ca5565b61440e565b9050919050565b6000819050919050565b615812836157dd565b61582661581e826157ff565b84845461578b565b825550505050565b600090565b61583b61582e565b615846818484615809565b505050565b5b8181101561586a5761585f600082615833565b60018101905061584c565b5050565b601f8211156158af5761588081615759565b6158898461576e565b81016020851015615898578190505b6158ac6158a48561576e565b83018261584b565b50505b505050565b600082821c905092915050565b60006158d2600019846008026158b4565b1980831691505092915050565b60006158eb83836158c1565b9150826002028217905092915050565b61590482614e65565b67ffffffffffffffff81111561591d5761591c614a38565b5b6159278254615728565b61593282828561586e565b600060209050601f8311600181146159655760008415615953578287015190505b61595d85826158df565b8655506159c5565b601f19841661597386615759565b60005b8281101561599b57848901518255600182019150602085019450602081019050615976565b868310156159b857848901516159b4601f8916826158c1565b8355505b6001600288020188555050505b505050505050565b6000819050919050565b60006159f26159ed6159e8846159cd565b614ca5565b614606565b9050919050565b615a02816159d7565b82525050565b6000602082019050615a1d60008301846159f9565b92915050565b6000606082019050615a3860008301866143d0565b615a4560208301856143d0565b615a5260408301846143d0565b949350505050565b7f496e76616c696420746f6b656e20616464726573730000000000000000000000600082015250565b6000615a90601583615198565b9150615a9b82615a5a565b602082019050919050565b60006020820190508181036000830152615abf81615a83565b9050919050565b7f496e73756666696369656e742062616c616e6365000000000000000000000000600082015250565b6000615afc601483615198565b9150615b0782615ac6565b602082019050919050565b60006020820190508181036000830152615b2b81615aef565b9050919050565b6000615b3e82856154e1565b602082019150615b4e828461555f565b6014820191508190509392505050565b615b678161468d565b82525050565b615b76816146c3565b82525050565b615b8581614606565b82525050565b600082825260208201905092915050565b6000615ba782614e65565b615bb18185615b8b565b9350615bc1818560208601614e81565b615bca81614a27565b840191505092915050565b600060c083016000830151615bed6000860182615b5e565b506020830151615c006020860182615040565b506040830151615c136040860182615b6d565b506060830151615c266060860182615b7c565b506080830151615c396080860182615b7c565b5060a083015184820360a0860152615c518282615b9c565b9150508091505092915050565b60006020820190508181036000830152615c788184615bd5565b905092915050565b600081519050615c8f81614418565b92915050565b600060208284031215615cab57615caa614404565b5b6000615cb984828501615c80565b91505092915050565b7f496e76616c696420747265617375727920616464726573730000000000000000600082015250565b6000615cf8601883615198565b9150615d0382615cc2565b602082019050919050565b60006020820190508181036000830152615d2781615ceb565b9050919050565b7f496e76616c69642056524620436f6f7264696e61746f72206164647265737300600082015250565b6000615d64601f83615198565b9150615d6f82615d2e565b602082019050919050565b60006020820190508181036000830152615d9381615d57565b9050919050565b7f4e487b7100000000000000000000000000000000000000000000000000000000600052601260045260246000fd5b6000615dd48261440e565b9150615ddf8361440e565b925082615def57615dee615d9a565b5b828206905092915050565b6000615e05826144db565b9150615e10836144db565b9250828203905060ff811115615e2957615e28615215565b5b92915050565b6000604082019050615e4460008301856144b1565b615e516020830184614616565b9392505050565b6000615e6382614606565b9150615e6e83614606565b9250828201905063ffffffff811115615e8a57615e89615215565b5b92915050565b6000606082019050615ea560008301866143d0565b615eb260208301856143d0565b615ebf60408301846144b1565b949350505050565b615ed0816147fc565b82525050565b602082016000820151615eec6000850182615ec7565b50505050565b6000602082019050615f076000830184615ed6565b92915050565b7f4f6e6c792063616c6c61626c65206279206f776e657200000000000000000000600082015250565b6000615f43601683615198565b9150615f4e82615f0d565b602082019050919050565b60006020820190508181036000830152615f7281615f36565b9050919050565b7f43616e6e6f74207472616e7366657220746f2073656c66000000000000000000600082015250565b6000615faf601783615198565b9150615fba82615f79565b602082019050919050565b60006020820190508181036000830152615fde81615fa2565b9050919050565b600081519050615ff481614b63565b92915050565b6000602082840312156160105761600f614404565b5b600061601e84828501615fe5565b91505092915050565b7f5361666545524332303a204552433230206f7065726174696f6e20646964206e60008201527f6f74207375636365656400000000000000000000000000000000000000000000602082015250565b6000616083602a83615198565b915061608e82616027565b604082019050919050565b600060208201905081810360008301526160b281616076565b9050919050565b7f416464726573733a20696e73756666696369656e742062616c616e636520666f60008201527f722063616c6c0000000000000000000000000000000000000000000000000000602082015250565b6000616115602683615198565b9150616120826160b9565b604082019050919050565b6000602082019050818103600083015261614481616108565b9050919050565b7f416464726573733a2063616c6c20746f206e6f6e2d636f6e7472616374000000600082015250565b6000616181601d83615198565b915061618c8261614b565b602082019050919050565b600060208201905081810360008301526161b081616174565b9050919050565b60006161c282614e65565b6161cc8185615647565b93506161dc818560208601614e81565b80840191505092915050565b60006161f482846161b7565b915081905092915050565b600081519050919050565b6000616215826161ff565b61621f8185615198565b935061622f818560208601614e81565b61623881614a27565b840191505092915050565b6000602082019050818103600083015261625d818461620a565b90509291505056fea2646970667358221220d739d7bf8bb7f65df4d892825850f927abd44187d7f6e7f8ee8a790bf29d489364736f6c63430008130033","linkReferences":{}},"methodIdentifiers":{"acceptOwnership()":"79ba5097","allowParticipants(uint256,address[])":"c5072ca8","allowToken(address)":"b53472ef","allowedTokens(address)":"e744092e","callbackGasLimit()":"24f74697","createPot(bytes,address,uint256,uint8,uint256,bool)":"8661ffca","endBatch(uint256[])":"2fd99712","endPot(uint256)":"e0321cd4","getCreatorFee(uint8)":"d1abb12a","getParticipantFee(uint8)":"13f2cef9","getParticipants(uint256)":"c1e3bd3e","getRequests(uint256)":"d5e78829","hasJoinedRound(bytes32)":"7a4f4436","hasWon(bytes32)":"6b7fd007","isAllowed(uint256,address)":"5faa299a","joinOnBehalf(uint256,address)":"9999fea0","joinPot(uint256)":"831d49ef","keyHash()":"61728f39","owner()":"8da5cb5b","participantFee()":"9c031ace","platformFee()":"26232a2e","potCount()":"cf72f230","potluckOwner()":"09c1f8ff","pots(uint256)":"c3c3df4f","rawFulfillRandomWords(uint256,uint256[])":"1fe543e3","requestConfirmations()":"b0fb162f","requestPotAllow(uint256)":"65c7444d","requestToPot(uint256)":"1301cd25","requestToRound(uint256)":"385542f0","requestedParticipants(uint256,uint256)":"61734cd6","s_subscriptionId()":"8ac00021","s_vrfCoordinator()":"9eccacf6","setChainlinkVRF(address)":"f39c5d51","setChainlinkVRF(bytes32,uint256,uint16,uint32)":"3bb2261d","setCoordinator(address)":"8ea98117","setFees(uint256,uint256)":"0b78f9c0","setTreasury(address)":"f0f44260","transferOwnership(address)":"f2fde38b","treasury()":"61d027b3","triggerBatchJoinOnBehalf(uint256,address[])":"de1149b3","triggerBatchPayout(uint256[])":"a88390dc","triggerPotPayout(uint256)":"e90c88fe","vrfCoordinator()":"a3e56fa8","withdraw()":"3ccfd60b","withdraw(address,address,uint256)":"d9caed12","withdrawBatch(address[],address,uint256[])":"8657dfcb","withdrawalBalances(address,address)":"908fe934"},"id":48}