{"abi":[{"type":"constructor","inputs":[{"name":"_platformFee","type":"uint256","internalType":"uint256"},{"name":"_treasury","type":"address","internalType":"address"}],"stateMutability":"nonpayable"},{"type":"function","name":"MAX_PARTICIPANTS","inputs":[],"outputs":[{"name":"","type":"uint8","internalType":"uint8"}],"stateMutability":"view"},{"type":"function","name":"allowParticipants","inputs":[{"name":"potId","type":"uint256","internalType":"uint256"},{"name":"participants","type":"address[]","internalType":"address[]"}],"outputs":[],"stateMutability":"nonpayable"},{"type":"function","name":"allowedParticipants","inputs":[{"name":"","type":"uint256","internalType":"uint256"},{"name":"","type":"uint256","internalType":"uint256"}],"outputs":[{"name":"","type":"address","internalType":"address"}],"stateMutability":"view"},{"type":"function","name":"cancelPotAllowRequest","inputs":[{"name":"potId","type":"uint256","internalType":"uint256"},{"name":"requestIndex","type":"uint256","internalType":"uint256"}],"outputs":[],"stateMutability":"nonpayable"},{"type":"function","name":"createPot","inputs":[{"name":"name","type":"bytes","internalType":"bytes"},{"name":"token","type":"address","internalType":"address"},{"name":"entryAmount","type":"uint256","internalType":"uint256"},{"name":"periodSeconds","type":"uint256","internalType":"uint256"},{"name":"isPublic","type":"bool","internalType":"bool"}],"outputs":[],"stateMutability":"nonpayable"},{"type":"function","name":"getAllowedParticipants","inputs":[{"name":"potId","type":"uint256","internalType":"uint256"}],"outputs":[{"name":"","type":"address[]","internalType":"address[]"}],"stateMutability":"view"},{"type":"function","name":"getParticipants","inputs":[{"name":"potId","type":"uint256","internalType":"uint256"}],"outputs":[{"name":"","type":"address[]","internalType":"address[]"}],"stateMutability":"view"},{"type":"function","name":"getRequests","inputs":[{"name":"potId","type":"uint256","internalType":"uint256"}],"outputs":[{"name":"","type":"tuple[]","internalType":"struct Potluck.PotRequest[]","components":[{"name":"requestor","type":"address","internalType":"address"},{"name":"timestamp","type":"uint256","internalType":"uint256"},{"name":"status","type":"uint8","internalType":"enum Potluck.PotStatus"}]}],"stateMutability":"view"},{"type":"function","name":"hasJoinedRound","inputs":[{"name":"","type":"bytes32","internalType":"bytes32"}],"outputs":[{"name":"","type":"bool","internalType":"bool"}],"stateMutability":"view"},{"type":"function","name":"hasWon","inputs":[{"name":"","type":"bytes32","internalType":"bytes32"}],"outputs":[{"name":"","type":"bool","internalType":"bool"}],"stateMutability":"view"},{"type":"function","name":"isAllowed","inputs":[{"name":"","type":"uint256","internalType":"uint256"},{"name":"","type":"address","internalType":"address"}],"outputs":[{"name":"","type":"bool","internalType":"bool"}],"stateMutability":"view"},{"type":"function","name":"joinPot","inputs":[{"name":"potId","type":"uint256","internalType":"uint256"}],"outputs":[],"stateMutability":"nonpayable"},{"type":"function","name":"owner","inputs":[],"outputs":[{"name":"","type":"address","internalType":"address"}],"stateMutability":"view"},{"type":"function","name":"platformFee","inputs":[],"outputs":[{"name":"","type":"uint256","internalType":"uint256"}],"stateMutability":"view"},{"type":"function","name":"potCount","inputs":[],"outputs":[{"name":"","type":"uint256","internalType":"uint256"}],"stateMutability":"view"},{"type":"function","name":"pots","inputs":[{"name":"","type":"uint256","internalType":"uint256"}],"outputs":[{"name":"id","type":"uint256","internalType":"uint256"},{"name":"name","type":"bytes","internalType":"bytes"},{"name":"round","type":"uint32","internalType":"uint32"},{"name":"deadline","type":"uint256","internalType":"uint256"},{"name":"balance","type":"uint256","internalType":"uint256"},{"name":"token","type":"address","internalType":"address"},{"name":"entryAmount","type":"uint256","internalType":"uint256"},{"name":"period","type":"uint256","internalType":"uint256"},{"name":"totalParticipants","type":"uint32","internalType":"uint32"},{"name":"isPublic","type":"bool","internalType":"bool"}],"stateMutability":"view"},{"type":"function","name":"renounceOwnership","inputs":[],"outputs":[],"stateMutability":"nonpayable"},{"type":"function","name":"requestPotAllow","inputs":[{"name":"potId","type":"uint256","internalType":"uint256"}],"outputs":[],"stateMutability":"nonpayable"},{"type":"function","name":"requestedParticipants","inputs":[{"name":"","type":"uint256","internalType":"uint256"},{"name":"","type":"uint256","internalType":"uint256"}],"outputs":[{"name":"requestor","type":"address","internalType":"address"},{"name":"timestamp","type":"uint256","internalType":"uint256"},{"name":"status","type":"uint8","internalType":"enum Potluck.PotStatus"}],"stateMutability":"view"},{"type":"function","name":"setPlatformFee","inputs":[{"name":"fee","type":"uint256","internalType":"uint256"}],"outputs":[],"stateMutability":"nonpayable"},{"type":"function","name":"setTreasury","inputs":[{"name":"newTreasury","type":"address","internalType":"address"}],"outputs":[],"stateMutability":"nonpayable"},{"type":"function","name":"transferOwnership","inputs":[{"name":"newOwner","type":"address","internalType":"address"}],"outputs":[],"stateMutability":"nonpayable"},{"type":"function","name":"treasury","inputs":[],"outputs":[{"name":"","type":"address","internalType":"address"}],"stateMutability":"view"},{"type":"function","name":"triggerBatchPayout","inputs":[{"name":"potIds","type":"uint256[]","internalType":"uint256[]"}],"outputs":[],"stateMutability":"nonpayable"},{"type":"function","name":"triggerPotPayout","inputs":[{"name":"potId","type":"uint256","internalType":"uint256"}],"outputs":[],"stateMutability":"nonpayable"},{"type":"event","name":"AllowedParticipantAdded","inputs":[{"name":"potId","type":"uint256","indexed":true,"internalType":"uint256"},{"name":"user","type":"address","indexed":true,"internalType":"address"}],"anonymous":false},{"type":"event","name":"OwnershipTransferred","inputs":[{"name":"previousOwner","type":"address","indexed":true,"internalType":"address"},{"name":"newOwner","type":"address","indexed":true,"internalType":"address"}],"anonymous":false},{"type":"event","name":"PotAllowRequested","inputs":[{"name":"potId","type":"uint256","indexed":true,"internalType":"uint256"},{"name":"requestor","type":"address","indexed":true,"internalType":"address"}],"anonymous":false},{"type":"event","name":"PotCreated","inputs":[{"name":"potId","type":"uint256","indexed":true,"internalType":"uint256"},{"name":"creator","type":"address","indexed":true,"internalType":"address"}],"anonymous":false},{"type":"event","name":"PotJoined","inputs":[{"name":"potId","type":"uint256","indexed":true,"internalType":"uint256"},{"name":"roundId","type":"uint32","indexed":false,"internalType":"uint32"},{"name":"user","type":"address","indexed":true,"internalType":"address"}],"anonymous":false},{"type":"event","name":"PotPayout","inputs":[{"name":"potId","type":"uint256","indexed":true,"internalType":"uint256"},{"name":"winner","type":"address","indexed":true,"internalType":"address"},{"name":"amount","type":"uint256","indexed":false,"internalType":"uint256"},{"name":"round","type":"uint32","indexed":false,"internalType":"uint32"}],"anonymous":false},{"type":"error","name":"AlreadyJoined","inputs":[{"name":"potId","type":"uint256","internalType":"uint256"},{"name":"round","type":"uint32","internalType":"uint32"},{"name":"user","type":"address","internalType":"address"}]},{"type":"error","name":"EntryAmountZero","inputs":[]},{"type":"error","name":"InsufficientFundsToRollover","inputs":[{"name":"total","type":"uint256","internalType":"uint256"},{"name":"rollover","type":"uint256","internalType":"uint256"}]},{"type":"error","name":"NoEligibleParticipants","inputs":[]},{"type":"error","name":"NotAllowed","inputs":[{"name":"user","type":"address","internalType":"address"},{"name":"potId","type":"uint256","internalType":"uint256"}]},{"type":"error","name":"NotPotCreator","inputs":[{"name":"sender","type":"address","internalType":"address"},{"name":"potId","type":"uint256","internalType":"uint256"}]},{"type":"error","name":"OwnableInvalidOwner","inputs":[{"name":"owner","type":"address","internalType":"address"}]},{"type":"error","name":"OwnableUnauthorizedAccount","inputs":[{"name":"account","type":"address","internalType":"address"}]},{"type":"error","name":"PeriodTooShort","inputs":[]},{"type":"error","name":"PotDoesNotExist","inputs":[{"name":"potId","type":"uint256","internalType":"uint256"}]},{"type":"error","name":"PotFull","inputs":[{"name":"maxParticipants","type":"uint8","internalType":"uint8"}]},{"type":"error","name":"RoundEnded","inputs":[{"name":"deadline","type":"uint256","internalType":"uint256"},{"name":"nowTimestamp","type":"uint256","internalType":"uint256"}]},{"type":"error","name":"RoundNotReady","inputs":[{"name":"deadline","type":"uint256","internalType":"uint256"},{"name":"nowTimestamp","type":"uint256","internalType":"uint256"}]},{"type":"error","name":"SafeERC20FailedOperation","inputs":[{"name":"token","type":"address","internalType":"address"}]}],"bytecode":{"object":"0x608060405234801561000f575f80fd5b5060405161356a38038061356a83398181016040528101906100319190610252565b335f73ffffffffffffffffffffffffffffffffffffffff168173ffffffffffffffffffffffffffffffffffffffff16036100a2575f6040517f1e4fbdf7000000000000000000000000000000000000000000000000000000008152600401610099919061029f565b60405180910390fd5b6100b18161010060201b60201c565b50816002819055508060035f6101000a81548173ffffffffffffffffffffffffffffffffffffffff021916908373ffffffffffffffffffffffffffffffffffffffff16021790555050506102b8565b5f805f9054906101000a900473ffffffffffffffffffffffffffffffffffffffff169050815f806101000a81548173ffffffffffffffffffffffffffffffffffffffff021916908373ffffffffffffffffffffffffffffffffffffffff1602179055508173ffffffffffffffffffffffffffffffffffffffff168173ffffffffffffffffffffffffffffffffffffffff167f8be0079c531659141344cd1fd0a4f28419497f9722a3daafe3b4186f6b6457e060405160405180910390a35050565b5f80fd5b5f819050919050565b6101d7816101c5565b81146101e1575f80fd5b50565b5f815190506101f2816101ce565b92915050565b5f73ffffffffffffffffffffffffffffffffffffffff82169050919050565b5f610221826101f8565b9050919050565b61023181610217565b811461023b575f80fd5b50565b5f8151905061024c81610228565b92915050565b5f8060408385031215610268576102676101c1565b5b5f610275858286016101e4565b92505060206102868582860161023e565b9150509250929050565b61029981610217565b82525050565b5f6020820190506102b25f830184610290565b92915050565b6132a5806102c55f395ff3fe608060405234801561000f575f80fd5b5060043610610171575f3560e01c80638da5cb5b116100dc578063c62981f811610095578063e90c88fe1161006f578063e90c88fe14610476578063f0f4426014610492578063f2fde38b146104ae578063f3baf070146104ca57610171565b8063c62981f81461040c578063cf72f23014610428578063d5e788291461044657610171565b80638da5cb5b1461031d578063a6da5bca1461033b578063a88390dc1461036b578063c1e3bd3e14610387578063c3c3df4f146103b7578063c5072ca8146103f057610171565b8063640e4b7c1161012e578063640e4b7c1461024b57806365c7444d1461027b5780636b7fd00714610297578063715018a6146102c75780637a4f4436146102d1578063831d49ef1461030157610171565b806312e8e2c31461017557806326232a2e146101915780634fc88b86146101af5780635faa299a146101cb57806361734cd6146101fb57806361d027b31461022d575b5f80fd5b61018f600480360381019061018a91906121c0565b6104e8565b005b6101996104fa565b6040516101a691906121fa565b60405180910390f35b6101c960048036038101906101c49190612213565b610500565b005b6101e560048036038101906101e091906122ab565b6106b6565b6040516101f29190612303565b60405180910390f35b61021560048036038101906102109190612213565b6106e0565b6040516102249392919061239e565b60405180910390f35b61023561074b565b60405161024291906123d3565b60405180910390f35b610265600480360381019061026091906121c0565b610770565b60405161027291906124a3565b60405180910390f35b610295600480360381019061029091906121c0565b61080c565b005b6102b160048036038101906102ac91906124f6565b61094c565b6040516102be9190612303565b60405180910390f35b6102cf610969565b005b6102eb60048036038101906102e691906124f6565b61097c565b6040516102f89190612303565b60405180910390f35b61031b600480360381019061031691906121c0565b610999565b005b610325610dca565b60405161033291906123d3565b60405180910390f35b61035560048036038101906103509190612213565b610df1565b60405161036291906123d3565b60405180910390f35b61038560048036038101906103809190612582565b610e39565b005b6103a1600480360381019061039c91906121c0565b610e7a565b6040516103ae91906124a3565b60405180910390f35b6103d160048036038101906103cc91906121c0565b610f19565b6040516103e79a9998979695949392919061265b565b60405180910390f35b61040a60048036038101906104059190612751565b611038565b005b61042660048036038101906104219190612900565b6112bd565b005b6104306116d4565b60405161043d91906121fa565b60405180910390f35b610460600480360381019061045b91906121c0565b6116da565b60405161046d9190612a99565b60405180910390f35b610490600480360381019061048b91906121c0565b6117df565b005b6104ac60048036038101906104a79190612ab9565b611d84565b005b6104c860048036038101906104c39190612ab9565b611dcf565b005b6104d2611e53565b6040516104df9190612aff565b60405180910390f35b6104f0611e58565b8060028190555050565b60025481565b5f60095f8481526020019081526020015f20828154811061052457610523612b18565b5b905f5260205f2090600302019050805f015f9054906101000a900473ffffffffffffffffffffffffffffffffffffffff1673ffffffffffffffffffffffffffffffffffffffff163373ffffffffffffffffffffffffffffffffffffffff16146105c65733836040517f8626cc030000000000000000000000000000000000000000000000000000000081526004016105bd929190612b45565b60405180910390fd5b60045f8481526020019081526020015f206009015f815481106105ec576105eb612b18565b5b905f5260205f20015f9054906101000a900473ffffffffffffffffffffffffffffffffffffffff1673ffffffffffffffffffffffffffffffffffffffff163373ffffffffffffffffffffffffffffffffffffffff16146106855733836040517f3872341e00000000000000000000000000000000000000000000000000000000815260040161067c929190612b45565b60405180910390fd5b6002816002015f6101000a81548160ff021916908360028111156106ac576106ab61232b565b5b0217905550505050565b6007602052815f5260405f20602052805f5260405f205f915091509054906101000a900460ff1681565b6009602052815f5260405f2081815481106106f9575f80fd5b905f5260205f2090600302015f9150915050805f015f9054906101000a900473ffffffffffffffffffffffffffffffffffffffff1690806001015490806002015f9054906101000a900460ff16905083565b60035f9054906101000a900473ffffffffffffffffffffffffffffffffffffffff1681565b606060085f8381526020019081526020015f2080548060200260200160405190810160405280929190818152602001828054801561080057602002820191905f5260205f20905b815f9054906101000a900473ffffffffffffffffffffffffffffffffffffffff1673ffffffffffffffffffffffffffffffffffffffff16815260200190600101908083116107b7575b50505050509050919050565b60095f8281526020019081526020015f2060405180606001604052803373ffffffffffffffffffffffffffffffffffffffff1681526020014281526020015f600281111561085d5761085c61232b565b5b815250908060018154018082558091505060019003905f5260205f2090600302015f909190919091505f820151815f015f6101000a81548173ffffffffffffffffffffffffffffffffffffffff021916908373ffffffffffffffffffffffffffffffffffffffff160217905550602082015181600101556040820151816002015f6101000a81548160ff021916908360028111156108fe576108fd61232b565b5b021790555050503373ffffffffffffffffffffffffffffffffffffffff16817f14a1608330df21406b2c36c4c92e47f22c9abd31d9df75abc4af2bdb477469bb60405160405180910390a350565b6006602052805f5260405f205f915054906101000a900460ff1681565b610971611e58565b61097a5f611edf565b565b6005602052805f5260405f205f915054906101000a900460ff1681565b5f60045f8381526020019081526020015f2090505f8160040154036109f557816040517f017e57a10000000000000000000000000000000000000000000000000000000081526004016109ec91906121fa565b60405180910390fd5b80600301544210610a43578060030154426040517f8868888c000000000000000000000000000000000000000000000000000000008152600401610a3a929190612b6c565b60405180910390fd5b606460ff16816009018054905010610a935760646040517f969559d5000000000000000000000000000000000000000000000000000000008152600401610a8a9190612aff565b60405180910390fd5b60075f8381526020019081526020015f205f3373ffffffffffffffffffffffffffffffffffffffff1673ffffffffffffffffffffffffffffffffffffffff1681526020019081526020015f205f9054906101000a900460ff16158015610b07575080600a015f9054906101000a900460ff16155b15610b4b5733826040517f8626cc03000000000000000000000000000000000000000000000000000000008152600401610b42929190612b45565b60405180910390fd5b5f82826002015f9054906101000a900463ffffffff1633604051602001610b7493929190612c2c565b60405160208183030381529060405280519060200120905060055f8281526020019081526020015f205f9054906101000a900460ff1615610c035782826002015f9054906101000a900463ffffffff16336040517f0beb1aac000000000000000000000000000000000000000000000000000000008152600401610bfa93929190612c68565b60405180910390fd5b5f826002015f9054906101000a900463ffffffff1663ffffffff1603610c6657816008015f81819054906101000a900463ffffffff1680929190610c4690612cca565b91906101000a81548163ffffffff021916908363ffffffff160217905550505b610cba33308460060154856005015f9054906101000a900473ffffffffffffffffffffffffffffffffffffffff1673ffffffffffffffffffffffffffffffffffffffff16611fa0909392919063ffffffff16565b8160060154826004015f828254610cd19190612cf5565b925050819055508160090133908060018154018082558091505060019003905f5260205f20015f9091909190916101000a81548173ffffffffffffffffffffffffffffffffffffffff021916908373ffffffffffffffffffffffffffffffffffffffff160217905550600160055f8381526020019081526020015f205f6101000a81548160ff0219169083151502179055503373ffffffffffffffffffffffffffffffffffffffff16837f672d3f5897f7a8042cd8c8557caf58ece26929a410c3b1a66a34ccfd3460fcde846002015f9054906101000a900463ffffffff16604051610dbd9190612d28565b60405180910390a3505050565b5f805f9054906101000a900473ffffffffffffffffffffffffffffffffffffffff16905090565b6008602052815f5260405f208181548110610e0a575f80fd5b905f5260205f20015f915091509054906101000a900473ffffffffffffffffffffffffffffffffffffffff1681565b5f5b82829050811015610e7557610e68838383818110610e5c57610e5b612b18565b5b905060200201356117df565b8080600101915050610e3b565b505050565b606060045f8381526020019081526020015f20600901805480602002602001604051908101604052809291908181526020018280548015610f0d57602002820191905f5260205f20905b815f9054906101000a900473ffffffffffffffffffffffffffffffffffffffff1673ffffffffffffffffffffffffffffffffffffffff1681526020019060010190808311610ec4575b50505050509050919050565b6004602052805f5260405f205f91509050805f015490806001018054610f3e90612d6e565b80601f0160208091040260200160405190810160405280929190818152602001828054610f6a90612d6e565b8015610fb55780601f10610f8c57610100808354040283529160200191610fb5565b820191905f5260205f20905b815481529060010190602001808311610f9857829003601f168201915b505050505090806002015f9054906101000a900463ffffffff1690806003015490806004015490806005015f9054906101000a900473ffffffffffffffffffffffffffffffffffffffff1690806006015490806007015490806008015f9054906101000a900463ffffffff169080600a015f9054906101000a900460ff1690508a565b5f60045f8581526020019081526020015f209050806009015f8154811061106257611061612b18565b5b905f5260205f20015f9054906101000a900473ffffffffffffffffffffffffffffffffffffffff1673ffffffffffffffffffffffffffffffffffffffff163373ffffffffffffffffffffffffffffffffffffffff16146110fb5733846040517f3872341e0000000000000000000000000000000000000000000000000000000081526004016110f2929190612b45565b60405180910390fd5b5f5b838390508110156112b6575f84848381811061111c5761111b612b18565b5b90506020020160208101906111319190612ab9565b905060075f8781526020019081526020015f205f8273ffffffffffffffffffffffffffffffffffffffff1673ffffffffffffffffffffffffffffffffffffffff1681526020019081526020015f205f9054906101000a900460ff166112a857600160075f8881526020019081526020015f205f8373ffffffffffffffffffffffffffffffffffffffff1673ffffffffffffffffffffffffffffffffffffffff1681526020019081526020015f205f6101000a81548160ff02191690831515021790555060085f8781526020019081526020015f2081908060018154018082558091505060019003905f5260205f20015f9091909190916101000a81548173ffffffffffffffffffffffffffffffffffffffff021916908373ffffffffffffffffffffffffffffffffffffffff1602179055508073ffffffffffffffffffffffffffffffffffffffff16867f1a93957e2514306f9c62a03c9d38f41d87e9192c4bff4ba40eb834d92c6c728060405160405180910390a35b5080806001019150506110fd565b5050505050565b5f83036112f6576040517f172bb87f00000000000000000000000000000000000000000000000000000000815260040160405180910390fd5b610e10821015611332576040517f9306857800000000000000000000000000000000000000000000000000000000815260040160405180910390fd5b6113823360035f9054906101000a900473ffffffffffffffffffffffffffffffffffffffff166002548773ffffffffffffffffffffffffffffffffffffffff16611fa0909392919063ffffffff16565b6113af3330858773ffffffffffffffffffffffffffffffffffffffff16611fa0909392919063ffffffff16565b5f60015f8154809291906113c290612d9e565b9190505590505f60045f8381526020019081526020015f20905081815f0181905550868160010190816113f59190612f82565b5085816005015f6101000a81548173ffffffffffffffffffffffffffffffffffffffff021916908373ffffffffffffffffffffffffffffffffffffffff1602179055508481600601819055508381600701819055506001816008015f6101000a81548163ffffffff021916908363ffffffff16021790555083426114799190612cf5565b81600301819055508481600401819055508060090133908060018154018082558091505060019003905f5260205f20015f9091909190916101000a81548173ffffffffffffffffffffffffffffffffffffffff021916908373ffffffffffffffffffffffffffffffffffffffff1602179055508281600a015f6101000a81548160ff021916908315150217905550826115e057600160075f8481526020019081526020015f205f3373ffffffffffffffffffffffffffffffffffffffff1673ffffffffffffffffffffffffffffffffffffffff1681526020019081526020015f205f6101000a81548160ff02191690831515021790555060085f8381526020019081526020015f2033908060018154018082558091505060019003905f5260205f20015f9091909190916101000a81548173ffffffffffffffffffffffffffffffffffffffff021916908373ffffffffffffffffffffffffffffffffffffffff1602179055505b5f825f336040516020016115f693929190612c2c565b604051602081830303815290604052805190602001209050600160055f8381526020019081526020015f205f6101000a81548160ff0219169083151502179055503373ffffffffffffffffffffffffffffffffffffffff16837fde307469e0906e8d7a6e84aec39b533cfe12dd01b2737a0f785511261337231760405160405180910390a33373ffffffffffffffffffffffffffffffffffffffff16837f672d3f5897f7a8042cd8c8557caf58ece26929a410c3b1a66a34ccfd3460fcde5f6040516116c2919061308a565b60405180910390a35050505050505050565b60015481565b606060095f8381526020019081526020015f20805480602002602001604051908101604052809291908181526020015f905b828210156117d4578382905f5260205f2090600302016040518060600160405290815f82015f9054906101000a900473ffffffffffffffffffffffffffffffffffffffff1673ffffffffffffffffffffffffffffffffffffffff1673ffffffffffffffffffffffffffffffffffffffff16815260200160018201548152602001600282015f9054906101000a900460ff1660028111156117af576117ae61232b565b5b60028111156117c1576117c061232b565b5b815250508152602001906001019061170c565b505050509050919050565b5f60045f8381526020019081526020015f2090505f81600401540361183b57816040517f017e57a100000000000000000000000000000000000000000000000000000000815260040161183291906121fa565b60405180910390fd5b806003015442101561188a578060030154426040517f3bd40433000000000000000000000000000000000000000000000000000000008152600401611881929190612b6c565b60405180910390fd5b5f6001826008015f9054906101000a900463ffffffff166118ab91906130a3565b63ffffffff16826002015f9054906101000a900463ffffffff1663ffffffff161490505f816118de5782600601546118e0565b5f5b90505f83600401549050818110156119315780826040517f34699d23000000000000000000000000000000000000000000000000000000008152600401611928929190612b6c565b60405180910390fd5b5f828261193e91906130da565b90505f4260014361194f91906130da565b4088886002015f9054906101000a900463ffffffff168660405160200161197a95949392919061312d565b6040516020818303038152906040528051906020012090505f866009018054905090505f81835f1c6119ac91906131b8565b90505f805f90505b83811015611a74575f8a6009018583866119ce9190612cf5565b6119d891906131b8565b815481106119e9576119e8612b18565b5b905f5260205f20015f9054906101000a900473ffffffffffffffffffffffffffffffffffffffff16905060065f8d83604051602001611a299291906131e8565b6040516020818303038152906040528051906020012081526020019081526020015f205f9054906101000a900460ff16611a665780925050611a74565b5080806001019150506119b4565b505f73ffffffffffffffffffffffffffffffffffffffff168173ffffffffffffffffffffffffffffffffffffffff1603611ada576040517fd4e1e24000000000000000000000000000000000000000000000000000000000815260040160405180910390fd5b600160065f8c84604051602001611af29291906131e8565b6040516020818303038152906040528051906020012081526020019081526020015f205f6101000a81548160ff021916908315150217905550611b7981868b6005015f9054906101000a900473ffffffffffffffffffffffffffffffffffffffff1673ffffffffffffffffffffffffffffffffffffffff166120229092919063ffffffff16565b5f896002015f81819054906101000a900463ffffffff16611b9990612cca565b91906101000a81548163ffffffff021916908363ffffffff160217905590508173ffffffffffffffffffffffffffffffffffffffff168b7fc2518a56896ff30efc4b0de222d91241ad29d5e347b5dc1465e1f28bbc6c4ac288600185611bff91906130a3565b604051611c0d929190613213565b60405180910390a38815611c42575f8a60040181905550896009015f611c339190612143565b50505050505050505050611d81565b878a60040181905550896009015f611c5a9190612143565b8960090182908060018154018082558091505060019003905f5260205f20015f9091909190916101000a81548173ffffffffffffffffffffffffffffffffffffffff021916908373ffffffffffffffffffffffffffffffffffffffff160217905550600160055f8d8486604051602001611cd693929190612c2c565b6040516020818303038152906040528051906020012081526020019081526020015f205f6101000a81548160ff0219169083151502179055508173ffffffffffffffffffffffffffffffffffffffff168b7f672d3f5897f7a8042cd8c8557caf58ece26929a410c3b1a66a34ccfd3460fcde83604051611d569190612d28565b60405180910390a3896007015442611d6e9190612cf5565b8a60030181905550505050505050505050505b50565b611d8c611e58565b8060035f6101000a81548173ffffffffffffffffffffffffffffffffffffffff021916908373ffffffffffffffffffffffffffffffffffffffff16021790555050565b611dd7611e58565b5f73ffffffffffffffffffffffffffffffffffffffff168173ffffffffffffffffffffffffffffffffffffffff1603611e47575f6040517f1e4fbdf7000000000000000000000000000000000000000000000000000000008152600401611e3e91906123d3565b60405180910390fd5b611e5081611edf565b50565b606481565b611e606120a1565b73ffffffffffffffffffffffffffffffffffffffff16611e7e610dca565b73ffffffffffffffffffffffffffffffffffffffff1614611edd57611ea16120a1565b6040517f118cdaa7000000000000000000000000000000000000000000000000000000008152600401611ed491906123d3565b60405180910390fd5b565b5f805f9054906101000a900473ffffffffffffffffffffffffffffffffffffffff169050815f806101000a81548173ffffffffffffffffffffffffffffffffffffffff021916908373ffffffffffffffffffffffffffffffffffffffff1602179055508173ffffffffffffffffffffffffffffffffffffffff168173ffffffffffffffffffffffffffffffffffffffff167f8be0079c531659141344cd1fd0a4f28419497f9722a3daafe3b4186f6b6457e060405160405180910390a35050565b61201c848573ffffffffffffffffffffffffffffffffffffffff166323b872dd868686604051602401611fd59392919061323a565b604051602081830303815290604052915060e01b6020820180517bffffffffffffffffffffffffffffffffffffffffffffffffffffffff83818316178352505050506120a8565b50505050565b61209c838473ffffffffffffffffffffffffffffffffffffffff1663a9059cbb8585604051602401612055929190612b45565b604051602081830303815290604052915060e01b6020820180517bffffffffffffffffffffffffffffffffffffffffffffffffffffffff83818316178352505050506120a8565b505050565b5f33905090565b5f8060205f8451602086015f885af1806120c7576040513d5f823e3d81fd5b3d92505f519150505f82146120e05760018114156120fb565b5f8473ffffffffffffffffffffffffffffffffffffffff163b145b1561213d57836040517f5274afe700000000000000000000000000000000000000000000000000000000815260040161213491906123d3565b60405180910390fd5b50505050565b5080545f8255905f5260205f209081019061215e9190612161565b50565b5b80821115612178575f815f905550600101612162565b5090565b5f604051905090565b5f80fd5b5f80fd5b5f819050919050565b61219f8161218d565b81146121a9575f80fd5b50565b5f813590506121ba81612196565b92915050565b5f602082840312156121d5576121d4612185565b5b5f6121e2848285016121ac565b91505092915050565b6121f48161218d565b82525050565b5f60208201905061220d5f8301846121eb565b92915050565b5f806040838503121561222957612228612185565b5b5f612236858286016121ac565b9250506020612247858286016121ac565b9150509250929050565b5f73ffffffffffffffffffffffffffffffffffffffff82169050919050565b5f61227a82612251565b9050919050565b61228a81612270565b8114612294575f80fd5b50565b5f813590506122a581612281565b92915050565b5f80604083850312156122c1576122c0612185565b5b5f6122ce858286016121ac565b92505060206122df85828601612297565b9150509250929050565b5f8115159050919050565b6122fd816122e9565b82525050565b5f6020820190506123165f8301846122f4565b92915050565b61232581612270565b82525050565b7f4e487b71000000000000000000000000000000000000000000000000000000005f52602160045260245ffd5b600381106123695761236861232b565b5b50565b5f81905061237982612358565b919050565b5f6123888261236c565b9050919050565b6123988161237e565b82525050565b5f6060820190506123b15f83018661231c565b6123be60208301856121eb565b6123cb604083018461238f565b949350505050565b5f6020820190506123e65f83018461231c565b92915050565b5f81519050919050565b5f82825260208201905092915050565b5f819050602082019050919050565b61241e81612270565b82525050565b5f61242f8383612415565b60208301905092915050565b5f602082019050919050565b5f612451826123ec565b61245b81856123f6565b935061246683612406565b805f5b8381101561249657815161247d8882612424565b97506124888361243b565b925050600181019050612469565b5085935050505092915050565b5f6020820190508181035f8301526124bb8184612447565b905092915050565b5f819050919050565b6124d5816124c3565b81146124df575f80fd5b50565b5f813590506124f0816124cc565b92915050565b5f6020828403121561250b5761250a612185565b5b5f612518848285016124e2565b91505092915050565b5f80fd5b5f80fd5b5f80fd5b5f8083601f84011261254257612541612521565b5b8235905067ffffffffffffffff81111561255f5761255e612525565b5b60208301915083602082028301111561257b5761257a612529565b5b9250929050565b5f806020838503121561259857612597612185565b5b5f83013567ffffffffffffffff8111156125b5576125b4612189565b5b6125c18582860161252d565b92509250509250929050565b5f81519050919050565b5f82825260208201905092915050565b8281835e5f83830152505050565b5f601f19601f8301169050919050565b5f61260f826125cd565b61261981856125d7565b93506126298185602086016125e7565b612632816125f5565b840191505092915050565b5f63ffffffff82169050919050565b6126558161263d565b82525050565b5f6101408201905061266f5f83018d6121eb565b8181036020830152612681818c612605565b9050612690604083018b61264c565b61269d606083018a6121eb565b6126aa60808301896121eb565b6126b760a083018861231c565b6126c460c08301876121eb565b6126d160e08301866121eb565b6126df61010083018561264c565b6126ed6101208301846122f4565b9b9a5050505050505050505050565b5f8083601f84011261271157612710612521565b5b8235905067ffffffffffffffff81111561272e5761272d612525565b5b60208301915083602082028301111561274a57612749612529565b5b9250929050565b5f805f6040848603121561276857612767612185565b5b5f612775868287016121ac565b935050602084013567ffffffffffffffff81111561279657612795612189565b5b6127a2868287016126fc565b92509250509250925092565b5f80fd5b7f4e487b71000000000000000000000000000000000000000000000000000000005f52604160045260245ffd5b6127e8826125f5565b810181811067ffffffffffffffff82111715612807576128066127b2565b5b80604052505050565b5f61281961217c565b905061282582826127df565b919050565b5f67ffffffffffffffff821115612844576128436127b2565b5b61284d826125f5565b9050602081019050919050565b828183375f83830152505050565b5f61287a6128758461282a565b612810565b905082815260208101848484011115612896576128956127ae565b5b6128a184828561285a565b509392505050565b5f82601f8301126128bd576128bc612521565b5b81356128cd848260208601612868565b91505092915050565b6128df816122e9565b81146128e9575f80fd5b50565b5f813590506128fa816128d6565b92915050565b5f805f805f60a0868803121561291957612918612185565b5b5f86013567ffffffffffffffff81111561293657612935612189565b5b612942888289016128a9565b955050602061295388828901612297565b9450506040612964888289016121ac565b9350506060612975888289016121ac565b9250506080612986888289016128ec565b9150509295509295909350565b5f81519050919050565b5f82825260208201905092915050565b5f819050602082019050919050565b6129c58161218d565b82525050565b6129d48161237e565b82525050565b606082015f8201516129ee5f850182612415565b506020820151612a0160208501826129bc565b506040820151612a1460408501826129cb565b50505050565b5f612a2583836129da565b60608301905092915050565b5f602082019050919050565b5f612a4782612993565b612a51818561299d565b9350612a5c836129ad565b805f5b83811015612a8c578151612a738882612a1a565b9750612a7e83612a31565b925050600181019050612a5f565b5085935050505092915050565b5f6020820190508181035f830152612ab18184612a3d565b905092915050565b5f60208284031215612ace57612acd612185565b5b5f612adb84828501612297565b91505092915050565b5f60ff82169050919050565b612af981612ae4565b82525050565b5f602082019050612b125f830184612af0565b92915050565b7f4e487b71000000000000000000000000000000000000000000000000000000005f52603260045260245ffd5b5f604082019050612b585f83018561231c565b612b6560208301846121eb565b9392505050565b5f604082019050612b7f5f8301856121eb565b612b8c60208301846121eb565b9392505050565b5f819050919050565b612bad612ba88261218d565b612b93565b82525050565b5f8160e01b9050919050565b5f612bc982612bb3565b9050919050565b612be1612bdc8261263d565b612bbf565b82525050565b5f8160601b9050919050565b5f612bfd82612be7565b9050919050565b5f612c0e82612bf3565b9050919050565b612c26612c2182612270565b612c04565b82525050565b5f612c378286612b9c565b602082019150612c478285612bd0565b600482019150612c578284612c15565b601482019150819050949350505050565b5f606082019050612c7b5f8301866121eb565b612c88602083018561264c565b612c95604083018461231c565b949350505050565b7f4e487b71000000000000000000000000000000000000000000000000000000005f52601160045260245ffd5b5f612cd48261263d565b915063ffffffff8203612cea57612ce9612c9d565b5b600182019050919050565b5f612cff8261218d565b9150612d0a8361218d565b9250828201905080821115612d2257612d21612c9d565b5b92915050565b5f602082019050612d3b5f83018461264c565b92915050565b7f4e487b71000000000000000000000000000000000000000000000000000000005f52602260045260245ffd5b5f6002820490506001821680612d8557607f821691505b602082108103612d9857612d97612d41565b5b50919050565b5f612da88261218d565b91507fffffffffffffffffffffffffffffffffffffffffffffffffffffffffffffffff8203612dda57612dd9612c9d565b5b600182019050919050565b5f819050815f5260205f209050919050565b5f6020601f8301049050919050565b5f82821b905092915050565b5f60088302612e417fffffffffffffffffffffffffffffffffffffffffffffffffffffffffffffffff82612e06565b612e4b8683612e06565b95508019841693508086168417925050509392505050565b5f819050919050565b5f612e86612e81612e7c8461218d565b612e63565b61218d565b9050919050565b5f819050919050565b612e9f83612e6c565b612eb3612eab82612e8d565b848454612e12565b825550505050565b5f90565b612ec7612ebb565b612ed2818484612e96565b505050565b5b81811015612ef557612eea5f82612ebf565b600181019050612ed8565b5050565b601f821115612f3a57612f0b81612de5565b612f1484612df7565b81016020851015612f23578190505b612f37612f2f85612df7565b830182612ed7565b50505b505050565b5f82821c905092915050565b5f612f5a5f1984600802612f3f565b1980831691505092915050565b5f612f728383612f4b565b9150826002028217905092915050565b612f8b826125cd565b67ffffffffffffffff811115612fa457612fa36127b2565b5b612fae8254612d6e565b612fb9828285612ef9565b5f60209050601f831160018114612fea575f8415612fd8578287015190505b612fe28582612f67565b865550613049565b601f198416612ff886612de5565b5f5b8281101561301f57848901518255600182019150602085019450602081019050612ffa565b8683101561303c5784890151613038601f891682612f4b565b8355505b6001600288020188555050505b505050505050565b5f819050919050565b5f61307461306f61306a84613051565b612e63565b61263d565b9050919050565b6130848161305a565b82525050565b5f60208201905061309d5f83018461307b565b92915050565b5f6130ad8261263d565b91506130b88361263d565b9250828203905063ffffffff8111156130d4576130d3612c9d565b5b92915050565b5f6130e48261218d565b91506130ef8361218d565b925082820390508181111561310757613106612c9d565b5b92915050565b5f819050919050565b613127613122826124c3565b61310d565b82525050565b5f6131388288612b9c565b6020820191506131488287613116565b6020820191506131588286612b9c565b6020820191506131688285612bd0565b6004820191506131788284612b9c565b6020820191508190509695505050505050565b7f4e487b71000000000000000000000000000000000000000000000000000000005f52601260045260245ffd5b5f6131c28261218d565b91506131cd8361218d565b9250826131dd576131dc61318b565b5b828206905092915050565b5f6131f38285612b9c565b6020820191506132038284612c15565b6014820191508190509392505050565b5f6040820190506132265f8301856121eb565b613233602083018461264c565b9392505050565b5f60608201905061324d5f83018661231c565b61325a602083018561231c565b61326760408301846121eb565b94935050505056fea264697066735822122082e50d14176ef47ab1b457fe049241eb7aa27b967eacc473c857c7f93fa3764964736f6c63430008190033","linkReferences":{}},"methodIdentifiers":{"MAX_PARTICIPANTS()":"f3baf070","allowParticipants(uint256,address[])":"c5072ca8","allowedParticipants(uint256,uint256)":"a6da5bca","cancelPotAllowRequest(uint256,uint256)":"4fc88b86","createPot(bytes,address,uint256,uint256,bool)":"c62981f8","getAllowedParticipants(uint256)":"640e4b7c","getParticipants(uint256)":"c1e3bd3e","getRequests(uint256)":"d5e78829","hasJoinedRound(bytes32)":"7a4f4436","hasWon(bytes32)":"6b7fd007","isAllowed(uint256,address)":"5faa299a","joinPot(uint256)":"831d49ef","owner()":"8da5cb5b","platformFee()":"26232a2e","potCount()":"cf72f230","pots(uint256)":"c3c3df4f","renounceOwnership()":"715018a6","requestPotAllow(uint256)":"65c7444d","requestedParticipants(uint256,uint256)":"61734cd6","setPlatformFee(uint256)":"12e8e2c3","setTreasury(address)":"f0f44260","transferOwnership(address)":"f2fde38b","treasury()":"61d027b3","triggerBatchPayout(uint256[])":"a88390dc","triggerPotPayout(uint256)":"e90c88fe"},"id":35}