{"abi":[{"type":"constructor","inputs":[{"name":"_platformFee","type":"uint256","internalType":"uint256"},{"name":"_partFee","type":"uint256","internalType":"uint256"},{"name":"_treasury","type":"address","internalType":"address"},{"name":"_vrfCoordinator","type":"address","internalType":"address"}],"stateMutability":"nonpayable"},{"type":"function","name":"acceptOwnership","inputs":[],"outputs":[],"stateMutability":"nonpayable"},{"type":"function","name":"allowParticipants","inputs":[{"name":"potId","type":"uint256","internalType":"uint256"},{"name":"participants","type":"address[]","internalType":"address[]"}],"outputs":[],"stateMutability":"nonpayable"},{"type":"function","name":"allowedTokens","inputs":[{"name":"","type":"address","internalType":"address"}],"outputs":[{"name":"","type":"bool","internalType":"bool"}],"stateMutability":"view"},{"type":"function","name":"callbackGasLimit","inputs":[],"outputs":[{"name":"","type":"uint32","internalType":"uint32"}],"stateMutability":"view"},{"type":"function","name":"createPot","inputs":[{"name":"name","type":"bytes","internalType":"bytes"},{"name":"token","type":"address","internalType":"address"},{"name":"entryAmount","type":"uint256","internalType":"uint256"},{"name":"maxParticipants","type":"uint8","internalType":"uint8"},{"name":"periodSeconds","type":"uint256","internalType":"uint256"},{"name":"isPublic","type":"bool","internalType":"bool"}],"outputs":[],"stateMutability":"payable"},{"type":"function","name":"endPot","inputs":[{"name":"potId","type":"uint256","internalType":"uint256"}],"outputs":[],"stateMutability":"nonpayable"},{"type":"function","name":"getCreatorFee","inputs":[{"name":"maxParticipants","type":"uint8","internalType":"uint8"}],"outputs":[{"name":"","type":"uint256","internalType":"uint256"}],"stateMutability":"view"},{"type":"function","name":"getParticipantFee","inputs":[{"name":"maxParticipants","type":"uint8","internalType":"uint8"}],"outputs":[{"name":"","type":"uint256","internalType":"uint256"}],"stateMutability":"view"},{"type":"function","name":"getParticipants","inputs":[{"name":"potId","type":"uint256","internalType":"uint256"}],"outputs":[{"name":"","type":"address[]","internalType":"address[]"}],"stateMutability":"view"},{"type":"function","name":"getRequests","inputs":[{"name":"potId","type":"uint256","internalType":"uint256"}],"outputs":[{"name":"","type":"tuple[]","internalType":"struct Potluck.PotRequest[]","components":[{"name":"requestor","type":"address","internalType":"address"},{"name":"timestamp","type":"uint256","internalType":"uint256"}]}],"stateMutability":"view"},{"type":"function","name":"hasJoinedRound","inputs":[{"name":"","type":"bytes32","internalType":"bytes32"}],"outputs":[{"name":"","type":"bool","internalType":"bool"}],"stateMutability":"view"},{"type":"function","name":"hasWon","inputs":[{"name":"","type":"bytes32","internalType":"bytes32"}],"outputs":[{"name":"","type":"bool","internalType":"bool"}],"stateMutability":"view"},{"type":"function","name":"isAllowed","inputs":[{"name":"","type":"uint256","internalType":"uint256"},{"name":"","type":"address","internalType":"address"}],"outputs":[{"name":"","type":"bool","internalType":"bool"}],"stateMutability":"view"},{"type":"function","name":"joinOnBehalf","inputs":[{"name":"potId","type":"uint256","internalType":"uint256"},{"name":"participant","type":"address","internalType":"address"}],"outputs":[],"stateMutability":"nonpayable"},{"type":"function","name":"joinPot","inputs":[{"name":"potId","type":"uint256","internalType":"uint256"}],"outputs":[],"stateMutability":"payable"},{"type":"function","name":"keyHash","inputs":[],"outputs":[{"name":"","type":"bytes32","internalType":"bytes32"}],"stateMutability":"view"},{"type":"function","name":"owner","inputs":[],"outputs":[{"name":"","type":"address","internalType":"address"}],"stateMutability":"view"},{"type":"function","name":"participantFee","inputs":[],"outputs":[{"name":"","type":"uint256","internalType":"uint256"}],"stateMutability":"view"},{"type":"function","name":"platformFee","inputs":[],"outputs":[{"name":"","type":"uint256","internalType":"uint256"}],"stateMutability":"view"},{"type":"function","name":"potCount","inputs":[],"outputs":[{"name":"","type":"uint256","internalType":"uint256"}],"stateMutability":"view"},{"type":"function","name":"potluckOwner","inputs":[],"outputs":[{"name":"","type":"address","internalType":"address"}],"stateMutability":"view"},{"type":"function","name":"pots","inputs":[{"name":"","type":"uint256","internalType":"uint256"}],"outputs":[{"name":"id","type":"uint256","internalType":"uint256"},{"name":"creator","type":"address","internalType":"address"},{"name":"name","type":"bytes","internalType":"bytes"},{"name":"round","type":"uint32","internalType":"uint32"},{"name":"deadline","type":"uint256","internalType":"uint256"},{"name":"balance","type":"uint256","internalType":"uint256"},{"name":"token","type":"address","internalType":"address"},{"name":"entryAmount","type":"uint256","internalType":"uint256"},{"name":"period","type":"uint256","internalType":"uint256"},{"name":"totalParticipants","type":"uint8","internalType":"uint8"},{"name":"maxParticipants","type":"uint8","internalType":"uint8"},{"name":"isPublic","type":"bool","internalType":"bool"}],"stateMutability":"view"},{"type":"function","name":"rawFulfillRandomWords","inputs":[{"name":"requestId","type":"uint256","internalType":"uint256"},{"name":"randomWords","type":"uint256[]","internalType":"uint256[]"}],"outputs":[],"stateMutability":"nonpayable"},{"type":"function","name":"requestConfirmations","inputs":[],"outputs":[{"name":"","type":"uint16","internalType":"uint16"}],"stateMutability":"view"},{"type":"function","name":"requestPotAllow","inputs":[{"name":"potId","type":"uint256","internalType":"uint256"}],"outputs":[],"stateMutability":"nonpayable"},{"type":"function","name":"requestToPot","inputs":[{"name":"","type":"uint256","internalType":"uint256"}],"outputs":[{"name":"","type":"uint256","internalType":"uint256"}],"stateMutability":"view"},{"type":"function","name":"requestToRound","inputs":[{"name":"","type":"uint256","internalType":"uint256"}],"outputs":[{"name":"","type":"uint32","internalType":"uint32"}],"stateMutability":"view"},{"type":"function","name":"requestedParticipants","inputs":[{"name":"","type":"uint256","internalType":"uint256"},{"name":"","type":"uint256","internalType":"uint256"}],"outputs":[{"name":"requestor","type":"address","internalType":"address"},{"name":"timestamp","type":"uint256","internalType":"uint256"}],"stateMutability":"view"},{"type":"function","name":"s_subscriptionId","inputs":[],"outputs":[{"name":"","type":"uint256","internalType":"uint256"}],"stateMutability":"view"},{"type":"function","name":"s_vrfCoordinator","inputs":[],"outputs":[{"name":"","type":"address","internalType":"contract IVRFCoordinatorV2Plus"}],"stateMutability":"view"},{"type":"function","name":"setChainlinkVRF","inputs":[{"name":"_keyHash","type":"bytes32","internalType":"bytes32"},{"name":"_subscriptionId","type":"uint256","internalType":"uint256"},{"name":"_requestConfirmations","type":"uint16","internalType":"uint16"},{"name":"_callbackGasLimit","type":"uint32","internalType":"uint32"}],"outputs":[],"stateMutability":"nonpayable"},{"type":"function","name":"setChainlinkVRF","inputs":[{"name":"_vrfCoordinator","type":"address","internalType":"address"}],"outputs":[],"stateMutability":"nonpayable"},{"type":"function","name":"setCoordinator","inputs":[{"name":"_vrfCoordinator","type":"address","internalType":"address"}],"outputs":[],"stateMutability":"nonpayable"},{"type":"function","name":"setFees","inputs":[{"name":"_flatFee","type":"uint256","internalType":"uint256"},{"name":"_perPartFee","type":"uint256","internalType":"uint256"}],"outputs":[],"stateMutability":"nonpayable"},{"type":"function","name":"setTokenStatus","inputs":[{"name":"token","type":"address","internalType":"address"},{"name":"status","type":"bool","internalType":"bool"}],"outputs":[],"stateMutability":"nonpayable"},{"type":"function","name":"setTreasury","inputs":[{"name":"newTreasury","type":"address","internalType":"address"}],"outputs":[],"stateMutability":"nonpayable"},{"type":"function","name":"transferOwnership","inputs":[{"name":"to","type":"address","internalType":"address"}],"outputs":[],"stateMutability":"nonpayable"},{"type":"function","name":"treasury","inputs":[],"outputs":[{"name":"","type":"address","internalType":"address"}],"stateMutability":"view"},{"type":"function","name":"triggerPotPayout","inputs":[{"name":"potId","type":"uint256","internalType":"uint256"}],"outputs":[],"stateMutability":"nonpayable"},{"type":"function","name":"vrfCoordinator","inputs":[],"outputs":[{"name":"","type":"address","internalType":"contract VRFCoordinatorV2_5"}],"stateMutability":"view"},{"type":"function","name":"withdraw","inputs":[],"outputs":[],"stateMutability":"nonpayable"},{"type":"function","name":"withdraw","inputs":[{"name":"token","type":"address","internalType":"address"},{"name":"amount","type":"uint256","internalType":"uint256"}],"outputs":[],"stateMutability":"nonpayable"},{"type":"function","name":"withdrawalBalances","inputs":[{"name":"","type":"address","internalType":"address"},{"name":"","type":"address","internalType":"address"}],"outputs":[{"name":"","type":"uint256","internalType":"uint256"}],"stateMutability":"view"},{"type":"event","name":"AllowedParticipantAdded","inputs":[{"name":"potId","type":"uint256","indexed":true,"internalType":"uint256"},{"name":"user","type":"address","indexed":true,"internalType":"address"}],"anonymous":false},{"type":"event","name":"CoordinatorSet","inputs":[{"name":"vrfCoordinator","type":"address","indexed":false,"internalType":"address"}],"anonymous":false},{"type":"event","name":"OwnershipTransferRequested","inputs":[{"name":"from","type":"address","indexed":true,"internalType":"address"},{"name":"to","type":"address","indexed":true,"internalType":"address"}],"anonymous":false},{"type":"event","name":"OwnershipTransferred","inputs":[{"name":"from","type":"address","indexed":true,"internalType":"address"},{"name":"to","type":"address","indexed":true,"internalType":"address"}],"anonymous":false},{"type":"event","name":"PotAllowRequested","inputs":[{"name":"potId","type":"uint256","indexed":true,"internalType":"uint256"},{"name":"requestor","type":"address","indexed":true,"internalType":"address"}],"anonymous":false},{"type":"event","name":"PotCreated","inputs":[{"name":"potId","type":"uint256","indexed":true,"internalType":"uint256"},{"name":"creator","type":"address","indexed":true,"internalType":"address"}],"anonymous":false},{"type":"event","name":"PotEnded","inputs":[{"name":"potId","type":"uint256","indexed":true,"internalType":"uint256"}],"anonymous":false},{"type":"event","name":"PotJoined","inputs":[{"name":"potId","type":"uint256","indexed":true,"internalType":"uint256"},{"name":"roundId","type":"uint32","indexed":false,"internalType":"uint32"},{"name":"user","type":"address","indexed":true,"internalType":"address"}],"anonymous":false},{"type":"event","name":"PotPayout","inputs":[{"name":"potId","type":"uint256","indexed":true,"internalType":"uint256"},{"name":"winner","type":"address","indexed":true,"internalType":"address"},{"name":"amount","type":"uint256","indexed":false,"internalType":"uint256"},{"name":"round","type":"uint32","indexed":false,"internalType":"uint32"}],"anonymous":false},{"type":"error","name":"AlreadyJoined","inputs":[{"name":"potId","type":"uint256","internalType":"uint256"},{"name":"round","type":"uint32","internalType":"uint32"},{"name":"user","type":"address","internalType":"address"}]},{"type":"error","name":"EntryAmountZero","inputs":[]},{"type":"error","name":"InsufficientFundsForAutoJoin","inputs":[{"name":"sent","type":"uint256","internalType":"uint256"},{"name":"required","type":"uint256","internalType":"uint256"}]},{"type":"error","name":"InsufficientFundsToRollover","inputs":[{"name":"total","type":"uint256","internalType":"uint256"},{"name":"rollover","type":"uint256","internalType":"uint256"}]},{"type":"error","name":"NoEligibleParticipants","inputs":[]},{"type":"error","name":"NotAllParticipantsWon","inputs":[{"name":"potId","type":"uint256","internalType":"uint256"}]},{"type":"error","name":"NotAllowed","inputs":[{"name":"user","type":"address","internalType":"address"},{"name":"potId","type":"uint256","internalType":"uint256"}]},{"type":"error","name":"NotPotCreator","inputs":[{"name":"sender","type":"address","internalType":"address"},{"name":"potId","type":"uint256","internalType":"uint256"}]},{"type":"error","name":"OnlyCoordinatorCanFulfill","inputs":[{"name":"have","type":"address","internalType":"address"},{"name":"want","type":"address","internalType":"address"}]},{"type":"error","name":"OnlyOwnerOrCoordinator","inputs":[{"name":"have","type":"address","internalType":"address"},{"name":"owner","type":"address","internalType":"address"},{"name":"coordinator","type":"address","internalType":"address"}]},{"type":"error","name":"PeriodTooShort","inputs":[]},{"type":"error","name":"PotDoesNotExist","inputs":[{"name":"potId","type":"uint256","internalType":"uint256"}]},{"type":"error","name":"PotFull","inputs":[{"name":"maxParticipants","type":"uint8","internalType":"uint8"}]},{"type":"error","name":"RoundEnded","inputs":[{"name":"deadline","type":"uint256","internalType":"uint256"},{"name":"nowTimestamp","type":"uint256","internalType":"uint256"}]},{"type":"error","name":"RoundNotReady","inputs":[{"name":"deadline","type":"uint256","internalType":"uint256"},{"name":"nowTimestamp","type":"uint256","internalType":"uint256"}]},{"type":"error","name":"TokenNotAllowed","inputs":[{"name":"token","type":"address","internalType":"address"}]},{"type":"error","name":"ZeroAddress","inputs":[]}],"bytecode":{"object":"0x60806040523480156200001157600080fd5b50604051620064b8380380620064b883398181016040528101906200003791906200049b565b80338060006001600081905550600073ffffffffffffffffffffffffffffffffffffffff168273ffffffffffffffffffffffffffffffffffffffff1603620000b6576040517f08c379a0000000000000000000000000000000000000000000000000000000008152600401620000ad906200056e565b60405180910390fd5b81600160006101000a81548173ffffffffffffffffffffffffffffffffffffffff021916908373ffffffffffffffffffffffffffffffffffffffff160217905550600073ffffffffffffffffffffffffffffffffffffffff168173ffffffffffffffffffffffffffffffffffffffff16146200013e576200013d81620002c560201b60201c565b5b505050600073ffffffffffffffffffffffffffffffffffffffff168173ffffffffffffffffffffffffffffffffffffffff1603620001a8576040517fd92e233d00000000000000000000000000000000000000000000000000000000815260040160405180910390fd5b80600360006101000a81548173ffffffffffffffffffffffffffffffffffffffff021916908373ffffffffffffffffffffffffffffffffffffffff160217905550508360058190555081600760006101000a81548173ffffffffffffffffffffffffffffffffffffffff021916908373ffffffffffffffffffffffffffffffffffffffff1602179055508260068190555033600860006101000a81548173ffffffffffffffffffffffffffffffffffffffff021916908373ffffffffffffffffffffffffffffffffffffffff16021790555080600960006101000a81548173ffffffffffffffffffffffffffffffffffffffff021916908373ffffffffffffffffffffffffffffffffffffffff1602179055505050505062000602565b3373ffffffffffffffffffffffffffffffffffffffff168173ffffffffffffffffffffffffffffffffffffffff160362000336576040517f08c379a00000000000000000000000000000000000000000000000000000000081526004016200032d90620005e0565b60405180910390fd5b80600260006101000a81548173ffffffffffffffffffffffffffffffffffffffff021916908373ffffffffffffffffffffffffffffffffffffffff1602179055508073ffffffffffffffffffffffffffffffffffffffff16600160009054906101000a900473ffffffffffffffffffffffffffffffffffffffff1673ffffffffffffffffffffffffffffffffffffffff167fed8889f560326eb138920d842192f0eb3dd22b4f139c87a2c57538e05bae127860405160405180910390a350565b600080fd5b6000819050919050565b6200041081620003fb565b81146200041c57600080fd5b50565b600081519050620004308162000405565b92915050565b600073ffffffffffffffffffffffffffffffffffffffff82169050919050565b6000620004638262000436565b9050919050565b620004758162000456565b81146200048157600080fd5b50565b60008151905062000495816200046a565b92915050565b60008060008060808587031215620004b857620004b7620003f6565b5b6000620004c8878288016200041f565b9450506020620004db878288016200041f565b9350506040620004ee8782880162000484565b9250506060620005018782880162000484565b91505092959194509250565b600082825260208201905092915050565b7f43616e6e6f7420736574206f776e657220746f207a65726f0000000000000000600082015250565b6000620005566018836200050d565b915062000563826200051e565b602082019050919050565b60006020820190508181036000830152620005898162000547565b9050919050565b7f43616e6e6f74207472616e7366657220746f2073656c66000000000000000000600082015250565b6000620005c86017836200050d565b9150620005d58262000590565b602082019050919050565b60006020820190508181036000830152620005fb81620005b9565b9050919050565b615ea680620006126000396000f3fe60806040526004361061025c5760003560e01c80638ac0002111610144578063c5072ca8116100b6578063e744092e1161007a578063e744092e14610924578063e90c88fe14610961578063f0f442601461098a578063f2fde38b146109b3578063f39c5d51146109dc578063f3fef3a314610a055761025c565b8063c5072ca81461082d578063cf72f23014610856578063d1abb12a14610881578063d5e78829146108be578063e0321cd4146108fb5761025c565b80639c031ace116101085780639c031ace146106fc5780639eccacf614610727578063a3e56fa814610752578063b0fb162f1461077d578063c1e3bd3e146107a8578063c3c3df4f146107e55761025c565b80638ac00021146106175780638da5cb5b146106425780638ea981171461066d578063908fe934146106965780639999fea0146106d35761025c565b80634cd73548116101dd57806365c7444d116101a157806365c7444d146105255780636b7fd0071461054e57806379ba50971461058b5780637a4f4436146105a2578063831d49ef146105df5780638661ffca146105fb5761025c565b80634cd735481461042b5780635faa299a1461045457806361728f391461049157806361734cd6146104bc57806361d027b3146104fa5761025c565b806324f746971161022457806324f746971461035857806326232a2e14610383578063385542f0146103ae5780633bb2261d146103eb5780633ccfd60b146104145761025c565b806309c1f8ff146102615780630b78f9c01461028c5780631301cd25146102b557806313f2cef9146102f25780631fe543e31461032f575b600080fd5b34801561026d57600080fd5b50610276610a2e565b604051610283919061416f565b60405180910390f35b34801561029857600080fd5b506102b360048036038101906102ae91906141d4565b610a54565b005b3480156102c157600080fd5b506102dc60048036038101906102d79190614214565b610af6565b6040516102e99190614250565b60405180910390f35b3480156102fe57600080fd5b50610319600480360381019061031491906142a4565b610b0e565b6040516103269190614250565b60405180910390f35b34801561033b57600080fd5b5061035660048036038101906103519190614336565b610b40565b005b34801561036457600080fd5b5061036d610c06565b60405161037a91906143b5565b60405180910390f35b34801561038f57600080fd5b50610398610c1c565b6040516103a59190614250565b60405180910390f35b3480156103ba57600080fd5b506103d560048036038101906103d09190614214565b610c22565b6040516103e291906143b5565b60405180910390f35b3480156103f757600080fd5b50610412600480360381019061040d919061446c565b610c45565b005b34801561042057600080fd5b50610429610d27565b005b34801561043757600080fd5b50610452600480360381019061044d9190614537565b610e6b565b005b34801561046057600080fd5b5061047b60048036038101906104769190614577565b610fc5565b60405161048891906145c6565b60405180910390f35b34801561049d57600080fd5b506104a6610ff4565b6040516104b391906145f0565b60405180910390f35b3480156104c857600080fd5b506104e360048036038101906104de91906141d4565b610ffa565b6040516104f192919061460b565b60405180910390f35b34801561050657600080fd5b5061050f61105b565b60405161051c919061416f565b60405180910390f35b34801561053157600080fd5b5061054c60048036038101906105479190614214565b611081565b005b34801561055a57600080fd5b5061057560048036038101906105709190614634565b611182565b60405161058291906145c6565b60405180910390f35b34801561059757600080fd5b506105a06111a2565b005b3480156105ae57600080fd5b506105c960048036038101906105c49190614634565b611339565b6040516105d691906145c6565b60405180910390f35b6105f960048036038101906105f49190614214565b611359565b005b610615600480360381019061061091906147a2565b611a38565b005b34801561062357600080fd5b5061062c612025565b6040516106399190614250565b60405180910390f35b34801561064e57600080fd5b5061065761202b565b604051610664919061416f565b60405180910390f35b34801561067957600080fd5b50610694600480360381019061068f919061484b565b612055565b005b3480156106a257600080fd5b506106bd60048036038101906106b89190614878565b612236565b6040516106ca9190614250565b60405180910390f35b3480156106df57600080fd5b506106fa60048036038101906106f59190614577565b61225b565b005b34801561070857600080fd5b50610711612757565b60405161071e9190614250565b60405180910390f35b34801561073357600080fd5b5061073c61275d565b6040516107499190614917565b60405180910390f35b34801561075e57600080fd5b50610767612783565b6040516107749190614953565b60405180910390f35b34801561078957600080fd5b506107926127a9565b60405161079f919061497d565b60405180910390f35b3480156107b457600080fd5b506107cf60048036038101906107ca9190614214565b6127bd565b6040516107dc9190614a56565b60405180910390f35b3480156107f157600080fd5b5061080c60048036038101906108079190614214565b612861565b6040516108249c9b9a99989796959493929190614b06565b60405180910390f35b34801561083957600080fd5b50610854600480360381019061084f9190614c1d565b6129c0565b005b34801561086257600080fd5b5061086b612bd2565b6040516108789190614250565b60405180910390f35b34801561088d57600080fd5b506108a860048036038101906108a391906142a4565b612bd8565b6040516108b59190614250565b60405180910390f35b3480156108ca57600080fd5b506108e560048036038101906108e09190614214565b612c17565b6040516108f29190614d6a565b60405180910390f35b34801561090757600080fd5b50610922600480360381019061091d9190614214565b612ce9565b005b34801561093057600080fd5b5061094b6004803603810190610946919061484b565b612ff0565b60405161095891906145c6565b60405180910390f35b34801561096d57600080fd5b5061098860048036038101906109839190614214565b613010565b005b34801561099657600080fd5b506109b160048036038101906109ac919061484b565b613240565b005b3480156109bf57600080fd5b506109da60048036038101906109d5919061484b565b613383565b005b3480156109e857600080fd5b50610a0360048036038101906109fe919061484b565b613397565b005b348015610a1157600080fd5b50610a2c6004803603810190610a279190614d8c565b6134da565b005b600860009054906101000a900473ffffffffffffffffffffffffffffffffffffffff1681565b600860009054906101000a900473ffffffffffffffffffffffffffffffffffffffff1673ffffffffffffffffffffffffffffffffffffffff163373ffffffffffffffffffffffffffffffffffffffff1614610ae4576040517f08c379a0000000000000000000000000000000000000000000000000000000008152600401610adb90614e29565b60405180910390fd5b81600581905550806006819055505050565b60146020528060005260406000206000915090505481565b60008060008360ff1614610b225782610b25565b60ff5b60ff16905080600654610b389190614e78565b915050919050565b600360009054906101000a900473ffffffffffffffffffffffffffffffffffffffff1673ffffffffffffffffffffffffffffffffffffffff163373ffffffffffffffffffffffffffffffffffffffff1614610bf65733600360009054906101000a900473ffffffffffffffffffffffffffffffffffffffff166040517f1cf993f4000000000000000000000000000000000000000000000000000000008152600401610bed929190614eba565b60405180910390fd5b610c018383836136b0565b505050565b600c60029054906101000a900463ffffffff1681565b60055481565b60156020528060005260406000206000915054906101000a900463ffffffff1681565b600860009054906101000a900473ffffffffffffffffffffffffffffffffffffffff1673ffffffffffffffffffffffffffffffffffffffff163373ffffffffffffffffffffffffffffffffffffffff1614610cd5576040517f08c379a0000000000000000000000000000000000000000000000000000000008152600401610ccc90614e29565b60405180910390fd5b83600a8190555082600b8190555081600c60006101000a81548161ffff021916908361ffff16021790555080600c60026101000a81548163ffffffff021916908363ffffffff16021790555050505050565b600860009054906101000a900473ffffffffffffffffffffffffffffffffffffffff1673ffffffffffffffffffffffffffffffffffffffff163373ffffffffffffffffffffffffffffffffffffffff1614610db7576040517f08c379a0000000000000000000000000000000000000000000000000000000008152600401610dae90614e29565b60405180910390fd5b600047905060008111610dff576040517f08c379a0000000000000000000000000000000000000000000000000000000008152600401610df690614f2f565b60405180910390fd5b600760009054906101000a900473ffffffffffffffffffffffffffffffffffffffff1673ffffffffffffffffffffffffffffffffffffffff166108fc829081150290604051600060405180830381858888f19350505050158015610e67573d6000803e3d6000fd5b5050565b600860009054906101000a900473ffffffffffffffffffffffffffffffffffffffff1673ffffffffffffffffffffffffffffffffffffffff163373ffffffffffffffffffffffffffffffffffffffff1614610efb576040517f08c379a0000000000000000000000000000000000000000000000000000000008152600401610ef290614e29565b60405180910390fd5b600073ffffffffffffffffffffffffffffffffffffffff168273ffffffffffffffffffffffffffffffffffffffff1603610f6a576040517f08c379a0000000000000000000000000000000000000000000000000000000008152600401610f6190614f9b565b60405180910390fd5b80601060008473ffffffffffffffffffffffffffffffffffffffff1673ffffffffffffffffffffffffffffffffffffffff16815260200190815260200160002060006101000a81548160ff0219169083151502179055505050565b60116020528160005260406000206020528060005260406000206000915091509054906101000a900460ff1681565b600a5481565b6012602052816000526040600020818154811061101657600080fd5b9060005260206000209060020201600091509150508060000160009054906101000a900473ffffffffffffffffffffffffffffffffffffffff16908060010154905082565b600760009054906101000a900473ffffffffffffffffffffffffffffffffffffffff1681565b6012600082815260200190815260200160002060405180604001604052803373ffffffffffffffffffffffffffffffffffffffff16815260200142815250908060018154018082558091505060019003906000526020600020906002020160009091909190915060008201518160000160006101000a81548173ffffffffffffffffffffffffffffffffffffffff021916908373ffffffffffffffffffffffffffffffffffffffff1602179055506020820151816001015550503373ffffffffffffffffffffffffffffffffffffffff16817f14a1608330df21406b2c36c4c92e47f22c9abd31d9df75abc4af2bdb477469bb60405160405180910390a350565b600f6020528060005260406000206000915054906101000a900460ff1681565b600260009054906101000a900473ffffffffffffffffffffffffffffffffffffffff1673ffffffffffffffffffffffffffffffffffffffff163373ffffffffffffffffffffffffffffffffffffffff1614611232576040517f08c379a000000000000000000000000000000000000000000000000000000000815260040161122990615007565b60405180910390fd5b6000600160009054906101000a900473ffffffffffffffffffffffffffffffffffffffff16905033600160006101000a81548173ffffffffffffffffffffffffffffffffffffffff021916908373ffffffffffffffffffffffffffffffffffffffff1602179055506000600260006101000a81548173ffffffffffffffffffffffffffffffffffffffff021916908373ffffffffffffffffffffffffffffffffffffffff1602179055503373ffffffffffffffffffffffffffffffffffffffff168173ffffffffffffffffffffffffffffffffffffffff167f8be0079c531659141344cd1fd0a4f28419497f9722a3daafe3b4186f6b6457e060405160405180910390a350565b600e6020528060005260406000206000915054906101000a900460ff1681565b60026000540361139e576040517f08c379a000000000000000000000000000000000000000000000000000000000815260040161139590615073565b60405180910390fd5b60026000819055506000600d60008381526020019081526020016000209050600081600501540361140657816040517f017e57a10000000000000000000000000000000000000000000000000000000081526004016113fd9190614250565b60405180910390fd5b80600401544210611454578060040154426040517f8868888c00000000000000000000000000000000000000000000000000000000815260040161144b929190615093565b60405180910390fd5b8060090160019054906101000a900460ff1660ff1681600a018054905010158015611494575060008160090160019054906101000a900460ff1660ff1614155b156114e7578060090160019054906101000a900460ff166040517f969559d50000000000000000000000000000000000000000000000000000000081526004016114de91906150bc565b60405180910390fd5b6011600083815260200190815260200160002060003373ffffffffffffffffffffffffffffffffffffffff1673ffffffffffffffffffffffffffffffffffffffff16815260200190815260200160002060009054906101000a900460ff16158015611561575080600b0160009054906101000a900460ff16155b156115a55733826040517f8626cc0300000000000000000000000000000000000000000000000000000000815260040161159c92919061460b565b60405180910390fd5b6000828260030160009054906101000a900463ffffffff16336040516020016115d093929190615176565b604051602081830303815290604052805190602001209050600e600082815260200190815260200160002060009054906101000a900460ff161561166357828260030160009054906101000a900463ffffffff16336040517f0beb1aac00000000000000000000000000000000000000000000000000000000815260040161165a939291906151b3565b60405180910390fd5b60008260030160009054906101000a900463ffffffff1663ffffffff16036118145781600901600081819054906101000a900460ff16809291906116a6906151ea565b91906101000a81548160ff021916908360ff1602179055505060006116db8360090160019054906101000a900460ff16610b0e565b9050803410156117245734816040517f155fd46700000000000000000000000000000000000000000000000000000000815260040161171b929190615093565b60405180910390fd5b600760009054906101000a900473ffffffffffffffffffffffffffffffffffffffff1673ffffffffffffffffffffffffffffffffffffffff166108fc829081150290604051600060405180830381858888f1935050505015801561178c573d6000803e3d6000fd5b508034111561180e5760003373ffffffffffffffffffffffffffffffffffffffff1682346117ba9190615213565b6040516117c690615278565b60006040518083038185875af1925050503d8060008114611803576040519150601f19603f3d011682016040523d82523d6000602084013e611808565b606091505b50509050505b506118c3565b600e60008460018560030160009054906101000a900463ffffffff1661183a919061528d565b3360405160200161184d93929190615176565b60405160208183030381529060405280519060200120815260200190815260200160002060009054906101000a900460ff166118c25733836040517f8626cc030000000000000000000000000000000000000000000000000000000081526004016118b992919061460b565b60405180910390fd5b5b611918333084600701548560060160009054906101000a900473ffffffffffffffffffffffffffffffffffffffff1673ffffffffffffffffffffffffffffffffffffffff16613b0c909392919063ffffffff16565b816007015482600501600082825461193091906152c5565b9250508190555081600a01339080600181540180825580915050600190039060005260206000200160009091909190916101000a81548173ffffffffffffffffffffffffffffffffffffffff021916908373ffffffffffffffffffffffffffffffffffffffff1602179055506001600e600083815260200190815260200160002060006101000a81548160ff0219169083151502179055503373ffffffffffffffffffffffffffffffffffffffff16837f672d3f5897f7a8042cd8c8557caf58ece26929a410c3b1a66a34ccfd3460fcde8460030160009054906101000a900463ffffffff16604051611a2391906143b5565b60405180910390a35050600160008190555050565b600260005403611a7d576040517f08c379a0000000000000000000000000000000000000000000000000000000008152600401611a7490615073565b60405180910390fd5b600260008190555060008403611abf576040517f172bb87f00000000000000000000000000000000000000000000000000000000815260040160405180910390fd5b610e10821015611afb576040517f9306857800000000000000000000000000000000000000000000000000000000815260040160405180910390fd5b601060008673ffffffffffffffffffffffffffffffffffffffff1673ffffffffffffffffffffffffffffffffffffffff16815260200190815260200160002060009054906101000a900460ff16611b8957846040517f94403b70000000000000000000000000000000000000000000000000000000008152600401611b80919061416f565b60405180910390fd5b600060046000815480929190611b9e906152f9565b9190505590506000600d60008381526020019081526020016000209050818160000181905550338160010160006101000a81548173ffffffffffffffffffffffffffffffffffffffff021916908373ffffffffffffffffffffffffffffffffffffffff16021790555087816002019081611c189190615543565b50868160060160006101000a81548173ffffffffffffffffffffffffffffffffffffffff021916908373ffffffffffffffffffffffffffffffffffffffff16021790555085816007018190555083816008018190555060018160090160006101000a81548160ff021916908360ff1602179055508342611c9891906152c5565b816004018190555085816005018190555080600a01339080600181540180825580915050600190039060005260206000200160009091909190916101000a81548173ffffffffffffffffffffffffffffffffffffffff021916908373ffffffffffffffffffffffffffffffffffffffff1602179055508281600b0160006101000a81548160ff021916908315150217905550848160090160016101000a81548160ff021916908360ff16021790555082611db65760016011600084815260200190815260200160002060003373ffffffffffffffffffffffffffffffffffffffff1673ffffffffffffffffffffffffffffffffffffffff16815260200190815260200160002060006101000a81548160ff0219169083151502179055505b600082600033604051602001611dce93929190615176565b6040516020818303038152906040528051906020012090506001600e600083815260200190815260200160002060006101000a81548160ff021916908315150217905550611e3f3330898b73ffffffffffffffffffffffffffffffffffffffff16613b0c909392919063ffffffff16565b6000611e4a87612bd8565b905080341015611e935734816040517f155fd467000000000000000000000000000000000000000000000000000000008152600401611e8a929190615093565b60405180910390fd5b600760009054906101000a900473ffffffffffffffffffffffffffffffffffffffff1673ffffffffffffffffffffffffffffffffffffffff166108fc829081150290604051600060405180830381858888f19350505050158015611efb573d6000803e3d6000fd5b5080341115611f7d5760003373ffffffffffffffffffffffffffffffffffffffff168234611f299190615213565b604051611f3590615278565b60006040518083038185875af1925050503d8060008114611f72576040519150601f19603f3d011682016040523d82523d6000602084013e611f77565b606091505b50509050505b3373ffffffffffffffffffffffffffffffffffffffff16847fde307469e0906e8d7a6e84aec39b533cfe12dd01b2737a0f785511261337231760405160405180910390a33373ffffffffffffffffffffffffffffffffffffffff16847f672d3f5897f7a8042cd8c8557caf58ece26929a410c3b1a66a34ccfd3460fcde60006040516120099190615650565b60405180910390a3505050506001600081905550505050505050565b600b5481565b6000600160009054906101000a900473ffffffffffffffffffffffffffffffffffffffff16905090565b61205d61202b565b73ffffffffffffffffffffffffffffffffffffffff163373ffffffffffffffffffffffffffffffffffffffff16141580156120e65750600360009054906101000a900473ffffffffffffffffffffffffffffffffffffffff1673ffffffffffffffffffffffffffffffffffffffff163373ffffffffffffffffffffffffffffffffffffffff1614155b1561215557336120f461202b565b600360009054906101000a900473ffffffffffffffffffffffffffffffffffffffff166040517f061db9c100000000000000000000000000000000000000000000000000000000815260040161214c9392919061566b565b60405180910390fd5b600073ffffffffffffffffffffffffffffffffffffffff168173ffffffffffffffffffffffffffffffffffffffff16036121bb576040517fd92e233d00000000000000000000000000000000000000000000000000000000815260040160405180910390fd5b80600360006101000a81548173ffffffffffffffffffffffffffffffffffffffff021916908373ffffffffffffffffffffffffffffffffffffffff1602179055507fd1a6a14209a385a964d036e404cb5cfb71f4000cdb03c9366292430787261be68160405161222b919061416f565b60405180910390a150565b6013602052816000526040600020602052806000526040600020600091509150505481565b6002600054036122a0576040517f08c379a000000000000000000000000000000000000000000000000000000000815260040161229790615073565b60405180910390fd5b60026000819055506000600d60008481526020019081526020016000209050600081600501540361230857826040517f017e57a10000000000000000000000000000000000000000000000000000000081526004016122ff9190614250565b60405180910390fd5b80600401544210612356578060040154426040517f8868888c00000000000000000000000000000000000000000000000000000000815260040161234d929190615093565b60405180910390fd5b6011600084815260200190815260200160002060008373ffffffffffffffffffffffffffffffffffffffff1673ffffffffffffffffffffffffffffffffffffffff16815260200190815260200160002060009054906101000a900460ff161580156123d0575080600b0160009054906101000a900460ff16155b156124145781836040517f8626cc0300000000000000000000000000000000000000000000000000000000815260040161240b92919061460b565b60405180910390fd5b60008160030160009054906101000a900463ffffffff1663ffffffff16036124755733836040517f8626cc0300000000000000000000000000000000000000000000000000000000815260040161246c92919061460b565b60405180910390fd5b600e60008460018460030160009054906101000a900463ffffffff1661249b919061528d565b856040516020016124ae93929190615176565b60405160208183030381529060405280519060200120815260200190815260200160002060009054906101000a900460ff166125235781836040517f8626cc0300000000000000000000000000000000000000000000000000000000815260040161251a92919061460b565b60405180910390fd5b6000838260030160009054906101000a900463ffffffff168460405160200161254e93929190615176565b604051602081830303815290604052805190602001209050600e600082815260200190815260200160002060009054906101000a900460ff16156125e157838260030160009054906101000a900463ffffffff16846040517f0beb1aac0000000000000000000000000000000000000000000000000000000081526004016125d8939291906151b3565b60405180910390fd5b81600701548260050160008282546125f991906152c5565b9250508190555081600a01839080600181540180825580915050600190039060005260206000200160009091909190916101000a81548173ffffffffffffffffffffffffffffffffffffffff021916908373ffffffffffffffffffffffffffffffffffffffff1602179055506001600e600083815260200190815260200160002060006101000a81548160ff0219169083151502179055506126e6833084600701548560060160009054906101000a900473ffffffffffffffffffffffffffffffffffffffff1673ffffffffffffffffffffffffffffffffffffffff16613b0c909392919063ffffffff16565b8273ffffffffffffffffffffffffffffffffffffffff16847f672d3f5897f7a8042cd8c8557caf58ece26929a410c3b1a66a34ccfd3460fcde8460030160009054906101000a900463ffffffff1660405161274191906143b5565b60405180910390a3505060016000819055505050565b60065481565b600360009054906101000a900473ffffffffffffffffffffffffffffffffffffffff1681565b600960009054906101000a900473ffffffffffffffffffffffffffffffffffffffff1681565b600c60009054906101000a900461ffff1681565b6060600d6000838152602001908152602001600020600a0180548060200260200160405190810160405280929190818152602001828054801561285557602002820191906000526020600020905b8160009054906101000a900473ffffffffffffffffffffffffffffffffffffffff1673ffffffffffffffffffffffffffffffffffffffff168152602001906001019080831161280b575b50505050509050919050565b600d6020528060005260406000206000915090508060000154908060010160009054906101000a900473ffffffffffffffffffffffffffffffffffffffff16908060020180546128b090615370565b80601f01602080910402602001604051908101604052809291908181526020018280546128dc90615370565b80156129295780601f106128fe57610100808354040283529160200191612929565b820191906000526020600020905b81548152906001019060200180831161290c57829003601f168201915b5050505050908060030160009054906101000a900463ffffffff16908060040154908060050154908060060160009054906101000a900473ffffffffffffffffffffffffffffffffffffffff16908060070154908060080154908060090160009054906101000a900460ff16908060090160019054906101000a900460ff169080600b0160009054906101000a900460ff1690508c565b6000600d600085815260200190815260200160002090508060010160009054906101000a900473ffffffffffffffffffffffffffffffffffffffff1673ffffffffffffffffffffffffffffffffffffffff163373ffffffffffffffffffffffffffffffffffffffff1614612a6d5733846040517f3872341e000000000000000000000000000000000000000000000000000000008152600401612a6492919061460b565b60405180910390fd5b60005b83839050811015612bcb576000848483818110612a9057612a8f6156a2565b5b9050602002016020810190612aa5919061484b565b90506011600087815260200190815260200160002060008273ffffffffffffffffffffffffffffffffffffffff1673ffffffffffffffffffffffffffffffffffffffff16815260200190815260200160002060009054906101000a900460ff16612bb75760016011600088815260200190815260200160002060008373ffffffffffffffffffffffffffffffffffffffff1673ffffffffffffffffffffffffffffffffffffffff16815260200190815260200160002060006101000a81548160ff0219169083151502179055508073ffffffffffffffffffffffffffffffffffffffff16867f1a93957e2514306f9c62a03c9d38f41d87e9192c4bff4ba40eb834d92c6c728060405160405180910390a35b508080612bc3906152f9565b915050612a70565b5050505050565b60045481565b60008060008360ff1614612bec5782612bef565b60ff5b60ff16905080600654612c029190614e78565b600554612c0f91906152c5565b915050919050565b606060126000838152602001908152602001600020805480602002602001604051908101604052809291908181526020016000905b82821015612cde57838290600052602060002090600202016040518060400160405290816000820160009054906101000a900473ffffffffffffffffffffffffffffffffffffffff1673ffffffffffffffffffffffffffffffffffffffff1673ffffffffffffffffffffffffffffffffffffffff16815260200160018201548152505081526020019060010190612c4c565b505050509050919050565b6000600d600083815260200190815260200160002090506000816005015403612d4957816040517f017e57a1000000000000000000000000000000000000000000000000000000008152600401612d409190614250565b60405180910390fd5b8060040154421015612d98578060040154426040517f3bd40433000000000000000000000000000000000000000000000000000000008152600401612d8f929190615093565b60405180910390fd5b60005b81600a0180549050811015612e8757600f60008484600a018481548110612dc557612dc46156a2565b5b9060005260206000200160009054906101000a900473ffffffffffffffffffffffffffffffffffffffff16604051602001612e019291906156d1565b60405160208183030381529060405280519060200120815260200190815260200160002060009054906101000a900460ff16612e7457826040517fd2471cf8000000000000000000000000000000000000000000000000000000008152600401612e6b9190614250565b60405180910390fd5b8080612e7f906152f9565b915050612d9b565b506000816005018190555060008160060160009054906101000a900473ffffffffffffffffffffffffffffffffffffffff16905060008260070154905060005b83600a0180549050811015612fbc57816013600086600a018481548110612ef157612ef06156a2565b5b9060005260206000200160009054906101000a900473ffffffffffffffffffffffffffffffffffffffff1673ffffffffffffffffffffffffffffffffffffffff1673ffffffffffffffffffffffffffffffffffffffff16815260200190815260200160002060008573ffffffffffffffffffffffffffffffffffffffff1673ffffffffffffffffffffffffffffffffffffffff1681526020019081526020016000206000828254612fa291906152c5565b925050819055508080612fb4906152f9565b915050612ec7565b50837f09f73e7c1cfe948731316069115856105587fb9681d754a0037165a8a8cfe1f760405160405180910390a250505050565b60106020528060005260406000206000915054906101000a900460ff1681565b6000600d60008381526020019081526020016000209050600081600501540361307057816040517f017e57a10000000000000000000000000000000000000000000000000000000081526004016130679190614250565b60405180910390fd5b80600401544210156130bf578060040154426040517f3bd404330000000000000000000000000000000000000000000000000000000081526004016130b6929190615093565b60405180910390fd5b6000600960009054906101000a900473ffffffffffffffffffffffffffffffffffffffff1673ffffffffffffffffffffffffffffffffffffffff16639b1c385e6040518060c00160405280600a548152602001600b548152602001600c60009054906101000a900461ffff1661ffff168152602001600c60029054906101000a900463ffffffff1663ffffffff168152602001600163ffffffff168152602001613179604051806020016040528060011515815250613b95565b8152506040518263ffffffff1660e01b815260040161319891906157fd565b6020604051808303816000875af11580156131b7573d6000803e3d6000fd5b505050506040513d601f19601f820116820180604052508101906131db9190615834565b90508260146000838152602001908152602001600020819055508160030160009054906101000a900463ffffffff166015600083815260200190815260200160002060006101000a81548163ffffffff021916908363ffffffff160217905550505050565b600860009054906101000a900473ffffffffffffffffffffffffffffffffffffffff1673ffffffffffffffffffffffffffffffffffffffff163373ffffffffffffffffffffffffffffffffffffffff16146132d0576040517f08c379a00000000000000000000000000000000000000000000000000000000081526004016132c790614e29565b60405180910390fd5b600073ffffffffffffffffffffffffffffffffffffffff168173ffffffffffffffffffffffffffffffffffffffff160361333f576040517f08c379a0000000000000000000000000000000000000000000000000000000008152600401613336906158ad565b60405180910390fd5b80600760006101000a81548173ffffffffffffffffffffffffffffffffffffffff021916908373ffffffffffffffffffffffffffffffffffffffff16021790555050565b61338b613c2d565b61339481613cbf565b50565b600860009054906101000a900473ffffffffffffffffffffffffffffffffffffffff1673ffffffffffffffffffffffffffffffffffffffff163373ffffffffffffffffffffffffffffffffffffffff1614613427576040517f08c379a000000000000000000000000000000000000000000000000000000000815260040161341e90614e29565b60405180910390fd5b600073ffffffffffffffffffffffffffffffffffffffff168173ffffffffffffffffffffffffffffffffffffffff1603613496576040517f08c379a000000000000000000000000000000000000000000000000000000000815260040161348d90615919565b60405180910390fd5b80600960006101000a81548173ffffffffffffffffffffffffffffffffffffffff021916908373ffffffffffffffffffffffffffffffffffffffff16021790555050565b60026000540361351f576040517f08c379a000000000000000000000000000000000000000000000000000000000815260040161351690615073565b60405180910390fd5b600260008190555080601360003373ffffffffffffffffffffffffffffffffffffffff1673ffffffffffffffffffffffffffffffffffffffff16815260200190815260200160002060008473ffffffffffffffffffffffffffffffffffffffff1673ffffffffffffffffffffffffffffffffffffffff1681526020019081526020016000205410156135e6576040517f08c379a00000000000000000000000000000000000000000000000000000000081526004016135dd90615985565b60405180910390fd5b80601360003373ffffffffffffffffffffffffffffffffffffffff1673ffffffffffffffffffffffffffffffffffffffff16815260200190815260200160002060008473ffffffffffffffffffffffffffffffffffffffff1673ffffffffffffffffffffffffffffffffffffffff16815260200190815260200160002060008282546136729190615213565b925050819055506136a433828473ffffffffffffffffffffffffffffffffffffffff16613ded9092919063ffffffff16565b60016000819055505050565b60006014600085815260200190815260200160002054905060006015600086815260200190815260200160002060009054906101000a900463ffffffff1690506000600d60008481526020019081526020016000209050600081600a018054905090506000818787600081811061372a576137296156a2565b5b9050602002013561373b91906159d4565b9050600083600a018281548110613755576137546156a2565b5b9060005260206000200160009054906101000a900473ffffffffffffffffffffffffffffffffffffffff1690506001600f6000888460405160200161379b9291906156d1565b60405160208183030381529060405280519060200120815260200190815260200160002060006101000a81548160ff021916908315150217905550600060018560090160009054906101000a900460ff166137f69190615a05565b60ff168663ffffffff161461380f578460070154613812565b60005b905060008186600501546138269190615213565b90508273ffffffffffffffffffffffffffffffffffffffff16887fc2518a56896ff30efc4b0de222d91241ad29d5e347b5dc1465e1f28bbc6c4ac2838a604051613871929190615a3a565b60405180910390a380601360008573ffffffffffffffffffffffffffffffffffffffff1673ffffffffffffffffffffffffffffffffffffffff16815260200190815260200160002060008860060160009054906101000a900473ffffffffffffffffffffffffffffffffffffffff1673ffffffffffffffffffffffffffffffffffffffff1673ffffffffffffffffffffffffffffffffffffffff168152602001908152602001600020600082825461392991906152c5565b9250508190555060018660090160009054906101000a900460ff1661394e9190615a05565b60ff168763ffffffff160361396c5760008660050181905550613aff565b6001876139799190615a63565b8660030160006101000a81548163ffffffff021916908363ffffffff16021790555081866005018190555085600a0160006139b491906140f0565b85600a01839080600181540180825580915050600190039060005260206000200160009091909190916101000a81548173ffffffffffffffffffffffffffffffffffffffff021916908373ffffffffffffffffffffffffffffffffffffffff1602179055506001600e60008a8960030160009054906101000a900463ffffffff1687604051602001613a4893929190615176565b60405160208183030381529060405280519060200120815260200190815260200160002060006101000a81548160ff0219169083151502179055508273ffffffffffffffffffffffffffffffffffffffff16887f672d3f5897f7a8042cd8c8557caf58ece26929a410c3b1a66a34ccfd3460fcde8860030160009054906101000a900463ffffffff16604051613ade91906143b5565b60405180910390a3856008015442613af691906152c5565b86600401819055505b5050505050505050505050565b613b8f846323b872dd60e01b858585604051602401613b2d93929190615a9b565b604051602081830303815290604052907bffffffffffffffffffffffffffffffffffffffffffffffffffffffff19166020820180517bffffffffffffffffffffffffffffffffffffffffffffffffffffffff8381831617835250505050613e73565b50505050565b60607f92fd13387c7fe7befbc38d303d6468778fb9731bc4583f17d92989c6fcfdeaaa82604051602401613bc99190615afd565b604051602081830303815290604052907bffffffffffffffffffffffffffffffffffffffffffffffffffffffff19166020820180517bffffffffffffffffffffffffffffffffffffffffffffffffffffffff83818316178352505050509050919050565b600160009054906101000a900473ffffffffffffffffffffffffffffffffffffffff1673ffffffffffffffffffffffffffffffffffffffff163373ffffffffffffffffffffffffffffffffffffffff1614613cbd576040517f08c379a0000000000000000000000000000000000000000000000000000000008152600401613cb490615b64565b60405180910390fd5b565b3373ffffffffffffffffffffffffffffffffffffffff168173ffffffffffffffffffffffffffffffffffffffff1603613d2d576040517f08c379a0000000000000000000000000000000000000000000000000000000008152600401613d2490615bd0565b60405180910390fd5b80600260006101000a81548173ffffffffffffffffffffffffffffffffffffffff021916908373ffffffffffffffffffffffffffffffffffffffff1602179055508073ffffffffffffffffffffffffffffffffffffffff16600160009054906101000a900473ffffffffffffffffffffffffffffffffffffffff1673ffffffffffffffffffffffffffffffffffffffff167fed8889f560326eb138920d842192f0eb3dd22b4f139c87a2c57538e05bae127860405160405180910390a350565b613e6e8363a9059cbb60e01b8484604051602401613e0c92919061460b565b604051602081830303815290604052907bffffffffffffffffffffffffffffffffffffffffffffffffffffffff19166020820180517bffffffffffffffffffffffffffffffffffffffffffffffffffffffff8381831617835250505050613e73565b505050565b6000613ed5826040518060400160405280602081526020017f5361666545524332303a206c6f772d6c6576656c2063616c6c206661696c65648152508573ffffffffffffffffffffffffffffffffffffffff16613f3a9092919063ffffffff16565b9050600081511115613f355780806020019051810190613ef59190615c05565b613f34576040517f08c379a0000000000000000000000000000000000000000000000000000000008152600401613f2b90615ca4565b60405180910390fd5b5b505050565b6060613f498484600085613f52565b90509392505050565b606082471015613f97576040517f08c379a0000000000000000000000000000000000000000000000000000000008152600401613f8e90615d36565b60405180910390fd5b613fa085614066565b613fdf576040517f08c379a0000000000000000000000000000000000000000000000000000000008152600401613fd690615da2565b60405180910390fd5b6000808673ffffffffffffffffffffffffffffffffffffffff1685876040516140089190615df3565b60006040518083038185875af1925050503d8060008114614045576040519150601f19603f3d011682016040523d82523d6000602084013e61404a565b606091505b509150915061405a828286614089565b92505050949350505050565b6000808273ffffffffffffffffffffffffffffffffffffffff163b119050919050565b60608315614099578290506140e9565b6000835111156140ac5782518084602001fd5b816040517f08c379a00000000000000000000000000000000000000000000000000000000081526004016140e09190615e4e565b60405180910390fd5b9392505050565b508054600082559060005260206000209081019061410e9190614111565b50565b5b8082111561412a576000816000905550600101614112565b5090565b600073ffffffffffffffffffffffffffffffffffffffff82169050919050565b60006141598261412e565b9050919050565b6141698161414e565b82525050565b60006020820190506141846000830184614160565b92915050565b6000604051905090565b600080fd5b600080fd5b6000819050919050565b6141b18161419e565b81146141bc57600080fd5b50565b6000813590506141ce816141a8565b92915050565b600080604083850312156141eb576141ea614194565b5b60006141f9858286016141bf565b925050602061420a858286016141bf565b9150509250929050565b60006020828403121561422a57614229614194565b5b6000614238848285016141bf565b91505092915050565b61424a8161419e565b82525050565b60006020820190506142656000830184614241565b92915050565b600060ff82169050919050565b6142818161426b565b811461428c57600080fd5b50565b60008135905061429e81614278565b92915050565b6000602082840312156142ba576142b9614194565b5b60006142c88482850161428f565b91505092915050565b600080fd5b600080fd5b600080fd5b60008083601f8401126142f6576142f56142d1565b5b8235905067ffffffffffffffff811115614313576143126142d6565b5b60208301915083602082028301111561432f5761432e6142db565b5b9250929050565b60008060006040848603121561434f5761434e614194565b5b600061435d868287016141bf565b935050602084013567ffffffffffffffff81111561437e5761437d614199565b5b61438a868287016142e0565b92509250509250925092565b600063ffffffff82169050919050565b6143af81614396565b82525050565b60006020820190506143ca60008301846143a6565b92915050565b6000819050919050565b6143e3816143d0565b81146143ee57600080fd5b50565b600081359050614400816143da565b92915050565b600061ffff82169050919050565b61441d81614406565b811461442857600080fd5b50565b60008135905061443a81614414565b92915050565b61444981614396565b811461445457600080fd5b50565b60008135905061446681614440565b92915050565b6000806000806080858703121561448657614485614194565b5b6000614494878288016143f1565b94505060206144a5878288016141bf565b93505060406144b68782880161442b565b92505060606144c787828801614457565b91505092959194509250565b6144dc8161414e565b81146144e757600080fd5b50565b6000813590506144f9816144d3565b92915050565b60008115159050919050565b614514816144ff565b811461451f57600080fd5b50565b6000813590506145318161450b565b92915050565b6000806040838503121561454e5761454d614194565b5b600061455c858286016144ea565b925050602061456d85828601614522565b9150509250929050565b6000806040838503121561458e5761458d614194565b5b600061459c858286016141bf565b92505060206145ad858286016144ea565b9150509250929050565b6145c0816144ff565b82525050565b60006020820190506145db60008301846145b7565b92915050565b6145ea816143d0565b82525050565b600060208201905061460560008301846145e1565b92915050565b60006040820190506146206000830185614160565b61462d6020830184614241565b9392505050565b60006020828403121561464a57614649614194565b5b6000614658848285016143f1565b91505092915050565b600080fd5b6000601f19601f8301169050919050565b7f4e487b7100000000000000000000000000000000000000000000000000000000600052604160045260246000fd5b6146af82614666565b810181811067ffffffffffffffff821117156146ce576146cd614677565b5b80604052505050565b60006146e161418a565b90506146ed82826146a6565b919050565b600067ffffffffffffffff82111561470d5761470c614677565b5b61471682614666565b9050602081019050919050565b82818337600083830152505050565b6000614745614740846146f2565b6146d7565b90508281526020810184848401111561476157614760614661565b5b61476c848285614723565b509392505050565b600082601f830112614789576147886142d1565b5b8135614799848260208601614732565b91505092915050565b60008060008060008060c087890312156147bf576147be614194565b5b600087013567ffffffffffffffff8111156147dd576147dc614199565b5b6147e989828a01614774565b96505060206147fa89828a016144ea565b955050604061480b89828a016141bf565b945050606061481c89828a0161428f565b935050608061482d89828a016141bf565b92505060a061483e89828a01614522565b9150509295509295509295565b60006020828403121561486157614860614194565b5b600061486f848285016144ea565b91505092915050565b6000806040838503121561488f5761488e614194565b5b600061489d858286016144ea565b92505060206148ae858286016144ea565b9150509250929050565b6000819050919050565b60006148dd6148d86148d38461412e565b6148b8565b61412e565b9050919050565b60006148ef826148c2565b9050919050565b6000614901826148e4565b9050919050565b614911816148f6565b82525050565b600060208201905061492c6000830184614908565b92915050565b600061493d826148e4565b9050919050565b61494d81614932565b82525050565b60006020820190506149686000830184614944565b92915050565b61497781614406565b82525050565b6000602082019050614992600083018461496e565b92915050565b600081519050919050565b600082825260208201905092915050565b6000819050602082019050919050565b6149cd8161414e565b82525050565b60006149df83836149c4565b60208301905092915050565b6000602082019050919050565b6000614a0382614998565b614a0d81856149a3565b9350614a18836149b4565b8060005b83811015614a49578151614a3088826149d3565b9750614a3b836149eb565b925050600181019050614a1c565b5085935050505092915050565b60006020820190508181036000830152614a7081846149f8565b905092915050565b600081519050919050565b600082825260208201905092915050565b60005b83811015614ab2578082015181840152602081019050614a97565b60008484015250505050565b6000614ac982614a78565b614ad38185614a83565b9350614ae3818560208601614a94565b614aec81614666565b840191505092915050565b614b008161426b565b82525050565b600061018082019050614b1c600083018f614241565b614b29602083018e614160565b8181036040830152614b3b818d614abe565b9050614b4a606083018c6143a6565b614b57608083018b614241565b614b6460a083018a614241565b614b7160c0830189614160565b614b7e60e0830188614241565b614b8c610100830187614241565b614b9a610120830186614af7565b614ba8610140830185614af7565b614bb66101608301846145b7565b9d9c50505050505050505050505050565b60008083601f840112614bdd57614bdc6142d1565b5b8235905067ffffffffffffffff811115614bfa57614bf96142d6565b5b602083019150836020820283011115614c1657614c156142db565b5b9250929050565b600080600060408486031215614c3657614c35614194565b5b6000614c44868287016141bf565b935050602084013567ffffffffffffffff811115614c6557614c64614199565b5b614c7186828701614bc7565b92509250509250925092565b600081519050919050565b600082825260208201905092915050565b6000819050602082019050919050565b614cb28161419e565b82525050565b604082016000820151614cce60008501826149c4565b506020820151614ce16020850182614ca9565b50505050565b6000614cf38383614cb8565b60408301905092915050565b6000602082019050919050565b6000614d1782614c7d565b614d218185614c88565b9350614d2c83614c99565b8060005b83811015614d5d578151614d448882614ce7565b9750614d4f83614cff565b925050600181019050614d30565b5085935050505092915050565b60006020820190508181036000830152614d848184614d0c565b905092915050565b60008060408385031215614da357614da2614194565b5b6000614db1858286016144ea565b9250506020614dc2858286016141bf565b9150509250929050565b600082825260208201905092915050565b7f4e6f742074686520706f746c75636b206f776e65720000000000000000000000600082015250565b6000614e13601583614dcc565b9150614e1e82614ddd565b602082019050919050565b60006020820190508181036000830152614e4281614e06565b9050919050565b7f4e487b7100000000000000000000000000000000000000000000000000000000600052601160045260246000fd5b6000614e838261419e565b9150614e8e8361419e565b9250828202614e9c8161419e565b91508282048414831517614eb357614eb2614e49565b5b5092915050565b6000604082019050614ecf6000830185614160565b614edc6020830184614160565b9392505050565b7f4e6f2062616c616e636520746f20776974686472617700000000000000000000600082015250565b6000614f19601683614dcc565b9150614f2482614ee3565b602082019050919050565b60006020820190508181036000830152614f4881614f0c565b9050919050565b7f496e76616c696420746f6b656e20616464726573730000000000000000000000600082015250565b6000614f85601583614dcc565b9150614f9082614f4f565b602082019050919050565b60006020820190508181036000830152614fb481614f78565b9050919050565b7f4d7573742062652070726f706f736564206f776e657200000000000000000000600082015250565b6000614ff1601683614dcc565b9150614ffc82614fbb565b602082019050919050565b6000602082019050818103600083015261502081614fe4565b9050919050565b7f5265656e7472616e637947756172643a207265656e7472616e742063616c6c00600082015250565b600061505d601f83614dcc565b915061506882615027565b602082019050919050565b6000602082019050818103600083015261508c81615050565b9050919050565b60006040820190506150a86000830185614241565b6150b56020830184614241565b9392505050565b60006020820190506150d16000830184614af7565b92915050565b6000819050919050565b6150f26150ed8261419e565b6150d7565b82525050565b60008160e01b9050919050565b6000615110826150f8565b9050919050565b61512861512382614396565b615105565b82525050565b60008160601b9050919050565b60006151468261512e565b9050919050565b60006151588261513b565b9050919050565b61517061516b8261414e565b61514d565b82525050565b600061518282866150e1565b6020820191506151928285615117565b6004820191506151a2828461515f565b601482019150819050949350505050565b60006060820190506151c86000830186614241565b6151d560208301856143a6565b6151e26040830184614160565b949350505050565b60006151f58261426b565b915060ff820361520857615207614e49565b5b600182019050919050565b600061521e8261419e565b91506152298361419e565b925082820390508181111561524157615240614e49565b5b92915050565b600081905092915050565b50565b6000615262600083615247565b915061526d82615252565b600082019050919050565b600061528382615255565b9150819050919050565b600061529882614396565b91506152a383614396565b9250828203905063ffffffff8111156152bf576152be614e49565b5b92915050565b60006152d08261419e565b91506152db8361419e565b92508282019050808211156152f3576152f2614e49565b5b92915050565b60006153048261419e565b91507fffffffffffffffffffffffffffffffffffffffffffffffffffffffffffffffff820361533657615335614e49565b5b600182019050919050565b7f4e487b7100000000000000000000000000000000000000000000000000000000600052602260045260246000fd5b6000600282049050600182168061538857607f821691505b60208210810361539b5761539a615341565b5b50919050565b60008190508160005260206000209050919050565b60006020601f8301049050919050565b600082821b905092915050565b6000600883026154037fffffffffffffffffffffffffffffffffffffffffffffffffffffffffffffffff826153c6565b61540d86836153c6565b95508019841693508086168417925050509392505050565b600061544061543b6154368461419e565b6148b8565b61419e565b9050919050565b6000819050919050565b61545a83615425565b61546e61546682615447565b8484546153d3565b825550505050565b600090565b615483615476565b61548e818484615451565b505050565b5b818110156154b2576154a760008261547b565b600181019050615494565b5050565b601f8211156154f7576154c8816153a1565b6154d1846153b6565b810160208510156154e0578190505b6154f46154ec856153b6565b830182615493565b50505b505050565b600082821c905092915050565b600061551a600019846008026154fc565b1980831691505092915050565b60006155338383615509565b9150826002028217905092915050565b61554c82614a78565b67ffffffffffffffff81111561556557615564614677565b5b61556f8254615370565b61557a8282856154b6565b600060209050601f8311600181146155ad576000841561559b578287015190505b6155a58582615527565b86555061560d565b601f1984166155bb866153a1565b60005b828110156155e3578489015182556001820191506020850194506020810190506155be565b8683101561560057848901516155fc601f891682615509565b8355505b6001600288020188555050505b505050505050565b6000819050919050565b600061563a61563561563084615615565b6148b8565b614396565b9050919050565b61564a8161561f565b82525050565b60006020820190506156656000830184615641565b92915050565b60006060820190506156806000830186614160565b61568d6020830185614160565b61569a6040830184614160565b949350505050565b7f4e487b7100000000000000000000000000000000000000000000000000000000600052603260045260246000fd5b60006156dd82856150e1565b6020820191506156ed828461515f565b6014820191508190509392505050565b615706816143d0565b82525050565b61571581614406565b82525050565b61572481614396565b82525050565b600082825260208201905092915050565b600061574682614a78565b615750818561572a565b9350615760818560208601614a94565b61576981614666565b840191505092915050565b600060c08301600083015161578c60008601826156fd565b50602083015161579f6020860182614ca9565b5060408301516157b2604086018261570c565b5060608301516157c5606086018261571b565b5060808301516157d8608086018261571b565b5060a083015184820360a08601526157f0828261573b565b9150508091505092915050565b600060208201905081810360008301526158178184615774565b905092915050565b60008151905061582e816141a8565b92915050565b60006020828403121561584a57615849614194565b5b60006158588482850161581f565b91505092915050565b7f496e76616c696420747265617375727920616464726573730000000000000000600082015250565b6000615897601883614dcc565b91506158a282615861565b602082019050919050565b600060208201905081810360008301526158c68161588a565b9050919050565b7f496e76616c69642056524620436f6f7264696e61746f72206164647265737300600082015250565b6000615903601f83614dcc565b915061590e826158cd565b602082019050919050565b60006020820190508181036000830152615932816158f6565b9050919050565b7f496e73756666696369656e742062616c616e6365000000000000000000000000600082015250565b600061596f601483614dcc565b915061597a82615939565b602082019050919050565b6000602082019050818103600083015261599e81615962565b9050919050565b7f4e487b7100000000000000000000000000000000000000000000000000000000600052601260045260246000fd5b60006159df8261419e565b91506159ea8361419e565b9250826159fa576159f96159a5565b5b828206905092915050565b6000615a108261426b565b9150615a1b8361426b565b9250828203905060ff811115615a3457615a33614e49565b5b92915050565b6000604082019050615a4f6000830185614241565b615a5c60208301846143a6565b9392505050565b6000615a6e82614396565b9150615a7983614396565b9250828201905063ffffffff811115615a9557615a94614e49565b5b92915050565b6000606082019050615ab06000830186614160565b615abd6020830185614160565b615aca6040830184614241565b949350505050565b615adb816144ff565b82525050565b602082016000820151615af76000850182615ad2565b50505050565b6000602082019050615b126000830184615ae1565b92915050565b7f4f6e6c792063616c6c61626c65206279206f776e657200000000000000000000600082015250565b6000615b4e601683614dcc565b9150615b5982615b18565b602082019050919050565b60006020820190508181036000830152615b7d81615b41565b9050919050565b7f43616e6e6f74207472616e7366657220746f2073656c66000000000000000000600082015250565b6000615bba601783614dcc565b9150615bc582615b84565b602082019050919050565b60006020820190508181036000830152615be981615bad565b9050919050565b600081519050615bff8161450b565b92915050565b600060208284031215615c1b57615c1a614194565b5b6000615c2984828501615bf0565b91505092915050565b7f5361666545524332303a204552433230206f7065726174696f6e20646964206e60008201527f6f74207375636365656400000000000000000000000000000000000000000000602082015250565b6000615c8e602a83614dcc565b9150615c9982615c32565b604082019050919050565b60006020820190508181036000830152615cbd81615c81565b9050919050565b7f416464726573733a20696e73756666696369656e742062616c616e636520666f60008201527f722063616c6c0000000000000000000000000000000000000000000000000000602082015250565b6000615d20602683614dcc565b9150615d2b82615cc4565b604082019050919050565b60006020820190508181036000830152615d4f81615d13565b9050919050565b7f416464726573733a2063616c6c20746f206e6f6e2d636f6e7472616374000000600082015250565b6000615d8c601d83614dcc565b9150615d9782615d56565b602082019050919050565b60006020820190508181036000830152615dbb81615d7f565b9050919050565b6000615dcd82614a78565b615dd78185615247565b9350615de7818560208601614a94565b80840191505092915050565b6000615dff8284615dc2565b915081905092915050565b600081519050919050565b6000615e2082615e0a565b615e2a8185614dcc565b9350615e3a818560208601614a94565b615e4381614666565b840191505092915050565b60006020820190508181036000830152615e688184615e15565b90509291505056fea2646970667358221220baa32199a2d56389d18758a1ae9671d1f50e92379bd50063588b0aa8104f4db464736f6c63430008130033","linkReferences":{}},"methodIdentifiers":{"acceptOwnership()":"79ba5097","allowParticipants(uint256,address[])":"c5072ca8","allowedTokens(address)":"e744092e","callbackGasLimit()":"24f74697","createPot(bytes,address,uint256,uint8,uint256,bool)":"8661ffca","endPot(uint256)":"e0321cd4","getCreatorFee(uint8)":"d1abb12a","getParticipantFee(uint8)":"13f2cef9","getParticipants(uint256)":"c1e3bd3e","getRequests(uint256)":"d5e78829","hasJoinedRound(bytes32)":"7a4f4436","hasWon(bytes32)":"6b7fd007","isAllowed(uint256,address)":"5faa299a","joinOnBehalf(uint256,address)":"9999fea0","joinPot(uint256)":"831d49ef","keyHash()":"61728f39","owner()":"8da5cb5b","participantFee()":"9c031ace","platformFee()":"26232a2e","potCount()":"cf72f230","potluckOwner()":"09c1f8ff","pots(uint256)":"c3c3df4f","rawFulfillRandomWords(uint256,uint256[])":"1fe543e3","requestConfirmations()":"b0fb162f","requestPotAllow(uint256)":"65c7444d","requestToPot(uint256)":"1301cd25","requestToRound(uint256)":"385542f0","requestedParticipants(uint256,uint256)":"61734cd6","s_subscriptionId()":"8ac00021","s_vrfCoordinator()":"9eccacf6","setChainlinkVRF(address)":"f39c5d51","setChainlinkVRF(bytes32,uint256,uint16,uint32)":"3bb2261d","setCoordinator(address)":"8ea98117","setFees(uint256,uint256)":"0b78f9c0","setTokenStatus(address,bool)":"4cd73548","setTreasury(address)":"f0f44260","transferOwnership(address)":"f2fde38b","treasury()":"61d027b3","triggerPotPayout(uint256)":"e90c88fe","vrfCoordinator()":"a3e56fa8","withdraw()":"3ccfd60b","withdraw(address,uint256)":"f3fef3a3","withdrawalBalances(address,address)":"908fe934"},"id":39}