{"abi":[{"type":"constructor","inputs":[{"name":"_platformFee","type":"uint256","internalType":"uint256"},{"name":"_partFee","type":"uint256","internalType":"uint256"},{"name":"_treasury","type":"address","internalType":"address"},{"name":"_vrfCoordinator","type":"address","internalType":"address"}],"stateMutability":"nonpayable"},{"type":"function","name":"acceptOwnership","inputs":[],"outputs":[],"stateMutability":"nonpayable"},{"type":"function","name":"allowParticipants","inputs":[{"name":"potId","type":"uint256","internalType":"uint256"},{"name":"participants","type":"address[]","internalType":"address[]"}],"outputs":[],"stateMutability":"nonpayable"},{"type":"function","name":"callbackGasLimit","inputs":[],"outputs":[{"name":"","type":"uint32","internalType":"uint32"}],"stateMutability":"view"},{"type":"function","name":"createPot","inputs":[{"name":"name","type":"bytes","internalType":"bytes"},{"name":"token","type":"address","internalType":"address"},{"name":"entryAmount","type":"uint256","internalType":"uint256"},{"name":"maxParticipants","type":"uint8","internalType":"uint8"},{"name":"periodSeconds","type":"uint256","internalType":"uint256"},{"name":"isPublic","type":"bool","internalType":"bool"}],"outputs":[],"stateMutability":"payable"},{"type":"function","name":"endBatch","inputs":[{"name":"potIds","type":"uint256[]","internalType":"uint256[]"}],"outputs":[],"stateMutability":"nonpayable"},{"type":"function","name":"endPot","inputs":[{"name":"potId","type":"uint256","internalType":"uint256"}],"outputs":[],"stateMutability":"nonpayable"},{"type":"function","name":"getParticipants","inputs":[{"name":"potId","type":"uint256","internalType":"uint256"}],"outputs":[{"name":"","type":"address[]","internalType":"address[]"}],"stateMutability":"view"},{"type":"function","name":"getRequests","inputs":[{"name":"potId","type":"uint256","internalType":"uint256"}],"outputs":[{"name":"","type":"tuple[]","internalType":"struct Potluck.PotRequest[]","components":[{"name":"requestor","type":"address","internalType":"address"},{"name":"timestamp","type":"uint256","internalType":"uint256"},{"name":"status","type":"uint8","internalType":"enum Potluck.RequestStatus"}]}],"stateMutability":"view"},{"type":"function","name":"hasJoinedRound","inputs":[{"name":"","type":"bytes32","internalType":"bytes32"}],"outputs":[{"name":"","type":"bool","internalType":"bool"}],"stateMutability":"view"},{"type":"function","name":"hasWon","inputs":[{"name":"","type":"bytes32","internalType":"bytes32"}],"outputs":[{"name":"","type":"bool","internalType":"bool"}],"stateMutability":"view"},{"type":"function","name":"isAllowed","inputs":[{"name":"","type":"uint256","internalType":"uint256"},{"name":"","type":"address","internalType":"address"}],"outputs":[{"name":"","type":"bool","internalType":"bool"}],"stateMutability":"view"},{"type":"function","name":"joinOnBehalf","inputs":[{"name":"potId","type":"uint256","internalType":"uint256"},{"name":"participant","type":"address","internalType":"address"}],"outputs":[],"stateMutability":"nonpayable"},{"type":"function","name":"joinPot","inputs":[{"name":"potId","type":"uint256","internalType":"uint256"}],"outputs":[],"stateMutability":"nonpayable"},{"type":"function","name":"keyHash","inputs":[],"outputs":[{"name":"","type":"bytes32","internalType":"bytes32"}],"stateMutability":"view"},{"type":"function","name":"owner","inputs":[],"outputs":[{"name":"","type":"address","internalType":"address"}],"stateMutability":"view"},{"type":"function","name":"participantFee","inputs":[],"outputs":[{"name":"","type":"uint256","internalType":"uint256"}],"stateMutability":"view"},{"type":"function","name":"platformFee","inputs":[],"outputs":[{"name":"","type":"uint256","internalType":"uint256"}],"stateMutability":"view"},{"type":"function","name":"potCount","inputs":[],"outputs":[{"name":"","type":"uint256","internalType":"uint256"}],"stateMutability":"view"},{"type":"function","name":"potluckOwner","inputs":[],"outputs":[{"name":"","type":"address","internalType":"address"}],"stateMutability":"view"},{"type":"function","name":"pots","inputs":[{"name":"","type":"uint256","internalType":"uint256"}],"outputs":[{"name":"id","type":"uint256","internalType":"uint256"},{"name":"creator","type":"address","internalType":"address"},{"name":"name","type":"bytes","internalType":"bytes"},{"name":"round","type":"uint32","internalType":"uint32"},{"name":"deadline","type":"uint256","internalType":"uint256"},{"name":"balance","type":"uint256","internalType":"uint256"},{"name":"token","type":"address","internalType":"address"},{"name":"entryAmount","type":"uint256","internalType":"uint256"},{"name":"period","type":"uint256","internalType":"uint256"},{"name":"totalParticipants","type":"uint32","internalType":"uint32"},{"name":"maxParticipants","type":"uint8","internalType":"uint8"},{"name":"isPublic","type":"bool","internalType":"bool"}],"stateMutability":"view"},{"type":"function","name":"rawFulfillRandomWords","inputs":[{"name":"requestId","type":"uint256","internalType":"uint256"},{"name":"randomWords","type":"uint256[]","internalType":"uint256[]"}],"outputs":[],"stateMutability":"nonpayable"},{"type":"function","name":"requestConfirmations","inputs":[],"outputs":[{"name":"","type":"uint16","internalType":"uint16"}],"stateMutability":"view"},{"type":"function","name":"requestPotAllow","inputs":[{"name":"potId","type":"uint256","internalType":"uint256"}],"outputs":[],"stateMutability":"nonpayable"},{"type":"function","name":"requestToPot","inputs":[{"name":"","type":"uint256","internalType":"uint256"}],"outputs":[{"name":"","type":"uint256","internalType":"uint256"}],"stateMutability":"view"},{"type":"function","name":"requestToRound","inputs":[{"name":"","type":"uint256","internalType":"uint256"}],"outputs":[{"name":"","type":"uint32","internalType":"uint32"}],"stateMutability":"view"},{"type":"function","name":"requestedParticipants","inputs":[{"name":"","type":"uint256","internalType":"uint256"},{"name":"","type":"uint256","internalType":"uint256"}],"outputs":[{"name":"requestor","type":"address","internalType":"address"},{"name":"timestamp","type":"uint256","internalType":"uint256"},{"name":"status","type":"uint8","internalType":"enum Potluck.RequestStatus"}],"stateMutability":"view"},{"type":"function","name":"s_subscriptionId","inputs":[],"outputs":[{"name":"","type":"uint64","internalType":"uint64"}],"stateMutability":"view"},{"type":"function","name":"s_vrfCoordinator","inputs":[],"outputs":[{"name":"","type":"address","internalType":"contract IVRFCoordinatorV2Plus"}],"stateMutability":"view"},{"type":"function","name":"setCoordinator","inputs":[{"name":"_vrfCoordinator","type":"address","internalType":"address"}],"outputs":[],"stateMutability":"nonpayable"},{"type":"function","name":"setFees","inputs":[{"name":"_flatFee","type":"uint256","internalType":"uint256"},{"name":"_perPartFee","type":"uint256","internalType":"uint256"}],"outputs":[],"stateMutability":"nonpayable"},{"type":"function","name":"setTreasury","inputs":[{"name":"newTreasury","type":"address","internalType":"address"}],"outputs":[],"stateMutability":"nonpayable"},{"type":"function","name":"transferOwnership","inputs":[{"name":"to","type":"address","internalType":"address"}],"outputs":[],"stateMutability":"nonpayable"},{"type":"function","name":"treasury","inputs":[],"outputs":[{"name":"","type":"address","internalType":"address"}],"stateMutability":"view"},{"type":"function","name":"triggerBatchJoinOnBehalf","inputs":[{"name":"potId","type":"uint256","internalType":"uint256"},{"name":"participants","type":"address[]","internalType":"address[]"}],"outputs":[],"stateMutability":"nonpayable"},{"type":"function","name":"triggerBatchPayout","inputs":[{"name":"potIds","type":"uint256[]","internalType":"uint256[]"}],"outputs":[],"stateMutability":"nonpayable"},{"type":"function","name":"triggerPotPayout","inputs":[{"name":"potId","type":"uint256","internalType":"uint256"}],"outputs":[],"stateMutability":"nonpayable"},{"type":"function","name":"vrfCoordinator","inputs":[],"outputs":[{"name":"","type":"address","internalType":"contract VRFCoordinatorV2_5"}],"stateMutability":"view"},{"type":"function","name":"withdraw","inputs":[],"outputs":[],"stateMutability":"nonpayable"},{"type":"event","name":"AllowedParticipantAdded","inputs":[{"name":"potId","type":"uint256","indexed":true,"internalType":"uint256"},{"name":"user","type":"address","indexed":true,"internalType":"address"}],"anonymous":false},{"type":"event","name":"CoordinatorSet","inputs":[{"name":"vrfCoordinator","type":"address","indexed":false,"internalType":"address"}],"anonymous":false},{"type":"event","name":"OwnershipTransferRequested","inputs":[{"name":"from","type":"address","indexed":true,"internalType":"address"},{"name":"to","type":"address","indexed":true,"internalType":"address"}],"anonymous":false},{"type":"event","name":"OwnershipTransferred","inputs":[{"name":"from","type":"address","indexed":true,"internalType":"address"},{"name":"to","type":"address","indexed":true,"internalType":"address"}],"anonymous":false},{"type":"event","name":"PotAllowRequested","inputs":[{"name":"potId","type":"uint256","indexed":true,"internalType":"uint256"},{"name":"requestor","type":"address","indexed":true,"internalType":"address"}],"anonymous":false},{"type":"event","name":"PotCreated","inputs":[{"name":"potId","type":"uint256","indexed":true,"internalType":"uint256"},{"name":"creator","type":"address","indexed":true,"internalType":"address"}],"anonymous":false},{"type":"event","name":"PotEnded","inputs":[{"name":"potId","type":"uint256","indexed":true,"internalType":"uint256"}],"anonymous":false},{"type":"event","name":"PotJoined","inputs":[{"name":"potId","type":"uint256","indexed":true,"internalType":"uint256"},{"name":"roundId","type":"uint32","indexed":false,"internalType":"uint32"},{"name":"user","type":"address","indexed":true,"internalType":"address"}],"anonymous":false},{"type":"event","name":"PotPayout","inputs":[{"name":"potId","type":"uint256","indexed":true,"internalType":"uint256"},{"name":"winner","type":"address","indexed":true,"internalType":"address"},{"name":"amount","type":"uint256","indexed":false,"internalType":"uint256"},{"name":"round","type":"uint32","indexed":false,"internalType":"uint32"}],"anonymous":false},{"type":"error","name":"AlreadyJoined","inputs":[{"name":"potId","type":"uint256","internalType":"uint256"},{"name":"round","type":"uint32","internalType":"uint32"},{"name":"user","type":"address","internalType":"address"}]},{"type":"error","name":"EntryAmountZero","inputs":[]},{"type":"error","name":"InsufficientFundsToCreatePot","inputs":[{"name":"sent","type":"uint256","internalType":"uint256"},{"name":"required","type":"uint256","internalType":"uint256"}]},{"type":"error","name":"InsufficientFundsToRollover","inputs":[{"name":"total","type":"uint256","internalType":"uint256"},{"name":"rollover","type":"uint256","internalType":"uint256"}]},{"type":"error","name":"NoEligibleParticipants","inputs":[]},{"type":"error","name":"NotAllParticipantsWon","inputs":[{"name":"potId","type":"uint256","internalType":"uint256"}]},{"type":"error","name":"NotAllowed","inputs":[{"name":"user","type":"address","internalType":"address"},{"name":"potId","type":"uint256","internalType":"uint256"}]},{"type":"error","name":"NotPotCreator","inputs":[{"name":"sender","type":"address","internalType":"address"},{"name":"potId","type":"uint256","internalType":"uint256"}]},{"type":"error","name":"OnlyCoordinatorCanFulfill","inputs":[{"name":"have","type":"address","internalType":"address"},{"name":"want","type":"address","internalType":"address"}]},{"type":"error","name":"OnlyOwnerOrCoordinator","inputs":[{"name":"have","type":"address","internalType":"address"},{"name":"owner","type":"address","internalType":"address"},{"name":"coordinator","type":"address","internalType":"address"}]},{"type":"error","name":"PeriodTooShort","inputs":[]},{"type":"error","name":"PotDoesNotExist","inputs":[{"name":"potId","type":"uint256","internalType":"uint256"}]},{"type":"error","name":"PotFull","inputs":[{"name":"maxParticipants","type":"uint8","internalType":"uint8"}]},{"type":"error","name":"RoundEnded","inputs":[{"name":"deadline","type":"uint256","internalType":"uint256"},{"name":"nowTimestamp","type":"uint256","internalType":"uint256"}]},{"type":"error","name":"RoundNotReady","inputs":[{"name":"deadline","type":"uint256","internalType":"uint256"},{"name":"nowTimestamp","type":"uint256","internalType":"uint256"}]},{"type":"error","name":"ZeroAddress","inputs":[]}],"bytecode":{"object":"0x60806040523480156200001157600080fd5b5060405162005a9938038062005a9983398181016040528101906200003791906200049b565b80338060006001600081905550600073ffffffffffffffffffffffffffffffffffffffff168273ffffffffffffffffffffffffffffffffffffffff1603620000b6576040517f08c379a0000000000000000000000000000000000000000000000000000000008152600401620000ad906200056e565b60405180910390fd5b81600160006101000a81548173ffffffffffffffffffffffffffffffffffffffff021916908373ffffffffffffffffffffffffffffffffffffffff160217905550600073ffffffffffffffffffffffffffffffffffffffff168173ffffffffffffffffffffffffffffffffffffffff16146200013e576200013d81620002c560201b60201c565b5b505050600073ffffffffffffffffffffffffffffffffffffffff168173ffffffffffffffffffffffffffffffffffffffff1603620001a8576040517fd92e233d00000000000000000000000000000000000000000000000000000000815260040160405180910390fd5b80600360006101000a81548173ffffffffffffffffffffffffffffffffffffffff021916908373ffffffffffffffffffffffffffffffffffffffff160217905550508360058190555081600760006101000a81548173ffffffffffffffffffffffffffffffffffffffff021916908373ffffffffffffffffffffffffffffffffffffffff1602179055508260068190555033600860006101000a81548173ffffffffffffffffffffffffffffffffffffffff021916908373ffffffffffffffffffffffffffffffffffffffff16021790555080600960006101000a81548173ffffffffffffffffffffffffffffffffffffffff021916908373ffffffffffffffffffffffffffffffffffffffff1602179055505050505062000602565b3373ffffffffffffffffffffffffffffffffffffffff168173ffffffffffffffffffffffffffffffffffffffff160362000336576040517f08c379a00000000000000000000000000000000000000000000000000000000081526004016200032d90620005e0565b60405180910390fd5b80600260006101000a81548173ffffffffffffffffffffffffffffffffffffffff021916908373ffffffffffffffffffffffffffffffffffffffff1602179055508073ffffffffffffffffffffffffffffffffffffffff16600160009054906101000a900473ffffffffffffffffffffffffffffffffffffffff1673ffffffffffffffffffffffffffffffffffffffff167fed8889f560326eb138920d842192f0eb3dd22b4f139c87a2c57538e05bae127860405160405180910390a350565b600080fd5b6000819050919050565b6200041081620003fb565b81146200041c57600080fd5b50565b600081519050620004308162000405565b92915050565b600073ffffffffffffffffffffffffffffffffffffffff82169050919050565b6000620004638262000436565b9050919050565b620004758162000456565b81146200048157600080fd5b50565b60008151905062000495816200046a565b92915050565b60008060008060808587031215620004b857620004b7620003f6565b5b6000620004c8878288016200041f565b9450506020620004db878288016200041f565b9350506040620004ee8782880162000484565b9250506060620005018782880162000484565b91505092959194509250565b600082825260208201905092915050565b7f43616e6e6f7420736574206f776e657220746f207a65726f0000000000000000600082015250565b6000620005566018836200050d565b915062000563826200051e565b602082019050919050565b60006020820190508181036000830152620005898162000547565b9050919050565b7f43616e6e6f74207472616e7366657220746f2073656c66000000000000000000600082015250565b6000620005c86017836200050d565b9150620005d58262000590565b602082019050919050565b60006020820190508181036000830152620005fb81620005b9565b9050919050565b61548780620006126000396000f3fe6080604052600436106102255760003560e01c80638ac0002111610123578063c1e3bd3e116100ab578063de1149b31161006f578063de1149b31461081b578063e0321cd414610844578063e90c88fe1461086d578063f0f4426014610896578063f2fde38b146108bf57610225565b8063c1e3bd3e14610705578063c3c3df4f14610742578063c5072ca81461078a578063cf72f230146107b3578063d5e78829146107de57610225565b80639c031ace116100f25780639c031ace146106305780639eccacf61461065b578063a3e56fa814610686578063a88390dc146106b1578063b0fb162f146106da57610225565b80638ac00021146105885780638da5cb5b146105b35780638ea98117146105de5780639999fea01461060757610225565b80635faa299a116101b15780636b7fd007116101755780636b7fd007146104b257806379ba5097146104ef5780637a4f443614610506578063831d49ef146105435780638661ffca1461056c57610225565b80635faa299a146103b757806361728f39146103f457806361734cd61461041f57806361d027b31461045e57806365c7444d1461048957610225565b806324f74697116101f857806324f74697146102e457806326232a2e1461030f5780632fd997121461033a578063385542f0146103635780633ccfd60b146103a057610225565b806309c1f8ff1461022a5780630b78f9c0146102555780631301cd251461027e5780631fe543e3146102bb575b600080fd5b34801561023657600080fd5b5061023f6108e8565b60405161024c9190613917565b60405180910390f35b34801561026157600080fd5b5061027c6004803603810190610277919061397c565b61090e565b005b34801561028a57600080fd5b506102a560048036038101906102a091906139bc565b6109b0565b6040516102b291906139f8565b60405180910390f35b3480156102c757600080fd5b506102e260048036038101906102dd9190613a78565b6109c8565b005b3480156102f057600080fd5b506102f9610a8e565b6040516103069190613af7565b60405180910390f35b34801561031b57600080fd5b50610324610aa4565b60405161033191906139f8565b60405180910390f35b34801561034657600080fd5b50610361600480360381019061035c9190613b12565b610aaa565b005b34801561036f57600080fd5b5061038a600480360381019061038591906139bc565b610af2565b6040516103979190613af7565b60405180910390f35b3480156103ac57600080fd5b506103b5610b15565b005b3480156103c357600080fd5b506103de60048036038101906103d99190613b8b565b610c59565b6040516103eb9190613be6565b60405180910390f35b34801561040057600080fd5b50610409610c88565b6040516104169190613c1a565b60405180910390f35b34801561042b57600080fd5b506104466004803603810190610441919061397c565b610c8e565b60405161045593929190613cac565b60405180910390f35b34801561046a57600080fd5b50610473610d02565b6040516104809190613917565b60405180910390f35b34801561049557600080fd5b506104b060048036038101906104ab91906139bc565b610d28565b005b3480156104be57600080fd5b506104d960048036038101906104d49190613d0f565b610e72565b6040516104e69190613be6565b60405180910390f35b3480156104fb57600080fd5b50610504610e92565b005b34801561051257600080fd5b5061052d60048036038101906105289190613d0f565b611029565b60405161053a9190613be6565b60405180910390f35b34801561054f57600080fd5b5061056a600480360381019061056591906139bc565b611049565b005b61058660048036038101906105819190613ee2565b61158c565b005b34801561059457600080fd5b5061059d611b1e565b6040516105aa9190613fae565b60405180910390f35b3480156105bf57600080fd5b506105c8611b38565b6040516105d59190613917565b60405180910390f35b3480156105ea57600080fd5b5061060560048036038101906106009190613fc9565b611b62565b005b34801561061357600080fd5b5061062e60048036038101906106299190613b8b565b611d43565b005b34801561063c57600080fd5b506106456121ea565b60405161065291906139f8565b60405180910390f35b34801561066757600080fd5b506106706121f0565b60405161067d9190614055565b60405180910390f35b34801561069257600080fd5b5061069b612216565b6040516106a89190614091565b60405180910390f35b3480156106bd57600080fd5b506106d860048036038101906106d39190613b12565b61223c565b005b3480156106e657600080fd5b506106ef612284565b6040516106fc91906140c9565b60405180910390f35b34801561071157600080fd5b5061072c600480360381019061072791906139bc565b612298565b60405161073991906141a2565b60405180910390f35b34801561074e57600080fd5b50610769600480360381019061076491906139bc565b61233c565b6040516107819c9b9a99989796959493929190614252565b60405180910390f35b34801561079657600080fd5b506107b160048036038101906107ac9190614369565b61249e565b005b3480156107bf57600080fd5b506107c86126b0565b6040516107d591906139f8565b60405180910390f35b3480156107ea57600080fd5b50610805600480360381019061080091906139bc565b6126b6565b60405161081291906144d8565b60405180910390f35b34801561082757600080fd5b50610842600480360381019061083d9190614369565b6127c3565b005b34801561085057600080fd5b5061086b600480360381019061086691906139bc565b61281b565b005b34801561087957600080fd5b50610894600480360381019061088f91906139bc565b612aba565b005b3480156108a257600080fd5b506108bd60048036038101906108b89190613fc9565b612d5d565b005b3480156108cb57600080fd5b506108e660048036038101906108e19190613fc9565b612ea0565b005b600860009054906101000a900473ffffffffffffffffffffffffffffffffffffffff1681565b600860009054906101000a900473ffffffffffffffffffffffffffffffffffffffff1673ffffffffffffffffffffffffffffffffffffffff163373ffffffffffffffffffffffffffffffffffffffff161461099e576040517f08c379a000000000000000000000000000000000000000000000000000000000815260040161099590614557565b60405180910390fd5b81600581905550806006819055505050565b60116020528060005260406000206000915090505481565b600360009054906101000a900473ffffffffffffffffffffffffffffffffffffffff1673ffffffffffffffffffffffffffffffffffffffff163373ffffffffffffffffffffffffffffffffffffffff1614610a7e5733600360009054906101000a900473ffffffffffffffffffffffffffffffffffffffff166040517f1cf993f4000000000000000000000000000000000000000000000000000000008152600401610a75929190614577565b60405180910390fd5b610a89838383612eb4565b505050565b600b600a9054906101000a900463ffffffff1681565b60055481565b60005b82829050811015610aed57610ada838383818110610ace57610acd6145a0565b5b9050602002013561281b565b8080610ae5906145fe565b915050610aad565b505050565b60126020528060005260406000206000915054906101000a900463ffffffff1681565b600860009054906101000a900473ffffffffffffffffffffffffffffffffffffffff1673ffffffffffffffffffffffffffffffffffffffff163373ffffffffffffffffffffffffffffffffffffffff1614610ba5576040517f08c379a0000000000000000000000000000000000000000000000000000000008152600401610b9c90614557565b60405180910390fd5b600047905060008111610bed576040517f08c379a0000000000000000000000000000000000000000000000000000000008152600401610be490614692565b60405180910390fd5b600760009054906101000a900473ffffffffffffffffffffffffffffffffffffffff1673ffffffffffffffffffffffffffffffffffffffff166108fc829081150290604051600060405180830381858888f19350505050158015610c55573d6000803e3d6000fd5b5050565b600f6020528160005260406000206020528060005260406000206000915091509054906101000a900460ff1681565b600a5481565b60106020528160005260406000208181548110610caa57600080fd5b9060005260206000209060030201600091509150508060000160009054906101000a900473ffffffffffffffffffffffffffffffffffffffff16908060010154908060020160009054906101000a900460ff16905083565b600760009054906101000a900473ffffffffffffffffffffffffffffffffffffffff1681565b6010600082815260200190815260200160002060405180606001604052803373ffffffffffffffffffffffffffffffffffffffff16815260200142815260200160006002811115610d7c57610d7b613c35565b5b815250908060018154018082558091505060019003906000526020600020906003020160009091909190915060008201518160000160006101000a81548173ffffffffffffffffffffffffffffffffffffffff021916908373ffffffffffffffffffffffffffffffffffffffff1602179055506020820151816001015560408201518160020160006101000a81548160ff02191690836002811115610e2457610e23613c35565b5b021790555050503373ffffffffffffffffffffffffffffffffffffffff16817f14a1608330df21406b2c36c4c92e47f22c9abd31d9df75abc4af2bdb477469bb60405160405180910390a350565b600e6020528060005260406000206000915054906101000a900460ff1681565b600260009054906101000a900473ffffffffffffffffffffffffffffffffffffffff1673ffffffffffffffffffffffffffffffffffffffff163373ffffffffffffffffffffffffffffffffffffffff1614610f22576040517f08c379a0000000000000000000000000000000000000000000000000000000008152600401610f19906146fe565b60405180910390fd5b6000600160009054906101000a900473ffffffffffffffffffffffffffffffffffffffff16905033600160006101000a81548173ffffffffffffffffffffffffffffffffffffffff021916908373ffffffffffffffffffffffffffffffffffffffff1602179055506000600260006101000a81548173ffffffffffffffffffffffffffffffffffffffff021916908373ffffffffffffffffffffffffffffffffffffffff1602179055503373ffffffffffffffffffffffffffffffffffffffff168173ffffffffffffffffffffffffffffffffffffffff167f8be0079c531659141344cd1fd0a4f28419497f9722a3daafe3b4186f6b6457e060405160405180910390a350565b600d6020528060005260406000206000915054906101000a900460ff1681565b6000600c6000838152602001908152602001600020905060008160050154036110a957816040517f017e57a10000000000000000000000000000000000000000000000000000000081526004016110a091906139f8565b60405180910390fd5b806004015442106110f7578060040154426040517f8868888c0000000000000000000000000000000000000000000000000000000081526004016110ee92919061471e565b60405180910390fd5b8060090160049054906101000a900460ff1660ff1681600a018054905010158015611137575060008160090160049054906101000a900460ff1660ff1614155b1561118a578060090160049054906101000a900460ff166040517f969559d50000000000000000000000000000000000000000000000000000000081526004016111819190614747565b60405180910390fd5b600f600083815260200190815260200160002060003373ffffffffffffffffffffffffffffffffffffffff1673ffffffffffffffffffffffffffffffffffffffff16815260200190815260200160002060009054906101000a900460ff16158015611204575080600b0160009054906101000a900460ff16155b156112485733826040517f8626cc0300000000000000000000000000000000000000000000000000000000815260040161123f929190614762565b60405180910390fd5b6000828260030160009054906101000a900463ffffffff16336040516020016112739392919061482a565b604051602081830303815290604052805190602001209050600d600082815260200190815260200160002060009054906101000a900460ff161561130657828260030160009054906101000a900463ffffffff16336040517f0beb1aac0000000000000000000000000000000000000000000000000000000081526004016112fd93929190614867565b60405180910390fd5b60008260030160009054906101000a900463ffffffff1663ffffffff16036113705781600901600081819054906101000a900463ffffffff168092919061134c9061489e565b91906101000a81548163ffffffff021916908363ffffffff1602179055505061141f565b600d60008460018560030160009054906101000a900463ffffffff1661139691906148ca565b336040516020016113a99392919061482a565b60405160208183030381529060405280519060200120815260200190815260200160002060009054906101000a900460ff1661141e5733836040517f8626cc03000000000000000000000000000000000000000000000000000000008152600401611415929190614762565b60405180910390fd5b5b611474333084600701548560060160009054906101000a900473ffffffffffffffffffffffffffffffffffffffff1673ffffffffffffffffffffffffffffffffffffffff166132b4909392919063ffffffff16565b816007015482600501600082825461148c9190614902565b9250508190555081600a01339080600181540180825580915050600190039060005260206000200160009091909190916101000a81548173ffffffffffffffffffffffffffffffffffffffff021916908373ffffffffffffffffffffffffffffffffffffffff1602179055506001600d600083815260200190815260200160002060006101000a81548160ff0219169083151502179055503373ffffffffffffffffffffffffffffffffffffffff16837f672d3f5897f7a8042cd8c8557caf58ece26929a410c3b1a66a34ccfd3460fcde8460030160009054906101000a900463ffffffff1660405161157f9190613af7565b60405180910390a3505050565b6002600054036115d1576040517f08c379a00000000000000000000000000000000000000000000000000000000081526004016115c890614982565b60405180910390fd5b600260008190555060008403611613576040517f172bb87f00000000000000000000000000000000000000000000000000000000815260040160405180910390fd5b610e1082101561164f576040517f9306857800000000000000000000000000000000000000000000000000000000815260040160405180910390fd5b600060046000815480929190611664906145fe565b9190505590506000600c60008381526020019081526020016000209050818160000181905550338160010160006101000a81548173ffffffffffffffffffffffffffffffffffffffff021916908373ffffffffffffffffffffffffffffffffffffffff160217905550878160020190816116de9190614ba4565b50868160060160006101000a81548173ffffffffffffffffffffffffffffffffffffffff021916908373ffffffffffffffffffffffffffffffffffffffff16021790555085816007018190555083816008018190555060018160090160006101000a81548163ffffffff021916908363ffffffff16021790555083426117649190614902565b816004018190555085816005018190555080600a01339080600181540180825580915050600190039060005260206000200160009091909190916101000a81548173ffffffffffffffffffffffffffffffffffffffff021916908373ffffffffffffffffffffffffffffffffffffffff1602179055508281600b0160006101000a81548160ff021916908315150217905550848160090160046101000a81548160ff021916908360ff16021790555082611882576001600f600084815260200190815260200160002060003373ffffffffffffffffffffffffffffffffffffffff1673ffffffffffffffffffffffffffffffffffffffff16815260200190815260200160002060006101000a81548160ff0219169083151502179055505b60008260003360405160200161189a9392919061482a565b6040516020818303038152906040528051906020012090506001600d600083815260200190815260200160002060006101000a81548160ff02191690831515021790555061190b3330898b73ffffffffffffffffffffffffffffffffffffffff166132b4909392919063ffffffff16565b6000808760ff161461191d5786611920565b60ff5b60ff1690506000816006546119359190614c76565b6005546119429190614902565b90508034101561198b5734816040517fa7ee296a00000000000000000000000000000000000000000000000000000000815260040161198292919061471e565b60405180910390fd5b600760009054906101000a900473ffffffffffffffffffffffffffffffffffffffff1673ffffffffffffffffffffffffffffffffffffffff166108fc829081150290604051600060405180830381858888f193505050501580156119f3573d6000803e3d6000fd5b5080341115611a755760003373ffffffffffffffffffffffffffffffffffffffff168234611a219190614cb8565b604051611a2d90614d1d565b60006040518083038185875af1925050503d8060008114611a6a576040519150601f19603f3d011682016040523d82523d6000602084013e611a6f565b606091505b50509050505b3373ffffffffffffffffffffffffffffffffffffffff16857fde307469e0906e8d7a6e84aec39b533cfe12dd01b2737a0f785511261337231760405160405180910390a33373ffffffffffffffffffffffffffffffffffffffff16857f672d3f5897f7a8042cd8c8557caf58ece26929a410c3b1a66a34ccfd3460fcde6000604051611b019190614d6d565b60405180910390a350505050506001600081905550505050505050565b600b60009054906101000a900467ffffffffffffffff1681565b6000600160009054906101000a900473ffffffffffffffffffffffffffffffffffffffff16905090565b611b6a611b38565b73ffffffffffffffffffffffffffffffffffffffff163373ffffffffffffffffffffffffffffffffffffffff1614158015611bf35750600360009054906101000a900473ffffffffffffffffffffffffffffffffffffffff1673ffffffffffffffffffffffffffffffffffffffff163373ffffffffffffffffffffffffffffffffffffffff1614155b15611c625733611c01611b38565b600360009054906101000a900473ffffffffffffffffffffffffffffffffffffffff166040517f061db9c1000000000000000000000000000000000000000000000000000000008152600401611c5993929190614d88565b60405180910390fd5b600073ffffffffffffffffffffffffffffffffffffffff168173ffffffffffffffffffffffffffffffffffffffff1603611cc8576040517fd92e233d00000000000000000000000000000000000000000000000000000000815260040160405180910390fd5b80600360006101000a81548173ffffffffffffffffffffffffffffffffffffffff021916908373ffffffffffffffffffffffffffffffffffffffff1602179055507fd1a6a14209a385a964d036e404cb5cfb71f4000cdb03c9366292430787261be681604051611d389190613917565b60405180910390a150565b6000600c600084815260200190815260200160002090506000816005015403611da357826040517f017e57a1000000000000000000000000000000000000000000000000000000008152600401611d9a91906139f8565b60405180910390fd5b80600401544210611df1578060040154426040517f8868888c000000000000000000000000000000000000000000000000000000008152600401611de892919061471e565b60405180910390fd5b600f600084815260200190815260200160002060008373ffffffffffffffffffffffffffffffffffffffff1673ffffffffffffffffffffffffffffffffffffffff16815260200190815260200160002060009054906101000a900460ff16158015611e6b575080600b0160009054906101000a900460ff16155b15611eaf5781836040517f8626cc03000000000000000000000000000000000000000000000000000000008152600401611ea6929190614762565b60405180910390fd5b60008160030160009054906101000a900463ffffffff1663ffffffff1603611f105733836040517f8626cc03000000000000000000000000000000000000000000000000000000008152600401611f07929190614762565b60405180910390fd5b600d60008460018460030160009054906101000a900463ffffffff16611f3691906148ca565b85604051602001611f499392919061482a565b60405160208183030381529060405280519060200120815260200190815260200160002060009054906101000a900460ff16611fbe5781836040517f8626cc03000000000000000000000000000000000000000000000000000000008152600401611fb5929190614762565b60405180910390fd5b6000838260030160009054906101000a900463ffffffff1684604051602001611fe99392919061482a565b604051602081830303815290604052805190602001209050600d600082815260200190815260200160002060009054906101000a900460ff161561207c57838260030160009054906101000a900463ffffffff16846040517f0beb1aac00000000000000000000000000000000000000000000000000000000815260040161207393929190614867565b60405180910390fd5b81600701548260050160008282546120949190614902565b9250508190555081600a01839080600181540180825580915050600190039060005260206000200160009091909190916101000a81548173ffffffffffffffffffffffffffffffffffffffff021916908373ffffffffffffffffffffffffffffffffffffffff1602179055506001600d600083815260200190815260200160002060006101000a81548160ff021916908315150217905550612181833084600701548560060160009054906101000a900473ffffffffffffffffffffffffffffffffffffffff1673ffffffffffffffffffffffffffffffffffffffff166132b4909392919063ffffffff16565b8273ffffffffffffffffffffffffffffffffffffffff16847f672d3f5897f7a8042cd8c8557caf58ece26929a410c3b1a66a34ccfd3460fcde8460030160009054906101000a900463ffffffff166040516121dc9190613af7565b60405180910390a350505050565b60065481565b600360009054906101000a900473ffffffffffffffffffffffffffffffffffffffff1681565b600960009054906101000a900473ffffffffffffffffffffffffffffffffffffffff1681565b60005b8282905081101561227f5761226c8383838181106122605761225f6145a0565b5b90506020020135612aba565b8080612277906145fe565b91505061223f565b505050565b600b60089054906101000a900461ffff1681565b6060600c6000838152602001908152602001600020600a0180548060200260200160405190810160405280929190818152602001828054801561233057602002820191906000526020600020905b8160009054906101000a900473ffffffffffffffffffffffffffffffffffffffff1673ffffffffffffffffffffffffffffffffffffffff16815260200190600101908083116122e6575b50505050509050919050565b600c6020528060005260406000206000915090508060000154908060010160009054906101000a900473ffffffffffffffffffffffffffffffffffffffff169080600201805461238b906149d1565b80601f01602080910402602001604051908101604052809291908181526020018280546123b7906149d1565b80156124045780601f106123d957610100808354040283529160200191612404565b820191906000526020600020905b8154815290600101906020018083116123e757829003601f168201915b5050505050908060030160009054906101000a900463ffffffff16908060040154908060050154908060060160009054906101000a900473ffffffffffffffffffffffffffffffffffffffff16908060070154908060080154908060090160009054906101000a900463ffffffff16908060090160049054906101000a900460ff169080600b0160009054906101000a900460ff1690508c565b6000600c600085815260200190815260200160002090508060010160009054906101000a900473ffffffffffffffffffffffffffffffffffffffff1673ffffffffffffffffffffffffffffffffffffffff163373ffffffffffffffffffffffffffffffffffffffff161461254b5733846040517f3872341e000000000000000000000000000000000000000000000000000000008152600401612542929190614762565b60405180910390fd5b60005b838390508110156126a957600084848381811061256e5761256d6145a0565b5b90506020020160208101906125839190613fc9565b9050600f600087815260200190815260200160002060008273ffffffffffffffffffffffffffffffffffffffff1673ffffffffffffffffffffffffffffffffffffffff16815260200190815260200160002060009054906101000a900460ff16612695576001600f600088815260200190815260200160002060008373ffffffffffffffffffffffffffffffffffffffff1673ffffffffffffffffffffffffffffffffffffffff16815260200190815260200160002060006101000a81548160ff0219169083151502179055508073ffffffffffffffffffffffffffffffffffffffff16867f1a93957e2514306f9c62a03c9d38f41d87e9192c4bff4ba40eb834d92c6c728060405160405180910390a35b5080806126a1906145fe565b91505061254e565b5050505050565b60045481565b606060106000838152602001908152602001600020805480602002602001604051908101604052809291908181526020016000905b828210156127b857838290600052602060002090600302016040518060600160405290816000820160009054906101000a900473ffffffffffffffffffffffffffffffffffffffff1673ffffffffffffffffffffffffffffffffffffffff1673ffffffffffffffffffffffffffffffffffffffff168152602001600182015481526020016002820160009054906101000a900460ff16600281111561279357612792613c35565b5b60028111156127a5576127a4613c35565b5b81525050815260200190600101906126eb565b505050509050919050565b60005b8282905081101561281557612802848484848181106127e8576127e76145a0565b5b90506020020160208101906127fd9190613fc9565b611d43565b808061280d906145fe565b9150506127c6565b50505050565b6000600c60008381526020019081526020016000209050600081600501540361287b57816040517f017e57a100000000000000000000000000000000000000000000000000000000815260040161287291906139f8565b60405180910390fd5b80600401544210156128ca578060040154426040517f3bd404330000000000000000000000000000000000000000000000000000000081526004016128c192919061471e565b60405180910390fd5b60005b81600a01805490508110156129b957600e60008484600a0184815481106128f7576128f66145a0565b5b9060005260206000200160009054906101000a900473ffffffffffffffffffffffffffffffffffffffff16604051602001612933929190614dbf565b60405160208183030381529060405280519060200120815260200190815260200160002060009054906101000a900460ff166129a657826040517fd2471cf800000000000000000000000000000000000000000000000000000000815260040161299d91906139f8565b60405180910390fd5b80806129b1906145fe565b9150506128cd565b506000816005018190555060008160060160009054906101000a900473ffffffffffffffffffffffffffffffffffffffff16905060008260070154905060005b83600a0180549050811015612a8657612a7384600a018281548110612a2157612a206145a0565b5b9060005260206000200160009054906101000a900473ffffffffffffffffffffffffffffffffffffffff16838573ffffffffffffffffffffffffffffffffffffffff1661333d9092919063ffffffff16565b8080612a7e906145fe565b9150506129f9565b50837f09f73e7c1cfe948731316069115856105587fb9681d754a0037165a8a8cfe1f760405160405180910390a250505050565b600260005403612aff576040517f08c379a0000000000000000000000000000000000000000000000000000000008152600401612af690614982565b60405180910390fd5b60026000819055506000600c600083815260200190815260200160002090506000816005015403612b6757816040517f017e57a1000000000000000000000000000000000000000000000000000000008152600401612b5e91906139f8565b60405180910390fd5b8060040154421015612bb6578060040154426040517f3bd40433000000000000000000000000000000000000000000000000000000008152600401612bad92919061471e565b60405180910390fd5b6000600960009054906101000a900473ffffffffffffffffffffffffffffffffffffffff1673ffffffffffffffffffffffffffffffffffffffff16639b1c385e6040518060c00160405280600a548152602001600b60009054906101000a900467ffffffffffffffff1667ffffffffffffffff168152602001600b60089054906101000a900461ffff1661ffff168152602001600b600a9054906101000a900463ffffffff1663ffffffff168152602001600163ffffffff168152602001612c8e6040518060200160405280600115158152506133c3565b8152506040518263ffffffff1660e01b8152600401612cad9190614eeb565b6020604051808303816000875af1158015612ccc573d6000803e3d6000fd5b505050506040513d601f19601f82011682018060405250810190612cf09190614f22565b90508260116000838152602001908152602001600020819055508160030160009054906101000a900463ffffffff166012600083815260200190815260200160002060006101000a81548163ffffffff021916908363ffffffff1602179055505050600160008190555050565b600860009054906101000a900473ffffffffffffffffffffffffffffffffffffffff1673ffffffffffffffffffffffffffffffffffffffff163373ffffffffffffffffffffffffffffffffffffffff1614612ded576040517f08c379a0000000000000000000000000000000000000000000000000000000008152600401612de490614557565b60405180910390fd5b600073ffffffffffffffffffffffffffffffffffffffff168173ffffffffffffffffffffffffffffffffffffffff1603612e5c576040517f08c379a0000000000000000000000000000000000000000000000000000000008152600401612e5390614f9b565b60405180910390fd5b80600760006101000a81548173ffffffffffffffffffffffffffffffffffffffff021916908373ffffffffffffffffffffffffffffffffffffffff16021790555050565b612ea861345b565b612eb1816134ed565b50565b60006011600085815260200190815260200160002054905060006012600086815260200190815260200160002060009054906101000a900463ffffffff1690506000600c60008481526020019081526020016000209050600081600a0180549050905060008187876000818110612f2e57612f2d6145a0565b5b90506020020135612f3f9190614fea565b9050600083600a018281548110612f5957612f586145a0565b5b9060005260206000200160009054906101000a900473ffffffffffffffffffffffffffffffffffffffff1690506001600e60008884604051602001612f9f929190614dbf565b60405160208183030381529060405280519060200120815260200190815260200160002060006101000a81548160ff021916908315150217905550600060018560090160009054906101000a900463ffffffff16612ffd91906148ca565b63ffffffff168663ffffffff161461301957846007015461301c565b60005b905060008186600501546130309190614cb8565b90508273ffffffffffffffffffffffffffffffffffffffff16887fc2518a56896ff30efc4b0de222d91241ad29d5e347b5dc1465e1f28bbc6c4ac2838a60405161307b92919061501b565b60405180910390a36130d283828860060160009054906101000a900473ffffffffffffffffffffffffffffffffffffffff1673ffffffffffffffffffffffffffffffffffffffff1661333d9092919063ffffffff16565b60018660090160009054906101000a900463ffffffff166130f391906148ca565b63ffffffff168763ffffffff160361311457600086600501819055506132a7565b6001876131219190615044565b8660030160006101000a81548163ffffffff021916908363ffffffff16021790555081866005018190555085600a01600061315c9190613898565b85600a01839080600181540180825580915050600190039060005260206000200160009091909190916101000a81548173ffffffffffffffffffffffffffffffffffffffff021916908373ffffffffffffffffffffffffffffffffffffffff1602179055506001600d60008a8960030160009054906101000a900463ffffffff16876040516020016131f09392919061482a565b60405160208183030381529060405280519060200120815260200190815260200160002060006101000a81548160ff0219169083151502179055508273ffffffffffffffffffffffffffffffffffffffff16887f672d3f5897f7a8042cd8c8557caf58ece26929a410c3b1a66a34ccfd3460fcde8860030160009054906101000a900463ffffffff166040516132869190613af7565b60405180910390a385600801544261329e9190614902565b86600401819055505b5050505050505050505050565b613337846323b872dd60e01b8585856040516024016132d59392919061507c565b604051602081830303815290604052907bffffffffffffffffffffffffffffffffffffffffffffffffffffffff19166020820180517bffffffffffffffffffffffffffffffffffffffffffffffffffffffff838183161783525050505061361b565b50505050565b6133be8363a9059cbb60e01b848460405160240161335c929190614762565b604051602081830303815290604052907bffffffffffffffffffffffffffffffffffffffffffffffffffffffff19166020820180517bffffffffffffffffffffffffffffffffffffffffffffffffffffffff838183161783525050505061361b565b505050565b60607f92fd13387c7fe7befbc38d303d6468778fb9731bc4583f17d92989c6fcfdeaaa826040516024016133f791906150de565b604051602081830303815290604052907bffffffffffffffffffffffffffffffffffffffffffffffffffffffff19166020820180517bffffffffffffffffffffffffffffffffffffffffffffffffffffffff83818316178352505050509050919050565b600160009054906101000a900473ffffffffffffffffffffffffffffffffffffffff1673ffffffffffffffffffffffffffffffffffffffff163373ffffffffffffffffffffffffffffffffffffffff16146134eb576040517f08c379a00000000000000000000000000000000000000000000000000000000081526004016134e290615145565b60405180910390fd5b565b3373ffffffffffffffffffffffffffffffffffffffff168173ffffffffffffffffffffffffffffffffffffffff160361355b576040517f08c379a0000000000000000000000000000000000000000000000000000000008152600401613552906151b1565b60405180910390fd5b80600260006101000a81548173ffffffffffffffffffffffffffffffffffffffff021916908373ffffffffffffffffffffffffffffffffffffffff1602179055508073ffffffffffffffffffffffffffffffffffffffff16600160009054906101000a900473ffffffffffffffffffffffffffffffffffffffff1673ffffffffffffffffffffffffffffffffffffffff167fed8889f560326eb138920d842192f0eb3dd22b4f139c87a2c57538e05bae127860405160405180910390a350565b600061367d826040518060400160405280602081526020017f5361666545524332303a206c6f772d6c6576656c2063616c6c206661696c65648152508573ffffffffffffffffffffffffffffffffffffffff166136e29092919063ffffffff16565b90506000815111156136dd578080602001905181019061369d91906151e6565b6136dc576040517f08c379a00000000000000000000000000000000000000000000000000000000081526004016136d390615285565b60405180910390fd5b5b505050565b60606136f184846000856136fa565b90509392505050565b60608247101561373f576040517f08c379a000000000000000000000000000000000000000000000000000000000815260040161373690615317565b60405180910390fd5b6137488561380e565b613787576040517f08c379a000000000000000000000000000000000000000000000000000000000815260040161377e90615383565b60405180910390fd5b6000808673ffffffffffffffffffffffffffffffffffffffff1685876040516137b091906153d4565b60006040518083038185875af1925050503d80600081146137ed576040519150601f19603f3d011682016040523d82523d6000602084013e6137f2565b606091505b5091509150613802828286613831565b92505050949350505050565b6000808273ffffffffffffffffffffffffffffffffffffffff163b119050919050565b6060831561384157829050613891565b6000835111156138545782518084602001fd5b816040517f08c379a0000000000000000000000000000000000000000000000000000000008152600401613888919061542f565b60405180910390fd5b9392505050565b50805460008255906000526020600020908101906138b691906138b9565b50565b5b808211156138d25760008160009055506001016138ba565b5090565b600073ffffffffffffffffffffffffffffffffffffffff82169050919050565b6000613901826138d6565b9050919050565b613911816138f6565b82525050565b600060208201905061392c6000830184613908565b92915050565b6000604051905090565b600080fd5b600080fd5b6000819050919050565b61395981613946565b811461396457600080fd5b50565b60008135905061397681613950565b92915050565b600080604083850312156139935761399261393c565b5b60006139a185828601613967565b92505060206139b285828601613967565b9150509250929050565b6000602082840312156139d2576139d161393c565b5b60006139e084828501613967565b91505092915050565b6139f281613946565b82525050565b6000602082019050613a0d60008301846139e9565b92915050565b600080fd5b600080fd5b600080fd5b60008083601f840112613a3857613a37613a13565b5b8235905067ffffffffffffffff811115613a5557613a54613a18565b5b602083019150836020820283011115613a7157613a70613a1d565b5b9250929050565b600080600060408486031215613a9157613a9061393c565b5b6000613a9f86828701613967565b935050602084013567ffffffffffffffff811115613ac057613abf613941565b5b613acc86828701613a22565b92509250509250925092565b600063ffffffff82169050919050565b613af181613ad8565b82525050565b6000602082019050613b0c6000830184613ae8565b92915050565b60008060208385031215613b2957613b2861393c565b5b600083013567ffffffffffffffff811115613b4757613b46613941565b5b613b5385828601613a22565b92509250509250929050565b613b68816138f6565b8114613b7357600080fd5b50565b600081359050613b8581613b5f565b92915050565b60008060408385031215613ba257613ba161393c565b5b6000613bb085828601613967565b9250506020613bc185828601613b76565b9150509250929050565b60008115159050919050565b613be081613bcb565b82525050565b6000602082019050613bfb6000830184613bd7565b92915050565b6000819050919050565b613c1481613c01565b82525050565b6000602082019050613c2f6000830184613c0b565b92915050565b7f4e487b7100000000000000000000000000000000000000000000000000000000600052602160045260246000fd5b60038110613c7557613c74613c35565b5b50565b6000819050613c8682613c64565b919050565b6000613c9682613c78565b9050919050565b613ca681613c8b565b82525050565b6000606082019050613cc16000830186613908565b613cce60208301856139e9565b613cdb6040830184613c9d565b949350505050565b613cec81613c01565b8114613cf757600080fd5b50565b600081359050613d0981613ce3565b92915050565b600060208284031215613d2557613d2461393c565b5b6000613d3384828501613cfa565b91505092915050565b600080fd5b6000601f19601f8301169050919050565b7f4e487b7100000000000000000000000000000000000000000000000000000000600052604160045260246000fd5b613d8a82613d41565b810181811067ffffffffffffffff82111715613da957613da8613d52565b5b80604052505050565b6000613dbc613932565b9050613dc88282613d81565b919050565b600067ffffffffffffffff821115613de857613de7613d52565b5b613df182613d41565b9050602081019050919050565b82818337600083830152505050565b6000613e20613e1b84613dcd565b613db2565b905082815260208101848484011115613e3c57613e3b613d3c565b5b613e47848285613dfe565b509392505050565b600082601f830112613e6457613e63613a13565b5b8135613e74848260208601613e0d565b91505092915050565b600060ff82169050919050565b613e9381613e7d565b8114613e9e57600080fd5b50565b600081359050613eb081613e8a565b92915050565b613ebf81613bcb565b8114613eca57600080fd5b50565b600081359050613edc81613eb6565b92915050565b60008060008060008060c08789031215613eff57613efe61393c565b5b600087013567ffffffffffffffff811115613f1d57613f1c613941565b5b613f2989828a01613e4f565b9650506020613f3a89828a01613b76565b9550506040613f4b89828a01613967565b9450506060613f5c89828a01613ea1565b9350506080613f6d89828a01613967565b92505060a0613f7e89828a01613ecd565b9150509295509295509295565b600067ffffffffffffffff82169050919050565b613fa881613f8b565b82525050565b6000602082019050613fc36000830184613f9f565b92915050565b600060208284031215613fdf57613fde61393c565b5b6000613fed84828501613b76565b91505092915050565b6000819050919050565b600061401b614016614011846138d6565b613ff6565b6138d6565b9050919050565b600061402d82614000565b9050919050565b600061403f82614022565b9050919050565b61404f81614034565b82525050565b600060208201905061406a6000830184614046565b92915050565b600061407b82614022565b9050919050565b61408b81614070565b82525050565b60006020820190506140a66000830184614082565b92915050565b600061ffff82169050919050565b6140c3816140ac565b82525050565b60006020820190506140de60008301846140ba565b92915050565b600081519050919050565b600082825260208201905092915050565b6000819050602082019050919050565b614119816138f6565b82525050565b600061412b8383614110565b60208301905092915050565b6000602082019050919050565b600061414f826140e4565b61415981856140ef565b935061416483614100565b8060005b8381101561419557815161417c888261411f565b975061418783614137565b925050600181019050614168565b5085935050505092915050565b600060208201905081810360008301526141bc8184614144565b905092915050565b600081519050919050565b600082825260208201905092915050565b60005b838110156141fe5780820151818401526020810190506141e3565b60008484015250505050565b6000614215826141c4565b61421f81856141cf565b935061422f8185602086016141e0565b61423881613d41565b840191505092915050565b61424c81613e7d565b82525050565b600061018082019050614268600083018f6139e9565b614275602083018e613908565b8181036040830152614287818d61420a565b9050614296606083018c613ae8565b6142a3608083018b6139e9565b6142b060a083018a6139e9565b6142bd60c0830189613908565b6142ca60e08301886139e9565b6142d86101008301876139e9565b6142e6610120830186613ae8565b6142f4610140830185614243565b614302610160830184613bd7565b9d9c50505050505050505050505050565b60008083601f84011261432957614328613a13565b5b8235905067ffffffffffffffff81111561434657614345613a18565b5b60208301915083602082028301111561436257614361613a1d565b5b9250929050565b6000806000604084860312156143825761438161393c565b5b600061439086828701613967565b935050602084013567ffffffffffffffff8111156143b1576143b0613941565b5b6143bd86828701614313565b92509250509250925092565b600081519050919050565b600082825260208201905092915050565b6000819050602082019050919050565b6143fe81613946565b82525050565b61440d81613c8b565b82525050565b6060820160008201516144296000850182614110565b50602082015161443c60208501826143f5565b50604082015161444f6040850182614404565b50505050565b60006144618383614413565b60608301905092915050565b6000602082019050919050565b6000614485826143c9565b61448f81856143d4565b935061449a836143e5565b8060005b838110156144cb5781516144b28882614455565b97506144bd8361446d565b92505060018101905061449e565b5085935050505092915050565b600060208201905081810360008301526144f2818461447a565b905092915050565b600082825260208201905092915050565b7f4e6f7420746865206f776e657200000000000000000000000000000000000000600082015250565b6000614541600d836144fa565b915061454c8261450b565b602082019050919050565b6000602082019050818103600083015261457081614534565b9050919050565b600060408201905061458c6000830185613908565b6145996020830184613908565b9392505050565b7f4e487b7100000000000000000000000000000000000000000000000000000000600052603260045260246000fd5b7f4e487b7100000000000000000000000000000000000000000000000000000000600052601160045260246000fd5b600061460982613946565b91507fffffffffffffffffffffffffffffffffffffffffffffffffffffffffffffffff820361463b5761463a6145cf565b5b600182019050919050565b7f4e6f2062616c616e636520746f20776974686472617700000000000000000000600082015250565b600061467c6016836144fa565b915061468782614646565b602082019050919050565b600060208201905081810360008301526146ab8161466f565b9050919050565b7f4d7573742062652070726f706f736564206f776e657200000000000000000000600082015250565b60006146e86016836144fa565b91506146f3826146b2565b602082019050919050565b60006020820190508181036000830152614717816146db565b9050919050565b600060408201905061473360008301856139e9565b61474060208301846139e9565b9392505050565b600060208201905061475c6000830184614243565b92915050565b60006040820190506147776000830185613908565b61478460208301846139e9565b9392505050565b6000819050919050565b6147a66147a182613946565b61478b565b82525050565b60008160e01b9050919050565b60006147c4826147ac565b9050919050565b6147dc6147d782613ad8565b6147b9565b82525050565b60008160601b9050919050565b60006147fa826147e2565b9050919050565b600061480c826147ef565b9050919050565b61482461481f826138f6565b614801565b82525050565b60006148368286614795565b60208201915061484682856147cb565b6004820191506148568284614813565b601482019150819050949350505050565b600060608201905061487c60008301866139e9565b6148896020830185613ae8565b6148966040830184613908565b949350505050565b60006148a982613ad8565b915063ffffffff82036148bf576148be6145cf565b5b600182019050919050565b60006148d582613ad8565b91506148e083613ad8565b9250828203905063ffffffff8111156148fc576148fb6145cf565b5b92915050565b600061490d82613946565b915061491883613946565b92508282019050808211156149305761492f6145cf565b5b92915050565b7f5265656e7472616e637947756172643a207265656e7472616e742063616c6c00600082015250565b600061496c601f836144fa565b915061497782614936565b602082019050919050565b6000602082019050818103600083015261499b8161495f565b9050919050565b7f4e487b7100000000000000000000000000000000000000000000000000000000600052602260045260246000fd5b600060028204905060018216806149e957607f821691505b6020821081036149fc576149fb6149a2565b5b50919050565b60008190508160005260206000209050919050565b60006020601f8301049050919050565b600082821b905092915050565b600060088302614a647fffffffffffffffffffffffffffffffffffffffffffffffffffffffffffffffff82614a27565b614a6e8683614a27565b95508019841693508086168417925050509392505050565b6000614aa1614a9c614a9784613946565b613ff6565b613946565b9050919050565b6000819050919050565b614abb83614a86565b614acf614ac782614aa8565b848454614a34565b825550505050565b600090565b614ae4614ad7565b614aef818484614ab2565b505050565b5b81811015614b1357614b08600082614adc565b600181019050614af5565b5050565b601f821115614b5857614b2981614a02565b614b3284614a17565b81016020851015614b41578190505b614b55614b4d85614a17565b830182614af4565b50505b505050565b600082821c905092915050565b6000614b7b60001984600802614b5d565b1980831691505092915050565b6000614b948383614b6a565b9150826002028217905092915050565b614bad826141c4565b67ffffffffffffffff811115614bc657614bc5613d52565b5b614bd082546149d1565b614bdb828285614b17565b600060209050601f831160018114614c0e5760008415614bfc578287015190505b614c068582614b88565b865550614c6e565b601f198416614c1c86614a02565b60005b82811015614c4457848901518255600182019150602085019450602081019050614c1f565b86831015614c615784890151614c5d601f891682614b6a565b8355505b6001600288020188555050505b505050505050565b6000614c8182613946565b9150614c8c83613946565b9250828202614c9a81613946565b91508282048414831517614cb157614cb06145cf565b5b5092915050565b6000614cc382613946565b9150614cce83613946565b9250828203905081811115614ce657614ce56145cf565b5b92915050565b600081905092915050565b50565b6000614d07600083614cec565b9150614d1282614cf7565b600082019050919050565b6000614d2882614cfa565b9150819050919050565b6000819050919050565b6000614d57614d52614d4d84614d32565b613ff6565b613ad8565b9050919050565b614d6781614d3c565b82525050565b6000602082019050614d826000830184614d5e565b92915050565b6000606082019050614d9d6000830186613908565b614daa6020830185613908565b614db76040830184613908565b949350505050565b6000614dcb8285614795565b602082019150614ddb8284614813565b6014820191508190509392505050565b614df481613c01565b82525050565b614e03816140ac565b82525050565b614e1281613ad8565b82525050565b600082825260208201905092915050565b6000614e34826141c4565b614e3e8185614e18565b9350614e4e8185602086016141e0565b614e5781613d41565b840191505092915050565b600060c083016000830151614e7a6000860182614deb565b506020830151614e8d60208601826143f5565b506040830151614ea06040860182614dfa565b506060830151614eb36060860182614e09565b506080830151614ec66080860182614e09565b5060a083015184820360a0860152614ede8282614e29565b9150508091505092915050565b60006020820190508181036000830152614f058184614e62565b905092915050565b600081519050614f1c81613950565b92915050565b600060208284031215614f3857614f3761393c565b5b6000614f4684828501614f0d565b91505092915050565b7f496e76616c696420747265617375727920616464726573730000000000000000600082015250565b6000614f856018836144fa565b9150614f9082614f4f565b602082019050919050565b60006020820190508181036000830152614fb481614f78565b9050919050565b7f4e487b7100000000000000000000000000000000000000000000000000000000600052601260045260246000fd5b6000614ff582613946565b915061500083613946565b9250826150105761500f614fbb565b5b828206905092915050565b600060408201905061503060008301856139e9565b61503d6020830184613ae8565b9392505050565b600061504f82613ad8565b915061505a83613ad8565b9250828201905063ffffffff811115615076576150756145cf565b5b92915050565b60006060820190506150916000830186613908565b61509e6020830185613908565b6150ab60408301846139e9565b949350505050565b6150bc81613bcb565b82525050565b6020820160008201516150d860008501826150b3565b50505050565b60006020820190506150f360008301846150c2565b92915050565b7f4f6e6c792063616c6c61626c65206279206f776e657200000000000000000000600082015250565b600061512f6016836144fa565b915061513a826150f9565b602082019050919050565b6000602082019050818103600083015261515e81615122565b9050919050565b7f43616e6e6f74207472616e7366657220746f2073656c66000000000000000000600082015250565b600061519b6017836144fa565b91506151a682615165565b602082019050919050565b600060208201905081810360008301526151ca8161518e565b9050919050565b6000815190506151e081613eb6565b92915050565b6000602082840312156151fc576151fb61393c565b5b600061520a848285016151d1565b91505092915050565b7f5361666545524332303a204552433230206f7065726174696f6e20646964206e60008201527f6f74207375636365656400000000000000000000000000000000000000000000602082015250565b600061526f602a836144fa565b915061527a82615213565b604082019050919050565b6000602082019050818103600083015261529e81615262565b9050919050565b7f416464726573733a20696e73756666696369656e742062616c616e636520666f60008201527f722063616c6c0000000000000000000000000000000000000000000000000000602082015250565b60006153016026836144fa565b915061530c826152a5565b604082019050919050565b60006020820190508181036000830152615330816152f4565b9050919050565b7f416464726573733a2063616c6c20746f206e6f6e2d636f6e7472616374000000600082015250565b600061536d601d836144fa565b915061537882615337565b602082019050919050565b6000602082019050818103600083015261539c81615360565b9050919050565b60006153ae826141c4565b6153b88185614cec565b93506153c88185602086016141e0565b80840191505092915050565b60006153e082846153a3565b915081905092915050565b600081519050919050565b6000615401826153eb565b61540b81856144fa565b935061541b8185602086016141e0565b61542481613d41565b840191505092915050565b6000602082019050818103600083015261544981846153f6565b90509291505056fea26469706673582212202d153e3393692697edfa95d56fefd30ecdec50bfd9101a0735eff51b999aeb1664736f6c63430008130033","linkReferences":{}},"methodIdentifiers":{"acceptOwnership()":"79ba5097","allowParticipants(uint256,address[])":"c5072ca8","callbackGasLimit()":"24f74697","createPot(bytes,address,uint256,uint8,uint256,bool)":"8661ffca","endBatch(uint256[])":"2fd99712","endPot(uint256)":"e0321cd4","getParticipants(uint256)":"c1e3bd3e","getRequests(uint256)":"d5e78829","hasJoinedRound(bytes32)":"7a4f4436","hasWon(bytes32)":"6b7fd007","isAllowed(uint256,address)":"5faa299a","joinOnBehalf(uint256,address)":"9999fea0","joinPot(uint256)":"831d49ef","keyHash()":"61728f39","owner()":"8da5cb5b","participantFee()":"9c031ace","platformFee()":"26232a2e","potCount()":"cf72f230","potluckOwner()":"09c1f8ff","pots(uint256)":"c3c3df4f","rawFulfillRandomWords(uint256,uint256[])":"1fe543e3","requestConfirmations()":"b0fb162f","requestPotAllow(uint256)":"65c7444d","requestToPot(uint256)":"1301cd25","requestToRound(uint256)":"385542f0","requestedParticipants(uint256,uint256)":"61734cd6","s_subscriptionId()":"8ac00021","s_vrfCoordinator()":"9eccacf6","setCoordinator(address)":"8ea98117","setFees(uint256,uint256)":"0b78f9c0","setTreasury(address)":"f0f44260","transferOwnership(address)":"f2fde38b","treasury()":"61d027b3","triggerBatchJoinOnBehalf(uint256,address[])":"de1149b3","triggerBatchPayout(uint256[])":"a88390dc","triggerPotPayout(uint256)":"e90c88fe","vrfCoordinator()":"a3e56fa8","withdraw()":"3ccfd60b"},"id":23}