{"abi":[{"type":"constructor","inputs":[{"name":"_platformFee","type":"uint256","internalType":"uint256"},{"name":"_partFee","type":"uint256","internalType":"uint256"},{"name":"_treasury","type":"address","internalType":"address"},{"name":"_vrfCoordinator","type":"address","internalType":"address"}],"stateMutability":"nonpayable"},{"type":"function","name":"acceptOwnership","inputs":[],"outputs":[],"stateMutability":"nonpayable"},{"type":"function","name":"allowParticipants","inputs":[{"name":"potId","type":"uint256","internalType":"uint256"},{"name":"participants","type":"address[]","internalType":"address[]"}],"outputs":[],"stateMutability":"nonpayable"},{"type":"function","name":"allowedTokens","inputs":[{"name":"","type":"address","internalType":"address"}],"outputs":[{"name":"","type":"bool","internalType":"bool"}],"stateMutability":"view"},{"type":"function","name":"callbackGasLimit","inputs":[],"outputs":[{"name":"","type":"uint32","internalType":"uint32"}],"stateMutability":"view"},{"type":"function","name":"createPot","inputs":[{"name":"name","type":"bytes","internalType":"bytes"},{"name":"token","type":"address","internalType":"address"},{"name":"entryAmount","type":"uint256","internalType":"uint256"},{"name":"maxParticipants","type":"uint8","internalType":"uint8"},{"name":"periodSeconds","type":"uint256","internalType":"uint256"},{"name":"isPublic","type":"bool","internalType":"bool"}],"outputs":[],"stateMutability":"payable"},{"type":"function","name":"endPot","inputs":[{"name":"potId","type":"uint256","internalType":"uint256"}],"outputs":[],"stateMutability":"nonpayable"},{"type":"function","name":"getParticipants","inputs":[{"name":"potId","type":"uint256","internalType":"uint256"}],"outputs":[{"name":"","type":"address[]","internalType":"address[]"}],"stateMutability":"view"},{"type":"function","name":"getRequests","inputs":[{"name":"potId","type":"uint256","internalType":"uint256"}],"outputs":[{"name":"","type":"tuple[]","internalType":"struct Potluck.PotRequest[]","components":[{"name":"requestor","type":"address","internalType":"address"},{"name":"timestamp","type":"uint256","internalType":"uint256"}]}],"stateMutability":"view"},{"type":"function","name":"hasJoinedRound","inputs":[{"name":"","type":"bytes32","internalType":"bytes32"}],"outputs":[{"name":"","type":"bool","internalType":"bool"}],"stateMutability":"view"},{"type":"function","name":"hasWon","inputs":[{"name":"","type":"bytes32","internalType":"bytes32"}],"outputs":[{"name":"","type":"bool","internalType":"bool"}],"stateMutability":"view"},{"type":"function","name":"isAllowed","inputs":[{"name":"","type":"uint256","internalType":"uint256"},{"name":"","type":"address","internalType":"address"}],"outputs":[{"name":"","type":"bool","internalType":"bool"}],"stateMutability":"view"},{"type":"function","name":"joinOnBehalf","inputs":[{"name":"potId","type":"uint256","internalType":"uint256"},{"name":"participant","type":"address","internalType":"address"}],"outputs":[],"stateMutability":"nonpayable"},{"type":"function","name":"joinPot","inputs":[{"name":"potId","type":"uint256","internalType":"uint256"}],"outputs":[],"stateMutability":"payable"},{"type":"function","name":"keyHash","inputs":[],"outputs":[{"name":"","type":"bytes32","internalType":"bytes32"}],"stateMutability":"view"},{"type":"function","name":"owner","inputs":[],"outputs":[{"name":"","type":"address","internalType":"address"}],"stateMutability":"view"},{"type":"function","name":"participantFee","inputs":[],"outputs":[{"name":"","type":"uint256","internalType":"uint256"}],"stateMutability":"view"},{"type":"function","name":"platformFee","inputs":[],"outputs":[{"name":"","type":"uint256","internalType":"uint256"}],"stateMutability":"view"},{"type":"function","name":"potCount","inputs":[],"outputs":[{"name":"","type":"uint256","internalType":"uint256"}],"stateMutability":"view"},{"type":"function","name":"potluckOwner","inputs":[],"outputs":[{"name":"","type":"address","internalType":"address"}],"stateMutability":"view"},{"type":"function","name":"pots","inputs":[{"name":"","type":"uint256","internalType":"uint256"}],"outputs":[{"name":"id","type":"uint256","internalType":"uint256"},{"name":"creator","type":"address","internalType":"address"},{"name":"name","type":"bytes","internalType":"bytes"},{"name":"round","type":"uint32","internalType":"uint32"},{"name":"deadline","type":"uint256","internalType":"uint256"},{"name":"balance","type":"uint256","internalType":"uint256"},{"name":"token","type":"address","internalType":"address"},{"name":"entryAmount","type":"uint256","internalType":"uint256"},{"name":"period","type":"uint256","internalType":"uint256"},{"name":"totalParticipants","type":"uint8","internalType":"uint8"},{"name":"maxParticipants","type":"uint8","internalType":"uint8"},{"name":"isPublic","type":"bool","internalType":"bool"}],"stateMutability":"view"},{"type":"function","name":"rawFulfillRandomWords","inputs":[{"name":"requestId","type":"uint256","internalType":"uint256"},{"name":"randomWords","type":"uint256[]","internalType":"uint256[]"}],"outputs":[],"stateMutability":"nonpayable"},{"type":"function","name":"requestConfirmations","inputs":[],"outputs":[{"name":"","type":"uint16","internalType":"uint16"}],"stateMutability":"view"},{"type":"function","name":"requestPotAllow","inputs":[{"name":"potId","type":"uint256","internalType":"uint256"}],"outputs":[],"stateMutability":"nonpayable"},{"type":"function","name":"requestToPot","inputs":[{"name":"","type":"uint256","internalType":"uint256"}],"outputs":[{"name":"","type":"uint256","internalType":"uint256"}],"stateMutability":"view"},{"type":"function","name":"requestToRound","inputs":[{"name":"","type":"uint256","internalType":"uint256"}],"outputs":[{"name":"","type":"uint32","internalType":"uint32"}],"stateMutability":"view"},{"type":"function","name":"requestedParticipants","inputs":[{"name":"","type":"uint256","internalType":"uint256"},{"name":"","type":"uint256","internalType":"uint256"}],"outputs":[{"name":"requestor","type":"address","internalType":"address"},{"name":"timestamp","type":"uint256","internalType":"uint256"}],"stateMutability":"view"},{"type":"function","name":"s_subscriptionId","inputs":[],"outputs":[{"name":"","type":"uint256","internalType":"uint256"}],"stateMutability":"view"},{"type":"function","name":"s_vrfCoordinator","inputs":[],"outputs":[{"name":"","type":"address","internalType":"contract IVRFCoordinatorV2Plus"}],"stateMutability":"view"},{"type":"function","name":"setChainlinkVRF","inputs":[{"name":"_keyHash","type":"bytes32","internalType":"bytes32"},{"name":"_subscriptionId","type":"uint256","internalType":"uint256"},{"name":"_requestConfirmations","type":"uint16","internalType":"uint16"},{"name":"_callbackGasLimit","type":"uint32","internalType":"uint32"}],"outputs":[],"stateMutability":"nonpayable"},{"type":"function","name":"setChainlinkVRF","inputs":[{"name":"_vrfCoordinator","type":"address","internalType":"address"}],"outputs":[],"stateMutability":"nonpayable"},{"type":"function","name":"setCoordinator","inputs":[{"name":"_vrfCoordinator","type":"address","internalType":"address"}],"outputs":[],"stateMutability":"nonpayable"},{"type":"function","name":"setFees","inputs":[{"name":"_flatFee","type":"uint256","internalType":"uint256"},{"name":"_perPartFee","type":"uint256","internalType":"uint256"}],"outputs":[],"stateMutability":"nonpayable"},{"type":"function","name":"setTokenStatus","inputs":[{"name":"token","type":"address","internalType":"address"},{"name":"status","type":"bool","internalType":"bool"}],"outputs":[],"stateMutability":"nonpayable"},{"type":"function","name":"setTreasury","inputs":[{"name":"newTreasury","type":"address","internalType":"address"}],"outputs":[],"stateMutability":"nonpayable"},{"type":"function","name":"transferOwnership","inputs":[{"name":"to","type":"address","internalType":"address"}],"outputs":[],"stateMutability":"nonpayable"},{"type":"function","name":"treasury","inputs":[],"outputs":[{"name":"","type":"address","internalType":"address"}],"stateMutability":"view"},{"type":"function","name":"triggerPotPayout","inputs":[{"name":"potId","type":"uint256","internalType":"uint256"}],"outputs":[],"stateMutability":"nonpayable"},{"type":"function","name":"vrfCoordinator","inputs":[],"outputs":[{"name":"","type":"address","internalType":"contract VRFCoordinatorV2_5"}],"stateMutability":"view"},{"type":"function","name":"withdraw","inputs":[],"outputs":[],"stateMutability":"nonpayable"},{"type":"function","name":"withdraw","inputs":[{"name":"token","type":"address","internalType":"address"},{"name":"amount","type":"uint256","internalType":"uint256"}],"outputs":[],"stateMutability":"nonpayable"},{"type":"function","name":"withdrawalBalances","inputs":[{"name":"","type":"address","internalType":"address"},{"name":"","type":"address","internalType":"address"}],"outputs":[{"name":"","type":"uint256","internalType":"uint256"}],"stateMutability":"view"},{"type":"event","name":"AllowedParticipantAdded","inputs":[{"name":"potId","type":"uint256","indexed":true,"internalType":"uint256"},{"name":"user","type":"address","indexed":true,"internalType":"address"}],"anonymous":false},{"type":"event","name":"CoordinatorSet","inputs":[{"name":"vrfCoordinator","type":"address","indexed":false,"internalType":"address"}],"anonymous":false},{"type":"event","name":"OwnershipTransferRequested","inputs":[{"name":"from","type":"address","indexed":true,"internalType":"address"},{"name":"to","type":"address","indexed":true,"internalType":"address"}],"anonymous":false},{"type":"event","name":"OwnershipTransferred","inputs":[{"name":"from","type":"address","indexed":true,"internalType":"address"},{"name":"to","type":"address","indexed":true,"internalType":"address"}],"anonymous":false},{"type":"event","name":"PotAllowRequested","inputs":[{"name":"potId","type":"uint256","indexed":true,"internalType":"uint256"},{"name":"requestor","type":"address","indexed":true,"internalType":"address"}],"anonymous":false},{"type":"event","name":"PotCreated","inputs":[{"name":"potId","type":"uint256","indexed":true,"internalType":"uint256"},{"name":"creator","type":"address","indexed":true,"internalType":"address"}],"anonymous":false},{"type":"event","name":"PotEnded","inputs":[{"name":"potId","type":"uint256","indexed":true,"internalType":"uint256"}],"anonymous":false},{"type":"event","name":"PotJoined","inputs":[{"name":"potId","type":"uint256","indexed":true,"internalType":"uint256"},{"name":"roundId","type":"uint32","indexed":false,"internalType":"uint32"},{"name":"user","type":"address","indexed":true,"internalType":"address"}],"anonymous":false},{"type":"event","name":"PotPayout","inputs":[{"name":"potId","type":"uint256","indexed":true,"internalType":"uint256"},{"name":"winner","type":"address","indexed":true,"internalType":"address"},{"name":"amount","type":"uint256","indexed":false,"internalType":"uint256"},{"name":"round","type":"uint32","indexed":false,"internalType":"uint32"}],"anonymous":false},{"type":"error","name":"AlreadyJoined","inputs":[{"name":"potId","type":"uint256","internalType":"uint256"},{"name":"round","type":"uint32","internalType":"uint32"},{"name":"user","type":"address","internalType":"address"}]},{"type":"error","name":"EntryAmountZero","inputs":[]},{"type":"error","name":"InsufficientFundsForAutoJoin","inputs":[{"name":"sent","type":"uint256","internalType":"uint256"},{"name":"required","type":"uint256","internalType":"uint256"}]},{"type":"error","name":"InsufficientFundsToRollover","inputs":[{"name":"total","type":"uint256","internalType":"uint256"},{"name":"rollover","type":"uint256","internalType":"uint256"}]},{"type":"error","name":"NoEligibleParticipants","inputs":[]},{"type":"error","name":"NotAllParticipantsWon","inputs":[{"name":"potId","type":"uint256","internalType":"uint256"}]},{"type":"error","name":"NotAllowed","inputs":[{"name":"user","type":"address","internalType":"address"},{"name":"potId","type":"uint256","internalType":"uint256"}]},{"type":"error","name":"NotPotCreator","inputs":[{"name":"sender","type":"address","internalType":"address"},{"name":"potId","type":"uint256","internalType":"uint256"}]},{"type":"error","name":"OnlyCoordinatorCanFulfill","inputs":[{"name":"have","type":"address","internalType":"address"},{"name":"want","type":"address","internalType":"address"}]},{"type":"error","name":"OnlyOwnerOrCoordinator","inputs":[{"name":"have","type":"address","internalType":"address"},{"name":"owner","type":"address","internalType":"address"},{"name":"coordinator","type":"address","internalType":"address"}]},{"type":"error","name":"PeriodTooShort","inputs":[]},{"type":"error","name":"PotDoesNotExist","inputs":[{"name":"potId","type":"uint256","internalType":"uint256"}]},{"type":"error","name":"PotFull","inputs":[{"name":"maxParticipants","type":"uint8","internalType":"uint8"}]},{"type":"error","name":"RoundEnded","inputs":[{"name":"deadline","type":"uint256","internalType":"uint256"},{"name":"nowTimestamp","type":"uint256","internalType":"uint256"}]},{"type":"error","name":"RoundNotReady","inputs":[{"name":"deadline","type":"uint256","internalType":"uint256"},{"name":"nowTimestamp","type":"uint256","internalType":"uint256"}]},{"type":"error","name":"TokenNotAllowed","inputs":[{"name":"token","type":"address","internalType":"address"}]},{"type":"error","name":"ZeroAddress","inputs":[]}],"bytecode":{"object":"0x60806040523480156200001157600080fd5b50604051620066113803806200661183398181016040528101906200003791906200049b565b80338060006001600081905550600073ffffffffffffffffffffffffffffffffffffffff168273ffffffffffffffffffffffffffffffffffffffff1603620000b6576040517f08c379a0000000000000000000000000000000000000000000000000000000008152600401620000ad906200056e565b60405180910390fd5b81600160006101000a81548173ffffffffffffffffffffffffffffffffffffffff021916908373ffffffffffffffffffffffffffffffffffffffff160217905550600073ffffffffffffffffffffffffffffffffffffffff168173ffffffffffffffffffffffffffffffffffffffff16146200013e576200013d81620002c560201b60201c565b5b505050600073ffffffffffffffffffffffffffffffffffffffff168173ffffffffffffffffffffffffffffffffffffffff1603620001a8576040517fd92e233d00000000000000000000000000000000000000000000000000000000815260040160405180910390fd5b80600360006101000a81548173ffffffffffffffffffffffffffffffffffffffff021916908373ffffffffffffffffffffffffffffffffffffffff160217905550508360058190555081600760006101000a81548173ffffffffffffffffffffffffffffffffffffffff021916908373ffffffffffffffffffffffffffffffffffffffff1602179055508260068190555033600860006101000a81548173ffffffffffffffffffffffffffffffffffffffff021916908373ffffffffffffffffffffffffffffffffffffffff16021790555080600960006101000a81548173ffffffffffffffffffffffffffffffffffffffff021916908373ffffffffffffffffffffffffffffffffffffffff1602179055505050505062000602565b3373ffffffffffffffffffffffffffffffffffffffff168173ffffffffffffffffffffffffffffffffffffffff160362000336576040517f08c379a00000000000000000000000000000000000000000000000000000000081526004016200032d90620005e0565b60405180910390fd5b80600260006101000a81548173ffffffffffffffffffffffffffffffffffffffff021916908373ffffffffffffffffffffffffffffffffffffffff1602179055508073ffffffffffffffffffffffffffffffffffffffff16600160009054906101000a900473ffffffffffffffffffffffffffffffffffffffff1673ffffffffffffffffffffffffffffffffffffffff167fed8889f560326eb138920d842192f0eb3dd22b4f139c87a2c57538e05bae127860405160405180910390a350565b600080fd5b6000819050919050565b6200041081620003fb565b81146200041c57600080fd5b50565b600081519050620004308162000405565b92915050565b600073ffffffffffffffffffffffffffffffffffffffff82169050919050565b6000620004638262000436565b9050919050565b620004758162000456565b81146200048157600080fd5b50565b60008151905062000495816200046a565b92915050565b60008060008060808587031215620004b857620004b7620003f6565b5b6000620004c8878288016200041f565b9450506020620004db878288016200041f565b9350506040620004ee8782880162000484565b9250506060620005018782880162000484565b91505092959194509250565b600082825260208201905092915050565b7f43616e6e6f7420736574206f776e657220746f207a65726f0000000000000000600082015250565b6000620005566018836200050d565b915062000563826200051e565b602082019050919050565b60006020820190508181036000830152620005898162000547565b9050919050565b7f43616e6e6f74207472616e7366657220746f2073656c66000000000000000000600082015250565b6000620005c86017836200050d565b9150620005d58262000590565b602082019050919050565b60006020820190508181036000830152620005fb81620005b9565b9050919050565b615fff80620006126000396000f3fe6080604052600436106102465760003560e01c80638ac0002111610139578063c3c3df4f116100b6578063e744092e1161007a578063e744092e14610894578063e90c88fe146108d1578063f0f44260146108fa578063f2fde38b14610923578063f39c5d511461094c578063f3fef3a31461097557610246565b8063c3c3df4f14610792578063c5072ca8146107da578063cf72f23014610803578063d5e788291461082e578063e0321cd41461086b57610246565b80639c031ace116100fd5780639c031ace146106a95780639eccacf6146106d4578063a3e56fa8146106ff578063b0fb162f1461072a578063c1e3bd3e1461075557610246565b80638ac00021146105c45780638da5cb5b146105ef5780638ea981171461061a578063908fe934146106435780639999fea01461068057610246565b80635faa299a116101c75780636b7fd0071161018b5780636b7fd007146104fb57806379ba5097146105385780637a4f44361461054f578063831d49ef1461058c5780638661ffca146105a857610246565b80635faa299a1461040157806361728f391461043e57806361734cd61461046957806361d027b3146104a757806365c7444d146104d257610246565b806326232a2e1161020e57806326232a2e14610330578063385542f01461035b5780633bb2261d146103985780633ccfd60b146103c15780634cd73548146103d857610246565b806309c1f8ff1461024b5780630b78f9c0146102765780631301cd251461029f5780631fe543e3146102dc57806324f7469714610305575b600080fd5b34801561025757600080fd5b5061026061099e565b60405161026d919061425d565b60405180910390f35b34801561028257600080fd5b5061029d600480360381019061029891906142c2565b6109c4565b005b3480156102ab57600080fd5b506102c660048036038101906102c19190614302565b610a66565b6040516102d3919061433e565b60405180910390f35b3480156102e857600080fd5b5061030360048036038101906102fe91906143be565b610a7e565b005b34801561031157600080fd5b5061031a610b44565b604051610327919061443d565b60405180910390f35b34801561033c57600080fd5b50610345610b5a565b604051610352919061433e565b60405180910390f35b34801561036757600080fd5b50610382600480360381019061037d9190614302565b610b60565b60405161038f919061443d565b60405180910390f35b3480156103a457600080fd5b506103bf60048036038101906103ba91906144f4565b610b83565b005b3480156103cd57600080fd5b506103d6610c65565b005b3480156103e457600080fd5b506103ff60048036038101906103fa91906145bf565b610da9565b005b34801561040d57600080fd5b50610428600480360381019061042391906145ff565b610f03565b604051610435919061464e565b60405180910390f35b34801561044a57600080fd5b50610453610f32565b6040516104609190614678565b60405180910390f35b34801561047557600080fd5b50610490600480360381019061048b91906142c2565b610f38565b60405161049e929190614693565b60405180910390f35b3480156104b357600080fd5b506104bc610f99565b6040516104c9919061425d565b60405180910390f35b3480156104de57600080fd5b506104f960048036038101906104f49190614302565b610fbf565b005b34801561050757600080fd5b50610522600480360381019061051d91906146bc565b6110c0565b60405161052f919061464e565b60405180910390f35b34801561054457600080fd5b5061054d6110e0565b005b34801561055b57600080fd5b50610576600480360381019061057191906146bc565b611277565b604051610583919061464e565b60405180910390f35b6105a660048036038101906105a19190614302565b611297565b005b6105c260048036038101906105bd9190614863565b6119a7565b005b3480156105d057600080fd5b506105d9611fc1565b6040516105e6919061433e565b60405180910390f35b3480156105fb57600080fd5b50610604611fc7565b604051610611919061425d565b60405180910390f35b34801561062657600080fd5b50610641600480360381019061063c919061490c565b611ff1565b005b34801561064f57600080fd5b5061066a60048036038101906106659190614939565b6121d2565b604051610677919061433e565b60405180910390f35b34801561068c57600080fd5b506106a760048036038101906106a291906145ff565b6121f7565b005b3480156106b557600080fd5b506106be6126f3565b6040516106cb919061433e565b60405180910390f35b3480156106e057600080fd5b506106e96126f9565b6040516106f691906149d8565b60405180910390f35b34801561070b57600080fd5b5061071461271f565b6040516107219190614a14565b60405180910390f35b34801561073657600080fd5b5061073f612745565b60405161074c9190614a3e565b60405180910390f35b34801561076157600080fd5b5061077c60048036038101906107779190614302565b612759565b6040516107899190614b17565b60405180910390f35b34801561079e57600080fd5b506107b960048036038101906107b49190614302565b6127fd565b6040516107d19c9b9a99989796959493929190614bc7565b60405180910390f35b3480156107e657600080fd5b5061080160048036038101906107fc9190614cde565b61295c565b005b34801561080f57600080fd5b50610818612b6e565b604051610825919061433e565b60405180910390f35b34801561083a57600080fd5b5061085560048036038101906108509190614302565b612b74565b6040516108629190614e2b565b60405180910390f35b34801561087757600080fd5b50610892600480360381019061088d9190614302565b612c46565b005b3480156108a057600080fd5b506108bb60048036038101906108b6919061490c565b612f90565b6040516108c8919061464e565b60405180910390f35b3480156108dd57600080fd5b506108f860048036038101906108f39190614302565b612fb0565b005b34801561090657600080fd5b50610921600480360381019061091c919061490c565b6131e0565b005b34801561092f57600080fd5b5061094a6004803603810190610945919061490c565b613323565b005b34801561095857600080fd5b50610973600480360381019061096e919061490c565b613337565b005b34801561098157600080fd5b5061099c60048036038101906109979190614e4d565b61347a565b005b600860009054906101000a900473ffffffffffffffffffffffffffffffffffffffff1681565b600860009054906101000a900473ffffffffffffffffffffffffffffffffffffffff1673ffffffffffffffffffffffffffffffffffffffff163373ffffffffffffffffffffffffffffffffffffffff1614610a54576040517f08c379a0000000000000000000000000000000000000000000000000000000008152600401610a4b90614eea565b60405180910390fd5b81600581905550806006819055505050565b60146020528060005260406000206000915090505481565b600360009054906101000a900473ffffffffffffffffffffffffffffffffffffffff1673ffffffffffffffffffffffffffffffffffffffff163373ffffffffffffffffffffffffffffffffffffffff1614610b345733600360009054906101000a900473ffffffffffffffffffffffffffffffffffffffff166040517f1cf993f4000000000000000000000000000000000000000000000000000000008152600401610b2b929190614f0a565b60405180910390fd5b610b3f838383613650565b505050565b600c60029054906101000a900463ffffffff1681565b60055481565b60156020528060005260406000206000915054906101000a900463ffffffff1681565b600860009054906101000a900473ffffffffffffffffffffffffffffffffffffffff1673ffffffffffffffffffffffffffffffffffffffff163373ffffffffffffffffffffffffffffffffffffffff1614610c13576040517f08c379a0000000000000000000000000000000000000000000000000000000008152600401610c0a90614eea565b60405180910390fd5b83600a8190555082600b8190555081600c60006101000a81548161ffff021916908361ffff16021790555080600c60026101000a81548163ffffffff021916908363ffffffff16021790555050505050565b600860009054906101000a900473ffffffffffffffffffffffffffffffffffffffff1673ffffffffffffffffffffffffffffffffffffffff163373ffffffffffffffffffffffffffffffffffffffff1614610cf5576040517f08c379a0000000000000000000000000000000000000000000000000000000008152600401610cec90614eea565b60405180910390fd5b600047905060008111610d3d576040517f08c379a0000000000000000000000000000000000000000000000000000000008152600401610d3490614f7f565b60405180910390fd5b600760009054906101000a900473ffffffffffffffffffffffffffffffffffffffff1673ffffffffffffffffffffffffffffffffffffffff166108fc829081150290604051600060405180830381858888f19350505050158015610da5573d6000803e3d6000fd5b5050565b600860009054906101000a900473ffffffffffffffffffffffffffffffffffffffff1673ffffffffffffffffffffffffffffffffffffffff163373ffffffffffffffffffffffffffffffffffffffff1614610e39576040517f08c379a0000000000000000000000000000000000000000000000000000000008152600401610e3090614eea565b60405180910390fd5b600073ffffffffffffffffffffffffffffffffffffffff168273ffffffffffffffffffffffffffffffffffffffff1603610ea8576040517f08c379a0000000000000000000000000000000000000000000000000000000008152600401610e9f90614feb565b60405180910390fd5b80601060008473ffffffffffffffffffffffffffffffffffffffff1673ffffffffffffffffffffffffffffffffffffffff16815260200190815260200160002060006101000a81548160ff0219169083151502179055505050565b60116020528160005260406000206020528060005260406000206000915091509054906101000a900460ff1681565b600a5481565b60126020528160005260406000208181548110610f5457600080fd5b9060005260206000209060020201600091509150508060000160009054906101000a900473ffffffffffffffffffffffffffffffffffffffff16908060010154905082565b600760009054906101000a900473ffffffffffffffffffffffffffffffffffffffff1681565b6012600082815260200190815260200160002060405180604001604052803373ffffffffffffffffffffffffffffffffffffffff16815260200142815250908060018154018082558091505060019003906000526020600020906002020160009091909190915060008201518160000160006101000a81548173ffffffffffffffffffffffffffffffffffffffff021916908373ffffffffffffffffffffffffffffffffffffffff1602179055506020820151816001015550503373ffffffffffffffffffffffffffffffffffffffff16817f14a1608330df21406b2c36c4c92e47f22c9abd31d9df75abc4af2bdb477469bb60405160405180910390a350565b600f6020528060005260406000206000915054906101000a900460ff1681565b600260009054906101000a900473ffffffffffffffffffffffffffffffffffffffff1673ffffffffffffffffffffffffffffffffffffffff163373ffffffffffffffffffffffffffffffffffffffff1614611170576040517f08c379a000000000000000000000000000000000000000000000000000000000815260040161116790615057565b60405180910390fd5b6000600160009054906101000a900473ffffffffffffffffffffffffffffffffffffffff16905033600160006101000a81548173ffffffffffffffffffffffffffffffffffffffff021916908373ffffffffffffffffffffffffffffffffffffffff1602179055506000600260006101000a81548173ffffffffffffffffffffffffffffffffffffffff021916908373ffffffffffffffffffffffffffffffffffffffff1602179055503373ffffffffffffffffffffffffffffffffffffffff168173ffffffffffffffffffffffffffffffffffffffff167f8be0079c531659141344cd1fd0a4f28419497f9722a3daafe3b4186f6b6457e060405160405180910390a350565b600e6020528060005260406000206000915054906101000a900460ff1681565b6002600054036112dc576040517f08c379a00000000000000000000000000000000000000000000000000000000081526004016112d3906150c3565b60405180910390fd5b60026000819055506000600d60008381526020019081526020016000209050600081600501540361134457816040517f017e57a100000000000000000000000000000000000000000000000000000000815260040161133b919061433e565b60405180910390fd5b80600401544210611392578060040154426040517f8868888c0000000000000000000000000000000000000000000000000000000081526004016113899291906150e3565b60405180910390fd5b8060090160019054906101000a900460ff1660ff1681600a0180549050101580156113d2575060008160090160019054906101000a900460ff1660ff1614155b15611425578060090160019054906101000a900460ff166040517f969559d500000000000000000000000000000000000000000000000000000000815260040161141c919061510c565b60405180910390fd5b6011600083815260200190815260200160002060003373ffffffffffffffffffffffffffffffffffffffff1673ffffffffffffffffffffffffffffffffffffffff16815260200190815260200160002060009054906101000a900460ff1615801561149f575080600b0160009054906101000a900460ff16155b156114e35733826040517f8626cc030000000000000000000000000000000000000000000000000000000081526004016114da929190614693565b60405180910390fd5b6000828260030160009054906101000a900463ffffffff163360405160200161150e939291906151c6565b604051602081830303815290604052805190602001209050600e600082815260200190815260200160002060009054906101000a900460ff16156115a157828260030160009054906101000a900463ffffffff16336040517f0beb1aac00000000000000000000000000000000000000000000000000000000815260040161159893929190615203565b60405180910390fd5b60008260030160009054906101000a900463ffffffff1663ffffffff16036117835781600901600081819054906101000a900460ff16809291906115e490615269565b91906101000a81548160ff021916908360ff160217905550506000808360090160019054906101000a900460ff1660ff1614611631578260090160019054906101000a900460ff16611634565b60ff5b60ff1690506000816006546116499190615292565b9050803410156116925734816040517f155fd4670000000000000000000000000000000000000000000000000000000081526004016116899291906150e3565b60405180910390fd5b600760009054906101000a900473ffffffffffffffffffffffffffffffffffffffff1673ffffffffffffffffffffffffffffffffffffffff166108fc829081150290604051600060405180830381858888f193505050501580156116fa573d6000803e3d6000fd5b508034111561177c5760003373ffffffffffffffffffffffffffffffffffffffff16823461172891906152d4565b60405161173490615339565b60006040518083038185875af1925050503d8060008114611771576040519150601f19603f3d011682016040523d82523d6000602084013e611776565b606091505b50509050505b5050611832565b600e60008460018560030160009054906101000a900463ffffffff166117a9919061534e565b336040516020016117bc939291906151c6565b60405160208183030381529060405280519060200120815260200190815260200160002060009054906101000a900460ff166118315733836040517f8626cc03000000000000000000000000000000000000000000000000000000008152600401611828929190614693565b60405180910390fd5b5b611887333084600701548560060160009054906101000a900473ffffffffffffffffffffffffffffffffffffffff1673ffffffffffffffffffffffffffffffffffffffff16613bfa909392919063ffffffff16565b816007015482600501600082825461189f9190615386565b9250508190555081600a01339080600181540180825580915050600190039060005260206000200160009091909190916101000a81548173ffffffffffffffffffffffffffffffffffffffff021916908373ffffffffffffffffffffffffffffffffffffffff1602179055506001600e600083815260200190815260200160002060006101000a81548160ff0219169083151502179055503373ffffffffffffffffffffffffffffffffffffffff16837f672d3f5897f7a8042cd8c8557caf58ece26929a410c3b1a66a34ccfd3460fcde8460030160009054906101000a900463ffffffff16604051611992919061443d565b60405180910390a35050600160008190555050565b6002600054036119ec576040517f08c379a00000000000000000000000000000000000000000000000000000000081526004016119e3906150c3565b60405180910390fd5b600260008190555060008403611a2e576040517f172bb87f00000000000000000000000000000000000000000000000000000000815260040160405180910390fd5b610e10821015611a6a576040517f9306857800000000000000000000000000000000000000000000000000000000815260040160405180910390fd5b601060008673ffffffffffffffffffffffffffffffffffffffff1673ffffffffffffffffffffffffffffffffffffffff16815260200190815260200160002060009054906101000a900460ff16611af857846040517f94403b70000000000000000000000000000000000000000000000000000000008152600401611aef919061425d565b60405180910390fd5b600060046000815480929190611b0d906153ba565b9190505590506000600d60008381526020019081526020016000209050818160000181905550338160010160006101000a81548173ffffffffffffffffffffffffffffffffffffffff021916908373ffffffffffffffffffffffffffffffffffffffff16021790555087816002019081611b879190615604565b50868160060160006101000a81548173ffffffffffffffffffffffffffffffffffffffff021916908373ffffffffffffffffffffffffffffffffffffffff16021790555085816007018190555083816008018190555060018160090160006101000a81548160ff021916908360ff1602179055508342611c079190615386565b816004018190555085816005018190555080600a01339080600181540180825580915050600190039060005260206000200160009091909190916101000a81548173ffffffffffffffffffffffffffffffffffffffff021916908373ffffffffffffffffffffffffffffffffffffffff1602179055508281600b0160006101000a81548160ff021916908315150217905550848160090160016101000a81548160ff021916908360ff16021790555082611d255760016011600084815260200190815260200160002060003373ffffffffffffffffffffffffffffffffffffffff1673ffffffffffffffffffffffffffffffffffffffff16815260200190815260200160002060006101000a81548160ff0219169083151502179055505b600082600033604051602001611d3d939291906151c6565b6040516020818303038152906040528051906020012090506001600e600083815260200190815260200160002060006101000a81548160ff021916908315150217905550611dae3330898b73ffffffffffffffffffffffffffffffffffffffff16613bfa909392919063ffffffff16565b6000808760ff1614611dc05786611dc3565b60ff5b60ff169050600081600654611dd89190615292565b600554611de59190615386565b905080341015611e2e5734816040517f155fd467000000000000000000000000000000000000000000000000000000008152600401611e259291906150e3565b60405180910390fd5b600760009054906101000a900473ffffffffffffffffffffffffffffffffffffffff1673ffffffffffffffffffffffffffffffffffffffff166108fc829081150290604051600060405180830381858888f19350505050158015611e96573d6000803e3d6000fd5b5080341115611f185760003373ffffffffffffffffffffffffffffffffffffffff168234611ec491906152d4565b604051611ed090615339565b60006040518083038185875af1925050503d8060008114611f0d576040519150601f19603f3d011682016040523d82523d6000602084013e611f12565b606091505b50509050505b3373ffffffffffffffffffffffffffffffffffffffff16857fde307469e0906e8d7a6e84aec39b533cfe12dd01b2737a0f785511261337231760405160405180910390a33373ffffffffffffffffffffffffffffffffffffffff16857f672d3f5897f7a8042cd8c8557caf58ece26929a410c3b1a66a34ccfd3460fcde6000604051611fa49190615711565b60405180910390a350505050506001600081905550505050505050565b600b5481565b6000600160009054906101000a900473ffffffffffffffffffffffffffffffffffffffff16905090565b611ff9611fc7565b73ffffffffffffffffffffffffffffffffffffffff163373ffffffffffffffffffffffffffffffffffffffff16141580156120825750600360009054906101000a900473ffffffffffffffffffffffffffffffffffffffff1673ffffffffffffffffffffffffffffffffffffffff163373ffffffffffffffffffffffffffffffffffffffff1614155b156120f15733612090611fc7565b600360009054906101000a900473ffffffffffffffffffffffffffffffffffffffff166040517f061db9c10000000000000000000000000000000000000000000000000000000081526004016120e89392919061572c565b60405180910390fd5b600073ffffffffffffffffffffffffffffffffffffffff168173ffffffffffffffffffffffffffffffffffffffff1603612157576040517fd92e233d00000000000000000000000000000000000000000000000000000000815260040160405180910390fd5b80600360006101000a81548173ffffffffffffffffffffffffffffffffffffffff021916908373ffffffffffffffffffffffffffffffffffffffff1602179055507fd1a6a14209a385a964d036e404cb5cfb71f4000cdb03c9366292430787261be6816040516121c7919061425d565b60405180910390a150565b6013602052816000526040600020602052806000526040600020600091509150505481565b60026000540361223c576040517f08c379a0000000000000000000000000000000000000000000000000000000008152600401612233906150c3565b60405180910390fd5b60026000819055506000600d6000848152602001908152602001600020905060008160050154036122a457826040517f017e57a100000000000000000000000000000000000000000000000000000000815260040161229b919061433e565b60405180910390fd5b806004015442106122f2578060040154426040517f8868888c0000000000000000000000000000000000000000000000000000000081526004016122e99291906150e3565b60405180910390fd5b6011600084815260200190815260200160002060008373ffffffffffffffffffffffffffffffffffffffff1673ffffffffffffffffffffffffffffffffffffffff16815260200190815260200160002060009054906101000a900460ff1615801561236c575080600b0160009054906101000a900460ff16155b156123b05781836040517f8626cc030000000000000000000000000000000000000000000000000000000081526004016123a7929190614693565b60405180910390fd5b60008160030160009054906101000a900463ffffffff1663ffffffff16036124115733836040517f8626cc03000000000000000000000000000000000000000000000000000000008152600401612408929190614693565b60405180910390fd5b600e60008460018460030160009054906101000a900463ffffffff16612437919061534e565b8560405160200161244a939291906151c6565b60405160208183030381529060405280519060200120815260200190815260200160002060009054906101000a900460ff166124bf5781836040517f8626cc030000000000000000000000000000000000000000000000000000000081526004016124b6929190614693565b60405180910390fd5b6000838260030160009054906101000a900463ffffffff16846040516020016124ea939291906151c6565b604051602081830303815290604052805190602001209050600e600082815260200190815260200160002060009054906101000a900460ff161561257d57838260030160009054906101000a900463ffffffff16846040517f0beb1aac00000000000000000000000000000000000000000000000000000000815260040161257493929190615203565b60405180910390fd5b81600701548260050160008282546125959190615386565b9250508190555081600a01839080600181540180825580915050600190039060005260206000200160009091909190916101000a81548173ffffffffffffffffffffffffffffffffffffffff021916908373ffffffffffffffffffffffffffffffffffffffff1602179055506001600e600083815260200190815260200160002060006101000a81548160ff021916908315150217905550612682833084600701548560060160009054906101000a900473ffffffffffffffffffffffffffffffffffffffff1673ffffffffffffffffffffffffffffffffffffffff16613bfa909392919063ffffffff16565b8273ffffffffffffffffffffffffffffffffffffffff16847f672d3f5897f7a8042cd8c8557caf58ece26929a410c3b1a66a34ccfd3460fcde8460030160009054906101000a900463ffffffff166040516126dd919061443d565b60405180910390a3505060016000819055505050565b60065481565b600360009054906101000a900473ffffffffffffffffffffffffffffffffffffffff1681565b600960009054906101000a900473ffffffffffffffffffffffffffffffffffffffff1681565b600c60009054906101000a900461ffff1681565b6060600d6000838152602001908152602001600020600a018054806020026020016040519081016040528092919081815260200182805480156127f157602002820191906000526020600020905b8160009054906101000a900473ffffffffffffffffffffffffffffffffffffffff1673ffffffffffffffffffffffffffffffffffffffff16815260200190600101908083116127a7575b50505050509050919050565b600d6020528060005260406000206000915090508060000154908060010160009054906101000a900473ffffffffffffffffffffffffffffffffffffffff169080600201805461284c90615431565b80601f016020809104026020016040519081016040528092919081815260200182805461287890615431565b80156128c55780601f1061289a576101008083540402835291602001916128c5565b820191906000526020600020905b8154815290600101906020018083116128a857829003601f168201915b5050505050908060030160009054906101000a900463ffffffff16908060040154908060050154908060060160009054906101000a900473ffffffffffffffffffffffffffffffffffffffff16908060070154908060080154908060090160009054906101000a900460ff16908060090160019054906101000a900460ff169080600b0160009054906101000a900460ff1690508c565b6000600d600085815260200190815260200160002090508060010160009054906101000a900473ffffffffffffffffffffffffffffffffffffffff1673ffffffffffffffffffffffffffffffffffffffff163373ffffffffffffffffffffffffffffffffffffffff1614612a095733846040517f3872341e000000000000000000000000000000000000000000000000000000008152600401612a00929190614693565b60405180910390fd5b60005b83839050811015612b67576000848483818110612a2c57612a2b615763565b5b9050602002016020810190612a41919061490c565b90506011600087815260200190815260200160002060008273ffffffffffffffffffffffffffffffffffffffff1673ffffffffffffffffffffffffffffffffffffffff16815260200190815260200160002060009054906101000a900460ff16612b535760016011600088815260200190815260200160002060008373ffffffffffffffffffffffffffffffffffffffff1673ffffffffffffffffffffffffffffffffffffffff16815260200190815260200160002060006101000a81548160ff0219169083151502179055508073ffffffffffffffffffffffffffffffffffffffff16867f1a93957e2514306f9c62a03c9d38f41d87e9192c4bff4ba40eb834d92c6c728060405160405180910390a35b508080612b5f906153ba565b915050612a0c565b5050505050565b60045481565b606060126000838152602001908152602001600020805480602002602001604051908101604052809291908181526020016000905b82821015612c3b57838290600052602060002090600202016040518060400160405290816000820160009054906101000a900473ffffffffffffffffffffffffffffffffffffffff1673ffffffffffffffffffffffffffffffffffffffff1673ffffffffffffffffffffffffffffffffffffffff16815260200160018201548152505081526020019060010190612ba9565b505050509050919050565b6000600d600083815260200190815260200160002090506000816005015403612ca657816040517f017e57a1000000000000000000000000000000000000000000000000000000008152600401612c9d919061433e565b60405180910390fd5b8060040154421015612cf5578060040154426040517f3bd40433000000000000000000000000000000000000000000000000000000008152600401612cec9291906150e3565b60405180910390fd5b60005b81600a0180549050811015612de457600f60008484600a018481548110612d2257612d21615763565b5b9060005260206000200160009054906101000a900473ffffffffffffffffffffffffffffffffffffffff16604051602001612d5e929190615792565b60405160208183030381529060405280519060200120815260200190815260200160002060009054906101000a900460ff16612dd157826040517fd2471cf8000000000000000000000000000000000000000000000000000000008152600401612dc8919061433e565b60405180910390fd5b8080612ddc906153ba565b915050612cf8565b506000816005018190555080600301600081819054906101000a900463ffffffff1680929190612e13906157be565b91906101000a81548163ffffffff021916908363ffffffff1602179055505060008160060160009054906101000a900473ffffffffffffffffffffffffffffffffffffffff16905060008260070154905060005b83600a0180549050811015612f5c57816013600086600a018481548110612e9157612e90615763565b5b9060005260206000200160009054906101000a900473ffffffffffffffffffffffffffffffffffffffff1673ffffffffffffffffffffffffffffffffffffffff1673ffffffffffffffffffffffffffffffffffffffff16815260200190815260200160002060008573ffffffffffffffffffffffffffffffffffffffff1673ffffffffffffffffffffffffffffffffffffffff1681526020019081526020016000206000828254612f429190615386565b925050819055508080612f54906153ba565b915050612e67565b50837f09f73e7c1cfe948731316069115856105587fb9681d754a0037165a8a8cfe1f760405160405180910390a250505050565b60106020528060005260406000206000915054906101000a900460ff1681565b6000600d60008381526020019081526020016000209050600081600501540361301057816040517f017e57a1000000000000000000000000000000000000000000000000000000008152600401613007919061433e565b60405180910390fd5b806004015442101561305f578060040154426040517f3bd404330000000000000000000000000000000000000000000000000000000081526004016130569291906150e3565b60405180910390fd5b6000600960009054906101000a900473ffffffffffffffffffffffffffffffffffffffff1673ffffffffffffffffffffffffffffffffffffffff16639b1c385e6040518060c00160405280600a548152602001600b548152602001600c60009054906101000a900461ffff1661ffff168152602001600c60029054906101000a900463ffffffff1663ffffffff168152602001600163ffffffff168152602001613119604051806020016040528060011515815250613c83565b8152506040518263ffffffff1660e01b815260040161313891906158ea565b6020604051808303816000875af1158015613157573d6000803e3d6000fd5b505050506040513d601f19601f8201168201806040525081019061317b9190615921565b90508260146000838152602001908152602001600020819055508160030160009054906101000a900463ffffffff166015600083815260200190815260200160002060006101000a81548163ffffffff021916908363ffffffff160217905550505050565b600860009054906101000a900473ffffffffffffffffffffffffffffffffffffffff1673ffffffffffffffffffffffffffffffffffffffff163373ffffffffffffffffffffffffffffffffffffffff1614613270576040517f08c379a000000000000000000000000000000000000000000000000000000000815260040161326790614eea565b60405180910390fd5b600073ffffffffffffffffffffffffffffffffffffffff168173ffffffffffffffffffffffffffffffffffffffff16036132df576040517f08c379a00000000000000000000000000000000000000000000000000000000081526004016132d69061599a565b60405180910390fd5b80600760006101000a81548173ffffffffffffffffffffffffffffffffffffffff021916908373ffffffffffffffffffffffffffffffffffffffff16021790555050565b61332b613d1b565b61333481613dad565b50565b600860009054906101000a900473ffffffffffffffffffffffffffffffffffffffff1673ffffffffffffffffffffffffffffffffffffffff163373ffffffffffffffffffffffffffffffffffffffff16146133c7576040517f08c379a00000000000000000000000000000000000000000000000000000000081526004016133be90614eea565b60405180910390fd5b600073ffffffffffffffffffffffffffffffffffffffff168173ffffffffffffffffffffffffffffffffffffffff1603613436576040517f08c379a000000000000000000000000000000000000000000000000000000000815260040161342d90615a06565b60405180910390fd5b80600960006101000a81548173ffffffffffffffffffffffffffffffffffffffff021916908373ffffffffffffffffffffffffffffffffffffffff16021790555050565b6002600054036134bf576040517f08c379a00000000000000000000000000000000000000000000000000000000081526004016134b6906150c3565b60405180910390fd5b600260008190555080601360003373ffffffffffffffffffffffffffffffffffffffff1673ffffffffffffffffffffffffffffffffffffffff16815260200190815260200160002060008473ffffffffffffffffffffffffffffffffffffffff1673ffffffffffffffffffffffffffffffffffffffff168152602001908152602001600020541015613586576040517f08c379a000000000000000000000000000000000000000000000000000000000815260040161357d90615a72565b60405180910390fd5b80601360003373ffffffffffffffffffffffffffffffffffffffff1673ffffffffffffffffffffffffffffffffffffffff16815260200190815260200160002060008473ffffffffffffffffffffffffffffffffffffffff1673ffffffffffffffffffffffffffffffffffffffff168152602001908152602001600020600082825461361291906152d4565b9250508190555061364433828473ffffffffffffffffffffffffffffffffffffffff16613edb9092919063ffffffff16565b60016000819055505050565b60006014600085815260200190815260200160002054905060006015600086815260200190815260200160002060009054906101000a900463ffffffff1690506000600d600084815260200190815260200160002090508163ffffffff168160030160009054906101000a900463ffffffff1663ffffffff1614613709576040517f08c379a000000000000000000000000000000000000000000000000000000000815260040161370090615ade565b60405180910390fd5b600081600a0180549050905060008686600081811061372b5761372a615763565b5b905060200201359050600080600090505b8381101561380957600085600a018583866137579190615386565b6137619190615b2d565b8154811061377257613771615763565b5b9060005260206000200160009054906101000a900473ffffffffffffffffffffffffffffffffffffffff169050600f600089836040516020016137b6929190615792565b60405160208183030381529060405280519060200120815260200190815260200160002060009054906101000a900460ff166137f55780925050613809565b508080613801906153ba565b91505061373c565b50600073ffffffffffffffffffffffffffffffffffffffff168173ffffffffffffffffffffffffffffffffffffffff1603613870576040517fd4e1e24000000000000000000000000000000000000000000000000000000000815260040160405180910390fd5b6001600f60008884604051602001613889929190615792565b60405160208183030381529060405280519060200120815260200190815260200160002060006101000a81548160ff021916908315150217905550600060018560090160009054906101000a900460ff166138e49190615b5e565b60ff168663ffffffff16146138fd578460070154613900565b60005b9050600081866005015461391491906152d4565b90508273ffffffffffffffffffffffffffffffffffffffff16887fc2518a56896ff30efc4b0de222d91241ad29d5e347b5dc1465e1f28bbc6c4ac2838a60405161395f929190615b93565b60405180910390a380601360008573ffffffffffffffffffffffffffffffffffffffff1673ffffffffffffffffffffffffffffffffffffffff16815260200190815260200160002060008860060160009054906101000a900473ffffffffffffffffffffffffffffffffffffffff1673ffffffffffffffffffffffffffffffffffffffff1673ffffffffffffffffffffffffffffffffffffffff1681526020019081526020016000206000828254613a179190615386565b9250508190555060018660090160009054906101000a900460ff16613a3c9190615b5e565b60ff168763ffffffff1603613a5a5760008660050181905550613bed565b600187613a679190615bbc565b8660030160006101000a81548163ffffffff021916908363ffffffff16021790555081866005018190555085600a016000613aa291906141de565b85600a01839080600181540180825580915050600190039060005260206000200160009091909190916101000a81548173ffffffffffffffffffffffffffffffffffffffff021916908373ffffffffffffffffffffffffffffffffffffffff1602179055506001600e60008a8960030160009054906101000a900463ffffffff1687604051602001613b36939291906151c6565b60405160208183030381529060405280519060200120815260200190815260200160002060006101000a81548160ff0219169083151502179055508273ffffffffffffffffffffffffffffffffffffffff16887f672d3f5897f7a8042cd8c8557caf58ece26929a410c3b1a66a34ccfd3460fcde8860030160009054906101000a900463ffffffff16604051613bcc919061443d565b60405180910390a3856008015442613be49190615386565b86600401819055505b5050505050505050505050565b613c7d846323b872dd60e01b858585604051602401613c1b93929190615bf4565b604051602081830303815290604052907bffffffffffffffffffffffffffffffffffffffffffffffffffffffff19166020820180517bffffffffffffffffffffffffffffffffffffffffffffffffffffffff8381831617835250505050613f61565b50505050565b60607f92fd13387c7fe7befbc38d303d6468778fb9731bc4583f17d92989c6fcfdeaaa82604051602401613cb79190615c56565b604051602081830303815290604052907bffffffffffffffffffffffffffffffffffffffffffffffffffffffff19166020820180517bffffffffffffffffffffffffffffffffffffffffffffffffffffffff83818316178352505050509050919050565b600160009054906101000a900473ffffffffffffffffffffffffffffffffffffffff1673ffffffffffffffffffffffffffffffffffffffff163373ffffffffffffffffffffffffffffffffffffffff1614613dab576040517f08c379a0000000000000000000000000000000000000000000000000000000008152600401613da290615cbd565b60405180910390fd5b565b3373ffffffffffffffffffffffffffffffffffffffff168173ffffffffffffffffffffffffffffffffffffffff1603613e1b576040517f08c379a0000000000000000000000000000000000000000000000000000000008152600401613e1290615d29565b60405180910390fd5b80600260006101000a81548173ffffffffffffffffffffffffffffffffffffffff021916908373ffffffffffffffffffffffffffffffffffffffff1602179055508073ffffffffffffffffffffffffffffffffffffffff16600160009054906101000a900473ffffffffffffffffffffffffffffffffffffffff1673ffffffffffffffffffffffffffffffffffffffff167fed8889f560326eb138920d842192f0eb3dd22b4f139c87a2c57538e05bae127860405160405180910390a350565b613f5c8363a9059cbb60e01b8484604051602401613efa929190614693565b604051602081830303815290604052907bffffffffffffffffffffffffffffffffffffffffffffffffffffffff19166020820180517bffffffffffffffffffffffffffffffffffffffffffffffffffffffff8381831617835250505050613f61565b505050565b6000613fc3826040518060400160405280602081526020017f5361666545524332303a206c6f772d6c6576656c2063616c6c206661696c65648152508573ffffffffffffffffffffffffffffffffffffffff166140289092919063ffffffff16565b90506000815111156140235780806020019051810190613fe39190615d5e565b614022576040517f08c379a000000000000000000000000000000000000000000000000000000000815260040161401990615dfd565b60405180910390fd5b5b505050565b60606140378484600085614040565b90509392505050565b606082471015614085576040517f08c379a000000000000000000000000000000000000000000000000000000000815260040161407c90615e8f565b60405180910390fd5b61408e85614154565b6140cd576040517f08c379a00000000000000000000000000000000000000000000000000000000081526004016140c490615efb565b60405180910390fd5b6000808673ffffffffffffffffffffffffffffffffffffffff1685876040516140f69190615f4c565b60006040518083038185875af1925050503d8060008114614133576040519150601f19603f3d011682016040523d82523d6000602084013e614138565b606091505b5091509150614148828286614177565b92505050949350505050565b6000808273ffffffffffffffffffffffffffffffffffffffff163b119050919050565b60608315614187578290506141d7565b60008351111561419a5782518084602001fd5b816040517f08c379a00000000000000000000000000000000000000000000000000000000081526004016141ce9190615fa7565b60405180910390fd5b9392505050565b50805460008255906000526020600020908101906141fc91906141ff565b50565b5b80821115614218576000816000905550600101614200565b5090565b600073ffffffffffffffffffffffffffffffffffffffff82169050919050565b60006142478261421c565b9050919050565b6142578161423c565b82525050565b6000602082019050614272600083018461424e565b92915050565b6000604051905090565b600080fd5b600080fd5b6000819050919050565b61429f8161428c565b81146142aa57600080fd5b50565b6000813590506142bc81614296565b92915050565b600080604083850312156142d9576142d8614282565b5b60006142e7858286016142ad565b92505060206142f8858286016142ad565b9150509250929050565b60006020828403121561431857614317614282565b5b6000614326848285016142ad565b91505092915050565b6143388161428c565b82525050565b6000602082019050614353600083018461432f565b92915050565b600080fd5b600080fd5b600080fd5b60008083601f84011261437e5761437d614359565b5b8235905067ffffffffffffffff81111561439b5761439a61435e565b5b6020830191508360208202830111156143b7576143b6614363565b5b9250929050565b6000806000604084860312156143d7576143d6614282565b5b60006143e5868287016142ad565b935050602084013567ffffffffffffffff81111561440657614405614287565b5b61441286828701614368565b92509250509250925092565b600063ffffffff82169050919050565b6144378161441e565b82525050565b6000602082019050614452600083018461442e565b92915050565b6000819050919050565b61446b81614458565b811461447657600080fd5b50565b60008135905061448881614462565b92915050565b600061ffff82169050919050565b6144a58161448e565b81146144b057600080fd5b50565b6000813590506144c28161449c565b92915050565b6144d18161441e565b81146144dc57600080fd5b50565b6000813590506144ee816144c8565b92915050565b6000806000806080858703121561450e5761450d614282565b5b600061451c87828801614479565b945050602061452d878288016142ad565b935050604061453e878288016144b3565b925050606061454f878288016144df565b91505092959194509250565b6145648161423c565b811461456f57600080fd5b50565b6000813590506145818161455b565b92915050565b60008115159050919050565b61459c81614587565b81146145a757600080fd5b50565b6000813590506145b981614593565b92915050565b600080604083850312156145d6576145d5614282565b5b60006145e485828601614572565b92505060206145f5858286016145aa565b9150509250929050565b6000806040838503121561461657614615614282565b5b6000614624858286016142ad565b925050602061463585828601614572565b9150509250929050565b61464881614587565b82525050565b6000602082019050614663600083018461463f565b92915050565b61467281614458565b82525050565b600060208201905061468d6000830184614669565b92915050565b60006040820190506146a8600083018561424e565b6146b5602083018461432f565b9392505050565b6000602082840312156146d2576146d1614282565b5b60006146e084828501614479565b91505092915050565b600080fd5b6000601f19601f8301169050919050565b7f4e487b7100000000000000000000000000000000000000000000000000000000600052604160045260246000fd5b614737826146ee565b810181811067ffffffffffffffff82111715614756576147556146ff565b5b80604052505050565b6000614769614278565b9050614775828261472e565b919050565b600067ffffffffffffffff821115614795576147946146ff565b5b61479e826146ee565b9050602081019050919050565b82818337600083830152505050565b60006147cd6147c88461477a565b61475f565b9050828152602081018484840111156147e9576147e86146e9565b5b6147f48482856147ab565b509392505050565b600082601f83011261481157614810614359565b5b81356148218482602086016147ba565b91505092915050565b600060ff82169050919050565b6148408161482a565b811461484b57600080fd5b50565b60008135905061485d81614837565b92915050565b60008060008060008060c087890312156148805761487f614282565b5b600087013567ffffffffffffffff81111561489e5761489d614287565b5b6148aa89828a016147fc565b96505060206148bb89828a01614572565b95505060406148cc89828a016142ad565b94505060606148dd89828a0161484e565b93505060806148ee89828a016142ad565b92505060a06148ff89828a016145aa565b9150509295509295509295565b60006020828403121561492257614921614282565b5b600061493084828501614572565b91505092915050565b600080604083850312156149505761494f614282565b5b600061495e85828601614572565b925050602061496f85828601614572565b9150509250929050565b6000819050919050565b600061499e6149996149948461421c565b614979565b61421c565b9050919050565b60006149b082614983565b9050919050565b60006149c2826149a5565b9050919050565b6149d2816149b7565b82525050565b60006020820190506149ed60008301846149c9565b92915050565b60006149fe826149a5565b9050919050565b614a0e816149f3565b82525050565b6000602082019050614a296000830184614a05565b92915050565b614a388161448e565b82525050565b6000602082019050614a536000830184614a2f565b92915050565b600081519050919050565b600082825260208201905092915050565b6000819050602082019050919050565b614a8e8161423c565b82525050565b6000614aa08383614a85565b60208301905092915050565b6000602082019050919050565b6000614ac482614a59565b614ace8185614a64565b9350614ad983614a75565b8060005b83811015614b0a578151614af18882614a94565b9750614afc83614aac565b925050600181019050614add565b5085935050505092915050565b60006020820190508181036000830152614b318184614ab9565b905092915050565b600081519050919050565b600082825260208201905092915050565b60005b83811015614b73578082015181840152602081019050614b58565b60008484015250505050565b6000614b8a82614b39565b614b948185614b44565b9350614ba4818560208601614b55565b614bad816146ee565b840191505092915050565b614bc18161482a565b82525050565b600061018082019050614bdd600083018f61432f565b614bea602083018e61424e565b8181036040830152614bfc818d614b7f565b9050614c0b606083018c61442e565b614c18608083018b61432f565b614c2560a083018a61432f565b614c3260c083018961424e565b614c3f60e083018861432f565b614c4d61010083018761432f565b614c5b610120830186614bb8565b614c69610140830185614bb8565b614c7761016083018461463f565b9d9c50505050505050505050505050565b60008083601f840112614c9e57614c9d614359565b5b8235905067ffffffffffffffff811115614cbb57614cba61435e565b5b602083019150836020820283011115614cd757614cd6614363565b5b9250929050565b600080600060408486031215614cf757614cf6614282565b5b6000614d05868287016142ad565b935050602084013567ffffffffffffffff811115614d2657614d25614287565b5b614d3286828701614c88565b92509250509250925092565b600081519050919050565b600082825260208201905092915050565b6000819050602082019050919050565b614d738161428c565b82525050565b604082016000820151614d8f6000850182614a85565b506020820151614da26020850182614d6a565b50505050565b6000614db48383614d79565b60408301905092915050565b6000602082019050919050565b6000614dd882614d3e565b614de28185614d49565b9350614ded83614d5a565b8060005b83811015614e1e578151614e058882614da8565b9750614e1083614dc0565b925050600181019050614df1565b5085935050505092915050565b60006020820190508181036000830152614e458184614dcd565b905092915050565b60008060408385031215614e6457614e63614282565b5b6000614e7285828601614572565b9250506020614e83858286016142ad565b9150509250929050565b600082825260208201905092915050565b7f4e6f742074686520706f746c75636b206f776e65720000000000000000000000600082015250565b6000614ed4601583614e8d565b9150614edf82614e9e565b602082019050919050565b60006020820190508181036000830152614f0381614ec7565b9050919050565b6000604082019050614f1f600083018561424e565b614f2c602083018461424e565b9392505050565b7f4e6f2062616c616e636520746f20776974686472617700000000000000000000600082015250565b6000614f69601683614e8d565b9150614f7482614f33565b602082019050919050565b60006020820190508181036000830152614f9881614f5c565b9050919050565b7f496e76616c696420746f6b656e20616464726573730000000000000000000000600082015250565b6000614fd5601583614e8d565b9150614fe082614f9f565b602082019050919050565b6000602082019050818103600083015261500481614fc8565b9050919050565b7f4d7573742062652070726f706f736564206f776e657200000000000000000000600082015250565b6000615041601683614e8d565b915061504c8261500b565b602082019050919050565b6000602082019050818103600083015261507081615034565b9050919050565b7f5265656e7472616e637947756172643a207265656e7472616e742063616c6c00600082015250565b60006150ad601f83614e8d565b91506150b882615077565b602082019050919050565b600060208201905081810360008301526150dc816150a0565b9050919050565b60006040820190506150f8600083018561432f565b615105602083018461432f565b9392505050565b60006020820190506151216000830184614bb8565b92915050565b6000819050919050565b61514261513d8261428c565b615127565b82525050565b60008160e01b9050919050565b600061516082615148565b9050919050565b6151786151738261441e565b615155565b82525050565b60008160601b9050919050565b60006151968261517e565b9050919050565b60006151a88261518b565b9050919050565b6151c06151bb8261423c565b61519d565b82525050565b60006151d28286615131565b6020820191506151e28285615167565b6004820191506151f282846151af565b601482019150819050949350505050565b6000606082019050615218600083018661432f565b615225602083018561442e565b615232604083018461424e565b949350505050565b7f4e487b7100000000000000000000000000000000000000000000000000000000600052601160045260246000fd5b60006152748261482a565b915060ff82036152875761528661523a565b5b600182019050919050565b600061529d8261428c565b91506152a88361428c565b92508282026152b68161428c565b915082820484148315176152cd576152cc61523a565b5b5092915050565b60006152df8261428c565b91506152ea8361428c565b92508282039050818111156153025761530161523a565b5b92915050565b600081905092915050565b50565b6000615323600083615308565b915061532e82615313565b600082019050919050565b600061534482615316565b9150819050919050565b60006153598261441e565b91506153648361441e565b9250828203905063ffffffff8111156153805761537f61523a565b5b92915050565b60006153918261428c565b915061539c8361428c565b92508282019050808211156153b4576153b361523a565b5b92915050565b60006153c58261428c565b91507fffffffffffffffffffffffffffffffffffffffffffffffffffffffffffffffff82036153f7576153f661523a565b5b600182019050919050565b7f4e487b7100000000000000000000000000000000000000000000000000000000600052602260045260246000fd5b6000600282049050600182168061544957607f821691505b60208210810361545c5761545b615402565b5b50919050565b60008190508160005260206000209050919050565b60006020601f8301049050919050565b600082821b905092915050565b6000600883026154c47fffffffffffffffffffffffffffffffffffffffffffffffffffffffffffffffff82615487565b6154ce8683615487565b95508019841693508086168417925050509392505050565b60006155016154fc6154f78461428c565b614979565b61428c565b9050919050565b6000819050919050565b61551b836154e6565b61552f61552782615508565b848454615494565b825550505050565b600090565b615544615537565b61554f818484615512565b505050565b5b818110156155735761556860008261553c565b600181019050615555565b5050565b601f8211156155b85761558981615462565b61559284615477565b810160208510156155a1578190505b6155b56155ad85615477565b830182615554565b50505b505050565b600082821c905092915050565b60006155db600019846008026155bd565b1980831691505092915050565b60006155f483836155ca565b9150826002028217905092915050565b61560d82614b39565b67ffffffffffffffff811115615626576156256146ff565b5b6156308254615431565b61563b828285615577565b600060209050601f83116001811461566e576000841561565c578287015190505b61566685826155e8565b8655506156ce565b601f19841661567c86615462565b60005b828110156156a45784890151825560018201915060208501945060208101905061567f565b868310156156c157848901516156bd601f8916826155ca565b8355505b6001600288020188555050505b505050505050565b6000819050919050565b60006156fb6156f66156f1846156d6565b614979565b61441e565b9050919050565b61570b816156e0565b82525050565b60006020820190506157266000830184615702565b92915050565b6000606082019050615741600083018661424e565b61574e602083018561424e565b61575b604083018461424e565b949350505050565b7f4e487b7100000000000000000000000000000000000000000000000000000000600052603260045260246000fd5b600061579e8285615131565b6020820191506157ae82846151af565b6014820191508190509392505050565b60006157c98261441e565b915063ffffffff82036157df576157de61523a565b5b600182019050919050565b6157f381614458565b82525050565b6158028161448e565b82525050565b6158118161441e565b82525050565b600082825260208201905092915050565b600061583382614b39565b61583d8185615817565b935061584d818560208601614b55565b615856816146ee565b840191505092915050565b600060c08301600083015161587960008601826157ea565b50602083015161588c6020860182614d6a565b50604083015161589f60408601826157f9565b5060608301516158b26060860182615808565b5060808301516158c56080860182615808565b5060a083015184820360a08601526158dd8282615828565b9150508091505092915050565b600060208201905081810360008301526159048184615861565b905092915050565b60008151905061591b81614296565b92915050565b60006020828403121561593757615936614282565b5b60006159458482850161590c565b91505092915050565b7f496e76616c696420747265617375727920616464726573730000000000000000600082015250565b6000615984601883614e8d565b915061598f8261594e565b602082019050919050565b600060208201905081810360008301526159b381615977565b9050919050565b7f496e76616c69642056524620436f6f7264696e61746f72206164647265737300600082015250565b60006159f0601f83614e8d565b91506159fb826159ba565b602082019050919050565b60006020820190508181036000830152615a1f816159e3565b9050919050565b7f496e73756666696369656e742062616c616e6365000000000000000000000000600082015250565b6000615a5c601483614e8d565b9150615a6782615a26565b602082019050919050565b60006020820190508181036000830152615a8b81615a4f565b9050919050565b7f5061796f757420616c7265616479207472696767657265640000000000000000600082015250565b6000615ac8601883614e8d565b9150615ad382615a92565b602082019050919050565b60006020820190508181036000830152615af781615abb565b9050919050565b7f4e487b7100000000000000000000000000000000000000000000000000000000600052601260045260246000fd5b6000615b388261428c565b9150615b438361428c565b925082615b5357615b52615afe565b5b828206905092915050565b6000615b698261482a565b9150615b748361482a565b9250828203905060ff811115615b8d57615b8c61523a565b5b92915050565b6000604082019050615ba8600083018561432f565b615bb5602083018461442e565b9392505050565b6000615bc78261441e565b9150615bd28361441e565b9250828201905063ffffffff811115615bee57615bed61523a565b5b92915050565b6000606082019050615c09600083018661424e565b615c16602083018561424e565b615c23604083018461432f565b949350505050565b615c3481614587565b82525050565b602082016000820151615c506000850182615c2b565b50505050565b6000602082019050615c6b6000830184615c3a565b92915050565b7f4f6e6c792063616c6c61626c65206279206f776e657200000000000000000000600082015250565b6000615ca7601683614e8d565b9150615cb282615c71565b602082019050919050565b60006020820190508181036000830152615cd681615c9a565b9050919050565b7f43616e6e6f74207472616e7366657220746f2073656c66000000000000000000600082015250565b6000615d13601783614e8d565b9150615d1e82615cdd565b602082019050919050565b60006020820190508181036000830152615d4281615d06565b9050919050565b600081519050615d5881614593565b92915050565b600060208284031215615d7457615d73614282565b5b6000615d8284828501615d49565b91505092915050565b7f5361666545524332303a204552433230206f7065726174696f6e20646964206e60008201527f6f74207375636365656400000000000000000000000000000000000000000000602082015250565b6000615de7602a83614e8d565b9150615df282615d8b565b604082019050919050565b60006020820190508181036000830152615e1681615dda565b9050919050565b7f416464726573733a20696e73756666696369656e742062616c616e636520666f60008201527f722063616c6c0000000000000000000000000000000000000000000000000000602082015250565b6000615e79602683614e8d565b9150615e8482615e1d565b604082019050919050565b60006020820190508181036000830152615ea881615e6c565b9050919050565b7f416464726573733a2063616c6c20746f206e6f6e2d636f6e7472616374000000600082015250565b6000615ee5601d83614e8d565b9150615ef082615eaf565b602082019050919050565b60006020820190508181036000830152615f1481615ed8565b9050919050565b6000615f2682614b39565b615f308185615308565b9350615f40818560208601614b55565b80840191505092915050565b6000615f588284615f1b565b915081905092915050565b600081519050919050565b6000615f7982615f63565b615f838185614e8d565b9350615f93818560208601614b55565b615f9c816146ee565b840191505092915050565b60006020820190508181036000830152615fc18184615f6e565b90509291505056fea2646970667358221220e848eee81e8948687bc4a222009227f5c96ed701a57598674ebd37b216004a3264736f6c63430008130033","linkReferences":{}},"methodIdentifiers":{"acceptOwnership()":"79ba5097","allowParticipants(uint256,address[])":"c5072ca8","allowedTokens(address)":"e744092e","callbackGasLimit()":"24f74697","createPot(bytes,address,uint256,uint8,uint256,bool)":"8661ffca","endPot(uint256)":"e0321cd4","getParticipants(uint256)":"c1e3bd3e","getRequests(uint256)":"d5e78829","hasJoinedRound(bytes32)":"7a4f4436","hasWon(bytes32)":"6b7fd007","isAllowed(uint256,address)":"5faa299a","joinOnBehalf(uint256,address)":"9999fea0","joinPot(uint256)":"831d49ef","keyHash()":"61728f39","owner()":"8da5cb5b","participantFee()":"9c031ace","platformFee()":"26232a2e","potCount()":"cf72f230","potluckOwner()":"09c1f8ff","pots(uint256)":"c3c3df4f","rawFulfillRandomWords(uint256,uint256[])":"1fe543e3","requestConfirmations()":"b0fb162f","requestPotAllow(uint256)":"65c7444d","requestToPot(uint256)":"1301cd25","requestToRound(uint256)":"385542f0","requestedParticipants(uint256,uint256)":"61734cd6","s_subscriptionId()":"8ac00021","s_vrfCoordinator()":"9eccacf6","setChainlinkVRF(address)":"f39c5d51","setChainlinkVRF(bytes32,uint256,uint16,uint32)":"3bb2261d","setCoordinator(address)":"8ea98117","setFees(uint256,uint256)":"0b78f9c0","setTokenStatus(address,bool)":"4cd73548","setTreasury(address)":"f0f44260","transferOwnership(address)":"f2fde38b","treasury()":"61d027b3","triggerPotPayout(uint256)":"e90c88fe","vrfCoordinator()":"a3e56fa8","withdraw()":"3ccfd60b","withdraw(address,uint256)":"f3fef3a3","withdrawalBalances(address,address)":"908fe934"},"id":39}