{"abi":[{"type":"constructor","inputs":[{"name":"_platformFee","type":"uint256","internalType":"uint256"},{"name":"_partFee","type":"uint256","internalType":"uint256"},{"name":"_treasury","type":"address","internalType":"address"},{"name":"_vrfCoordinator","type":"address","internalType":"address"}],"stateMutability":"nonpayable"},{"type":"function","name":"acceptOwnership","inputs":[],"outputs":[],"stateMutability":"nonpayable"},{"type":"function","name":"allowParticipants","inputs":[{"name":"potId","type":"uint256","internalType":"uint256"},{"name":"participants","type":"address[]","internalType":"address[]"}],"outputs":[],"stateMutability":"nonpayable"},{"type":"function","name":"allowToken","inputs":[{"name":"token","type":"address","internalType":"address"}],"outputs":[],"stateMutability":"nonpayable"},{"type":"function","name":"allowedTokens","inputs":[{"name":"","type":"address","internalType":"address"}],"outputs":[{"name":"","type":"bool","internalType":"bool"}],"stateMutability":"view"},{"type":"function","name":"callbackGasLimit","inputs":[],"outputs":[{"name":"","type":"uint32","internalType":"uint32"}],"stateMutability":"view"},{"type":"function","name":"createPot","inputs":[{"name":"name","type":"bytes","internalType":"bytes"},{"name":"token","type":"address","internalType":"address"},{"name":"entryAmount","type":"uint256","internalType":"uint256"},{"name":"maxParticipants","type":"uint8","internalType":"uint8"},{"name":"periodSeconds","type":"uint256","internalType":"uint256"},{"name":"isPublic","type":"bool","internalType":"bool"}],"outputs":[],"stateMutability":"payable"},{"type":"function","name":"endBatch","inputs":[{"name":"potIds","type":"uint256[]","internalType":"uint256[]"}],"outputs":[],"stateMutability":"nonpayable"},{"type":"function","name":"endPot","inputs":[{"name":"potId","type":"uint256","internalType":"uint256"}],"outputs":[],"stateMutability":"nonpayable"},{"type":"function","name":"getCreatorFee","inputs":[{"name":"maxParticipants","type":"uint8","internalType":"uint8"}],"outputs":[{"name":"","type":"uint256","internalType":"uint256"}],"stateMutability":"view"},{"type":"function","name":"getParticipantFee","inputs":[{"name":"maxParticipants","type":"uint8","internalType":"uint8"}],"outputs":[{"name":"","type":"uint256","internalType":"uint256"}],"stateMutability":"view"},{"type":"function","name":"getParticipants","inputs":[{"name":"potId","type":"uint256","internalType":"uint256"}],"outputs":[{"name":"","type":"address[]","internalType":"address[]"}],"stateMutability":"view"},{"type":"function","name":"getRequests","inputs":[{"name":"potId","type":"uint256","internalType":"uint256"}],"outputs":[{"name":"","type":"tuple[]","internalType":"struct Potluck.PotRequest[]","components":[{"name":"requestor","type":"address","internalType":"address"},{"name":"timestamp","type":"uint256","internalType":"uint256"},{"name":"status","type":"uint8","internalType":"enum Potluck.RequestStatus"}]}],"stateMutability":"view"},{"type":"function","name":"hasJoinedRound","inputs":[{"name":"","type":"bytes32","internalType":"bytes32"}],"outputs":[{"name":"","type":"bool","internalType":"bool"}],"stateMutability":"view"},{"type":"function","name":"hasWon","inputs":[{"name":"","type":"bytes32","internalType":"bytes32"}],"outputs":[{"name":"","type":"bool","internalType":"bool"}],"stateMutability":"view"},{"type":"function","name":"isAllowed","inputs":[{"name":"","type":"uint256","internalType":"uint256"},{"name":"","type":"address","internalType":"address"}],"outputs":[{"name":"","type":"bool","internalType":"bool"}],"stateMutability":"view"},{"type":"function","name":"joinOnBehalf","inputs":[{"name":"potId","type":"uint256","internalType":"uint256"},{"name":"participant","type":"address","internalType":"address"}],"outputs":[],"stateMutability":"nonpayable"},{"type":"function","name":"joinPot","inputs":[{"name":"potId","type":"uint256","internalType":"uint256"}],"outputs":[],"stateMutability":"payable"},{"type":"function","name":"keyHash","inputs":[],"outputs":[{"name":"","type":"bytes32","internalType":"bytes32"}],"stateMutability":"view"},{"type":"function","name":"owner","inputs":[],"outputs":[{"name":"","type":"address","internalType":"address"}],"stateMutability":"view"},{"type":"function","name":"participantFee","inputs":[],"outputs":[{"name":"","type":"uint256","internalType":"uint256"}],"stateMutability":"view"},{"type":"function","name":"platformFee","inputs":[],"outputs":[{"name":"","type":"uint256","internalType":"uint256"}],"stateMutability":"view"},{"type":"function","name":"potCount","inputs":[],"outputs":[{"name":"","type":"uint256","internalType":"uint256"}],"stateMutability":"view"},{"type":"function","name":"potluckOwner","inputs":[],"outputs":[{"name":"","type":"address","internalType":"address"}],"stateMutability":"view"},{"type":"function","name":"pots","inputs":[{"name":"","type":"uint256","internalType":"uint256"}],"outputs":[{"name":"id","type":"uint256","internalType":"uint256"},{"name":"creator","type":"address","internalType":"address"},{"name":"name","type":"bytes","internalType":"bytes"},{"name":"round","type":"uint32","internalType":"uint32"},{"name":"deadline","type":"uint256","internalType":"uint256"},{"name":"balance","type":"uint256","internalType":"uint256"},{"name":"token","type":"address","internalType":"address"},{"name":"entryAmount","type":"uint256","internalType":"uint256"},{"name":"period","type":"uint256","internalType":"uint256"},{"name":"totalParticipants","type":"uint8","internalType":"uint8"},{"name":"maxParticipants","type":"uint8","internalType":"uint8"},{"name":"isPublic","type":"bool","internalType":"bool"}],"stateMutability":"view"},{"type":"function","name":"rawFulfillRandomWords","inputs":[{"name":"requestId","type":"uint256","internalType":"uint256"},{"name":"randomWords","type":"uint256[]","internalType":"uint256[]"}],"outputs":[],"stateMutability":"nonpayable"},{"type":"function","name":"requestConfirmations","inputs":[],"outputs":[{"name":"","type":"uint16","internalType":"uint16"}],"stateMutability":"view"},{"type":"function","name":"requestPotAllow","inputs":[{"name":"potId","type":"uint256","internalType":"uint256"}],"outputs":[],"stateMutability":"nonpayable"},{"type":"function","name":"requestToPot","inputs":[{"name":"","type":"uint256","internalType":"uint256"}],"outputs":[{"name":"","type":"uint256","internalType":"uint256"}],"stateMutability":"view"},{"type":"function","name":"requestToRound","inputs":[{"name":"","type":"uint256","internalType":"uint256"}],"outputs":[{"name":"","type":"uint32","internalType":"uint32"}],"stateMutability":"view"},{"type":"function","name":"requestedParticipants","inputs":[{"name":"","type":"uint256","internalType":"uint256"},{"name":"","type":"uint256","internalType":"uint256"}],"outputs":[{"name":"requestor","type":"address","internalType":"address"},{"name":"timestamp","type":"uint256","internalType":"uint256"},{"name":"status","type":"uint8","internalType":"enum Potluck.RequestStatus"}],"stateMutability":"view"},{"type":"function","name":"s_subscriptionId","inputs":[],"outputs":[{"name":"","type":"uint256","internalType":"uint256"}],"stateMutability":"view"},{"type":"function","name":"s_vrfCoordinator","inputs":[],"outputs":[{"name":"","type":"address","internalType":"contract IVRFCoordinatorV2Plus"}],"stateMutability":"view"},{"type":"function","name":"setChainlinkVRF","inputs":[{"name":"_keyHash","type":"bytes32","internalType":"bytes32"},{"name":"_subscriptionId","type":"uint256","internalType":"uint256"},{"name":"_requestConfirmations","type":"uint16","internalType":"uint16"},{"name":"_callbackGasLimit","type":"uint32","internalType":"uint32"}],"outputs":[],"stateMutability":"nonpayable"},{"type":"function","name":"setChainlinkVRF","inputs":[{"name":"_vrfCoordinator","type":"address","internalType":"address"}],"outputs":[],"stateMutability":"nonpayable"},{"type":"function","name":"setCoordinator","inputs":[{"name":"_vrfCoordinator","type":"address","internalType":"address"}],"outputs":[],"stateMutability":"nonpayable"},{"type":"function","name":"setFees","inputs":[{"name":"_flatFee","type":"uint256","internalType":"uint256"},{"name":"_perPartFee","type":"uint256","internalType":"uint256"}],"outputs":[],"stateMutability":"nonpayable"},{"type":"function","name":"setTreasury","inputs":[{"name":"newTreasury","type":"address","internalType":"address"}],"outputs":[],"stateMutability":"nonpayable"},{"type":"function","name":"transferOwnership","inputs":[{"name":"to","type":"address","internalType":"address"}],"outputs":[],"stateMutability":"nonpayable"},{"type":"function","name":"treasury","inputs":[],"outputs":[{"name":"","type":"address","internalType":"address"}],"stateMutability":"view"},{"type":"function","name":"triggerBatchJoinOnBehalf","inputs":[{"name":"potId","type":"uint256","internalType":"uint256"},{"name":"participants","type":"address[]","internalType":"address[]"}],"outputs":[],"stateMutability":"nonpayable"},{"type":"function","name":"triggerBatchPayout","inputs":[{"name":"potIds","type":"uint256[]","internalType":"uint256[]"}],"outputs":[],"stateMutability":"nonpayable"},{"type":"function","name":"triggerPotPayout","inputs":[{"name":"potId","type":"uint256","internalType":"uint256"}],"outputs":[],"stateMutability":"nonpayable"},{"type":"function","name":"vrfCoordinator","inputs":[],"outputs":[{"name":"","type":"address","internalType":"contract VRFCoordinatorV2_5"}],"stateMutability":"view"},{"type":"function","name":"withdraw","inputs":[],"outputs":[],"stateMutability":"nonpayable"},{"type":"function","name":"withdraw","inputs":[{"name":"receiver","type":"address","internalType":"address"},{"name":"token","type":"address","internalType":"address"},{"name":"amount","type":"uint256","internalType":"uint256"}],"outputs":[],"stateMutability":"nonpayable"},{"type":"function","name":"withdrawBatch","inputs":[{"name":"receivers","type":"address[]","internalType":"address[]"},{"name":"token","type":"address","internalType":"address"},{"name":"amounts","type":"uint256[]","internalType":"uint256[]"}],"outputs":[],"stateMutability":"nonpayable"},{"type":"function","name":"withdrawalBalances","inputs":[{"name":"","type":"address","internalType":"address"},{"name":"","type":"address","internalType":"address"}],"outputs":[{"name":"","type":"uint256","internalType":"uint256"}],"stateMutability":"view"},{"type":"event","name":"AllowedParticipantAdded","inputs":[{"name":"potId","type":"uint256","indexed":true,"internalType":"uint256"},{"name":"user","type":"address","indexed":true,"internalType":"address"}],"anonymous":false},{"type":"event","name":"CoordinatorSet","inputs":[{"name":"vrfCoordinator","type":"address","indexed":false,"internalType":"address"}],"anonymous":false},{"type":"event","name":"OwnershipTransferRequested","inputs":[{"name":"from","type":"address","indexed":true,"internalType":"address"},{"name":"to","type":"address","indexed":true,"internalType":"address"}],"anonymous":false},{"type":"event","name":"OwnershipTransferred","inputs":[{"name":"from","type":"address","indexed":true,"internalType":"address"},{"name":"to","type":"address","indexed":true,"internalType":"address"}],"anonymous":false},{"type":"event","name":"PotAllowRequested","inputs":[{"name":"potId","type":"uint256","indexed":true,"internalType":"uint256"},{"name":"requestor","type":"address","indexed":true,"internalType":"address"}],"anonymous":false},{"type":"event","name":"PotCreated","inputs":[{"name":"potId","type":"uint256","indexed":true,"internalType":"uint256"},{"name":"creator","type":"address","indexed":true,"internalType":"address"}],"anonymous":false},{"type":"event","name":"PotEnded","inputs":[{"name":"potId","type":"uint256","indexed":true,"internalType":"uint256"}],"anonymous":false},{"type":"event","name":"PotJoined","inputs":[{"name":"potId","type":"uint256","indexed":true,"internalType":"uint256"},{"name":"roundId","type":"uint32","indexed":false,"internalType":"uint32"},{"name":"user","type":"address","indexed":true,"internalType":"address"}],"anonymous":false},{"type":"event","name":"PotPayout","inputs":[{"name":"potId","type":"uint256","indexed":true,"internalType":"uint256"},{"name":"winner","type":"address","indexed":true,"internalType":"address"},{"name":"amount","type":"uint256","indexed":false,"internalType":"uint256"},{"name":"round","type":"uint32","indexed":false,"internalType":"uint32"}],"anonymous":false},{"type":"error","name":"AlreadyJoined","inputs":[{"name":"potId","type":"uint256","internalType":"uint256"},{"name":"round","type":"uint32","internalType":"uint32"},{"name":"user","type":"address","internalType":"address"}]},{"type":"error","name":"EntryAmountZero","inputs":[]},{"type":"error","name":"InsufficientFundsForAutoJoin","inputs":[{"name":"sent","type":"uint256","internalType":"uint256"},{"name":"required","type":"uint256","internalType":"uint256"}]},{"type":"error","name":"InsufficientFundsToRollover","inputs":[{"name":"total","type":"uint256","internalType":"uint256"},{"name":"rollover","type":"uint256","internalType":"uint256"}]},{"type":"error","name":"NoEligibleParticipants","inputs":[]},{"type":"error","name":"NotAllParticipantsWon","inputs":[{"name":"potId","type":"uint256","internalType":"uint256"}]},{"type":"error","name":"NotAllowed","inputs":[{"name":"user","type":"address","internalType":"address"},{"name":"potId","type":"uint256","internalType":"uint256"}]},{"type":"error","name":"NotPotCreator","inputs":[{"name":"sender","type":"address","internalType":"address"},{"name":"potId","type":"uint256","internalType":"uint256"}]},{"type":"error","name":"OnlyCoordinatorCanFulfill","inputs":[{"name":"have","type":"address","internalType":"address"},{"name":"want","type":"address","internalType":"address"}]},{"type":"error","name":"OnlyOwnerOrCoordinator","inputs":[{"name":"have","type":"address","internalType":"address"},{"name":"owner","type":"address","internalType":"address"},{"name":"coordinator","type":"address","internalType":"address"}]},{"type":"error","name":"PeriodTooShort","inputs":[]},{"type":"error","name":"PotDoesNotExist","inputs":[{"name":"potId","type":"uint256","internalType":"uint256"}]},{"type":"error","name":"PotFull","inputs":[{"name":"maxParticipants","type":"uint8","internalType":"uint8"}]},{"type":"error","name":"RoundEnded","inputs":[{"name":"deadline","type":"uint256","internalType":"uint256"},{"name":"nowTimestamp","type":"uint256","internalType":"uint256"}]},{"type":"error","name":"RoundNotReady","inputs":[{"name":"deadline","type":"uint256","internalType":"uint256"},{"name":"nowTimestamp","type":"uint256","internalType":"uint256"}]},{"type":"error","name":"TokenNotAllowed","inputs":[{"name":"token","type":"address","internalType":"address"}]},{"type":"error","name":"ZeroAddress","inputs":[]}],"bytecode":{"object":"0x60806040523480156200001157600080fd5b50604051620069b6380380620069b683398181016040528101906200003791906200049b565b80338060006001600081905550600073ffffffffffffffffffffffffffffffffffffffff168273ffffffffffffffffffffffffffffffffffffffff1603620000b6576040517f08c379a0000000000000000000000000000000000000000000000000000000008152600401620000ad906200056e565b60405180910390fd5b81600160006101000a81548173ffffffffffffffffffffffffffffffffffffffff021916908373ffffffffffffffffffffffffffffffffffffffff160217905550600073ffffffffffffffffffffffffffffffffffffffff168173ffffffffffffffffffffffffffffffffffffffff16146200013e576200013d81620002c560201b60201c565b5b505050600073ffffffffffffffffffffffffffffffffffffffff168173ffffffffffffffffffffffffffffffffffffffff1603620001a8576040517fd92e233d00000000000000000000000000000000000000000000000000000000815260040160405180910390fd5b80600360006101000a81548173ffffffffffffffffffffffffffffffffffffffff021916908373ffffffffffffffffffffffffffffffffffffffff160217905550508360058190555081600760006101000a81548173ffffffffffffffffffffffffffffffffffffffff021916908373ffffffffffffffffffffffffffffffffffffffff1602179055508260068190555033600860006101000a81548173ffffffffffffffffffffffffffffffffffffffff021916908373ffffffffffffffffffffffffffffffffffffffff16021790555080600960006101000a81548173ffffffffffffffffffffffffffffffffffffffff021916908373ffffffffffffffffffffffffffffffffffffffff1602179055505050505062000602565b3373ffffffffffffffffffffffffffffffffffffffff168173ffffffffffffffffffffffffffffffffffffffff160362000336576040517f08c379a00000000000000000000000000000000000000000000000000000000081526004016200032d90620005e0565b60405180910390fd5b80600260006101000a81548173ffffffffffffffffffffffffffffffffffffffff021916908373ffffffffffffffffffffffffffffffffffffffff1602179055508073ffffffffffffffffffffffffffffffffffffffff16600160009054906101000a900473ffffffffffffffffffffffffffffffffffffffff1673ffffffffffffffffffffffffffffffffffffffff167fed8889f560326eb138920d842192f0eb3dd22b4f139c87a2c57538e05bae127860405160405180910390a350565b600080fd5b6000819050919050565b6200041081620003fb565b81146200041c57600080fd5b50565b600081519050620004308162000405565b92915050565b600073ffffffffffffffffffffffffffffffffffffffff82169050919050565b6000620004638262000436565b9050919050565b620004758162000456565b81146200048157600080fd5b50565b60008151905062000495816200046a565b92915050565b60008060008060808587031215620004b857620004b7620003f6565b5b6000620004c8878288016200041f565b9450506020620004db878288016200041f565b9350506040620004ee8782880162000484565b9250506060620005018782880162000484565b91505092959194509250565b600082825260208201905092915050565b7f43616e6e6f7420736574206f776e657220746f207a65726f0000000000000000600082015250565b6000620005566018836200050d565b915062000563826200051e565b602082019050919050565b60006020820190508181036000830152620005898162000547565b9050919050565b7f43616e6e6f74207472616e7366657220746f2073656c66000000000000000000600082015250565b6000620005c86017836200050d565b9150620005d58262000590565b602082019050919050565b60006020820190508181036000830152620005fb81620005b9565b9050919050565b6163a480620006126000396000f3fe6080604052600436106102885760003560e01c80638da5cb5b1161015a578063c5072ca8116100c1578063e0321cd41161007a578063e0321cd4146109f5578063e744092e14610a1e578063e90c88fe14610a5b578063f0f4426014610a84578063f2fde38b14610aad578063f39c5d5114610ad657610288565b8063c5072ca8146108d5578063cf72f230146108fe578063d1abb12a14610929578063d5e7882914610966578063d9caed12146109a3578063de1149b3146109cc57610288565b8063a3e56fa811610113578063a3e56fa8146107a8578063a88390dc146107d3578063b0fb162f146107fc578063b53472ef14610827578063c1e3bd3e14610850578063c3c3df4f1461088d57610288565b80638da5cb5b146106985780638ea98117146106c3578063908fe934146106ec5780639999fea0146107295780639c031ace146107525780639eccacf61461077d57610288565b80635faa299a116101fe57806379ba5097116101b757806379ba5097146105b85780637a4f4436146105cf578063831d49ef1461060c5780638657dfcb146106285780638661ffca146106515780638ac000211461066d57610288565b80635faa299a1461048057806361728f39146104bd57806361734cd6146104e857806361d027b31461052757806365c7444d146105525780636b7fd0071461057b57610288565b806324f746971161025057806324f746971461038457806326232a2e146103af5780632fd99712146103da578063385542f0146104035780633bb2261d146104405780633ccfd60b1461046957610288565b806309c1f8ff1461028d5780630b78f9c0146102b85780631301cd25146102e157806313f2cef91461031e5780631fe543e31461035b575b600080fd5b34801561029957600080fd5b506102a2610aff565b6040516102af919061447c565b60405180910390f35b3480156102c457600080fd5b506102df60048036038101906102da91906144e1565b610b25565b005b3480156102ed57600080fd5b5061030860048036038101906103039190614521565b610bc7565b604051610315919061455d565b60405180910390f35b34801561032a57600080fd5b50610345600480360381019061034091906145b1565b610bdf565b604051610352919061455d565b60405180910390f35b34801561036757600080fd5b50610382600480360381019061037d9190614643565b610c11565b005b34801561039057600080fd5b50610399610cd7565b6040516103a691906146c2565b60405180910390f35b3480156103bb57600080fd5b506103c4610ced565b6040516103d1919061455d565b60405180910390f35b3480156103e657600080fd5b5061040160048036038101906103fc91906146dd565b610cf3565b005b34801561040f57600080fd5b5061042a60048036038101906104259190614521565b610d3b565b60405161043791906146c2565b60405180910390f35b34801561044c57600080fd5b50610467600480360381019061046291906147c6565b610d5e565b005b34801561047557600080fd5b5061047e610e40565b005b34801561048c57600080fd5b506104a760048036038101906104a29190614859565b610f84565b6040516104b491906148b4565b60405180910390f35b3480156104c957600080fd5b506104d2610fb3565b6040516104df91906148de565b60405180910390f35b3480156104f457600080fd5b5061050f600480360381019061050a91906144e1565b610fb9565b60405161051e93929190614970565b60405180910390f35b34801561053357600080fd5b5061053c61102d565b604051610549919061447c565b60405180910390f35b34801561055e57600080fd5b5061057960048036038101906105749190614521565b611053565b005b34801561058757600080fd5b506105a2600480360381019061059d91906149a7565b61119d565b6040516105af91906148b4565b60405180910390f35b3480156105c457600080fd5b506105cd6111bd565b005b3480156105db57600080fd5b506105f660048036038101906105f191906149a7565b611354565b60405161060391906148b4565b60405180910390f35b61062660048036038101906106219190614521565b611374565b005b34801561063457600080fd5b5061064f600480360381019061064a9190614a2a565b611a53565b005b61066b60048036038101906106669190614c2c565b611b0f565b005b34801561067957600080fd5b506106826120fc565b60405161068f919061455d565b60405180910390f35b3480156106a457600080fd5b506106ad612102565b6040516106ba919061447c565b60405180910390f35b3480156106cf57600080fd5b506106ea60048036038101906106e59190614cd5565b61212c565b005b3480156106f857600080fd5b50610713600480360381019061070e9190614d02565b61230d565b604051610720919061455d565b60405180910390f35b34801561073557600080fd5b50610750600480360381019061074b9190614859565b612332565b005b34801561075e57600080fd5b5061076761282e565b604051610774919061455d565b60405180910390f35b34801561078957600080fd5b50610792612834565b60405161079f9190614da1565b60405180910390f35b3480156107b457600080fd5b506107bd61285a565b6040516107ca9190614ddd565b60405180910390f35b3480156107df57600080fd5b506107fa60048036038101906107f591906146dd565b612880565b005b34801561080857600080fd5b506108116128c8565b60405161081e9190614e07565b60405180910390f35b34801561083357600080fd5b5061084e60048036038101906108499190614cd5565b6128dc565b005b34801561085c57600080fd5b5061087760048036038101906108729190614521565b612a36565b6040516108849190614ee0565b60405180910390f35b34801561089957600080fd5b506108b460048036038101906108af9190614521565b612ada565b6040516108cc9c9b9a99989796959493929190614f90565b60405180910390f35b3480156108e157600080fd5b506108fc60048036038101906108f79190615051565b612c39565b005b34801561090a57600080fd5b50610913612e4b565b604051610920919061455d565b60405180910390f35b34801561093557600080fd5b50610950600480360381019061094b91906145b1565b612e51565b60405161095d919061455d565b60405180910390f35b34801561097257600080fd5b5061098d60048036038101906109889190614521565b612e90565b60405161099a91906151c0565b60405180910390f35b3480156109af57600080fd5b506109ca60048036038101906109c591906151e2565b612f9d565b005b3480156109d857600080fd5b506109f360048036038101906109ee9190615051565b613174565b005b348015610a0157600080fd5b50610a1c6004803603810190610a179190614521565b6131cc565b005b348015610a2a57600080fd5b50610a456004803603810190610a409190614cd5565b6134d3565b604051610a5291906148b4565b60405180910390f35b348015610a6757600080fd5b50610a826004803603810190610a7d9190614521565b6134f3565b005b348015610a9057600080fd5b50610aab6004803603810190610aa69190614cd5565b613723565b005b348015610ab957600080fd5b50610ad46004803603810190610acf9190614cd5565b613866565b005b348015610ae257600080fd5b50610afd6004803603810190610af89190614cd5565b61387a565b005b600860009054906101000a900473ffffffffffffffffffffffffffffffffffffffff1681565b600860009054906101000a900473ffffffffffffffffffffffffffffffffffffffff1673ffffffffffffffffffffffffffffffffffffffff163373ffffffffffffffffffffffffffffffffffffffff1614610bb5576040517f08c379a0000000000000000000000000000000000000000000000000000000008152600401610bac90615292565b60405180910390fd5b81600581905550806006819055505050565b60146020528060005260406000206000915090505481565b60008060008360ff1614610bf35782610bf6565b60ff5b60ff16905080600654610c0991906152e1565b915050919050565b600360009054906101000a900473ffffffffffffffffffffffffffffffffffffffff1673ffffffffffffffffffffffffffffffffffffffff163373ffffffffffffffffffffffffffffffffffffffff1614610cc75733600360009054906101000a900473ffffffffffffffffffffffffffffffffffffffff166040517f1cf993f4000000000000000000000000000000000000000000000000000000008152600401610cbe929190615323565b60405180910390fd5b610cd28383836139bd565b505050565b600c60029054906101000a900463ffffffff1681565b60055481565b60005b82829050811015610d3657610d23838383818110610d1757610d1661534c565b5b905060200201356131cc565b8080610d2e9061537b565b915050610cf6565b505050565b60156020528060005260406000206000915054906101000a900463ffffffff1681565b600860009054906101000a900473ffffffffffffffffffffffffffffffffffffffff1673ffffffffffffffffffffffffffffffffffffffff163373ffffffffffffffffffffffffffffffffffffffff1614610dee576040517f08c379a0000000000000000000000000000000000000000000000000000000008152600401610de590615292565b60405180910390fd5b83600a8190555082600b8190555081600c60006101000a81548161ffff021916908361ffff16021790555080600c60026101000a81548163ffffffff021916908363ffffffff16021790555050505050565b600860009054906101000a900473ffffffffffffffffffffffffffffffffffffffff1673ffffffffffffffffffffffffffffffffffffffff163373ffffffffffffffffffffffffffffffffffffffff1614610ed0576040517f08c379a0000000000000000000000000000000000000000000000000000000008152600401610ec790615292565b60405180910390fd5b600047905060008111610f18576040517f08c379a0000000000000000000000000000000000000000000000000000000008152600401610f0f9061540f565b60405180910390fd5b600760009054906101000a900473ffffffffffffffffffffffffffffffffffffffff1673ffffffffffffffffffffffffffffffffffffffff166108fc829081150290604051600060405180830381858888f19350505050158015610f80573d6000803e3d6000fd5b5050565b60116020528160005260406000206020528060005260406000206000915091509054906101000a900460ff1681565b600a5481565b60126020528160005260406000208181548110610fd557600080fd5b9060005260206000209060030201600091509150508060000160009054906101000a900473ffffffffffffffffffffffffffffffffffffffff16908060010154908060020160009054906101000a900460ff16905083565b600760009054906101000a900473ffffffffffffffffffffffffffffffffffffffff1681565b6012600082815260200190815260200160002060405180606001604052803373ffffffffffffffffffffffffffffffffffffffff168152602001428152602001600060028111156110a7576110a66148f9565b5b815250908060018154018082558091505060019003906000526020600020906003020160009091909190915060008201518160000160006101000a81548173ffffffffffffffffffffffffffffffffffffffff021916908373ffffffffffffffffffffffffffffffffffffffff1602179055506020820151816001015560408201518160020160006101000a81548160ff0219169083600281111561114f5761114e6148f9565b5b021790555050503373ffffffffffffffffffffffffffffffffffffffff16817f14a1608330df21406b2c36c4c92e47f22c9abd31d9df75abc4af2bdb477469bb60405160405180910390a350565b600f6020528060005260406000206000915054906101000a900460ff1681565b600260009054906101000a900473ffffffffffffffffffffffffffffffffffffffff1673ffffffffffffffffffffffffffffffffffffffff163373ffffffffffffffffffffffffffffffffffffffff161461124d576040517f08c379a00000000000000000000000000000000000000000000000000000000081526004016112449061547b565b60405180910390fd5b6000600160009054906101000a900473ffffffffffffffffffffffffffffffffffffffff16905033600160006101000a81548173ffffffffffffffffffffffffffffffffffffffff021916908373ffffffffffffffffffffffffffffffffffffffff1602179055506000600260006101000a81548173ffffffffffffffffffffffffffffffffffffffff021916908373ffffffffffffffffffffffffffffffffffffffff1602179055503373ffffffffffffffffffffffffffffffffffffffff168173ffffffffffffffffffffffffffffffffffffffff167f8be0079c531659141344cd1fd0a4f28419497f9722a3daafe3b4186f6b6457e060405160405180910390a350565b600e6020528060005260406000206000915054906101000a900460ff1681565b6002600054036113b9576040517f08c379a00000000000000000000000000000000000000000000000000000000081526004016113b0906154e7565b60405180910390fd5b60026000819055506000600d60008381526020019081526020016000209050600081600501540361142157816040517f017e57a1000000000000000000000000000000000000000000000000000000008152600401611418919061455d565b60405180910390fd5b8060040154421061146f578060040154426040517f8868888c000000000000000000000000000000000000000000000000000000008152600401611466929190615507565b60405180910390fd5b8060090160019054906101000a900460ff1660ff1681600a0180549050101580156114af575060008160090160019054906101000a900460ff1660ff1614155b15611502578060090160019054906101000a900460ff166040517f969559d50000000000000000000000000000000000000000000000000000000081526004016114f99190615530565b60405180910390fd5b6011600083815260200190815260200160002060003373ffffffffffffffffffffffffffffffffffffffff1673ffffffffffffffffffffffffffffffffffffffff16815260200190815260200160002060009054906101000a900460ff1615801561157c575080600b0160009054906101000a900460ff16155b156115c05733826040517f8626cc030000000000000000000000000000000000000000000000000000000081526004016115b792919061554b565b60405180910390fd5b6000828260030160009054906101000a900463ffffffff16336040516020016115eb93929190615613565b604051602081830303815290604052805190602001209050600e600082815260200190815260200160002060009054906101000a900460ff161561167e57828260030160009054906101000a900463ffffffff16336040517f0beb1aac00000000000000000000000000000000000000000000000000000000815260040161167593929190615650565b60405180910390fd5b60008260030160009054906101000a900463ffffffff1663ffffffff160361182f5781600901600081819054906101000a900460ff16809291906116c190615687565b91906101000a81548160ff021916908360ff1602179055505060006116f68360090160019054906101000a900460ff16610bdf565b90508034101561173f5734816040517f155fd467000000000000000000000000000000000000000000000000000000008152600401611736929190615507565b60405180910390fd5b600760009054906101000a900473ffffffffffffffffffffffffffffffffffffffff1673ffffffffffffffffffffffffffffffffffffffff166108fc829081150290604051600060405180830381858888f193505050501580156117a7573d6000803e3d6000fd5b50803411156118295760003373ffffffffffffffffffffffffffffffffffffffff1682346117d591906156b0565b6040516117e190615715565b60006040518083038185875af1925050503d806000811461181e576040519150601f19603f3d011682016040523d82523d6000602084013e611823565b606091505b50509050505b506118de565b600e60008460018560030160009054906101000a900463ffffffff16611855919061572a565b3360405160200161186893929190615613565b60405160208183030381529060405280519060200120815260200190815260200160002060009054906101000a900460ff166118dd5733836040517f8626cc030000000000000000000000000000000000000000000000000000000081526004016118d492919061554b565b60405180910390fd5b5b611933333084600701548560060160009054906101000a900473ffffffffffffffffffffffffffffffffffffffff1673ffffffffffffffffffffffffffffffffffffffff16613e19909392919063ffffffff16565b816007015482600501600082825461194b9190615762565b9250508190555081600a01339080600181540180825580915050600190039060005260206000200160009091909190916101000a81548173ffffffffffffffffffffffffffffffffffffffff021916908373ffffffffffffffffffffffffffffffffffffffff1602179055506001600e600083815260200190815260200160002060006101000a81548160ff0219169083151502179055503373ffffffffffffffffffffffffffffffffffffffff16837f672d3f5897f7a8042cd8c8557caf58ece26929a410c3b1a66a34ccfd3460fcde8460030160009054906101000a900463ffffffff16604051611a3e91906146c2565b60405180910390a35050600160008190555050565b818190508585905014611a9b576040517f08c379a0000000000000000000000000000000000000000000000000000000008152600401611a92906157e2565b60405180910390fd5b60005b82829050811015611b0757611af4868683818110611abf57611abe61534c565b5b9050602002016020810190611ad49190614cd5565b85858585818110611ae857611ae761534c565b5b90506020020135612f9d565b8080611aff9061537b565b915050611a9e565b505050505050565b600260005403611b54576040517f08c379a0000000000000000000000000000000000000000000000000000000008152600401611b4b906154e7565b60405180910390fd5b600260008190555060008403611b96576040517f172bb87f00000000000000000000000000000000000000000000000000000000815260040160405180910390fd5b610e10821015611bd2576040517f9306857800000000000000000000000000000000000000000000000000000000815260040160405180910390fd5b601060008673ffffffffffffffffffffffffffffffffffffffff1673ffffffffffffffffffffffffffffffffffffffff16815260200190815260200160002060009054906101000a900460ff16611c6057846040517f94403b70000000000000000000000000000000000000000000000000000000008152600401611c57919061447c565b60405180910390fd5b600060046000815480929190611c759061537b565b9190505590506000600d60008381526020019081526020016000209050818160000181905550338160010160006101000a81548173ffffffffffffffffffffffffffffffffffffffff021916908373ffffffffffffffffffffffffffffffffffffffff16021790555087816002019081611cef9190615a04565b50868160060160006101000a81548173ffffffffffffffffffffffffffffffffffffffff021916908373ffffffffffffffffffffffffffffffffffffffff16021790555085816007018190555083816008018190555060018160090160006101000a81548160ff021916908360ff1602179055508342611d6f9190615762565b816004018190555085816005018190555080600a01339080600181540180825580915050600190039060005260206000200160009091909190916101000a81548173ffffffffffffffffffffffffffffffffffffffff021916908373ffffffffffffffffffffffffffffffffffffffff1602179055508281600b0160006101000a81548160ff021916908315150217905550848160090160016101000a81548160ff021916908360ff16021790555082611e8d5760016011600084815260200190815260200160002060003373ffffffffffffffffffffffffffffffffffffffff1673ffffffffffffffffffffffffffffffffffffffff16815260200190815260200160002060006101000a81548160ff0219169083151502179055505b600082600033604051602001611ea593929190615613565b6040516020818303038152906040528051906020012090506001600e600083815260200190815260200160002060006101000a81548160ff021916908315150217905550611f163330898b73ffffffffffffffffffffffffffffffffffffffff16613e19909392919063ffffffff16565b6000611f2187612e51565b905080341015611f6a5734816040517f155fd467000000000000000000000000000000000000000000000000000000008152600401611f61929190615507565b60405180910390fd5b600760009054906101000a900473ffffffffffffffffffffffffffffffffffffffff1673ffffffffffffffffffffffffffffffffffffffff166108fc829081150290604051600060405180830381858888f19350505050158015611fd2573d6000803e3d6000fd5b50803411156120545760003373ffffffffffffffffffffffffffffffffffffffff16823461200091906156b0565b60405161200c90615715565b60006040518083038185875af1925050503d8060008114612049576040519150601f19603f3d011682016040523d82523d6000602084013e61204e565b606091505b50509050505b3373ffffffffffffffffffffffffffffffffffffffff16847fde307469e0906e8d7a6e84aec39b533cfe12dd01b2737a0f785511261337231760405160405180910390a33373ffffffffffffffffffffffffffffffffffffffff16847f672d3f5897f7a8042cd8c8557caf58ece26929a410c3b1a66a34ccfd3460fcde60006040516120e09190615b11565b60405180910390a3505050506001600081905550505050505050565b600b5481565b6000600160009054906101000a900473ffffffffffffffffffffffffffffffffffffffff16905090565b612134612102565b73ffffffffffffffffffffffffffffffffffffffff163373ffffffffffffffffffffffffffffffffffffffff16141580156121bd5750600360009054906101000a900473ffffffffffffffffffffffffffffffffffffffff1673ffffffffffffffffffffffffffffffffffffffff163373ffffffffffffffffffffffffffffffffffffffff1614155b1561222c57336121cb612102565b600360009054906101000a900473ffffffffffffffffffffffffffffffffffffffff166040517f061db9c100000000000000000000000000000000000000000000000000000000815260040161222393929190615b2c565b60405180910390fd5b600073ffffffffffffffffffffffffffffffffffffffff168173ffffffffffffffffffffffffffffffffffffffff1603612292576040517fd92e233d00000000000000000000000000000000000000000000000000000000815260040160405180910390fd5b80600360006101000a81548173ffffffffffffffffffffffffffffffffffffffff021916908373ffffffffffffffffffffffffffffffffffffffff1602179055507fd1a6a14209a385a964d036e404cb5cfb71f4000cdb03c9366292430787261be681604051612302919061447c565b60405180910390a150565b6013602052816000526040600020602052806000526040600020600091509150505481565b600260005403612377576040517f08c379a000000000000000000000000000000000000000000000000000000000815260040161236e906154e7565b60405180910390fd5b60026000819055506000600d6000848152602001908152602001600020905060008160050154036123df57826040517f017e57a10000000000000000000000000000000000000000000000000000000081526004016123d6919061455d565b60405180910390fd5b8060040154421061242d578060040154426040517f8868888c000000000000000000000000000000000000000000000000000000008152600401612424929190615507565b60405180910390fd5b6011600084815260200190815260200160002060008373ffffffffffffffffffffffffffffffffffffffff1673ffffffffffffffffffffffffffffffffffffffff16815260200190815260200160002060009054906101000a900460ff161580156124a7575080600b0160009054906101000a900460ff16155b156124eb5781836040517f8626cc030000000000000000000000000000000000000000000000000000000081526004016124e292919061554b565b60405180910390fd5b60008160030160009054906101000a900463ffffffff1663ffffffff160361254c5733836040517f8626cc0300000000000000000000000000000000000000000000000000000000815260040161254392919061554b565b60405180910390fd5b600e60008460018460030160009054906101000a900463ffffffff16612572919061572a565b8560405160200161258593929190615613565b60405160208183030381529060405280519060200120815260200190815260200160002060009054906101000a900460ff166125fa5781836040517f8626cc030000000000000000000000000000000000000000000000000000000081526004016125f192919061554b565b60405180910390fd5b6000838260030160009054906101000a900463ffffffff168460405160200161262593929190615613565b604051602081830303815290604052805190602001209050600e600082815260200190815260200160002060009054906101000a900460ff16156126b857838260030160009054906101000a900463ffffffff16846040517f0beb1aac0000000000000000000000000000000000000000000000000000000081526004016126af93929190615650565b60405180910390fd5b81600701548260050160008282546126d09190615762565b9250508190555081600a01839080600181540180825580915050600190039060005260206000200160009091909190916101000a81548173ffffffffffffffffffffffffffffffffffffffff021916908373ffffffffffffffffffffffffffffffffffffffff1602179055506001600e600083815260200190815260200160002060006101000a81548160ff0219169083151502179055506127bd833084600701548560060160009054906101000a900473ffffffffffffffffffffffffffffffffffffffff1673ffffffffffffffffffffffffffffffffffffffff16613e19909392919063ffffffff16565b8273ffffffffffffffffffffffffffffffffffffffff16847f672d3f5897f7a8042cd8c8557caf58ece26929a410c3b1a66a34ccfd3460fcde8460030160009054906101000a900463ffffffff1660405161281891906146c2565b60405180910390a3505060016000819055505050565b60065481565b600360009054906101000a900473ffffffffffffffffffffffffffffffffffffffff1681565b600960009054906101000a900473ffffffffffffffffffffffffffffffffffffffff1681565b60005b828290508110156128c3576128b08383838181106128a4576128a361534c565b5b905060200201356134f3565b80806128bb9061537b565b915050612883565b505050565b600c60009054906101000a900461ffff1681565b600860009054906101000a900473ffffffffffffffffffffffffffffffffffffffff1673ffffffffffffffffffffffffffffffffffffffff163373ffffffffffffffffffffffffffffffffffffffff161461296c576040517f08c379a000000000000000000000000000000000000000000000000000000000815260040161296390615292565b60405180910390fd5b600073ffffffffffffffffffffffffffffffffffffffff168173ffffffffffffffffffffffffffffffffffffffff16036129db576040517f08c379a00000000000000000000000000000000000000000000000000000000081526004016129d290615baf565b60405180910390fd5b6001601060008373ffffffffffffffffffffffffffffffffffffffff1673ffffffffffffffffffffffffffffffffffffffff16815260200190815260200160002060006101000a81548160ff02191690831515021790555050565b6060600d6000838152602001908152602001600020600a01805480602002602001604051908101604052809291908181526020018280548015612ace57602002820191906000526020600020905b8160009054906101000a900473ffffffffffffffffffffffffffffffffffffffff1673ffffffffffffffffffffffffffffffffffffffff1681526020019060010190808311612a84575b50505050509050919050565b600d6020528060005260406000206000915090508060000154908060010160009054906101000a900473ffffffffffffffffffffffffffffffffffffffff1690806002018054612b2990615831565b80601f0160208091040260200160405190810160405280929190818152602001828054612b5590615831565b8015612ba25780601f10612b7757610100808354040283529160200191612ba2565b820191906000526020600020905b815481529060010190602001808311612b8557829003601f168201915b5050505050908060030160009054906101000a900463ffffffff16908060040154908060050154908060060160009054906101000a900473ffffffffffffffffffffffffffffffffffffffff16908060070154908060080154908060090160009054906101000a900460ff16908060090160019054906101000a900460ff169080600b0160009054906101000a900460ff1690508c565b6000600d600085815260200190815260200160002090508060010160009054906101000a900473ffffffffffffffffffffffffffffffffffffffff1673ffffffffffffffffffffffffffffffffffffffff163373ffffffffffffffffffffffffffffffffffffffff1614612ce65733846040517f3872341e000000000000000000000000000000000000000000000000000000008152600401612cdd92919061554b565b60405180910390fd5b60005b83839050811015612e44576000848483818110612d0957612d0861534c565b5b9050602002016020810190612d1e9190614cd5565b90506011600087815260200190815260200160002060008273ffffffffffffffffffffffffffffffffffffffff1673ffffffffffffffffffffffffffffffffffffffff16815260200190815260200160002060009054906101000a900460ff16612e305760016011600088815260200190815260200160002060008373ffffffffffffffffffffffffffffffffffffffff1673ffffffffffffffffffffffffffffffffffffffff16815260200190815260200160002060006101000a81548160ff0219169083151502179055508073ffffffffffffffffffffffffffffffffffffffff16867f1a93957e2514306f9c62a03c9d38f41d87e9192c4bff4ba40eb834d92c6c728060405160405180910390a35b508080612e3c9061537b565b915050612ce9565b5050505050565b60045481565b60008060008360ff1614612e655782612e68565b60ff5b60ff16905080600654612e7b91906152e1565b600554612e889190615762565b915050919050565b606060126000838152602001908152602001600020805480602002602001604051908101604052809291908181526020016000905b82821015612f9257838290600052602060002090600302016040518060600160405290816000820160009054906101000a900473ffffffffffffffffffffffffffffffffffffffff1673ffffffffffffffffffffffffffffffffffffffff1673ffffffffffffffffffffffffffffffffffffffff168152602001600182015481526020016002820160009054906101000a900460ff166002811115612f6d57612f6c6148f9565b5b6002811115612f7f57612f7e6148f9565b5b8152505081526020019060010190612ec5565b505050509050919050565b600260005403612fe2576040517f08c379a0000000000000000000000000000000000000000000000000000000008152600401612fd9906154e7565b60405180910390fd5b600260008190555080601360008573ffffffffffffffffffffffffffffffffffffffff1673ffffffffffffffffffffffffffffffffffffffff16815260200190815260200160002060008473ffffffffffffffffffffffffffffffffffffffff1673ffffffffffffffffffffffffffffffffffffffff1681526020019081526020016000205410156130a9576040517f08c379a00000000000000000000000000000000000000000000000000000000081526004016130a090615c1b565b60405180910390fd5b80601360008573ffffffffffffffffffffffffffffffffffffffff1673ffffffffffffffffffffffffffffffffffffffff16815260200190815260200160002060008473ffffffffffffffffffffffffffffffffffffffff1673ffffffffffffffffffffffffffffffffffffffff168152602001908152602001600020600082825461313591906156b0565b9250508190555061316783828473ffffffffffffffffffffffffffffffffffffffff16613ea29092919063ffffffff16565b6001600081905550505050565b60005b828290508110156131c6576131b3848484848181106131995761319861534c565b5b90506020020160208101906131ae9190614cd5565b612332565b80806131be9061537b565b915050613177565b50505050565b6000600d60008381526020019081526020016000209050600081600501540361322c57816040517f017e57a1000000000000000000000000000000000000000000000000000000008152600401613223919061455d565b60405180910390fd5b806004015442101561327b578060040154426040517f3bd40433000000000000000000000000000000000000000000000000000000008152600401613272929190615507565b60405180910390fd5b60005b81600a018054905081101561336a57600f60008484600a0184815481106132a8576132a761534c565b5b9060005260206000200160009054906101000a900473ffffffffffffffffffffffffffffffffffffffff166040516020016132e4929190615c3b565b60405160208183030381529060405280519060200120815260200190815260200160002060009054906101000a900460ff1661335757826040517fd2471cf800000000000000000000000000000000000000000000000000000000815260040161334e919061455d565b60405180910390fd5b80806133629061537b565b91505061327e565b506000816005018190555060008160060160009054906101000a900473ffffffffffffffffffffffffffffffffffffffff16905060008260070154905060005b83600a018054905081101561349f57816013600086600a0184815481106133d4576133d361534c565b5b9060005260206000200160009054906101000a900473ffffffffffffffffffffffffffffffffffffffff1673ffffffffffffffffffffffffffffffffffffffff1673ffffffffffffffffffffffffffffffffffffffff16815260200190815260200160002060008573ffffffffffffffffffffffffffffffffffffffff1673ffffffffffffffffffffffffffffffffffffffff16815260200190815260200160002060008282546134859190615762565b9250508190555080806134979061537b565b9150506133aa565b50837f09f73e7c1cfe948731316069115856105587fb9681d754a0037165a8a8cfe1f760405160405180910390a250505050565b60106020528060005260406000206000915054906101000a900460ff1681565b6000600d60008381526020019081526020016000209050600081600501540361355357816040517f017e57a100000000000000000000000000000000000000000000000000000000815260040161354a919061455d565b60405180910390fd5b80600401544210156135a2578060040154426040517f3bd40433000000000000000000000000000000000000000000000000000000008152600401613599929190615507565b60405180910390fd5b6000600960009054906101000a900473ffffffffffffffffffffffffffffffffffffffff1673ffffffffffffffffffffffffffffffffffffffff16639b1c385e6040518060c00160405280600a548152602001600b548152602001600c60009054906101000a900461ffff1661ffff168152602001600c60029054906101000a900463ffffffff1663ffffffff168152602001600163ffffffff16815260200161365c604051806020016040528060011515815250613f28565b8152506040518263ffffffff1660e01b815260040161367b9190615d67565b6020604051808303816000875af115801561369a573d6000803e3d6000fd5b505050506040513d601f19601f820116820180604052508101906136be9190615d9e565b90508260146000838152602001908152602001600020819055508160030160009054906101000a900463ffffffff166015600083815260200190815260200160002060006101000a81548163ffffffff021916908363ffffffff160217905550505050565b600860009054906101000a900473ffffffffffffffffffffffffffffffffffffffff1673ffffffffffffffffffffffffffffffffffffffff163373ffffffffffffffffffffffffffffffffffffffff16146137b3576040517f08c379a00000000000000000000000000000000000000000000000000000000081526004016137aa90615292565b60405180910390fd5b600073ffffffffffffffffffffffffffffffffffffffff168173ffffffffffffffffffffffffffffffffffffffff1603613822576040517f08c379a000000000000000000000000000000000000000000000000000000000815260040161381990615e17565b60405180910390fd5b80600760006101000a81548173ffffffffffffffffffffffffffffffffffffffff021916908373ffffffffffffffffffffffffffffffffffffffff16021790555050565b61386e613fc0565b61387781614052565b50565b600860009054906101000a900473ffffffffffffffffffffffffffffffffffffffff1673ffffffffffffffffffffffffffffffffffffffff163373ffffffffffffffffffffffffffffffffffffffff161461390a576040517f08c379a000000000000000000000000000000000000000000000000000000000815260040161390190615292565b60405180910390fd5b600073ffffffffffffffffffffffffffffffffffffffff168173ffffffffffffffffffffffffffffffffffffffff1603613979576040517f08c379a000000000000000000000000000000000000000000000000000000000815260040161397090615e83565b60405180910390fd5b80600960006101000a81548173ffffffffffffffffffffffffffffffffffffffff021916908373ffffffffffffffffffffffffffffffffffffffff16021790555050565b60006014600085815260200190815260200160002054905060006015600086815260200190815260200160002060009054906101000a900463ffffffff1690506000600d60008481526020019081526020016000209050600081600a0180549050905060008187876000818110613a3757613a3661534c565b5b90506020020135613a489190615ed2565b9050600083600a018281548110613a6257613a6161534c565b5b9060005260206000200160009054906101000a900473ffffffffffffffffffffffffffffffffffffffff1690506001600f60008884604051602001613aa8929190615c3b565b60405160208183030381529060405280519060200120815260200190815260200160002060006101000a81548160ff021916908315150217905550600060018560090160009054906101000a900460ff16613b039190615f03565b60ff168663ffffffff1614613b1c578460070154613b1f565b60005b90506000818660050154613b3391906156b0565b90508273ffffffffffffffffffffffffffffffffffffffff16887fc2518a56896ff30efc4b0de222d91241ad29d5e347b5dc1465e1f28bbc6c4ac2838a604051613b7e929190615f38565b60405180910390a380601360008573ffffffffffffffffffffffffffffffffffffffff1673ffffffffffffffffffffffffffffffffffffffff16815260200190815260200160002060008860060160009054906101000a900473ffffffffffffffffffffffffffffffffffffffff1673ffffffffffffffffffffffffffffffffffffffff1673ffffffffffffffffffffffffffffffffffffffff1681526020019081526020016000206000828254613c369190615762565b9250508190555060018660090160009054906101000a900460ff16613c5b9190615f03565b60ff168763ffffffff1603613c795760008660050181905550613e0c565b600187613c869190615f61565b8660030160006101000a81548163ffffffff021916908363ffffffff16021790555081866005018190555085600a016000613cc191906143fd565b85600a01839080600181540180825580915050600190039060005260206000200160009091909190916101000a81548173ffffffffffffffffffffffffffffffffffffffff021916908373ffffffffffffffffffffffffffffffffffffffff1602179055506001600e60008a8960030160009054906101000a900463ffffffff1687604051602001613d5593929190615613565b60405160208183030381529060405280519060200120815260200190815260200160002060006101000a81548160ff0219169083151502179055508273ffffffffffffffffffffffffffffffffffffffff16887f672d3f5897f7a8042cd8c8557caf58ece26929a410c3b1a66a34ccfd3460fcde8860030160009054906101000a900463ffffffff16604051613deb91906146c2565b60405180910390a3856008015442613e039190615762565b86600401819055505b5050505050505050505050565b613e9c846323b872dd60e01b858585604051602401613e3a93929190615f99565b604051602081830303815290604052907bffffffffffffffffffffffffffffffffffffffffffffffffffffffff19166020820180517bffffffffffffffffffffffffffffffffffffffffffffffffffffffff8381831617835250505050614180565b50505050565b613f238363a9059cbb60e01b8484604051602401613ec192919061554b565b604051602081830303815290604052907bffffffffffffffffffffffffffffffffffffffffffffffffffffffff19166020820180517bffffffffffffffffffffffffffffffffffffffffffffffffffffffff8381831617835250505050614180565b505050565b60607f92fd13387c7fe7befbc38d303d6468778fb9731bc4583f17d92989c6fcfdeaaa82604051602401613f5c9190615ffb565b604051602081830303815290604052907bffffffffffffffffffffffffffffffffffffffffffffffffffffffff19166020820180517bffffffffffffffffffffffffffffffffffffffffffffffffffffffff83818316178352505050509050919050565b600160009054906101000a900473ffffffffffffffffffffffffffffffffffffffff1673ffffffffffffffffffffffffffffffffffffffff163373ffffffffffffffffffffffffffffffffffffffff1614614050576040517f08c379a000000000000000000000000000000000000000000000000000000000815260040161404790616062565b60405180910390fd5b565b3373ffffffffffffffffffffffffffffffffffffffff168173ffffffffffffffffffffffffffffffffffffffff16036140c0576040517f08c379a00000000000000000000000000000000000000000000000000000000081526004016140b7906160ce565b60405180910390fd5b80600260006101000a81548173ffffffffffffffffffffffffffffffffffffffff021916908373ffffffffffffffffffffffffffffffffffffffff1602179055508073ffffffffffffffffffffffffffffffffffffffff16600160009054906101000a900473ffffffffffffffffffffffffffffffffffffffff1673ffffffffffffffffffffffffffffffffffffffff167fed8889f560326eb138920d842192f0eb3dd22b4f139c87a2c57538e05bae127860405160405180910390a350565b60006141e2826040518060400160405280602081526020017f5361666545524332303a206c6f772d6c6576656c2063616c6c206661696c65648152508573ffffffffffffffffffffffffffffffffffffffff166142479092919063ffffffff16565b905060008151111561424257808060200190518101906142029190616103565b614241576040517f08c379a0000000000000000000000000000000000000000000000000000000008152600401614238906161a2565b60405180910390fd5b5b505050565b6060614256848460008561425f565b90509392505050565b6060824710156142a4576040517f08c379a000000000000000000000000000000000000000000000000000000000815260040161429b90616234565b60405180910390fd5b6142ad85614373565b6142ec576040517f08c379a00000000000000000000000000000000000000000000000000000000081526004016142e3906162a0565b60405180910390fd5b6000808673ffffffffffffffffffffffffffffffffffffffff16858760405161431591906162f1565b60006040518083038185875af1925050503d8060008114614352576040519150601f19603f3d011682016040523d82523d6000602084013e614357565b606091505b5091509150614367828286614396565b92505050949350505050565b6000808273ffffffffffffffffffffffffffffffffffffffff163b119050919050565b606083156143a6578290506143f6565b6000835111156143b95782518084602001fd5b816040517f08c379a00000000000000000000000000000000000000000000000000000000081526004016143ed919061634c565b60405180910390fd5b9392505050565b508054600082559060005260206000209081019061441b919061441e565b50565b5b8082111561443757600081600090555060010161441f565b5090565b600073ffffffffffffffffffffffffffffffffffffffff82169050919050565b60006144668261443b565b9050919050565b6144768161445b565b82525050565b6000602082019050614491600083018461446d565b92915050565b6000604051905090565b600080fd5b600080fd5b6000819050919050565b6144be816144ab565b81146144c957600080fd5b50565b6000813590506144db816144b5565b92915050565b600080604083850312156144f8576144f76144a1565b5b6000614506858286016144cc565b9250506020614517858286016144cc565b9150509250929050565b600060208284031215614537576145366144a1565b5b6000614545848285016144cc565b91505092915050565b614557816144ab565b82525050565b6000602082019050614572600083018461454e565b92915050565b600060ff82169050919050565b61458e81614578565b811461459957600080fd5b50565b6000813590506145ab81614585565b92915050565b6000602082840312156145c7576145c66144a1565b5b60006145d58482850161459c565b91505092915050565b600080fd5b600080fd5b600080fd5b60008083601f840112614603576146026145de565b5b8235905067ffffffffffffffff8111156146205761461f6145e3565b5b60208301915083602082028301111561463c5761463b6145e8565b5b9250929050565b60008060006040848603121561465c5761465b6144a1565b5b600061466a868287016144cc565b935050602084013567ffffffffffffffff81111561468b5761468a6144a6565b5b614697868287016145ed565b92509250509250925092565b600063ffffffff82169050919050565b6146bc816146a3565b82525050565b60006020820190506146d760008301846146b3565b92915050565b600080602083850312156146f4576146f36144a1565b5b600083013567ffffffffffffffff811115614712576147116144a6565b5b61471e858286016145ed565b92509250509250929050565b6000819050919050565b61473d8161472a565b811461474857600080fd5b50565b60008135905061475a81614734565b92915050565b600061ffff82169050919050565b61477781614760565b811461478257600080fd5b50565b6000813590506147948161476e565b92915050565b6147a3816146a3565b81146147ae57600080fd5b50565b6000813590506147c08161479a565b92915050565b600080600080608085870312156147e0576147df6144a1565b5b60006147ee8782880161474b565b94505060206147ff878288016144cc565b935050604061481087828801614785565b9250506060614821878288016147b1565b91505092959194509250565b6148368161445b565b811461484157600080fd5b50565b6000813590506148538161482d565b92915050565b600080604083850312156148705761486f6144a1565b5b600061487e858286016144cc565b925050602061488f85828601614844565b9150509250929050565b60008115159050919050565b6148ae81614899565b82525050565b60006020820190506148c960008301846148a5565b92915050565b6148d88161472a565b82525050565b60006020820190506148f360008301846148cf565b92915050565b7f4e487b7100000000000000000000000000000000000000000000000000000000600052602160045260246000fd5b60038110614939576149386148f9565b5b50565b600081905061494a82614928565b919050565b600061495a8261493c565b9050919050565b61496a8161494f565b82525050565b6000606082019050614985600083018661446d565b614992602083018561454e565b61499f6040830184614961565b949350505050565b6000602082840312156149bd576149bc6144a1565b5b60006149cb8482850161474b565b91505092915050565b60008083601f8401126149ea576149e96145de565b5b8235905067ffffffffffffffff811115614a0757614a066145e3565b5b602083019150836020820283011115614a2357614a226145e8565b5b9250929050565b600080600080600060608688031215614a4657614a456144a1565b5b600086013567ffffffffffffffff811115614a6457614a636144a6565b5b614a70888289016149d4565b95509550506020614a8388828901614844565b935050604086013567ffffffffffffffff811115614aa457614aa36144a6565b5b614ab0888289016145ed565b92509250509295509295909350565b600080fd5b6000601f19601f8301169050919050565b7f4e487b7100000000000000000000000000000000000000000000000000000000600052604160045260246000fd5b614b0d82614ac4565b810181811067ffffffffffffffff82111715614b2c57614b2b614ad5565b5b80604052505050565b6000614b3f614497565b9050614b4b8282614b04565b919050565b600067ffffffffffffffff821115614b6b57614b6a614ad5565b5b614b7482614ac4565b9050602081019050919050565b82818337600083830152505050565b6000614ba3614b9e84614b50565b614b35565b905082815260208101848484011115614bbf57614bbe614abf565b5b614bca848285614b81565b509392505050565b600082601f830112614be757614be66145de565b5b8135614bf7848260208601614b90565b91505092915050565b614c0981614899565b8114614c1457600080fd5b50565b600081359050614c2681614c00565b92915050565b60008060008060008060c08789031215614c4957614c486144a1565b5b600087013567ffffffffffffffff811115614c6757614c666144a6565b5b614c7389828a01614bd2565b9650506020614c8489828a01614844565b9550506040614c9589828a016144cc565b9450506060614ca689828a0161459c565b9350506080614cb789828a016144cc565b92505060a0614cc889828a01614c17565b9150509295509295509295565b600060208284031215614ceb57614cea6144a1565b5b6000614cf984828501614844565b91505092915050565b60008060408385031215614d1957614d186144a1565b5b6000614d2785828601614844565b9250506020614d3885828601614844565b9150509250929050565b6000819050919050565b6000614d67614d62614d5d8461443b565b614d42565b61443b565b9050919050565b6000614d7982614d4c565b9050919050565b6000614d8b82614d6e565b9050919050565b614d9b81614d80565b82525050565b6000602082019050614db66000830184614d92565b92915050565b6000614dc782614d6e565b9050919050565b614dd781614dbc565b82525050565b6000602082019050614df26000830184614dce565b92915050565b614e0181614760565b82525050565b6000602082019050614e1c6000830184614df8565b92915050565b600081519050919050565b600082825260208201905092915050565b6000819050602082019050919050565b614e578161445b565b82525050565b6000614e698383614e4e565b60208301905092915050565b6000602082019050919050565b6000614e8d82614e22565b614e978185614e2d565b9350614ea283614e3e565b8060005b83811015614ed3578151614eba8882614e5d565b9750614ec583614e75565b925050600181019050614ea6565b5085935050505092915050565b60006020820190508181036000830152614efa8184614e82565b905092915050565b600081519050919050565b600082825260208201905092915050565b60005b83811015614f3c578082015181840152602081019050614f21565b60008484015250505050565b6000614f5382614f02565b614f5d8185614f0d565b9350614f6d818560208601614f1e565b614f7681614ac4565b840191505092915050565b614f8a81614578565b82525050565b600061018082019050614fa6600083018f61454e565b614fb3602083018e61446d565b8181036040830152614fc5818d614f48565b9050614fd4606083018c6146b3565b614fe1608083018b61454e565b614fee60a083018a61454e565b614ffb60c083018961446d565b61500860e083018861454e565b61501661010083018761454e565b615024610120830186614f81565b615032610140830185614f81565b6150406101608301846148a5565b9d9c50505050505050505050505050565b60008060006040848603121561506a576150696144a1565b5b6000615078868287016144cc565b935050602084013567ffffffffffffffff811115615099576150986144a6565b5b6150a5868287016149d4565b92509250509250925092565b600081519050919050565b600082825260208201905092915050565b6000819050602082019050919050565b6150e6816144ab565b82525050565b6150f58161494f565b82525050565b6060820160008201516151116000850182614e4e565b50602082015161512460208501826150dd565b50604082015161513760408501826150ec565b50505050565b600061514983836150fb565b60608301905092915050565b6000602082019050919050565b600061516d826150b1565b61517781856150bc565b9350615182836150cd565b8060005b838110156151b357815161519a888261513d565b97506151a583615155565b925050600181019050615186565b5085935050505092915050565b600060208201905081810360008301526151da8184615162565b905092915050565b6000806000606084860312156151fb576151fa6144a1565b5b600061520986828701614844565b935050602061521a86828701614844565b925050604061522b868287016144cc565b9150509250925092565b600082825260208201905092915050565b7f4e6f742074686520706f746c75636b206f776e65720000000000000000000000600082015250565b600061527c601583615235565b915061528782615246565b602082019050919050565b600060208201905081810360008301526152ab8161526f565b9050919050565b7f4e487b7100000000000000000000000000000000000000000000000000000000600052601160045260246000fd5b60006152ec826144ab565b91506152f7836144ab565b9250828202615305816144ab565b9150828204841483151761531c5761531b6152b2565b5b5092915050565b6000604082019050615338600083018561446d565b615345602083018461446d565b9392505050565b7f4e487b7100000000000000000000000000000000000000000000000000000000600052603260045260246000fd5b6000615386826144ab565b91507fffffffffffffffffffffffffffffffffffffffffffffffffffffffffffffffff82036153b8576153b76152b2565b5b600182019050919050565b7f4e6f2062616c616e636520746f20776974686472617700000000000000000000600082015250565b60006153f9601683615235565b9150615404826153c3565b602082019050919050565b60006020820190508181036000830152615428816153ec565b9050919050565b7f4d7573742062652070726f706f736564206f776e657200000000000000000000600082015250565b6000615465601683615235565b91506154708261542f565b602082019050919050565b6000602082019050818103600083015261549481615458565b9050919050565b7f5265656e7472616e637947756172643a207265656e7472616e742063616c6c00600082015250565b60006154d1601f83615235565b91506154dc8261549b565b602082019050919050565b60006020820190508181036000830152615500816154c4565b9050919050565b600060408201905061551c600083018561454e565b615529602083018461454e565b9392505050565b60006020820190506155456000830184614f81565b92915050565b6000604082019050615560600083018561446d565b61556d602083018461454e565b9392505050565b6000819050919050565b61558f61558a826144ab565b615574565b82525050565b60008160e01b9050919050565b60006155ad82615595565b9050919050565b6155c56155c0826146a3565b6155a2565b82525050565b60008160601b9050919050565b60006155e3826155cb565b9050919050565b60006155f5826155d8565b9050919050565b61560d6156088261445b565b6155ea565b82525050565b600061561f828661557e565b60208201915061562f82856155b4565b60048201915061563f82846155fc565b601482019150819050949350505050565b6000606082019050615665600083018661454e565b61567260208301856146b3565b61567f604083018461446d565b949350505050565b600061569282614578565b915060ff82036156a5576156a46152b2565b5b600182019050919050565b60006156bb826144ab565b91506156c6836144ab565b92508282039050818111156156de576156dd6152b2565b5b92915050565b600081905092915050565b50565b60006156ff6000836156e4565b915061570a826156ef565b600082019050919050565b6000615720826156f2565b9150819050919050565b6000615735826146a3565b9150615740836146a3565b9250828203905063ffffffff81111561575c5761575b6152b2565b5b92915050565b600061576d826144ab565b9150615778836144ab565b92508282019050808211156157905761578f6152b2565b5b92915050565b7f4d69736d61746368656420617272617973000000000000000000000000000000600082015250565b60006157cc601183615235565b91506157d782615796565b602082019050919050565b600060208201905081810360008301526157fb816157bf565b9050919050565b7f4e487b7100000000000000000000000000000000000000000000000000000000600052602260045260246000fd5b6000600282049050600182168061584957607f821691505b60208210810361585c5761585b615802565b5b50919050565b60008190508160005260206000209050919050565b60006020601f8301049050919050565b600082821b905092915050565b6000600883026158c47fffffffffffffffffffffffffffffffffffffffffffffffffffffffffffffffff82615887565b6158ce8683615887565b95508019841693508086168417925050509392505050565b60006159016158fc6158f7846144ab565b614d42565b6144ab565b9050919050565b6000819050919050565b61591b836158e6565b61592f61592782615908565b848454615894565b825550505050565b600090565b615944615937565b61594f818484615912565b505050565b5b818110156159735761596860008261593c565b600181019050615955565b5050565b601f8211156159b85761598981615862565b61599284615877565b810160208510156159a1578190505b6159b56159ad85615877565b830182615954565b50505b505050565b600082821c905092915050565b60006159db600019846008026159bd565b1980831691505092915050565b60006159f483836159ca565b9150826002028217905092915050565b615a0d82614f02565b67ffffffffffffffff811115615a2657615a25614ad5565b5b615a308254615831565b615a3b828285615977565b600060209050601f831160018114615a6e5760008415615a5c578287015190505b615a6685826159e8565b865550615ace565b601f198416615a7c86615862565b60005b82811015615aa457848901518255600182019150602085019450602081019050615a7f565b86831015615ac15784890151615abd601f8916826159ca565b8355505b6001600288020188555050505b505050505050565b6000819050919050565b6000615afb615af6615af184615ad6565b614d42565b6146a3565b9050919050565b615b0b81615ae0565b82525050565b6000602082019050615b266000830184615b02565b92915050565b6000606082019050615b41600083018661446d565b615b4e602083018561446d565b615b5b604083018461446d565b949350505050565b7f496e76616c696420746f6b656e20616464726573730000000000000000000000600082015250565b6000615b99601583615235565b9150615ba482615b63565b602082019050919050565b60006020820190508181036000830152615bc881615b8c565b9050919050565b7f496e73756666696369656e742062616c616e6365000000000000000000000000600082015250565b6000615c05601483615235565b9150615c1082615bcf565b602082019050919050565b60006020820190508181036000830152615c3481615bf8565b9050919050565b6000615c47828561557e565b602082019150615c5782846155fc565b6014820191508190509392505050565b615c708161472a565b82525050565b615c7f81614760565b82525050565b615c8e816146a3565b82525050565b600082825260208201905092915050565b6000615cb082614f02565b615cba8185615c94565b9350615cca818560208601614f1e565b615cd381614ac4565b840191505092915050565b600060c083016000830151615cf66000860182615c67565b506020830151615d0960208601826150dd565b506040830151615d1c6040860182615c76565b506060830151615d2f6060860182615c85565b506080830151615d426080860182615c85565b5060a083015184820360a0860152615d5a8282615ca5565b9150508091505092915050565b60006020820190508181036000830152615d818184615cde565b905092915050565b600081519050615d98816144b5565b92915050565b600060208284031215615db457615db36144a1565b5b6000615dc284828501615d89565b91505092915050565b7f496e76616c696420747265617375727920616464726573730000000000000000600082015250565b6000615e01601883615235565b9150615e0c82615dcb565b602082019050919050565b60006020820190508181036000830152615e3081615df4565b9050919050565b7f496e76616c69642056524620436f6f7264696e61746f72206164647265737300600082015250565b6000615e6d601f83615235565b9150615e7882615e37565b602082019050919050565b60006020820190508181036000830152615e9c81615e60565b9050919050565b7f4e487b7100000000000000000000000000000000000000000000000000000000600052601260045260246000fd5b6000615edd826144ab565b9150615ee8836144ab565b925082615ef857615ef7615ea3565b5b828206905092915050565b6000615f0e82614578565b9150615f1983614578565b9250828203905060ff811115615f3257615f316152b2565b5b92915050565b6000604082019050615f4d600083018561454e565b615f5a60208301846146b3565b9392505050565b6000615f6c826146a3565b9150615f77836146a3565b9250828201905063ffffffff811115615f9357615f926152b2565b5b92915050565b6000606082019050615fae600083018661446d565b615fbb602083018561446d565b615fc8604083018461454e565b949350505050565b615fd981614899565b82525050565b602082016000820151615ff56000850182615fd0565b50505050565b60006020820190506160106000830184615fdf565b92915050565b7f4f6e6c792063616c6c61626c65206279206f776e657200000000000000000000600082015250565b600061604c601683615235565b915061605782616016565b602082019050919050565b6000602082019050818103600083015261607b8161603f565b9050919050565b7f43616e6e6f74207472616e7366657220746f2073656c66000000000000000000600082015250565b60006160b8601783615235565b91506160c382616082565b602082019050919050565b600060208201905081810360008301526160e7816160ab565b9050919050565b6000815190506160fd81614c00565b92915050565b600060208284031215616119576161186144a1565b5b6000616127848285016160ee565b91505092915050565b7f5361666545524332303a204552433230206f7065726174696f6e20646964206e60008201527f6f74207375636365656400000000000000000000000000000000000000000000602082015250565b600061618c602a83615235565b915061619782616130565b604082019050919050565b600060208201905081810360008301526161bb8161617f565b9050919050565b7f416464726573733a20696e73756666696369656e742062616c616e636520666f60008201527f722063616c6c0000000000000000000000000000000000000000000000000000602082015250565b600061621e602683615235565b9150616229826161c2565b604082019050919050565b6000602082019050818103600083015261624d81616211565b9050919050565b7f416464726573733a2063616c6c20746f206e6f6e2d636f6e7472616374000000600082015250565b600061628a601d83615235565b915061629582616254565b602082019050919050565b600060208201905081810360008301526162b98161627d565b9050919050565b60006162cb82614f02565b6162d581856156e4565b93506162e5818560208601614f1e565b80840191505092915050565b60006162fd82846162c0565b915081905092915050565b600081519050919050565b600061631e82616308565b6163288185615235565b9350616338818560208601614f1e565b61634181614ac4565b840191505092915050565b600060208201905081810360008301526163668184616313565b90509291505056fea26469706673582212200268a8539435b648f42ebf5a695e91d0fd5a3b629452734e726aba166a083f4564736f6c63430008130033","linkReferences":{}},"methodIdentifiers":{"acceptOwnership()":"79ba5097","allowParticipants(uint256,address[])":"c5072ca8","allowToken(address)":"b53472ef","allowedTokens(address)":"e744092e","callbackGasLimit()":"24f74697","createPot(bytes,address,uint256,uint8,uint256,bool)":"8661ffca","endBatch(uint256[])":"2fd99712","endPot(uint256)":"e0321cd4","getCreatorFee(uint8)":"d1abb12a","getParticipantFee(uint8)":"13f2cef9","getParticipants(uint256)":"c1e3bd3e","getRequests(uint256)":"d5e78829","hasJoinedRound(bytes32)":"7a4f4436","hasWon(bytes32)":"6b7fd007","isAllowed(uint256,address)":"5faa299a","joinOnBehalf(uint256,address)":"9999fea0","joinPot(uint256)":"831d49ef","keyHash()":"61728f39","owner()":"8da5cb5b","participantFee()":"9c031ace","platformFee()":"26232a2e","potCount()":"cf72f230","potluckOwner()":"09c1f8ff","pots(uint256)":"c3c3df4f","rawFulfillRandomWords(uint256,uint256[])":"1fe543e3","requestConfirmations()":"b0fb162f","requestPotAllow(uint256)":"65c7444d","requestToPot(uint256)":"1301cd25","requestToRound(uint256)":"385542f0","requestedParticipants(uint256,uint256)":"61734cd6","s_subscriptionId()":"8ac00021","s_vrfCoordinator()":"9eccacf6","setChainlinkVRF(address)":"f39c5d51","setChainlinkVRF(bytes32,uint256,uint16,uint32)":"3bb2261d","setCoordinator(address)":"8ea98117","setFees(uint256,uint256)":"0b78f9c0","setTreasury(address)":"f0f44260","transferOwnership(address)":"f2fde38b","treasury()":"61d027b3","triggerBatchJoinOnBehalf(uint256,address[])":"de1149b3","triggerBatchPayout(uint256[])":"a88390dc","triggerPotPayout(uint256)":"e90c88fe","vrfCoordinator()":"a3e56fa8","withdraw()":"3ccfd60b","withdraw(address,address,uint256)":"d9caed12","withdrawBatch(address[],address,uint256[])":"8657dfcb","withdrawalBalances(address,address)":"908fe934"},"id":48}