{"abi":[{"type":"constructor","inputs":[{"name":"_platformFee","type":"uint256","internalType":"uint256"},{"name":"_treasury","type":"address","internalType":"address"}],"stateMutability":"nonpayable"},{"type":"function","name":"allowParticipants","inputs":[{"name":"potId","type":"uint256","internalType":"uint256"},{"name":"participants","type":"address[]","internalType":"address[]"}],"outputs":[],"stateMutability":"nonpayable"},{"type":"function","name":"allowedParticipants","inputs":[{"name":"","type":"uint256","internalType":"uint256"},{"name":"","type":"uint256","internalType":"uint256"}],"outputs":[{"name":"","type":"address","internalType":"address"}],"stateMutability":"view"},{"type":"function","name":"cancelPotAllowRequest","inputs":[{"name":"potId","type":"uint256","internalType":"uint256"},{"name":"requestIndex","type":"uint256","internalType":"uint256"}],"outputs":[],"stateMutability":"nonpayable"},{"type":"function","name":"createPot","inputs":[{"name":"name","type":"bytes","internalType":"bytes"},{"name":"token","type":"address","internalType":"address"},{"name":"entryAmount","type":"uint256","internalType":"uint256"},{"name":"maxParticipants","type":"uint8","internalType":"uint8"},{"name":"periodSeconds","type":"uint256","internalType":"uint256"},{"name":"isPublic","type":"bool","internalType":"bool"}],"outputs":[],"stateMutability":"nonpayable"},{"type":"function","name":"endBatch","inputs":[{"name":"potIds","type":"uint256[]","internalType":"uint256[]"}],"outputs":[],"stateMutability":"nonpayable"},{"type":"function","name":"endPot","inputs":[{"name":"potId","type":"uint256","internalType":"uint256"}],"outputs":[],"stateMutability":"nonpayable"},{"type":"function","name":"getAllowedParticipants","inputs":[{"name":"potId","type":"uint256","internalType":"uint256"}],"outputs":[{"name":"","type":"address[]","internalType":"address[]"}],"stateMutability":"view"},{"type":"function","name":"getParticipants","inputs":[{"name":"potId","type":"uint256","internalType":"uint256"}],"outputs":[{"name":"","type":"address[]","internalType":"address[]"}],"stateMutability":"view"},{"type":"function","name":"getRequests","inputs":[{"name":"potId","type":"uint256","internalType":"uint256"}],"outputs":[{"name":"","type":"tuple[]","internalType":"struct Potluck.PotRequest[]","components":[{"name":"requestor","type":"address","internalType":"address"},{"name":"timestamp","type":"uint256","internalType":"uint256"},{"name":"status","type":"uint8","internalType":"enum Potluck.PotStatus"}]}],"stateMutability":"view"},{"type":"function","name":"hasJoinedRound","inputs":[{"name":"","type":"bytes32","internalType":"bytes32"}],"outputs":[{"name":"","type":"bool","internalType":"bool"}],"stateMutability":"view"},{"type":"function","name":"hasWon","inputs":[{"name":"","type":"bytes32","internalType":"bytes32"}],"outputs":[{"name":"","type":"bool","internalType":"bool"}],"stateMutability":"view"},{"type":"function","name":"isAllowed","inputs":[{"name":"","type":"uint256","internalType":"uint256"},{"name":"","type":"address","internalType":"address"}],"outputs":[{"name":"","type":"bool","internalType":"bool"}],"stateMutability":"view"},{"type":"function","name":"joinPot","inputs":[{"name":"potId","type":"uint256","internalType":"uint256"}],"outputs":[],"stateMutability":"nonpayable"},{"type":"function","name":"owner","inputs":[],"outputs":[{"name":"","type":"address","internalType":"address"}],"stateMutability":"view"},{"type":"function","name":"platformFee","inputs":[],"outputs":[{"name":"","type":"uint256","internalType":"uint256"}],"stateMutability":"view"},{"type":"function","name":"potCount","inputs":[],"outputs":[{"name":"","type":"uint256","internalType":"uint256"}],"stateMutability":"view"},{"type":"function","name":"pots","inputs":[{"name":"","type":"uint256","internalType":"uint256"}],"outputs":[{"name":"id","type":"uint256","internalType":"uint256"},{"name":"name","type":"bytes","internalType":"bytes"},{"name":"round","type":"uint32","internalType":"uint32"},{"name":"deadline","type":"uint256","internalType":"uint256"},{"name":"balance","type":"uint256","internalType":"uint256"},{"name":"token","type":"address","internalType":"address"},{"name":"entryAmount","type":"uint256","internalType":"uint256"},{"name":"period","type":"uint256","internalType":"uint256"},{"name":"totalParticipants","type":"uint32","internalType":"uint32"},{"name":"maxParticipants","type":"uint8","internalType":"uint8"},{"name":"isPublic","type":"bool","internalType":"bool"}],"stateMutability":"view"},{"type":"function","name":"renounceOwnership","inputs":[],"outputs":[],"stateMutability":"nonpayable"},{"type":"function","name":"requestPotAllow","inputs":[{"name":"potId","type":"uint256","internalType":"uint256"}],"outputs":[],"stateMutability":"nonpayable"},{"type":"function","name":"requestedParticipants","inputs":[{"name":"","type":"uint256","internalType":"uint256"},{"name":"","type":"uint256","internalType":"uint256"}],"outputs":[{"name":"requestor","type":"address","internalType":"address"},{"name":"timestamp","type":"uint256","internalType":"uint256"},{"name":"status","type":"uint8","internalType":"enum Potluck.PotStatus"}],"stateMutability":"view"},{"type":"function","name":"setPlatformFee","inputs":[{"name":"fee","type":"uint256","internalType":"uint256"}],"outputs":[],"stateMutability":"nonpayable"},{"type":"function","name":"setTreasury","inputs":[{"name":"newTreasury","type":"address","internalType":"address"}],"outputs":[],"stateMutability":"nonpayable"},{"type":"function","name":"transferOwnership","inputs":[{"name":"newOwner","type":"address","internalType":"address"}],"outputs":[],"stateMutability":"nonpayable"},{"type":"function","name":"treasury","inputs":[],"outputs":[{"name":"","type":"address","internalType":"address"}],"stateMutability":"view"},{"type":"function","name":"triggerBatchPayout","inputs":[{"name":"potIds","type":"uint256[]","internalType":"uint256[]"}],"outputs":[],"stateMutability":"nonpayable"},{"type":"function","name":"triggerPotPayout","inputs":[{"name":"potId","type":"uint256","internalType":"uint256"}],"outputs":[],"stateMutability":"nonpayable"},{"type":"event","name":"AllowedParticipantAdded","inputs":[{"name":"potId","type":"uint256","indexed":true,"internalType":"uint256"},{"name":"user","type":"address","indexed":true,"internalType":"address"}],"anonymous":false},{"type":"event","name":"OwnershipTransferred","inputs":[{"name":"previousOwner","type":"address","indexed":true,"internalType":"address"},{"name":"newOwner","type":"address","indexed":true,"internalType":"address"}],"anonymous":false},{"type":"event","name":"PotAllowRequested","inputs":[{"name":"potId","type":"uint256","indexed":true,"internalType":"uint256"},{"name":"requestor","type":"address","indexed":true,"internalType":"address"}],"anonymous":false},{"type":"event","name":"PotCreated","inputs":[{"name":"potId","type":"uint256","indexed":true,"internalType":"uint256"},{"name":"creator","type":"address","indexed":true,"internalType":"address"}],"anonymous":false},{"type":"event","name":"PotEnded","inputs":[{"name":"potId","type":"uint256","indexed":true,"internalType":"uint256"}],"anonymous":false},{"type":"event","name":"PotJoined","inputs":[{"name":"potId","type":"uint256","indexed":true,"internalType":"uint256"},{"name":"roundId","type":"uint32","indexed":false,"internalType":"uint32"},{"name":"user","type":"address","indexed":true,"internalType":"address"}],"anonymous":false},{"type":"event","name":"PotPayout","inputs":[{"name":"potId","type":"uint256","indexed":true,"internalType":"uint256"},{"name":"winner","type":"address","indexed":true,"internalType":"address"},{"name":"amount","type":"uint256","indexed":false,"internalType":"uint256"},{"name":"round","type":"uint32","indexed":false,"internalType":"uint32"}],"anonymous":false},{"type":"error","name":"AlreadyJoined","inputs":[{"name":"potId","type":"uint256","internalType":"uint256"},{"name":"round","type":"uint32","internalType":"uint32"},{"name":"user","type":"address","internalType":"address"}]},{"type":"error","name":"EntryAmountZero","inputs":[]},{"type":"error","name":"InsufficientFundsToRollover","inputs":[{"name":"total","type":"uint256","internalType":"uint256"},{"name":"rollover","type":"uint256","internalType":"uint256"}]},{"type":"error","name":"NoEligibleParticipants","inputs":[]},{"type":"error","name":"NotAllParticipantsWon","inputs":[{"name":"potId","type":"uint256","internalType":"uint256"}]},{"type":"error","name":"NotAllowed","inputs":[{"name":"user","type":"address","internalType":"address"},{"name":"potId","type":"uint256","internalType":"uint256"}]},{"type":"error","name":"NotPotCreator","inputs":[{"name":"sender","type":"address","internalType":"address"},{"name":"potId","type":"uint256","internalType":"uint256"}]},{"type":"error","name":"OwnableInvalidOwner","inputs":[{"name":"owner","type":"address","internalType":"address"}]},{"type":"error","name":"OwnableUnauthorizedAccount","inputs":[{"name":"account","type":"address","internalType":"address"}]},{"type":"error","name":"PeriodTooShort","inputs":[]},{"type":"error","name":"PotDoesNotExist","inputs":[{"name":"potId","type":"uint256","internalType":"uint256"}]},{"type":"error","name":"PotFull","inputs":[{"name":"maxParticipants","type":"uint8","internalType":"uint8"}]},{"type":"error","name":"RoundEnded","inputs":[{"name":"deadline","type":"uint256","internalType":"uint256"},{"name":"nowTimestamp","type":"uint256","internalType":"uint256"}]},{"type":"error","name":"RoundNotReady","inputs":[{"name":"deadline","type":"uint256","internalType":"uint256"},{"name":"nowTimestamp","type":"uint256","internalType":"uint256"}]},{"type":"error","name":"SafeERC20FailedOperation","inputs":[{"name":"token","type":"address","internalType":"address"}]}],"bytecode":{"object":"0x608060405234801561000f575f5ffd5b506040516139e03803806139e083398181016040528101906100319190610252565b335f73ffffffffffffffffffffffffffffffffffffffff168173ffffffffffffffffffffffffffffffffffffffff16036100a2575f6040517f1e4fbdf7000000000000000000000000000000000000000000000000000000008152600401610099919061029f565b60405180910390fd5b6100b18161010060201b60201c565b50816002819055508060035f6101000a81548173ffffffffffffffffffffffffffffffffffffffff021916908373ffffffffffffffffffffffffffffffffffffffff16021790555050506102b8565b5f5f5f9054906101000a900473ffffffffffffffffffffffffffffffffffffffff169050815f5f6101000a81548173ffffffffffffffffffffffffffffffffffffffff021916908373ffffffffffffffffffffffffffffffffffffffff1602179055508173ffffffffffffffffffffffffffffffffffffffff168173ffffffffffffffffffffffffffffffffffffffff167f8be0079c531659141344cd1fd0a4f28419497f9722a3daafe3b4186f6b6457e060405160405180910390a35050565b5f5ffd5b5f819050919050565b6101d7816101c5565b81146101e1575f5ffd5b50565b5f815190506101f2816101ce565b92915050565b5f73ffffffffffffffffffffffffffffffffffffffff82169050919050565b5f610221826101f8565b9050919050565b61023181610217565b811461023b575f5ffd5b50565b5f8151905061024c81610228565b92915050565b5f5f60408385031215610268576102676101c1565b5b5f610275858286016101e4565b92505060206102868582860161023e565b9150509250929050565b61029981610217565b82525050565b5f6020820190506102b25f830184610290565b92915050565b61371b806102c55f395ff3fe608060405234801561000f575f5ffd5b506004361061018c575f3560e01c80638661ffca116100dc578063c5072ca811610095578063e0321cd41161006f578063e0321cd4146104ae578063e90c88fe146104ca578063f0f44260146104e6578063f2fde38b146105025761018c565b8063c5072ca814610444578063cf72f23014610460578063d5e788291461047e5761018c565b80638661ffca146103545780638da5cb5b14610370578063a6da5bca1461038e578063a88390dc146103be578063c1e3bd3e146103da578063c3c3df4f1461040a5761018c565b806361d027b3116101495780636b7fd007116101235780636b7fd007146102ce578063715018a6146102fe5780637a4f443614610308578063831d49ef146103385761018c565b806361d027b314610264578063640e4b7c1461028257806365c7444d146102b25761018c565b806312e8e2c31461019057806326232a2e146101ac5780632fd99712146101ca5780634fc88b86146101e65780635faa299a1461020257806361734cd614610232575b5f5ffd5b6101aa60048036038101906101a591906125e8565b61051e565b005b6101b4610530565b6040516101c19190612622565b60405180910390f35b6101e460048036038101906101df919061269c565b610536565b005b61020060048036038101906101fb91906126e7565b61057a565b005b61021c6004803603810190610217919061277f565b610730565b60405161022991906127d7565b60405180910390f35b61024c600480360381019061024791906126e7565b61075a565b60405161025b93929190612872565b60405180910390f35b61026c6107c5565b60405161027991906128a7565b60405180910390f35b61029c600480360381019061029791906125e8565b6107ea565b6040516102a99190612977565b60405180910390f35b6102cc60048036038101906102c791906125e8565b610886565b005b6102e860048036038101906102e391906129ca565b6109c6565b6040516102f591906127d7565b60405180910390f35b6103066109e3565b005b610322600480360381019061031d91906129ca565b6109f6565b60405161032f91906127d7565b60405180910390f35b610352600480360381019061034d91906125e8565b610a13565b005b61036e60048036038101906103699190612b8d565b610f35565b005b61037861136a565b60405161038591906128a7565b60405180910390f35b6103a860048036038101906103a391906126e7565b611391565b6040516103b591906128a7565b60405180910390f35b6103d860048036038101906103d3919061269c565b6113d9565b005b6103f460048036038101906103ef91906125e8565b61141d565b6040516104019190612977565b60405180910390f35b610424600480360381019061041f91906125e8565b6114bc565b60405161043b9b9a99989796959493929190612cbf565b60405180910390f35b61045e60048036038101906104599190612dc4565b6115ee565b005b610468611876565b6040516104759190612622565b60405180910390f35b610498600480360381019061049391906125e8565b61187c565b6040516104a59190612f27565b60405180910390f35b6104c860048036038101906104c391906125e8565b611981565b005b6104e460048036038101906104df91906125e8565b611c0c565b005b61050060048036038101906104fb9190612f47565b6121b1565b005b61051c60048036038101906105179190612f47565b6121fc565b005b610526612280565b8060028190555050565b60025481565b5f5f90505b828290508110156105755761056883838381811061055c5761055b612f72565b5b90506020020135611981565b808060010191505061053b565b505050565b5f60095f8481526020019081526020015f20828154811061059e5761059d612f72565b5b905f5260205f2090600302019050805f015f9054906101000a900473ffffffffffffffffffffffffffffffffffffffff1673ffffffffffffffffffffffffffffffffffffffff163373ffffffffffffffffffffffffffffffffffffffff16146106405733836040517f8626cc03000000000000000000000000000000000000000000000000000000008152600401610637929190612f9f565b60405180910390fd5b60045f8481526020019081526020015f206009015f8154811061066657610665612f72565b5b905f5260205f20015f9054906101000a900473ffffffffffffffffffffffffffffffffffffffff1673ffffffffffffffffffffffffffffffffffffffff163373ffffffffffffffffffffffffffffffffffffffff16146106ff5733836040517f3872341e0000000000000000000000000000000000000000000000000000000081526004016106f6929190612f9f565b60405180910390fd5b6002816002015f6101000a81548160ff02191690836002811115610726576107256127ff565b5b0217905550505050565b6007602052815f5260405f20602052805f5260405f205f915091509054906101000a900460ff1681565b6009602052815f5260405f208181548110610773575f80fd5b905f5260205f2090600302015f9150915050805f015f9054906101000a900473ffffffffffffffffffffffffffffffffffffffff1690806001015490806002015f9054906101000a900460ff16905083565b60035f9054906101000a900473ffffffffffffffffffffffffffffffffffffffff1681565b606060085f8381526020019081526020015f2080548060200260200160405190810160405280929190818152602001828054801561087a57602002820191905f5260205f20905b815f9054906101000a900473ffffffffffffffffffffffffffffffffffffffff1673ffffffffffffffffffffffffffffffffffffffff1681526020019060010190808311610831575b50505050509050919050565b60095f8281526020019081526020015f2060405180606001604052803373ffffffffffffffffffffffffffffffffffffffff1681526020014281526020015f60028111156108d7576108d66127ff565b5b815250908060018154018082558091505060019003905f5260205f2090600302015f909190919091505f820151815f015f6101000a81548173ffffffffffffffffffffffffffffffffffffffff021916908373ffffffffffffffffffffffffffffffffffffffff160217905550602082015181600101556040820151816002015f6101000a81548160ff02191690836002811115610978576109776127ff565b5b021790555050503373ffffffffffffffffffffffffffffffffffffffff16817f14a1608330df21406b2c36c4c92e47f22c9abd31d9df75abc4af2bdb477469bb60405160405180910390a350565b6006602052805f5260405f205f915054906101000a900460ff1681565b6109eb612280565b6109f45f612307565b565b6005602052805f5260405f205f915054906101000a900460ff1681565b5f60045f8381526020019081526020015f2090505f816004015403610a6f57816040517f017e57a1000000000000000000000000000000000000000000000000000000008152600401610a669190612622565b60405180910390fd5b80600301544210610abd578060030154426040517f8868888c000000000000000000000000000000000000000000000000000000008152600401610ab4929190612fc6565b60405180910390fd5b8060080160049054906101000a900460ff1660ff16816009018054905010158015610afc57505f8160080160049054906101000a900460ff1660ff1614155b15610b4f578060080160049054906101000a900460ff166040517f969559d5000000000000000000000000000000000000000000000000000000008152600401610b469190612fed565b60405180910390fd5b60075f8381526020019081526020015f205f3373ffffffffffffffffffffffffffffffffffffffff1673ffffffffffffffffffffffffffffffffffffffff1681526020019081526020015f205f9054906101000a900460ff16158015610bc3575080600a015f9054906101000a900460ff16155b15610c075733826040517f8626cc03000000000000000000000000000000000000000000000000000000008152600401610bfe929190612f9f565b60405180910390fd5b5f82826002015f9054906101000a900463ffffffff1633604051602001610c309392919061309f565b60405160208183030381529060405280519060200120905060055f8281526020019081526020015f205f9054906101000a900460ff1615610cbf5782826002015f9054906101000a900463ffffffff16336040517f0beb1aac000000000000000000000000000000000000000000000000000000008152600401610cb6939291906130db565b60405180910390fd5b5f826002015f9054906101000a900463ffffffff1663ffffffff1603610d2657816008015f81819054906101000a900463ffffffff1680929190610d029061313d565b91906101000a81548163ffffffff021916908363ffffffff16021790555050610dd1565b60055f846001856002015f9054906101000a900463ffffffff16610d4a9190613168565b33604051602001610d5d9392919061309f565b6040516020818303038152906040528051906020012081526020019081526020015f205f9054906101000a900460ff16610dd05733836040517f8626cc03000000000000000000000000000000000000000000000000000000008152600401610dc7929190612f9f565b60405180910390fd5b5b610e2533308460060154856005015f9054906101000a900473ffffffffffffffffffffffffffffffffffffffff1673ffffffffffffffffffffffffffffffffffffffff166123c8909392919063ffffffff16565b8160060154826004015f828254610e3c919061319f565b925050819055508160090133908060018154018082558091505060019003905f5260205f20015f9091909190916101000a81548173ffffffffffffffffffffffffffffffffffffffff021916908373ffffffffffffffffffffffffffffffffffffffff160217905550600160055f8381526020019081526020015f205f6101000a81548160ff0219169083151502179055503373ffffffffffffffffffffffffffffffffffffffff16837f672d3f5897f7a8042cd8c8557caf58ece26929a410c3b1a66a34ccfd3460fcde846002015f9054906101000a900463ffffffff16604051610f2891906131d2565b60405180910390a3505050565b5f8403610f6e576040517f172bb87f00000000000000000000000000000000000000000000000000000000815260040160405180910390fd5b610e10821015610faa576040517f9306857800000000000000000000000000000000000000000000000000000000815260040160405180910390fd5b610ffa3360035f9054906101000a900473ffffffffffffffffffffffffffffffffffffffff166002548873ffffffffffffffffffffffffffffffffffffffff166123c8909392919063ffffffff16565b6110273330868873ffffffffffffffffffffffffffffffffffffffff166123c8909392919063ffffffff16565b5f60015f81548092919061103a906131eb565b9190505590505f60045f8381526020019081526020015f20905081815f01819055508781600101908161106d919061342f565b5086816005015f6101000a81548173ffffffffffffffffffffffffffffffffffffffff021916908373ffffffffffffffffffffffffffffffffffffffff1602179055508581600601819055508381600701819055506001816008015f6101000a81548163ffffffff021916908363ffffffff16021790555083426110f1919061319f565b81600301819055508581600401819055508060090133908060018154018082558091505060019003905f5260205f20015f9091909190916101000a81548173ffffffffffffffffffffffffffffffffffffffff021916908373ffffffffffffffffffffffffffffffffffffffff1602179055508281600a015f6101000a81548160ff021916908315150217905550848160080160046101000a81548160ff021916908360ff1602179055508261127557600160075f8481526020019081526020015f205f3373ffffffffffffffffffffffffffffffffffffffff1673ffffffffffffffffffffffffffffffffffffffff1681526020019081526020015f205f6101000a81548160ff02191690831515021790555060085f8381526020019081526020015f2033908060018154018082558091505060019003905f5260205f20015f9091909190916101000a81548173ffffffffffffffffffffffffffffffffffffffff021916908373ffffffffffffffffffffffffffffffffffffffff1602179055505b5f825f3360405160200161128b9392919061309f565b604051602081830303815290604052805190602001209050600160055f8381526020019081526020015f205f6101000a81548160ff0219169083151502179055503373ffffffffffffffffffffffffffffffffffffffff16837fde307469e0906e8d7a6e84aec39b533cfe12dd01b2737a0f785511261337231760405160405180910390a33373ffffffffffffffffffffffffffffffffffffffff16837f672d3f5897f7a8042cd8c8557caf58ece26929a410c3b1a66a34ccfd3460fcde5f6040516113579190613537565b60405180910390a3505050505050505050565b5f5f5f9054906101000a900473ffffffffffffffffffffffffffffffffffffffff16905090565b6008602052815f5260405f2081815481106113aa575f80fd5b905f5260205f20015f915091509054906101000a900473ffffffffffffffffffffffffffffffffffffffff1681565b5f5f90505b828290508110156114185761140b8383838181106113ff576113fe612f72565b5b90506020020135611c0c565b80806001019150506113de565b505050565b606060045f8381526020019081526020015f206009018054806020026020016040519081016040528092919081815260200182805480156114b057602002820191905f5260205f20905b815f9054906101000a900473ffffffffffffffffffffffffffffffffffffffff1673ffffffffffffffffffffffffffffffffffffffff1681526020019060010190808311611467575b50505050509050919050565b6004602052805f5260405f205f91509050805f0154908060010180546114e19061325f565b80601f016020809104026020016040519081016040528092919081815260200182805461150d9061325f565b80156115585780601f1061152f57610100808354040283529160200191611558565b820191905f5260205f20905b81548152906001019060200180831161153b57829003601f168201915b505050505090806002015f9054906101000a900463ffffffff1690806003015490806004015490806005015f9054906101000a900473ffffffffffffffffffffffffffffffffffffffff1690806006015490806007015490806008015f9054906101000a900463ffffffff16908060080160049054906101000a900460ff169080600a015f9054906101000a900460ff1690508b565b5f60045f8581526020019081526020015f209050806009015f8154811061161857611617612f72565b5b905f5260205f20015f9054906101000a900473ffffffffffffffffffffffffffffffffffffffff1673ffffffffffffffffffffffffffffffffffffffff163373ffffffffffffffffffffffffffffffffffffffff16146116b15733846040517f3872341e0000000000000000000000000000000000000000000000000000000081526004016116a8929190612f9f565b60405180910390fd5b5f5f90505b8383905081101561186f575f8484838181106116d5576116d4612f72565b5b90506020020160208101906116ea9190612f47565b905060075f8781526020019081526020015f205f8273ffffffffffffffffffffffffffffffffffffffff1673ffffffffffffffffffffffffffffffffffffffff1681526020019081526020015f205f9054906101000a900460ff1661186157600160075f8881526020019081526020015f205f8373ffffffffffffffffffffffffffffffffffffffff1673ffffffffffffffffffffffffffffffffffffffff1681526020019081526020015f205f6101000a81548160ff02191690831515021790555060085f8781526020019081526020015f2081908060018154018082558091505060019003905f5260205f20015f9091909190916101000a81548173ffffffffffffffffffffffffffffffffffffffff021916908373ffffffffffffffffffffffffffffffffffffffff1602179055508073ffffffffffffffffffffffffffffffffffffffff16867f1a93957e2514306f9c62a03c9d38f41d87e9192c4bff4ba40eb834d92c6c728060405160405180910390a35b5080806001019150506116b6565b5050505050565b60015481565b606060095f8381526020019081526020015f20805480602002602001604051908101604052809291908181526020015f905b82821015611976578382905f5260205f2090600302016040518060600160405290815f82015f9054906101000a900473ffffffffffffffffffffffffffffffffffffffff1673ffffffffffffffffffffffffffffffffffffffff1673ffffffffffffffffffffffffffffffffffffffff16815260200160018201548152602001600282015f9054906101000a900460ff166002811115611951576119506127ff565b5b6002811115611963576119626127ff565b5b81525050815260200190600101906118ae565b505050509050919050565b5f60045f8381526020019081526020015f2090505f8160040154036119dd57816040517f017e57a10000000000000000000000000000000000000000000000000000000081526004016119d49190612622565b60405180910390fd5b8060030154421015611a2c578060030154426040517f3bd40433000000000000000000000000000000000000000000000000000000008152600401611a23929190612fc6565b60405180910390fd5b5f5f90505b8160090180549050811015611b115760065f84846009018481548110611a5a57611a59612f72565b5b905f5260205f20015f9054906101000a900473ffffffffffffffffffffffffffffffffffffffff16604051602001611a93929190613550565b6040516020818303038152906040528051906020012081526020019081526020015f205f9054906101000a900460ff16611b0457826040517fd2471cf8000000000000000000000000000000000000000000000000000000008152600401611afb9190612622565b60405180910390fd5b8080600101915050611a31565b505f81600401819055505f5f90505b8160090180549050811015611bcb57611bbe826009018281548110611b4857611b47612f72565b5b905f5260205f20015f9054906101000a900473ffffffffffffffffffffffffffffffffffffffff168360060154846005015f9054906101000a900473ffffffffffffffffffffffffffffffffffffffff1673ffffffffffffffffffffffffffffffffffffffff1661244a9092919063ffffffff16565b8080600101915050611b20565b50806009015f611bdb919061256b565b817f09f73e7c1cfe948731316069115856105587fb9681d754a0037165a8a8cfe1f760405160405180910390a25050565b5f60045f8381526020019081526020015f2090505f816004015403611c6857816040517f017e57a1000000000000000000000000000000000000000000000000000000008152600401611c5f9190612622565b60405180910390fd5b8060030154421015611cb7578060030154426040517f3bd40433000000000000000000000000000000000000000000000000000000008152600401611cae929190612fc6565b60405180910390fd5b5f6001826008015f9054906101000a900463ffffffff16611cd89190613168565b63ffffffff16826002015f9054906101000a900463ffffffff1663ffffffff161490505f81611d0b578260060154611d0d565b5f5b90505f8360040154905081811015611d5e5780826040517f34699d23000000000000000000000000000000000000000000000000000000008152600401611d55929190612fc6565b60405180910390fd5b5f8282611d6b919061357b565b90505f42600143611d7c919061357b565b4088886002015f9054906101000a900463ffffffff1686604051602001611da79594939291906135ce565b6040516020818303038152906040528051906020012090505f866009018054905090505f81835f1c611dd99190613659565b90505f5f5f90505b83811015611ea1575f8a600901858386611dfb919061319f565b611e059190613659565b81548110611e1657611e15612f72565b5b905f5260205f20015f9054906101000a900473ffffffffffffffffffffffffffffffffffffffff16905060065f8d83604051602001611e56929190613550565b6040516020818303038152906040528051906020012081526020019081526020015f205f9054906101000a900460ff16611e935780925050611ea1565b508080600101915050611de1565b505f73ffffffffffffffffffffffffffffffffffffffff168173ffffffffffffffffffffffffffffffffffffffff1603611f07576040517fd4e1e24000000000000000000000000000000000000000000000000000000000815260040160405180910390fd5b600160065f8c84604051602001611f1f929190613550565b6040516020818303038152906040528051906020012081526020019081526020015f205f6101000a81548160ff021916908315150217905550611fa681868b6005015f9054906101000a900473ffffffffffffffffffffffffffffffffffffffff1673ffffffffffffffffffffffffffffffffffffffff1661244a9092919063ffffffff16565b5f896002015f81819054906101000a900463ffffffff16611fc69061313d565b91906101000a81548163ffffffff021916908363ffffffff160217905590508173ffffffffffffffffffffffffffffffffffffffff168b7fc2518a56896ff30efc4b0de222d91241ad29d5e347b5dc1465e1f28bbc6c4ac28860018561202c9190613168565b60405161203a929190613689565b60405180910390a3881561206f575f8a60040181905550896009015f612060919061256b565b505050505050505050506121ae565b878a60040181905550896009015f612087919061256b565b8960090182908060018154018082558091505060019003905f5260205f20015f9091909190916101000a81548173ffffffffffffffffffffffffffffffffffffffff021916908373ffffffffffffffffffffffffffffffffffffffff160217905550600160055f8d84866040516020016121039392919061309f565b6040516020818303038152906040528051906020012081526020019081526020015f205f6101000a81548160ff0219169083151502179055508173ffffffffffffffffffffffffffffffffffffffff168b7f672d3f5897f7a8042cd8c8557caf58ece26929a410c3b1a66a34ccfd3460fcde8360405161218391906131d2565b60405180910390a389600701544261219b919061319f565b8a60030181905550505050505050505050505b50565b6121b9612280565b8060035f6101000a81548173ffffffffffffffffffffffffffffffffffffffff021916908373ffffffffffffffffffffffffffffffffffffffff16021790555050565b612204612280565b5f73ffffffffffffffffffffffffffffffffffffffff168173ffffffffffffffffffffffffffffffffffffffff1603612274575f6040517f1e4fbdf700000000000000000000000000000000000000000000000000000000815260040161226b91906128a7565b60405180910390fd5b61227d81612307565b50565b6122886124c9565b73ffffffffffffffffffffffffffffffffffffffff166122a661136a565b73ffffffffffffffffffffffffffffffffffffffff1614612305576122c96124c9565b6040517f118cdaa70000000000000000000000000000000000000000000000000000000081526004016122fc91906128a7565b60405180910390fd5b565b5f5f5f9054906101000a900473ffffffffffffffffffffffffffffffffffffffff169050815f5f6101000a81548173ffffffffffffffffffffffffffffffffffffffff021916908373ffffffffffffffffffffffffffffffffffffffff1602179055508173ffffffffffffffffffffffffffffffffffffffff168173ffffffffffffffffffffffffffffffffffffffff167f8be0079c531659141344cd1fd0a4f28419497f9722a3daafe3b4186f6b6457e060405160405180910390a35050565b612444848573ffffffffffffffffffffffffffffffffffffffff166323b872dd8686866040516024016123fd939291906136b0565b604051602081830303815290604052915060e01b6020820180517bffffffffffffffffffffffffffffffffffffffffffffffffffffffff83818316178352505050506124d0565b50505050565b6124c4838473ffffffffffffffffffffffffffffffffffffffff1663a9059cbb858560405160240161247d929190612f9f565b604051602081830303815290604052915060e01b6020820180517bffffffffffffffffffffffffffffffffffffffffffffffffffffffff83818316178352505050506124d0565b505050565b5f33905090565b5f5f60205f8451602086015f885af1806124ef576040513d5f823e3d81fd5b3d92505f519150505f8214612508576001811415612523565b5f8473ffffffffffffffffffffffffffffffffffffffff163b145b1561256557836040517f5274afe700000000000000000000000000000000000000000000000000000000815260040161255c91906128a7565b60405180910390fd5b50505050565b5080545f8255905f5260205f20908101906125869190612589565b50565b5b808211156125a0575f815f90555060010161258a565b5090565b5f604051905090565b5f5ffd5b5f5ffd5b5f819050919050565b6125c7816125b5565b81146125d1575f5ffd5b50565b5f813590506125e2816125be565b92915050565b5f602082840312156125fd576125fc6125ad565b5b5f61260a848285016125d4565b91505092915050565b61261c816125b5565b82525050565b5f6020820190506126355f830184612613565b92915050565b5f5ffd5b5f5ffd5b5f5ffd5b5f5f83601f84011261265c5761265b61263b565b5b8235905067ffffffffffffffff8111156126795761267861263f565b5b60208301915083602082028301111561269557612694612643565b5b9250929050565b5f5f602083850312156126b2576126b16125ad565b5b5f83013567ffffffffffffffff8111156126cf576126ce6125b1565b5b6126db85828601612647565b92509250509250929050565b5f5f604083850312156126fd576126fc6125ad565b5b5f61270a858286016125d4565b925050602061271b858286016125d4565b9150509250929050565b5f73ffffffffffffffffffffffffffffffffffffffff82169050919050565b5f61274e82612725565b9050919050565b61275e81612744565b8114612768575f5ffd5b50565b5f8135905061277981612755565b92915050565b5f5f60408385031215612795576127946125ad565b5b5f6127a2858286016125d4565b92505060206127b38582860161276b565b9150509250929050565b5f8115159050919050565b6127d1816127bd565b82525050565b5f6020820190506127ea5f8301846127c8565b92915050565b6127f981612744565b82525050565b7f4e487b71000000000000000000000000000000000000000000000000000000005f52602160045260245ffd5b6003811061283d5761283c6127ff565b5b50565b5f81905061284d8261282c565b919050565b5f61285c82612840565b9050919050565b61286c81612852565b82525050565b5f6060820190506128855f8301866127f0565b6128926020830185612613565b61289f6040830184612863565b949350505050565b5f6020820190506128ba5f8301846127f0565b92915050565b5f81519050919050565b5f82825260208201905092915050565b5f819050602082019050919050565b6128f281612744565b82525050565b5f61290383836128e9565b60208301905092915050565b5f602082019050919050565b5f612925826128c0565b61292f81856128ca565b935061293a836128da565b805f5b8381101561296a57815161295188826128f8565b975061295c8361290f565b92505060018101905061293d565b5085935050505092915050565b5f6020820190508181035f83015261298f818461291b565b905092915050565b5f819050919050565b6129a981612997565b81146129b3575f5ffd5b50565b5f813590506129c4816129a0565b92915050565b5f602082840312156129df576129de6125ad565b5b5f6129ec848285016129b6565b91505092915050565b5f5ffd5b5f601f19601f8301169050919050565b7f4e487b71000000000000000000000000000000000000000000000000000000005f52604160045260245ffd5b612a3f826129f9565b810181811067ffffffffffffffff82111715612a5e57612a5d612a09565b5b80604052505050565b5f612a706125a4565b9050612a7c8282612a36565b919050565b5f67ffffffffffffffff821115612a9b57612a9a612a09565b5b612aa4826129f9565b9050602081019050919050565b828183375f83830152505050565b5f612ad1612acc84612a81565b612a67565b905082815260208101848484011115612aed57612aec6129f5565b5b612af8848285612ab1565b509392505050565b5f82601f830112612b1457612b1361263b565b5b8135612b24848260208601612abf565b91505092915050565b5f60ff82169050919050565b612b4281612b2d565b8114612b4c575f5ffd5b50565b5f81359050612b5d81612b39565b92915050565b612b6c816127bd565b8114612b76575f5ffd5b50565b5f81359050612b8781612b63565b92915050565b5f5f5f5f5f5f60c08789031215612ba757612ba66125ad565b5b5f87013567ffffffffffffffff811115612bc457612bc36125b1565b5b612bd089828a01612b00565b9650506020612be189828a0161276b565b9550506040612bf289828a016125d4565b9450506060612c0389828a01612b4f565b9350506080612c1489828a016125d4565b92505060a0612c2589828a01612b79565b9150509295509295509295565b5f81519050919050565b5f82825260208201905092915050565b8281835e5f83830152505050565b5f612c6482612c32565b612c6e8185612c3c565b9350612c7e818560208601612c4c565b612c87816129f9565b840191505092915050565b5f63ffffffff82169050919050565b612caa81612c92565b82525050565b612cb981612b2d565b82525050565b5f61016082019050612cd35f83018e612613565b8181036020830152612ce5818d612c5a565b9050612cf4604083018c612ca1565b612d01606083018b612613565b612d0e608083018a612613565b612d1b60a08301896127f0565b612d2860c0830188612613565b612d3560e0830187612613565b612d43610100830186612ca1565b612d51610120830185612cb0565b612d5f6101408301846127c8565b9c9b505050505050505050505050565b5f5f83601f840112612d8457612d8361263b565b5b8235905067ffffffffffffffff811115612da157612da061263f565b5b602083019150836020820283011115612dbd57612dbc612643565b5b9250929050565b5f5f5f60408486031215612ddb57612dda6125ad565b5b5f612de8868287016125d4565b935050602084013567ffffffffffffffff811115612e0957612e086125b1565b5b612e1586828701612d6f565b92509250509250925092565b5f81519050919050565b5f82825260208201905092915050565b5f819050602082019050919050565b612e53816125b5565b82525050565b612e6281612852565b82525050565b606082015f820151612e7c5f8501826128e9565b506020820151612e8f6020850182612e4a565b506040820151612ea26040850182612e59565b50505050565b5f612eb38383612e68565b60608301905092915050565b5f602082019050919050565b5f612ed582612e21565b612edf8185612e2b565b9350612eea83612e3b565b805f5b83811015612f1a578151612f018882612ea8565b9750612f0c83612ebf565b925050600181019050612eed565b5085935050505092915050565b5f6020820190508181035f830152612f3f8184612ecb565b905092915050565b5f60208284031215612f5c57612f5b6125ad565b5b5f612f698482850161276b565b91505092915050565b7f4e487b71000000000000000000000000000000000000000000000000000000005f52603260045260245ffd5b5f604082019050612fb25f8301856127f0565b612fbf6020830184612613565b9392505050565b5f604082019050612fd95f830185612613565b612fe66020830184612613565b9392505050565b5f6020820190506130005f830184612cb0565b92915050565b5f819050919050565b61302061301b826125b5565b613006565b82525050565b5f8160e01b9050919050565b5f61303c82613026565b9050919050565b61305461304f82612c92565b613032565b82525050565b5f8160601b9050919050565b5f6130708261305a565b9050919050565b5f61308182613066565b9050919050565b61309961309482612744565b613077565b82525050565b5f6130aa828661300f565b6020820191506130ba8285613043565b6004820191506130ca8284613088565b601482019150819050949350505050565b5f6060820190506130ee5f830186612613565b6130fb6020830185612ca1565b61310860408301846127f0565b949350505050565b7f4e487b71000000000000000000000000000000000000000000000000000000005f52601160045260245ffd5b5f61314782612c92565b915063ffffffff820361315d5761315c613110565b5b600182019050919050565b5f61317282612c92565b915061317d83612c92565b9250828203905063ffffffff81111561319957613198613110565b5b92915050565b5f6131a9826125b5565b91506131b4836125b5565b92508282019050808211156131cc576131cb613110565b5b92915050565b5f6020820190506131e55f830184612ca1565b92915050565b5f6131f5826125b5565b91507fffffffffffffffffffffffffffffffffffffffffffffffffffffffffffffffff820361322757613226613110565b5b600182019050919050565b7f4e487b71000000000000000000000000000000000000000000000000000000005f52602260045260245ffd5b5f600282049050600182168061327657607f821691505b60208210810361328957613288613232565b5b50919050565b5f819050815f5260205f209050919050565b5f6020601f8301049050919050565b5f82821b905092915050565b5f600883026132eb7fffffffffffffffffffffffffffffffffffffffffffffffffffffffffffffffff826132b0565b6132f586836132b0565b95508019841693508086168417925050509392505050565b5f819050919050565b5f61333061332b613326846125b5565b61330d565b6125b5565b9050919050565b5f819050919050565b61334983613316565b61335d61335582613337565b8484546132bc565b825550505050565b5f5f905090565b613374613365565b61337f818484613340565b505050565b5b818110156133a2576133975f8261336c565b600181019050613385565b5050565b601f8211156133e7576133b88161328f565b6133c1846132a1565b810160208510156133d0578190505b6133e46133dc856132a1565b830182613384565b50505b505050565b5f82821c905092915050565b5f6134075f19846008026133ec565b1980831691505092915050565b5f61341f83836133f8565b9150826002028217905092915050565b61343882612c32565b67ffffffffffffffff81111561345157613450612a09565b5b61345b825461325f565b6134668282856133a6565b5f60209050601f831160018114613497575f8415613485578287015190505b61348f8582613414565b8655506134f6565b601f1984166134a58661328f565b5f5b828110156134cc578489015182556001820191506020850194506020810190506134a7565b868310156134e957848901516134e5601f8916826133f8565b8355505b6001600288020188555050505b505050505050565b5f819050919050565b5f61352161351c613517846134fe565b61330d565b612c92565b9050919050565b61353181613507565b82525050565b5f60208201905061354a5f830184613528565b92915050565b5f61355b828561300f565b60208201915061356b8284613088565b6014820191508190509392505050565b5f613585826125b5565b9150613590836125b5565b92508282039050818111156135a8576135a7613110565b5b92915050565b5f819050919050565b6135c86135c382612997565b6135ae565b82525050565b5f6135d9828861300f565b6020820191506135e982876135b7565b6020820191506135f9828661300f565b6020820191506136098285613043565b600482019150613619828461300f565b6020820191508190509695505050505050565b7f4e487b71000000000000000000000000000000000000000000000000000000005f52601260045260245ffd5b5f613663826125b5565b915061366e836125b5565b92508261367e5761367d61362c565b5b828206905092915050565b5f60408201905061369c5f830185612613565b6136a96020830184612ca1565b9392505050565b5f6060820190506136c35f8301866127f0565b6136d060208301856127f0565b6136dd6040830184612613565b94935050505056fea2646970667358221220afd860535dca4e227bb75a62a8f00bbb3bd59791a5da95388d2dea189d9492b664736f6c634300081c0033","linkReferences":{}},"methodIdentifiers":{"allowParticipants(uint256,address[])":"c5072ca8","allowedParticipants(uint256,uint256)":"a6da5bca","cancelPotAllowRequest(uint256,uint256)":"4fc88b86","createPot(bytes,address,uint256,uint8,uint256,bool)":"8661ffca","endBatch(uint256[])":"2fd99712","endPot(uint256)":"e0321cd4","getAllowedParticipants(uint256)":"640e4b7c","getParticipants(uint256)":"c1e3bd3e","getRequests(uint256)":"d5e78829","hasJoinedRound(bytes32)":"7a4f4436","hasWon(bytes32)":"6b7fd007","isAllowed(uint256,address)":"5faa299a","joinPot(uint256)":"831d49ef","owner()":"8da5cb5b","platformFee()":"26232a2e","potCount()":"cf72f230","pots(uint256)":"c3c3df4f","renounceOwnership()":"715018a6","requestPotAllow(uint256)":"65c7444d","requestedParticipants(uint256,uint256)":"61734cd6","setPlatformFee(uint256)":"12e8e2c3","setTreasury(address)":"f0f44260","transferOwnership(address)":"f2fde38b","treasury()":"61d027b3","triggerBatchPayout(uint256[])":"a88390dc","triggerPotPayout(uint256)":"e90c88fe"},"id":24}