{"abi":[{"type":"constructor","inputs":[{"name":"_platformFee","type":"uint256","internalType":"uint256"},{"name":"_treasury","type":"address","internalType":"address"}],"stateMutability":"nonpayable"},{"type":"function","name":"allowParticipants","inputs":[{"name":"potId","type":"uint256","internalType":"uint256"},{"name":"participants","type":"address[]","internalType":"address[]"}],"outputs":[],"stateMutability":"nonpayable"},{"type":"function","name":"createPot","inputs":[{"name":"name","type":"bytes","internalType":"bytes"},{"name":"token","type":"address","internalType":"address"},{"name":"entryAmount","type":"uint256","internalType":"uint256"},{"name":"maxParticipants","type":"uint8","internalType":"uint8"},{"name":"periodSeconds","type":"uint256","internalType":"uint256"},{"name":"isPublic","type":"bool","internalType":"bool"}],"outputs":[],"stateMutability":"nonpayable"},{"type":"function","name":"endBatch","inputs":[{"name":"potIds","type":"uint256[]","internalType":"uint256[]"}],"outputs":[],"stateMutability":"nonpayable"},{"type":"function","name":"endPot","inputs":[{"name":"potId","type":"uint256","internalType":"uint256"}],"outputs":[],"stateMutability":"nonpayable"},{"type":"function","name":"getParticipants","inputs":[{"name":"potId","type":"uint256","internalType":"uint256"}],"outputs":[{"name":"","type":"address[]","internalType":"address[]"}],"stateMutability":"view"},{"type":"function","name":"getRequests","inputs":[{"name":"potId","type":"uint256","internalType":"uint256"}],"outputs":[{"name":"","type":"tuple[]","internalType":"struct Potluck.PotRequest[]","components":[{"name":"requestor","type":"address","internalType":"address"},{"name":"timestamp","type":"uint256","internalType":"uint256"},{"name":"status","type":"uint8","internalType":"enum Potluck.RequestStatus"}]}],"stateMutability":"view"},{"type":"function","name":"hasJoinedRound","inputs":[{"name":"","type":"bytes32","internalType":"bytes32"}],"outputs":[{"name":"","type":"bool","internalType":"bool"}],"stateMutability":"view"},{"type":"function","name":"hasWon","inputs":[{"name":"","type":"bytes32","internalType":"bytes32"}],"outputs":[{"name":"","type":"bool","internalType":"bool"}],"stateMutability":"view"},{"type":"function","name":"isAllowed","inputs":[{"name":"","type":"uint256","internalType":"uint256"},{"name":"","type":"address","internalType":"address"}],"outputs":[{"name":"","type":"bool","internalType":"bool"}],"stateMutability":"view"},{"type":"function","name":"joinOnBehalf","inputs":[{"name":"potId","type":"uint256","internalType":"uint256"},{"name":"participant","type":"address","internalType":"address"}],"outputs":[],"stateMutability":"nonpayable"},{"type":"function","name":"joinPot","inputs":[{"name":"potId","type":"uint256","internalType":"uint256"}],"outputs":[],"stateMutability":"nonpayable"},{"type":"function","name":"owner","inputs":[],"outputs":[{"name":"","type":"address","internalType":"address"}],"stateMutability":"view"},{"type":"function","name":"platformFee","inputs":[],"outputs":[{"name":"","type":"uint256","internalType":"uint256"}],"stateMutability":"view"},{"type":"function","name":"potCount","inputs":[],"outputs":[{"name":"","type":"uint256","internalType":"uint256"}],"stateMutability":"view"},{"type":"function","name":"pots","inputs":[{"name":"","type":"uint256","internalType":"uint256"}],"outputs":[{"name":"id","type":"uint256","internalType":"uint256"},{"name":"creator","type":"address","internalType":"address"},{"name":"name","type":"bytes","internalType":"bytes"},{"name":"round","type":"uint32","internalType":"uint32"},{"name":"deadline","type":"uint256","internalType":"uint256"},{"name":"balance","type":"uint256","internalType":"uint256"},{"name":"token","type":"address","internalType":"address"},{"name":"entryAmount","type":"uint256","internalType":"uint256"},{"name":"period","type":"uint256","internalType":"uint256"},{"name":"totalParticipants","type":"uint32","internalType":"uint32"},{"name":"maxParticipants","type":"uint8","internalType":"uint8"},{"name":"isPublic","type":"bool","internalType":"bool"}],"stateMutability":"view"},{"type":"function","name":"renounceOwnership","inputs":[],"outputs":[],"stateMutability":"nonpayable"},{"type":"function","name":"requestPotAllow","inputs":[{"name":"potId","type":"uint256","internalType":"uint256"}],"outputs":[],"stateMutability":"nonpayable"},{"type":"function","name":"requestedParticipants","inputs":[{"name":"","type":"uint256","internalType":"uint256"},{"name":"","type":"uint256","internalType":"uint256"}],"outputs":[{"name":"requestor","type":"address","internalType":"address"},{"name":"timestamp","type":"uint256","internalType":"uint256"},{"name":"status","type":"uint8","internalType":"enum Potluck.RequestStatus"}],"stateMutability":"view"},{"type":"function","name":"setPlatformFee","inputs":[{"name":"fee","type":"uint256","internalType":"uint256"}],"outputs":[],"stateMutability":"nonpayable"},{"type":"function","name":"setTreasury","inputs":[{"name":"newTreasury","type":"address","internalType":"address"}],"outputs":[],"stateMutability":"nonpayable"},{"type":"function","name":"transferOwnership","inputs":[{"name":"newOwner","type":"address","internalType":"address"}],"outputs":[],"stateMutability":"nonpayable"},{"type":"function","name":"treasury","inputs":[],"outputs":[{"name":"","type":"address","internalType":"address"}],"stateMutability":"view"},{"type":"function","name":"triggerBatchJoinOnBehalf","inputs":[{"name":"potId","type":"uint256","internalType":"uint256"},{"name":"participants","type":"address[]","internalType":"address[]"}],"outputs":[],"stateMutability":"nonpayable"},{"type":"function","name":"triggerBatchPayout","inputs":[{"name":"potIds","type":"uint256[]","internalType":"uint256[]"}],"outputs":[],"stateMutability":"nonpayable"},{"type":"function","name":"triggerPotPayout","inputs":[{"name":"potId","type":"uint256","internalType":"uint256"}],"outputs":[],"stateMutability":"nonpayable"},{"type":"event","name":"AllowedParticipantAdded","inputs":[{"name":"potId","type":"uint256","indexed":true,"internalType":"uint256"},{"name":"user","type":"address","indexed":true,"internalType":"address"}],"anonymous":false},{"type":"event","name":"OwnershipTransferred","inputs":[{"name":"previousOwner","type":"address","indexed":true,"internalType":"address"},{"name":"newOwner","type":"address","indexed":true,"internalType":"address"}],"anonymous":false},{"type":"event","name":"PotAllowRequested","inputs":[{"name":"potId","type":"uint256","indexed":true,"internalType":"uint256"},{"name":"requestor","type":"address","indexed":true,"internalType":"address"}],"anonymous":false},{"type":"event","name":"PotCreated","inputs":[{"name":"potId","type":"uint256","indexed":true,"internalType":"uint256"},{"name":"creator","type":"address","indexed":true,"internalType":"address"}],"anonymous":false},{"type":"event","name":"PotEnded","inputs":[{"name":"potId","type":"uint256","indexed":true,"internalType":"uint256"}],"anonymous":false},{"type":"event","name":"PotJoined","inputs":[{"name":"potId","type":"uint256","indexed":true,"internalType":"uint256"},{"name":"roundId","type":"uint32","indexed":false,"internalType":"uint32"},{"name":"user","type":"address","indexed":true,"internalType":"address"}],"anonymous":false},{"type":"event","name":"PotPayout","inputs":[{"name":"potId","type":"uint256","indexed":true,"internalType":"uint256"},{"name":"winner","type":"address","indexed":true,"internalType":"address"},{"name":"amount","type":"uint256","indexed":false,"internalType":"uint256"},{"name":"round","type":"uint32","indexed":false,"internalType":"uint32"}],"anonymous":false},{"type":"error","name":"AlreadyJoined","inputs":[{"name":"potId","type":"uint256","internalType":"uint256"},{"name":"round","type":"uint32","internalType":"uint32"},{"name":"user","type":"address","internalType":"address"}]},{"type":"error","name":"EntryAmountZero","inputs":[]},{"type":"error","name":"InsufficientFundsToRollover","inputs":[{"name":"total","type":"uint256","internalType":"uint256"},{"name":"rollover","type":"uint256","internalType":"uint256"}]},{"type":"error","name":"NoEligibleParticipants","inputs":[]},{"type":"error","name":"NotAllParticipantsWon","inputs":[{"name":"potId","type":"uint256","internalType":"uint256"}]},{"type":"error","name":"NotAllowed","inputs":[{"name":"user","type":"address","internalType":"address"},{"name":"potId","type":"uint256","internalType":"uint256"}]},{"type":"error","name":"NotPotCreator","inputs":[{"name":"sender","type":"address","internalType":"address"},{"name":"potId","type":"uint256","internalType":"uint256"}]},{"type":"error","name":"OwnableInvalidOwner","inputs":[{"name":"owner","type":"address","internalType":"address"}]},{"type":"error","name":"OwnableUnauthorizedAccount","inputs":[{"name":"account","type":"address","internalType":"address"}]},{"type":"error","name":"PeriodTooShort","inputs":[]},{"type":"error","name":"PotDoesNotExist","inputs":[{"name":"potId","type":"uint256","internalType":"uint256"}]},{"type":"error","name":"PotFull","inputs":[{"name":"maxParticipants","type":"uint8","internalType":"uint8"}]},{"type":"error","name":"RoundEnded","inputs":[{"name":"deadline","type":"uint256","internalType":"uint256"},{"name":"nowTimestamp","type":"uint256","internalType":"uint256"}]},{"type":"error","name":"RoundNotReady","inputs":[{"name":"deadline","type":"uint256","internalType":"uint256"},{"name":"nowTimestamp","type":"uint256","internalType":"uint256"}]},{"type":"error","name":"SafeERC20FailedOperation","inputs":[{"name":"token","type":"address","internalType":"address"}]}],"bytecode":{"object":"0x608060405234801561000f575f5ffd5b50604051613b24380380613b2483398181016040528101906100319190610252565b335f73ffffffffffffffffffffffffffffffffffffffff168173ffffffffffffffffffffffffffffffffffffffff16036100a2575f6040517f1e4fbdf7000000000000000000000000000000000000000000000000000000008152600401610099919061029f565b60405180910390fd5b6100b18161010060201b60201c565b50816002819055508060035f6101000a81548173ffffffffffffffffffffffffffffffffffffffff021916908373ffffffffffffffffffffffffffffffffffffffff16021790555050506102b8565b5f5f5f9054906101000a900473ffffffffffffffffffffffffffffffffffffffff169050815f5f6101000a81548173ffffffffffffffffffffffffffffffffffffffff021916908373ffffffffffffffffffffffffffffffffffffffff1602179055508173ffffffffffffffffffffffffffffffffffffffff168173ffffffffffffffffffffffffffffffffffffffff167f8be0079c531659141344cd1fd0a4f28419497f9722a3daafe3b4186f6b6457e060405160405180910390a35050565b5f5ffd5b5f819050919050565b6101d7816101c5565b81146101e1575f5ffd5b50565b5f815190506101f2816101ce565b92915050565b5f73ffffffffffffffffffffffffffffffffffffffff82169050919050565b5f610221826101f8565b9050919050565b61023181610217565b811461023b575f5ffd5b50565b5f8151905061024c81610228565b92915050565b5f5f60408385031215610268576102676101c1565b5b5f610275858286016101e4565b92505060206102868582860161023e565b9150509250929050565b61029981610217565b82525050565b5f6020820190506102b25f830184610290565b92915050565b61385f806102c55f395ff3fe608060405234801561000f575f5ffd5b5060043610610171575f3560e01c80638da5cb5b116100dc578063cf72f23011610095578063e0321cd41161006f578063e0321cd414610450578063e90c88fe1461046c578063f0f4426014610488578063f2fde38b146104a457610171565b8063cf72f230146103e6578063d5e7882914610404578063de1149b31461043457610171565b80638da5cb5b146103095780639999fea014610327578063a88390dc14610343578063c1e3bd3e1461035f578063c3c3df4f1461038f578063c5072ca8146103ca57610171565b806365c7444d1161012e57806365c7444d1461024b5780636b7fd00714610267578063715018a6146102975780637a4f4436146102a1578063831d49ef146102d15780638661ffca146102ed57610171565b806312e8e2c31461017557806326232a2e146101915780632fd99712146101af5780635faa299a146101cb57806361734cd6146101fb57806361d027b31461022d575b5f5ffd5b61018f600480360381019061018a919061271d565b6104c0565b005b6101996104d2565b6040516101a69190612757565b60405180910390f35b6101c960048036038101906101c491906127d1565b6104d8565b005b6101e560048036038101906101e09190612876565b61051c565b6040516101f291906128ce565b60405180910390f35b610215600480360381019061021091906128e7565b610546565b604051610224939291906129a7565b60405180910390f35b6102356105b1565b60405161024291906129dc565b60405180910390f35b6102656004803603810190610260919061271d565b6105d6565b005b610281600480360381019061027c9190612a28565b610716565b60405161028e91906128ce565b60405180910390f35b61029f610733565b005b6102bb60048036038101906102b69190612a28565b610746565b6040516102c891906128ce565b60405180910390f35b6102eb60048036038101906102e6919061271d565b610763565b005b61030760048036038101906103029190612beb565b610c85565b005b61031161108d565b60405161031e91906129dc565b60405180910390f35b610341600480360381019061033c9190612876565b6110b4565b005b61035d600480360381019061035891906127d1565b61153c565b005b6103796004803603810190610374919061271d565b611580565b6040516103869190612d47565b60405180910390f35b6103a960048036038101906103a4919061271d565b61161f565b6040516103c19c9b9a99989796959493929190612df4565b60405180910390f35b6103e460048036038101906103df9190612f08565b611776565b005b6103ee611975565b6040516103fb9190612757565b60405180910390f35b61041e6004803603810190610419919061271d565b61197b565b60405161042b919061306b565b60405180910390f35b61044e60048036038101906104499190612f08565b611a80565b005b61046a6004803603810190610465919061271d565b611ad4565b005b6104866004803603810190610481919061271d565b611d50565b005b6104a2600480360381019061049d919061308b565b6122e6565b005b6104be60048036038101906104b9919061308b565b612331565b005b6104c86123b5565b8060028190555050565b60025481565b5f5f90505b828290508110156105175761050a8383838181106104fe576104fd6130b6565b5b90506020020135611ad4565b80806001019150506104dd565b505050565b6007602052815f5260405f20602052805f5260405f205f915091509054906101000a900460ff1681565b6008602052815f5260405f20818154811061055f575f80fd5b905f5260205f2090600302015f9150915050805f015f9054906101000a900473ffffffffffffffffffffffffffffffffffffffff1690806001015490806002015f9054906101000a900460ff16905083565b60035f9054906101000a900473ffffffffffffffffffffffffffffffffffffffff1681565b60085f8281526020019081526020015f2060405180606001604052803373ffffffffffffffffffffffffffffffffffffffff1681526020014281526020015f600281111561062757610626612934565b5b815250908060018154018082558091505060019003905f5260205f2090600302015f909190919091505f820151815f015f6101000a81548173ffffffffffffffffffffffffffffffffffffffff021916908373ffffffffffffffffffffffffffffffffffffffff160217905550602082015181600101556040820151816002015f6101000a81548160ff021916908360028111156106c8576106c7612934565b5b021790555050503373ffffffffffffffffffffffffffffffffffffffff16817f14a1608330df21406b2c36c4c92e47f22c9abd31d9df75abc4af2bdb477469bb60405160405180910390a350565b6006602052805f5260405f205f915054906101000a900460ff1681565b61073b6123b5565b6107445f61243c565b565b6005602052805f5260405f205f915054906101000a900460ff1681565b5f60045f8381526020019081526020015f2090505f8160050154036107bf57816040517f017e57a10000000000000000000000000000000000000000000000000000000081526004016107b69190612757565b60405180910390fd5b8060040154421061080d578060040154426040517f8868888c0000000000000000000000000000000000000000000000000000000081526004016108049291906130e3565b60405180910390fd5b8060090160049054906101000a900460ff1660ff1681600a01805490501015801561084c57505f8160090160049054906101000a900460ff1660ff1614155b1561089f578060090160049054906101000a900460ff166040517f969559d5000000000000000000000000000000000000000000000000000000008152600401610896919061310a565b60405180910390fd5b60075f8381526020019081526020015f205f3373ffffffffffffffffffffffffffffffffffffffff1673ffffffffffffffffffffffffffffffffffffffff1681526020019081526020015f205f9054906101000a900460ff16158015610913575080600b015f9054906101000a900460ff16155b156109575733826040517f8626cc0300000000000000000000000000000000000000000000000000000000815260040161094e929190613123565b60405180910390fd5b5f82826003015f9054906101000a900463ffffffff1633604051602001610980939291906131e3565b60405160208183030381529060405280519060200120905060055f8281526020019081526020015f205f9054906101000a900460ff1615610a0f5782826003015f9054906101000a900463ffffffff16336040517f0beb1aac000000000000000000000000000000000000000000000000000000008152600401610a069392919061321f565b60405180910390fd5b5f826003015f9054906101000a900463ffffffff1663ffffffff1603610a7657816009015f81819054906101000a900463ffffffff1680929190610a5290613281565b91906101000a81548163ffffffff021916908363ffffffff16021790555050610b21565b60055f846001856003015f9054906101000a900463ffffffff16610a9a91906132ac565b33604051602001610aad939291906131e3565b6040516020818303038152906040528051906020012081526020019081526020015f205f9054906101000a900460ff16610b205733836040517f8626cc03000000000000000000000000000000000000000000000000000000008152600401610b17929190613123565b60405180910390fd5b5b610b7533308460070154856006015f9054906101000a900473ffffffffffffffffffffffffffffffffffffffff1673ffffffffffffffffffffffffffffffffffffffff166124fd909392919063ffffffff16565b8160070154826005015f828254610b8c91906132e3565b9250508190555081600a0133908060018154018082558091505060019003905f5260205f20015f9091909190916101000a81548173ffffffffffffffffffffffffffffffffffffffff021916908373ffffffffffffffffffffffffffffffffffffffff160217905550600160055f8381526020019081526020015f205f6101000a81548160ff0219169083151502179055503373ffffffffffffffffffffffffffffffffffffffff16837f672d3f5897f7a8042cd8c8557caf58ece26929a410c3b1a66a34ccfd3460fcde846003015f9054906101000a900463ffffffff16604051610c789190613316565b60405180910390a3505050565b5f8403610cbe576040517f172bb87f00000000000000000000000000000000000000000000000000000000815260040160405180910390fd5b610e10821015610cfa576040517f9306857800000000000000000000000000000000000000000000000000000000815260040160405180910390fd5b610d4a3360035f9054906101000a900473ffffffffffffffffffffffffffffffffffffffff166002548873ffffffffffffffffffffffffffffffffffffffff166124fd909392919063ffffffff16565b610d773330868873ffffffffffffffffffffffffffffffffffffffff166124fd909392919063ffffffff16565b5f60015f815480929190610d8a9061332f565b9190505590505f60045f8381526020019081526020015f20905081815f018190555033816001015f6101000a81548173ffffffffffffffffffffffffffffffffffffffff021916908373ffffffffffffffffffffffffffffffffffffffff16021790555087816002019081610dff9190613573565b5086816006015f6101000a81548173ffffffffffffffffffffffffffffffffffffffff021916908373ffffffffffffffffffffffffffffffffffffffff1602179055508581600701819055508381600801819055506001816009015f6101000a81548163ffffffff021916908363ffffffff1602179055508342610e8391906132e3565b816004018190555085816005018190555080600a0133908060018154018082558091505060019003905f5260205f20015f9091909190916101000a81548173ffffffffffffffffffffffffffffffffffffffff021916908373ffffffffffffffffffffffffffffffffffffffff1602179055508281600b015f6101000a81548160ff021916908315150217905550848160090160046101000a81548160ff021916908360ff16021790555082610f9857600160075f8481526020019081526020015f205f3373ffffffffffffffffffffffffffffffffffffffff1673ffffffffffffffffffffffffffffffffffffffff1681526020019081526020015f205f6101000a81548160ff0219169083151502179055505b5f825f33604051602001610fae939291906131e3565b604051602081830303815290604052805190602001209050600160055f8381526020019081526020015f205f6101000a81548160ff0219169083151502179055503373ffffffffffffffffffffffffffffffffffffffff16837fde307469e0906e8d7a6e84aec39b533cfe12dd01b2737a0f785511261337231760405160405180910390a33373ffffffffffffffffffffffffffffffffffffffff16837f672d3f5897f7a8042cd8c8557caf58ece26929a410c3b1a66a34ccfd3460fcde5f60405161107a919061367b565b60405180910390a3505050505050505050565b5f5f5f9054906101000a900473ffffffffffffffffffffffffffffffffffffffff16905090565b5f60045f8481526020019081526020015f2090505f81600501540361111057826040517f017e57a10000000000000000000000000000000000000000000000000000000081526004016111079190612757565b60405180910390fd5b8060040154421061115e578060040154426040517f8868888c0000000000000000000000000000000000000000000000000000000081526004016111559291906130e3565b60405180910390fd5b60075f8481526020019081526020015f205f8373ffffffffffffffffffffffffffffffffffffffff1673ffffffffffffffffffffffffffffffffffffffff1681526020019081526020015f205f9054906101000a900460ff161580156111d2575080600b015f9054906101000a900460ff16155b156112165781836040517f8626cc0300000000000000000000000000000000000000000000000000000000815260040161120d929190613123565b60405180910390fd5b5f816003015f9054906101000a900463ffffffff1663ffffffff16036112755733836040517f8626cc0300000000000000000000000000000000000000000000000000000000815260040161126c929190613123565b60405180910390fd5b60055f846001846003015f9054906101000a900463ffffffff1661129991906132ac565b856040516020016112ac939291906131e3565b6040516020818303038152906040528051906020012081526020019081526020015f205f9054906101000a900460ff1661131f5781836040517f8626cc03000000000000000000000000000000000000000000000000000000008152600401611316929190613123565b60405180910390fd5b5f83826003015f9054906101000a900463ffffffff1684604051602001611348939291906131e3565b60405160208183030381529060405280519060200120905060055f8281526020019081526020015f205f9054906101000a900460ff16156113d75783826003015f9054906101000a900463ffffffff16846040517f0beb1aac0000000000000000000000000000000000000000000000000000000081526004016113ce9392919061321f565b60405180910390fd5b61142b83308460070154856006015f9054906101000a900473ffffffffffffffffffffffffffffffffffffffff1673ffffffffffffffffffffffffffffffffffffffff166124fd909392919063ffffffff16565b8160070154826005015f82825461144291906132e3565b9250508190555081600a0183908060018154018082558091505060019003905f5260205f20015f9091909190916101000a81548173ffffffffffffffffffffffffffffffffffffffff021916908373ffffffffffffffffffffffffffffffffffffffff160217905550600160055f8381526020019081526020015f205f6101000a81548160ff0219169083151502179055508273ffffffffffffffffffffffffffffffffffffffff16847f672d3f5897f7a8042cd8c8557caf58ece26929a410c3b1a66a34ccfd3460fcde846003015f9054906101000a900463ffffffff1660405161152e9190613316565b60405180910390a350505050565b5f5f90505b8282905081101561157b5761156e838383818110611562576115616130b6565b5b90506020020135611d50565b8080600101915050611541565b505050565b606060045f8381526020019081526020015f20600a0180548060200260200160405190810160405280929190818152602001828054801561161357602002820191905f5260205f20905b815f9054906101000a900473ffffffffffffffffffffffffffffffffffffffff1673ffffffffffffffffffffffffffffffffffffffff16815260200190600101908083116115ca575b50505050509050919050565b6004602052805f5260405f205f91509050805f015490806001015f9054906101000a900473ffffffffffffffffffffffffffffffffffffffff1690806002018054611669906133a3565b80601f0160208091040260200160405190810160405280929190818152602001828054611695906133a3565b80156116e05780601f106116b7576101008083540402835291602001916116e0565b820191905f5260205f20905b8154815290600101906020018083116116c357829003601f168201915b505050505090806003015f9054906101000a900463ffffffff1690806004015490806005015490806006015f9054906101000a900473ffffffffffffffffffffffffffffffffffffffff1690806007015490806008015490806009015f9054906101000a900463ffffffff16908060090160049054906101000a900460ff169080600b015f9054906101000a900460ff1690508c565b5f60045f8581526020019081526020015f209050806001015f9054906101000a900473ffffffffffffffffffffffffffffffffffffffff1673ffffffffffffffffffffffffffffffffffffffff163373ffffffffffffffffffffffffffffffffffffffff161461181f5733846040517f3872341e000000000000000000000000000000000000000000000000000000008152600401611816929190613123565b60405180910390fd5b5f5f90505b8383905081101561196e575f848483818110611843576118426130b6565b5b9050602002016020810190611858919061308b565b905060075f8781526020019081526020015f205f8273ffffffffffffffffffffffffffffffffffffffff1673ffffffffffffffffffffffffffffffffffffffff1681526020019081526020015f205f9054906101000a900460ff1661196057600160075f8881526020019081526020015f205f8373ffffffffffffffffffffffffffffffffffffffff1673ffffffffffffffffffffffffffffffffffffffff1681526020019081526020015f205f6101000a81548160ff0219169083151502179055508073ffffffffffffffffffffffffffffffffffffffff16867f1a93957e2514306f9c62a03c9d38f41d87e9192c4bff4ba40eb834d92c6c728060405160405180910390a35b508080600101915050611824565b5050505050565b60015481565b606060085f8381526020019081526020015f20805480602002602001604051908101604052809291908181526020015f905b82821015611a75578382905f5260205f2090600302016040518060600160405290815f82015f9054906101000a900473ffffffffffffffffffffffffffffffffffffffff1673ffffffffffffffffffffffffffffffffffffffff1673ffffffffffffffffffffffffffffffffffffffff16815260200160018201548152602001600282015f9054906101000a900460ff166002811115611a5057611a4f612934565b5b6002811115611a6257611a61612934565b5b81525050815260200190600101906119ad565b505050509050919050565b5f5f90505b82829050811015611ace57611ac184848484818110611aa757611aa66130b6565b5b9050602002016020810190611abc919061308b565b6110b4565b8080600101915050611a85565b50505050565b5f60045f8381526020019081526020015f2090505f816005015403611b3057816040517f017e57a1000000000000000000000000000000000000000000000000000000008152600401611b279190612757565b60405180910390fd5b8060040154421015611b7f578060040154426040517f3bd40433000000000000000000000000000000000000000000000000000000008152600401611b769291906130e3565b60405180910390fd5b5f5f90505b81600a0180549050811015611c645760065f8484600a018481548110611bad57611bac6130b6565b5b905f5260205f20015f9054906101000a900473ffffffffffffffffffffffffffffffffffffffff16604051602001611be6929190613694565b6040516020818303038152906040528051906020012081526020019081526020015f205f9054906101000a900460ff16611c5757826040517fd2471cf8000000000000000000000000000000000000000000000000000000008152600401611c4e9190612757565b60405180910390fd5b8080600101915050611b84565b505f81600501819055505f5f90505b81600a0180549050811015611d1e57611d1182600a018281548110611c9b57611c9a6130b6565b5b905f5260205f20015f9054906101000a900473ffffffffffffffffffffffffffffffffffffffff168360070154846006015f9054906101000a900473ffffffffffffffffffffffffffffffffffffffff1673ffffffffffffffffffffffffffffffffffffffff1661257f9092919063ffffffff16565b8080600101915050611c73565b50817f09f73e7c1cfe948731316069115856105587fb9681d754a0037165a8a8cfe1f760405160405180910390a25050565b5f60045f8381526020019081526020015f2090505f816005015403611dac57816040517f017e57a1000000000000000000000000000000000000000000000000000000008152600401611da39190612757565b60405180910390fd5b8060040154421015611dfb578060040154426040517f3bd40433000000000000000000000000000000000000000000000000000000008152600401611df29291906130e3565b60405180910390fd5b5f6001826009015f9054906101000a900463ffffffff16611e1c91906132ac565b63ffffffff16826003015f9054906101000a900463ffffffff1663ffffffff161490505f81611e4f578260070154611e51565b5f5b90505f8360050154905081811015611ea25780826040517f34699d23000000000000000000000000000000000000000000000000000000008152600401611e999291906130e3565b60405180910390fd5b5f8282611eaf91906136bf565b90505f42600143611ec091906136bf565b4088886003015f9054906101000a900463ffffffff1686604051602001611eeb959493929190613712565b6040516020818303038152906040528051906020012090505f86600a018054905090505f81835f1c611f1d919061379d565b90505f5f5f90505b83811015611fe5575f8a600a01858386611f3f91906132e3565b611f49919061379d565b81548110611f5a57611f596130b6565b5b905f5260205f20015f9054906101000a900473ffffffffffffffffffffffffffffffffffffffff16905060065f8d83604051602001611f9a929190613694565b6040516020818303038152906040528051906020012081526020019081526020015f205f9054906101000a900460ff16611fd75780925050611fe5565b508080600101915050611f25565b505f73ffffffffffffffffffffffffffffffffffffffff168173ffffffffffffffffffffffffffffffffffffffff160361204b576040517fd4e1e24000000000000000000000000000000000000000000000000000000000815260040160405180910390fd5b600160065f8c84604051602001612063929190613694565b6040516020818303038152906040528051906020012081526020019081526020015f205f6101000a81548160ff0219169083151502179055506120ea81868b6006015f9054906101000a900473ffffffffffffffffffffffffffffffffffffffff1673ffffffffffffffffffffffffffffffffffffffff1661257f9092919063ffffffff16565b5f896003015f81819054906101000a900463ffffffff1661210a90613281565b91906101000a81548163ffffffff021916908363ffffffff160217905590508173ffffffffffffffffffffffffffffffffffffffff168b7fc2518a56896ff30efc4b0de222d91241ad29d5e347b5dc1465e1f28bbc6c4ac28860018561217091906132ac565b60405161217e9291906137cd565b60405180910390a388156121a4575f8a60050181905550505050505050505050506122e3565b878a6005018190555089600a015f6121bc91906126a0565b89600a0182908060018154018082558091505060019003905f5260205f20015f9091909190916101000a81548173ffffffffffffffffffffffffffffffffffffffff021916908373ffffffffffffffffffffffffffffffffffffffff160217905550600160055f8d8486604051602001612238939291906131e3565b6040516020818303038152906040528051906020012081526020019081526020015f205f6101000a81548160ff0219169083151502179055508173ffffffffffffffffffffffffffffffffffffffff168b7f672d3f5897f7a8042cd8c8557caf58ece26929a410c3b1a66a34ccfd3460fcde836040516122b89190613316565b60405180910390a38960080154426122d091906132e3565b8a60040181905550505050505050505050505b50565b6122ee6123b5565b8060035f6101000a81548173ffffffffffffffffffffffffffffffffffffffff021916908373ffffffffffffffffffffffffffffffffffffffff16021790555050565b6123396123b5565b5f73ffffffffffffffffffffffffffffffffffffffff168173ffffffffffffffffffffffffffffffffffffffff16036123a9575f6040517f1e4fbdf70000000000000000000000000000000000000000000000000000000081526004016123a091906129dc565b60405180910390fd5b6123b28161243c565b50565b6123bd6125fe565b73ffffffffffffffffffffffffffffffffffffffff166123db61108d565b73ffffffffffffffffffffffffffffffffffffffff161461243a576123fe6125fe565b6040517f118cdaa700000000000000000000000000000000000000000000000000000000815260040161243191906129dc565b60405180910390fd5b565b5f5f5f9054906101000a900473ffffffffffffffffffffffffffffffffffffffff169050815f5f6101000a81548173ffffffffffffffffffffffffffffffffffffffff021916908373ffffffffffffffffffffffffffffffffffffffff1602179055508173ffffffffffffffffffffffffffffffffffffffff168173ffffffffffffffffffffffffffffffffffffffff167f8be0079c531659141344cd1fd0a4f28419497f9722a3daafe3b4186f6b6457e060405160405180910390a35050565b612579848573ffffffffffffffffffffffffffffffffffffffff166323b872dd868686604051602401612532939291906137f4565b604051602081830303815290604052915060e01b6020820180517bffffffffffffffffffffffffffffffffffffffffffffffffffffffff8381831617835250505050612605565b50505050565b6125f9838473ffffffffffffffffffffffffffffffffffffffff1663a9059cbb85856040516024016125b2929190613123565b604051602081830303815290604052915060e01b6020820180517bffffffffffffffffffffffffffffffffffffffffffffffffffffffff8381831617835250505050612605565b505050565b5f33905090565b5f5f60205f8451602086015f885af180612624576040513d5f823e3d81fd5b3d92505f519150505f821461263d576001811415612658565b5f8473ffffffffffffffffffffffffffffffffffffffff163b145b1561269a57836040517f5274afe700000000000000000000000000000000000000000000000000000000815260040161269191906129dc565b60405180910390fd5b50505050565b5080545f8255905f5260205f20908101906126bb91906126be565b50565b5b808211156126d5575f815f9055506001016126bf565b5090565b5f604051905090565b5f5ffd5b5f5ffd5b5f819050919050565b6126fc816126ea565b8114612706575f5ffd5b50565b5f81359050612717816126f3565b92915050565b5f60208284031215612732576127316126e2565b5b5f61273f84828501612709565b91505092915050565b612751816126ea565b82525050565b5f60208201905061276a5f830184612748565b92915050565b5f5ffd5b5f5ffd5b5f5ffd5b5f5f83601f84011261279157612790612770565b5b8235905067ffffffffffffffff8111156127ae576127ad612774565b5b6020830191508360208202830111156127ca576127c9612778565b5b9250929050565b5f5f602083850312156127e7576127e66126e2565b5b5f83013567ffffffffffffffff811115612804576128036126e6565b5b6128108582860161277c565b92509250509250929050565b5f73ffffffffffffffffffffffffffffffffffffffff82169050919050565b5f6128458261281c565b9050919050565b6128558161283b565b811461285f575f5ffd5b50565b5f813590506128708161284c565b92915050565b5f5f6040838503121561288c5761288b6126e2565b5b5f61289985828601612709565b92505060206128aa85828601612862565b9150509250929050565b5f8115159050919050565b6128c8816128b4565b82525050565b5f6020820190506128e15f8301846128bf565b92915050565b5f5f604083850312156128fd576128fc6126e2565b5b5f61290a85828601612709565b925050602061291b85828601612709565b9150509250929050565b61292e8161283b565b82525050565b7f4e487b71000000000000000000000000000000000000000000000000000000005f52602160045260245ffd5b6003811061297257612971612934565b5b50565b5f81905061298282612961565b919050565b5f61299182612975565b9050919050565b6129a181612987565b82525050565b5f6060820190506129ba5f830186612925565b6129c76020830185612748565b6129d46040830184612998565b949350505050565b5f6020820190506129ef5f830184612925565b92915050565b5f819050919050565b612a07816129f5565b8114612a11575f5ffd5b50565b5f81359050612a22816129fe565b92915050565b5f60208284031215612a3d57612a3c6126e2565b5b5f612a4a84828501612a14565b91505092915050565b5f5ffd5b5f601f19601f8301169050919050565b7f4e487b71000000000000000000000000000000000000000000000000000000005f52604160045260245ffd5b612a9d82612a57565b810181811067ffffffffffffffff82111715612abc57612abb612a67565b5b80604052505050565b5f612ace6126d9565b9050612ada8282612a94565b919050565b5f67ffffffffffffffff821115612af957612af8612a67565b5b612b0282612a57565b9050602081019050919050565b828183375f83830152505050565b5f612b2f612b2a84612adf565b612ac5565b905082815260208101848484011115612b4b57612b4a612a53565b5b612b56848285612b0f565b509392505050565b5f82601f830112612b7257612b71612770565b5b8135612b82848260208601612b1d565b91505092915050565b5f60ff82169050919050565b612ba081612b8b565b8114612baa575f5ffd5b50565b5f81359050612bbb81612b97565b92915050565b612bca816128b4565b8114612bd4575f5ffd5b50565b5f81359050612be581612bc1565b92915050565b5f5f5f5f5f5f60c08789031215612c0557612c046126e2565b5b5f87013567ffffffffffffffff811115612c2257612c216126e6565b5b612c2e89828a01612b5e565b9650506020612c3f89828a01612862565b9550506040612c5089828a01612709565b9450506060612c6189828a01612bad565b9350506080612c7289828a01612709565b92505060a0612c8389828a01612bd7565b9150509295509295509295565b5f81519050919050565b5f82825260208201905092915050565b5f819050602082019050919050565b612cc28161283b565b82525050565b5f612cd38383612cb9565b60208301905092915050565b5f602082019050919050565b5f612cf582612c90565b612cff8185612c9a565b9350612d0a83612caa565b805f5b83811015612d3a578151612d218882612cc8565b9750612d2c83612cdf565b925050600181019050612d0d565b5085935050505092915050565b5f6020820190508181035f830152612d5f8184612ceb565b905092915050565b5f81519050919050565b5f82825260208201905092915050565b8281835e5f83830152505050565b5f612d9982612d67565b612da38185612d71565b9350612db3818560208601612d81565b612dbc81612a57565b840191505092915050565b5f63ffffffff82169050919050565b612ddf81612dc7565b82525050565b612dee81612b8b565b82525050565b5f61018082019050612e085f83018f612748565b612e15602083018e612925565b8181036040830152612e27818d612d8f565b9050612e36606083018c612dd6565b612e43608083018b612748565b612e5060a083018a612748565b612e5d60c0830189612925565b612e6a60e0830188612748565b612e78610100830187612748565b612e86610120830186612dd6565b612e94610140830185612de5565b612ea26101608301846128bf565b9d9c50505050505050505050505050565b5f5f83601f840112612ec857612ec7612770565b5b8235905067ffffffffffffffff811115612ee557612ee4612774565b5b602083019150836020820283011115612f0157612f00612778565b5b9250929050565b5f5f5f60408486031215612f1f57612f1e6126e2565b5b5f612f2c86828701612709565b935050602084013567ffffffffffffffff811115612f4d57612f4c6126e6565b5b612f5986828701612eb3565b92509250509250925092565b5f81519050919050565b5f82825260208201905092915050565b5f819050602082019050919050565b612f97816126ea565b82525050565b612fa681612987565b82525050565b606082015f820151612fc05f850182612cb9565b506020820151612fd36020850182612f8e565b506040820151612fe66040850182612f9d565b50505050565b5f612ff78383612fac565b60608301905092915050565b5f602082019050919050565b5f61301982612f65565b6130238185612f6f565b935061302e83612f7f565b805f5b8381101561305e5781516130458882612fec565b975061305083613003565b925050600181019050613031565b5085935050505092915050565b5f6020820190508181035f830152613083818461300f565b905092915050565b5f602082840312156130a05761309f6126e2565b5b5f6130ad84828501612862565b91505092915050565b7f4e487b71000000000000000000000000000000000000000000000000000000005f52603260045260245ffd5b5f6040820190506130f65f830185612748565b6131036020830184612748565b9392505050565b5f60208201905061311d5f830184612de5565b92915050565b5f6040820190506131365f830185612925565b6131436020830184612748565b9392505050565b5f819050919050565b61316461315f826126ea565b61314a565b82525050565b5f8160e01b9050919050565b5f6131808261316a565b9050919050565b61319861319382612dc7565b613176565b82525050565b5f8160601b9050919050565b5f6131b48261319e565b9050919050565b5f6131c5826131aa565b9050919050565b6131dd6131d88261283b565b6131bb565b82525050565b5f6131ee8286613153565b6020820191506131fe8285613187565b60048201915061320e82846131cc565b601482019150819050949350505050565b5f6060820190506132325f830186612748565b61323f6020830185612dd6565b61324c6040830184612925565b949350505050565b7f4e487b71000000000000000000000000000000000000000000000000000000005f52601160045260245ffd5b5f61328b82612dc7565b915063ffffffff82036132a1576132a0613254565b5b600182019050919050565b5f6132b682612dc7565b91506132c183612dc7565b9250828203905063ffffffff8111156132dd576132dc613254565b5b92915050565b5f6132ed826126ea565b91506132f8836126ea565b92508282019050808211156133105761330f613254565b5b92915050565b5f6020820190506133295f830184612dd6565b92915050565b5f613339826126ea565b91507fffffffffffffffffffffffffffffffffffffffffffffffffffffffffffffffff820361336b5761336a613254565b5b600182019050919050565b7f4e487b71000000000000000000000000000000000000000000000000000000005f52602260045260245ffd5b5f60028204905060018216806133ba57607f821691505b6020821081036133cd576133cc613376565b5b50919050565b5f819050815f5260205f209050919050565b5f6020601f8301049050919050565b5f82821b905092915050565b5f6008830261342f7fffffffffffffffffffffffffffffffffffffffffffffffffffffffffffffffff826133f4565b61343986836133f4565b95508019841693508086168417925050509392505050565b5f819050919050565b5f61347461346f61346a846126ea565b613451565b6126ea565b9050919050565b5f819050919050565b61348d8361345a565b6134a16134998261347b565b848454613400565b825550505050565b5f5f905090565b6134b86134a9565b6134c3818484613484565b505050565b5b818110156134e6576134db5f826134b0565b6001810190506134c9565b5050565b601f82111561352b576134fc816133d3565b613505846133e5565b81016020851015613514578190505b613528613520856133e5565b8301826134c8565b50505b505050565b5f82821c905092915050565b5f61354b5f1984600802613530565b1980831691505092915050565b5f613563838361353c565b9150826002028217905092915050565b61357c82612d67565b67ffffffffffffffff81111561359557613594612a67565b5b61359f82546133a3565b6135aa8282856134ea565b5f60209050601f8311600181146135db575f84156135c9578287015190505b6135d38582613558565b86555061363a565b601f1984166135e9866133d3565b5f5b82811015613610578489015182556001820191506020850194506020810190506135eb565b8683101561362d5784890151613629601f89168261353c565b8355505b6001600288020188555050505b505050505050565b5f819050919050565b5f61366561366061365b84613642565b613451565b612dc7565b9050919050565b6136758161364b565b82525050565b5f60208201905061368e5f83018461366c565b92915050565b5f61369f8285613153565b6020820191506136af82846131cc565b6014820191508190509392505050565b5f6136c9826126ea565b91506136d4836126ea565b92508282039050818111156136ec576136eb613254565b5b92915050565b5f819050919050565b61370c613707826129f5565b6136f2565b82525050565b5f61371d8288613153565b60208201915061372d82876136fb565b60208201915061373d8286613153565b60208201915061374d8285613187565b60048201915061375d8284613153565b6020820191508190509695505050505050565b7f4e487b71000000000000000000000000000000000000000000000000000000005f52601260045260245ffd5b5f6137a7826126ea565b91506137b2836126ea565b9250826137c2576137c1613770565b5b828206905092915050565b5f6040820190506137e05f830185612748565b6137ed6020830184612dd6565b9392505050565b5f6060820190506138075f830186612925565b6138146020830185612925565b6138216040830184612748565b94935050505056fea2646970667358221220732522506c8c44108b62849fe12abe8051087e07b312c4ece4b3cee467c193b664736f6c634300081c0033","linkReferences":{}},"methodIdentifiers":{"allowParticipants(uint256,address[])":"c5072ca8","createPot(bytes,address,uint256,uint8,uint256,bool)":"8661ffca","endBatch(uint256[])":"2fd99712","endPot(uint256)":"e0321cd4","getParticipants(uint256)":"c1e3bd3e","getRequests(uint256)":"d5e78829","hasJoinedRound(bytes32)":"7a4f4436","hasWon(bytes32)":"6b7fd007","isAllowed(uint256,address)":"5faa299a","joinOnBehalf(uint256,address)":"9999fea0","joinPot(uint256)":"831d49ef","owner()":"8da5cb5b","platformFee()":"26232a2e","potCount()":"cf72f230","pots(uint256)":"c3c3df4f","renounceOwnership()":"715018a6","requestPotAllow(uint256)":"65c7444d","requestedParticipants(uint256,uint256)":"61734cd6","setPlatformFee(uint256)":"12e8e2c3","setTreasury(address)":"f0f44260","transferOwnership(address)":"f2fde38b","treasury()":"61d027b3","triggerBatchJoinOnBehalf(uint256,address[])":"de1149b3","triggerBatchPayout(uint256[])":"a88390dc","triggerPotPayout(uint256)":"e90c88fe"},"id":8}