{"abi":[{"type":"constructor","inputs":[{"name":"_platformFee","type":"uint256","internalType":"uint256"},{"name":"_treasury","type":"address","internalType":"address"}],"stateMutability":"nonpayable"},{"type":"function","name":"allowParticipants","inputs":[{"name":"potId","type":"uint256","internalType":"uint256"},{"name":"participants","type":"address[]","internalType":"address[]"}],"outputs":[],"stateMutability":"nonpayable"},{"type":"function","name":"allowedParticipants","inputs":[{"name":"","type":"uint256","internalType":"uint256"},{"name":"","type":"uint256","internalType":"uint256"}],"outputs":[{"name":"","type":"address","internalType":"address"}],"stateMutability":"view"},{"type":"function","name":"cancelPotAllowRequest","inputs":[{"name":"potId","type":"uint256","internalType":"uint256"},{"name":"requestIndex","type":"uint256","internalType":"uint256"}],"outputs":[],"stateMutability":"nonpayable"},{"type":"function","name":"createPot","inputs":[{"name":"name","type":"bytes","internalType":"bytes"},{"name":"token","type":"address","internalType":"address"},{"name":"entryAmount","type":"uint256","internalType":"uint256"},{"name":"maxParticipants","type":"uint8","internalType":"uint8"},{"name":"periodSeconds","type":"uint256","internalType":"uint256"},{"name":"isPublic","type":"bool","internalType":"bool"}],"outputs":[],"stateMutability":"nonpayable"},{"type":"function","name":"getAllowedParticipants","inputs":[{"name":"potId","type":"uint256","internalType":"uint256"}],"outputs":[{"name":"","type":"address[]","internalType":"address[]"}],"stateMutability":"view"},{"type":"function","name":"getParticipants","inputs":[{"name":"potId","type":"uint256","internalType":"uint256"}],"outputs":[{"name":"","type":"address[]","internalType":"address[]"}],"stateMutability":"view"},{"type":"function","name":"getRequests","inputs":[{"name":"potId","type":"uint256","internalType":"uint256"}],"outputs":[{"name":"","type":"tuple[]","internalType":"struct Potluck.PotRequest[]","components":[{"name":"requestor","type":"address","internalType":"address"},{"name":"timestamp","type":"uint256","internalType":"uint256"},{"name":"status","type":"uint8","internalType":"enum Potluck.PotStatus"}]}],"stateMutability":"view"},{"type":"function","name":"hasJoinedRound","inputs":[{"name":"","type":"bytes32","internalType":"bytes32"}],"outputs":[{"name":"","type":"bool","internalType":"bool"}],"stateMutability":"view"},{"type":"function","name":"hasWon","inputs":[{"name":"","type":"bytes32","internalType":"bytes32"}],"outputs":[{"name":"","type":"bool","internalType":"bool"}],"stateMutability":"view"},{"type":"function","name":"isAllowed","inputs":[{"name":"","type":"uint256","internalType":"uint256"},{"name":"","type":"address","internalType":"address"}],"outputs":[{"name":"","type":"bool","internalType":"bool"}],"stateMutability":"view"},{"type":"function","name":"joinPot","inputs":[{"name":"potId","type":"uint256","internalType":"uint256"}],"outputs":[],"stateMutability":"nonpayable"},{"type":"function","name":"owner","inputs":[],"outputs":[{"name":"","type":"address","internalType":"address"}],"stateMutability":"view"},{"type":"function","name":"platformFee","inputs":[],"outputs":[{"name":"","type":"uint256","internalType":"uint256"}],"stateMutability":"view"},{"type":"function","name":"potCount","inputs":[],"outputs":[{"name":"","type":"uint256","internalType":"uint256"}],"stateMutability":"view"},{"type":"function","name":"pots","inputs":[{"name":"","type":"uint256","internalType":"uint256"}],"outputs":[{"name":"id","type":"uint256","internalType":"uint256"},{"name":"name","type":"bytes","internalType":"bytes"},{"name":"round","type":"uint32","internalType":"uint32"},{"name":"deadline","type":"uint256","internalType":"uint256"},{"name":"balance","type":"uint256","internalType":"uint256"},{"name":"token","type":"address","internalType":"address"},{"name":"entryAmount","type":"uint256","internalType":"uint256"},{"name":"period","type":"uint256","internalType":"uint256"},{"name":"totalParticipants","type":"uint32","internalType":"uint32"},{"name":"maxParticipants","type":"uint8","internalType":"uint8"},{"name":"isPublic","type":"bool","internalType":"bool"}],"stateMutability":"view"},{"type":"function","name":"renounceOwnership","inputs":[],"outputs":[],"stateMutability":"nonpayable"},{"type":"function","name":"requestPotAllow","inputs":[{"name":"potId","type":"uint256","internalType":"uint256"}],"outputs":[],"stateMutability":"nonpayable"},{"type":"function","name":"requestedParticipants","inputs":[{"name":"","type":"uint256","internalType":"uint256"},{"name":"","type":"uint256","internalType":"uint256"}],"outputs":[{"name":"requestor","type":"address","internalType":"address"},{"name":"timestamp","type":"uint256","internalType":"uint256"},{"name":"status","type":"uint8","internalType":"enum Potluck.PotStatus"}],"stateMutability":"view"},{"type":"function","name":"setPlatformFee","inputs":[{"name":"fee","type":"uint256","internalType":"uint256"}],"outputs":[],"stateMutability":"nonpayable"},{"type":"function","name":"setTreasury","inputs":[{"name":"newTreasury","type":"address","internalType":"address"}],"outputs":[],"stateMutability":"nonpayable"},{"type":"function","name":"transferOwnership","inputs":[{"name":"newOwner","type":"address","internalType":"address"}],"outputs":[],"stateMutability":"nonpayable"},{"type":"function","name":"treasury","inputs":[],"outputs":[{"name":"","type":"address","internalType":"address"}],"stateMutability":"view"},{"type":"function","name":"triggerBatchPayout","inputs":[{"name":"potIds","type":"uint256[]","internalType":"uint256[]"}],"outputs":[],"stateMutability":"nonpayable"},{"type":"function","name":"triggerPotPayout","inputs":[{"name":"potId","type":"uint256","internalType":"uint256"}],"outputs":[],"stateMutability":"nonpayable"},{"type":"event","name":"AllowedParticipantAdded","inputs":[{"name":"potId","type":"uint256","indexed":true,"internalType":"uint256"},{"name":"user","type":"address","indexed":true,"internalType":"address"}],"anonymous":false},{"type":"event","name":"OwnershipTransferred","inputs":[{"name":"previousOwner","type":"address","indexed":true,"internalType":"address"},{"name":"newOwner","type":"address","indexed":true,"internalType":"address"}],"anonymous":false},{"type":"event","name":"PotAllowRequested","inputs":[{"name":"potId","type":"uint256","indexed":true,"internalType":"uint256"},{"name":"requestor","type":"address","indexed":true,"internalType":"address"}],"anonymous":false},{"type":"event","name":"PotCreated","inputs":[{"name":"potId","type":"uint256","indexed":true,"internalType":"uint256"},{"name":"creator","type":"address","indexed":true,"internalType":"address"}],"anonymous":false},{"type":"event","name":"PotJoined","inputs":[{"name":"potId","type":"uint256","indexed":true,"internalType":"uint256"},{"name":"roundId","type":"uint32","indexed":false,"internalType":"uint32"},{"name":"user","type":"address","indexed":true,"internalType":"address"}],"anonymous":false},{"type":"event","name":"PotPayout","inputs":[{"name":"potId","type":"uint256","indexed":true,"internalType":"uint256"},{"name":"winner","type":"address","indexed":true,"internalType":"address"},{"name":"amount","type":"uint256","indexed":false,"internalType":"uint256"},{"name":"round","type":"uint32","indexed":false,"internalType":"uint32"}],"anonymous":false},{"type":"error","name":"AlreadyJoined","inputs":[{"name":"potId","type":"uint256","internalType":"uint256"},{"name":"round","type":"uint32","internalType":"uint32"},{"name":"user","type":"address","internalType":"address"}]},{"type":"error","name":"EntryAmountZero","inputs":[]},{"type":"error","name":"InsufficientFundsToRollover","inputs":[{"name":"total","type":"uint256","internalType":"uint256"},{"name":"rollover","type":"uint256","internalType":"uint256"}]},{"type":"error","name":"NoEligibleParticipants","inputs":[]},{"type":"error","name":"NotAllowed","inputs":[{"name":"user","type":"address","internalType":"address"},{"name":"potId","type":"uint256","internalType":"uint256"}]},{"type":"error","name":"NotPotCreator","inputs":[{"name":"sender","type":"address","internalType":"address"},{"name":"potId","type":"uint256","internalType":"uint256"}]},{"type":"error","name":"OwnableInvalidOwner","inputs":[{"name":"owner","type":"address","internalType":"address"}]},{"type":"error","name":"OwnableUnauthorizedAccount","inputs":[{"name":"account","type":"address","internalType":"address"}]},{"type":"error","name":"PeriodTooShort","inputs":[]},{"type":"error","name":"PotDoesNotExist","inputs":[{"name":"potId","type":"uint256","internalType":"uint256"}]},{"type":"error","name":"PotFull","inputs":[{"name":"maxParticipants","type":"uint8","internalType":"uint8"}]},{"type":"error","name":"RoundEnded","inputs":[{"name":"deadline","type":"uint256","internalType":"uint256"},{"name":"nowTimestamp","type":"uint256","internalType":"uint256"}]},{"type":"error","name":"RoundNotReady","inputs":[{"name":"deadline","type":"uint256","internalType":"uint256"},{"name":"nowTimestamp","type":"uint256","internalType":"uint256"}]},{"type":"error","name":"SafeERC20FailedOperation","inputs":[{"name":"token","type":"address","internalType":"address"}]}],"bytecode":{"object":"0x608060405234801561000f575f5ffd5b506040516136a33803806136a383398181016040528101906100319190610252565b335f73ffffffffffffffffffffffffffffffffffffffff168173ffffffffffffffffffffffffffffffffffffffff16036100a2575f6040517f1e4fbdf7000000000000000000000000000000000000000000000000000000008152600401610099919061029f565b60405180910390fd5b6100b18161010060201b60201c565b50816002819055508060035f6101000a81548173ffffffffffffffffffffffffffffffffffffffff021916908373ffffffffffffffffffffffffffffffffffffffff16021790555050506102b8565b5f5f5f9054906101000a900473ffffffffffffffffffffffffffffffffffffffff169050815f5f6101000a81548173ffffffffffffffffffffffffffffffffffffffff021916908373ffffffffffffffffffffffffffffffffffffffff1602179055508173ffffffffffffffffffffffffffffffffffffffff168173ffffffffffffffffffffffffffffffffffffffff167f8be0079c531659141344cd1fd0a4f28419497f9722a3daafe3b4186f6b6457e060405160405180910390a35050565b5f5ffd5b5f819050919050565b6101d7816101c5565b81146101e1575f5ffd5b50565b5f815190506101f2816101ce565b92915050565b5f73ffffffffffffffffffffffffffffffffffffffff82169050919050565b5f610221826101f8565b9050919050565b61023181610217565b811461023b575f5ffd5b50565b5f8151905061024c81610228565b92915050565b5f5f60408385031215610268576102676101c1565b5b5f610275858286016101e4565b92505060206102868582860161023e565b9150509250929050565b61029981610217565b82525050565b5f6020820190506102b25f830184610290565b92915050565b6133de806102c55f395ff3fe608060405234801561000f575f5ffd5b5060043610610156575f3560e01c80638661ffca116100c1578063c5072ca81161007a578063c5072ca8146103f2578063cf72f2301461040e578063d5e788291461042c578063e90c88fe1461045c578063f0f4426014610478578063f2fde38b1461049457610156565b80638661ffca146103025780638da5cb5b1461031e578063a6da5bca1461033c578063a88390dc1461036c578063c1e3bd3e14610388578063c3c3df4f146103b857610156565b8063640e4b7c11610113578063640e4b7c1461023057806365c7444d146102605780636b7fd0071461027c578063715018a6146102ac5780637a4f4436146102b6578063831d49ef146102e657610156565b806312e8e2c31461015a57806326232a2e146101765780634fc88b86146101945780635faa299a146101b057806361734cd6146101e057806361d027b314610212575b5f5ffd5b610174600480360381019061016f91906122ab565b6104b0565b005b61017e6104c2565b60405161018b91906122e5565b60405180910390f35b6101ae60048036038101906101a991906122fe565b6104c8565b005b6101ca60048036038101906101c59190612396565b61067e565b6040516101d791906123ee565b60405180910390f35b6101fa60048036038101906101f591906122fe565b6106a8565b60405161020993929190612489565b60405180910390f35b61021a610713565b60405161022791906124be565b60405180910390f35b61024a600480360381019061024591906122ab565b610738565b604051610257919061258e565b60405180910390f35b61027a600480360381019061027591906122ab565b6107d4565b005b610296600480360381019061029191906125e1565b610914565b6040516102a391906123ee565b60405180910390f35b6102b4610931565b005b6102d060048036038101906102cb91906125e1565b610944565b6040516102dd91906123ee565b60405180910390f35b61030060048036038101906102fb91906122ab565b610961565b005b61031c600480360381019061031791906127a8565b610e83565b005b6103266112b8565b60405161033391906124be565b60405180910390f35b610356600480360381019061035191906122fe565b6112df565b60405161036391906124be565b60405180910390f35b610386600480360381019061038191906128aa565b611327565b005b6103a2600480360381019061039d91906122ab565b61136b565b6040516103af919061258e565b60405180910390f35b6103d260048036038101906103cd91906122ab565b61140a565b6040516103e99b9a99989796959493929190612982565b60405180910390f35b61040c60048036038101906104079190612a87565b61153c565b005b6104166117c4565b60405161042391906122e5565b60405180910390f35b610446600480360381019061044191906122ab565b6117ca565b6040516104539190612bea565b60405180910390f35b610476600480360381019061047191906122ab565b6118cf565b005b610492600480360381019061048d9190612c0a565b611e74565b005b6104ae60048036038101906104a99190612c0a565b611ebf565b005b6104b8611f43565b8060028190555050565b60025481565b5f60095f8481526020019081526020015f2082815481106104ec576104eb612c35565b5b905f5260205f2090600302019050805f015f9054906101000a900473ffffffffffffffffffffffffffffffffffffffff1673ffffffffffffffffffffffffffffffffffffffff163373ffffffffffffffffffffffffffffffffffffffff161461058e5733836040517f8626cc03000000000000000000000000000000000000000000000000000000008152600401610585929190612c62565b60405180910390fd5b60045f8481526020019081526020015f206009015f815481106105b4576105b3612c35565b5b905f5260205f20015f9054906101000a900473ffffffffffffffffffffffffffffffffffffffff1673ffffffffffffffffffffffffffffffffffffffff163373ffffffffffffffffffffffffffffffffffffffff161461064d5733836040517f3872341e000000000000000000000000000000000000000000000000000000008152600401610644929190612c62565b60405180910390fd5b6002816002015f6101000a81548160ff0219169083600281111561067457610673612416565b5b0217905550505050565b6007602052815f5260405f20602052805f5260405f205f915091509054906101000a900460ff1681565b6009602052815f5260405f2081815481106106c1575f80fd5b905f5260205f2090600302015f9150915050805f015f9054906101000a900473ffffffffffffffffffffffffffffffffffffffff1690806001015490806002015f9054906101000a900460ff16905083565b60035f9054906101000a900473ffffffffffffffffffffffffffffffffffffffff1681565b606060085f8381526020019081526020015f208054806020026020016040519081016040528092919081815260200182805480156107c857602002820191905f5260205f20905b815f9054906101000a900473ffffffffffffffffffffffffffffffffffffffff1673ffffffffffffffffffffffffffffffffffffffff168152602001906001019080831161077f575b50505050509050919050565b60095f8281526020019081526020015f2060405180606001604052803373ffffffffffffffffffffffffffffffffffffffff1681526020014281526020015f600281111561082557610824612416565b5b815250908060018154018082558091505060019003905f5260205f2090600302015f909190919091505f820151815f015f6101000a81548173ffffffffffffffffffffffffffffffffffffffff021916908373ffffffffffffffffffffffffffffffffffffffff160217905550602082015181600101556040820151816002015f6101000a81548160ff021916908360028111156108c6576108c5612416565b5b021790555050503373ffffffffffffffffffffffffffffffffffffffff16817f14a1608330df21406b2c36c4c92e47f22c9abd31d9df75abc4af2bdb477469bb60405160405180910390a350565b6006602052805f5260405f205f915054906101000a900460ff1681565b610939611f43565b6109425f611fca565b565b6005602052805f5260405f205f915054906101000a900460ff1681565b5f60045f8381526020019081526020015f2090505f8160040154036109bd57816040517f017e57a10000000000000000000000000000000000000000000000000000000081526004016109b491906122e5565b60405180910390fd5b80600301544210610a0b578060030154426040517f8868888c000000000000000000000000000000000000000000000000000000008152600401610a02929190612c89565b60405180910390fd5b8060080160049054906101000a900460ff1660ff16816009018054905010158015610a4a57505f8160080160049054906101000a900460ff1660ff1614155b15610a9d578060080160049054906101000a900460ff166040517f969559d5000000000000000000000000000000000000000000000000000000008152600401610a949190612cb0565b60405180910390fd5b60075f8381526020019081526020015f205f3373ffffffffffffffffffffffffffffffffffffffff1673ffffffffffffffffffffffffffffffffffffffff1681526020019081526020015f205f9054906101000a900460ff16158015610b11575080600a015f9054906101000a900460ff16155b15610b555733826040517f8626cc03000000000000000000000000000000000000000000000000000000008152600401610b4c929190612c62565b60405180910390fd5b5f82826002015f9054906101000a900463ffffffff1633604051602001610b7e93929190612d62565b60405160208183030381529060405280519060200120905060055f8281526020019081526020015f205f9054906101000a900460ff1615610c0d5782826002015f9054906101000a900463ffffffff16336040517f0beb1aac000000000000000000000000000000000000000000000000000000008152600401610c0493929190612d9e565b60405180910390fd5b5f826002015f9054906101000a900463ffffffff1663ffffffff1603610c7457816008015f81819054906101000a900463ffffffff1680929190610c5090612e00565b91906101000a81548163ffffffff021916908363ffffffff16021790555050610d1f565b60055f846001856002015f9054906101000a900463ffffffff16610c989190612e2b565b33604051602001610cab93929190612d62565b6040516020818303038152906040528051906020012081526020019081526020015f205f9054906101000a900460ff16610d1e5733836040517f8626cc03000000000000000000000000000000000000000000000000000000008152600401610d15929190612c62565b60405180910390fd5b5b610d7333308460060154856005015f9054906101000a900473ffffffffffffffffffffffffffffffffffffffff1673ffffffffffffffffffffffffffffffffffffffff1661208b909392919063ffffffff16565b8160060154826004015f828254610d8a9190612e62565b925050819055508160090133908060018154018082558091505060019003905f5260205f20015f9091909190916101000a81548173ffffffffffffffffffffffffffffffffffffffff021916908373ffffffffffffffffffffffffffffffffffffffff160217905550600160055f8381526020019081526020015f205f6101000a81548160ff0219169083151502179055503373ffffffffffffffffffffffffffffffffffffffff16837f672d3f5897f7a8042cd8c8557caf58ece26929a410c3b1a66a34ccfd3460fcde846002015f9054906101000a900463ffffffff16604051610e769190612e95565b60405180910390a3505050565b5f8403610ebc576040517f172bb87f00000000000000000000000000000000000000000000000000000000815260040160405180910390fd5b610e10821015610ef8576040517f9306857800000000000000000000000000000000000000000000000000000000815260040160405180910390fd5b610f483360035f9054906101000a900473ffffffffffffffffffffffffffffffffffffffff166002548873ffffffffffffffffffffffffffffffffffffffff1661208b909392919063ffffffff16565b610f753330868873ffffffffffffffffffffffffffffffffffffffff1661208b909392919063ffffffff16565b5f60015f815480929190610f8890612eae565b9190505590505f60045f8381526020019081526020015f20905081815f018190555087816001019081610fbb91906130f2565b5086816005015f6101000a81548173ffffffffffffffffffffffffffffffffffffffff021916908373ffffffffffffffffffffffffffffffffffffffff1602179055508581600601819055508381600701819055506001816008015f6101000a81548163ffffffff021916908363ffffffff160217905550834261103f9190612e62565b81600301819055508581600401819055508060090133908060018154018082558091505060019003905f5260205f20015f9091909190916101000a81548173ffffffffffffffffffffffffffffffffffffffff021916908373ffffffffffffffffffffffffffffffffffffffff1602179055508281600a015f6101000a81548160ff021916908315150217905550848160080160046101000a81548160ff021916908360ff160217905550826111c357600160075f8481526020019081526020015f205f3373ffffffffffffffffffffffffffffffffffffffff1673ffffffffffffffffffffffffffffffffffffffff1681526020019081526020015f205f6101000a81548160ff02191690831515021790555060085f8381526020019081526020015f2033908060018154018082558091505060019003905f5260205f20015f9091909190916101000a81548173ffffffffffffffffffffffffffffffffffffffff021916908373ffffffffffffffffffffffffffffffffffffffff1602179055505b5f825f336040516020016111d993929190612d62565b604051602081830303815290604052805190602001209050600160055f8381526020019081526020015f205f6101000a81548160ff0219169083151502179055503373ffffffffffffffffffffffffffffffffffffffff16837fde307469e0906e8d7a6e84aec39b533cfe12dd01b2737a0f785511261337231760405160405180910390a33373ffffffffffffffffffffffffffffffffffffffff16837f672d3f5897f7a8042cd8c8557caf58ece26929a410c3b1a66a34ccfd3460fcde5f6040516112a591906131fa565b60405180910390a3505050505050505050565b5f5f5f9054906101000a900473ffffffffffffffffffffffffffffffffffffffff16905090565b6008602052815f5260405f2081815481106112f8575f80fd5b905f5260205f20015f915091509054906101000a900473ffffffffffffffffffffffffffffffffffffffff1681565b5f5f90505b828290508110156113665761135983838381811061134d5761134c612c35565b5b905060200201356118cf565b808060010191505061132c565b505050565b606060045f8381526020019081526020015f206009018054806020026020016040519081016040528092919081815260200182805480156113fe57602002820191905f5260205f20905b815f9054906101000a900473ffffffffffffffffffffffffffffffffffffffff1673ffffffffffffffffffffffffffffffffffffffff16815260200190600101908083116113b5575b50505050509050919050565b6004602052805f5260405f205f91509050805f01549080600101805461142f90612f22565b80601f016020809104026020016040519081016040528092919081815260200182805461145b90612f22565b80156114a65780601f1061147d576101008083540402835291602001916114a6565b820191905f5260205f20905b81548152906001019060200180831161148957829003601f168201915b505050505090806002015f9054906101000a900463ffffffff1690806003015490806004015490806005015f9054906101000a900473ffffffffffffffffffffffffffffffffffffffff1690806006015490806007015490806008015f9054906101000a900463ffffffff16908060080160049054906101000a900460ff169080600a015f9054906101000a900460ff1690508b565b5f60045f8581526020019081526020015f209050806009015f8154811061156657611565612c35565b5b905f5260205f20015f9054906101000a900473ffffffffffffffffffffffffffffffffffffffff1673ffffffffffffffffffffffffffffffffffffffff163373ffffffffffffffffffffffffffffffffffffffff16146115ff5733846040517f3872341e0000000000000000000000000000000000000000000000000000000081526004016115f6929190612c62565b60405180910390fd5b5f5f90505b838390508110156117bd575f84848381811061162357611622612c35565b5b90506020020160208101906116389190612c0a565b905060075f8781526020019081526020015f205f8273ffffffffffffffffffffffffffffffffffffffff1673ffffffffffffffffffffffffffffffffffffffff1681526020019081526020015f205f9054906101000a900460ff166117af57600160075f8881526020019081526020015f205f8373ffffffffffffffffffffffffffffffffffffffff1673ffffffffffffffffffffffffffffffffffffffff1681526020019081526020015f205f6101000a81548160ff02191690831515021790555060085f8781526020019081526020015f2081908060018154018082558091505060019003905f5260205f20015f9091909190916101000a81548173ffffffffffffffffffffffffffffffffffffffff021916908373ffffffffffffffffffffffffffffffffffffffff1602179055508073ffffffffffffffffffffffffffffffffffffffff16867f1a93957e2514306f9c62a03c9d38f41d87e9192c4bff4ba40eb834d92c6c728060405160405180910390a35b508080600101915050611604565b5050505050565b60015481565b606060095f8381526020019081526020015f20805480602002602001604051908101604052809291908181526020015f905b828210156118c4578382905f5260205f2090600302016040518060600160405290815f82015f9054906101000a900473ffffffffffffffffffffffffffffffffffffffff1673ffffffffffffffffffffffffffffffffffffffff1673ffffffffffffffffffffffffffffffffffffffff16815260200160018201548152602001600282015f9054906101000a900460ff16600281111561189f5761189e612416565b5b60028111156118b1576118b0612416565b5b81525050815260200190600101906117fc565b505050509050919050565b5f60045f8381526020019081526020015f2090505f81600401540361192b57816040517f017e57a100000000000000000000000000000000000000000000000000000000815260040161192291906122e5565b60405180910390fd5b806003015442101561197a578060030154426040517f3bd40433000000000000000000000000000000000000000000000000000000008152600401611971929190612c89565b60405180910390fd5b5f6001826008015f9054906101000a900463ffffffff1661199b9190612e2b565b63ffffffff16826002015f9054906101000a900463ffffffff1663ffffffff161490505f816119ce5782600601546119d0565b5f5b90505f8360040154905081811015611a215780826040517f34699d23000000000000000000000000000000000000000000000000000000008152600401611a18929190612c89565b60405180910390fd5b5f8282611a2e9190613213565b90505f42600143611a3f9190613213565b4088886002015f9054906101000a900463ffffffff1686604051602001611a6a959493929190613266565b6040516020818303038152906040528051906020012090505f866009018054905090505f81835f1c611a9c91906132f1565b90505f5f5f90505b83811015611b64575f8a600901858386611abe9190612e62565b611ac891906132f1565b81548110611ad957611ad8612c35565b5b905f5260205f20015f9054906101000a900473ffffffffffffffffffffffffffffffffffffffff16905060065f8d83604051602001611b19929190613321565b6040516020818303038152906040528051906020012081526020019081526020015f205f9054906101000a900460ff16611b565780925050611b64565b508080600101915050611aa4565b505f73ffffffffffffffffffffffffffffffffffffffff168173ffffffffffffffffffffffffffffffffffffffff1603611bca576040517fd4e1e24000000000000000000000000000000000000000000000000000000000815260040160405180910390fd5b600160065f8c84604051602001611be2929190613321565b6040516020818303038152906040528051906020012081526020019081526020015f205f6101000a81548160ff021916908315150217905550611c6981868b6005015f9054906101000a900473ffffffffffffffffffffffffffffffffffffffff1673ffffffffffffffffffffffffffffffffffffffff1661210d9092919063ffffffff16565b5f896002015f81819054906101000a900463ffffffff16611c8990612e00565b91906101000a81548163ffffffff021916908363ffffffff160217905590508173ffffffffffffffffffffffffffffffffffffffff168b7fc2518a56896ff30efc4b0de222d91241ad29d5e347b5dc1465e1f28bbc6c4ac288600185611cef9190612e2b565b604051611cfd92919061334c565b60405180910390a38815611d32575f8a60040181905550896009015f611d23919061222e565b50505050505050505050611e71565b878a60040181905550896009015f611d4a919061222e565b8960090182908060018154018082558091505060019003905f5260205f20015f9091909190916101000a81548173ffffffffffffffffffffffffffffffffffffffff021916908373ffffffffffffffffffffffffffffffffffffffff160217905550600160055f8d8486604051602001611dc693929190612d62565b6040516020818303038152906040528051906020012081526020019081526020015f205f6101000a81548160ff0219169083151502179055508173ffffffffffffffffffffffffffffffffffffffff168b7f672d3f5897f7a8042cd8c8557caf58ece26929a410c3b1a66a34ccfd3460fcde83604051611e469190612e95565b60405180910390a3896007015442611e5e9190612e62565b8a60030181905550505050505050505050505b50565b611e7c611f43565b8060035f6101000a81548173ffffffffffffffffffffffffffffffffffffffff021916908373ffffffffffffffffffffffffffffffffffffffff16021790555050565b611ec7611f43565b5f73ffffffffffffffffffffffffffffffffffffffff168173ffffffffffffffffffffffffffffffffffffffff1603611f37575f6040517f1e4fbdf7000000000000000000000000000000000000000000000000000000008152600401611f2e91906124be565b60405180910390fd5b611f4081611fca565b50565b611f4b61218c565b73ffffffffffffffffffffffffffffffffffffffff16611f696112b8565b73ffffffffffffffffffffffffffffffffffffffff1614611fc857611f8c61218c565b6040517f118cdaa7000000000000000000000000000000000000000000000000000000008152600401611fbf91906124be565b60405180910390fd5b565b5f5f5f9054906101000a900473ffffffffffffffffffffffffffffffffffffffff169050815f5f6101000a81548173ffffffffffffffffffffffffffffffffffffffff021916908373ffffffffffffffffffffffffffffffffffffffff1602179055508173ffffffffffffffffffffffffffffffffffffffff168173ffffffffffffffffffffffffffffffffffffffff167f8be0079c531659141344cd1fd0a4f28419497f9722a3daafe3b4186f6b6457e060405160405180910390a35050565b612107848573ffffffffffffffffffffffffffffffffffffffff166323b872dd8686866040516024016120c093929190613373565b604051602081830303815290604052915060e01b6020820180517bffffffffffffffffffffffffffffffffffffffffffffffffffffffff8381831617835250505050612193565b50505050565b612187838473ffffffffffffffffffffffffffffffffffffffff1663a9059cbb8585604051602401612140929190612c62565b604051602081830303815290604052915060e01b6020820180517bffffffffffffffffffffffffffffffffffffffffffffffffffffffff8381831617835250505050612193565b505050565b5f33905090565b5f5f60205f8451602086015f885af1806121b2576040513d5f823e3d81fd5b3d92505f519150505f82146121cb5760018114156121e6565b5f8473ffffffffffffffffffffffffffffffffffffffff163b145b1561222857836040517f5274afe700000000000000000000000000000000000000000000000000000000815260040161221f91906124be565b60405180910390fd5b50505050565b5080545f8255905f5260205f2090810190612249919061224c565b50565b5b80821115612263575f815f90555060010161224d565b5090565b5f604051905090565b5f5ffd5b5f5ffd5b5f819050919050565b61228a81612278565b8114612294575f5ffd5b50565b5f813590506122a581612281565b92915050565b5f602082840312156122c0576122bf612270565b5b5f6122cd84828501612297565b91505092915050565b6122df81612278565b82525050565b5f6020820190506122f85f8301846122d6565b92915050565b5f5f6040838503121561231457612313612270565b5b5f61232185828601612297565b925050602061233285828601612297565b9150509250929050565b5f73ffffffffffffffffffffffffffffffffffffffff82169050919050565b5f6123658261233c565b9050919050565b6123758161235b565b811461237f575f5ffd5b50565b5f813590506123908161236c565b92915050565b5f5f604083850312156123ac576123ab612270565b5b5f6123b985828601612297565b92505060206123ca85828601612382565b9150509250929050565b5f8115159050919050565b6123e8816123d4565b82525050565b5f6020820190506124015f8301846123df565b92915050565b6124108161235b565b82525050565b7f4e487b71000000000000000000000000000000000000000000000000000000005f52602160045260245ffd5b6003811061245457612453612416565b5b50565b5f81905061246482612443565b919050565b5f61247382612457565b9050919050565b61248381612469565b82525050565b5f60608201905061249c5f830186612407565b6124a960208301856122d6565b6124b6604083018461247a565b949350505050565b5f6020820190506124d15f830184612407565b92915050565b5f81519050919050565b5f82825260208201905092915050565b5f819050602082019050919050565b6125098161235b565b82525050565b5f61251a8383612500565b60208301905092915050565b5f602082019050919050565b5f61253c826124d7565b61254681856124e1565b9350612551836124f1565b805f5b83811015612581578151612568888261250f565b975061257383612526565b925050600181019050612554565b5085935050505092915050565b5f6020820190508181035f8301526125a68184612532565b905092915050565b5f819050919050565b6125c0816125ae565b81146125ca575f5ffd5b50565b5f813590506125db816125b7565b92915050565b5f602082840312156125f6576125f5612270565b5b5f612603848285016125cd565b91505092915050565b5f5ffd5b5f5ffd5b5f601f19601f8301169050919050565b7f4e487b71000000000000000000000000000000000000000000000000000000005f52604160045260245ffd5b61265a82612614565b810181811067ffffffffffffffff8211171561267957612678612624565b5b80604052505050565b5f61268b612267565b90506126978282612651565b919050565b5f67ffffffffffffffff8211156126b6576126b5612624565b5b6126bf82612614565b9050602081019050919050565b828183375f83830152505050565b5f6126ec6126e78461269c565b612682565b90508281526020810184848401111561270857612707612610565b5b6127138482856126cc565b509392505050565b5f82601f83011261272f5761272e61260c565b5b813561273f8482602086016126da565b91505092915050565b5f60ff82169050919050565b61275d81612748565b8114612767575f5ffd5b50565b5f8135905061277881612754565b92915050565b612787816123d4565b8114612791575f5ffd5b50565b5f813590506127a28161277e565b92915050565b5f5f5f5f5f5f60c087890312156127c2576127c1612270565b5b5f87013567ffffffffffffffff8111156127df576127de612274565b5b6127eb89828a0161271b565b96505060206127fc89828a01612382565b955050604061280d89828a01612297565b945050606061281e89828a0161276a565b935050608061282f89828a01612297565b92505060a061284089828a01612794565b9150509295509295509295565b5f5ffd5b5f5ffd5b5f5f83601f84011261286a5761286961260c565b5b8235905067ffffffffffffffff8111156128875761288661284d565b5b6020830191508360208202830111156128a3576128a2612851565b5b9250929050565b5f5f602083850312156128c0576128bf612270565b5b5f83013567ffffffffffffffff8111156128dd576128dc612274565b5b6128e985828601612855565b92509250509250929050565b5f81519050919050565b5f82825260208201905092915050565b8281835e5f83830152505050565b5f612927826128f5565b61293181856128ff565b935061294181856020860161290f565b61294a81612614565b840191505092915050565b5f63ffffffff82169050919050565b61296d81612955565b82525050565b61297c81612748565b82525050565b5f610160820190506129965f83018e6122d6565b81810360208301526129a8818d61291d565b90506129b7604083018c612964565b6129c4606083018b6122d6565b6129d1608083018a6122d6565b6129de60a0830189612407565b6129eb60c08301886122d6565b6129f860e08301876122d6565b612a06610100830186612964565b612a14610120830185612973565b612a226101408301846123df565b9c9b505050505050505050505050565b5f5f83601f840112612a4757612a4661260c565b5b8235905067ffffffffffffffff811115612a6457612a6361284d565b5b602083019150836020820283011115612a8057612a7f612851565b5b9250929050565b5f5f5f60408486031215612a9e57612a9d612270565b5b5f612aab86828701612297565b935050602084013567ffffffffffffffff811115612acc57612acb612274565b5b612ad886828701612a32565b92509250509250925092565b5f81519050919050565b5f82825260208201905092915050565b5f819050602082019050919050565b612b1681612278565b82525050565b612b2581612469565b82525050565b606082015f820151612b3f5f850182612500565b506020820151612b526020850182612b0d565b506040820151612b656040850182612b1c565b50505050565b5f612b768383612b2b565b60608301905092915050565b5f602082019050919050565b5f612b9882612ae4565b612ba28185612aee565b9350612bad83612afe565b805f5b83811015612bdd578151612bc48882612b6b565b9750612bcf83612b82565b925050600181019050612bb0565b5085935050505092915050565b5f6020820190508181035f830152612c028184612b8e565b905092915050565b5f60208284031215612c1f57612c1e612270565b5b5f612c2c84828501612382565b91505092915050565b7f4e487b71000000000000000000000000000000000000000000000000000000005f52603260045260245ffd5b5f604082019050612c755f830185612407565b612c8260208301846122d6565b9392505050565b5f604082019050612c9c5f8301856122d6565b612ca960208301846122d6565b9392505050565b5f602082019050612cc35f830184612973565b92915050565b5f819050919050565b612ce3612cde82612278565b612cc9565b82525050565b5f8160e01b9050919050565b5f612cff82612ce9565b9050919050565b612d17612d1282612955565b612cf5565b82525050565b5f8160601b9050919050565b5f612d3382612d1d565b9050919050565b5f612d4482612d29565b9050919050565b612d5c612d578261235b565b612d3a565b82525050565b5f612d6d8286612cd2565b602082019150612d7d8285612d06565b600482019150612d8d8284612d4b565b601482019150819050949350505050565b5f606082019050612db15f8301866122d6565b612dbe6020830185612964565b612dcb6040830184612407565b949350505050565b7f4e487b71000000000000000000000000000000000000000000000000000000005f52601160045260245ffd5b5f612e0a82612955565b915063ffffffff8203612e2057612e1f612dd3565b5b600182019050919050565b5f612e3582612955565b9150612e4083612955565b9250828203905063ffffffff811115612e5c57612e5b612dd3565b5b92915050565b5f612e6c82612278565b9150612e7783612278565b9250828201905080821115612e8f57612e8e612dd3565b5b92915050565b5f602082019050612ea85f830184612964565b92915050565b5f612eb882612278565b91507fffffffffffffffffffffffffffffffffffffffffffffffffffffffffffffffff8203612eea57612ee9612dd3565b5b600182019050919050565b7f4e487b71000000000000000000000000000000000000000000000000000000005f52602260045260245ffd5b5f6002820490506001821680612f3957607f821691505b602082108103612f4c57612f4b612ef5565b5b50919050565b5f819050815f5260205f209050919050565b5f6020601f8301049050919050565b5f82821b905092915050565b5f60088302612fae7fffffffffffffffffffffffffffffffffffffffffffffffffffffffffffffffff82612f73565b612fb88683612f73565b95508019841693508086168417925050509392505050565b5f819050919050565b5f612ff3612fee612fe984612278565b612fd0565b612278565b9050919050565b5f819050919050565b61300c83612fd9565b61302061301882612ffa565b848454612f7f565b825550505050565b5f5f905090565b613037613028565b613042818484613003565b505050565b5b818110156130655761305a5f8261302f565b600181019050613048565b5050565b601f8211156130aa5761307b81612f52565b61308484612f64565b81016020851015613093578190505b6130a761309f85612f64565b830182613047565b50505b505050565b5f82821c905092915050565b5f6130ca5f19846008026130af565b1980831691505092915050565b5f6130e283836130bb565b9150826002028217905092915050565b6130fb826128f5565b67ffffffffffffffff81111561311457613113612624565b5b61311e8254612f22565b613129828285613069565b5f60209050601f83116001811461315a575f8415613148578287015190505b61315285826130d7565b8655506131b9565b601f19841661316886612f52565b5f5b8281101561318f5784890151825560018201915060208501945060208101905061316a565b868310156131ac57848901516131a8601f8916826130bb565b8355505b6001600288020188555050505b505050505050565b5f819050919050565b5f6131e46131df6131da846131c1565b612fd0565b612955565b9050919050565b6131f4816131ca565b82525050565b5f60208201905061320d5f8301846131eb565b92915050565b5f61321d82612278565b915061322883612278565b92508282039050818111156132405761323f612dd3565b5b92915050565b5f819050919050565b61326061325b826125ae565b613246565b82525050565b5f6132718288612cd2565b602082019150613281828761324f565b6020820191506132918286612cd2565b6020820191506132a18285612d06565b6004820191506132b18284612cd2565b6020820191508190509695505050505050565b7f4e487b71000000000000000000000000000000000000000000000000000000005f52601260045260245ffd5b5f6132fb82612278565b915061330683612278565b925082613316576133156132c4565b5b828206905092915050565b5f61332c8285612cd2565b60208201915061333c8284612d4b565b6014820191508190509392505050565b5f60408201905061335f5f8301856122d6565b61336c6020830184612964565b9392505050565b5f6060820190506133865f830186612407565b6133936020830185612407565b6133a060408301846122d6565b94935050505056fea26469706673582212207fc106ee6406e4f6aa0919dc7bcefde3b21fc8b92c5be50096af683c43a8940e64736f6c634300081c0033","linkReferences":{}},"methodIdentifiers":{"allowParticipants(uint256,address[])":"c5072ca8","allowedParticipants(uint256,uint256)":"a6da5bca","cancelPotAllowRequest(uint256,uint256)":"4fc88b86","createPot(bytes,address,uint256,uint8,uint256,bool)":"8661ffca","getAllowedParticipants(uint256)":"640e4b7c","getParticipants(uint256)":"c1e3bd3e","getRequests(uint256)":"d5e78829","hasJoinedRound(bytes32)":"7a4f4436","hasWon(bytes32)":"6b7fd007","isAllowed(uint256,address)":"5faa299a","joinPot(uint256)":"831d49ef","owner()":"8da5cb5b","platformFee()":"26232a2e","potCount()":"cf72f230","pots(uint256)":"c3c3df4f","renounceOwnership()":"715018a6","requestPotAllow(uint256)":"65c7444d","requestedParticipants(uint256,uint256)":"61734cd6","setPlatformFee(uint256)":"12e8e2c3","setTreasury(address)":"f0f44260","transferOwnership(address)":"f2fde38b","treasury()":"61d027b3","triggerBatchPayout(uint256[])":"a88390dc","triggerPotPayout(uint256)":"e90c88fe"},"id":35}