{"abi":[{"type":"constructor","inputs":[{"name":"_platformFee","type":"uint256","internalType":"uint256"},{"name":"_treasury","type":"address","internalType":"address"}],"stateMutability":"nonpayable"},{"type":"function","name":"MAX_PARTICIPANTS","inputs":[],"outputs":[{"name":"","type":"uint8","internalType":"uint8"}],"stateMutability":"view"},{"type":"function","name":"allowParticipants","inputs":[{"name":"potId","type":"uint256","internalType":"uint256"},{"name":"participants","type":"address[]","internalType":"address[]"}],"outputs":[],"stateMutability":"nonpayable"},{"type":"function","name":"allowedParticipants","inputs":[{"name":"","type":"uint256","internalType":"uint256"},{"name":"","type":"uint256","internalType":"uint256"}],"outputs":[{"name":"","type":"address","internalType":"address"}],"stateMutability":"view"},{"type":"function","name":"cancelPotAllowRequest","inputs":[{"name":"potId","type":"uint256","internalType":"uint256"},{"name":"requestIndex","type":"uint256","internalType":"uint256"}],"outputs":[],"stateMutability":"nonpayable"},{"type":"function","name":"createPot","inputs":[{"name":"name","type":"bytes","internalType":"bytes"},{"name":"token","type":"address","internalType":"address"},{"name":"entryAmount","type":"uint256","internalType":"uint256"},{"name":"maxParticipants","type":"uint8","internalType":"uint8"},{"name":"periodSeconds","type":"uint256","internalType":"uint256"},{"name":"isPublic","type":"bool","internalType":"bool"}],"outputs":[],"stateMutability":"nonpayable"},{"type":"function","name":"getAllowedParticipants","inputs":[{"name":"potId","type":"uint256","internalType":"uint256"}],"outputs":[{"name":"","type":"address[]","internalType":"address[]"}],"stateMutability":"view"},{"type":"function","name":"getParticipants","inputs":[{"name":"potId","type":"uint256","internalType":"uint256"}],"outputs":[{"name":"","type":"address[]","internalType":"address[]"}],"stateMutability":"view"},{"type":"function","name":"getRequests","inputs":[{"name":"potId","type":"uint256","internalType":"uint256"}],"outputs":[{"name":"","type":"tuple[]","internalType":"struct Potluck.PotRequest[]","components":[{"name":"requestor","type":"address","internalType":"address"},{"name":"timestamp","type":"uint256","internalType":"uint256"},{"name":"status","type":"uint8","internalType":"enum Potluck.PotStatus"}]}],"stateMutability":"view"},{"type":"function","name":"hasJoinedRound","inputs":[{"name":"","type":"bytes32","internalType":"bytes32"}],"outputs":[{"name":"","type":"bool","internalType":"bool"}],"stateMutability":"view"},{"type":"function","name":"hasWon","inputs":[{"name":"","type":"bytes32","internalType":"bytes32"}],"outputs":[{"name":"","type":"bool","internalType":"bool"}],"stateMutability":"view"},{"type":"function","name":"isAllowed","inputs":[{"name":"","type":"uint256","internalType":"uint256"},{"name":"","type":"address","internalType":"address"}],"outputs":[{"name":"","type":"bool","internalType":"bool"}],"stateMutability":"view"},{"type":"function","name":"joinPot","inputs":[{"name":"potId","type":"uint256","internalType":"uint256"}],"outputs":[],"stateMutability":"nonpayable"},{"type":"function","name":"owner","inputs":[],"outputs":[{"name":"","type":"address","internalType":"address"}],"stateMutability":"view"},{"type":"function","name":"platformFee","inputs":[],"outputs":[{"name":"","type":"uint256","internalType":"uint256"}],"stateMutability":"view"},{"type":"function","name":"potCount","inputs":[],"outputs":[{"name":"","type":"uint256","internalType":"uint256"}],"stateMutability":"view"},{"type":"function","name":"pots","inputs":[{"name":"","type":"uint256","internalType":"uint256"}],"outputs":[{"name":"id","type":"uint256","internalType":"uint256"},{"name":"name","type":"bytes","internalType":"bytes"},{"name":"round","type":"uint32","internalType":"uint32"},{"name":"deadline","type":"uint256","internalType":"uint256"},{"name":"balance","type":"uint256","internalType":"uint256"},{"name":"token","type":"address","internalType":"address"},{"name":"entryAmount","type":"uint256","internalType":"uint256"},{"name":"period","type":"uint256","internalType":"uint256"},{"name":"totalParticipants","type":"uint32","internalType":"uint32"},{"name":"maxParticipants","type":"uint8","internalType":"uint8"},{"name":"isPublic","type":"bool","internalType":"bool"}],"stateMutability":"view"},{"type":"function","name":"renounceOwnership","inputs":[],"outputs":[],"stateMutability":"nonpayable"},{"type":"function","name":"requestPotAllow","inputs":[{"name":"potId","type":"uint256","internalType":"uint256"}],"outputs":[],"stateMutability":"nonpayable"},{"type":"function","name":"requestedParticipants","inputs":[{"name":"","type":"uint256","internalType":"uint256"},{"name":"","type":"uint256","internalType":"uint256"}],"outputs":[{"name":"requestor","type":"address","internalType":"address"},{"name":"timestamp","type":"uint256","internalType":"uint256"},{"name":"status","type":"uint8","internalType":"enum Potluck.PotStatus"}],"stateMutability":"view"},{"type":"function","name":"setPlatformFee","inputs":[{"name":"fee","type":"uint256","internalType":"uint256"}],"outputs":[],"stateMutability":"nonpayable"},{"type":"function","name":"setTreasury","inputs":[{"name":"newTreasury","type":"address","internalType":"address"}],"outputs":[],"stateMutability":"nonpayable"},{"type":"function","name":"transferOwnership","inputs":[{"name":"newOwner","type":"address","internalType":"address"}],"outputs":[],"stateMutability":"nonpayable"},{"type":"function","name":"treasury","inputs":[],"outputs":[{"name":"","type":"address","internalType":"address"}],"stateMutability":"view"},{"type":"function","name":"triggerBatchPayout","inputs":[{"name":"potIds","type":"uint256[]","internalType":"uint256[]"}],"outputs":[],"stateMutability":"nonpayable"},{"type":"function","name":"triggerPotPayout","inputs":[{"name":"potId","type":"uint256","internalType":"uint256"}],"outputs":[],"stateMutability":"nonpayable"},{"type":"event","name":"AllowedParticipantAdded","inputs":[{"name":"potId","type":"uint256","indexed":true,"internalType":"uint256"},{"name":"user","type":"address","indexed":true,"internalType":"address"}],"anonymous":false},{"type":"event","name":"OwnershipTransferred","inputs":[{"name":"previousOwner","type":"address","indexed":true,"internalType":"address"},{"name":"newOwner","type":"address","indexed":true,"internalType":"address"}],"anonymous":false},{"type":"event","name":"PotAllowRequested","inputs":[{"name":"potId","type":"uint256","indexed":true,"internalType":"uint256"},{"name":"requestor","type":"address","indexed":true,"internalType":"address"}],"anonymous":false},{"type":"event","name":"PotCreated","inputs":[{"name":"potId","type":"uint256","indexed":true,"internalType":"uint256"},{"name":"creator","type":"address","indexed":true,"internalType":"address"}],"anonymous":false},{"type":"event","name":"PotJoined","inputs":[{"name":"potId","type":"uint256","indexed":true,"internalType":"uint256"},{"name":"roundId","type":"uint32","indexed":false,"internalType":"uint32"},{"name":"user","type":"address","indexed":true,"internalType":"address"}],"anonymous":false},{"type":"event","name":"PotPayout","inputs":[{"name":"potId","type":"uint256","indexed":true,"internalType":"uint256"},{"name":"winner","type":"address","indexed":true,"internalType":"address"},{"name":"amount","type":"uint256","indexed":false,"internalType":"uint256"},{"name":"round","type":"uint32","indexed":false,"internalType":"uint32"}],"anonymous":false},{"type":"error","name":"AlreadyJoined","inputs":[{"name":"potId","type":"uint256","internalType":"uint256"},{"name":"round","type":"uint32","internalType":"uint32"},{"name":"user","type":"address","internalType":"address"}]},{"type":"error","name":"EntryAmountZero","inputs":[]},{"type":"error","name":"InsufficientFundsToRollover","inputs":[{"name":"total","type":"uint256","internalType":"uint256"},{"name":"rollover","type":"uint256","internalType":"uint256"}]},{"type":"error","name":"NoEligibleParticipants","inputs":[]},{"type":"error","name":"NotAllowed","inputs":[{"name":"user","type":"address","internalType":"address"},{"name":"potId","type":"uint256","internalType":"uint256"}]},{"type":"error","name":"NotPotCreator","inputs":[{"name":"sender","type":"address","internalType":"address"},{"name":"potId","type":"uint256","internalType":"uint256"}]},{"type":"error","name":"OwnableInvalidOwner","inputs":[{"name":"owner","type":"address","internalType":"address"}]},{"type":"error","name":"OwnableUnauthorizedAccount","inputs":[{"name":"account","type":"address","internalType":"address"}]},{"type":"error","name":"PeriodTooShort","inputs":[]},{"type":"error","name":"PotDoesNotExist","inputs":[{"name":"potId","type":"uint256","internalType":"uint256"}]},{"type":"error","name":"PotFull","inputs":[{"name":"maxParticipants","type":"uint8","internalType":"uint8"}]},{"type":"error","name":"RoundEnded","inputs":[{"name":"deadline","type":"uint256","internalType":"uint256"},{"name":"nowTimestamp","type":"uint256","internalType":"uint256"}]},{"type":"error","name":"RoundNotReady","inputs":[{"name":"deadline","type":"uint256","internalType":"uint256"},{"name":"nowTimestamp","type":"uint256","internalType":"uint256"}]},{"type":"error","name":"SafeERC20FailedOperation","inputs":[{"name":"token","type":"address","internalType":"address"}]}],"bytecode":{"object":"0x608060405234801561000f575f5ffd5b506040516136e23803806136e283398181016040528101906100319190610252565b335f73ffffffffffffffffffffffffffffffffffffffff168173ffffffffffffffffffffffffffffffffffffffff16036100a2575f6040517f1e4fbdf7000000000000000000000000000000000000000000000000000000008152600401610099919061029f565b60405180910390fd5b6100b18161010060201b60201c565b50816002819055508060035f6101000a81548173ffffffffffffffffffffffffffffffffffffffff021916908373ffffffffffffffffffffffffffffffffffffffff16021790555050506102b8565b5f5f5f9054906101000a900473ffffffffffffffffffffffffffffffffffffffff169050815f5f6101000a81548173ffffffffffffffffffffffffffffffffffffffff021916908373ffffffffffffffffffffffffffffffffffffffff1602179055508173ffffffffffffffffffffffffffffffffffffffff168173ffffffffffffffffffffffffffffffffffffffff167f8be0079c531659141344cd1fd0a4f28419497f9722a3daafe3b4186f6b6457e060405160405180910390a35050565b5f5ffd5b5f819050919050565b6101d7816101c5565b81146101e1575f5ffd5b50565b5f815190506101f2816101ce565b92915050565b5f73ffffffffffffffffffffffffffffffffffffffff82169050919050565b5f610221826101f8565b9050919050565b61023181610217565b811461023b575f5ffd5b50565b5f8151905061024c81610228565b92915050565b5f5f60408385031215610268576102676101c1565b5b5f610275858286016101e4565b92505060206102868582860161023e565b9150509250929050565b61029981610217565b82525050565b5f6020820190506102b25f830184610290565b92915050565b61341d806102c55f395ff3fe608060405234801561000f575f5ffd5b5060043610610171575f3560e01c80638661ffca116100dc578063c5072ca811610095578063e90c88fe1161006f578063e90c88fe14610477578063f0f4426014610493578063f2fde38b146104af578063f3baf070146104cb57610171565b8063c5072ca81461040d578063cf72f23014610429578063d5e788291461044757610171565b80638661ffca1461031d5780638da5cb5b14610339578063a6da5bca14610357578063a88390dc14610387578063c1e3bd3e146103a3578063c3c3df4f146103d357610171565b8063640e4b7c1161012e578063640e4b7c1461024b57806365c7444d1461027b5780636b7fd00714610297578063715018a6146102c75780637a4f4436146102d1578063831d49ef1461030157610171565b806312e8e2c31461017557806326232a2e146101915780634fc88b86146101af5780635faa299a146101cb57806361734cd6146101fb57806361d027b31461022d575b5f5ffd5b61018f600480360381019061018a91906122ea565b6104e9565b005b6101996104fb565b6040516101a69190612324565b60405180910390f35b6101c960048036038101906101c4919061233d565b610501565b005b6101e560048036038101906101e091906123d5565b6106b7565b6040516101f2919061242d565b60405180910390f35b6102156004803603810190610210919061233d565b6106e1565b604051610224939291906124c8565b60405180910390f35b61023561074c565b60405161024291906124fd565b60405180910390f35b610265600480360381019061026091906122ea565b610771565b60405161027291906125cd565b60405180910390f35b610295600480360381019061029091906122ea565b61080d565b005b6102b160048036038101906102ac9190612620565b61094d565b6040516102be919061242d565b60405180910390f35b6102cf61096a565b005b6102eb60048036038101906102e69190612620565b61097d565b6040516102f8919061242d565b60405180910390f35b61031b600480360381019061031691906122ea565b61099a565b005b610337600480360381019061033291906127e7565b610ebd565b005b6103416112f2565b60405161034e91906124fd565b60405180910390f35b610371600480360381019061036c919061233d565b611319565b60405161037e91906124fd565b60405180910390f35b6103a1600480360381019061039c91906128e9565b611361565b005b6103bd60048036038101906103b891906122ea565b6113a5565b6040516103ca91906125cd565b60405180910390f35b6103ed60048036038101906103e891906122ea565b611444565b6040516104049b9a999897969594939291906129c1565b60405180910390f35b61042760048036038101906104229190612ac6565b611576565b005b6104316117fe565b60405161043e9190612324565b60405180910390f35b610461600480360381019061045c91906122ea565b611804565b60405161046e9190612c29565b60405180910390f35b610491600480360381019061048c91906122ea565b611909565b005b6104ad60048036038101906104a89190612c49565b611eae565b005b6104c960048036038101906104c49190612c49565b611ef9565b005b6104d3611f7d565b6040516104e09190612c74565b60405180910390f35b6104f1611f82565b8060028190555050565b60025481565b5f60095f8481526020019081526020015f20828154811061052557610524612c8d565b5b905f5260205f2090600302019050805f015f9054906101000a900473ffffffffffffffffffffffffffffffffffffffff1673ffffffffffffffffffffffffffffffffffffffff163373ffffffffffffffffffffffffffffffffffffffff16146105c75733836040517f8626cc030000000000000000000000000000000000000000000000000000000081526004016105be929190612cba565b60405180910390fd5b60045f8481526020019081526020015f206009015f815481106105ed576105ec612c8d565b5b905f5260205f20015f9054906101000a900473ffffffffffffffffffffffffffffffffffffffff1673ffffffffffffffffffffffffffffffffffffffff163373ffffffffffffffffffffffffffffffffffffffff16146106865733836040517f3872341e00000000000000000000000000000000000000000000000000000000815260040161067d929190612cba565b60405180910390fd5b6002816002015f6101000a81548160ff021916908360028111156106ad576106ac612455565b5b0217905550505050565b6007602052815f5260405f20602052805f5260405f205f915091509054906101000a900460ff1681565b6009602052815f5260405f2081815481106106fa575f80fd5b905f5260205f2090600302015f9150915050805f015f9054906101000a900473ffffffffffffffffffffffffffffffffffffffff1690806001015490806002015f9054906101000a900460ff16905083565b60035f9054906101000a900473ffffffffffffffffffffffffffffffffffffffff1681565b606060085f8381526020019081526020015f2080548060200260200160405190810160405280929190818152602001828054801561080157602002820191905f5260205f20905b815f9054906101000a900473ffffffffffffffffffffffffffffffffffffffff1673ffffffffffffffffffffffffffffffffffffffff16815260200190600101908083116107b8575b50505050509050919050565b60095f8281526020019081526020015f2060405180606001604052803373ffffffffffffffffffffffffffffffffffffffff1681526020014281526020015f600281111561085e5761085d612455565b5b815250908060018154018082558091505060019003905f5260205f2090600302015f909190919091505f820151815f015f6101000a81548173ffffffffffffffffffffffffffffffffffffffff021916908373ffffffffffffffffffffffffffffffffffffffff160217905550602082015181600101556040820151816002015f6101000a81548160ff021916908360028111156108ff576108fe612455565b5b021790555050503373ffffffffffffffffffffffffffffffffffffffff16817f14a1608330df21406b2c36c4c92e47f22c9abd31d9df75abc4af2bdb477469bb60405160405180910390a350565b6006602052805f5260405f205f915054906101000a900460ff1681565b610972611f82565b61097b5f612009565b565b6005602052805f5260405f205f915054906101000a900460ff1681565b5f60045f8381526020019081526020015f2090505f8160040154036109f657816040517f017e57a10000000000000000000000000000000000000000000000000000000081526004016109ed9190612324565b60405180910390fd5b80600301544210610a44578060030154426040517f8868888c000000000000000000000000000000000000000000000000000000008152600401610a3b929190612ce1565b60405180910390fd5b8060080160049054906101000a900460ff1660ff16816009018054905010158015610a8357505f8160080160049054906101000a900460ff1660ff1614155b15610ad6578060080160049054906101000a900460ff166040517f969559d5000000000000000000000000000000000000000000000000000000008152600401610acd9190612c74565b60405180910390fd5b60075f8381526020019081526020015f205f3373ffffffffffffffffffffffffffffffffffffffff1673ffffffffffffffffffffffffffffffffffffffff1681526020019081526020015f205f9054906101000a900460ff16158015610b4a575080600a015f9054906101000a900460ff16155b15610b8e5733826040517f8626cc03000000000000000000000000000000000000000000000000000000008152600401610b85929190612cba565b60405180910390fd5b5f82826002015f9054906101000a900463ffffffff1633604051602001610bb793929190612da1565b60405160208183030381529060405280519060200120905060055f8281526020019081526020015f205f9054906101000a900460ff1615610c465782826002015f9054906101000a900463ffffffff16336040517f0beb1aac000000000000000000000000000000000000000000000000000000008152600401610c3d93929190612ddd565b60405180910390fd5b5f826002015f9054906101000a900463ffffffff1663ffffffff1603610cad57816008015f81819054906101000a900463ffffffff1680929190610c8990612e3f565b91906101000a81548163ffffffff021916908363ffffffff16021790555050610d59565b60055f846001856002015f9054906101000a900463ffffffff16610cd19190612e6a565b33604051602001610ce493929190612da1565b6040516020818303038152906040528051906020012081526020019081526020015f205f9054906101000a900460ff1615610d585733836040517f8626cc03000000000000000000000000000000000000000000000000000000008152600401610d4f929190612cba565b60405180910390fd5b5b610dad33308460060154856005015f9054906101000a900473ffffffffffffffffffffffffffffffffffffffff1673ffffffffffffffffffffffffffffffffffffffff166120ca909392919063ffffffff16565b8160060154826004015f828254610dc49190612ea1565b925050819055508160090133908060018154018082558091505060019003905f5260205f20015f9091909190916101000a81548173ffffffffffffffffffffffffffffffffffffffff021916908373ffffffffffffffffffffffffffffffffffffffff160217905550600160055f8381526020019081526020015f205f6101000a81548160ff0219169083151502179055503373ffffffffffffffffffffffffffffffffffffffff16837f672d3f5897f7a8042cd8c8557caf58ece26929a410c3b1a66a34ccfd3460fcde846002015f9054906101000a900463ffffffff16604051610eb09190612ed4565b60405180910390a3505050565b5f8403610ef6576040517f172bb87f00000000000000000000000000000000000000000000000000000000815260040160405180910390fd5b610e10821015610f32576040517f9306857800000000000000000000000000000000000000000000000000000000815260040160405180910390fd5b610f823360035f9054906101000a900473ffffffffffffffffffffffffffffffffffffffff166002548873ffffffffffffffffffffffffffffffffffffffff166120ca909392919063ffffffff16565b610faf3330868873ffffffffffffffffffffffffffffffffffffffff166120ca909392919063ffffffff16565b5f60015f815480929190610fc290612eed565b9190505590505f60045f8381526020019081526020015f20905081815f018190555087816001019081610ff59190613131565b5086816005015f6101000a81548173ffffffffffffffffffffffffffffffffffffffff021916908373ffffffffffffffffffffffffffffffffffffffff1602179055508581600601819055508381600701819055506001816008015f6101000a81548163ffffffff021916908363ffffffff16021790555083426110799190612ea1565b81600301819055508581600401819055508060090133908060018154018082558091505060019003905f5260205f20015f9091909190916101000a81548173ffffffffffffffffffffffffffffffffffffffff021916908373ffffffffffffffffffffffffffffffffffffffff1602179055508281600a015f6101000a81548160ff021916908315150217905550848160080160046101000a81548160ff021916908360ff160217905550826111fd57600160075f8481526020019081526020015f205f3373ffffffffffffffffffffffffffffffffffffffff1673ffffffffffffffffffffffffffffffffffffffff1681526020019081526020015f205f6101000a81548160ff02191690831515021790555060085f8381526020019081526020015f2033908060018154018082558091505060019003905f5260205f20015f9091909190916101000a81548173ffffffffffffffffffffffffffffffffffffffff021916908373ffffffffffffffffffffffffffffffffffffffff1602179055505b5f825f3360405160200161121393929190612da1565b604051602081830303815290604052805190602001209050600160055f8381526020019081526020015f205f6101000a81548160ff0219169083151502179055503373ffffffffffffffffffffffffffffffffffffffff16837fde307469e0906e8d7a6e84aec39b533cfe12dd01b2737a0f785511261337231760405160405180910390a33373ffffffffffffffffffffffffffffffffffffffff16837f672d3f5897f7a8042cd8c8557caf58ece26929a410c3b1a66a34ccfd3460fcde5f6040516112df9190613239565b60405180910390a3505050505050505050565b5f5f5f9054906101000a900473ffffffffffffffffffffffffffffffffffffffff16905090565b6008602052815f5260405f208181548110611332575f80fd5b905f5260205f20015f915091509054906101000a900473ffffffffffffffffffffffffffffffffffffffff1681565b5f5f90505b828290508110156113a05761139383838381811061138757611386612c8d565b5b90506020020135611909565b8080600101915050611366565b505050565b606060045f8381526020019081526020015f2060090180548060200260200160405190810160405280929190818152602001828054801561143857602002820191905f5260205f20905b815f9054906101000a900473ffffffffffffffffffffffffffffffffffffffff1673ffffffffffffffffffffffffffffffffffffffff16815260200190600101908083116113ef575b50505050509050919050565b6004602052805f5260405f205f91509050805f01549080600101805461146990612f61565b80601f016020809104026020016040519081016040528092919081815260200182805461149590612f61565b80156114e05780601f106114b7576101008083540402835291602001916114e0565b820191905f5260205f20905b8154815290600101906020018083116114c357829003601f168201915b505050505090806002015f9054906101000a900463ffffffff1690806003015490806004015490806005015f9054906101000a900473ffffffffffffffffffffffffffffffffffffffff1690806006015490806007015490806008015f9054906101000a900463ffffffff16908060080160049054906101000a900460ff169080600a015f9054906101000a900460ff1690508b565b5f60045f8581526020019081526020015f209050806009015f815481106115a05761159f612c8d565b5b905f5260205f20015f9054906101000a900473ffffffffffffffffffffffffffffffffffffffff1673ffffffffffffffffffffffffffffffffffffffff163373ffffffffffffffffffffffffffffffffffffffff16146116395733846040517f3872341e000000000000000000000000000000000000000000000000000000008152600401611630929190612cba565b60405180910390fd5b5f5f90505b838390508110156117f7575f84848381811061165d5761165c612c8d565b5b90506020020160208101906116729190612c49565b905060075f8781526020019081526020015f205f8273ffffffffffffffffffffffffffffffffffffffff1673ffffffffffffffffffffffffffffffffffffffff1681526020019081526020015f205f9054906101000a900460ff166117e957600160075f8881526020019081526020015f205f8373ffffffffffffffffffffffffffffffffffffffff1673ffffffffffffffffffffffffffffffffffffffff1681526020019081526020015f205f6101000a81548160ff02191690831515021790555060085f8781526020019081526020015f2081908060018154018082558091505060019003905f5260205f20015f9091909190916101000a81548173ffffffffffffffffffffffffffffffffffffffff021916908373ffffffffffffffffffffffffffffffffffffffff1602179055508073ffffffffffffffffffffffffffffffffffffffff16867f1a93957e2514306f9c62a03c9d38f41d87e9192c4bff4ba40eb834d92c6c728060405160405180910390a35b50808060010191505061163e565b5050505050565b60015481565b606060095f8381526020019081526020015f20805480602002602001604051908101604052809291908181526020015f905b828210156118fe578382905f5260205f2090600302016040518060600160405290815f82015f9054906101000a900473ffffffffffffffffffffffffffffffffffffffff1673ffffffffffffffffffffffffffffffffffffffff1673ffffffffffffffffffffffffffffffffffffffff16815260200160018201548152602001600282015f9054906101000a900460ff1660028111156118d9576118d8612455565b5b60028111156118eb576118ea612455565b5b8152505081526020019060010190611836565b505050509050919050565b5f60045f8381526020019081526020015f2090505f81600401540361196557816040517f017e57a100000000000000000000000000000000000000000000000000000000815260040161195c9190612324565b60405180910390fd5b80600301544210156119b4578060030154426040517f3bd404330000000000000000000000000000000000000000000000000000000081526004016119ab929190612ce1565b60405180910390fd5b5f6001826008015f9054906101000a900463ffffffff166119d59190612e6a565b63ffffffff16826002015f9054906101000a900463ffffffff1663ffffffff161490505f81611a08578260060154611a0a565b5f5b90505f8360040154905081811015611a5b5780826040517f34699d23000000000000000000000000000000000000000000000000000000008152600401611a52929190612ce1565b60405180910390fd5b5f8282611a689190613252565b90505f42600143611a799190613252565b4088886002015f9054906101000a900463ffffffff1686604051602001611aa49594939291906132a5565b6040516020818303038152906040528051906020012090505f866009018054905090505f81835f1c611ad69190613330565b90505f5f5f90505b83811015611b9e575f8a600901858386611af89190612ea1565b611b029190613330565b81548110611b1357611b12612c8d565b5b905f5260205f20015f9054906101000a900473ffffffffffffffffffffffffffffffffffffffff16905060065f8d83604051602001611b53929190613360565b6040516020818303038152906040528051906020012081526020019081526020015f205f9054906101000a900460ff16611b905780925050611b9e565b508080600101915050611ade565b505f73ffffffffffffffffffffffffffffffffffffffff168173ffffffffffffffffffffffffffffffffffffffff1603611c04576040517fd4e1e24000000000000000000000000000000000000000000000000000000000815260040160405180910390fd5b600160065f8c84604051602001611c1c929190613360565b6040516020818303038152906040528051906020012081526020019081526020015f205f6101000a81548160ff021916908315150217905550611ca381868b6005015f9054906101000a900473ffffffffffffffffffffffffffffffffffffffff1673ffffffffffffffffffffffffffffffffffffffff1661214c9092919063ffffffff16565b5f896002015f81819054906101000a900463ffffffff16611cc390612e3f565b91906101000a81548163ffffffff021916908363ffffffff160217905590508173ffffffffffffffffffffffffffffffffffffffff168b7fc2518a56896ff30efc4b0de222d91241ad29d5e347b5dc1465e1f28bbc6c4ac288600185611d299190612e6a565b604051611d3792919061338b565b60405180910390a38815611d6c575f8a60040181905550896009015f611d5d919061226d565b50505050505050505050611eab565b878a60040181905550896009015f611d84919061226d565b8960090182908060018154018082558091505060019003905f5260205f20015f9091909190916101000a81548173ffffffffffffffffffffffffffffffffffffffff021916908373ffffffffffffffffffffffffffffffffffffffff160217905550600160055f8d8486604051602001611e0093929190612da1565b6040516020818303038152906040528051906020012081526020019081526020015f205f6101000a81548160ff0219169083151502179055508173ffffffffffffffffffffffffffffffffffffffff168b7f672d3f5897f7a8042cd8c8557caf58ece26929a410c3b1a66a34ccfd3460fcde83604051611e809190612ed4565b60405180910390a3896007015442611e989190612ea1565b8a60030181905550505050505050505050505b50565b611eb6611f82565b8060035f6101000a81548173ffffffffffffffffffffffffffffffffffffffff021916908373ffffffffffffffffffffffffffffffffffffffff16021790555050565b611f01611f82565b5f73ffffffffffffffffffffffffffffffffffffffff168173ffffffffffffffffffffffffffffffffffffffff1603611f71575f6040517f1e4fbdf7000000000000000000000000000000000000000000000000000000008152600401611f6891906124fd565b60405180910390fd5b611f7a81612009565b50565b606481565b611f8a6121cb565b73ffffffffffffffffffffffffffffffffffffffff16611fa86112f2565b73ffffffffffffffffffffffffffffffffffffffff161461200757611fcb6121cb565b6040517f118cdaa7000000000000000000000000000000000000000000000000000000008152600401611ffe91906124fd565b60405180910390fd5b565b5f5f5f9054906101000a900473ffffffffffffffffffffffffffffffffffffffff169050815f5f6101000a81548173ffffffffffffffffffffffffffffffffffffffff021916908373ffffffffffffffffffffffffffffffffffffffff1602179055508173ffffffffffffffffffffffffffffffffffffffff168173ffffffffffffffffffffffffffffffffffffffff167f8be0079c531659141344cd1fd0a4f28419497f9722a3daafe3b4186f6b6457e060405160405180910390a35050565b612146848573ffffffffffffffffffffffffffffffffffffffff166323b872dd8686866040516024016120ff939291906133b2565b604051602081830303815290604052915060e01b6020820180517bffffffffffffffffffffffffffffffffffffffffffffffffffffffff83818316178352505050506121d2565b50505050565b6121c6838473ffffffffffffffffffffffffffffffffffffffff1663a9059cbb858560405160240161217f929190612cba565b604051602081830303815290604052915060e01b6020820180517bffffffffffffffffffffffffffffffffffffffffffffffffffffffff83818316178352505050506121d2565b505050565b5f33905090565b5f5f60205f8451602086015f885af1806121f1576040513d5f823e3d81fd5b3d92505f519150505f821461220a576001811415612225565b5f8473ffffffffffffffffffffffffffffffffffffffff163b145b1561226757836040517f5274afe700000000000000000000000000000000000000000000000000000000815260040161225e91906124fd565b60405180910390fd5b50505050565b5080545f8255905f5260205f2090810190612288919061228b565b50565b5b808211156122a2575f815f90555060010161228c565b5090565b5f604051905090565b5f5ffd5b5f5ffd5b5f819050919050565b6122c9816122b7565b81146122d3575f5ffd5b50565b5f813590506122e4816122c0565b92915050565b5f602082840312156122ff576122fe6122af565b5b5f61230c848285016122d6565b91505092915050565b61231e816122b7565b82525050565b5f6020820190506123375f830184612315565b92915050565b5f5f60408385031215612353576123526122af565b5b5f612360858286016122d6565b9250506020612371858286016122d6565b9150509250929050565b5f73ffffffffffffffffffffffffffffffffffffffff82169050919050565b5f6123a48261237b565b9050919050565b6123b48161239a565b81146123be575f5ffd5b50565b5f813590506123cf816123ab565b92915050565b5f5f604083850312156123eb576123ea6122af565b5b5f6123f8858286016122d6565b9250506020612409858286016123c1565b9150509250929050565b5f8115159050919050565b61242781612413565b82525050565b5f6020820190506124405f83018461241e565b92915050565b61244f8161239a565b82525050565b7f4e487b71000000000000000000000000000000000000000000000000000000005f52602160045260245ffd5b6003811061249357612492612455565b5b50565b5f8190506124a382612482565b919050565b5f6124b282612496565b9050919050565b6124c2816124a8565b82525050565b5f6060820190506124db5f830186612446565b6124e86020830185612315565b6124f560408301846124b9565b949350505050565b5f6020820190506125105f830184612446565b92915050565b5f81519050919050565b5f82825260208201905092915050565b5f819050602082019050919050565b6125488161239a565b82525050565b5f612559838361253f565b60208301905092915050565b5f602082019050919050565b5f61257b82612516565b6125858185612520565b935061259083612530565b805f5b838110156125c05781516125a7888261254e565b97506125b283612565565b925050600181019050612593565b5085935050505092915050565b5f6020820190508181035f8301526125e58184612571565b905092915050565b5f819050919050565b6125ff816125ed565b8114612609575f5ffd5b50565b5f8135905061261a816125f6565b92915050565b5f60208284031215612635576126346122af565b5b5f6126428482850161260c565b91505092915050565b5f5ffd5b5f5ffd5b5f601f19601f8301169050919050565b7f4e487b71000000000000000000000000000000000000000000000000000000005f52604160045260245ffd5b61269982612653565b810181811067ffffffffffffffff821117156126b8576126b7612663565b5b80604052505050565b5f6126ca6122a6565b90506126d68282612690565b919050565b5f67ffffffffffffffff8211156126f5576126f4612663565b5b6126fe82612653565b9050602081019050919050565b828183375f83830152505050565b5f61272b612726846126db565b6126c1565b9050828152602081018484840111156127475761274661264f565b5b61275284828561270b565b509392505050565b5f82601f83011261276e5761276d61264b565b5b813561277e848260208601612719565b91505092915050565b5f60ff82169050919050565b61279c81612787565b81146127a6575f5ffd5b50565b5f813590506127b781612793565b92915050565b6127c681612413565b81146127d0575f5ffd5b50565b5f813590506127e1816127bd565b92915050565b5f5f5f5f5f5f60c08789031215612801576128006122af565b5b5f87013567ffffffffffffffff81111561281e5761281d6122b3565b5b61282a89828a0161275a565b965050602061283b89828a016123c1565b955050604061284c89828a016122d6565b945050606061285d89828a016127a9565b935050608061286e89828a016122d6565b92505060a061287f89828a016127d3565b9150509295509295509295565b5f5ffd5b5f5ffd5b5f5f83601f8401126128a9576128a861264b565b5b8235905067ffffffffffffffff8111156128c6576128c561288c565b5b6020830191508360208202830111156128e2576128e1612890565b5b9250929050565b5f5f602083850312156128ff576128fe6122af565b5b5f83013567ffffffffffffffff81111561291c5761291b6122b3565b5b61292885828601612894565b92509250509250929050565b5f81519050919050565b5f82825260208201905092915050565b8281835e5f83830152505050565b5f61296682612934565b612970818561293e565b935061298081856020860161294e565b61298981612653565b840191505092915050565b5f63ffffffff82169050919050565b6129ac81612994565b82525050565b6129bb81612787565b82525050565b5f610160820190506129d55f83018e612315565b81810360208301526129e7818d61295c565b90506129f6604083018c6129a3565b612a03606083018b612315565b612a10608083018a612315565b612a1d60a0830189612446565b612a2a60c0830188612315565b612a3760e0830187612315565b612a456101008301866129a3565b612a536101208301856129b2565b612a6161014083018461241e565b9c9b505050505050505050505050565b5f5f83601f840112612a8657612a8561264b565b5b8235905067ffffffffffffffff811115612aa357612aa261288c565b5b602083019150836020820283011115612abf57612abe612890565b5b9250929050565b5f5f5f60408486031215612add57612adc6122af565b5b5f612aea868287016122d6565b935050602084013567ffffffffffffffff811115612b0b57612b0a6122b3565b5b612b1786828701612a71565b92509250509250925092565b5f81519050919050565b5f82825260208201905092915050565b5f819050602082019050919050565b612b55816122b7565b82525050565b612b64816124a8565b82525050565b606082015f820151612b7e5f85018261253f565b506020820151612b916020850182612b4c565b506040820151612ba46040850182612b5b565b50505050565b5f612bb58383612b6a565b60608301905092915050565b5f602082019050919050565b5f612bd782612b23565b612be18185612b2d565b9350612bec83612b3d565b805f5b83811015612c1c578151612c038882612baa565b9750612c0e83612bc1565b925050600181019050612bef565b5085935050505092915050565b5f6020820190508181035f830152612c418184612bcd565b905092915050565b5f60208284031215612c5e57612c5d6122af565b5b5f612c6b848285016123c1565b91505092915050565b5f602082019050612c875f8301846129b2565b92915050565b7f4e487b71000000000000000000000000000000000000000000000000000000005f52603260045260245ffd5b5f604082019050612ccd5f830185612446565b612cda6020830184612315565b9392505050565b5f604082019050612cf45f830185612315565b612d016020830184612315565b9392505050565b5f819050919050565b612d22612d1d826122b7565b612d08565b82525050565b5f8160e01b9050919050565b5f612d3e82612d28565b9050919050565b612d56612d5182612994565b612d34565b82525050565b5f8160601b9050919050565b5f612d7282612d5c565b9050919050565b5f612d8382612d68565b9050919050565b612d9b612d968261239a565b612d79565b82525050565b5f612dac8286612d11565b602082019150612dbc8285612d45565b600482019150612dcc8284612d8a565b601482019150819050949350505050565b5f606082019050612df05f830186612315565b612dfd60208301856129a3565b612e0a6040830184612446565b949350505050565b7f4e487b71000000000000000000000000000000000000000000000000000000005f52601160045260245ffd5b5f612e4982612994565b915063ffffffff8203612e5f57612e5e612e12565b5b600182019050919050565b5f612e7482612994565b9150612e7f83612994565b9250828203905063ffffffff811115612e9b57612e9a612e12565b5b92915050565b5f612eab826122b7565b9150612eb6836122b7565b9250828201905080821115612ece57612ecd612e12565b5b92915050565b5f602082019050612ee75f8301846129a3565b92915050565b5f612ef7826122b7565b91507fffffffffffffffffffffffffffffffffffffffffffffffffffffffffffffffff8203612f2957612f28612e12565b5b600182019050919050565b7f4e487b71000000000000000000000000000000000000000000000000000000005f52602260045260245ffd5b5f6002820490506001821680612f7857607f821691505b602082108103612f8b57612f8a612f34565b5b50919050565b5f819050815f5260205f209050919050565b5f6020601f8301049050919050565b5f82821b905092915050565b5f60088302612fed7fffffffffffffffffffffffffffffffffffffffffffffffffffffffffffffffff82612fb2565b612ff78683612fb2565b95508019841693508086168417925050509392505050565b5f819050919050565b5f61303261302d613028846122b7565b61300f565b6122b7565b9050919050565b5f819050919050565b61304b83613018565b61305f61305782613039565b848454612fbe565b825550505050565b5f5f905090565b613076613067565b613081818484613042565b505050565b5b818110156130a4576130995f8261306e565b600181019050613087565b5050565b601f8211156130e9576130ba81612f91565b6130c384612fa3565b810160208510156130d2578190505b6130e66130de85612fa3565b830182613086565b50505b505050565b5f82821c905092915050565b5f6131095f19846008026130ee565b1980831691505092915050565b5f61312183836130fa565b9150826002028217905092915050565b61313a82612934565b67ffffffffffffffff81111561315357613152612663565b5b61315d8254612f61565b6131688282856130a8565b5f60209050601f831160018114613199575f8415613187578287015190505b6131918582613116565b8655506131f8565b601f1984166131a786612f91565b5f5b828110156131ce578489015182556001820191506020850194506020810190506131a9565b868310156131eb57848901516131e7601f8916826130fa565b8355505b6001600288020188555050505b505050505050565b5f819050919050565b5f61322361321e61321984613200565b61300f565b612994565b9050919050565b61323381613209565b82525050565b5f60208201905061324c5f83018461322a565b92915050565b5f61325c826122b7565b9150613267836122b7565b925082820390508181111561327f5761327e612e12565b5b92915050565b5f819050919050565b61329f61329a826125ed565b613285565b82525050565b5f6132b08288612d11565b6020820191506132c0828761328e565b6020820191506132d08286612d11565b6020820191506132e08285612d45565b6004820191506132f08284612d11565b6020820191508190509695505050505050565b7f4e487b71000000000000000000000000000000000000000000000000000000005f52601260045260245ffd5b5f61333a826122b7565b9150613345836122b7565b92508261335557613354613303565b5b828206905092915050565b5f61336b8285612d11565b60208201915061337b8284612d8a565b6014820191508190509392505050565b5f60408201905061339e5f830185612315565b6133ab60208301846129a3565b9392505050565b5f6060820190506133c55f830186612446565b6133d26020830185612446565b6133df6040830184612315565b94935050505056fea26469706673582212201958aabcc52528f4d8d1cda2cbaca5fff572d6f9abd8a62bd1c6c576bc61da4364736f6c634300081c0033","linkReferences":{}},"methodIdentifiers":{"MAX_PARTICIPANTS()":"f3baf070","allowParticipants(uint256,address[])":"c5072ca8","allowedParticipants(uint256,uint256)":"a6da5bca","cancelPotAllowRequest(uint256,uint256)":"4fc88b86","createPot(bytes,address,uint256,uint8,uint256,bool)":"8661ffca","getAllowedParticipants(uint256)":"640e4b7c","getParticipants(uint256)":"c1e3bd3e","getRequests(uint256)":"d5e78829","hasJoinedRound(bytes32)":"7a4f4436","hasWon(bytes32)":"6b7fd007","isAllowed(uint256,address)":"5faa299a","joinPot(uint256)":"831d49ef","owner()":"8da5cb5b","platformFee()":"26232a2e","potCount()":"cf72f230","pots(uint256)":"c3c3df4f","renounceOwnership()":"715018a6","requestPotAllow(uint256)":"65c7444d","requestedParticipants(uint256,uint256)":"61734cd6","setPlatformFee(uint256)":"12e8e2c3","setTreasury(address)":"f0f44260","transferOwnership(address)":"f2fde38b","treasury()":"61d027b3","triggerBatchPayout(uint256[])":"a88390dc","triggerPotPayout(uint256)":"e90c88fe"},"id":35}