{"abi":[{"type":"constructor","inputs":[{"name":"_potluck","type":"address","internalType":"address"}],"stateMutability":"nonpayable"},{"type":"function","name":"batchTriggerPayout","inputs":[{"name":"potIds","type":"uint256[]","internalType":"uint256[]"}],"outputs":[],"stateMutability":"nonpayable"},{"type":"function","name":"endBatch","inputs":[{"name":"potIds","type":"uint256[]","internalType":"uint256[]"}],"outputs":[],"stateMutability":"nonpayable"},{"type":"function","name":"triggerBatchJoinOnBehalf","inputs":[{"name":"potId","type":"uint256","internalType":"uint256"},{"name":"participants","type":"address[]","internalType":"address[]"}],"outputs":[],"stateMutability":"nonpayable"}],"bytecode":{"object":"0x60a060405234801561001057600080fd5b5060405161093e38038061093e833981810160405281019061003291906100cf565b8073ffffffffffffffffffffffffffffffffffffffff1660808173ffffffffffffffffffffffffffffffffffffffff1681525050506100fc565b600080fd5b600073ffffffffffffffffffffffffffffffffffffffff82169050919050565b600061009c82610071565b9050919050565b6100ac81610091565b81146100b757600080fd5b50565b6000815190506100c9816100a3565b92915050565b6000602082840312156100e5576100e461006c565b5b60006100f3848285016100ba565b91505092915050565b60805161081a6101246000396000818160aa01528181610172015261023c015261081a6000f3fe608060405234801561001057600080fd5b50600436106100415760003560e01c80632fd9971214610046578063575d5c3d14610062578063de1149b31461007e575b600080fd5b610060600480360381019061005b9190610380565b61009a565b005b61007c60048036038101906100779190610552565b610164565b005b610098600480360381019061009391906105f1565b61022c565b005b60005b8282905081101561015f577f000000000000000000000000000000000000000000000000000000000000000073ffffffffffffffffffffffffffffffffffffffff1663e0321cd48484848181106100f7576100f6610651565b5b905060200201356040518263ffffffff1660e01b815260040161011a919061068f565b600060405180830381600087803b15801561013457600080fd5b505af1158015610148573d6000803e3d6000fd5b505050508080610157906106d9565b91505061009d565b505050565b60005b8151811015610228577f000000000000000000000000000000000000000000000000000000000000000073ffffffffffffffffffffffffffffffffffffffff1663e90c88fe8383815181106101bf576101be610651565b5b60200260200101516040518263ffffffff1660e01b81526004016101e3919061068f565b600060405180830381600087803b1580156101fd57600080fd5b505af1158015610211573d6000803e3d6000fd5b505050508080610220906106d9565b915050610167565b5050565b60005b82829050811015610301577f000000000000000000000000000000000000000000000000000000000000000073ffffffffffffffffffffffffffffffffffffffff16639999fea08585858581811061028a57610289610651565b5b905060200201602081019061029f919061077f565b6040518363ffffffff1660e01b81526004016102bc9291906107bb565b600060405180830381600087803b1580156102d657600080fd5b505af11580156102ea573d6000803e3d6000fd5b5050505080806102f9906106d9565b91505061022f565b50505050565b6000604051905090565b600080fd5b600080fd5b600080fd5b600080fd5b600080fd5b60008083601f8401126103405761033f61031b565b5b8235905067ffffffffffffffff81111561035d5761035c610320565b5b60208301915083602082028301111561037957610378610325565b5b9250929050565b6000806020838503121561039757610396610311565b5b600083013567ffffffffffffffff8111156103b5576103b4610316565b5b6103c18582860161032a565b92509250509250929050565b6000601f19601f8301169050919050565b7f4e487b7100000000000000000000000000000000000000000000000000000000600052604160045260246000fd5b610416826103cd565b810181811067ffffffffffffffff82111715610435576104346103de565b5b80604052505050565b6000610448610307565b9050610454828261040d565b919050565b600067ffffffffffffffff821115610474576104736103de565b5b602082029050602081019050919050565b6000819050919050565b61049881610485565b81146104a357600080fd5b50565b6000813590506104b58161048f565b92915050565b60006104ce6104c984610459565b61043e565b905080838252602082019050602084028301858111156104f1576104f0610325565b5b835b8181101561051a578061050688826104a6565b8452602084019350506020810190506104f3565b5050509392505050565b600082601f8301126105395761053861031b565b5b81356105498482602086016104bb565b91505092915050565b60006020828403121561056857610567610311565b5b600082013567ffffffffffffffff81111561058657610585610316565b5b61059284828501610524565b91505092915050565b60008083601f8401126105b1576105b061031b565b5b8235905067ffffffffffffffff8111156105ce576105cd610320565b5b6020830191508360208202830111156105ea576105e9610325565b5b9250929050565b60008060006040848603121561060a57610609610311565b5b6000610618868287016104a6565b935050602084013567ffffffffffffffff81111561063957610638610316565b5b6106458682870161059b565b92509250509250925092565b7f4e487b7100000000000000000000000000000000000000000000000000000000600052603260045260246000fd5b61068981610485565b82525050565b60006020820190506106a46000830184610680565b92915050565b7f4e487b7100000000000000000000000000000000000000000000000000000000600052601160045260246000fd5b60006106e482610485565b91507fffffffffffffffffffffffffffffffffffffffffffffffffffffffffffffffff8203610716576107156106aa565b5b600182019050919050565b600073ffffffffffffffffffffffffffffffffffffffff82169050919050565b600061074c82610721565b9050919050565b61075c81610741565b811461076757600080fd5b50565b60008135905061077981610753565b92915050565b60006020828403121561079557610794610311565b5b60006107a38482850161076a565b91505092915050565b6107b581610741565b82525050565b60006040820190506107d06000830185610680565b6107dd60208301846107ac565b939250505056fea2646970667358221220380bd195f1e5278378cd9430bb2fff30c888c0b9d409dfc442615c997e513dec64736f6c63430008130033","linkReferences":{}},"methodIdentifiers":{"batchTriggerPayout(uint256[])":"575d5c3d","endBatch(uint256[])":"2fd99712","triggerBatchJoinOnBehalf(uint256,address[])":"de1149b3"},"id":24}